:100000000C9458070C9480070C9480070C9480077C
:100010000C9480070C9480070C9480070C94E01FCC
:100020000C9480070C9480070C9480070C94FD219D
:100030000C9480070C9480070C9480070C94800724
:100040000C9494200C9480070C9462200C943C2017
:100050000C9480070C9480070C9480070C94800704
:100060000C94DE200C948007084AD73B3BCE016EEF
:1000700084BCBFFDC12F3D6C74319ABD56833DDAFF
:100080003D00C77F11BED9E4BB4C3E916BAAAABE0E
:10009000000000803F05A84CCDB2D44EB93836A937
:1000A000020C50B9918688083CA6AAAA2ABE000074
:1000B00000803F07634236B79BD8A71A39685618A5
:1000C000AEBAAB558C1D3CB7CC5763BD6DEDFD751D
:1000D0003EF6177231BF000000803F08000000BEEE
:1000E000922449123EABAAAA2ABECDCCCC4C3E00EB
:1000F000000080BEABAAAAAA3E00000000BF00001C
:1001000000803F0000000000084178D3BB4387D146
:10011000133D190E3CC3BD4282AD2B3E68EC827686
:10012000BED98FE1A93E4C80EFFFBE01C4FF7F3FE7
:1001300000000000000001000001000000000000BD
:10014000000000000000000000006B626B006B7795
:100150006B46006B707531006B767452006B767471
:100160004C006B767446006B6A79006B636B006BB6
:10017000706565006B737472007520006B686900B0
:100180006B7075006B736974006952616E64000076
:1001900000000023002600290000000000240027A2
:1001A000002A00000000080002010000030407000C
:1001B0000000000000000000F8F62A3F68F57A0011
:1001C00006FFFE0003000000650054FFEF0000FA88
:1001D00080000B12820001030C30C30A74562D0DEF
:1001E00062DBC716F4BA023883F8833000F883253F
:1001F0008EF8833000F883FFFFFFFF0CBDD8112479
:100200000004001A8279A10036003C0000000000C2
:1002100010000038836FA2003E033040000000024F
:10022000CAE3093E800000200000000000000040FA
:10023000000000600000001FA4E8E4FFF5DCB90046
:100240005B79CF1F3F787600867C5A00862347FA79
:10025000B986310074878A0000000000004305FF62
:10026000FFE9A800002182FAB84D46FFFADF3DFF02
:10027000FFB2B3000000003FFFBA98005DAC080079
:100280000A637800014621FFFF0000000042B5002C
:10029000060064006400061406029F0F479132D9DD
:1002A0000E9FC91DCF4C343BB67AE80064000600AF
:1002B000C800000000FFFE10000000000000000069
:1002C0000000000000000000070000FFF10000FA3D
:1002D000460000A2B800001000000004D600000490
:1002E000CC000004CC000000000000000000000072
:1002F00000000000000000000600020005000700EA
:1003000000000000640000000000000000000C007D
:100310000500640020000000000000000000000054
:100320000040000000030000000032F8980000FFC9
:10033000650000830F000000060000FFF10000FAD6
:10034000460000A2B800000000000000000000000D
:10035000000000000000000000003200000000006B
:1003600000000000001000000000010000000D006F
:1003700000B26A000200000001FB83007C0000FB69
:1003800015FC001FB4FF830000000100650007009A
:100390006403E8006400280000FFFD000000001670
:1003A000A000000000000000001000002F0000006E
:1003B0000001F40000100000280000FFFF4581FF4D
:1003C000FFFA72000000000000000000440001007D
:1003D00005BAC6004778A200000000000000000037
:1003E00000060000000014000023BB002EA25B00EA
:1003F000000568000BCF490004FFFD00020000006B
:1004000000000200000000001B00000000000000CF
:100410000000000000000000640007000800060063
:1004200006FFFE00000000000000000000000000C9
:1004300000000000000000000000000000000000BC
:1004400000000000000000000000000000000000AC
:1004500000000000000000002EA25B000005680004
:100460000BCF490000000000F8F62A3F68F57A003B
:1004700004FFFD00020000001B000000000000005F
:10048000000000000E000EFFFFFFCF000400000080
:10049000000032FFFFFF9C00004305000000000049
:1004A00000000100000064FFE50000000000000003
:1004B000000000000000000000000100000000003B
:1004C0000100000000000000018000000180000029
:1004D000018000002426D30001000100000000007C
:1004E0000600100096003C00000000000000000024
:1004F0000000001F9E655D0C0A4E68CDCF77095045
:10050000166759C619CE82000000000000000000E6
:100510000000000047711C000000000000000017F0
:10052000D78400030000000011DC4703000000C76F
:10053000938F9D1E1B1C19FFFFFFFF000000000E84
:10054000DFA4381F9E655D000000000047711C029B
:1005500003188500004000000000000000000300B8
:10056000000000000000003FFFFFFDFFFFF4C9FF97
:10057000FFBCF000010C0F000000000000000000B4
:10058000000000000000000000000000000000006B
:1005900000000000000000F5B7BAB3677DDF7E728F
:1005A000902E554CF6E68800000000000000000088
:1005B00000000000000000D8DCB4B8B0D8B9ABF33C
:1005C000F8FAB3B7BB8E9EAEF132F51BF1B4B8B0FA
:1005D0008097F1A9DFDFDFAADFDFDFF2AA4CCD6C65
:1005E000A90CC92C97F1A989264666B28999A92D2B
:1005F000557DB0B08AA896365676F1BAA3B4B280CB
:10060000C0B8A89711B28398BAA3F0240844106424
:1006100018B2B9B49883F1A329557DBAB5B1A383B3
:1006200093F0002850F5B2B6AA839328547CF1B910
:10063000A3829361BAA2DADEDFDB819AB9AEF560FC
:100640006870F1DABAA2DFD9BAA2FAB9A38292DB52
:1006500031BAA2D9BAA2F8DF85A4D0C1BBAD83C29A
:10066000C5C7B8A2DFDFDFBAA0DFDFDFD8D8F1B8B7
:10067000AAB38DB4980D355DB2B6BAAF8C96198F0A
:100680009FA70E161EB49AB8AA872C547CBAA4B0A1
:100690008AB691325676B28494A4C808CDD8B8B43C
:1006A000B0F19982A82D557D98A80E161EA22C5443
:1006B0007C92A4F02C5078F184A898C4CDFCD80D7D
:1006C000DBA8FC2DF3D9BAA6F8DABAA6DED8BAB2FE
:1006D000B68696A6D0F3C841DAA6C8F8D8B0B4B8A2
:1006E00082A892F52C548898F135D9F418D8F1A243
:1006F000D0F8F9A884D9C7DFF8F883C5DADF69DF55
:1007000083C1D8F40114F1A8824EA884F311D182D8
:10071000F5D992289788F109F41C1CD884A8F3C055
:10072000F9D1D99782F129F40DD8F3F9F9D1D98209
:10073000F4C203D8DEDF1AD8F1A2FAF9A88498D956
:10074000C7DFF8F8F883C7DADF69DFF883C3D8F4C6
:100750000114F198A8822EA884F311D182F5D992C0
:10076000509788F109F41CD884A8F3C0F8F9D1D9BE
:100770009782F149F40DD8F3F9F9D1D982F4C40381
:10078000D8DEDFD8F1AD8898CCA809F9D98292A833
:10079000F57CF1883ACF944A6E98DB6931DAADF294
:1007A000DEF9D88795A8F221D1DAA5F9F417D9F1A5
:1007B000AE8ED0C0C3AE82C684C3A88595C8A588B6
:1007C000F2C0F1F4010EF18E9EA8C63E56F554F12A
:1007D0008872F40115F19845856EF58E9E0488F1B6
:1007E00042985A8E9E068869F4011CF1981E1108E1
:1007F000D0F504F11E970202983625DBF9D985A5BC
:10080000F3C1DA85A5F3DFD88595A8F309DAA5FA4F
:10081000D88292A8F578F1881A849F26889821DAE0
:10082000F41DF3D8879F39D1AFD9DFDFFBF9F40C82
:10083000F3D8FAD0F8DAF9F9D0DFD9F9D8F40BD82F
:10084000F3879F39D1AFD9DFDFF41DF3D8FAFCA8C5
:1008500069F9F9AFD0DADEFAD9F88F9FA8F1CCF3B5
:1008600098DB45D9AFDFD0F8D8F18F9FA8CAF388BD
:1008700009DAAF8FCBF8D8F2AD978D0CD9A5DFF997
:10088000BAA6F3FAF412F2D8950DD1D9BAA6F3FAB2
:10089000DAA5F2C1BAA6F3DFD8F1BAB2B68696A647
:1008A000D0CAF349DAA6CBF8D8B0B4B8D8AD84F240
:1008B000C0DFF18FCBC3A8B2B68696C8C1CBC3F355
:1008C000B0B48898A821DB718D9D71859521D9AD33
:1008D000F2FAD88597A828D9F408D8F28D29DAF445
:1008E00005D9F285A4C2F2D8A88D9401D1D9F4110A
:1008F000F2D88721D8F40AD8F28498A8C801D1D9AF
:10090000F411D8F3A4C8BBAFD0F2DEF8F8F8F8F8C9
:10091000F8F8F8D8F1B8F6B5B9B08A95A3DE3CA3DB
:10092000D9F8D85CA3D9F8D87CA3D9F8D8F8F9D1EC
:10093000A5D9DFDAFAD8B18530F7D9DED8F830ADED
:10094000DADED8F2B48C99A32D557DA083DFDFDFEA
:10095000B591A0F629D9FBD8A0FC29D9FAD8A0D006
:1009600051D9F8D8FC51D9F9D879D9FBD8A0D0FC05
:1009700079D9FAD8A1F9F9F9F9F9A0DADFDFDFD8E6
:10098000A1F8F8F8F8F8ACDEF8ADDE8393AC2C549F
:100990007CF1A8DFDFDFF69D2CDAA0DFD9FADB2DB2
:1009A000F8D8A850DAA0D0DED9D0F8F8F8DB55F89E
:1009B000D8A878DAA0D0DFD9D0FAF8F8F8F8DB7D3B
:1009C000F8D89CA88CF530DB38D9D0DEDFA0D0DE9B
:1009D000DFD8A848DB58D9DFD0DEA0DFD0DED8A82A
:1009E00068DB70D9DFDFA0DFDFD8F1A888902C5456
:1009F0007C98A8D05C38D1DAF2AE8CDFF9D8B08719
:100A0000A8C1C1B188A8C6F9F9DA36D8A8F9DA368A
:100A1000D8A8F9DA36D8A8F9DA36D8A8F9DA36D863
:100A2000F78D9DADF818DAF2AEDFD8F7ADFA30D910
:100A3000A4DEF9D8F2AEDEFAF983A7D9C3C5C7F1AF
:100A4000889BA77AADF7DEDFA4F8849408A797F314
:100A500000AEF29819A488C6A39488F632DFF28318
:100A600093DB09D9F2AADFD8D8AEF8F9D1DAF3A42A
:100A7000DEA7F1889B7AD8F38494AE19F9DAAAF14B
:100A8000DFD8A881C0C3C5C7A39283F628ADDED93D
:100A9000F8D8A350ADD9F8D8A378ADD9F8D8F8F9DB
:100AA000D1A1DADEC3C5C7D8A18194F818F2B08904
:100AB000ACC3C5C7F1D8B8B4B09786A8319B069926
:100AC00007AB9728889BF00C201440B0B4B8F0A86E
:100AD0008A9A285078B79BA829517924705944697B
:100AE00038644831F1BBAB88002C547CF0B38BB830
:100AF000A804285078F1B088B49726A85998BBABC1
:100B0000B38B02264666B0B8F08A9CA82951798B2F
:100B10002951798A2470598B2058718A4469388BFD
:100B20003940688A6448318B30496088F1AC002CC8
:100B3000547CF08CA804285078F1889726A85998FE
:100B4000AC8C02264666F0899CA8295179247059FC
:100B5000446938644831A98809205970AB1138407C
:100B600069A8193148608CA83C415C207C00F18761
:100B7000981986A86E767EA999882D557DD8B1B52D
:100B8000B9A3DFDFDFAED0DFAAD0DEF2ABF8F9D950
:100B9000B087C4AAF1DFDFBBAFDFDFB9D8B1F1A303
:100BA000978E60DFB084F2C8F8F9D9DED89385F16A
:100BB0004AB183A308B5839A0810B79F10D8F1B043
:100BC000BAAEB08AC2B2B68E9EF1FBD9F41DD8F986
:100BD000D90CF1D8F8F8AD61D9AEFBD8F40CF1D846
:100BE000F8F8AD19D9AEFBDFD8F416F1D8F8AD8D11
:100BF00061D9F4F4ACF59C9C8DDF2BBAB6AEFAF853
:100C0000F40BD8F1AED0F8AD51DAAEFAF8F1D8B9AC
:100C1000B1B6A3839C08B9B1839AB5AAC0FD30834D
:100C2000B79F10B58B93F20202D1ABDADED8F1B0E8
:100C300080BAABC0C3B284C1C3D8B1B9F38BA3919E
:100C4000B609B4D9ABDEB0879CB9A3DDF1B38B8B09
:100C50008B8B8BB08720283038B28BB69BF2A3C029
:100C6000C8C2C4CCC6A3A3A3F1B087B59AD8F39BDE
:100C7000A3A3DCBAACDFB9A3FEF2ABC4AAF1DFDFF9
:100C8000BBAFDFDFA3A3A3D8D8D8BBB3B7F1AAF912
:100C9000DAFFD9809AAA28B48098A720B79787A8A6
:100CA0006688F07951F1902C870CA781976293F0B8
:100CB00071716085940129517990A5F1284C6C8758
:100CC0000C95188578A38390284C6C886CD8F3A277
:100CD0008200F210A8921980A2F2D926D8F188A831
:100CE0004DD948D896A83980D93CD89580A839A63E
:100CF0008698D92CDA87A72CD8A8899519A980D9E4
:100D000038D8A88939A980DA3CD8A82EA83990D932
:100D10000CD8A8953198D90CD8A809D9FFD801DAF0
:100D2000FFD89539A9DA26FFD890A80D8999A8107F
:100D3000809821DA2ED88999A83180DA2ED8A88611
:100D4000963180DA2ED8A8873180DA2ED8A8829200
:100D5000F34180F1D92ED8A882F31980F1D92ED889
:100D600082ACF3C0A28022F1A62EA72EA92298A8B9
:100D700029DAACDEFFD8A2F22AF1A92E8292A8F2DB
:100D80003180A696F1D900AC8C9C0C30ACDED0DE64
:100D9000FFD88C9CACD010ACDE8092A2F24C82A822
:100DA000F1CAF235F19688A6D900D8F1FF444D502A
:100DB000206661696C65642028636F646520004962
:100DC0006E697420494D55004D487A00496E69742A
:100DD00020736572766F733A20004C6F61642073E4
:100DE0006B696C6C730052656164792100426974AF
:100DF000746C65000A2A205374617274202A004CB6
:100E00006F7720706F7765723A007A65726F006A4B
:100E10007900636B00706565007075006869007328
:100E200074720073697400747200776B00637200EF
:100E3000767400630042007000520062616C616E63
:100E40006365004C006700460064008901840180EE
:100E5000017C01790174016F016B01670162015D21
:100E600001580153014E014A0161626F7274656459
:100E7000007361766564003F0001020408102040A1
:100E80008001020408102001020408102000000064
:100E900000250028002B00040404040404040402B8
:100EA000020202020203030303030302EA220834DC
:100EB00011241FBECFEFD8E0DEBFCDBF11E0A0E010
:100EC000B1E0E4E9FAE702C005900D92AC3AB1074F
:100ED000D9F725E0ACEAB1E001C01D92A234B20717
:100EE000E1F717E0C7E5D7E004C02197FE010E94B3
:100EF0001B3CC635D107C9F70E947E230C943D3DAB
:100F00000C94000091E090936D0380936C03109219
:100F10006B0310926A0308958091F2029091F3029C
:100F2000891B990B0895089508950895AF92BF9273
:100F3000CF92DF92EF92FF920F931F93CF93DF93A5
:100F40006C017B018B01040F151FEB015E01AE18D4
:100F5000BF08C017D10759F06991D601ED91FC91F6
:100F60000190F081E02DC6010995892B79F7C50123
:100F7000DF91CF911F910F91FF90EF90DF90CF9075
:100F8000BF90AF900895FC01538D448D252F30E024
:100F9000842F90E0821B930B541710F0CF96089586
:100FA00001970895FC01918D828D981761F0A28DB3
:100FB000AE0FBF2FB11D5D968C91928D9F5F9F7379
:100FC000928F90E008958FEF9FEF0895FC01918D2F
:100FD000828D981731F0828DE80FF11D858D90E09C
:100FE00008958FEF9FEF0895FC01918D228D892F39
:100FF00090E0805C9F4F821B91098F739927089521
:101000008EE693E00E94F40721E0892B09F420E0AA
:10101000822F089580E090E0892B29F00E9400083B
:1010200081110C9400000895FC01A48DA80FB92F24
:10103000B11DA35ABF4F2C91848D90E001968F7300
:101040009927848FA689B7892C93A089B1898C911F
:10105000837080648C93938D848D981306C002886E
:10106000F389E02D80818F7D80830895EF92FF9238
:101070000F931F93CF93DF93EC0181E0888F9B8DBB
:101080008C8D98131AC0E889F989808185FF15C075
:101090009FB7F894EE89FF896083E889F989808198
:1010A0008370806480839FBF81E090E0DF91CF9167
:1010B0001F910F91FF90EF900895F62E0B8D10E089
:1010C0000F5F1F4F0F731127E02E8C8D8E110CC0F8
:1010D0000FB607FCFACFE889F989808185FFF5CF43
:1010E000CE010E941408F1CFEB8DEC0FFD2FF11D06
:1010F000E35AFF4FF0829FB7F8940B8FEA89FB8980
:1011000080818062CFCF682F8EE693E00C94360802
:101110000F931F93CF93DF938C01D0E0C0E0F801D1
:10112000EC0FFD1F6491662341F08EE693E00E9470
:101130003608892B11F02196F2CFCE01DF91CF91A5
:101140001F910F910895CF93DF93EC01888D882331
:10115000B9F0AA89BB89E889F9898C9185FD03C01A
:10116000808186FD0DC00FB607FCF7CF8C9185FFFF
:10117000F2CF808185FFEDCFCE010E941408E9CF28
:10118000DF91CF910895833081F028F4813099F078
:101190008230A9F008958730A9F08830C9F08430F2
:1011A000B1F4809180008F7D03C0809180008F77A3
:1011B00080938000089584B58F7784BD089584B5A9
:1011C0008F7DFBCF8091B0008F778093B000089522
:1011D0008091B0008F7DF9CF1F93CF93DF93282F9D
:1011E00030E0F901ED55FE4F8491F901E758F14FD8
:1011F000D491F901E956F14FC491CC23A9F0162FEF
:1012000081110E94C308EC2FF0E0EE0FFF1FE3579F
:10121000F14FA591B4918FB7F894EC91111108C0DA
:10122000D095DE23DC938FBFDF91CF911F9108957E
:10123000DE2BF8CF9091260189130BC0EBEAFEE07C
:10124000E4919FEF90932601E13049F028F0E230DD
:1012500061F060E00C94EC0810926E00FACF90916F
:101260006F009D7F90936F00F4CF909170009D7FF1
:101270009093700091E09093B0009091B100987FAE
:1012800094609093B1001092B300E3CFCF93DF93BB
:1012900090E0FC01E758F14F24918956914FFC01F1
:1012A00084918823D1F090E0880F991FFC01E756C4
:1012B000FE4FA591B491FC01E357F14FC591D49134
:1012C00061110EC09FB7F8948C91E22FE0958E23A8
:1012D0008C932881E223E8839FBFDF91CF9108950B
:1012E0008FB7F894EC91E22BEC938FBFF6CF8E5032
:1012F000806480937C0080917A00806480937A007F
:1013000080917A0086FDFCCF8091780090917900E1
:1013100008953FB7F8948091550290915602A0919C
:101320005702B091580226B5A89B05C02F3F19F06F
:101330000196A11DB11D3FBFBA2FA92F982F882755
:10134000BC01CD01620F711D811D911D42E0660F30
:10135000771F881F991F4A95D1F708958F929F9202
:10136000AF92BF92CF92DF92EF92FF926B017C011E
:101370000E9489094B015C01C114D104E104F1040C
:10138000B9F00E948909681979098A099B09683EA0
:1013900073408105910580F321E0C21AD108E1086C
:1013A000F10888EE880E83E0981EA11CB11CE4CFE2
:1013B000FF90EF90DF90CF90BF90AF909F908F9075
:1013C00008952FB7F8946091510270915202809164
:1013D0005302909154022FBF08950F931F930E94C0
:1013E000E109609376037093770380937803909379
:1013F00079038EE693E00E94D20797FF1DC00E94FA
:10140000E1090091760310917703209178033091E0
:101410007903601B710B820B930B00917203109187
:10142000730320917403309175036017710782076D
:101430009307F8F28FEF9FEF1F910F91089520917E
:101440002D02260F3327331F21323105ECF4209172
:101450006403FC0190E080E0243069F082E00895AC
:10146000A0912D022191AC01435F5D4FA40FB52FD8
:10147000B11D2C930196861798F380912D02680F69
:1014800060932D0280E0089581E008951092640336
:1014900081E08093430310923E0361E082E10E9469
:1014A000EC0861E083E10E94EC08E9EBF0E0808168
:1014B0008E7F808380818D7F808388E48093B800D5
:1014C00085E48093BC000895CF93DF9391E09093DF
:1014D0000C028823B9F0C091B800D091BA00809175
:1014E000BC008A7B8093BC0060E082E10E94EC0833
:1014F00060E083E10E94EC080E94460AD093BA00A3
:10150000C093B800DF91CF910895CF92DF92EF9210
:10151000FF920F931F93CF93DF93D82FC62F613283
:1015200008F098C00E9489096B017C0180916403D6
:1015300081116BC081E080936403809343039FEF2C
:1015400090934203109241039C0F90934003809329
:101550003F0380913F03DD0FD82BD0933F03809151
:101560003E03813009F078C010923E030E94890941
:101570006B017C0180913F038093BB0080916603E7
:1015800090916703A0916803B0916903892B8A2B1E
:101590008B2BA1F00E9489090091660310916703CB
:1015A00020916803309169036C197D098E099F09A8
:1015B000061717072807390708F448C08091BC00B0
:1015C00083FDD8CF85EC8093BC000E9489096B0114
:1015D0007C0180916403813009F440C08091410313
:1015E0008C1710F4C0914103EEE1F3E0A4E4B3E002
:1015F00080E08C1355C08C2FDF91CF911F910F91FC
:10160000FF90EF90DF90CF900895809166039091C6
:101610006703A0916803B0916903892B8A2B8B2BF8
:1016200009F484CF0E948909009166031091670331
:1016300020916803309169036C197D098E099F0917
:10164000061717072807390708F070CF8091650340
:101650000E94640AC0E0CFCF85EEB5CF80916603CB
:1016600090916703A0916803B0916903892B8A2B3D
:101670008B2B09F4AECF0E9489090091660310916B
:10168000670320916803309169036C197D098E0905
:101690009F09061717072807390708F09ACFD6CFF2
:1016A00091919D938F5FA5CF0895E091F302809172
:1016B000F202E81730F4F0E0EC5BFC4F808190E040
:1016C00008958FEF9FEF08959091F3028091F202B9
:1016D0002FEF3FEF981748F4E92FF0E0EC5BFC4F59
:1016E000208130E09F5F9093F302C9010895CF926B
:1016F000DF92EF92FF920F931F93CF93DF937C01C2
:10170000CB018A0120916D03222389F0EB016B014B
:10171000C40ED51ECC15DD0569F06991D701ED9198
:10172000FC910190F081E02DC7010995F3CF642F62
:101730000E941F0AC801DF91CF911F910F91FF9066
:10174000EF90DF90CF900895CF93DF931F92CDB7A6
:10175000DEB7698320916D032223F9F020916A039B
:10176000203258F021E030E0FC013383228390E006
:1017700080E00F90DF91CF91089580916B03E82F67
:10178000F0E0E451FE4F998190838F5F80936B036B
:1017900080936A0381E090E0ECCF61E0CE01019696
:1017A0000E941F0AF7CFCF92DF92EF92FF920F9322
:1017B0001F93CF93DF93D0916A0381E0D13208F079
:1017C0009CC0C0916C030E9489096B017C018091CF
:1017D000640381116CC082E08093640381E0809394
:1017E00043038FEF8093420310924103D093400351
:1017F000ACEEB1E0EEE1F3E080E0D8138DC01092E2
:101800003F0380913F03CC0FC82BC0933F038091CF
:101810003E03813009F084C010923E030E94890982
:101820006B017C0180913F038093BB008091660334
:1018300090916703A0916803B0916903892B8A2B6B
:101840008B2BA1F00E948909009166031091670318
:1018500020916803309169036C197D098E099F09F5
:10186000061717072807390708F442C08091BC0003
:1018700083FDD8CF85EC8093BC000E9489096B0161
:101880007C0180916403823009F44CC08091420352
:101890008F3F09F469C080914203803209F466C029
:1018A00080914203803309F463C084E026C08091B4
:1018B000660390916703A0916803B0916903892B37
:1018C0008A2B8B2B09F483CF0E9489090091660330
:1018D0001091670320916803309169036C197D09A9
:1018E0008E099F09061717072807390708F06FCFD9
:1018F000809165030E94640A85E010926B03109248
:101900006A0310926D03DF91CF911F910F91FF90A9
:10191000EF90DF90CF9008959D9191938F5F6DCF61
:1019200085EEA9CF8091660390916703A09168032B
:10193000B0916903892B8A2B8B2B09F4A2CF0E94CB
:101940008909009166031091670320916803309123
:1019500069036C197D098E099F0906171707280767
:10196000390708F08ECFC4CF80E0C7CF82E0C5CF63
:1019700083E0C3CF1F93CF93DF93162FEA010E941A
:101980008207612F8BE094E00E94A40B69818BE0B9
:1019900094E00E94A40B68818BE094E00E94A40B69
:1019A0008BE094E00E94D30B91E0811190E0892FAD
:1019B000DF91CF911F91089590E080E00895FF920C
:1019C0000F931F93CF93DF93C62F042FF22E132F65
:1019D0000E9482076C2F8BE094E00E94A40BCF2D15
:1019E000D12F0C0F1D2F111DC017D10731F0699198
:1019F0008BE094E00E94A40BF7CF8BE094E00E9470
:101A0000D30B91E0811190E0892FDF91CF911F914D
:101A10000F91FF900895CF93DF931F92CDB7DEB75C
:101A200049839E012F5F3F4F41E00E94DF0C0F90E2
:101A3000DF91CF9108950F931F93CF93DF93EC0124
:101A4000062F142F88810E94820789819A81DC01E8
:101A5000ED91FC910190F081E02D602F0995898135
:101A60009A81DC01ED91FC910190F081E02D612FD4
:101A7000099589819A81DF91CF911F910F910C94E3
:101A8000D30BDC01ED91FC910190F081E02D0994E4
:101A9000FF920F931F93CF93DF93EC01162FF42E39
:101AA000052F88810E94820789819A8124E0129FF4
:101AB000B00111246A5F7F4FDC01ED91FC91019030
:101AC000F081E02D099570E060E089819A810E94A3
:101AD000410D70E060E089819A810E94410D6F2D77
:101AE000702F89819A810E94410D602F70E0898159
:101AF0009A810E94410D89819A81DF91CF911F9136
:101B00000F91FF900C94D30BCF93C0E040E050E1D5
:101B10006C2F8AEE94E00E94480DCF5FC031B1F780
:101B2000CF910895FC0187E094E1161634F484E027
:101B300098E0613011F484E090E19083062E000C6F
:101B4000770B77FF03C0719561957109969FA0018E
:101B5000979F500D1124840F952F911D08952F925A
:101B60003F924F925F926F927F928F929F92AF922D
:101B7000BF92CF92DF92EF92FF920F931F93CF937A
:101B8000DF9300D000D000D01F92CDB7DEB78C839A
:101B90002D83262F30E0A8EEB3E00E9431384B01B0
:101BA0005C011982842F90E09B838A8399812C8128
:101BB000921709F447C08A819B819F838E8310E02E
:101BC00000E09D812E812917C8F58E819F81C297E3
:101BD00087369A4358F5CA80DB80C00ED11E1601A5
:101BE000220C331C220C331C85E0281A3108CC0C43
:101BF000DD1CF12CE12C412C512C320148145904EC
:101C00006A047B049CF461E085E00E94EC08C10159
:101C10000197F1F760E085E00E94EC08C1010197AF
:101C2000F1F74C0C5D1C6E1C7F1CE8CF0F5F1F4F43
:101C30008E819F8101969F838E83C3CF99819F5F01
:101C40009983B4CF27960FB6F894DEBF0FBECDBFF1
:101C5000DF91CF911F910F91FF90EF90DF90CF9088
:101C6000BF90AF909F908F907F906F905F904F90BC
:101C70003F902F9008952F923F924F925F926F92D4
:101C80007F928F929F92AF92BF92CF92DF92EF920C
:101C9000FF920F931F93CF93DF9300D000D0CDB767
:101CA000DEB7782E662E4C833A8329830E94E109A1
:101CB0006B017C01512C1B822C81222E312C48017E
:101CC000B12CA12C8C81581608F049C0872D0E9498
:101CD0008207662D8BE094E00E94A40B8BE094E0D9
:101CE0000E94D30B872D0E948207B10165197109EB
:101CF0006132710514F060E270E0613208F060E278
:101D0000872D0E94850A482E1092F3028093F202DA
:101D10008091F3024816E9F00115110579F48BE082
:101D200094E00E94640BE981FA819B81E90FF11D27
:101D300097FDFA9580839F5F9B83EACF0E94E1091C
:101D40006C197D098E099F09681579058A059B051F
:101D500030F38C81813208F080E2580EB3CF011548
:101D60001105C1F00E94E1096C197D098E099F09D6
:101D700030E020E0601771078207930758F02B814D
:101D8000822F220F990B2C812817190619F014F0B5
:101D90008FEF8B838B810F900F900F900F90DF91BF
:101DA000CF911F910F91FF90EF90DF90CF90BF9058
:101DB000AF909F908F907F906F905F904F903F90EB
:101DC0002F9008950F931F93CF93DF93CDE1D5E02C
:101DD00008EE13E02EE135E042E062E788810E94E0
:101DE0003B0E89819A81982789279827DF91CF9187
:101DF0001F910F910895CF92DF92EF92FF920F9370
:101E00001F93CF93DF931F92CDB7DEB7F82EE62E48
:101E1000C42ED22E08EE13E09E012F5F3F4F41E00B
:101E20000E943B0E81E090E001C0880FCA94EAF75F
:101E30004981DD2081F0482B49836E2D8F2D0E9432
:101E40000B0D0F90DF91CF911F910F91FF90EF90AD
:101E5000DF90CF90089580954823EECFBF92CF9228
:101E6000DF92EF92FF920F931F93CF93DF931F9216
:101E7000CDB7DEB7F82EE62EC42EB22ED02E08EE49
:101E800013E09E012F5F3F4F41E00E943B0E8823ED
:101E900071F18C2D8B19990BAC014F5F5F4F81E075
:101EA00090E002C0880F991FBA94E2F70197042EC0
:101EB00001C0880F0A94EAF70D2D01C0000F4A9562
:101EC000EAF7482F4095998149238023482B49837D
:101ED0006E2D8F2D0E940B0D0F90DF91CF911F91D2
:101EE0000F91FF90EF90DF90CF90BF90089580E02A
:101EF000F3CF1F93CF93DF93EC01162F88810E94BD
:101F0000820789819A81DC01ED91FC910190F08139
:101F1000E02D612F099589819A810E94D30B61E0A0
:101F200088810E94850A1092F3028093F2028981CF
:101F30009A81DC01ED91FC910284F385E02D0995F5
:101F4000DF91CF911F9108958F929F92AF92BF9290
:101F5000CF92DF92EF92FF92CF93C82F90E080E074
:101F60000E9471366B017C016EEF8AEE94E00E9454
:101F7000790F682F70E06F5F7F4F90E080E00E94E4
:101F8000713620E034E244E759E40E94D2364B0136
:101F90005C016091ED047091EE048091EF049091EA
:101FA000F0040E9471369B01AC01C501B4010E948E
:101FB00024399B01AC01C701B6010E9424390E945B
:101FC0009D39AB016C2F8AEE94E0CF91FF90EF909A
:101FD000DF90CF90BF90AF909F908F900C94480D62
:101FE0000F931F93CF938C01C0E0B8018C2F0E94F8
:101FF000A40FCF5FC031C9F76AE070E080E090E0E5
:10200000CF911F910F910C94AE098F929F92AF9236
:10201000BF92CF92DF92EF92FF921F93CF93DF9305
:10202000EC016A017B0120E030E040E85FE3CB0196
:10203000B6010E946C3687FD7EC020E030EC4AE598
:1020400055E4C701B6010E94323A18163CF4C12C7F
:1020500030ECD32E3AE5E32E35E4F32E6B817C8110
:102060008D819E810E9471364B015C0120E030E041
:1020700040E855E4C701B6010E94D2369B01AC018D
:10208000C501B4010E94243920E030E040E05FE364
:102090000E94413820E030E040E85FE30E94403891
:1020A0006B017C0120E030E040E450E40E946C369B
:1020B00087FD48C020E030E04FE753E4C701B60198
:1020C0000E94323A181634F4C12CD12C9FE7E92E25
:1020D00093E4F92E60E0CE010E94790F182F482F6B
:1020E0004F76406160E0CE010E941B0DC701B60132
:1020F0000E949D39462F6EEFCE010E941B0D412F8D
:1021000060E0CE010E941B0D65E070E080E090E091
:102110000E94AE09412F406A60E0CE01DF91CF916D
:102120001F91FF90EF90DF90CF90BF90AF909F9066
:102130008F900C941B0DC12CD12C20E8E22E2FE3A4
:10214000F22E8CCFC12CD12C80E4E82EFE2CC2CFF5
:10215000FC0101900020E9F73197AF01481B590BB2
:10216000BC018EE693E00C9496078F929F92AF92FB
:10217000BF920F931F93CF93DF93CDB7DEB7A19795
:102180000FB6F894DEBF0FBECDBF19A2423008F4DF
:102190004AE08E010F5D1F4F842E912CB12CA12C93
:1021A000A50194010E940F38E62FB901CA01EA3057
:1021B000F4F4E05DD801EE938D01232B242B252B25
:1021C00079F790E080E0109719F0CD010E94A810F7
:1021D000A1960FB6F894DEBF0FBECDBFDF91CF91B1
:1021E0001F910F91BF90AF909F908F900895E95CE1
:1021F000E1CFCF92DF92EF92FF92C12CD12C7601EA
:102200004AE0C701B6010E94B51089E00E94830828
:102210008FEFC81AD80AE80AF80A80E1C816D10474
:10222000E104F10469F78AE691E0FF90EF90DF9016
:10223000CF900C94A810CF93DF930E948808EC01F4
:102240008AE691E00E94A8108C0F9D1FDF91CF912C
:1022500008954F925F926F927F928F929F92AF926A
:10226000BF92CF92DF92EF92FF920F931F93CF9383
:102270006B017C01742EAC019B010E94E13A882322
:1022800099F08DE691E0CF911F910F91FF90EF9023
:10229000DF90CF90BF90AF909F908F907F906F9086
:1022A0005F904F900C94A81046015701E894B7F83E
:1022B0002FEF3FEF4FE75FE7C501B4010E94E13A1E
:1022C00081110DC02FEF3FEF4FE75FE7C501B4016C
:1022D0000E946C3618161CF481E791E0D4CF2FEFE2
:1022E0003FEF4FE75FE4C701B6010E94323A18168C
:1022F0001CF485E791E0C7CF2FEF3FEF4FE75FEC8E
:10230000C701B6010E946C3687FDF3CF20E030E0B4
:10231000A901C701B6010E946C3610E000E087FFFA
:1023200008C08DE20E9483088C01F7FAF094F7F858
:10233000F094C0E060E070E080E09FE37C1641F044
:1023400020E030E040E251E40E942439CF5FF6CF34
:10235000A70196010E9441382B013C010E949D3942
:102360004B015C014AE00E94B5107C01E00EF11EB9
:10237000CC23B1F1C501B4010E9471369B01AC01BF
:10238000C301B2010E9440384B015C018EE20E9401
:102390008308E80EF91EC15018F120E030E040E259
:1023A00051E4C501B4010E94D2362B013C010E94C8
:1023B0009D394B01B12CA12C4AE0C501B4010E940A
:1023C000B510E80EF91EC501B4010E9471369B01DB
:1023D000AC01C301B2010E9440384B015C01DBCF6C
:1023E000C701CF911F910F91FF90EF90DF90CF9099
:1023F000BF90AF909F908F907F906F905F904F9025
:102400000895CF93DF93C6E8D2E0688179818A810D
:102410009B8145E00E94291189E00E9483086C811C
:102420007D818E819F8145E00E94291189E00E9473
:102430008308688579858A859B8545E00E942911F6
:102440008AE691E0DF91CF910C94A810CF93DF93AF
:102450000E948308EC018AE691E00E94A8108C0F8C
:102460009D1FDF91CF910895CF93DF93FC014481AD
:102470005581608171818EE693E00E949607EC01A0
:102480008AE691E00E94A8108C0F9D1FDF91CF91EA
:1024900008954F925F926F927F928F929F92AF9228
:1024A000BF92CF92DF92EF92FF920F931F93CF9341
:1024B0006B017C01CA01B9010E949D392B013C01CD
:1024C00020E030E0A901C701B6010E946C368823E4
:1024D00009F49CC1A701960163E67CE987E89FE3C4
:1024E0000E943F3A20E030ED42E854E40E94D236A8
:1024F0000E949D396B0180912601853009F066C0EC
:10250000EBEAFEE0C491C7FDD7C161E085E00E941F
:102510004609CC2319F0C23009F025C1F12CE12C79
:1025200060E072E18AE790E0A70196010E94A63779
:1025300049015A01DA01C9010197A109B1098F3F87
:102540009105A105B10509F00CF4F1C060E472E455
:102550008FE090E0A70196010E94A6372150310933
:1025600041095109C23009F0A3C082E02F3F310573
:102570004105510509F00CF490C160E970ED83E06C
:1025800090E0A70196010E94A63721503109410928
:10259000510983E02F3F31054105510509F00CF445
:1025A0007CC168E478EE81E090E0A70196010E948A
:1025B000A63721503109410951092F3F3105410505
:1025C000510511F00CF092C084E067C18F3F09F013
:1025D00073C185E080932601EBEAFEE0C491CF3F12
:1025E00009F46AC1C13021F150F0C23009F43EC093
:1025F000C7FD62C161E085E00E9446098CCF14BC32
:1026000015BC84B5826084BD85B5816085BDECE96B
:10261000FEE0E491F0E0EE0FFF1FE357F14F8591EC
:102620009491EEE7FEE0E491E0931103C0E06DCFFA
:1026300010928000109281008091810088608093C8
:10264000810080918100816080938100ECE9FEE04F
:10265000E491F0E0EE0FFF1FE357F14F8591949165
:10266000EEE7FEE0E491E09310034FCF1092B0004C
:102670001092B1008091B00082608093B000809190
:10268000B10081608093B100ECE9FEE0E491F0E0FC
:10269000EE0FFF1FE357F14F8591949190930F0335
:1026A00080930E03EEE7FEE0E491E0930D032DCF5F
:1026B0002F3F31054105510509F00CF452C068E483
:1026C00078EE81E090E0A70196010E94A6372150A4
:1026D000310941095109CC2309F4B4C02F3F310518
:1026E0004105510511F00CF0B5C06ECF64E274EFF6
:1026F00080E090E0A70196010E94A63721503109A1
:102700004109510985E02F3F31054105510509F087
:1027100008F4C3C062E17AE780E090E0A701960187
:102720000E94A6372150310941095109A1C09C01DD
:1027300081E0C111B2C095B5987F892B85BD27BDB9
:102740008FEF9FEFDC0180931A0390931B03A093FC
:102750001C03B0931D0380916E00826080936E0015
:10276000ABC082E0E6CFF12CE12C60E072E18AE7B9
:1027700090E0A70196010E94A63721503109410936
:10278000510991E02115310581E0480751056CF0B0
:1027900068E478EE81E090E0A70196010E94A637F8
:1027A000215031094109510993E0C13009F07BC042
:1027B00080918100887F892B8093810030938900EC
:1027C000209388008FEF9FEFDC0180931603909396
:1027D0001703A0931803B093190380916F008260D0
:1027E00080936F0069C02093B3008FEF9FEFDC01EF
:1027F0008093120390931303A0931403B0931503D3
:102800008091700082608093700056C0C301B20155
:102810000E94AE0951C084E02F3F310541055105AA
:1028200009F008F488CF8AE0B594A7949794879428
:102830008A95D1F7A5019401215031094109510927
:1028400085E079CF83E02F3F31054105510509F03F
:102850000CF471CF62E17AE780E090E0A701960185
:102860000E94A6372150310941095109CC2399F220
:1028700086E02F3F31054105510579F070F09AE06F
:10288000B594A794979487949A95D1F7A50194014C
:10289000215031094109510987E09091B100987F99
:1028A000892B8093B100C13009F488CFC23009F47C
:1028B0009ACFCC2309F443CFC301B2010E94AE09E1
:1028C00085E00E941A09B801110F880B990BCF916E
:1028D0001F910F91FF90EF90DF90CF90BF90AF903E
:1028E0009F908F907F906F905F904F900C94AE0967
:1028F000FC0124813581232B39F421E0FB01808107
:10290000882349F020E007C0808191810E941F3D0B
:1029100021E0892BB9F7822F0895CF93DF93EC0143
:1029200088819981009711F00E94A8341982188239
:102930001D821C821B821A82DF91CF910895FC01B7
:1029400080819181009711F00C94A83408950F9321
:102950001F93CF93DF938C01EB01FC018081918168
:102960000097E1F06881798161157105A9F04281D4
:1029700053812C813D814217530770F00E94283DFE
:102980008C819D81F801958384831D821C82DF9157
:10299000CF911F910F9108950E94A8348881998149
:1029A000F801918380838A819B81938382838C81C8
:1029B0009D8195838483198218821B821A82E5CFB8
:1029C0000C9490376F927F928F929F92AF92BF92AA
:1029D000CF92DF92EF92FF920F931F93CF93DF93EB
:1029E0006C01712CD0E0C0E085E191E00E94E01420
:1029F000082E000C990B781619060CF06DC04E01CC
:102A00008FEF881A980ACE01805C9E4F0E94E014D6
:102A1000682EE82EF12CC70101960E940C348C011F
:102A20005C01CF5BDE4FC81BD90B8A2D801B86153E
:102A300048F4CE018A0D9B1D0E94E014F50181939C
:102A40005F01F3CFE401CE0DDF1D5801AE0CBF1CBA
:102A5000F5011082B601C8010E941F3D892B09F5BE
:102A600001151105A9F5CE018F5B9E4F0E94E01460
:102A70008093FC02682F81E093E00E94920DCE01CA
:102A8000805C9E4FDF91CF911F910F91FF90EF904F
:102A9000DF90CF90BF90AF909F908F907F906F907E
:102AA0000895F501319780818C3449F4A701415094
:102AB0005109B601C8010E942F3D892B89F20115E9
:102AC000110519F0C8010E94A834249673948CCF84
:102AD000C8010E94A834C7CF87E79EE00E941B115F
:102AE0008FEF9FEFCFCF1F93CF93DF93EC010E9427
:102AF000E014182FCE0101960E94E01490E0982F68
:102B00008827810F911DDF91CF911F910895CF925A
:102B1000DF92EF92FF920F931F93CF93DF936A019F
:102B20007B01082F10E0C801805B9F4F880F991F21
:102B30000E947315BC01990F880B990B0E94733684
:102B400020E030E04AE754E40E942439A7019601CE
:102B50000E94D2366B017C0182E191E00E94E01478
:102B60009AE0899FB0011124072E000C880B990B65
:102B70000E947336A70196010E9441386B017C01C7
:102B800020E030E04AEF53E40E94323AC4EFD1E053
:102B900018168CF420E030E44CE155E4C701B6018E
:102BA0000E946C36C4ECD9E087FF05C0C701B601AE
:102BB0000E949639EB01C8010E94E014AE01682F13
:102BC0008AEE94E0DF91CF911F910F91FF90EF90EB
:102BD000DF90CF900C94480D90E0C096880F991F1D
:102BE000860F911D880F991F0C9473157F928F92F9
:102BF0009F92AF92BF92CF92DF92EF92FF920F938C
:102C00001F93CF93DF93B82E6A01D62FC72F60E0B2
:102C10000E94EC15BC01990F880B990B0E9473362A
:102C20007B018C0161E08B2D0E94EC15BC01990F9A
:102C3000880B990B0E947336762E872E982EA92E1C
:102C400096014D2F5C2F0E946C3687FF71C0772D47
:102C5000682D992D8A2D272F362F492F582FB701F0
:102C6000C8010E94323A181694F096014D2F5C2F3D
:102C7000672D782D892D9A2D0E946C3676010D2FA7
:102C80001C2F87FF04C0E72CF82C092D1A2DCB2D03
:102C9000D0E06E0180E3C80ED11CCC0FDD1FCA5FEF
:102CA000DE4FB701C8010E94963979836883C60157
:102CB000880F991F0E947315EC01C6010E94E01451
:102CC000682F880F770B880B990B0E94733697013A
:102CD000A8010E94D2366B017C01BE01DD0F880B7A
:102CE000990B0E9473369B01AC01C701B6010E948B
:102CF00041380E949639072E000C880B990B0E94D0
:102D0000733620E030E0A9010E944138AB01BC01DC
:102D10008B2DDF91CF911F910F91FF90EF90DF905E
:102D2000CF90BF90AF909F908F907F900C9487151D
:102D30007C2D6D2DCE018FCF2F923F924F925F92BF
:102D40006F927F928F929F92AF92BF92CF92DF92BB
:102D5000EF92FF920F931F93CF93DF93CDB7DEB720
:102D60002E970FB6F894DEBF0FBECDBF5C016A018F
:102D70007B0120E030E0A901CB01B6010E946C3656
:102D80009501205E3F4F3901181684F189013FE01B
:102D90003983D8017E916E918D01072E000C880B2E
:102DA000990B0E947336AB01BC0189810E94F61514
:102DB000B981B150B983BF3F61F72E960FB6F89431
:102DC000DEBF0FBECDBFDF91CF911F910F91FF905E
:102DD000EF90DF90CF90BF90AF909F908F907F90BB
:102DE0006F905F904F903F902F90089580E290E019
:102DF0000E940C348C0186E0882E81E0982E980188
:102E0000F50170E060E0D4018D919D914D014191FB
:102E10005191841B950BD9018D939D939D0197FF33
:102E200003C0919581959109681779070CF4BC014D
:102E3000E615F70541F7072E000C880B990B0E9449
:102E40007336A70196010E9424396B017C0120E0B2
:102E500030E0A9010E94323A20E030E040E05FE338
:102E600087FD91C0C701B6010E9441380E94963982
:102E70007E876D87D12CC12C8D859E85092E000CF7
:102E8000AA0BBB0B89879A87AB87BC87AD85BE85AC
:102E9000AC15BD050CF47CC048011501F12CC60130
:102EA0000D2C000CAA0BBB0B8D839E83AF83B887C0
:102EB000D1016D917D911D01072E000C880B990B9E
:102EC0000E9473362B013C01ED85FE8520E030E049
:102ED000A901EF2B09F443C06D817E818F81988514
:102EE0000E9473362BED3FE049E450E40E94D23655
:102EF00069837A838B839C8369857A858B859C859E
:102F00000E9473369B01AC0169817A818B819C811F
:102F10000E9424390E941F3920E030E040E85FE33E
:102F20000E94413820E030E040E05FE30E94D2366A
:102F300069837A838B839C83D4016D917C91072E66
:102F4000000C880B990B0E9473369B01AC016981C0
:102F50007A818B819C810E94D2369B01AC01C30196
:102F6000B2010E944138AB01BC018F2D0E94F615C1
:102F7000F394B2E08B0E911CE0E1FE1299CFFFEFCB
:102F8000CF1ADF0A83CFC701B6010E9440386ECF47
:102F90000115110509F411CFC8012E960FB6F8944A
:102FA000DEBF0FBECDBFDF91CF911F910F91FF907C
:102FB000EF90DF90CF90BF90AF909F908F907F90D9
:102FC0006F905F904F903F902F900C94A8342F9269
:102FD0003F924F925F926F927F928F929F92AF92A9
:102FE000BF92CF92DF92EF92FF920F931F93CF93F6
:102FF000DF93CDB7DEB72F970FB6F894DEBF0FBEC5
:10300000CDBF4C016D8369017A01202F30E03A83F6
:10301000298320E030E0A901C701B6010E946C3687
:103020001816ECF01FE0812F012E000C990BA981DE
:10303000BA818A179B070CF41EC1880D991DFC01EB
:103040006081062E000C770B880B990B0E9473365B
:10305000AB01BC01812F0E94F6151150E4CF80E135
:1030600090E029813A81821B930B811530E493070C
:1030700080F5880F991F009779F10E940C345C014C
:10308000E981FA81EE0FFF1FCF018A5F9E4F3C015D
:103090002501D401402F70E060E0403100F5F301DC
:1030A000819191913F012D915D8125039001112422
:1030B000821B930BF201819391932F0197FF03C021
:1030C000919581959109681779070CF4BC014F5FC0
:1030D000E4CF8FEF9FEFD1CF81E090E0CECF072EEE
:1030E000000C880B990B0E947336A70196010E9471
:1030F00024396B017C0120E030E0A9010E94323AC2
:1031000020E030E040E05FE387FD8BC0C701B601FF
:103110000E9441380E9496391B011F861E86CB01F2
:10312000770FAA0BBB0B8A879B87AC87BD87AE85C1
:10313000BF852A163B060CF480C0BA82A9829C8205
:103140008B82102FCD01092E000CAA0BBB0B8E8396
:103150009F83A887B987103108F068C0AB81BC8114
:103160006D91BC83AB832D816203B0011124072EC6
:10317000000C880B990B0E9473366B017C0120E0D8
:1031800030E0A90121143104E1F16E817F8188854D
:1031900099850E9473362BED3FE049E450E40E948C
:1031A000D2362B013C016A857B858C859D850E94EA
:1031B00073369B01AC01C301B2010E9424390E9405
:1031C0001F3920E030E040E85FE30E94413820E012
:1031D00030E040E05FE30E94D2362B013C01A98140
:1031E000BA816D917C91072E000C880B990B0E947F
:1031F00073369B01AC01C301B2010E94D2369B0120
:10320000AC01C701B6010E944138AB01BC01812F5E
:103210000E94F6151F5FE981FA813296FA83E983ED
:103220009ACFC701B6010E94403874CF2E853F85E2
:103230002F5F3F4F3F872E877ACFA114B104D9F07B
:10324000C5012F960FB6F894DEBF0FBECDBFDF913C
:10325000CF911F910F91FF90EF90DF90CF90BF9093
:10326000AF909F908F907F906F905F904F903F9026
:103270002F900C94A8342F960FB6F894DEBF0FBE93
:10328000CDBFDF91CF911F910F91FF90EF90DF9015
:10329000CF90BF90AF909F908F907F906F905F90F6
:1032A0004F903F902F9008957F928F929F92AF9270
:1032B000BF92CF92DF92EF92FF920F931F93CF9323
:1032C000DF937C01FC0101900020E9F732978081B7
:1032D0008C3409F477C0823509F076C087EE80938C
:1032E000FB02C7010E94E214EC01CF3FDC0709F4A6
:1032F000D4C1CE010E94E014B82ECE0102960E94E5
:103300007315D82EC92E082F192FC0913605D091CC
:10331000370599E4B9125AC084E50E9482076C2DE2
:103320008BE094E00E94A40B6D2D8BE094E00E9452
:10333000A40B8BE094E00E94D30B61E084E50E9433
:10334000850A1092F3028093F2028BE094E00E94CF
:10335000640B88838093FC02682F81E093E00E94D5
:10336000920D8C01B12CA12C101611060CF043C04B
:10337000602F0F3111050CF06EE184E50E94850A83
:10338000782E1092F3028093F2024801EEE18E1A39
:10339000910868018091F302781659F08BE094E06F
:1033A0000E94640BFFEFAF1ABF0AFE01EA0DFB1D7E
:1033B000808381E0C81AD108F1F08401C814D904CF
:1033C00049F7D2CF89E18BCF80E089CF6091FC02B1
:1033D00081E093E00E94920DDE010C1B1D0BF801B1
:1033E000EA0FFB1F9D012C1B3D0B281739071CF40E
:1033F000E491ED93F4CF80E090E0A0E0B0E480931E
:10340000FD029093FE02A093FF02B0930003898116
:10341000082E000C990B90930303809302031092E3
:10342000F1028A81082E000C990B9093050380937A
:1034300004031092F0028B81809306031091FC022A
:1034400017FF0FC08C81809307038D818093080341
:103450008E818093090387E040E050E060E07FE3E5
:1034600007C084E040E050E060E87FE31130A1F75E
:103470004093EB025093EC026093ED027093EE02E6
:1034800090E012300CF098E090930A03C80FD11D21
:10349000D0930C03C0930B0369E771E0C7010E944E
:1034A0001F3D892B09F4C5C0113009F0C2C00E942C
:1034B0007D3524E630E040E050E00E94A6370E94CF
:1034C000733620E030E040E251E40E94243920E0ED
:1034D00030E040EA50E40E9440386093F402709378
:1034E000F5028093F6029093F702C090F402D09018
:1034F000F502E090F602F090F702D0E0C0E0009113
:103500000B0310910C030C0F1D1FF8016081062E98
:10351000000C770B880B990B0E947336A70196015C
:103520000E9441380E949639F80160832196C0318B
:10353000D10529F78091FB0287FF84C080910203A7
:103540009091030391958195910990930303809342
:10355000020390E080E04091FC02242F042E000C36
:10356000330B37FF03C0319521953109821793073B
:103570000CF07DC042301CF540910103489F900142
:10358000499F300D1124E0910B03F0910C03E20FE1
:10359000F31F20812195208320910103289FF001B2
:1035A000299FF00D11249F012E5F3F4FE0910B03E7
:1035B000F0910C03E20FF31F2081219520832091CD
:1035C000FC0260E022300CF462E0E62FF0E0209193
:1035D000FC0222300CF46FC024E030E040910B0379
:1035E00050910C03E217F3070CF068C09F01220F03
:1035F000331F70910103789FF001799FF00D112422
:10360000E20FF31FE40FF51F408151815083509169
:103610000103589FD001599FB00D1124E0910B0375
:10362000F0910C03E20FF31FEA0FFB1F41836F5F62
:10363000CCCF1092F4021092F5021092F602109282
:10364000F70253CF9091FC0292308CF481110FC09D
:103650000E947D3524E630E040E050E00E94A6372D
:1036600060FF05C08091EA02833609F067CF1092AF
:10367000E9021092E8022091FD023091FE02409191
:10368000FF025091000300910A03609106038091AC
:103690000B0390910C030E94E717DF91CF911F91CC
:1036A0000F91FF90EF90DF90CF90BF90AF909F90E1
:1036B0008F907F90089528E030E090CF01964BCF17
:1036C0004F925F926F927F92AF92BF92CF92DF92B2
:1036D000EF92FF920F931F93CF93DF93F82E192F42
:1036E0000E94E0148695CF2DD12FD12CC12CE82E2D
:1036F000F12C88EEA82E83E0B82E2197CE14DF049B
:103700003CF5CE018E199F090E94E014782ECE015F
:103710000E94E014182F672D70E0C5010E94073C3D
:10372000072E000C880B990B0E9473362B013C016D
:10373000612F70E090E080E00E94713610E000E0C0
:10374000A30192010E9449128FEFC81AD80AD5CF5F
:10375000DF91CF911F910F91FF90EF90DF90CF906D
:10376000BF90AF907F906F905F904F9008950F93B0
:103770001F93CF93DF93EC018B010E9490370817C2
:1037800021F0602FCE010E9498372196CE010E9431
:103790009037181721F0612FCE010E94983766E00C
:1037A00070E080E090E0DF91CF911F910F910C9439
:1037B000AE090F931F93CF93DF93EC01888199811A
:1037C000009759F02A813B812617370730F081E0B6
:1037D000DF91CF911F910F9108958B016F5F7F4F04
:1037E0000E94443C009759F0998388831B830A8385
:1037F0002C813D81232B59F7FC011082E8CF80E01A
:10380000E7CFEF92FF920F931F93CF93DF93611552
:10381000710541F480E0DF91CF911F910F91FF90EE
:10382000EF90089541155105B1F07B01EC010C8139
:103830001D81040F151FB8010E94D91B882351F365
:10384000288139818C819D81B701820F931F0E944D
:10385000283D1D830C8381E0DECFEF92FF920F9312
:103860001F93CF93DF93EC017B018A01BA010E9481
:10387000D91B81110BC0CE010E948D14CE01DF91A6
:10388000CF911F910F91FF90EF9008951D830C83AE
:10389000B701888199810E94283DF0CFFB01DC01AE
:1038A00011961C921E9213961C921E9212971596B8
:1038B0001C921E9214978617970759F060817181A8
:1038C0006115710521F0448155810C942D1C0C94D7
:1038D0008D140895FB0101900020E9F73197AF01A5
:1038E000461B570B0C942D1C0F931F93CF93DF9304
:1038F000CDB7DEB762970FB6F894DEBF0FBECDBF6F
:103900008C01CB01F8011182108213821282158280
:1039100014824AE0BE016F5F7F4F0E942F36BE01C6
:103920006F5F7F4FC8010E946A1C62960FB6F894C1
:10393000DEBF0FBECDBFDF91CF911F910F910895D4
:10394000FC01118210821382128215821482FB0103
:1039500001900020E9F73197AF01461B570B0C94FB
:103960002D1CEF92FF920F931F93CF93DF9300D004
:10397000CDB7DEB78C01E62E65EA71E00E94A01C8F
:103980000E94ED090E2C000CFF0897FD10C08E154B
:103990009F0569F089831A8241E050E0BE016F5FA4
:1039A0007F4FC8010E94011C0E94ED09EECFC801A3
:1039B0000F900F90DF91CF911F910F91FF90EF909B
:1039C0000895EF92FF920F931F93CF93DF93EC0133
:1039D0008B01198218821B821A821D821C82CB01E4
:1039E0000E94FA357C01BC01CE010E94D91B8111D5
:1039F00009C0CE01DF91CF911F910F91FF90EF9001
:103A00000C948D14FD82EC82B80188819981DF913C
:103A1000CF911F910F91FF90EF900C94F33585EDAE
:103A20008093BC008091660390916703A091680326
:103A3000B09169030796A11DB11D23E0B695A79526
:103A4000979587952A95D1F72091BC0024FD03C056
:103A5000109264030895409166035091670360914A
:103A6000680370916903452B462B472B69F3009738
:103A7000A105B10541F02AE22A95F1F700C00197AE
:103A8000A109B109E1CF809165030C94640A4F92BA
:103A90005F926F927F928F929F92AF92BF92CF92DE
:103AA000DF92EF92FF920F931F93CF93DF93CDB7E7
:103AB000DEB7E8970FB6F894DEBF0FBECDBF80909B
:103AC0002E0590902F050E9489092B013C0154017D
:103AD000BB240E94E20E6C01A816B9060CF057C078
:103AE000893C910584F121E042E06AE680911D0560
:103AF0000E94FB0E0E94E20E6C01892B09F04BC064
:103B00000E9489096419750986099709693F7A42F3
:103B10008105910578F380E0E8960FB6F894DEBF52
:103B20000FBECDBFDF91CF911F910F91FF90EF900E
:103B3000DF90CF90BF90AF909F908F907F906F90CD
:103B40005F904F9008950E94E20E6C01A816B9068E
:103B5000F4F47C01EA18FB08670181E2E816F1043D
:103B60001CF080E2C82ED12CCC2079F008EE13E0B6
:103B70009E012F5F3F4F4C2D64E780911D050E94F1
:103B80003B0EEC18FD0841F7DECF1982FACFC114C5
:103B9000D10409F4C0CF0E94890964197509860906
:103BA0009709693F7A428105910508F0B4CFAC14BA
:103BB000BD0409F08ECF882009F4FAC108EE13E0A5
:103BC0002CEA31E0482D64E780911D050E943B0EF0
:103BD0006090B0017090B1017624672476248090C3
:103BE000B4019090B501982489249824A090B8013C
:103BF000B090B901BA24AB24BA246091AC017091A1
:103C0000AD01762767277627072E000C880B990BC6
:103C10000E94733620E030E040E858E30E94D2363C
:103C20006B017C01C0920D05D0920E05E0920F054C
:103C3000F0921005B301770C880B990B0E94733634
:103C400020E030E040E858E30E94D2362B013C01EE
:103C5000409211055092120560921305709214055E
:103C6000B401990C880B990B0E94733620E030E068
:103C700040E858E30E94D23669A37AA38BA39CA3A1
:103C8000609315057093160580931705909318059A
:103C9000B501BB0C880B990B0E94733620E030E015
:103CA00040E858E30E94D2366DA37EA38FA398A765
:103CB0006093190570931A0580931B0590931C055A
:103CC0009B01AC01C301B2010E94D2364B015C01E1
:103CD00029A13AA14BA15CA1C701B6010E94D2362D
:103CE0009B01AC01C501B4010E9440389B01AC01AD
:103CF0000E9441386DA77EA78FA798AB60930105FE
:103D0000709302058093030590930405A30192012B
:103D1000C701B6010E94D2364B015C012DA13EA124
:103D20004FA158A569A17AA18BA19CA10E94D2366E
:103D30009B01AC01C501B4010E9441389B01AC015B
:103D40000E94413869A77AA78BA79CA760930505B5
:103D5000709306058093070590930805A7019601C7
:103D6000C701B6010E94D2364B015C01A30192014A
:103D7000C301B2010E94D2369B01AC01C501B4015E
:103D80000E9440384B015C0129A13AA14BA15CA1E2
:103D9000CA01B9010E94D2369B01AC01C501B40130
:103DA0000E9440384B015C012DA13EA14FA158A5B6
:103DB000CA01B9010E94D2369B01AC01C501B40110
:103DC0000E9441384B015C018092090590920A05DE
:103DD000A0920B05B0920C05A7019601C701B60190
:103DE0000E94413869AB7AAB8BAB9CABA3019201CB
:103DF000C301B2010E9441386DAB7EAB8FAB98AF6F
:103E0000A701960169A97AA98BA99CA90E94D2361B
:103E10006B017C01A30192016DA97EA98FA998ADC8
:103E20000E94D2369B01AC01C701B6010E94413805
:103E300020E030E040E85FE30E9440386B017C0105
:103E400029A13AA14BA15CA16DA97EA98FA998AD2A
:103E50000E94D2362B013C012DA13EA14FA158A5B5
:103E600069A97AA98BA99CA90E94D2369B01AC01B1
:103E7000C301B2010E944038A70196010E94C038D8
:103E800060938602709387028093880290938902E0
:103E900029A53AA54BA55CA5CA01B9010E94D23655
:103EA0006B017C01A5019401C501B4010E94D236C9
:103EB0009B01AC01C701B6010E9441380E949D3AA6
:103EC0009B01AC016DA57EA58FA598A90E94C03865
:103ED0006B017C01C0928A02D0928B02E0928C022C
:103EE000F0928D02A501940169A57AA58BA59CA5E8
:103EF0000E94C03860938E0270938F02809390026C
:103F00009093910220E030E0A901C501B4010E9424
:103F10006C3687FF1AC020E030E0A901C701B60166
:103F20000E94323AA701960118160CF044C06BEDBE
:103F30007FE089E490E40E94403860938A027093A5
:103F40008B0280938C0290938D0206E812E0F801B8
:103F500061917191819191918F017F01F4E0EF1A4C
:103F6000F10820EE3EE245E652E40E94D236D70147
:103F70006D937D938D939C931397B2E002391B0749
:103F800031F760918E0270918F0280919002909132
:103F900091029F7711E020E030E044EB52E40E9470
:103FA000323A18160CF010E01093D20281E0B4CD32
:103FB0001092AC010DCE6BED7FE089E490ECBBCFAD
:103FC0001F920F920FB60F9211242F933F934F938E
:103FD0005F936F937F938F939F93AF93BF93EF9371
:103FE000FF938091120390911303A0911403B09159
:103FF0001503892B8A2B8B2BD1F190910D03E09126
:104000000E03F0910F038081892780838091120332
:1040100090911303A0911403B0911503181619067B
:104020001A061B069CF48091120390911303A09131
:104030001403B09115030197A109B10980931203EC
:1040400090931303A0931403B0931503FF91EF9182
:10405000BF91AF919F918F917F916F915F914F91A0
:104060003F912F910F900FBE0F901F901895809148
:1040700026010E941A09EACF1F920F920FB60F92E3
:1040800011242F933F934F935F936F937F938F935D
:104090009F93AF93BF93EF93FF938EE693E00E94BD
:1040A0001408FF91EF91BF91AF919F918F917F91F4
:1040B0006F915F914F913F912F910F900FBE0F9095
:1040C0001F9018951F920F920FB60F9211242F93E5
:1040D0008F939F93EF93FF93E0917E03F0917F0383
:1040E0008081E0918403F091850382FD1BC0908163
:1040F000809187038F5F8F7320918803821741F02F
:10410000E0918703F0E0E259FC4F958F809387039D
:10411000FF91EF919F918F912F910F900FBE0F9074
:104120001F9018958081F4CF1F920F920FB60F92B7
:1041300011242F933F938F939F93AF93BF938091BD
:10414000510290915202A0915302B09154023091C9
:10415000500223E0230F2D3758F50196A11DB11D04
:10416000209350028093510290935202A0935302E5
:10417000B09354028091550290915602A09157023B
:10418000B09158020196A11DB11D809355029093E4
:104190005602A0935702B0935802BF91AF919F91DE
:1041A0008F913F912F910F900FBE0F901F901895F8
:1041B00026E8230F0296A11DB11DD2CF1F920F92A8
:1041C0000FB60F9211242F933F934F935F936F93EA
:1041D0007F938F939F93AF93BF93EF93FF938091C0
:1041E000B900887F803609F44AC0F0F5883209F4B6
:1041F000A7C018F5803109F49BC0B8F4882309F4EE
:10420000F9C0883009F494C0FF91EF91BF91AF914C
:104210009F918F917F916F915F914F913F912F91DE
:104220000F900FBE0F901F901895883109F488C029
:10423000803251F78093420314C0803409F49DC04A
:1042400040F48033B9F38833F9F68093420385EC68
:10425000B0C0803509F485C0883509F496C088342B
:1042600099F60E940F1DD0CF883909F48CC038F51B
:10427000883729F050F4883611F0803729F683E02A
:104280008093640310924F0257C0883809F47BC0B2
:10429000803919F0803809F0B7CF80914F02803211
:1042A00008F071C0E0914F0281E08E0F80934F02C1
:1042B0008091BB00F0E0E15DFD4F80833DC0803B1D
:1042C00039F0E0F4803A09F479C0883A09F09CCFDB
:1042D00084E08093640310922E0210922D02E091EC
:1042E0005C02F0915D02099580912D0281110FC051
:1042F00081E080932D0210920D0209C0803C09F4E8
:10430000A6CF883C09F4A3CF883B09F07DCFE0918C
:104310002E0281E08E0F80932E02F0E0E35FFD4FCE
:1043200080818093BB0090912E0280912D0229C044
:1043300080913F038093BB0085EC8093BC0064CFE9
:104340009091410380914003981758F5E091410303
:1043500081E08E0F80934103F0E0E25EFC4F8081AC
:10436000E9CFE091410381E08E0F8093410380917A
:10437000BB00F0E0E25EFC4F8083909141038091AE
:1043800040039817C8F285E8D8CFE091410381E057
:104390008E0F809341038091BB00F0E0E25EFC4F02
:1043A00080838091430381115CCF81E080933E0341
:1043B00084EA8093BC001092640326CF85EC80933E
:1043C000BC001092640380914F02803230F4E0917F
:1043D0004F02F0E0E15DFD4F108260914F0270E00E
:1043E000E0915A02F0915B028FE292E009951092FF
:1043F0004F020ACF1092420334CF1F920F920FB692
:104400000F9211242F933F934F935F936F937F935A
:104410008F939F93AF93BF93CF93DF93EF93FF93CC
:104420002091180430E0F901ED55FE4F8491F90117
:10443000E758F14FD491F901E956F14FC491CC23DB
:1044400079F081110E94C308EC2FF0E0EE0FFF1FFE
:10445000E157FE4FA591B491EC91ED2381E009F471
:1044600080E020911D0430911E042F5F3F4F309358
:104470001E0420931D0420911B0430911C0425363A
:10448000310518F094E0909317049091170491115E
:1044900030C0811169C020911D0430911E04243662
:1044A000310528F410921E0410921D045DC0109274
:1044B000E90410921C0410921B0420911B043091FB
:1044C0001C04A9014F5F5F4F50931C0440931B04D1
:1044D00040911D0450911E04220F331FF901E15E2B
:1044E000FB4F5183408310921E0410921D0491E0F3
:1044F00021C090911704913001F58130A9F52091E8
:104500001B0430911C04A9014F5F5F4F50931C04A2
:1045100040931B0440911D0450911E04220F331F31
:10452000F901E15EFB4F5183408310921E0410920B
:104530001D0492E09093170417C0909117049230D5
:1045400061F4882309F4B9CF20911D0430911E0431
:104550002536310548F093E0EDCF90911704933064
:1045600099F4882309F49ECF90911A049923A9F015
:10457000811126C080911904882371F0809119045B
:1045800061E00E94EC0809C090911704943061F733
:1045900091E09093E904DFCF2D9AFF91EF91DF91A5
:1045A000CF91BF91AF919F918F917F916F915F91CB
:1045B0004F913F912F910F900FBE0F901F90189524
:1045C00080911904882321F08091190460E0D9CFEB
:1045D0002D98E3CFCF93DF93EEE6F3E013821282C0
:1045E00088EE93E0A0E0B0E084839583A683B78350
:1045F0002AE431E03183208325EC30E035872487BD
:1046000024EC30E03787268720EC30E0318B208B9C
:1046100021EC30E0338B228B22EC30E0358B248B85
:1046200026EC30E0378B268B118E128E138E148E73
:10463000CBE0D4E01B821A828C839D83AE83BF8340
:104640008CE591E0998388838AE090E00E940C34A5
:1046500090933B0580933A0582E090E00E940C34F1
:10466000909339058093380582EC91E00E940C34D8
:104670009093370580933605E7E1F4E084E0818389
:1046800013826FE771E080E395E00E94A01C88E64A
:1046900080931D05EDE0F5E080E090E0A0E8BFE349
:1046A00080839183A283B38314821582168217823A
:1046B000108611861286138614861586168617862E
:1046C000E1E0F5E0108211821282138214821582D9
:1046D000168217821086118612861386E0EFF4E0A8
:1046E00081E1DF011D928A95E9F7EAEEF4E080E4CA
:1046F0008083D283C183DF91CF910895CF93DF93DD
:10470000CDB7DEB7C654D1090FB6F894DEBF0FBEE1
:10471000CDBF789484B5826084BD84B5816084BD4A
:1047200085B5826085BD85B5816085BD80916E004F
:10473000816080936E001092810080918100826080
:1047400080938100809181008160809381008091BD
:1047500080008160809380008091B10084608093AC
:10476000B1008091B00081608093B00080917A00A8
:10477000846080937A0080917A00826080937A00CE
:1047800080917A00816080937A0080917A008068BD
:1047900080937A001092C100E0917E03F0917F0334
:1047A00082E08083E0917A03F0917B031082E091B4
:1047B0007C03F0917D0380E1808310928603E09179
:1047C0008203F091830386E08083E0918003F0917F
:1047D0008103808180618083E0918003F091810377
:1047E000808188608083E0918003F09181038081E3
:1047F00080688083E0918003F091810380818F7DC8
:10480000808385E090E0A0E0B0E080937203909315
:104810007303A0937403B09375031092F302109284
:10482000F20210926B0310926A030E94460A83E917
:1048300097E090935D0280935C0284E997E0909307
:104840005B0280935A0288E08093B8008BE60E9456
:10485000261288E19FE00FB6F894A8958093600037
:104860000FBE9093600064E670E080E090E00E94EC
:10487000AE098FEB9DE00E941B1101E023E042E0B6
:104880006BE680911D050E942E0F00E022E044E0BF
:104890006BE180911D050E942E0F22E044E06CE147
:1048A00080911D050E942E0F20E046E06BE680916E
:1048B0001D050E94FB0E08EE13E09E012F5F3F4F87
:1048C00041E065E780911D050E943B0E882339F089
:1048D00089818E7790E09595879580931E058091CC
:1048E0001E05843319F08C3009F0BDCF11E019A3F7
:1048F00021E047E06BE680911D050E94FB0E64E617
:1049000070E080E090E00E94AE0987E089A307E0B4
:1049100023E042E06AE680911D050E942E0F64E6C6
:1049200070E080E090E00E94AE0919A39E012F5D27
:104930003F4F41E06BE680911D050E94DF0C19A2FC
:104940009E012F5D3F4F41E068E380911D050E946D
:10495000DF0C19A29E012F5D3F4F41E063E2809181
:104960001D050E94DF0C19A29E012F5D3F4F41E003
:104970006CE180911D050E94DF0C80E889A39E01F7
:104980002F5D3F4F41E067E380911D050E94DF0CE2
:1049900019A39E012F5D3F4F41E06BE680911D05FD
:1049A0000E94DF0C84E089A39E012F5D3F4F41E010
:1049B00069E180911D050E94DF0C19A39E012F5D06
:1049C0003F4F41E06AE180911D050E94DF0C40E00D
:1049D0006DE680911D050E940B0D40E06EE6809112
:1049E0001D050E940B0D80E190E00E940C345C01DB
:1049F00080E190E00E940C342C01312CE12CD12C70
:104A0000C12C06EF202E612C77247394C6014096AA
:104A1000F22CFC18873F9B4010F410E1F12EC301EB
:104A20008E199109F816190619F014F0FE2CF1945C
:104A3000D20190E080E0960129543E4F8F1538F462
:104A4000F901E80FF91FE491ED930196F7CF920178
:104A50004F2D6FE680911D050E94DF0C8F2C912C4D
:104A6000A114B10409F468C1432D4F716DE6809122
:104A70001D050E940B0D4E2D6EE680911D050E94B6
:104A80000B0D08EE13E095014F2D6FE680911D058B
:104A90000E943B0EA401B501C2010E94093D892B71
:104AA00009F44AC1C5010E94A834C2010E94A83479
:104AB00081E0809359020FB6F894A8958091600028
:104AC000886180936000109260000FBEE12CFF248B
:104AD000F394B12CC7010E9473156C0180911D05E0
:104AE00052E05B1508F442C108EE13E09E012F5F0F
:104AF0003F4F41E065E70E943B0E882339F08981F2
:104B00008E7790E09595879580931E0580911E0580
:104B100066E06E0D883320F06B2D660F6B0D6958C3
:104B200080911D05D8AACFA6AE01415D5F4F0E94BE
:104B3000BA0CB39462E0E60EF11C76E0B712CACF6D
:104B40001091590211111AC121E047E06AE68091E3
:104B50001D050E94FB0EF8941092800089E080935E
:104B6000810080E293E09093890080938800109206
:104B700085001092840082E080936F0078941092F8
:104B8000170410921C0410921B048091180460E01A
:104B90000E94460964E070E080E395E00E94D91B22
:104BA00061E083E00E9446098CEC9DE00E94880849
:104BB000F5EDEF2EF2E0FF2E00E110E0C8010E94BB
:104BC000E014D7018D937D010F5F1F4F0032110557
:104BD000A9F71092F3021092F20210926B03109256
:104BE0006A030E94460A83E997E090935D028093EE
:104BF0005C0284E997E090935B0280935A0240E85C
:104C000060E08AEE94E00E941B0D6AE070E080E0B4
:104C100090E00E94AE0940E050E06AE774E48AEE5A
:104C200094E00E94051080E498E7ADE7B1E080933E
:104C3000ED049093EE04A093EF04B093F00483E1AD
:104C400091E00E947315092E000CAA0BBB0B8093F8
:104C50005E0290935F02A0936002B0936102885D50
:104C60009945A109B10985399141A105B10560F0C6
:104C700088EA91E6A0E0B0E080935E0290935F0244
:104C8000A0936002B093610260915E0270915F0236
:104C900080916002909161020E94733620E030E0C2
:104CA0004AE754E40E94243942E00E94291188EC2A
:104CB0009DE00E941B1120915E0230915F024091A5
:104CC000600250916102A8EEB3E00E94C5376B010B
:104CD0007C0140E050E060E773E48AEE94E00E94DB
:104CE0000510C092F304D092F404E092F504F0921F
:104CF000F604C092ED04D092EE04E092EF04F0923C
:104D0000F0040E94840D8AED9DE00E941B1190E04A
:104D100080E08C010F5F1F4F805C9E4F0E94E0146B
:104D2000080F111DC801805C9E4F0E94E0148E3454
:104D3000A1F1C8010496EDCFC80CD91C46EFC416EA
:104D40004BE0D40610F00C94BC33EF0C09F4339410
:104D5000432D4F716DE680911D050E940B0D4E2D68
:104D60006EE680911D050E940B0D50CEDEA6CDA6ED
:104D7000AE01435D5F4F6DE06E0DD9CE8DEA9DE0D3
:104D80000E948808612F70E090E080E04AE00E9475
:104D9000B51089E20E942612DECE66E371E0C801FA
:104DA0008E5B9E4F0E94B71B809177029091780294
:104DB000E7E3F1E02191820F911D21E0E634F20753
:104DC000C9F7909378028093770280E10E94770977
:104DD000BC01990F880B990B61157105810591052F
:104DE00011F00E94CC358FEF93E00E94601B60EDC4
:104DF00077E080E090E00E94AE090E94471D0E948B
:104E0000471D0E94471D60918A0270918B0280911C
:104E10008C0290918D029F7720E030E040EF51E4CA
:104E20000E94323A181694F060918E0270918F02AF
:104E300080919002909191029F7720E030E040EFC6
:104E400051E40E94323A18160CF03DC183E680937B
:104E5000EA0282E08093E70284EF9DE00E941B114A
:104E60008DEE9DE00E941B1186EE9DE00E941B11BD
:104E700040913101509132016091330124964DAF40
:104E80005EAF6FAF249760913401709135018091CE
:104E9000360127966DAF7EAF8FAF27970E94E1094D
:104EA00020E137E240E050E00E940F38809100019D
:104EB00090910101092E000CAA0BBB0B82179307DE
:104EC000A407B5070CF045C0790130930101209388
:104ED000000185E10E9477098C018A389240ACF587
:104EE00080916202909163020817190721F082E015
:104EF000E816F10454F58FEF9DE00E948808C80180
:104F000063E670E00E94073C6B01072E000CEE0880
:104F1000FF0877FFDAC08DE20E94830866277727B3
:104F2000CB016C197D098E099F094AE00E94B510DA
:104F300086E50E94261281ED93E00E94601B60EDE1
:104F400077E080E090E00E94AE0910936302009346
:104F5000620280910501882329F08091E80280FF98
:104F60000E94471D809105018823B9F18091EA02D2
:104F7000833699F18091D202882379F10E947D35A0
:104F80006B017C010E947D354B015C01C701B601BC
:104F90002AE030E040E050E00E94A6371CED160FFA
:104FA000C501B4012AE030E040E050E00E94A6379D
:104FB00042ED460F212F6AE082E00E94AF0D8BE6A2
:104FC0008093EA0262E871E080913A0590913B0596
:104FD0000E94283D8FEF8093E70280917D0281112E
:104FE000AFC08FE194E09093720280937102809140
:104FF0001B0490911C04909374028093730280911F
:10500000E90490E0909376028093750280911704F2
:10501000833009F095C08091210490912204875833
:1050200091098E35910508F085C080911B049091FF
:105030001C04049709F04DC080912304909124042E
:105040008097479708F045C08091250490912604E9
:1050500009970997F0F51092700210926F024FEFC6
:105060005FEFBA014093690250936A0260936B024A
:1050700070936C0283E090E09093660280936502E7
:105080008091690290916A02A0916B02B0916C02CA
:10509000892F9A2FAB2FBB278A3509F4F6C108F068
:1050A000ADC1823209F4D9C108F092C1803109F44E
:1050B000E9C108F03BC16BE37EE0823009F43EC1F8
:1050C00065EA71E0EDC184E6C2CE4AE0C701B601EF
:1050D0002DCF80911B0490911C048434910550F1D4
:1050E0008091230490912404815491098F9710F5A5
:1050F00090E080E040E050E0BA01FC01EB5DFB4F46
:1051000020813181295031092930310598F4FC0181
:10511000E95DFB4F20813181275131092231310571
:1051200008F4EEC020813181265031092730310545
:1051300008F4F7C01092170410921C0410921B047C
:105140008EE693E00E94F40718161906A4F581E094
:1051500080937D0282E08093E7028EE693E00E94D6
:10516000D207182F8093EA0261E070E080E090E0BF
:105170000E94AE091B3409F03EC2E0903605F09063
:10518000370510E000E08EE693E00E94F407892BDB
:1051900051F08EE693E00E94D207F701E00FF11F75
:1051A00080830F5F1F4FF8013197EE0DFF1D808147
:1051B0008E3749F710820E94E1092091E7022223ED
:1051C00009F466C20E94E10968577C4E8F4F9F4FD9
:1051D0006093790270937A0280937B0290937C02B1
:1051E0006091E702662309F4FAC3F090EA026530A1
:1051F000C0F4B2E6FB16A9F08CE88F0D823088F07F
:1052000070E0615F7F4F072E000C880B990B0E94A6
:10521000733610E000E020E030E040EA50E40E9405
:1052200049128091E6028356823068F4E3E6FE1666
:1052300051F088ED9BE00E94F00F81E08093050122
:1052400087E40E9426128091EA02803751F0809113
:10525000E502811106C081E08093E50280E70E94AB
:1052600026121091EA02E6ECE10FE13408F078C36F
:105270000E2E000CFF0BE15CF64D0C941B3C09302C
:105280000430B02CB02CB02CB02CB02CB02CB02CE6
:10529000B02CB02CB02CB02CB02CB02CAB2FB02C30
:1052A000B02CB02CAB2FB02CB02CB02CB02CB02C20
:1052B000292EB02CB02CB02CB02CB02CB02CB02C93
:1052C000B02CB02CB02CB02CB02CB02C132E292E1E
:1052D000292E0C30B02CB02C9E2CB02C292E7F2DDA
:1052E000EE2FB02C292EB02CB52D6E2DB02C9E2C6F
:1052F000BA2D292E292E9E2CB02CB02CB02C9E2CF1
:10530000440F551F661F771F416004968038910532
:1053100009F0F3CE80E290E09093700280936F02E8
:10532000A1CE440F551F661F771FEFCF823109F4BE
:10533000B5C063E27EE0883109F0C2CECE0181962D
:105340000E94E11C68E871E0CE0181960E94781409
:10535000882309F4AAC06AE871E080E395E00E941E
:105360006A1C60E375E0CE0187960E944E1CCE0158
:1053700081960E949F1465EA71E0CE0187960E9493
:10538000781481111AC000913A0510913B056FA164
:1053900078A5C8010E94283DD8010D900020E9F7AA
:1053A000CD0102978017910709F023C1F801808190
:1053B0008093EA0281E08093E70210921704109232
:1053C0001C0410921B04CE0187960E949F14B8CE35
:1053D000823409F45DC048F4803309F44DC069E1BA
:1053E0007EE0883309F4AACF6BCE8A3409F453C027
:1053F0006AE07EE0823509F4A1CF62CE823A39F1CB
:1054000098F48A37E1F140F4823621F160E37EE0DE
:10541000883609F493CF54CE803959F16DE27EE09D
:10542000883909F48BCF4CCE823CD1F040F4883AD5
:10543000E9F06AE27EE0803B09F480CF41CE803E15
:1054400091F065E47EE0823E09F478CF39CE69E4DC
:105450007EE074CF67E47EE071CF63E47EE06ECFE0
:1054600069E37EE06BCF67E37EE068CF65E37EE0D3
:1054700065CF63E37EE062CF67E27EE05FCF6FE1FE
:105480007EE05CCF6CE17EE059CF65E17EE056CFF7
:1054900062E17EE053CF6FE07EE050CF65E871E0DF
:1054A000CE0181960E94A01C4DCF6DE871E0CE0127
:1054B00081960E947814811111C06FE871E0CE01CD
:1054C00081960E947814811109C061E971E0CE01D2
:1054D00081960E947814882309F442C08DA19EA170
:1054E000892B21F0E9A1FAA1309721F410926402EE
:1054F000E4E6F2E0108110930201163471F46AE8D8
:1055000071E080E395E00E947814882331F06FE722
:1055100071E080E395E00E946A1C60E375E0CE01D3
:1055200001960E944E1C1FA318A641E050E0BE0148
:10553000695D7F4FCE0101960E94011C811104C05C
:10554000CE0101960E948D14BE016F5F7F4FCE0188
:1055500087960E944E1CCE0101960E949F1407CF91
:1055600063E971E0CE0181960E94781481112EC00A
:1055700066E971E0CE0181960E947814811126C0FF
:1055800069E971E0CE0181960E94781481111EC0F4
:105590006FE771E0CE0181960E947814811116C0E8
:1055A0006CE971E0CE0181960E94781481110EC0E1
:1055B00018A61FA21AA619A61CA61BA6BE016F5DDF
:1055C0007F4FCE0187960E94A714D1CE69A17AA100
:1055D0006115710549F04DA15EA180E395E00E943F
:1055E0002D1C1091020199CF80E395E00E948D144B
:1055F000F8CF8BE6DDCE8EE693E00E94F407181616
:1056000019060CF0D8CD65EA71E0CE0181960E94B2
:10561000A01C133429F0812F8B7F6AE0893409F4B0
:105620006EE7CE0101960E94B11CBE016F5F7F4FF5
:10563000CE0181960E94A714CE0101960E949F146C
:105640002DA13EA13093D4022093D3021B3631F01A
:105650008091360590913705143721F480913A05F1
:1056600090913B0549A15AA1DC01FA01BF01641BDD
:10567000750B621773071CF461916D93F7CF820F5E
:10568000931FDC011C92CE0181960E949F1493CD42
:105690002091EA02233609F4A3CDC0907902D0907C
:1056A0007A02E0907B02F0907C026C197D098E09F1
:1056B0009F0916161706180619060CF091CD1092C0
:1056C0007D0280910401882309F48ACD0E94E109BA
:1056D0008B019C010C191D092E093F09013D174042
:1056E000210531050CF47CCD6093790270937A0228
:1056F00080937B0290937C020E947D3520917702FB
:1057000030917802032E000C440B550B0E94A637F3
:105710001FEF77FD09C01F5FE12FF0E0E95CFE4F4E
:105720008081681B7109F5CF1111E7C089E48FA34F
:105730008DE488A724964DAD5EAD6FAD249749A347
:105740005AA36BA327966DAD7EAD8FAD2797698366
:105750007A838B830E947D3522E030E040E050E088
:105760000E94A6376C0F7D1FDB0197968C9180936A
:10577000EA0283E090E09093D4028093D302809178
:10578000D3029091D402212E312C281639060CF028
:10579000A2C00E947D3523E030E040E050E00E944E
:1057A000A637E62EF12C220C331CE1E2F0E0EC0FE0
:1057B000FD1FEE0DFF1DA080E0913605F09137052D
:1057C000E20DF31DA082EA2DEE0FFF0BFAABE9AB61
:1057D000EA5FFE4FFEABEDAB80809180092C000CA0
:1057E000AA08BB080E947D35E1E0F0E0EC0FFD1F48
:1057F000EE0DFF1D0081C02ED12CF12CE12C069561
:10580000402E512C712C612CA70196010E94A637C5
:10581000860E971EA81EB91E84189508A608B708FC
:10582000F7EA8F16FFEF9F06AF06BF0654F549A9AA
:105830005AA94A5F5E4F5AAB49ABDA018D909C90F2
:10584000092C000CAA08BB080E947D35A70196010F
:105850000E94A637680D791D8A1D9B1D6419750964
:1058600086099709673A7F4F8F4F9F4F44F566EA45
:10587000E0913605F0913705E20DF31D61831F5F5E
:105880007ECFEDA9FEA980809180092C000CAA088A
:10589000BB080E947D35A70196010E94A637860E9F
:1058A000971EA81EB91E84189508A608B7086AE5B1
:1058B000FAE58F169104A104B104D4F6B8CFA9A9D2
:1058C000BAA9BC900E947D35A70196010E94A63717
:1058D000B01A6B0DCDCF880F991F9093D40280938F
:1058E000D3022091360530913705820F931FFC01BA
:1058F000108284E68093E70273CCE12FF0E0EE0F94
:10590000FF1FE55BF14F6591749180913605909191
:1059100037050E94F3358091360590913705BC011B
:10592000DB012D91BD012093EA022B3621F48091F9
:105930003A0590913B050E94283DDBCF173659F47C
:105940008091050191E0892780930501811117E479
:105950001093EA0205C0163709F0A6C00E94011292
:105960008091EA028B3609F06BC39091FC02191604
:105970000CF46AC300913A0510913B0562E871E0AE
:10598000C8010E941F3DF090EA02892BF1F08F2D93
:105990008B7F8934D1F0809138059091390500973B
:1059A00011F00E94A83481E090E00E940C34F801CC
:1059B00001900020E9F7E01BDC01EC93909339059E
:1059C00080933805B8010E94283D1092E702F092BA
:1059D000E6028F2D877F833611F01092EA028091C4
:1059E000EA028B3609F02AC61091FC0217FFE1C3C8
:1059F0008091090333243A94380E823008F4312C14
:105A000010E0212F30E08091FC02082E000C990B51
:105A100097FF03C0919581959109281739070CF0DC
:105A20000DC6E0900B03F0900C0380910103189FCA
:105A3000E00CF11C1124F7016089062E000C770B95
:105A4000880B990B0E94733620E030E040E85EE35B
:105A50000E94D2369B01AC0100E060910603C701B1
:105A60000E94E717A0910B03B0910C0380910103F2
:105A7000189FA00DB11D112452962C9152972111FF
:105A800000C380910103E0910B03F0910C03189F78
:105A9000E00DF11D1124618916160CF470C3EEECB3
:105AA0006E02B00111246FC31A3759F480910401BA
:105AB00091E0892780930401882309F449CF1AE5EE
:105AC00047CF123709F04CCF809103018195809325
:105AD000030118160CF03CCF12E53ACF8091E50295
