:100000000C9420010C9448010C9448010C94480174
:100010000C9448010C9448010C9448010C9420184D
:100020000C9448010C9448010C9448010C943D1A1E
:100030000C9448010C9448010C9448010C9448011C
:100040000C94D4180C9448010C94A2180C947C18AD
:100050000C9448010C9448010C9448010C944801FC
:100060000C941E190C94480105A84CCDB2D44EB97D
:100070003836A9020C50B9918688083CA6AAAA2A4B
:10008000BE000000803F07634236B79BD8A71A39ED
:10009000685618AEBAAB558C1D3CB7CC5763BD6DD6
:1000A000EDFD753EF6177231BF000000803F08007D
:1000B0000000BE922449123EABAAAA2ABECDCCCCE7
:1000C0004C3E00000080BEABAAAAAA3E0000000081
:1000D000BF000000803F0000000000084178D3BB53
:1000E0004387D1133D190E3CC3BD4282AD2B3E6800
:1000F000EC8276BED98FE1A93E4C80EFFFBE01C4F1
:10010000FF7F3F0000000000010000010000000030
:1001100000000000000000000000000000000000DF
:10012000240027002A00000000080002010000034C
:1001300004070000000000000000024D487A00495A
:100140006E697420736572766F733A20004C6F612C
:100150006420736B696C6C73005265616479210073
:100160004E7962626C65000A2A20537461727420B1
:100170002A004C6F7720706F7765723A007A65724B
:100180006F00627574745570007374616E640070F2
:100190006565007075006869007374720073697436
:1001A00000747200776B0063720076740063004223
:1001B000007000520062616C616E6365004C006704
:1001C00000460064000000000023002600290049CA
:1001D000324320454550524F4D206F766572666C14
:1001E0006F77212044656C65746520736F6D6520A1
:1001F000736B696C6C73210A0061626F7274656461
:10020000007361766564003F00000000002500284F
:10021000002B000404040404040404020202020289
:1002200002030303030303010204081020408001BA
:100230000204081020010204081020006F1B922AFB
:1002400011241FBECFEFD8E0DEBFCDBF11E0A0E08C
:10025000B1E0EAE5F6E602C005900D92A03EB107D6
:10026000D9F724E0A0EEB1E001C01D92AA3BB2078D
:10027000E1F711E0CFE1D1E004C02197FE010E9437
:10028000E231CE31D107C9F70E945F1C0C942033B4
:100290000C94000080E090E0A0E0B0E48093A9021C
:1002A0009093AA02A093AB02B093AC02E091A80491
:1002B000F091A9048181082E000C990B9093AF0254
:1002C0008093AE028281082E000C990B9093B102AC
:1002D0008093B00283818093B2028091A80287FF4D
:1002E0000CC084818093B30285818093B40286819F
:1002F0008093B50287E090E005C0813061F05CF04A
:1003000084E098E09093B602E80FF11DF093B802F4
:10031000E093B702089584E0EECF8091A00290911F
:10032000A102891B990B0895089508950895AF922D
:10033000BF92CF92DF92EF92FF920F931F93CF93D2
:10034000DF936C017B018B01040F151FEB015E0134
:10035000AE18BF08C017D10759F06991D601ED91C9
:10036000FC910190F081E02DC6010995892B79F768
:10037000C501DF91CF911F910F91FF90EF90DF901A
:10038000CF90BF90AF900895FC01538D448D252FE1
:1003900030E0842F90E0821B930B541710F0CF961F
:1003A000089501970895FC01918D828D981761F051
:1003B000A28DAE0FBF2FB11D5D968C91928D9F5F68
:1003C0009F73928F90E008958FEF9FEF0895FC0147
:1003D000918D828D981731F0828DE80FF11D858DFA
:1003E00090E008958FEF9FEF0895FC01918D228D8D
:1003F000892F90E0805C9F4F821B91098F73992712
:10040000089589E093E00E94F50121E0892B09F429
:1004100020E0822F089580E090E0892B29F00E944F
:10042000010281110C9400000895FC01A48DA80F15
:10043000B92FB11DA35ABF4F2C91848D90E0019626
:100440008F739927848FA689B7892C93A089B18946
:100450008C91837080648C93938D848D981306C0E7
:100460000288F389E02D80818F7D80830895EF924B
:10047000FF920F931F93CF93DF93EC0181E0888F5E
:100480009B8D8C8D98131AC0E889F989808185FF2E
:1004900015C09FB7F894EE89FF896083E889F989D0
:1004A00080818370806480839FBF81E090E0DF91D2
:1004B000CF911F910F91FF90EF900895F62E0B8D25
:1004C00010E00F5F1F4F0F731127E02E8C8D8E11E0
:1004D0000CC00FB607FCFACFE889F989808185FF47
:1004E000F5CFCE010E941502F1CFEB8DEC0FFD2F61
:1004F000F11DE35AFF4FF0829FB7F8940B8FEA8902
:10050000FB8980818062CFCF682F89E093E00C94D3
:1005100037020F931F93CF93DF938C01D0E0C0E09D
:10052000F801EC0FFD1F6491662341F089E093E030
:100530000E943702892B11F02196F2CFCE01DF9174
:10054000CF911F910F910895CF93DF93EC01888D88
:100550008823B9F0AA89BB89E889F9898C9185FD3E
:1005600003C0808186FD0DC00FB607FCF7CF8C91CC
:1005700085FFF2CF808185FFEDCFCE010E9415026D
:10058000E9CFDF91CF910895833081F028F4813055
:1005900099F08230A9F008958730A9F08830C9F029
:1005A0008430B1F4809180008F7D03C08091800001
:1005B0008F7780938000089584B58F7784BD0895E8
:1005C00084B58F7DFBCF8091B0008F778093B00092
:1005D00008958091B0008F7DF9CF1F93CF93DF9363
:1005E000282F30E0F901EA5DFE4F8491F901E95DC1
:1005F000FD4FD491F901ED5EFD4FC491CC23A9F0DC
:10060000162F81110E94C402EC2FF0E0EE0FFF1FA5
:10061000E75FFD4FA591B4918FB7F894EC9111115C
:1006200008C0D095DE23DC938FBFDF91CF911F915F
:100630000895DE2BF8CF9091000189130BC0EAE3F7
:10064000F1E0E4919FEF90930001E13049F028F050
:10065000E23061F060E00C94ED0210926E00FACF8F
:1006600090916F009D7F90936F00F4CF90917000F8
:100670009D7F9093700091E09093B0009091B100B5
:10068000987F94609093B1001092B300E3CFCF9322
:10069000DF9390E0FC01E95DFD4F24918D5E9D4F5D
:1006A000FC0184918823D1F090E0880F991FFC0110
:1006B000E45EFE4FA591B491FC01E75FFD4FC5914B
:1006C000D49161110EC09FB7F8948C91E22FE09500
:1006D0008E238C932881E223E8839FBFDF91CF9103
:1006E00008958FB7F894EC91E22BEC938FBFF6CF7F
:1006F0008E50806480937C0080917A008064809327
:100700007A0080917A0086FDFCCF809178009091EC
:10071000790008953FB7F894809153029091540264
:10072000A0915502B091560226B5A89B05C02F3F57
:1007300019F00196A11DB11D3FBFBA2FA92F982F07
:100740008827BC01CD01620F711D811D911D42E002
:10075000660F771F881F991F4A95D1F708958F92CA
:100760009F92AF92BF92CF92DF92EF92FF926B0176
:100770007C010E948A034B015C01C114D104E10495
:10078000F104B9F00E948A03681979098A099B0962
:10079000683E73408105910580F321E0C21AD108BB
:1007A000E108F10888EE880E83E0981EA11CB11CB8
:1007B000E4CFFF90EF90DF90CF90BF90AF909F90ED
:1007C0008F9008952FB7F89460914F027091500266
:1007D00080915102909152022FBF08950F931F9361
:1007E0000E94E2036093110370931203809313033A
:1007F0009093140389E093E00E94D30197FF1DC0FA
:100800000E94E2030091110310911203209113033F
:1008100030911403601B710B820B930B00910D033D
:1008200010910E0320910F03309110036017710790
:1008300082079307F8F28FEF9FEF1F910F910895B2
:1008400020912B02260F3327331F21323105ECF480
:1008500020910303FC0190E080E0243069F082E005
:100860000895A0912B022191AC01455F5D4FA40F2B
:10087000B52FB11D2C930196861798F380912B020A
:10088000680F60932B0280E0089581E00895109234
:10089000030381E08093E2021092DD0261E082E1D5
:1008A0000E94ED0261E083E10E94ED02E9EBF0E0DD
:1008B00080818E7F808380818D7F808388E4809398
:1008C000B80085E48093BC000895CF93DF9391E056
:1008D00090930A028823B9F0C091B800D091BA0071
:1008E0008091BC008A7B8093BC0060E082E10E9422
:1008F000ED0260E083E10E94ED020E944704D09384
:10090000BA00C093B800DF91CF910895CF92DF92E3
:10091000EF92FF920F931F93CF93DF93D82FC62FA1
:10092000613208F098C00E948A036B017C018091BB
:10093000030381116BC081E0809303038093E20283
:100940009FEF9093E1021092E0029C0F9093DF02E0
:100950008093DE028091DE02DD0FD82BD093DE0281
:100960008091DD02813009F078C01092DD020E9492
:100970008A036B017C018091DE028093BB00809131
:10098000050390910603A0910703B0910803892BFA
:100990008A2B8B2BA1F00E948A03009105031091F2
:1009A000060320910703309108036C197D098E0915
:1009B0009F09061717072807390708F448C08091D0
:1009C000BC0083FDD8CF85EC8093BC000E948A03D5
:1009D0006B017C0180910303813009F440C0809158
:1009E000E0028C1710F4C091E002EDEBF2E0A3EE10
:1009F000B2E080E08C1355C08C2FDF91CF911F9116
:100A00000F91FF90EF90DF90CF90089580910503B4
:100A100090910603A0910703B0910803892B8A2BBC
:100A20008B2B09F484CF0E948A0300910503109157
:100A3000060320910703309108036C197D098E0984
:100A40009F09061717072807390708F070CF80910C
:100A500004030E946504C0E0CFCF85EEB5CF80913E
:100A6000050390910603A0910703B0910803892B19
:100A70008A2B8B2B09F4AECF0E948A0300910503C9
:100A80001091060320910703309108036C197D092A
:100A90008E099F09061717072807390708F09ACF0C
:100AA000D6CF91919D938F5FA5CF0895E091A1023C
:100AB0008091A002E81730F4F0E0ED51FD4F808105
:100AC00090E008958FEF9FEF08959091A10280919B
:100AD000A0022FEF3FEF981748F4E92FF0E0ED5117
:100AE000FD4F208130E09F5F9093A102C9010895DE
:100AF000CF92DF92EF92FF920F931F93CF93DF93EA
:100B00007C01CB018A012091BC02222389F0EB01F8
:100B10006B01C40ED51ECC15DD0569F06991D701B6
:100B2000ED91FC910190F081E02DC7010995F3CF83
:100B3000642F0E942004C801DF91CF911F910F9173
:100B4000FF90EF90DF90CF900895CF93DF931F92A7
:100B5000CDB7DEB769832091BC022223F9F0209142
:100B6000B902203258F021E030E0FC0133832283C7
:100B700090E080E00F90DF91CF9108958091BA02CC
:100B8000E82FF0E0E651FE4F998190838F5F8093CC
:100B9000BA028093B90281E090E0ECCF61E0CE012F
:100BA00001960E942004F7CFCF92DF92EF92FF923E
:100BB0000F931F93CF93DF93D091B90281E0D1328D
:100BC00008F09CC0C091BB020E948A036B017C01AB
:100BD0008091030381116CC082E08093030381E064
:100BE0008093E2028FEF8093E1021092E002D093B3
:100BF000DF02AAEEB1E0EDEBF2E080E0D8138DC0A9
:100C00001092DE028091DE02CC0FC82BC093DE0270
:100C10008091DD02813009F084C01092DD020E94D3
:100C20008A036B017C018091DE028093BB0080917E
:100C3000050390910603A0910703B0910803892B47
:100C40008A2B8B2BA1F00E948A030091050310913F
:100C5000060320910703309108036C197D098E0962
:100C60009F09061717072807390708F442C0809123
:100C7000BC0083FDD8CF85EC8093BC000E948A0322
:100C80006B017C0180910303823009F44CC0809198
:100C9000E1028F3F09F469C08091E102803209F4DA
:100CA00066C08091E102803309F463C084E026C00D
:100CB0008091050390910603A0910703B09108036A
:100CC000892B8A2B8B2B09F483CF0E948A030091F6
:100CD00005031091060320910703309108036C1956
:100CE0007D098E099F09061717072807390708F09D
:100CF0006FCF809104030E94650485E01092BA02D0
:100D00001092B9021092BC02DF91CF911F910F9106
:100D1000FF90EF90DF90CF9008959D9191938F5F1A
:100D20006DCF85EEA9CF8091050390910603A09128
:100D30000703B0910803892B8A2B8B2B09F4A2CFD0
:100D40000E948A0300910503109106032091070376
:100D5000309108036C197D098E099F090617170742
:100D60002807390708F08ECFC4CF80E0C7CF82E0D4
:100D7000C5CF83E0C3CF90E080E00895EF92FF926B
:100D80000F931F93CF93DF93EC0180E0B0E0A0E0DE
:100D9000E881F981AE17BF07D8F4AE171F06A8F493
:100DA000E82FF0E00A811B817F010E0D1F1DF80165
:100DB00040830A811B810E0D1F1DF80161830A818A
:100DC0001B81F701E00FF11F228311968D5FE0CFA9
:100DD00081E0DF91CF911F910F91FF90EF900895E7
:100DE0008F929F92AF92BF92CF92DF92EF92FF923B
:100DF000CF93DF93E62F6A01FF24D7FCF094EF2C0A
:100E0000832E942EA52EBB24A7FCBA94E1110EC00C
:100E1000482D6C2DDF91CF91FF90EF90DF90CF9018
:100E2000BF90AF909F908F900C94BE06DC016D91A7
:100E30007C911197E617170609F0D8F4E150E617F0
:100E40001706B8F46E2F660FE60FF0E012960D90BD
:100E5000BC91A02DAE0FBF1F8C92EC01AA81BB816B
:100E6000AE0FBF1F1196CC926A817B81E60FF71FF0
:100E7000228380E0DF91CF91FF90EF90DF90CF90C1
:100E8000BF90AF909F908F9008951F93CF93DF9363
:100E9000EC01142F89819A81288131E03093BC02C2
:100EA0002093BB021092BA021092B902DC01ED91BC
:100EB000FC910190F081E02D099589819A81DC01F6
:100EC000ED91FC910190F081E02D612F09958981D0
:100ED0009A81DF91CF911F910C94D405DC01ED91A3
:100EE000FC910190F081E02D0994FC0187E094E1F0
:100EF000161634F484E098E0613011F484E090E157
:100F00009083062E000C770B77FF03C071956195D7
:100F10007109969FA001979F500D1124840F952F62
:100F2000911D0895DC01ED91FC910190F081E02D7F
:100F300009940F931F93CF93DF93EC018A0189816A
:100F40009A81288131E03093BC022093BB02109239
:100F5000BA021092B90224E0629FB00111246A5FC4
:100F60007F4F0E94920770E060E089819A810E9421
:100F70006E0770E060E089819A810E946E07B80177
:100F800089819A810E946E07612F70E089819A8120
:100F90000E946E0789819A81DF91CF911F910F91F5
:100FA0000C94D405CF93C0E040E050E16C2F85E86D
:100FB00094E00E949907CF5FC031B1F7CF910895B7
:100FC0002F923F924F925F926F927F928F929F9259
:100FD000AF92BF92CF92DF92EF92FF920F931F9347
:100FE000CF93DF9300D000D000D01F92CDB7DEB7F3
:100FF0008C832D83262F30E0A8EEB3E00E94BB2E19
:101000004B015C011982842F90E09B838A83998134
:101010002C81921709F447C08A819B819F838E831C
:1010200010E000E09D812E812917C8F58E819F81F7
:10103000C29787369A4358F5CA80DB80C00ED11E0E
:101040001601220C331C220C331C85E0281A3108AF
:10105000CC0CDD1CF12CE12C412C512C320148141C
:1010600059046A047B049CF461E085E00E94ED026F
:10107000C1010197F1F760E085E00E94ED02C10136
:101080000197F1F74C0C5D1C6E1C7F1CE8CF0F5FC5
:101090001F4F8E819F8101969F838E83C3CF99813D
:1010A0009F5F9983B4CF27960FB6F894DEBF0FBE2B
:1010B000CDBFDF91CF911F910F91FF90EF90DF9007
:1010C000CF90BF90AF909F908F907F906F905F90E8
:1010D0004F903F902F9008959F92AF92BF92CF92E2
:1010E000DF92EF92FF920F931F93CF93DF93EC0168
:1010F00081E08093BC0284E58093BB021092BA0227
:101100001092B9026D2F70E086EA93E00E94920778
:10111000BE01772786EA93E00E94920786EA93E071
:101120000E94D40561E084E50E9486041092A10229
:101130008093A00286EA93E00E946505C090A8040F
:10114000D090A904F60180838093A802682F8DEACD
:1011500092E00E947507EC01F12CE12C1C161D0693
:101160004CF56C2FCF31D1050CF06EE184E50E9477
:101170008604982E1092A1028093A0025E01FEE1E7
:10118000AF1AB1088E018091A102981659F086EA33
:1011900093E00E9465059FEFE91AF90AF601EE0D4A
:1011A000FF1D80830150110929F0E5010A151B0577
:1011B00051F7D4CFDF91CF911F910F91FF90EF9016
:1011C000DF90CF90BF90AF909F900895CF93DF9323
:1011D000EC0189819A81288131E03093BC0220930F
:1011E000BB021092BA021092B902DC01ED91FC919F
:1011F0000190F081E02D099589819A810E94D405A2
:1012000061E088810E9486041092A1028093A0026E
:1012100089819A81DC01ED91FC910284F385E02DB6
:101220000995DF91CF9108958F929F92AF92BF92CF
:10123000CF92DF92EF92FF92CF93C82F90E080E0A1
:101240000E94FB2C6B017C016EEF85E894E00E940C
:10125000E608682F70E06F5F7F4F90E080E00E94AB
:10126000FB2C20E034E244E759E40E945C2D4B0162
:101270005C01609188047091890480918A04909146
:101280008B040E94FB2C9B01AC01C501B4010E94A0
:101290003C2F9B01AC01C701B6010E943C2F0E946C
:1012A000B52FAB016C2F85E894E0CF91FF90EF90C4
:1012B000DF90CF90BF90AF909F908F900C94990744
:1012C0000F931F93CF938C01C0E0B8018C2F0E9425
:1012D0001409CF5FC031C9F76AE070E080E090E0A8
:1012E000CF911F910F910C94AF038F929F92AF9269
:1012F000BF92CF92DF92EF92FF921F93CF93DF9333
:10130000EC016A017B0120E030E040E85FE3CB01C3
:10131000B6010E94F62C87FD7EC020E030EC4AE545
:1013200055E4C701B6010E94233018163CF4C12CC5
:1013300030ECD32E3AE5E32E35E4F32E6B817C813D
:101340008D819E810E94FB2C4B015C0120E030E0EE
:1013500040E855E4C701B6010E945C2D9B01AC0139
:10136000C501B4010E943C2F20E030E040E05FE383
:101370000E94CB2E20E030E040E85FE30E94CA2EBE
:101380006B017C0120E030E040E450E40E94F62C48
:1013900087FD48C020E030E04FE753E4C701B601C5
:1013A0000E942330181634F4C12CD12C9FE7E92E6B
:1013B00093E4F92E60E0CE010E94E608182F482F32
:1013C0004F76406160E0CE010E944507C701B6013B
:1013D0000E94B52F462F6EEFCE010E944507412F88
:1013E00060E0CE010E94450765E070E080E090E09B
:1013F0000E94AF03412F406A60E0CE01DF91CF91A0
:101400001F91FF90EF90DF90CF90BF90AF909F9093
:101410008F900C944507C12CD12C20E8E22E2FE3AD
:10142000F22E8CCFC12CD12C80E4E82EFE2CC2CF22
:10143000FC0101900020E9F73197AF01481B590BDF
:10144000BC0189E093E00C9497018DE691E00C9447
:10145000180ACF93DF930E948902EC010E94250AAB
:101460008C0F9D1FDF91CF910895CF93DF930E9442
:101470008402EC010E94250A8C0F9D1FDF91CF9101
:101480000895CF93DF93FC01448155816081718180
:1014900089E093E00E949701EC010E94250A8C0FDD
:1014A0009D1FDF91CF9108958F929F92AF92BF922F
:1014B0000F931F93CF93DF93CDB7DEB7A1970FB6EE
:1014C000F894DEBF0FBECDBF19A2423008F44AE047
:1014D0008E010F5D1F4F842E912CB12CA12CA501E4
:1014E00094010E94992EE62FB901CA01EA30F4F462
:1014F000E05DD801EE938D01232B242B252B79F76A
:1015000090E080E0109719F0CD010E94180AA19692
:101510000FB6F894DEBF0FBECDBFDF91CF911F9104
:101520000F91BF90AF909F908F900895E95CE1CFAD
:10153000CF92DF92EF92FF92C12CD12C76014AE03C
:10154000C701B6010E94540A89E00E9484028FEF0D
:10155000C81AD80AE80AF80A80E1C816D104E104DA
:10156000F10469F7FF90EF90DF90CF900C94250A7B
:10157000FC0124813581232B39F421E0FB0180819A
:10158000882349F020E007C0808191810E94D732F2
:1015900021E0892BB9F7822F0895CF93DF93EC01D7
:1015A00088819981009711F00E94322B198218824C
:1015B0001D821C821B821A82DF91CF910895FC014B
:1015C00080819181009711F00C94322B08950F9334
:1015D0001F93CF93DF938C01EB01FC0180819181FC
:1015E0000097E1F06881798161157105A9F0428168
:1015F00053812C813D814217530770F00E94E032E5
:101600008C819D81F801958384831D821C82DF91EA
:10161000CF911F910F9108950E94322B888199815B
:10162000F801918380838A819B81938382838C815B
:101630009D8195838483198218821B821A82E5CF4B
:101640000C941A2E6F927F928F929F92AF92BF92BC
:10165000CF92DF92EF92FF920F931F93CF93DF937E
:101660006C01712CD0E0C0E085E191E00E94200B7C
:10167000082E000C990B781619060CF06DC04E015F
:101680008FEF881A980ACE01805C9E4F0E94200B33
:10169000682EE82EF12CC70101960E94962A8C0133
:1016A0005C01CF5BDE4FC81BD90B8A2D801B8615D2
:1016B00048F4CE018A0D9B1D0E94200BF5018193F9
:1016C0005F01F3CFE401CE0DDF1D5801AE0CBF1C4E
:1016D000F5011082B601C8010E94D732892B09F5A5
:1016E00001151105A9F5CE018F5B9E4F0E94200BBD
:1016F0008093A802682F8DEA92E00E947507CE01C0
:10170000805C9E4FDF91CF911F910F91FF90EF90E2
:10171000DF90CF90BF90AF909F908F907F906F9011
:101720000895F501319780818C3449F4A701415027
:101730005109B601C8010E94E732892B89F20115CF
:10174000110519F0C8010E94322B249673948CCF96
:10175000C8010E94322BC7CF87E092E00E94290A7D
:101760008FEF9FEFCFCF1F93CF93DF93EC010E94BA
:10177000200B182FCE0101960E94200B90E0982F8D
:101780008827810F911DDF91CF911F910895CF92EE
:10179000DF92EF92FF920F931F93CF93DF936A0133
:1017A0007B01082F10E0C801805B9F4F880F991FB5
:1017B0000E94B30BBC01990F880B990B0E94FD2C62
:1017C00020E030E04AE754E40E943C2FA701960154
:1017D0000E945C2D6B017C0182E191E00E94200B54
:1017E0009AE0899FB0011124072E000C880B990BF9
:1017F0000E94FD2CA70196010E94CB2E6B017C015B
:1018000020E030E04AEF53E40E942330C4EFD1E0FF
:1018100018168CF420E030E44CE155E4C701B60121
:101820000E94F62CC4ECD9E087FF05C0C701B601C1
:101830000E94AE2FEB01C8010E94200BAE01682F61
:1018400085E894E0DF91CF911F910F91FF90EF9089
:10185000DF90CF900C94990790E0C096880F991F65
:10186000860F911D880F991F0C94B30B7F928F9256
:101870009F92AF92BF92CF92DF92EF92FF920F931F
:101880001F93CF93DF93B82E6A01D62FC72F60E046
:101890000E942C0CBC01990F880B990B0E94FD2C07
:1018A0007B018C0161E08B2D0E942C0CBC01990FF7
:1018B000880B990B0E94FD2C762E872E982EA92E30
:1018C00096014D2F5C2F0E94F62C87FF71C0772D5B
:1018D000682D992D8A2D272F362F492F582FB70184
:1018E000C8010E942330181694F096014D2F5C2FEA
:1018F000672D782D892D9A2D0E94F62C76010D2FBB
:101900001C2F87FF04C0E72CF82C092D1A2DCB2D96
:10191000D0E06E0180E3C80ED11CCC0FDD1FC95F83
:10192000DE4FB701C8010E94AE2F79836883C601DC
:10193000880F991F0E94B30BEC01C6010E94200B77
:10194000682F880F770B880B990B0E94FD2C97014D
:10195000A8010E945C2D6B017C01BE01DD0F880B8C
:10196000990B0E94FD2C9B01AC01C701B6010E949E
:10197000CB2E0E94AE2F072E000C880B990B0E94D5
:10198000FD2C20E030E0A9010E94CB2EAB01BC0170
:101990008B2DDF91CF911F910F91FF90EF90DF90F2
:1019A000CF90BF90AF909F908F907F900C94C70B7B
:1019B0007C2D6D2DCE018FCF2F923F924F925F9253
:1019C0006F927F928F929F92AF92BF92CF92DF924F
:1019D000EF92FF920F931F93CF93DF93CDB7DEB7B4
:1019E0002E970FB6F894DEBF0FBECDBF5C016A0123
:1019F0007B0120E030E0A901CB01B6010E94F62C6A
:101A00009501205E3F4F3901181684F189013FE0AE
:101A10003983D8017E916E918D01072E000C880BC1
:101A2000990B0E94FD2CAB01BC0189810E94360CF0
:101A3000B981B150B983BF3F61F72E960FB6F894C4
:101A4000DEBF0FBECDBFDF91CF911F910F91FF90F1
:101A5000EF90DF90CF90BF90AF909F908F907F904E
:101A60006F905F904F903F902F90089580E290E0AC
:101A70000E94962A8C0187E0882E81E0982E98019A
:101A8000F50170E060E0D4018D919D914D0141918F
:101A90005191841B950BD9018D939D939D0197FFC7
:101AA00003C0919581959109681779070CF4BC01E1
:101AB000E615F70541F7072E000C880B990B0E94DD
:101AC000FD2CA70196010E943C2F6B017C0120E0B8
:101AD00030E0A9010E94233020E030E040E05FE3E5
:101AE00087FD91C0C701B6010E94CB2E0E94AE2F88
:101AF0007E876D87D12CC12C8D859E85092E000C8B
:101B0000AA0BBB0B89879A87AB87BC87AD85BE853F
:101B1000AC15BD050CF47CC048011501F12CC601C3
:101B20000D2C000CAA0BBB0B8D839E83AF83B88753
:101B3000D1016D917D911D01072E000C880B990B31
:101B40000E94FD2C2B013C01ED85FE8520E030E05C
:101B5000A901EF2B09F443C06D817E818F819885A7
:101B60000E94FD2C2BED3FE049E450E40E945C2DE7
:101B700069837A838B839C8369857A858B859C8531
:101B80000E94FD2C9B01AC0169817A818B819C8133
:101B90000E943C2F0E94372F20E030E040E85FE3B6
:101BA0000E94CB2E20E030E040E05FE30E945C2DFD
:101BB00069837A838B839C83D4016D917C91072EFA
:101BC000000C880B990B0E94FD2C9B01AC016981D4
:101BD0007A818B819C810E945C2D9B01AC01C301A9
:101BE000B2010E94CB2EAB01BC018F2D0E94360C9E
:101BF000F394B2E08B0E911CE0E1FE1299CFFFEF5F
:101C0000CF1ADF0A83CFC701B6010E94CA2E6ECF5A
:101C10000115110509F411CFC8012E960FB6F894DD
:101C2000DEBF0FBECDBFDF91CF911F910F91FF900F
:101C3000EF90DF90CF90BF90AF909F908F907F906C
:101C40006F905F904F903F902F900C94322B2F927B
:101C50003F924F925F926F927F928F929F92AF923C
:101C6000BF92CF92DF92EF92FF920F931F93CF9389
:101C7000DF93CDB7DEB72F970FB6F894DEBF0FBE58
:101C8000CDBF4C016D8369017A01202F30E03A838A
:101C9000298320E030E0A901C701B6010E94F62C9B
:101CA0001816ECF01FE0812F012E000C990BA98172
:101CB000BA818A179B070CF41EC1880D991DFC017F
:101CC0006081062E000C770B880B990B0E94FD2C6F
:101CD000AB01BC01812F0E94360C1150E4CF80E192
:101CE00090E029813A81821B930B811530E49307A0
:101CF00080F5880F991F009779F10E94962A5C0160
:101D0000E981FA81EE0FFF1FCF01895F9E4F3C01F1
:101D10002501D401402F70E060E0403100F5F3016F
:101D2000819191913F012D915D81250390011124B5
:101D3000821B930BF201819391932F0197FF03C0B4
:101D4000919581959109681779070CF4BC014F5F53
:101D5000E4CF8FEF9FEFD1CF81E090E0CECF072E81
:101D6000000C880B990B0E94FD2CA70196010E9484
:101D70003C2F6B017C0120E030E0A9010E94233060
:101D800020E030E040E05FE387FD8BC0C701B60193
:101D90000E94CB2E0E94AE2F1B011F861E86CB01F8
:101DA000770FAA0BBB0B8A879B87AC87BD87AE8555
:101DB000BF852A163B060CF480C0BA82A9829C8299
:101DC0008B82102FCD01092E000CAA0BBB0B8E832A
:101DD0009F83A887B987103108F068C0AB81BC81A8
:101DE0006D91BC83AB832D816203B0011124072E5A
:101DF000000C880B990B0E94FD2C6B017C0120E0EC
:101E000030E0A90121143104E1F16E817F818885E0
:101E100099850E94FD2C2BED3FE049E450E40E949F
:101E20005C2D2B013C016A857B858C859D850E94FC
:101E3000FD2C9B01AC01C301B2010E943C2F0E940A
:101E4000372F20E030E040E85FE30E94CB2E20E017
:101E500030E040E05FE30E945C2D2B013C01A98152
:101E6000BA816D917C91072E000C880B990B0E9412
:101E7000FD2C9B01AC01C301B2010E945C2D9B01B2
:101E8000AC01C701B6010E94CB2EAB01BC01812F72
:101E90000E94360C1F5FE981FA813296FA83E9834A
:101EA0009ACFC701B6010E94CA2E74CF2E853F85F6
:101EB0002F5F3F4F3F872E877ACFA114B104D9F00F
:101EC000C5012F960FB6F894DEBF0FBECDBFDF91D0
:101ED000CF911F910F91FF90EF90DF90CF90BF9027
:101EE000AF909F908F907F906F905F904F903F90BA
:101EF0002F900C94322B2F960FB6F894DEBF0FBEA6
:101F0000CDBFDF91CF911F910F91FF90EF90DF90A8
:101F1000CF90BF90AF909F908F907F906F905F9089
:101F20004F903F902F9008950F930E944A01109276
:101F3000A3021092A202E4EAF2E0258136814781F1
:101F4000508502896685838994890E94270E0F91A6
:101F50000895CF92DF92EF92FF920F931F93CF934A
:101F6000DF938C01FC0101900020E9F7329780811A
:101F70008C3409F4EDC0823509F0ECC087EE809313
:101F8000A702C8010E94220BEC01CF3FDC0709F435
:101F900031C1CE010E94200BF82ECE0102960E9484
:101FA000B30BEC01E9E4FE12D7C00E946C080E945A
:101FB0004A0160E771E0C8010E94D732892B09F419
:101FC000E5C08091A802813009F0E0C00E94072C92
:101FD00024E630E040E050E00E94302E0E94FD2CCC
:101FE00020E030E040E251E40E943C2F20E030E06D
:101FF00040EA50E40E94CA2E60939C0270939D02B6
:1020000080939E0290939F02C0909C02D0909D026C
:10201000E0909E02F0909F02D0E0C0E00091B702F5
:102020001091B8020C0F1D1FF8016081062E000CE4
:10203000770B880B990B0E94FD2CA70196010E943B
:10204000CB2E0E94AE2FF80160832196C031D105BE
:1020500029F78091A70287FFA2C08091AE029091DC
:10206000AF029195819591099093AF028093AE0252
:1020700090E080E04091A802242F042E000C330B46
:1020800037FF03C0319521953109821793070CF072
:102090009BC042301CF54091AD02489F9001499F82
:1020A000300D1124E091B702F091B802E20FF31F56
:1020B0002081219520832091AD02289FF001299F46
:1020C000F00D11249F012E5F3F4FE091B702F09178
:1020D000B802E20FF31F2081219520832091A802EE
:1020E00060E022300CF462E0E62FF0E02091A802DC
:1020F00022300CF488C024E030E04091B7025091C7
:10210000B802E217F3070CF081C09F01220F331FC2
:102110007091AD02789FF001799FF00D1124E20FCC
:10212000F31FE40FF51F4081518150835091AD02A0
:10213000589FD001599FB00D1124E091B702F09142
:10214000B802E20FF31FEA0FFB1F41836F5FCCCF92
:1021500089E115CF80E013CF6091A8028DEA92E06B
:102160000E9475072091A8043091A904D901C21BCF
:10217000D30BFE01EA0FFB1FAD01421B530B4817A7
:1021800059070CF014CFE491ED93F3CF10929C0219
:1021900010929D0210929E0210929F0235CF909154
:1021A000A80292308CF481110FC00E94072C24E603
:1021B00030E040E050E00E94302E60FF05C080918A
:1021C0009B02833609F049CF1092A3021092A2021B
:1021D0002091A9023091AA024091AB025091AC0229
:1021E0000091B6026091B2028091B7029091B8025C
:1021F0000E94270EDF91CF911F910F91FF90EF90DA
:10220000DF90CF90089528E030E077CF019632CF6D
:102210000F931F93CF93DF93EC018B010E941A2E33
:10222000081721F0602FCE010E94222E2196CE01A8
:102230000E941A2E181721F0612FCE010E94222E23
:1022400066E070E080E090E0DF91CF911F910F9108
:102250000C94AF030F931F93CF93DF93EC0188810E
:102260009981009759F02A813B812617370730F072
:1022700081E0DF91CF911F910F9108958B016F5FE6
:102280007F4F0E94FC31009759F0998388831B830C
:102290000A832C813D81232B59F7FC011082E8CF62
:1022A00080E0E7CFEF92FF920F931F93CF93DF93DE
:1022B0006115710541F480E0DF91CF911F910F917D
:1022C000FF90EF90089541155105B1F07B01EC01AD
:1022D0000C811D81040F151FB8010E942A1188234B
:1022E00051F3288139818C819D81B701820F931F21
:1022F0000E94E0321D830C8381E0DECFEF92FF92DB
:102300000F931F93CF93DF93EC017B018A01BA01F6
:102310000E942A1181110BC0CE010E94CD0ACE016C
:10232000DF91CF911F910F91FF90EF9008951D8342
:102330000C83B701888199810E94E032F0CFFB01C4
:10234000DC0111961C921E9213961C921E921297FB
:1023500015961C921E9214978617970759F0608164
:1023600071816115710521F0448155810C947E11B4
:102370000C94CD0A0895FB0101900020E9F73197F4
:10238000AF01461B570B0C947E110F931F93CF93F5
:10239000DF93CDB7DEB762970FB6F894DEBF0FBEFE
:1023A000CDBF8C01CB01F801118210821382128201
:1023B000158214824AE0BE016F5F7F4F0E94B92CE4
:1023C000BE016F5F7F4FC8010E94BB1162960FB6BE
:1023D000F894DEBF0FBECDBFDF91CF911F910F915B
:1023E0000895FC01118210821382128215821482D8
:1023F000FB0101900020E9F73197AF01461B570B15
:102400000C947E11EF92FF920F931F93CF93DF9363
:1024100000D0CDB7DEB78C01E62E66ED71E00E94EC
:10242000F1110E94EE030E2C000CFF0897FD10C066
:102430008E159F0569F089831A8241E050E0BE0144
:102440006F5F7F4FC8010E9452110E94EE03EECFD2
:10245000C8010F900F90DF91CF911F910F91FF90C6
:10246000EF900895EF92FF920F931F93CF93DF9316
:10247000EC018B01198218821B821A821D821C8238
:10248000CB010E94842C7C01BC01CE010E942A1148
:10249000811109C0CE01DF91CF911F910F91FF9063
:1024A000EF900C94CD0AFD82EC82B801888199816D
:1024B000DF91CF911F910F91FF90EF900C947D2CA5
:1024C00085ED8093BC008091050390910603A09157
:1024D0000703B09108030796A11DB11D23E0B6952F
:1024E000A795979587952A95D1F72091BC0024FD53
:1024F00003C0109203030895409105035091060311
:102500006091070370910803452B462B472B69F315
:102510000097A105B10541F02AE22A95F1F700C024
:102520000197A109B109E1CF809104030C946504DE
:10253000EF92FF920F931F93CF93DF93EC0188816B
:1025400099818C01000F111F080F191FEA80FB8071
:10255000A801B7018C819D810E94C132892B09F4A9
:1025600032C0AE81BF818A853FB7F8942C91982FF5
:1025700090959223822BF7010E0F1F1FE017F10792
:1025800081F0219148E08C9300C027FF9C93220F9B
:1025900000C000C000C008F49C9300C04A9599F7A1
:1025A000EDCF3FBF88819981AC01440F551F480F83
:1025B000591F6A817B818C819D810E94CE328BEC78
:1025C00097E00197F1F7DF91CF911F910F91FF9065
:1025D000EF900895CF92DF92EF92FF929C016A01F3
:1025E0007B0180919E0490919F042115310579F41F
:1025F000AB01960160E00E94F00680919E049091EC
:102600009F04FF90EF90DF90CF900C9498122130B0
:102610003105B1F4AB01960161E00E94F006A7011B
:10262000960162E080919E0490919F040E94F006C2
:10263000A701960163E080919E0490919F04DBCFF7
:1026400022303105D1F6AB01960164E00E94F0061C
:10265000A701960165E080919E0490919F040E94DD
:10266000F006A701960166E0E6CF2F923F924F92C7
:102670005F926F927F928F929F92AF92BF92CF9212
:10268000DF92EF92FF920F931F93CF93DF9300D0CF
:1026900000D000D0CDB7DEB78C016A017B012130BC
:1026A00009F409C1E0F0223009F4DEC126960FB624
:1026B000F894DEBF0FBECDBFDF91CF911F910F9178
:1026C000FF90EF90DF90CF90BF90AF909F908F9052
:1026D0007F906F905F904F903F902F900895862E3F
:1026E000912CB12CA12C8D2D90E0B0E0A0E0DD2448
:1026F000EE24FF242401350125E0421A5108610827
:10270000710845E050E05E834D839C01AD012819BE
:1027100039094A095B0929833A834B835C83C818CA
:10272000D908EA08FB08212C3324339489819A8143
:10273000AB81BC81840D951DA61DB71D853091050B
:10274000A105B10524F485E090E0A0E0B0E0BA2F47
:10275000A92F982F8827B301A20135E04316510411
:102760006104710424F445E050E060E070E0BA01D7
:1027700055274427480F591F6A1F7B1FD301C201E9
:102780008C0D9D1DAE1DBF1D85309105A105B105A8
:1027900024F485E090E0A0E0B0E0480F591F6A1FE4
:1027A0007B1FC8010E94EA124D8162E170E080E067
:1027B00090E0423148F0C1016D817E810E94CE31AE
:1027C000072E000C880B990B0E94AF0351E0451AAD
:1027D0005108610871088D819E8101969E838D83C9
:1027E0008837910509F0A2CF98E7891A9108A108C6
:1027F000B10848E7742E240128E7420E511C498194
:102800005A816B817C81480D591D6A1D7B1D4530A5
:1028100051056105710524F445E050E060E070E089
:10282000762F652F542F4427D501C40135E0831638
:102830009104A104B10424F485E090E0A0E0B0E0AC
:10284000DC0199278827840F951FA61FB71FB501A4
:10285000A4014C0D5D1D6E1D7F1D453051056105A8
:10286000710524F445E050E060E070E0480F591F26
:102870006A1F7B1FC8010E94EA1241E162E170E019
:1028800080E090E0471558F480E091E0B2016819CB
:1028900079090E94CE31072E000C880B990B0E94FB
:1028A000AF037A945FEF851A950AA50AB50A84E00A
:1028B0007812A5CFFBCE40E050E0BA0190E080E076
:1028C0000E94EA12A701960161E080919E04909116
:1028D0009F040E94F006A701960164E080919E0487
:1028E00090919F040E94F00680919E0490919F0415
:1028F0000E94981264E670E080E090E00E94AF03CE
:1029000020E030E0A90161E080919E0490919F0455
:102910000E94F00620E030E0A90164E080919E046E
:1029200090919F040E94F006A701960162E08091B9
:102930009E0490919F040E94F006A701960165E015
:1029400080919E0490919F040E94F00680919E04C5
:1029500090919F040E94981264E670E080E090E0FD
:102960000E94AF0320E030E0A90162E080919E0464
:1029700090919F040E94F00620E030E0A90165E0FC
:1029800080919E0490919F040E94F006A7019601F9
:1029900063E080919E0490919F040E94F006A7013D
:1029A000960166E080919E0490919F040E94F0063B
:1029B00080919E0490919F040E94981264E670E0BA
:1029C00080E090E00E94AF0320E030E0A90163E0E6
:1029D00080919E0490919F040E94F00620E030E0D8
:1029E000A90166E080919E0490919F040E94F006E8
:1029F00080919E0490919F040E94981264E670E07A
:102A000080E090E00E94AF03A701960162E0809110
:102A10009E0490919F040E94F006A701960165E034
:102A200080919E0490919F040E94F00680919E04E4
:102A300090919F0426960FB6F894DEBF0FBECDBFCF
:102A4000DF91CF911F910F91FF90EF90DF90CF908A
:102A5000BF90AF909F908F907F906F905F904F90BE
:102A60003F902F900C94981293E0998340E050E0AF
:102A7000BA0190E080E00E94EA1264E170E080E038
:102A800090E00E94AF03B701A60190E080E00E94B1
:102A9000EA122981215029832111E8CF07CE2F92F4
:102AA0003F924F925F926F927F928F929F92AF92DE
:102AB000BF92CF92DF92EF92FF920F931F93CF932B
:102AC000DF93CDB7DEB766970FB6F894DEBF0FBEC3
:102AD000CDBF69877A878B879C872D873E874F87F5
:102AE000588BC801EE8A10E088248A94982C5401EF
:102AF00068E4462E68EE562E66246394712C05E039
:102B000078E1272E72E0372E9C01990F440B550B6C
:102B1000298B3A8B4B8B5C8B6D857E858F85988955
:102B20000E94B52F6D837E838F83988720E030E0ED
:102B3000A90169857A858B859C850E94F62C88235E
:102B400009F499C129853A854B855C8563E67CE962
:102B500087E89FE30E94283020E030ED42E854E40B
:102B60000E945C2D0E94B52F6B0180910001853081
:102B700009F06AC0EAE3F1E0F491FD8BF7FDD9C1F9
:102B800061E085E00E944703FD89FF2321F02D8944
:102B9000223009F024C1F12CE12C60E072E18AE7D7
:102BA00090E0A70196010E94302E29833A834B833F
:102BB0005C83DA01C9010197A109B1098F3F910531
:102BC000A105B10509F00CF4F0C060E472E48FE0F7
:102BD00090E0A70196010E94302E21503109410951
:102BE00051098D89823009F0A2C082E02F3F310562
:102BF0004105510509F00CF48CC160E970ED83E0EA
:102C000090E0A70196010E94302E21503109410920
:102C1000510983E02F3F31054105510509F00CF4BE
:102C200078C1C301B201A70196010E94302E215044
:102C30003109410951092F3F31054105510511F075
:102C40000CF092C084E065C18F3F09F072C100931F
:102C50000001EAE3F1E0F491FD8BFF3F09F469C163
:102C6000F13029F158F0F23009F43FC03D8937FDC9
:102C700060C161E085E00E94470389CF14BC15BCA8
:102C800084B5826084BD85B5816085BDF101849184
:102C9000E82FF0E0EE0FFF1FE75FFD4F8591949165
:102CA000ECE2F2E084918093E1011D8A69CF1092F9
:102CB0008000109281008091810088608093810063
:102CC00080918100816080938100F1018491E82FDF
:102CD000F0E0EE0FFF1FE75FFD4F85919491ECE26E
:102CE000F2E084918093E0014BCF1092B0001092FB
:102CF000B1008091B00082608093B0008091B100FB
:102D000081608093B100F1018491E82FF0E0EE0F33
:102D1000FF1FE75FFD4F8591949190935802809338
:102D20005702ECE2F2E084918093590229CF2F3FC1
:102D300031054105510509F00CF44FC0C301B20142
:102D4000A70196010E94302E2150310941095109F5
:102D50009D89992309F4AFC02F3F310541055105E5
:102D600011F00CF0B0C06ECF64E274EF80E090E040
:102D7000A70196010E94302E2150310941095109C5
:102D800085E02F3F31054105510509F008F4C1C028
:102D900062E17AE780E090E0A70196010E94302E80
:102DA00021503109410951099DC09C0181E0FD89F3
:102DB000F111AFC095B5987F892B85BD27BD809255
:102DC000E6019092E701A092E801B092E9018091BA
:102DD0006E00826080936E00ACC082E0E8CFF12C80
:102DE000E12C60E072E18AE790E0A70196010E9481
:102DF000302E215031094109510991E02115310549
:102E000081E0480751055CF0C301B201A7019601BA
:102E10000E94302E215031094109510993E0ED897A
:102E2000E13009F07CC080918100887F892B8093FC
:102E3000810030938900209388008092E201909273
:102E4000E301A092E401B092E50180916F008260FD
:102E500080936F006EC02093B30080925A029092CC
:102E60005B02A0925C02B0925D0280917000826071
:102E7000809370005EC06D817E818F8198850E94F5
:102E8000AF0357C084E02F3F31054105510509F0DC
:102E900008F490CF29813A814B815C818AE0559575
:102EA0004795379527958A95D1F7215031094109E2
:102EB000510985E07FCF83E02F3F31054105510562
:102EC00009F00CF477CF62E17AE780E090E0A701A7
:102ED00096010E94302E2150310941095109ED8996
:102EE000EE2381F286E02F3F31054105510589F03F
:102EF00080F029813A814B815C819AE05595479514
:102F0000379527959A95D1F72150310941095109F3
:102F100087E09091B100987F892B8093B100FD8963
:102F2000F13009F486CFF23009F495CFFF2309F48C
:102F300045CF6D817E818F8198850E94AF0385E0AA
:102F40000E941B0369897A898B899C890E94AF033F
:102F50001F5F2E892113E0CD66960FB6F894DEBF71
:102F60000FBECDBFDF91CF911F910F91FF90EF90DA
:102F7000DF90CF90BF90AF909F908F907F906F9099
:102F80005F904F903F902F9008954F925F926F9275
:102F90007F928F929F92AF92BF92CF92DF92EF92E9
:102FA0000F931F93CF93DF93D82E192F0E94200BDE
:102FB0008695CD2DD12FB12CA12CC82ED12C88EEE9
:102FC000882E83E0982E2197AC14BD044CF5CE01D9
:102FD0008C199D090E94200B782ECE010E94200B97
:102FE000182F672D70E0C4010E94CE31072E000C0F
:102FF000880B990B0E94FD2C2B013C01612F70E086
:1030000090E080E00E94FB2CEE24E39410E000E0CE
:10301000A30192010E944F158FEFA81AB80AD3CFCF
:10302000DF91CF911F910F91EF90DF90CF90BF90E4
:10303000AF909F908F907F906F905F904F9008958A
:103040001F920F920FB60F9211242F933F934F931D
:103050005F936F937F938F939F93AF93BF93EF9300
:10306000FF9380915A0290915B02A0915C02B09113
:103070005D02892B8A2B8B2BD1F190915902E09123
:103080005702F091580280818927808380915A02EB
:1030900090915B02A0915C02B0915D021816190636
:1030A0001A061B069CF480915A0290915B02A09133
:1030B0005C02B0915D020197A109B10980935A02A7
:1030C00090935B02A0935C02B0935D02FF91EF913D
:1030D000BF91AF919F918F917F916F915F914F9130
:1030E0003F912F910F900FBE0F901F9018958091D8
:1030F00000010E941B03EACF1F920F920FB60F929E
:1031000011242F933F934F935F936F937F938F93EC
:103110009F93AF93BF93EF93FF9389E093E00E9457
:103120001502FF91EF91BF91AF919F918F917F9188
:103130006F915F914F913F912F910F900FBE0F9024
:103140001F9018951F920F920FB60F9211242F9374
:103150008F939F93EF93FF93E0911903F0911A03DC
:103160008081E0911F03F091200382FD1BC09081BC
:10317000809122038F5F8F7320912303821741F088
:10318000E0912203F0E0E75FFC4F958F80932203EC
:10319000FF91EF919F918F912F910F900FBE0F9004
:1031A0001F9018958081F4CF1F920F920FB60F9247
:1031B00011242F933F938F939F93AF93BF9380914D
:1031C0004F0290915002A0915102B0915202309161
:1031D0004E0223E0230F2D3758F50196A11DB11D96
:1031E00020934E0280934F0290935002A09351027D
:1031F000B09352028091530290915402A0915502D3
:10320000B09156020196A11DB11D80935302909377
:103210005402A0935502B0935602BF91AF919F9173
:103220008F913F912F910F900FBE0F901F90189587
:1032300026E8230F0296A11DB11DD2CF1F920F9237
:103240000FB60F9211242F933F934F935F936F9379
:103250007F938F939F93AF93BF93EF93FF9380914F
:10326000B900887F803609F44AC0F0F5883209F445
:10327000A7C018F5803109F49BC0B8F4882309F47D
:10328000F9C0883009F494C0FF91EF91BF91AF91DC
:103290009F918F917F916F915F914F913F912F916E
:1032A0000F900FBE0F901F901895883109F488C0B9
:1032B000803251F78093E10214C0803409F49DC03C
:1032C00040F48033B9F38833F9F68093E10285EC5A
:1032D000B0C0803509F485C0883509F496C08834BB
:1032E00099F60E946012D0CF883909F48CC038F565
:1032F000883729F050F4883611F0803729F683E0BA
:103300008093030310924D0257C0883809F47BC0A4
:10331000803919F0803809F0B7CF80914D028032A2
:1033200008F071C0E0914D0281E08E0F80934D0254
:103330008091BB00F0E0E35DFD4F80833DC0803BAA
:1033400039F0E0F4803A09F479C0883A09F09CCF6A
:1033500084E08093030310922C0210922B02E091E0
:103360006002F0916102099580912B0281110FC0DA
:1033700081E080932B0210920B0209C0803C09F47B
:10338000A6CF883C09F4A3CF883B09F07DCFE0911C
:103390002C0281E08E0F80932C02F0E0E55FFD4F60
:1033A00080818093BB0090912C0280912B0229C0D8
:1033B0008091DE028093BB0085EC8093BC0064CFDB
:1033C0009091E0028091DF02981758F5E091E002B9
:1033D00081E08E0F8093E002F0E0E354FD4F8081A6
:1033E000E9CFE091E00281E08E0F8093E0028091CE
:1033F000BB00F0E0E354FD4F80839091E0028091A8
:10340000DF029817C8F285E8D8CFE091E00281E0AA
:103410008E0F8093E0028091BB00F0E0E354FD4FFB
:1034200080838091E20281115CCF81E08093DD0294
:1034300084EA8093BC001092030326CF85EC80932E
:10344000BC001092030380914D02803230F4E09171
:103450004D02F0E0E35DFD4F108260914D0270E09F
:10346000E0915E02F0915F028DE292E00995109288
:103470004D020ACF1092E10234CF1F920F920FB685
:103480000F9211242F933F934F935F936F937F93EA
:103490008F939F93AF93BF93CF93DF93EF93FF935C
:1034A0002091B30330E0F901EA5DFE4F8491F90108
:1034B000E95DFD4FD491F901ED5EFD4FC491CC2340
:1034C00079F081110E94C402EC2FF0E0EE0FFF1F93
:1034D000EB53FE4FA591B491EC91ED2381E009F4FB
:1034E00080E02091B8033091B9032F5F3F4F3093B4
:1034F000B9032093B8032091B6033091B703253662
:10350000310518F094E09093B2039091B2039111B9
:1035100030C0811169C02091B8033091B9032436BD
:10352000310528F41092B9031092B8035DC01092CF
:1035300084041092B7031092B6032091B603309121
:10354000B703A9014F5F5F4F5093B7034093B60392
:103550004091B8035091B903220F331FF901E6548B
:10356000FC4F518340831092B9031092B80391E04D
:1035700021C09091B203913001F58130A9F52091DD
:10358000B6033091B703A9014F5F5F4F5093B70364
:103590004093B6034091B8035091B903220F331FF3
:1035A000F901E654FC4F518340831092B903109205
:1035B000B80392E09093B20317C09091B203923097
:1035C00061F4882309F4B9CF2091B8033091B9038D
:1035D0002536310548F093E0EDCF9091B20393305A
:1035E00099F4882309F49ECF9091B5039923A9F00B
:1035F000811126C08091B403882371F08091B403B7
:1036000061E00E94ED0209C09091B203943061F72D
:1036100091E090938404DFCF2D9AFF91EF91DF9199
:10362000CF91BF91AF919F918F917F916F915F915A
:103630004F913F912F910F900FBE0F901F901895B3
:103640008091B403882321F08091B40360E0D9CF46
:103650002D98E3CFCF92DF92EF92FF920F931F93BB
:10366000E82FF92F05C0015011092109310961F135
:10367000908196239417B9F305C0015011092109CF
:10368000310911F1908196239413F7CFC12CD12CDD
:10369000E12CF12C0AC08FEFC81AD80AE80AF80A00
:1036A0000C151D052E053F0579F0808186238417B2
:1036B00091F36C2D7D2D8E2D9F2D1F910F91FF90DD
:1036C000EF90DF90CF90089560E070E080E090E0B0
:1036D0001F910F91FF90EF90DF90CF900895CF93BF
:1036E000DF9310920C0310920B0388EE93E0A0E09E
:1036F000B0E080930D0390930E03A0930F03B0935B
:1037000010032DE431E030930A032093090325ECE4
:1037100030E0309316032093150324EC30E030930F
:1037200018032093170320EC30E030931A03209302
:10373000190321EC30E030931C0320931B0322EC8F
:1037400030E030931E0320931D0326EC30E03093CD
:10375000200320931F031092220310922303109240
:103760002403109225031092A9031092A8038093BA
:10377000AA039093AB03A093AC03B093AD038FE582
:1037800091E09093A7038093A6038AE090E00E94C3
:10379000962A9093AD048093AC0482E090E00E945E
:1037A000962A9093AB048093AA0482EC91E00E9445
:1037B000962A9093A9048093A80484E08093B3038D
:1037C0001092B50366E771E082EA94E00E94F1117D
:1037D00086E080939C0487E080939D048BE090E0DA
:1037E0000E94962AEC01EEE2F2E0E491EA87EAE137
:1037F000F2E0E491F0E0EE0FFF1FE75FFD4F8591EF
:1038000094919F838E8361E087E00E94470386E066
:1038100090E09983888382E190E00E94962A9B83BE
:103820008A83892B21F489E791E00E94F53230E008
:1038300020E048815981CA01880F991F840F951F84
:103840002817390740F4EA81FB81E20FF31F108249
:103850002F5F3F4FEECF0E94962A9D838C83892B4A
:1038600021F489E791E00E94F53290E080E0488100
:1038700059819A01220F331F240F351F8217930796
:1038800038F4EC81FD81E80FF91F10820196EFCF2B
:10389000D0939F04C0939E04EBE8F4E081E1DF0144
:1038A0001D928A95E9F780E48093850486EA93E087
:1038B0009093870480938604DF91CF910895CF93EE
:1038C000DF93CDB7DEB7E0970FB6F894DEBF0FBE3B
:1038D000CDBF789484B5826084BD84B5816084BD99
:1038E00085B5826085BD85B5816085BD80916E009E
:1038F000816080936E0010928100809181008260CF
:10390000809381008091810081608093810080910B
:1039100080008160809380008091B10084608093FA
:10392000B1008091B00081608093B00080917A00F6
:10393000846080937A0080917A00826080937A001C
:1039400080917A00816080937A0080917A0080680B
:1039500080937A001092C100E0911903F0911A034C
:1039600012E01083E0911503F09116031082E091AC
:103970001703F091180380E1808310922103E091F6
:103980001D03F0911E0386E08083E0911B03F091FC
:103990001C03808180618083E0911B03F0911C03F4
:1039A000808188608083E0911B03F0911C038081FB
:1039B00080688083E0911B03F0911C0380818F7DE0
:1039C000808385E090E0A0E0B0E080930D039093C9
:1039D0000E03A0930F03B09310031092A102109254
:1039E000A0021092BA021092B9020E94470484E920
:1039F00091E0909361028093600285E991E0909359
:103A00005F0280935E0288E08093B8008BE60E949C
:103A1000350AF8941092800089E08093810080E25A
:103A200093E0909389008093880010928500109213
:103A3000840010936F0078941092B2031092B70331
:103A40001092B6038091B30360E00E94470364E0E4
:103A500070E082EA94E00E942A1161E083E00E9413
:103A600047038FE391E00E948902A8E8EA2EA2E0D2
:103A7000FA2E00E110E0C8010E94200BD7018D93BF
:103A80007D010F5F1F4F00321105A9F71092A102AF
:103A90001092A0021092BA021092B9020E9447043A
:103AA00084E991E0909361028093600285E991E05E
:103AB00090935F0280935E0240E860E085E894E0C6
:103AC0000E9445076AE070E080E090E00E94AF034A
:103AD00040E050E06AE774E485E894E00E947509EC
:103AE00080E498E7ADE7B1E080938804909389047F
:103AF000A0938A04B0938B0483E191E00E94B30BFE
:103B0000092E000CAA0BBB0B8093620290936302F8
:103B1000A0936402B0936502885D9945A109B1093B
:103B200085399141A105B10560F088EA91E6A0E0F0
:103B3000B0E08093620290936302A0936402B0931A
:103B400065026091620270916302809164029091BB
:103B500065020E94FD2C20E030E04AE754E40E9418
:103B60003C2F6B017C014B015C01AC019B010E946D
:103B70008030882309F44AC085E991E00E94180A40
:103B80008BE391E00E94290A209162023091630246
:103B90004091640250916502A8EEB3E00E944F2E5E
:103BA0006B017C0140E050E060E773E485E894E05D
:103BB0000E947509C0928E04D0928F04E092900406
:103BC000F0929104C0928804D0928904E0928A0411
:103BD000F0928B040E94D2078DE491E00E94290AA2
:103BE00090E080E08C010F5F1F4F805C9E4F0E9431
:103BF000200B080F111DC801805C9E4F0E94200BF6
:103C00008E3409F493C0C8010496ECCF2601370125
:103C1000E89477F82FEF3FEF4FE75FE7C301B2017A
:103C20000E94803081110DC02FEF3FEF4FE75FE71B
:103C3000C301B2010E94F62C18161CF489E991E028
:103C40009DCF2FEF3FEF4FE75FE4C701B6010E9422
:103C5000233018161CF48DE991E090CF2FEF3FEF41
:103C60004FE75FECC701B6010E94F62C87FDF3CF4A
:103C700020E030E0A901C701B6010E94F62C87FFC1
:103C800009C08DE20E94840246015701B7FAB09440
:103C9000B7F8B0942AE037ED43EA5BE3C501B4011D
:103CA0000E94CB2E4B015C010E94B52F6B017C0161
:103CB0000E94FB2C9B01AC01C501B4010E94CA2EDD
:103CC0004B015C014AE0C701B6010E94540A8EE232
:103CD0000E94840220E030E040E251E4C501B401DA
:103CE0000E945C2D4B015C010E94B52F6B01F12CF1
:103CF000E12C4AE0C701B6010E94540AC701B6018F
:103D00000E94FB2C9B01AC01C501B4010E94CA2E8C
:103D100020E030E040E251E40E945C2D0E94B52F8B
:103D200090E080E04AE00E94540A2ACF68E071E007
:103D3000C8018E5B9E4F0E94081180E10E947803AB
:103D4000BC01990F880B990B6115710581059105CF
:103D500011F00E94562C8FEF93E00E94C51760ED82
:103D600077E080E090E00E94AF0387E691E00E9458
:103D7000290A80E691E00E94290A89E591E00E94E3
:103D8000290A0E94E20320E137E240E050E00E946D
:103D9000992E8091010190910201092E000CAA0B2D
:103DA000BB0B82179307A407B5070CF045C0790138
:103DB000309302012093010185E10E9478038C0178
:103DC0008A389240ACF5809166029091670208179C
:103DD000190721F022E0E216F10454F582E791E0A0
:103DE0000E948902C80163E670E00E94CE316B0137
:103DF000072E000CEE08FF0877FF94C08DE20E94AA
:103E0000840266277727CB016C197D098E099F09EB
:103E10004AE00E94540A86E50E94350A81ED93E04B
:103E20000E94C51760ED77E080E090E00E94AF034C
:103E30001093670200936602809185028111ADC0E4
:103E40008AEB93E090937602809375028091B6039B
:103E50009091B703909378028093770280918404C5
:103E600090E090937A02809379028091B20383303C
:103E700009F093C08091BC039091BD0387589109CC
:103E80008E35910508F083C08091B6039091B703F9
:103E9000049709F04BC08091BE039091BF038097B7
:103EA000479708F043C08091C0039091C1030997E0
:103EB0000997E0F510927402109273028FEF9FEF52
:103EC000DC0180936D0290936E02A0936F02B09319
:103ED000700283E090E090936A028093690280917F
:103EE0006D0290916E02A0916F02B0917002892FC5
:103EF0009A2FAB2FBB278A3509F4FFC108F0B6C152
:103F0000823209F4E2C108F09BC1803109F4F2C1A8
:103F100008F044C165EB71E0823009F447C166EDF9
:103F200071E0F6C14AE0C701B60173CF8091B603D4
:103F30009091B7038434910550F18091BE03909124
:103F4000BF03815491098F9710F590E080E040E025
:103F500050E0BA01FC01E054FC4F2081318129502E
:103F600031092930310598F4FC01EE53FC4F2081D2
:103F70003181275131092231310508F4F1C0208106
:103F80003181265031092730310508F402C11092E1
:103F9000B2031092B7031092B60389E093E00E9437
:103FA000F50118161906A4F581E08093850282E0D8
:103FB00080939A0289E093E00E94D301182F8093A6
:103FC0009B0261E070E080E090E00E94AF031B3450
:103FD00009F049C2E090A804F090A90410E000E0C4
:103FE00089E093E00E94F501892B51F089E093E08C
:103FF0000E94D301F701E00FF11F80830F5F1F4F75
:10400000F8013197EE0DFF1D80818E3749F7108240
:104010000E94E203F0909A02FF2009F475C20E9408
:10402000E20368577C4E8F4F9F4F609381027093DD
:104030008202809383029093840260919A026623A5
:1040400009F411C5F0909B02653018F5E2E6FE1602
:1040500001F18CE88F0D8230E0F0FCE4FF16C9F02E
:1040600029E4F216B1F043E4F41699F070E0615FD0
:104070007F4F072E000C880B990B0E94FD2CEE241D
:10408000E39410E000E020E030E040EA50E40E94D9
:104090004F15809199028356823050F483E6F816CA
:1040A00039F088ED9BE00E94600987E40E94350AA0
:1040B00080919B02803751F080919802811106C057
:1040C00081E08093980280E70E94350AF0909B027D
:1040D000E6ECEF0DEC3308F084C40E2E000CFF0B61
:1040E000EC58FF4D0C94E2315D295829F124F1245C
:1040F000F124F124F124F1246228F025F124F124A3
:10410000F124F124F1240F28F124AE2852280F289D
:10411000F124F124F124F124F12491269E28F124A4
:10412000F124F124F124F124F124F124F124F124E7
:10413000F124F124F1247B26912691266029F12493
:10414000F124F124F1249126B5254229F124912668
:10415000F124EB25A225F124E6242226912691269E
:10416000440F551F661F771F4160049680389105E4
:1041700009F0F0CE80E290E0909374028093730295
:1041800040936D0250936E0260936F0270937002C1
:10419000A0CE440F551F661F771FE7CF823109F469
:1041A000B5C06DE971E0883109F0B9CECE018196D4
:1041B0000E94321264EA71E0CE0181960E94B80A30
:1041C000882309F4AAC066EA71E082EA94E00E94BA
:1041D000BB1162EA74E0CE0187960E949F11CE0166
:1041E00081960E94DF0A66ED71E0CE0187960E94FB
:1041F000B80A81111AC00091AC041091AD046FA1EE
:1042000078A5C8010E94E032D8010D900020E9F79E
:10421000CD0102978017910709F023C1F801808131
:1042200080939B0281E080939A021092B2031092D5
:10423000B7031092B603CE0187960E94DF0AADCE77
:10424000823409F45DC048F4803309F44DC063E959
:1042500071E0883309F4AACF62CE8A3409F453C0DE
:104260006DE771E0823509F4A1CF59CE823A39F178
:1042700098F48A37E1F140F4823621F16AEA71E07C
:10428000883609F493CF4BCE803959F167EA71E053
:10429000883909F48BCF43CE823CD1F040F4883A80
:1042A000E9F064EA71E0803B09F480CF38CE803ECB
:1042B00091F06FEB71E0823E09F478CF30CE63EC81
:1042C00071E074CF61EC71E071CF6DEB71E06ECF96
:1042D00063EB71E06BCF61EB71E068CF6FEA71E087
:1042E00065CF6DEA71E062CF61EA71E05FCF69E9A5
:1042F00071E05CCF66E971E059CF6FE871E056CFAD
:1043000069E871E053CF62E871E050CF61EA71E093
:10431000CE0181960E94F1114DCF69EA71E0CE0184
:1043200081960E94B80A811111C06BEA71E0CE013A
:1043300081960E94B80A811109C06DEA71E0CE0130
:1043400081960E94B80A882309F442C08DA19EA1DB
:10435000892B21F0E9A1FAA1309721F4109268028B
:10436000E8E6F2E0108110930301163471F466EA76
:1043700071E082EA94E00E94B80A882331F066E78F
:1043800071E082EA94E00E94BB1162EA74E0CE011F
:1043900001960E949F111FA318A641E050E0BE01A4
:1043A000695D7F4FCE0101960E945211811104C0B8
:1043B000CE0101960E94CD0ABE016F5F7F4FCE01F4
:1043C00087960E949F11CE0101960E94DF0A07CFB7
:1043D0006FEA71E0CE0181960E94B80A81112EC069
:1043E00062EB71E0CE0181960E94B80A811126C06D
:1043F00065EB71E0CE0181960E94B80A81111EC062
:1044000066E771E0CE0181960E94B80A811116C05C
:1044100068EB71E0CE0181960E94B80A81110EC04E
:1044200018A61FA21AA619A61CA61BA6BE016F5D80
:104430007F4FCE0187960E94E70AD1CE69A17AA16B
:104440006115710549F04DA15EA182EA94E00E94D8
:104450007E111091030199CF82EA94E00E94CD0A67
:10446000F8CF8BE6DDCE89E093E00E94F5011816C7
:1044700019060CF0CDCD66ED71E0CE0181960E945B
:10448000F111193449F084EB810F823028F08EEB62
:10449000810F6AE0823008F46EE7CE0101960E9437
:1044A0000212BE016F5F7F4FCE0181960E94E70A24
:1044B000CE0101960E94DF0A2DA13EA13093870212
:1044C000209386021B3631F08091A8049091A904B4
:1044D000143721F48091AC049091AD0449A15AA104
:1044E000DC01FA01BF01641B750B621773071CF432
:1044F00061916D93F7CF820F931FDC011C92CE0167
:1045000081960E94DF0A84CD20919B02233609F414
:10451000AAC20091810210918202209183023091FF
:104520008402601B710B820B930B1616170618067C
:1045300019060CF098C2109285020E94E2030091C5
:104540007D0210917E0220917F0230918002AB01AA
:10455000BC01401B510B620B730B809104019091C5
:104560000501092E000CAA0BBB0B84179507A607A3
:10457000B70708F078C20E94E20360937D0270934F
:104580007E0280937F029093800210920501109228
:10459000040161E080919C040E94470360E08091E7
:1045A0009C040E94ED0283E090E00197F1F761E046
:1045B00080919C040E94ED028BE490E00197F1F75A
:1045C00060E080919C040E94ED0260E080919C0478
:1045D0000E94470380919C0490E0FC01E95DFD4F3F
:1045E0006491FC01ED5EFD4FE491F0E0EE0FFF1FE2
:1045F000EB53FE4F8591949100E412E42FE030E0FC
:10460000462F0E942A1B611571058105910529F02D
:104610006F5F7F4F8F4F9F4F9F708B019C010250A8
:104620001109210931090E351A4E2105310508F508
:104630000E94FB2C20E030E048E652E40E943C2F30
:104640000E94B52F7093A1046093A0048BEB91E0BE
:104650000E94180A6091A0047091A10490E080E08B
:104660004AE00E94540A89EC91E00E94180A0E94D4
:10467000250A0091A0041091A10410937C020093DC
:104680007B020038E2E01E0709F4D7CC0D33110598
:1046900084F020E04FEF5FEF6FEF70E090E080E09C
:1046A0000E94351388EE93E09093050180930401F6
:1046B000C4CC0932110554F021E040E05FEF6FEF08
:1046C00070E090E080E00E943513B7CC0230110515
:1046D0008CF48BE680939B0266EA71E08091AC04D7
:1046E0009091AD040E94E03286E080939A0280EDC2
:1046F00097E0DACF043011050CF08BC022E040E0E7
:1047000050E06FEF70E090E080E00E9435130E946F
:10471000072C2B013C010E94072C4B015C011091DE
:104720007B02110F0E94072C6B017C01C301B201B7
:104730002AE030E040E050E00E94302E0CED060F01
:10474000C501B4012AE030E040E050E00E94302E84
:1047500082EDB82EB60EC701B60123E030E040E08E
:1047600050E00E94302E862F202F4B2D612F8F5F1F
:104770000E94E00789E480939B021A82198281E0FB
:104780008B8382E08D83109107010E94072C1A50C1
:1047900024E1C22ED12CE12CF12CA70196010E941C
:1047A000302E160F1A83109109010E94072CA701C1
:1047B00096010E94302E1A50610F6C8310910B01EC
:1047C0000E94072C20E530E040E050E00E94302EAF
:1047D0001852610F6E8386E090E090938702809379
:1047E00086026091A8047091A904CE010196DB01B4
:1047F0009B012A5F3F4FFC014191CF014D93A217CE
:10480000B307C9F7DB0116961C9286E080939A02E3
:1048100014CC06301105A4F440E050E06FEF70E0D6
:1048200090E080E00E94EA128BE680939B026CECA1
:1048300071E08091AC049091AD040E94E032E5CF2C
:104840000650110910937C0200937B0270E060E037
:10485000073011052CF0C80167E070E00E94CE31EE
:10486000660F771F660F771FFB01EF5CFE4F4081DD
:1048700051816281738190E080E00E94EA128CE4B1
:1048800080939B02FE0135968CE1DF011D928A9593
:10489000E9F78091070190910801880F991F63E063
:1048A00070E00E94CE31C80117FD0196959587955D
:1048B000681B790B7A8369838091090190910A01C1
:1048C000880F991F63E070E00E94CE316A50710931
:1048D000C80195958795680F791F7C836B83C80104
:1048E000880F991F080F191F025311090E94072CE6
:1048F00022E330E040E050E00E94302E161617060A
:10490000180619060CF45DC00E94072C22E030E066
:1049100040E050E00E94302E6150710981099109F8
:10492000069FC001079F900D169F900D11249E8336
:104930008D8320917B0230917C02C90137FD019665
:10494000959587950F969A8B898B9C8B8B8BC9013C
:10495000CC979E8B8D8B988F8F8B81E490E0821B00
:10496000930B9A8F898F9C8F8B8F8AE090E0821BAC
:10497000930B9E8F8D8F98A38F8F80E190E0909303
:10498000870280938602E091A804F091A904BF01F8
:104990009E012F5F3F4FD9018D919D919D018F37D2
:1049A000910594F48038BFEF9B0714F480E89FEFE3
:1049B000DB018D93BD01F394B0E1FB12ECCF108AC3
:1049C00024CF61E070E0ACCF8FE7F2CF8091060199
:1049D000819580930601181614F422E5F22EF092C8
:1049E0009B0280919B028B3609F07CC49091A802B7
:1049F00019160CF47BC40091AC041091AD046CED5D
:104A000071E0C8010E94D732F0909B02892B09F116
:104A1000F9E4FF16F1F085EB8F0D8330D0F0809133
:104A2000AA049091AB04009711F00E94322B81E010
:104A300090E00E94962AF80101900020E9F7E01B1F
:104A4000DC01EC939093AB048093AA04B8010E941C
:104A5000E03210929A02F09299028F2D877F83366E
:104A600011F010929B0280919B028B3609F0DBC4FF
:104A70001091A80217FF5CC48091B502DD24DA947E
:104A8000D80E823008F4D12C10E08EECC82E92E3C0
:104A9000B92E212F30E08091A802082E000C990B2E
:104AA00097FF03C0919581959109281739070CF05C
:104AB000B6C4E090B702F090B8028091AD02189FA2
:104AC000E00CF11C1124F7016089062E000C770B15
:104AD000880B990B0E94FD2C20E030E040E85EE35B
:104AE0000E945C2D9B01AC0100E06091B202C70105
:104AF0000E94270E8091AD02E091B702F091B802BA
:104B0000189FE00DF11D1124618916160CF00BC4DD
:104B1000FB2D6F02B0011124072E000C880B990B9E
:104B20000E94AF03DD2061F0112351F08091B402A7
:104B3000181306C01091B30211501D140CF4DA942E
:104B40001F5FA7CF8091980291E0811190E0909330
:104B50009802882311F090E5F92EF0929B028823A9
:104B600009F43FCF0E94D2073CCF0E94980A66ED1D
:104B700071E0CE0181960E94F11107E011E087E219
:104B8000E82E81E0F82ED8016D917D918D01CE0146
:104B900001960E94C5114D815E8169817A81CE01A5
:104BA00081960E945211CE0101960E94DF0A42E0D6
:104BB00050E064ED71E0CE0181960E945211E01642
:104BC000F10609F7CE0181960E94410ACE01819635
:104BD0000E94DF0A06CF86EC93E00E94C51701CF42
:104BE000E091A804F091A9044081042E000C550B1B
:104BF000660B770BBA01552744278181082E000CDC
:104C0000990BAA0BBB0BBA2FA92F982F8827480FF7
:104C1000591F6A1F7B1F8281082E000C990BAA0B5B
:104C2000BB0B480F591F6A1F7B1F24818381082EED
:104C3000000C990B2F3F19F40E94EA12D2CE0E9469
:104C40003513CFCE81E092E00E94290AA8E88A2E8F
:104C5000A2E09A2EB0E4EB2EF12C00E110E0F4017A
:104C6000D1904F01C8010E941A2ED81621F06D2D47
:104C7000C8010E94222EC7010E94B30B6C01C8011B
:104C800080960E94200BB82EF40131976081062E89
:104C9000000C770B880B990B0E94FD2C2B013C011B
:104CA0006B2DBB0C770B880B990B0E94FD2C9B0185
:104CB000AC01C301B2010E945C2D2B013C01B60185
:104CC000DD0C880B990B0E94FD2C9B01AC01C301EC
:104CD000B2010E94CB2E0E94AE2FC70180960E9487
:104CE00008110F5F1F4FF2E0EF0EF11C00321105AB
:104CF00009F0B5CF76CE89EF91E00E94290AF8E855
:104D0000EF2EF2E0FF2E00E110E0C8010E94200B20
:104D1000D7018D937D010F5F1F4F00321105A9F759
:104D200060CEE7E0F1E0DE01119687E291E02191AB
:104D300031912D933D938E179F07C9F7B4E780916A
:104D4000AC049091AD04FB1621F08091A8049091E1
:104D5000A90460ED71E00E948D2C1C012114310426
:104D600009F4D1C0C1010E945F2C8C0163ED71E098
:104D700090E080E00E948D2C1C01F12CE12CBB24E2
:104D8000B394009761F00E945F2C7C0163ED71E0A9
:104D900090E080E00E948D2C1C01E2E0BE2EF80124
:104DA000EE0FFF1F81E090E08C0F9D1FE80FF91FB1
:104DB000F182E08280919B02833609F0AAC0809143
:104DC0009902833681F088E39CE00E946009C090DC
:104DD000AC04D090AD0460E771E0C6010E94E032FF
:104DE000C6010E94A90FD801A857BD4F6D01B2E0BE
:104DF000BB1202C0F601E082C8018096880F991F9D
:104E00000E94B30B7C01C8019927C0960E94200B19
:104E1000182FD6016C91062E000C770B880B990B7E
:104E20000E94FD2C4B015C01612F110F770B880B49
:104E3000990B0E94FD2C9B01AC01C501B4010E949D
:104E40005C2D4B015C01B701FF0C880B990B0E9494
:104E5000FD2C9B01AC01C501B4010E94CB2E0E9428
:104E6000AE2F072E000C880B990B0E94FD2CAB0176
:104E7000BC01802F0E94C70B0E94980A66ED71E06A
:104E8000CE0187960E94F11108E812E0F8016191C5
:104E90008F01062E000C770BCE0181960E94C51162
:104EA0004DA15EA169A17AA1CE0187960E945211FF
:104EB000CE0181960E94DF0A42E050E064ED71E08D
:104EC000CE0187960E94521188E992E080179107DF
:104ED000E9F6CE0187960E94410ACE0187960E948C
:104EE000DF0A2114310409F039CF80919B02893601
:104EF00009F077CD40E050E060E070E4CE0101962B
:104F00000E94DC0C6ECDF12CE12C10E000E0B12C05
:104F100046CF8D3649F440E050E060E070E4CE01C9
:104F200001960E94DC0CDDCF833541F4C80199273E
:104F30000E94200BB7010E941409D3CF843789F255
:104F4000853709F049C00E94072C2B013C010E94C3
:104F5000072C4B015C010E94072C6B017C010E9415
:104F6000072C6DA77EA78FA798ABC301B2012AE0DB
:104F700030E040E050E00E94302E1CED160FC501DD
:104F8000B4012AE030E040E050E00E94302E02ED13
:104F9000060FC701B60124E030E040E050E00E9477
:104FA000302EDC01CB010296A11DB11DF82EFF0CA5
:104FB000FF0CF80E6DA57EA58FA598A923E030E023
:104FC00040E050E00E94302E862F212F402F6F2D81
:104FD0008F5F0E94E00785CF823609F082CFE1140F
:104FE000F10409F47ECF88EE93E0B7010E94CE3140
:104FF000072E000C880B990B0E94FD2C4B015C01C5
:10500000B801110F880B990B0E94FD2CEE24E3943C
:1050100002E310E0A50194010E944F1562CFE7E082
:10502000F1E0DE01119687E291E07D01219131915D
:105030002D933D938E179F07C9F710E000E0209154
:105040009B02809186029091870208171907F4F459
:10505000A091A804B091A904A00FB11FEC91EE0F8C
:10506000FF0BEE0DFF1D11968C91082E000C990B75
:10507000918380832D3439F440E050E060E070E4A7
:10508000C7010E94DC0C0E5F1F4FD9CF293409F0F5
:10509000A8CC89E40E94350A40E050E060E870E462
:1050A000C7012ECF8CE40E94350A00E020E030E0FA
:1050B00040E050E461E08091A8049091A9040E942E
:1050C000270E8FCCF12C2F2D30E08091860290910D
:1050D000870297FD019695958795281739070CF05B
:1050E0001EC20091A8041091A904220F331F020FC1
:1050F000131FD80111966C91062E000C770B88EEC9
:1051000093E00E94CE31072E000C880B990B0E9471
:10511000FD2C4B015C01F8016081062E000C770B21
:10512000880B990B0E94FD2CEE24E39410E000E024
:10513000A50194010E944F15F394C5CF88E191E039
:105140000E94B30B0E946C080E94940F80919B02F6
:105150000E94350A8BE680939B0243CC86E191E066
:105160000E94B30B8C010E94072C6B017C0186E12D
:1051700091E00E94B30B092E000CAA0BBB0B2CE094
:105180003EE140E050E0281B390B4A0B5B0BC701A6
:10519000B6010E94302E7801E60EF71EB70188E1B5
:1051A00091E00E9408114090A8045090A904D201F7
:1051B0006C916093A8028DEA92E00E9475070196B7
:1051C0006C01B12CA12C11E004E51C141D049CF50C
:1051D0001093BC020093BB021092BA021092B90263
:1051E0006F2D70E086EA93E00E949207B70177275F
:1051F00086EA93E00E94920742018A0C9B1C3701C9
:10520000B0E16B0E711CE114E0E2FE06B9F40E94FD
:10521000250A8FEC91E00E94290A22E0E22E02E3A7
:1052200010E020E030E048EC52E460E070E080E222
:1052300091E40E944F150E94940F8CCFFFEFAF1A9C
:10524000BF0AD4016D914D0186EA93E00E94A50545
:10525000BFEFEB1AFB0AE1E0CE1AD10841F0C7011B
:105260008F719927892B19F06E147F0461F686EAF5
:1052700093E00E94D4056AE070E080E090E00E9434
:10528000AF03A3CF0091AC041091AD04B80180919D
:10529000AA049091AB040E94D732892B29F4809103
:1052A000A80282300CF039C1C8010E94A90F99CB25
:1052B00088ED9BE00E94600994CB88E39CE0FACFE4
:1052C0000091AC041091AD0467ED71E0C8010E943B
:1052D000E032C8010E94A90F0E94D20787E60E940F
:1052E000350A7FCB893421F08C3411F00E94350AC5
:1052F00010919B02812F012E000C990B0E94B93254
:10530000909199029B3609F076CB873641F01A3698
:1053100031F01B7F103719F0863709F06CCB8BE624
:1053200080939B0268CB2C2D6202B0011124F4CB38
:105330008091A402803108F4C8C02091A20230916B
:10534000A3021092A40280919802820F932F911DC4
:10535000212F012E000C330B821793070CF0B1C0E4
:105360009093A3028093A2020091A4022091B6021E
:10537000C090A202D090A302E02EF12C021708F0F8
:10538000ADC012300CF4AAC0812C912C5401013014
:1053900059F06091A702062E000C770B880B990B31
:1053A0000E94FD2C4B015C0142E0E40EF11CEC9CE0
:1053B000B001ED9C700DFC9C700D1124072E000CAB
:1053C000880B990B0E94FD2C2BED3FE049E450E443
:1053D0000E945C2D6B017C01612F110F770B880BF4
:1053E000990B0E94FD2C9B01AC01C701B6010E94E4
:1053F0003C2F0E94783020E030E040E251E40E94EF
:105400005C2DA50194010E94CB2EAB01BC01802F25
:105410000E94360C8091A4028F5F8093A40283E4E3
:105420009DE00197F1F78091A80287FF3AC00091B3
:10543000AC041091AD0466ED71E0C8010E94E03249
:10544000E091B702F091B8028091A802082E000CFA
:10545000990B97FF03C09195819591090197209130
:10546000AD02289FD001299FB00D1124AE0FBF1FA0
:10547000CF0140962D9121938E179F07D9F781E098
:105480008093A8021092A3021092A202F8018081D8
:10549000882319F0C8010E94A90F80919B020E94E5
:1054A000350A80E090E0892B11F40C94C11E0E9413
:1054B0000102882311F40C94C11E0E9400000C9478
:1054C000C11E1092A3021092A2028091A402843005
:1054D00009F04ACF88E08093A40246CF3091AD0214
:1054E0003C9DC0013D9D900D1124E80EF91EE21A6D
:1054F000F1088091B7029091B802E80EF91E609110
:10550000B202D7012C912603B0011124072E000C02
:10551000880B990B0E94FD2C78CF8F2D67CA809144
:105520009B02E4CE82EA94E00C94DF0A0F931F936F
:10553000CF93DF938230910510F482E090E0E09108
:10554000B204F091B30430E020E0B0E0A0E0309786
:1055500099F42115310509F44AC0281B390B243070
:105560003105D8F58A819B816115710589F1FB01AF
:1055700093838283FE0111C0408151810281138196
:1055800048175907E0F04817590799F4109761F048
:1055900012960C93129713961C933296CF01DF91BB
:1055A000CF911F910F9108950093B2041093B3040B
:1055B000F4CF2115310551F04217530738F0A901F6
:1055C000DB019A01BD01DF01F801C1CFEF01F9CF85
:1055D0009093B3048093B204CDCFFE01E20FF31F8A
:1055E000819391932250310939832883D7CF209119
:1055F000B0043091B104232B41F420912901309162
:105600002A013093B1042093B004209127013091F6
:1056100028012115310541F42DB73EB740912B01EA
:1056200050912C01241B350BE091B004F091B10492
:10563000E217F307A0F42E1B3F0B2817390778F069
:10564000AC014E5F5F4F2417350748F04E0F5F1FC8
:105650005093B1044093B004819391939FCFF0E0B5
:10566000E0E09CCFCF93DF930097E9F0FC01329705
:1056700013821282A091B204B091B304ED0130E024
:1056800020E01097A1F420813181820F931F209197
:10569000B0043091B1042817390709F061C0F093C4
:1056A000B104E093B004DF91CF910895EA01CE17E1
:1056B000DF07E8F54A815B819E0141155105B1F78D
:1056C000E901FB83EA8349915991C40FD51FEC1777
:1056D000FD0761F4808191810296840F951FE90195
:1056E00099838883828193819B838A83F0E0E0E0C1
:1056F00012968D919C9113970097B9F52D913C913D
:105700001197CD010296820F931F2091B004309122
:10571000B1042817390739F6309751F51092B304C0
:105720001092B204B093B104A093B004BCCFD38361
:10573000C28340815181840F951FC817D90761F436
:105740004E5F5F4F88819981480F591F5183408375
:105750008A819B81938382832115310509F0B0CF23
:10576000F093B304E093B2049ECFFD01DC01C0CFFF
:1057700013821282D7CF8F929F92AF92BF92CF9215
:10578000DF92EF92FF92CF93DF93EC0168817981F2
:105790008A819B81611571058105910521F464E27F
:1057A00079ED8BE597E02DE133EF41E050E00E9489
:1057B000302E49015A019B01AC01A7EAB1E40E94D5
:1057C0004F2E6B017C01ACEEB4EFA50194010E9459
:1057D0005D2EC60ED71EE81EF91EF7FE06C081E03C
:1057E000C81AD108E10880E8F80AC882D982EA829A
:1057F000FB82C701B6019F77DF91CF91FF90EF90B9
:10580000DF90CF90BF90AF909F908F9008958F9230
:105810009F92AF92BF92CF92DF92EF92FF926091F0
:105820002D0170912E0180912F0190913001611511
:1058300071058105910521F464E279ED8BE597E02E
:105840002DE133EF41E050E00E94302E49015A0132
:105850009B01AC01A7EAB1E40E944F2E6B017C01D1
:10586000ACEEB4EFA50194010E945D2EC60ED71ECA
:10587000E81EF91EF7FE06C081E0C81AD108E1084B
:1058800080E8F80AC0922D01D0922E01E0922F01FB
:10589000F0923001C701B6019F77FF90EF90DF9043
:1058A000CF90BF90AF909F908F90089560932D01FF
:1058B00070932E0180932F01909330010895FC0185
:1058C00088279927E89421912032E9F3293010F0B4
:1058D0002E30C8F32B3241F02D3239F4689404C0D5
:1058E0000E94C42C820F911D219120532A30C0F3B5
:1058F0001EF4909581959F4F0895FB01DC01059062
:105900000D920020E1F70895FC0105900020E9F7D1
:10591000809590958E0F9F1F08954EEA54E00E9447
:10592000922C0895FA01A191B081009719F4109773
:10593000E1F0CD01DC01CD010D90002011F4C0019A
:1059400013C0FB012191222319F02015D9F7F3CFC1
:10595000FB012191201519F41E92119606C02223F5
:10596000C1F70D900020A1F7D001FA01A193B083F7
:105970000895BB274A3031F4992322F4BDE2909573
:1059800081959F4F0C94CD2C7AE0979F902D879F07
:10599000802D910D11240895BB27FB015527AA27BF
:1059A000880F991FAA1FA41710F0A41B83955051AC
:1059B000B9F7A05DAA3308F0A95DA193009779F724
:1059C000B111B1931192CB010C94E62CDC01FC01D6
:1059D000672F71917723E1F7329704C07C916D9323
:1059E00070836291AE17BF07C8F308950E94382DE7
:1059F00008F481E00895E89409C097FB3EF490957F
:105A00008095709561957F4F8F4F9F4F9923A9F097
:105A1000F92F96E9BB279395F69587957795679526
:105A2000B795F111F8CFFAF4BB0F11F460FF1BC06A
:105A30006F5F7F4F8F4F9F4F16C0882311F096E9FD
:105A400011C0772321F09EE8872F762F05C06623AB
:105A500071F096E8862F70E060E02AF09A95660F64
:105A6000771F881FDAF7880F9695879597F908951D
:105A7000990F0008550FAA0BE0E8FEEF161617065F
:105A8000E807F907C0F012161306E407F50798F0C7
:105A9000621B730B840B950B39F40A2661F0232BE0
:105AA000242B252B21F408950A2609F4A140A6955C
:105AB0008FEF811D811D08950E946F2D0C94E02DA4
:105AC0000E94D22D38F00E94D92D20F0952311F09C
:105AD0000C94C92D0C94CF2D11240C94142E0E94DB
