:100000000C941C010C9444010C9444010C94440184
:100010000C9444010C9444010C9444010C94EE178C
:100020000C9444010C9444010C9444010C940B1A5C
:100030000C9444010C9444010C9444010C9444012C
:100040000C94A2180C9444010C9470180C944A1847
:100050000C9444010C9444010C9444010C9444010C
:100060000C94EC180C94440105A84CCDB2D44EB9B4
:100070003836A9020C50B9918688083CA6AAAA2A4B
:10008000BE000000803F07634236B79BD8A71A39ED
:10009000685618AEBAAB558C1D3CB7CC5763BD6DD6
:1000A000EDFD753EF6177231BF000000803F08007D
:1000B0000000BE922449123EABAAAA2ABECDCCCCE7
:1000C0004C3E00000080BEABAAAAAA3E0000000081
:1000D000BF000000803F0000000000084178D3BB53
:1000E0004387D1133D190E3CC3BD4282AD2B3E6800
:1000F000EC8276BED98FE1A93E4C80EFFFBE01C4F1
:10010000FF7F3F0000000000010000010000000030
:1001100000000000000000000000000000000000DF
:10012000230026002900000000080002010000034F
:10013000040700000000000000000200000000258D
:100140000028002B0000000000240027002A0004E3
:10015000040404040404040202020202020303036E
:100160000303030102040810204080010204081068
:10017000200102040810204D487A00496E6974205D
:10018000736572766F733A20004C6F616420736BF5
:10019000696C6C7300526561647921004269747402
:1001A0006C65000A2A205374617274202A004C6F17
:1001B0007720706F7765723A007A65726F006A799E
:1001C00000636B007065650070750068690073748A
:1001D000720073697400747200776B00637200764A
:1001E0007400630042007000520062616C616E63D3
:1001F00065004C00670046006400493243204545D5
:1002000050524F4D206F766572666C6F7721204497
:10021000656C65746520736F6D6520736B696C6CBC
:1002200073210A0061626F727465640073617665A0
:1002300064003F00F81A3A2B11241FBECFEFD8E01C
:10024000DEBFCDBF11E0A0E0B1E0E4E6F7E602C01A
:1002500005900D92AE3DB107D9F724E0AEEDB1E0C7
:1002600001C01D92A43FB207E1F711E0CBE1D1E05C
:1002700004C02197FE010E949A32CA31D107C9F702
:100280000E949B1B0C94A5330C94000080E090E02E
:10029000A0E0B0E48093B1029093B202A093B302C5
:1002A000B093B402E091E804F091E9048181082E52
:1002B000000C990B9093B7028093B6028281082EAE
:1002C000000C990B9093B9028093B80283818093BC
:1002D000BA028091B00287FF0CC084818093BB0278
:1002E00085818093BC0286818093BD0287E090E087
:1002F00005C0813061F05CF084E098E09093BE022C
:10030000E80FF11DF093C002E093BF02089584E06E
:10031000EECF8091A8029091A902891B990B0895B4
:10032000089508950895AF92BF92CF92DF92EF9211
:10033000FF920F931F93CF93DF936C017B018B018F
:10034000040F151FEB015E01AE18BF08C017D107DF
:1003500059F06991D601ED91FC910190F081E02D69
:10036000C6010995892B79F7C501DF91CF911F91BE
:100370000F91FF90EF90DF90CF90BF90AF900895D6
:10038000FC01538D448D252F30E0842F90E0821B9B
:10039000930B541710F0CF96089501970895FC0120
:1003A000918D828D981761F0A28DAE0FBF2FB11D78
:1003B0005D968C91928D9F5F9F73928F90E00895D0
:1003C0008FEF9FEF0895FC01918D828D981731F08A
:1003D000828DE80FF11D858D90E008958FEF9FEFDE
:1003E0000895FC01918D228D892F90E0805C9F4FB4
:1003F000821B91098F739927089581E193E00E94F0
:10040000F10121E0892B09F420E0822F089580E09A
:1004100090E0892B29F00E94FD0181110C940000CD
:100420000895FC01A48DA80FB92FB11DA35ABF4F89
:100430002C91848D90E001968F739927848FA689E3
:10044000B7892C93A089B1898C91837080648C9337
:10045000938D848D981306C00288F389E02D8081E6
:100460008F7D80830895EF92FF920F931F93CF9318
:10047000DF93EC0181E0888F9B8D8C8D98131AC0DF
:10048000E889F989808185FF15C09FB7F894EE89C6
:10049000FF896083E889F989808183708064808323
:1004A0009FBF81E090E0DF91CF911F910F91FF906E
:1004B000EF900895F62E0B8D10E00F5F1F4F0F7316
:1004C0001127E02E8C8D8E110CC00FB607FCFACFD1
:1004D000E889F989808185FFF5CFCE010E9411025C
:1004E000F1CFEB8DEC0FFD2FF11DE35AFF4FF082A2
:1004F0009FB7F8940B8FEA89FB8980818062CFCF08
:10050000682F81E193E00C9433020F931F93CF93F4
:10051000DF938C01D0E0C0E0F801EC0FFD1F649187
:10052000662341F081E193E00E943302892B11F0B0
:100530002196F2CFCE01DF91CF911F910F910895B7
:10054000CF93DF93EC01888D8823B9F0AA89BB890A
:10055000E889F9898C9185FD03C0808186FD0DC0F5
:100560000FB607FCF7CF8C9185FFF2CF808185FF16
:10057000EDCFCE010E941102E9CFDF91CF91089516
:10058000833081F028F4813099F08230A9F0089509
:100590008730A9F08830C9F08430B1F480918000B0
:1005A0008F7D03C0809180008F77809380000895B5
:1005B00084B58F7784BD089584B58F7DFBCF8091FE
:1005C000B0008F778093B00008958091B0008F7D48
:1005D000F9CF1F93CF93DF93282F30E0F901EA5D25
:1005E000FE4F8491F901ED59FE4FD491F901E15B81
:1005F000FE4FC491CC23A9F0162F81110E94C00296
:10060000EC2FF0E0EE0FFF1FE55CFE4FA591B491DB
:100610008FB7F894EC91111108C0D095DE23DC93CC
:100620008FBFDF91CF911F910895DE2BF8CF90916E
:10063000000189130BC0EAE3F1E0E4919FEF90938E
:100640000001E13049F028F0E23061F060E00C9404
:10065000E90210926E00FACF90916F009D7F909307
:100660006F00F4CF909170009D7F9093700091E0A7
:100670009093B0009091B100987F94609093B100F6
:100680001092B300E3CF8E50806480937C00809101
:100690007A00806480937A0080917A0086FDFCCF96
:1006A000809178009091790008953FB7F8948091F7
:1006B000510290915202A0915302B091540226B57A
:1006C000A89B05C02F3F19F00196A11DB11D3FBF8A
:1006D000BA2FA92F982F8827BC01CD01620F711D59
:1006E000811D911D42E0660F771F881F991F4A9553
:1006F000D1F708958F929F92AF92BF92CF92DF92DF
:10070000EF92FF926B017C010E9455034B015C014B
:10071000C114D104E104F104B9F00E945503681931
:1007200079098A099B09683E73408105910580F328
:1007300021E0C21AD108E108F10888EE880E83E0B2
:10074000981EA11CB11CE4CFFF90EF90DF90CF90DA
:10075000BF90AF909F908F9008952FB7F8946091BD
:100760004D0270914E0280914F02909150022FBF26
:1007700008950F931F93CF93DF93EC010E94AD0375
:10078000688779878A879B87E881F9810284F38566
:10079000E02DCE01099597FF15C00E94AD03088595
:1007A00019852A853B85601B710B820B930B0C818D
:1007B0001D812E813F81601771078207930720F307
:1007C0008FEF9FEFDF91CF911F910F9108952091AF
:1007D0002902260F3327331F21323105ECF42091F3
:1007E0000B03FC0190E080E0243069F082E0089582
:1007F000A09129022191AC01475F5D4FA40FB52F55
:10080000B11D2C930196861798F380912902680FE9
:100810006093290280E0089581E0089510920B030F
:1008200081E08093EA021092E50261E082E10E9499
:10083000E90261E083E10E94E902E9EBF0E08081F6
:100840008E7F808380818D7F808388E48093B80051
:1008500085E48093BC000895CF93DF9391E090935B
:1008600008028823B9F0C091B800D091BA008091F5
:10087000BC008A7B8093BC0060E082E10E94E902B8
:1008800060E083E10E94E9020E940E04D093BA0066
:10089000C093B800DF91CF910895CF92DF92EF928D
:1008A000FF920F931F93CF93DF93D82FC62F613200
:1008B00008F098C00E9455036B017C0180910B03E6
:1008C00081116BC081E080930B038093EA029FEF5C
:1008D0009093E9021092E8029C0F9093E7028093B4
:1008E000E6028091E602DD0FD82BD093E6028091DC
:1008F000E502813009F078C01092E5020E945503AC
:100900006B017C018091E6028093BB0080910D0316
:1009100090910E03A0910F03B0911003892B8A2BA5
:100920008B2BA1F00E94550300910D0310910E0333
:1009300020910F03309110036C197D098E099F09D6
:10094000061717072807390708F448C08091BC002C
:1009500083FDD8CF85EC8093BC000E9455036B01CA
:100960007C0180910B03813009F440C08091E80242
:100970008C1710F4C091E802E5ECF2E0ABEEB2E0C7
:1009800080E08C1355C08C2FDF91CF911F910F9178
:10099000FF90EF90DF90CF90089580910D0390919C
:1009A0000E03A0910F03B0911003892B8A2B8B2B80
:1009B00009F484CF0E94550300910D0310910E039A
:1009C00020910F03309110036C197D098E099F0946
:1009D000061717072807390708F070CF80910C0316
:1009E0000E942C04C0E0CFCF85EEB5CF80910D03DF
:1009F00090910E03A0910F03B0911003892B8A2BC5
:100A00008B2B09F4AECF0E94550300910D0310917A
:100A10000E0320910F03309110036C197D098E098C
:100A20009F09061717072807390708F09ACFD6CF6E
:100A300091919D938F5FA5CF0895E091A902809138
:100A4000A802E81730F4F0E0E551FD4F808190E016
:100A500008958FEF9FEF08959091A9028091A802C9
:100A60002FEF3FEF981748F4E92FF0E0E551FD4FE5
:100A7000208130E09F5F9093A902C9010895CF9231
:100A8000DF92EF92FF920F931F93CF93DF937C013E
:100A9000CB018A012091C402222389F0EB016B0172
:100AA000C40ED51ECC15DD0569F06991D701ED9115
:100AB000FC910190F081E02DC7010995F3CF642FDF
:100AC0000E94E703C801DF91CF911F910F91FF9022
:100AD000EF90DF90CF900895CF93DF931F92CDB723
:100AE000DEB769832091C4022223F9F02091C1026C
:100AF000203258F021E030E0FC013383228390E083
:100B000080E00F90DF91CF9108958091C202E82F8D
:100B1000F0E0E851FE4F998190838F5F8093C2028D
:100B20008093C10281E090E0ECCF61E0CE010196BC
:100B30000E94E703F7CFCF92DF92EF92FF920F93DD
:100B40001F93CF93DF93D091C10281E0D13208F09F
:100B50009CC0C091C3020E9455036B017C0180912F
:100B60000B0381116CC082E080930B0381E08093C2
:100B7000EA028FEF8093E9021092E802D093E70235
:100B8000A8EEB1E0E5ECF2E080E0D8138DC0109261
:100B9000E6028091E602CC0FC82BC093E60280915A
:100BA000E502813009F084C01092E5020E945503ED
:100BB0006B017C018091E6028093BB0080910D0364
:100BC00090910E03A0910F03B0911003892B8A2BF3
:100BD0008B2BA1F00E94550300910D0310910E0381
:100BE00020910F03309110036C197D098E099F0924
:100BF000061717072807390708F442C08091BC0080
:100C000083FDD8CF85EC8093BC000E9455036B0117
:100C10007C0180910B03823009F44CC08091E90281
:100C20008F3F09F469C08091E902803209F466C0FF
:100C30008091E902803309F463C084E026C080918A
:100C40000D0390910E03A0910F03B0911003892B17
:100C50008A2B8B2B09F483CF0E94550300910D033F
:100C600010910E0320910F03309110036C197D0930
:100C70008E099F09061717072807390708F06FCF55
:100C800080910C030E942C0485E01092C202109205
:100C9000C1021092C402DF91CF911F910F91FF907A
:100CA000EF90DF90CF9008959D9191938F5F6DCFDE
:100CB00085EEA9CF80910D0390910E03A0910F03B3
:100CC000B0911003892B8A2B8B2B09F4A2CF0E94A1
:100CD000550300910D0310910E0320910F033091E5
:100CE00010036C197D098E099F090617170728073D
:100CF000390708F08ECFC4CF80E0C7CF82E0C5CFE0
:100D000083E0C3CF90E080E00895BF92CF92DF925E
:100D1000EF92FF920F931F93CF93DF93EC017B0130
:100D20008A0184E0B82E6E0186E0C80ED11CEE81E7
:100D3000FF810480F581E02DC601099581115BC01A
:100D40002D853E852115310509F451C0EB85FC85C3
:100D5000309751F0215031093E872D8722A533A5C8
:100D60003C872B871CAE1BAE9281913109F04DC0A0
:100D70009381D8019C93248130E0D7012D933C933B
:100D80009581911191E0D80111969C9395819923B9
:100D900091F190E065E02581921768F5492F50E0C8
:100DA000969FD0011124EF01CA0FDB1F2E817D0118
:100DB000E00EF11ED70112962C9312972F811396F5
:100DC0002C931397288514962C9379854F5F5F4F4A
:100DD000649F9001659F300D1124200F311FD901B0
:100DE0007C932A85D70116962C939F5FD4CFBA9413
:100DF000B1109DCF83E0DF91CF911F910F91FF90B4
:100E0000EF90DF90CF90BF90089580E1F4CF2F92C4
:100E10003F924F925F926F927F928F929F92AF928A
:100E2000BF92CF92DF92EF92FF920F931F93CF93D7
:100E3000DF93CDB7DEB7E3970FB6F894DEBF0FBEF2
:100E4000CDBF6C018B01DC0117968D919C910097B1
:100E500009F454C0F12CE12C039708F0D7C0F12C11
:100E6000E12CAA24A394B12C0115110509F4CEC0DC
:100E7000AE01455D5F4FBE016E5C7F4FD60115969A
:100E80008D919C910E9485068111C0C04AA95BA9E1
:100E9000CA0101979501082E02C0220F331F0A9440
:100EA000E2F7B80162237323672BF1F24115510574
:100EB000D9F249305105C4F6880F991FF601E80FA1
:100EC000F91FA185B285109779F28CA511968C93A4
:100ED00011978BA58C938CA5882341F085E0FE01AA
:100EE000BD96129601900D928A95E1F7C901809501
:100EF000909508231923E22AF32AB6CF4601F12C54
:100F0000E12CAA24A394B12C66246394712C1E01B5
:100F1000B5E02B0E311CF2E04F2E512CC50101978C
:100F2000F30102C0EE0FFF1F8A95E2F7CF01802385
:100F30009123892B09F45FC0D40119968D919C915E
:100F4000892B09F458C0F60185819681D101E6E22A
:100F50001D92EA95E9F75A824982F2E1FB83AC825D
:100F6000DC011696ED91FC910680F781E02DBE0123
:100F70006F5F7F4F06960995AE01455D5F4FBE01DD
:100F80006E5C7F4FF601858196810E9485068111F6
:100F90003DC02AA93BA9C9010197A301082E02C09F
:100FA000440F551F0A94E2F7BA0160237123672B9F
:100FB000F9F0880F991FF601E80FF91FA185B28596
:100FC0009C918BA59817A1F021153105A9F2293024
:100FD000310574F487E0FE01BB9601900D928A956D
:100FE000E1F7CA018095909508231923E42AF52A90
:100FF0002A153B0509F6FFEFAF1ABF0A22E0820E61
:10100000911C39E0A316B10409F088CFC701E3961B
:101010000FB6F894DEBF0FBECDBFDF91CF911F9109
:101020000F91FF90EF90DF90CF90BF90AF909F9087
:101030008F907F906F905F904F903F902F9008958A
:10104000DC01ED91FC910284F385E02D0995862F5A
:101050000895DC01ED91FC910084F185E02D099566
:10106000862F08951F93CF93DF93EC01142F8E8169
:101070009F812A8131E03093C4022093C3021092F1
:10108000C2021092C102DC01ED91FC910190F0814D
:10109000E02D0995811108C063E070E080E090E0E8
:1010A000DF91CF911F9108958E819F81DC01ED9199
:1010B000FC910190F081E02D612F0995882361F367
:1010C0008E819F810E949B0560E070E0CB01E8CF9C
:1010D0000895462FDC0115968D919C91DC01ED91D0
:1010E000FC910680F781E02D65E009941F93CF9372
:1010F000DF93EC01142F89819A81288131E03093AC
:10110000C4022093C3021092C2021092C102DC01F9
:10111000ED91FC910190F081E02D099589819A81F2
:10112000DC01ED91FC910190F081E02D612F09959A
:1011300089819A81DF91CF911F910C949B05DC01ED
:10114000ED91FC910190F081E02D0994FC0187E084
:1011500094E1161634F484E098E0613011F484E0F0
:1011600090E19083062E000C770B77FF03C07195FA
:1011700061957109969FA001979F500D1124840FCE
:10118000952F911D0895DC01ED91FC910190F08166
:10119000E02D09940F931F93CF93DF93EC018A0105
:1011A00089819A81288131E03093C4022093C3025F
:1011B0001092C2021092C10224E0629FB001112479
:1011C0006A5F7F4F0E94C30870E060E089819A8166
:1011D0000E949F0870E060E089819A810E949F08C8
:1011E000B80189819A810E949F08612F70E08981EE
:1011F0009A810E949F0889819A81DF91CF911F91E6
:101200000F910C949B05CF93C0E040E050E16C2F10
:101210008DE894E00E94CA08CF5FC031B1F7CF914A
:1012200008959F92AF92BF92CF92DF92EF92FF927A
:101230000F931F93CF93DF93EC0181E08093C4025F
:1012400084E58093C3021092C2021092C1026D2FF6
:1012500070E08EEA93E00E94C308BE0177278EEA11
:1012600093E00E94C3088EEA93E00E949B0561E030
:1012700084E50E944D041092A9028093A8028EEA90
:1012800093E00E942C05C090E804D090E904F60198
:1012900080838093B002682F85EB92E00E94A608BD
:1012A000EC01F12CE12C1C161D064CF56C2FCF31F6
:1012B000D1050CF06EE184E50E944D04982E109249
:1012C000A9028093A8025E01FEE1AF1AB1088E0167
:1012D0008091A902981659F08EEA93E00E942C059D
:1012E0009FEFE91AF90AF601EE0DFF1D8083015008
:1012F000110929F0E5010A151B0551F7D4CFDF913B
:10130000CF911F910F91FF90EF90DF90CF90BF9002
:10131000AF909F9008950F931F93CF93DF93EC01AD
:101320008A018E819F812A8131E03093C40220930B
:10133000C3021092C2021092C102DC01ED91FC9135
:101340000190F081E02D0995811109C063E070E002
:1013500080E090E0DF91CF911F910F9108958E81F1
:101360009F810E949B0561E08A810E944D0410923A
:10137000A9028093A802813049F78E819F81DC0108
:10138000ED91FC910284F385E02D0995F8018083AD
:1013900060E070E0CB01DECFCF93DF93EC01898179
:1013A0009A81288131E03093C4022093C3021092C5
:1013B000C2021092C102DC01ED91FC910190F0811A
:1013C000E02D099589819A810E949B0561E08881C1
:1013D0000E944D041092A9028093A80289819A81EB
:1013E000DC01ED91FC910284F385E02D0995DF91FC
:1013F000CF9108958F929F92AF92BF92CF92DF923A
:10140000EF92FF92CF93C82F90E080E00E94B32D1F
:101410006B017C016EEF8DE894E00E94CC09682F8F
:1014200070E06F5F7F4F90E080E00E94B32D20E07E
:1014300034E244E759E40E94142E4B015C016091B0
:1014400090047091910480919204909193040E9471
:10145000B32D9B01AC01C501B4010E94F42F9B0187
:10146000AC01C701B6010E94F42F0E946D30AB01A0
:101470006C2F8DE894E0CF91FF90EF90DF90CF90AC
:10148000BF90AF909F908F900C94CA080F931F93BA
:10149000CF938C01C0E0B8018C2F0E94FA09CF5F76
:1014A000C031C9F76AE070E080E090E0CF911F9111
:1014B0000F910C947A038F929F92AF92BF92CF922A
:1014C000DF92EF92FF921F93CF93DF93EC016A01BB
:1014D0007B0120E030E040E85FE3CB01B6010E94F1
:1014E000AE2D87FD7EC020E030EC4AE555E4C70113
:1014F000B6010E94DB3018163CF4C12C30ECD32E20
:101500003AE5E32E35E4F32E6B817C818D819E815B
:101510000E94B32D4B015C0120E030E040E855E42F
:10152000C701B6010E94142E9B01AC01C501B40194
:101530000E94F42F20E030E040E05FE30E94832F20
:1015400020E030E040E85FE30E94822F6B017C01E5
:1015500020E030E040E450E40E94AE2D87FD48C01A
:1015600020E030E04FE753E4C701B6010E94DB30D2
:10157000181634F4C12CD12C9FE7E92E93E4F92EF0
:1015800060E0CE010E94CC09182F482F4F764061B1
:1015900060E0CE010E947608C701B6010E946D305E
:1015A000462F6EEFCE010E947608412F60E0CE01FB
:1015B0000E94760865E070E080E090E00E947A0387
:1015C000412F406A60E0CE01DF91CF911F91FF90E3
:1015D000EF90DF90CF90BF90AF909F908F900C9442
:1015E0007608C12CD12C20E8E22E2FE3F22E8CCFEE
:1015F000C12CD12C80E4E82EFE2CC2CFEF92FF92BA
:101600000F931F93CF93DF9300D0CDB7DEB78C013C
:10161000DC0115968D919C91009739F0DC01ED91DC
:10162000FC910280F381E02D099581E090E0F801C2
:101630009483838388E090E00E944E2BFC01D801C4
:1016400012968C9190E0B0E0A0E082839383A48313
:10165000B58388E391E0918380838EEA93E097835A
:101660008683D8011696FC93EE9315971A8284E030
:10167000E82EF12CF80185819681DC01ED91FC9139
:101680000480F581E02DAE014E5F5F4F61E009956A
:10169000811103C08A81833031F0B1E0EB1AF10887
:1016A00049F781E121C084E08983F8018581968131
:1016B000DC01ED91FC910680F781E02D44E064E0CF
:1016C0000995998192FF10C0F80185819681DC010E
:1016D000ED91FC910480F581E02DAE014F5F5F4FED
:1016E00064E00995882369F30F900F90DF91CF9103
:1016F0001F910F91FF90EF9008958F929F92AF925C
:10170000BF92CF92DF92EF92FF920F931F93CF93EE
:10171000DF931F92CDB7DEB78C016B01F12CE12C6A
:10172000AA24A394B12CC5010E2C02C0880F991FC6
:101730000A94E2F78C219D21892B09F43EC0D8013F
:1017400015968D919C91DC01ED91FC910680F781BD
:10175000E02D41E04E0D60E20995811162C0F80173
:1017600085819681DC01ED91FC910480F581E02D6D
:10177000AE014F5F5F4F61E20995811152C049810F
:1017800040FF3EC04701880C991C800E911EF40159
:1017900081859285892B39F487E090E00E944E2B59
:1017A000F40192878187898186958695837090E080
:1017B000D80118969C938E931797BFEFEB1AFB0AEC
:1017C000E8E0EE16F10409F0AECF64E170E080E0ED
:1017D00090E00E947A03F801108617826801F9E010
:1017E000CF0ED11CFF24F394D6018D919D916D01F4
:1017F000892B29F5F394B9E0FB12F6CF80E011C0F4
:1018000041604983D80115968D919C91DC01ED9141
:10181000FC910680F781E02D61E20995882309F4A7
:10182000B1CF0F90DF91CF911F910F91FF90EF906B
:10183000DF90CF90BF90AF909F908F900895F80168
:1018400085819681DC01ED91FC910680F781E02D88
:101850004F2D60E209958111E4CFF80185819681D1
:10186000DC01ED91FC910480F581E02DAE014F5F2C
:101870005F4F61E209958111D4CF4981842F86950C
:101880008695837009F4B6CF437F4983F80185813B
:101890009681DC01ED91FC910680F781E02D61E2FB
:1018A0000995882309F4A6CFBCCFFC010190002044
:1018B000E9F73197AF01481B590BBC0181E193E077
:1018C0000C94930180E791E00C94550CCF93DF9337
:1018D000FC01448155816081718181E193E00E9426
:1018E0009301EC010E94620C8C0F9D1FDF91CF9140
:1018F0000895CF93DF930E948502EC010E94620C51
:101900008C0F9D1FDF91CF910895CF93DF930E949D
:101910008002EC010E94620C8C0F9D1FDF91CF9121
:1019200008958F929F92AF92BF920F931F93CF9380
:10193000DF93CDB7DEB7A1970FB6F894DEBF0FBE29
:10194000CDBF19A2423008F44AE08E010F5D1F4F4F
:10195000842E912CB12CA12CA50194010E94512F11
:10196000E62FB901CA01EA30F4F4E05DD801EE9344
:101970008D01232B242B252B79F790E080E0109705
:1019800019F0CD010E94550CA1960FB6F894DEBF58
:101990000FBECDBFDF91CF911F910F91BF90AF9040
:1019A0009F908F900895E95CE1CFCF92DF92EF9204
:1019B000FF92C12CD12C76014AE0C701B6010E94EA
:1019C000910C89E00E9480028FEFC81AD80AE80AB9
:1019D000F80A80E1C816D104E104F10469F7FF9028
:1019E000EF90DF90CF900C94620CCF93DF930E9426
:1019F000550CEC010E94620C8C0F9D1FDF91CF9162
:101A00000895FC0124813581232B39F421E0FB0169
:101A10008081882349F020E007C0808191810E9465
:101A2000873321E0892BB9F7822F0895CF93DF9375
:101A3000EC0188819981009711F00E94EA2B1982AC
:101A400018821D821C821B821A82DF91CF91089519
:101A5000FC0180819181009711F00C94EA2B08958C
:101A60000C94EA2B0F931F93CF93DF93EC018CE63A
:101A700091E0998388838D819E81009739F0DC0104
:101A8000ED91FC910280F381E02D09958E01075FB5
:101A90001F4F6996F801819191918F01009731F064
:101AA0000E94EA2BF8013297118210820C171D0751
:101AB00089F7DF91CF911F910F910895CF93DF9315
:101AC000EC010E94320DCE01DF91CF910C94EA2BF4
:101AD0000F931F93CF93DF938C01EB01FC01808167
:101AE00091810097E1F06881798161157105A9F014
:101AF000428153812C813D814217530770F00E942F
:101B000090338C819D81F801958384831D821C8292
:101B1000DF91CF911F910F9108950E94EA2B888148
:101B20009981F801918380838A819B819383828349
:101B30008C819D8195838483198218821B821A82ED
:101B4000E5CF0C94D22E6F927F928F929F92AF929C
:101B5000BF92CF92DF92EF92FF920F931F93CF939A
:101B6000DF936C01712CD0E0C0E085E191E00E9430
:101B7000A10D082E000C990B781619060CF06DC0FB
:101B80004E018FEF881A980ACE01805C9E4F0E940A
:101B9000A10D682EE82EF12CC70101960E944E2B54
:101BA0008C015C01CF5BDE4FC81BD90B8A2D801BDB
:101BB000861548F4CE018A0D9B1D0E94A10DF501EA
:101BC00081935F01F3CFE401CE0DDF1D5801AE0C10
:101BD000BF1CF5011082B601C8010E948733892B12
:101BE00009F501151105A9F5CE018F5B9E4F0E94E5
:101BF000A10D8093B002682F85EB92E00E94A608A9
:101C0000CE01805C9E4FDF91CF911F910F91FF908D
:101C1000EF90DF90CF90BF90AF909F908F907F908C
:101C20006F900895F501319780818C3449F4A701B4
:101C300041505109B601C8010E949733892B89F29E
:101C40000115110519F0C8010E94EA2B249673941E
:101C50008CCFC8010E94EA2BC7CF82E392E00E949A
:101C6000790C8FEF9FEFCFCF1F93CF93DF93EC01D2
:101C70000E94A10D182FCE0101960E94A10D90E0A7
:101C8000982F8827810F911DDF91CF911F91089583
:101C9000CF92DF92EF92FF920F931F93CF93DF9338
:101CA0006A017B01082F10E0C801805B9F4F880FFD
:101CB000991F0E94340EBC01990F880B990B0E944A
:101CC000B52D20E030E04AE754E40E94F42FA7014C
:101CD00096010E94142E6B017C0182E191E00E942A
:101CE000A10D9AE0899FB0011124072E000C880BEA
:101CF000990B0E94B52DA70196010E94832F6B01BD
:101D00007C0120E030E04AEF53E40E94DB30C4EF76
:101D1000D1E018168CF420E030E44CE155E4C70122
:101D2000B6010E94AE2DC4ECD9E087FF05C0C70103
:101D3000B6010E946630EB01C8010E94A10DAE0100
:101D4000682F8DE894E0DF91CF911F910F91FF9064
:101D5000EF90DF90CF900C94CA0890E0C096880F67
:101D6000991F860F911D880F991F0C94340E7F9236
:101D70008F929F92AF92BF92CF92DF92EF92FF929B
:101D80000F931F93CF93DF93B82E6A01D62FC72FDF
:101D900060E00E94AD0EBC01990F880B990B0E9468
:101DA000B52D7B018C0161E08B2D0E94AD0EBC0135
:101DB000990F880B990B0E94B52D762E872E982EA1
:101DC000A92E96014D2F5C2F0E94AE2D87FF71C06A
:101DD000772D682D992D8A2D272F362F492F582F93
:101DE000B701C8010E94DB30181694F096014D2F00
:101DF0005C2F672D782D892D9A2D0E94AE2D7601AE
:101E00000D2F1C2F87FF04C0E72CF82C092D1A2D4D
:101E1000CB2DD0E06E0180E3C80ED11CCC0FDD1FAE
:101E2000CA5FDE4FB701C8010E94663079836883BC
:101E3000C601880F991F0E94340EEC01C6010E9452
:101E4000A10D682F880F770B880B990B0E94B52D79
:101E50009701A8010E94142E6B017C01BE01DD0FC9
:101E6000880B990B0E94B52D9B01AC01C701B601EF
:101E70000E94832F0E946630072E000C880B990B5E
:101E80000E94B52D20E030E0A9010E94832FAB0114
:101E9000BC018B2DDF91CF911F910F91FF90EF909F
:101EA000DF90CF90BF90AF909F908F907F900C94D9
:101EB000480E7C2D6D2DCE018FCF2F923F924F92E9
:101EC0005F926F927F928F929F92AF92BF92CF92CA
:101ED000DF92EF92FF920F931F93CF93DF93CDB7D3
:101EE000DEB72E970FB6F894DEBF0FBECDBF5C01F4
:101EF0006A017B0120E030E0A901CB01B6010E941C
:101F0000AE2D9501205E3F4F3901181684F18901ED
:101F10003FE03983D8017E916E918D01072E000C30
:101F2000880B990B0E94B52DAB01BC0189810E94E1
:101F3000B70EB981B150B983BF3F61F72E960FB686
:101F4000F894DEBF0FBECDBFDF91CF911F910F91EF
:101F5000FF90EF90DF90CF90BF90AF909F908F90C9
:101F60007F906F905F904F903F902F90089580E208
:101F700090E00E944E2B8C0186E0882E81E0982E06
:101F80009801F50170E060E0D4018D919D914D01C3
:101F900041915191841B950BD9018D939D939D0186
:101FA00097FF03C0919581959109681779070CF403
:101FB000BC01E615F70541F7072E000C880B990BBD
:101FC0000E94B52DA70196010E94F42F6B017C01A0
:101FD00020E030E0A9010E94DB3020E030E040E06A
:101FE0005FE387FD91C0C701B6010E94832F0E9465
:101FF00066307E876D87D12CC12C8D859E85092EFC
:10200000000CAA0BBB0B89879A87AB87BC87AD8571
:10201000BE85AC15BD050CF47CC048011501F12C42
:10202000C6010D2C000CAA0BBB0B8D839E83AF83C6
:10203000B887D1016D917D911D01072E000C880B91
:10204000990B0E94B52D2B013C01ED85FE8520E00A
:1020500030E0A901EF2B09F443C06D817E818F81AF
:1020600098850E94B52D2BED3FE049E450E40E9495
:10207000142E69837A838B839C8369857A858B850B
:102080009C850E94B52D9B01AC0169817A818B8171
:102090009C810E94F42F0E94EF2F20E030E040E866
:1020A0005FE30E94832F20E030E040E05FE30E9486
:1020B000142E69837A838B839C83D4016D917C91E8
:1020C000072E000C880B990B0E94B52D9B01AC01CB
:1020D00069817A818B819C810E94142E9B01AC01C5
:1020E000C301B2010E94832FAB01BC018F2D0E945E
:1020F000B70EF394B2E08B0E911CE0E1FE1299CF83
:10210000FFEFCF1ADF0A83CFC701B6010E94822FEB
:102110006ECF0115110509F411CFC8012E960FB627
:10212000F894DEBF0FBECDBFDF91CF911F910F910D
:10213000FF90EF90DF90CF90BF90AF909F908F90E7
:102140007F906F905F904F903F902F900C94EA2B70
:102150002F923F924F925F926F927F928F929F92B7
:10216000AF92BF92CF92DF92EF92FF920F931F93A5
:10217000CF93DF93CDB7DEB72F970FB6F894DEBFBE
:102180000FBECDBF4C016D8369017A01202F30E075
:102190003A83298320E030E0A901C701B6010E94FB
:1021A000AE2D1816ECF01FE0812F012E000C990BBC
:1021B000A981BA818A179B070CF41EC1880D991D4D
:1021C000FC016081062E000C770B880B990B0E9496
:1021D000B52DAB01BC01812F0E94B70E1150E4CF89
:1021E00080E190E029813A81821B930B811530E4D4
:1021F000930780F5880F991F009779F10E944E2B65
:102200005C01E981FA81EE0FFF1FCF018A5F9E4FCB
:102210003C012501D401402F70E060E0403100F521
:10222000F301819191913F012D915D8125039001F1
:102230001124821B930BF201819391932F0197FF3D
:1022400003C0919581959109681779070CF4BC0139
:102250004F5FE4CF8FEF9FEFD1CF81E090E0CECF03
:10226000072E000C880B990B0E94B52DA701960133
:102270000E94F42F6B017C0120E030E0A9010E9454
:10228000DB3020E030E040E05FE387FD8BC0C7013A
:10229000B6010E94832F0E9466301B011F861E8696
:1022A000CB01770FAA0BBB0B8A879B87AC87BD87B7
:1022B000AE85BF852A163B060CF480C0BA82A9827F
:1022C0009C828B82102FCD01092E000CAA0BBB0B18
:1022D0008E839F83A887B987103108F068C0AB81CF
:1022E000BC816D91BC83AB832D816203B00111244D
:1022F000072E000C880B990B0E94B52D6B017C01F9
:1023000020E030E0A90121143104E1F16E817F81E8
:10231000888599850E94B52D2BED3FE049E450E476
:102320000E94142E2B013C016A857B858C859D853E
:102330000E94B52D9B01AC01C301B2010E94F42F94
:102340000E94EF2F20E030E040E85FE30E94832FFF
:1023500020E030E040E05FE30E94142E2B013C01BE
:10236000A981BA816D917C91072E000C880B990B85
:102370000E94B52D9B01AC01C301B2010E94142E35
:102380009B01AC01C701B6010E94832FAB01BC01C8
:10239000812F0E94B70E1F5FE981FA813296FA837E
:1023A000E9839ACFC701B6010E94822F74CF2E8590
:1023B0003F852F5F3F4F3F872E877ACFA114B1040F
:1023C000D9F0C5012F960FB6F894DEBF0FBECDBF72
:1023D000DF91CF911F910F91FF90EF90DF90CF9001
:1023E000BF90AF909F908F907F906F905F904F9035
:1023F0003F902F900C94EA2B2F960FB6F894DEBFE7
:102400000FBECDBFDF91CF911F910F91FF90EF9045
:10241000DF90CF90BF90AF909F908F907F906F9004
:102420005F904F903F902F9008950F930E94460128
:102430001092AB021092AA02ECEAF2E025813681FA
:102440004781508502896685838994890E94A810F6
:102450000F910895CF92DF92EF92FF920F931F9307
:10246000CF93DF938C01FC0101900020E9F73297B4
:1024700080818C3409F4EDC0823509F0ECC087EE20
:102480008093AF02C8010E94A30DEC01CF3FDC078F
:1024900009F431C1CE010E94A10DF82ECE010296A1
:1024A0000E94340EEC01E9E4FE12D7C00E9411092B
:1024B0000E94460163E771E0C8010E948733892BBF
:1024C00009F4E5C08091B002813009F0E0C00E94BB
:1024D000BF2C24E630E040E050E00E94E82E0E944D
:1024E000B52D20E030E040E251E40E94F42F20E0DE
:1024F00030E040EA50E40E94822F6093A40270937F
:10250000A5028093A6029093A702C090A402D09047
:10251000A502E090A602F090A702D0E0C0E00091F2
:10252000BF021091C0020C0F1D1FF8016081062E22
:10253000000C770B880B990B0E94B52DA701960113
:102540000E94832F0E946630F80160832196C0317B
:10255000D10529F78091AF0287FFA2C08091B60212
:102560009091B7029195819591099093B7028093CC
:10257000B60290E080E04091B002242F042E000CBF
:10258000330B37FF03C0319521953109821793072B
:102590000CF09BC042301CF54091B502489F900161
:1025A000499F300D1124E091BF02F091C002E20F6B
:1025B000F31F2081219520832091B502289FF001EF
:1025C000299FF00D11249F012E5F3F4FE091BF0224
:1025D000F091C002E20FF31F20812195208320910A
:1025E000B00260E022300CF462E0E62FF0E02091CF
:1025F000B00222300CF488C024E030E04091BF02E9
:102600005091C002E217F3070CF081C09F01220F26
:10261000331F7091B502789FF001799FF00D11245E
:10262000E20FF31FE40FF51F408151815083509159
:10263000B502589FD001599FB00D1124E091BF02FF
:10264000F091C002E20FF31FEA0FFB1F41836F5F9F
:10265000CCCF89E115CF80E013CF6091B00285EB3C
:1026600092E00E94A6082091E8043091E904D90183
:10267000C21BD30BFE01EA0FFB1FAD01421B530B24
:10268000481759070CF014CFE491ED93F3CF109253
:10269000A4021092A5021092A6021092A70235CFB2
:1026A0009091B00292308CF481110FC00E94BF2C27
:1026B00024E630E040E050E00E94E82E60FF05C0D4
:1026C0008091A302833609F049CF1092AB02109299
:1026D000AA022091B1023091B2024091B30250910E
:1026E000B4020091BE026091BA028091BF02909143
:1026F000C0020E94A810DF91CF911F910F91FF900F
:10270000EF90DF90CF90089528E030E077CF0196EA
:1027100032CF0F931F93CF93DF93EC018B010E9475
:10272000D22E081721F0602FCE010E94DA2E2196BA
:10273000CE010E94D22E181721F0612FCE010E94E7
:10274000DA2E66E070E080E090E0DF91CF911F919B
:102750000F910C947A030E9471330F931F93CF93C0
:10276000DF93EC0188819981009759F02A813B81A0
:102770002617370730F081E0DF91CF911F910F913D
:1027800008958B016F5F7F4F0E94B432009759F01C
:10279000998388831B830A832C813D81232B59F7DE
:1027A000FC011082E8CF80E0E7CFEF92FF920F9319
:1027B0001F93CF93DF936115710541F480E0DF91A2
:1027C000CF911F910F91FF90EF9008954115510502
:1027D000B1F07B01EC010C811D81040F151FB801C4
:1027E0000E94AD13882351F3288139818C819D810A
:1027F000B701820F931F0E9490331D830C8381E0E9
:10280000DECFEF92FF920F931F93CF93DF93EC01F4
:102810007B018A01BA010E94AD1381110BC0CE0168
:102820000E94160DCE01DF91CF911F910F91FF9065
:10283000EF9008951D830C83B701888199810E94D0
:102840009033F0CFFB01DC0111961C921E9213967F
:102850001C921E92129715961C921E921497861720
:10286000970759F0608171816115710521F04481EC
:1028700055810C9401140C94160D0895FB010190E0
:102880000020E9F73197AF01461B570B0C94011458
:102890000F931F93CF93DF93CDB7DEB762970FB639
:1028A000F894DEBF0FBECDBF8C01CB01F8011182C1
:1028B000108213821282158214824AE0BE016F5F79
:1028C0007F4F0E94712DBE016F5F7F4FC8010E9434
:1028D0003E1462960FB6F894DEBF0FBECDBFDF91F7
:1028E000CF911F910F910895FC01118210821382E4
:1028F000128215821482FB0101900020E9F73197C2
:10290000AF01461B570B0C940114EF92FF920F93EB
:102910001F93CF93DF9300D0CDB7DEB78C01E62EA7
:1029200064ED71E00E94741481E193E00E94B903A8
:102930000E2C000CFF0897FD12C08E159F0579F034
:1029400089831A8241E050E0BE016F5F7F4FC8016A
:102950000E94D51381E193E00E94B903ECCFC80136
:102960000F900F90DF91CF911F910F91FF90EF90FB
:102970000895EF92FF920F931F93CF93DF93EC0193
:102980008B01198218821B821A821D821C82CB0144
:102990000E943C2D7C01BC01CE010E94AD1381112F
:1029A00009C0CE01DF91CF911F910F91FF90EF9061
:1029B0000C94160DFD82EC82B80188819981DF911B
:1029C000CF911F910F91FF90EF900C94352D85EDD5
:1029D0008093BC0080910D0390910E03A0910F0392
:1029E000B09110030796A11DB11D23E0B695A795E0
:1029F000979587952A95D1F72091BC0024FD03C0B7
:102A000010920B03089540910D0350910E036091B5
:102A10000F0370911003452B462B472B69F300974A
:102A2000A105B10541F02AE22A95F1F700C001970E
:102A3000A109B109E1CF80910C030C942C042F92D1
:102A40003F924F925F926F927F928F929F92AF923E
:102A5000BF92CF92DF92EF92FF920F931F93CF938B
:102A6000DF93CDB7DEB767970FB6F894DEBF0FBE22
:102A7000CDBF6A877B878C879D872E873F87488B52
:102A8000598BC801EF8A198268E6262E61E0362E3E
:102A900004E511E088248A94982C5401E8E44E2E31
:102AA000E8EE5E2E66246394712C9C01990F440B12
:102AB000550B2A8B3B8B4C8B5D8B6E857F85888974
:102AC00099890E946D306E837F838887998720E083
:102AD00030E0A9016A857B858C859D850E94AE2D9D
:102AE000882309F419C22A853B854C855D8563E6F8
:102AF0007CE987E89FE30E94E0306B017C018091D4
:102B000000018530A9F5EAE3F1E0F491FE8BFE893E
:102B1000F7FF78C06E817F81888599850E947A034E
:102B200085E00E9417036A897B898C899D890E94B0
:102B30007A0329812F5F29833F893213BECF67969D
:102B40000FB6F894DEBF0FBECDBFDF91CF911F91BE
:102B50000F91FF90EF90DF90CF90BF90AF909F903C
:102B60008F907F906F905F904F903F902F9008953F
:102B70008F3F81F625E020930001EAE3F1E0F49134
:102B8000FE8BFF3F39F2F13009F40CC120F1F23035
:102B900009F0BDCF1092B0001092B1008091B0004A
:102BA00082608093B0008091B10081608093B10019
:102BB000F8018491E82FF0E0EE0FFF1FE55CFE4F77
:102BC000859194919093560280935502F1018491DE
:102BD0008093570217C014BC15BC84B5826084BDB5
:102BE00085B5816085BDF8018491E82FF0E0EE0F96
:102BF000FF1FE55CFE4F85919491F10184918093D4
:102C0000DF011E8AF1014491F8018491882399F033
:102C100090E0880F991FFC01EB5BFE4FA591B491EA
:102C2000FC01E55CFE4F259134918FB7F8949C919F
:102C3000492B4C938FBF20E030ED42E854E4C701AC
:102C4000B6010E94142E0E946D306B01F12CE12C14
:102C500060E072E18AE790E0A70196010E94E82E09
:102C60002A833B834C835D83BA01A90141505109FA
:102C7000610971098E898D7F09F00EC14F3F5105A1
:102C80006105710509F00CF4EEC060E472E48FE0B8
:102C900090E0A70196010E94E82EBA01A9014150D7
:102CA000510961097109FE89F23009F098C082E08A
:102CB0004F3F51056105710509F00CF463C060E9EF
:102CC00070ED83E090E0A70196010E94E82EBA0122
:102CD000A901415051096109710983E04F3F510534
:102CE0006105710509F00CF44DC0C301B201A701E3
:102CF00096010E94E82EBA01A901415051096109CB
:102D0000710984E04F3F510561057105D9F1D4F196
:102D100064E274EF80E090E0A70196010E94E82E43
:102D2000BA01A901415051096109710985E04F3F7C
:102D300051056105710531F128F162E17AE780E022
:102D400090E0A70196010E94E82EBA01A901415026
:102D500051096109710986E04F3F5105610571050F
:102D600089F080F04A815B816C817D819AE0759564
:102D70006795579547959A95D1F741505109610943
:102D8000710987E09091B100987F892B8093B10001
:102D9000FE89F13009F49EC0F23009F4ADC0F111A2
:102DA000B9CE69C01092800010928100809181009C
:102DB0008860809381008091810081608093810090
:102DC000F8018491E82FF0E0EE0FFF1FE55CFE4F65
:102DD00085919491F10184918093DE0113CF4F3F4F
:102DE00051056105710509F00CF454C0C301B2012D
:102DF000A70196010E94E82EBA01A901415051098C
:102E0000610971092E8984E0211191CF83E04F3F40
:102E100051056105710559F154F162E17AE780E0ED
:102E200090E0A70196010E94E82EBA01A901415045
:102E300051096109710984E04F3F51056105710530
:102E4000B1F0A8F04A815B816C817D818AE0759543
:102E50006795579547958A95D1F741505109610972
:102E6000710985E004C081E03E8931118BCF95B5B1
:102E7000987F892B85BD47BD8092E4019092E50142
:102E8000A092E601B092E70180916E00826080938B
:102E90006E0040CE82E0E8CF91E04115510581E01F
:102EA000680771056CF0C301B201A70196010E9489
:102EB000E82EBA01A901415051096109710993E055
:102EC000EE89E13009F064CF80918100887F892B01
:102ED0008093810050938900409388008092E001A4
:102EE0009092E101A092E201B092E30180916F0023
:102EF000826080936F000ECE4093B30080925802A0
:102F000090925902A0925A02B0925B028091700096
:102F1000826080937000FECD6E817F818885998567
:102F20000E947A03F7CD4F925F926F927F928F92B9
:102F30009F92AF92BF92CF92DF92EF920F931F9327
:102F4000CF93DF93D82E192F0E94A10D8695CD2DFA
:102F5000D12FB12CA12CC82ED12C88EE882E83E045
:102F6000982E2197AC14BD044CF5CE018C199D0907
:102F70000E94A10D782ECE010E94A10D182F672D61
:102F800070E0C4010E948632072E000C880B990B5A
:102F90000E94B52D2B013C01612F70E090E080E094
:102FA0000E94B32DEE24E39410E000E0A30192010F
:102FB0000E941F158FEFA81AB80AD3CFDF91CF91C7
:102FC0001F910F91EF90DF90CF90BF90AF909F90A7
:102FD0008F907F906F905F904F9008951F920F9207
:102FE0000FB60F9211242F933F934F935F936F93DC
:102FF0007F938F939F93AF93BF93EF93FF938091B2
:10300000580290915902A0915A02B0915B02892B0B
:103010008A2B8B2BD1F190915702E0915502F091C0
:1030200056028081892780838091580290915902AD
:10303000A0915A02B0915B02181619061A061B06D7
:103040009CF48091580290915902A0915A02B0913B
:103050005B020197A109B10980935802909359022C
:10306000A0935A02B0935B02FF91EF91BF91AF9191
:103070009F918F917F916F915F914F913F912F9190
:103080000F900FBE0F901F901895809100010E9425
:103090001703EACF1F920F920FB60F9211242F93AE
:1030A0003F934F935F936F937F938F939F93AF93D0
:1030B000BF93EF93FF9381E193E00E941102FF9190
:1030C000EF91BF91AF919F918F917F916F915F91A0
:1030D0004F913F912F910F900FBE0F901F90189519
:1030E0001F920F920FB60F9211242F938F939F93DD
:1030F000EF93FF93E0912103F09122038081E0910F
:103100002703F091280382FD1BC0908180912A0340
:103110008F5F8F7320912B03821741F0E0912A0378
:10312000F0E0EF5EFC4F958F80932A03FF91EF91C3
:103130009F918F912F910F900FBE0F901F90189518
:103140008081F4CF1F920F920FB60F9211242F930C
:103150003F938F939F93AF93BF9380914D02909134
:103160004E02A0914F02B091500230914C0223E0E8
:10317000230F2D3758F50196A11DB11D20934C0248
:1031800080934D0290934E02A0934F02B093500251
:103190008091510290915202A0915302B091540239
:1031A0000196A11DB11D8093510290935202A093EC
:1031B0005302B0935402BF91AF919F918F913F9171
:1031C0002F910F900FBE0F901F90189526E8230F98
:1031D0000296A11DB11DD2CF1F920F920FB60F9272
:1031E00011242F933F934F935F936F937F938F930C
:1031F0009F93AF93BF93EF93FF938091B900887F24
:10320000803609F44AC0F0F5883209F4A7C018F5F1
:10321000803109F49BC0B8F4882309F4F9C08830E0
:1032200009F494C0FF91EF91BF91AF919F918F915D
:103230007F916F915F914F913F912F910F900FBEB2
:103240000F901F901895883109F488C0803251F78B
:103250008093E90214C0803409F49DC040F48033A7
:10326000B9F38833F9F68093E90285ECB0C0803574
:1032700009F485C0883509F496C0883499F60E940F
:10328000E714D0CF883909F48CC038F5883729F095
:1032900050F4883611F0803729F683E080930B03D1
:1032A00010924B0257C0883809F47BC0803919F05E
:1032B000803809F0B7CF80914B02803208F071C09E
:1032C000E0914B0281E08E0F80934B028091BB0016
:1032D000F0E0E55DFD4F80833DC0803B39F0E0F4D8
:1032E000803A09F479C0883A09F09CCF84E0809351
:1032F0000B0310922A0210922902E0915E02F091D3
:103300005F0209958091290281110FC081E08093AD
:1033100029021092090209C0803C09F4A6CF883C1A
:1033200009F4A3CF883B09F07DCFE0912A0281E028
:103330008E0F80932A02F0E0E75FFD4F808180933B
:10334000BB0090912A028091290229C08091E60257
:103350008093BB0085EC8093BC0064CF9091E80221
:103360008091E702981758F5E091E80281E08E0F0E
:103370008093E802F0E0EB53FD4F8081E9CFE091CC
:10338000E80281E08E0F8093E8028091BB00F0E0BC
:10339000EB53FD4F80839091E8028091E7029817EC
:1033A000C8F285E8D8CFE091E80281E08E0F8093E3
:1033B000E8028091BB00F0E0EB53FD4F80838091E9
:1033C000EA0281115CCF81E08093E50284EA809378
:1033D000BC0010920B0326CF85EC8093BC001092AA
:1033E0000B0380914B02803230F4E0914B02F0E00D
:1033F000E55DFD4F108260914B0270E0E0915C0250
:10340000F0915D028BE292E0099510924B020ACF97
:103410001092E90234CF1F920F920FB60F9211242F
:103420002F933F934F935F936F937F938F939F93CC
:10343000AF93BF93CF93DF93EF93FF932091BB03A1
:1034400030E0F901EA5DFE4F8491F901ED59FE4F3C
:10345000D491F901E15BFE4FC491CC2379F0811145
:103460000E94C002EC2FF0E0EE0FFF1FE45EFE4F63
:10347000A591B491EC91ED2381E009F480E02091D5
:10348000C0033091C1032F5F3F4F3093C10320939E
:10349000C0032091BE033091BF032536310518F0DB
:1034A00094E09093BA039091BA03911130C08111C6
:1034B00069C02091C0033091C1032436310528F43E
:1034C0001092C1031092C0035DC010928C04109240
:1034D000BF031092BE032091BE033091BF03A90128
:1034E0004F5F5F4F5093BF034093BE034091C003B3
:1034F0005091C103220F331FF901EE53FC4F51834A
:1035000040831092C1031092C00391E021C09091BA
:10351000BA03913001F58130A9F52091BE033091B5
:10352000BF03A9014F5F5F4F5093BF034093BE039A
:103530004091C0035091C103220F331FF901EE5394
:10354000FC4F518340831092C1031092C00392E05C
:103550009093BA0317C09091BA03923061F4882314
:1035600009F4B9CF2091C0033091C103253631054C
:1035700048F093E0EDCF9091BA03933099F488230B
:1035800009F49ECF9091BD039923A9F0811126C023
:103590008091BC03882371F08091BC0361E00E949C
:1035A000E90209C09091BA03943061F791E09093D9
:1035B0008C04DFCF2D9AFF91EF91DF91CF91BF91D6
:1035C000AF919F918F917F916F915F914F913F91BB
:1035D0002F910F900FBE0F901F9018958091BC03F4
:1035E000882321F08091BC0360E0D9CF2D98E3CFF0
:1035F000CF93DF93E1E1F3E01382128288EE93E050
:10360000A0E0B0E084839583A683B78328E431E00B
:103610003183208325EC30E03587248724EC30E0AB
:103620003787268720EC30E0318B208B21EC30E08F
:10363000338B228B22EC30E0358B248B26EC30E070
:10364000378B268B118E128E138E148ECEEAD3E01A
:103650001B821A828C839D83AE83BF838AE591E0AF
:10366000998388838AE090E00E944E2B9093ED042A
:103670008093EC0482E090E00E944E2B9093EB0448
:103680008093EA0482EC91E00E944E2B9093E9042F
:103690008093E804EAEBF3E084E08183138269E736
:1036A00071E082EE94E00E947414E9ECF4E04CE6E0
:1036B00051E05183408380E582832FEF30E03483F3
:1036C0002383168215821086178280E1E2EDF4E0F2
:1036D000DF01982F1D929A95E9F7E0EBF4E0518312
:1036E000408390E69283348323831682158210866A
:1036F0001782E9EBF4E0DF011D928A95E9F76CE7A8
:1037000071E084EA94E00E94741461E871E08AEA4E
:1037100094E00E947414E3E9F4E081E1DF011D927A
:103720008A95E9F7EDE8F4E080E48083D283C183F1
:10373000DF91CF910895CF93DF93CDB7DEB7E797B1
:103740000FB6F894DEBF0FBECDBF789484B582600B
:1037500084BD84B5816084BD85B5826085BD85B535
:10376000816085BD80916E00816080936E001092B3
:10377000810080918100826080938100809181002E
:1037800081608093810080918000816080938000BF
:103790008091B10084608093B1008091B00081601D
:1037A0008093B00080917A00846080937A00809149
:1037B0007A00826080937A0080917A0081608093A1
:1037C0007A0080917A00806880937A001092C1001C
:1037D000E0912103F091220312E01083E0911D0398
:1037E000F0911E031082E0911F03F091200380E10D
:1037F000808310922903E0912503F091260386E04F
:103800008083E0912303F091240380818061808391
:10381000E0912303F0912403808188608083E0910C
:103820002303F0912403808180688083E091230347
:10383000F091240380818F7D808385E090E0A0E07B
:10384000B0E08093150390931603A0931703B093F1
:1038500018031092A9021092A8021092C2021092AC
:10386000C1020E940E0480E991E090935F02809370
:103870005E0281E991E090935D0280935C0288E0B2
:103880008093B8008BE60E94850CF894109280001B
:1038900089E08093810080E293E090938900809397
:1038A0008800109285001092840010936F00789425
:1038B0001092BA031092BF031092BE038091BB0313
:1038C00090E0FC01ED59FE4F2491815B9E4FFC017D
:1038D00084918823C9F090E0880F991FFC01EB5B6D
:1038E000FE4F45915491FC01E55CFE4FA591B491CA
:1038F0009FB7F894FA0180812095822380838C9170
:10390000E22FE823EC939FBF64E070E082EE94E046
:103910000E94AD138BE791E00E948502B0E9EB2E87
:10392000B2E0FB2E00E110E0C8010E94A10DD7011A
:103930008D937D010F5F1F4F00321105A9F7109283
:10394000A9021092A8021092C2021092C1020E9413
:103950000E0480E991E090935F0280935E0281E91A
:1039600091E090935D0280935C0240E860E08DE816
:1039700094E00E9476086AE070E080E090E00E94A7
:103980007A0340E050E06AE774E48DE894E00E9436
:103990005B0A80E498E7ADE7B1E0809390049093F0
:1039A0009104A0939204B093930483E191E00E9468
:1039B000340E092E000CAA0BBB0B8093600290936F
:1039C0006102A0936202B0936302885D9945A109E8
:1039D000B10985399141A105B10560F088EA91E608
:1039E000A0E0B0E08093600290936102A093620235
:1039F000B0936302609160027091610280916202F3
:103A0000909163020E94B52D20E030E04AE754E433
:103A10000E94F42F6B017C014B015C01AC019B0106
:103A20000E943831882309F44AC086E891E00E9458
:103A3000550C87E791E00E94790C2091600230914B
:103A400061024091620250916302A8EEB3E00E94CD
:103A5000072F6B017C0140E050E060E773E48DE8E4
:103A600094E00E945B0AC0929604D0929704E09280
:103A70009804F0929904C0929004D0929104E0923C
:103A80009204F09293040E94030989E891E00E9455
:103A9000790C90E080E08C010F5F1F4F805C9E4F9F
:103AA0000E94A10D080F111DC801805C9E4F0E944D
:103AB000A10D8E3409F493C0C8010496ECCF260101
:103AC0003701E89477F82FEF3FEF4FE75FE7C30147
:103AD000B2010E94383181110DC02FEF3FEF4FE747
:103AE0005FE7C301B2010E94AE2D18161CF48AE8EC
:103AF00091E09DCF2FEF3FEF4FE75FE4C701B601A5
:103B00000E94DB3018161CF48EE891E090CF2FEF66
:103B10003FEF4FE75FECC701B6010E94AE2D87FD76
:103B2000F3CF20E030E0A901C701B6010E94AE2D1D
:103B300087FF09C08DE20E94800246015701B7FA53
:103B4000B094B7F8B0942AE037ED43EA5BE3C501DF
:103B5000B4010E94832F4B015C010E946D306B0108
:103B60007C010E94B32D9B01AC01C501B4010E94F0
:103B7000822F4B015C014AE0C701B6010E94910C03
:103B80008EE20E94800220E030E040E251E4C50174
:103B9000B4010E94142E4B015C010E946D306B0138
:103BA000F12CE12C4AE0C701B6010E94910CC7013B
:103BB000B6010E94B32D9B01AC01C501B4010E9466
:103BC000822F20E030E040E251E40E94142E0E9457
:103BD0006D3090E080E04AE00E94910C2ACF68E0CE
:103BE00071E0C8018E5B9E4F0E94891380E10E94A4
:103BF0004303BC01990F880B990B61157105810571
:103C0000910511F00E940E2D8091CC049091CD046D
:103C1000019709F00CC182E991E00E94F50C89EC52
:103C200094E09093860280938502E0918702F09160
:103C30008802EE0FFF1FE05DFE4F60817181809171
:103C40008502909186020E947D0B0E94AD036093D5
:103C500081027093820280938302909384028FEF9B
:103C600093E00E94931760ED77E080E090E00E947F
:103C70007A0383EA91E00E94790C8CE991E00E943A
:103C8000790C85E991E00E94790C0E94AD0320E156
:103C900037E240E050E00E94512F80910101909165
:103CA0000201092E000CAA0BBB0B82179307A40775
:103CB000B5070CF045C07901309302012093010152
:103CC00085E10E9443038C018A389240ACF58091D3
:103CD0006402909165020817190721F022E0E216AC
:103CE000F10454F58EEA91E00E948502C80163E672
:103CF00070E00E9486326B01072E000CEE08FF0870
:103D000077FFBEC08DE20E94800266277727CB0135
:103D10006C197D098E099F094AE00E94910C86E585
:103D20000E94850C81ED93E00E94931760ED77E08F
:103D300080E090E00E947A03109365020093640291
:103D400080918D028111D7C082EC93E09093740230
:103D5000809373028091BE039091BF03909376028B
:103D60008093750280918C0490E090937802809308
:103D700077028091BA03833009F0BDC08091C403FB
:103D80009091C503875891098E35910508F0ADC013
:103D90008091BE039091BF03049709F075C0809194
:103DA000C6039091C7038097479708F06DC0809134
:103DB000C8039091C9030997099708F065C010924C
:103DC0007202109271028FEF9FEFDC0180936B0201
:103DD00090936C02A0936D02B0936E0283E090E02A
:103DE000909368028093670280916B0290916C02BD
:103DF000A0916D02B0916E02892F9A2FAB2FBB2735
:103E00008A3509F429C208F0E0C1823209F40CC2F3
:103E100008F0C5C1803109F41CC208F06EC16AEE19
:103E200071E0823009F471C164ED71E020C289EC67
:103E300094E00E94FE0A882309F4EDCE81EA91E025
:103E40000E94F50C8091B3049091B404019789F419
:103E500082E991E00E94F50C80EB94E09093860259
:103E60008093850268EE73E080E090E00E947A0320
:103E7000DCCE80EB94E00E94FE0A8111F3CFE8CF04
:103E80004AE0C701B60149CF8091BE039091BF03BC
:103E90008434910550F18091C6039091C7038154F9
:103EA00091098F9710F590E080E040E050E0BA0172
:103EB000FC01E853FC4F2081318129503109293020
:103EC000310598F4FC01E653FC4F208131812751E4
:103ED00031092231310508F4F2C0208131812650A8
:103EE00031092730310508F403C11092BA0310924A
:103EF000BF031092BE0381E193E00E94F101181606
:103F00001906A4F581E080938D0282E08093A202DD
:103F100081E193E00E94CF01182F8093A30261E01A
:103F200070E080E090E00E947A031B3409F04AC2FE
:103F3000E090E804F090E90410E000E081E193E013
:103F40000E94F101892B51F081E193E00E94CF01A1
:103F5000F701E00FF11F80830F5F1F4FF8013197CA
:103F6000EE0DFF1D80818E3749F710820E94AD0350
:103F7000B091A202BDA7BB2309F477C20E94AD0392
:103F800068577C4E8F4F9F4F6093890270938A02CF
:103F900080938B0290938C026091A202662309F4B5
:103FA000F5C5F090A302653018F5E2E6FE1601F1C2
:103FB0008CE88F0D8230E0F0FCE4FF16C9F029E4B4
:103FC000F216B1F033E4F31699F070E0615F7F4FC1
:103FD000072E000C880B990B0E94B52DEE24E3945C
:103FE00010E000E020E030E040EA50E40E941F15BD
:103FF0008091A1028356823050F443E6F41639F0E2
:1040000088ED9BE00E94460A87E40E94850C80911F
:10401000A302803751F08091A002811106C081E097
:104020008093A00280E70E94850CF090A302E6EC4A
:10403000EF0DEC3308F068C50E2E000CFF0BED5DA4
:10404000FF4D0C949A32FE29F92984258425842574
:104050008425842584250029842584258425842598
:1040600084258425A82884254F29EB28A828842581
:104070008425842584258425F2263F2984258425CA
:1040800084258425842584258425842584258425E8
:1040900084258425DC26F226F226012A842584251F
:1040A00084258425F2264826E3298425F2268425C2
:1040B0007E263526842579258326F226F226440F8E
:1040C000551F661F771F416004968038910509F0DF
:1040D000EFCE80E290E09093720280937102409361
:1040E0006B0250936C0260936D0270936E0276CEF9
:1040F000440F551F661F771FE7CF823109F4B5C003
:1041000062ED71E0883109F08FCECE0181960E9478
:10411000B91467EB71E0CE0181960E94010D8823EE
:1041200009F4AAC069EB71E082EE94E00E943E14AB
:1041300062EE74E0CE0187960E942214CE01819631
:104140000E94280D64ED71E0CE0187960E94010D5A
:1041500081111AC00091EC041091ED046FA178A5B3
:10416000C8010E949033D8010D900020E9F7CD01DD
:1041700002978017910709F023C1F801808180938D
:10418000A30281E08093A2021092BA031092BF03AF
:104190001092BE03CE0187960E94280DACCE8234C9
:1041A00009F45DC048F4803309F44DC068EC71E057
:1041B000883309F4AACF38CE8A3409F453C069EBA6
:1041C00071E0823509F4A1CF2FCE823A39F198F40B
:1041D0008A37E1F140F4823621F16FED71E08836E3
:1041E00009F493CF21CE803959F16CED71E0883913
:1041F00009F48BCF19CE823CD1F040F4883AE9F033
:1042000069ED71E0803B09F480CF0ECE803E91F0E5
:1042100064EF71E0823E09F478CF06CE68EF71E07A
:1042200074CF66EF71E071CF62EF71E06ECF68EE30
:1042300071E06BCF66EE71E068CF64EE71E065CF40
:1042400062EE71E062CF66ED71E05FCF6EEC71E01F
:104250005CCF6BEC71E059CF64EC71E056CF61EC50
:1042600071E053CF6EEB71E050CF64EB71E0CE01A3
:1042700081960E9474144DCF6CEB71E0CE01819653
:104280000E94010D811111C06EEB71E0CE0181968B
:104290000E94010D811109C060EC71E0CE01819690
:1042A0000E94010D882309F442C08DA19EA1892B93
:1042B00021F0E9A1FAA1309721F410926602E6E616
:1042C000F2E0108110930301163471F469EB71E090
:1042D00082EE94E00E94010D882331F069E771E0DD
:1042E00082EE94E00E943E1462EE74E0CE010196EC
:1042F0000E9422141FA318A641E050E0BE01695D90
:104300007F4FCE0101960E94D513811104C0CE01CA
:1043100001960E94160DBE016F5F7F4FCE018796FA
:104320000E942214CE0101960E94280D07CF62EC54
:1043300071E0CE0181960E94010D81112EC065ECC5
:1043400071E0CE0181960E94010D811126C068ECBA
:1043500071E0CE0181960E94010D81111EC069E7B6
:1043600071E0CE0181960E94010D811116C06BECA7
:1043700071E0CE0181960E94010D81110EC018A638
:104380001FA21AA619A61CA61BA6BE016F5D7F4F11
:10439000CE0187960E94680DD1CE69A17AA16115E0
:1043A000710549F04DA15EA182EE94E00E940114D6
:1043B0001091030199CF82EE94E00E94160DF8CF80
:1043C0008BE6DDCE81E193E00E94F101181619061B
:1043D0000CF0CCCD64ED71E0CE0181960E94741496
:1043E000193441F084EB810F823020F012546AE0DE
:1043F000123008F46EE7CE0101960E948514BE01CA
:104400006F5F7F4FCE0181960E94680DCE010196AD
:104410000E94280D2DA13EA130938F0220938E0281
:104420008091A3028B3611F0843789F48091EC04DB
:104430009091ED0449A15AA1DC01FA01BF01641B6E
:10444000750B6217730744F461916D93F7CF8091F8
:10445000E8049091E904EECF820F931FDC011C92D7
:10446000CE0181960E94280D81CD2091A302233692
:1044700009F492CD0091890210918A0220918B0259
:1044800030918C02601B710B820B930B1616170672
:10449000180619060CF080CD10928D0219A21AA2EE
:1044A00082E08093040119AA18AA80918702909152
:1044B000880228A939A92817390709F08FC1E09087
:1044C0008502F0908602F901EE0FFF1FE05DFE4FBE
:1044D00080809180D70113968D919C91009711F067
:1044E000019759F0B401C7010E9407076C01F8C099
:1044F000E1E0F0E0F9ABE8ABD8CFF7018581968138
:10450000DC01ED91FC910480F581E02DAE014F5F5F
:104510005F4F6FE10995D12CC12C8111E1C0FFA63D
:10452000EEA6312C212CD12CC12CBB24B394B20C7F
:10453000E1E0F0E0022C02C0EE0FFF1F0A94E2F768
:10454000FFABEEABCF0188219921892B09F4BBC0C9
:10455000AEA5BFA51996ED91FC91309709F4B3C0B3
:1045600099818081981709F4AEC061E0C7010E946B
:104570006908F70105811681D801ED91FC9102844B
:10458000F385E02D4B2D60E2C80109956111A8C0AB
:10459000D801ED91FC910084F185E02DAE014E5FD4
:1045A0005F4F64E3C801099561119AC08A8188232D
:1045B00009F476C0D801ED91FC910084F185E02DDD
:1045C000AE014F5F5F4F6FE1C8010995611188C06F
:1045D0008A81811181E08A83FE0131965F01412C3D
:1045E000512C32018A8190E0B0E0A0E048165906D3
:1045F0006A067B0608F054C0D801ED91FC91028454
:10460000F385E02D41E0440D65E3C8010995F5010E
:104610003596FBABEAAB611163C0A5014E5F5F4FFE
:10462000D801ED91FC910084F185E02D60E4C80192
:104630000995A5014D5F5F4FD801ED91FC91008474
:10464000F185E02D61E4C8010995A5014C5F5F4F3C
:10465000D801ED91FC910084F185E02D62E4C80160
:104660000995D801ED91FC910084F185E02D4AA9CE
:104670005BA963E4C8010995A5014A5F5F4FD801B2
:10468000ED91FC910084F185E02D64E4C801099569
:10469000BFEF4B1A5B0A6B0A7B0AAAA8BBA8A2CF82
:1046A00060E0C7010E946908EEA5FFA5A185B2855B
:1046B00087E0FE01319601900D928A95E1F72EA9CF
:1046C0003FA9C22AD32A3FEF231A330A8EA59FA5FA
:1046D00002969FA78EA798E02916310409F025CFEE
:1046E000C820D920CD2809F4F5CE80E080FC04C094
:1046F000969487948F5FFACF282F30E0220F331FD4
:10470000E20EF31ED7011996ED91FC91309791F1CD
:10471000893080F581810091870210918802E1E261
:10472000F0E0EC0FFD1FE00FF11F91E0811101C0DF
:1047300090E09083882309F451C00E94AD036093F8
:10474000810270938202809383029093840220916D
:10475000850230918602000F111FF801E05DFE4FC7
:1047600040815181BA0180E060FD06C07695679571
:104770008F5FFACF80E0CFCFE82FF0E0EE0FFF1F82
:10478000E20FF31F0184F285E02D309779F0893034
:1047900068F4828190E09093800280937F0280E0B1
:1047A00040FD06C0569547958F5FFACF80E0F2CF67
:1047B000482F50E0440F551F240F351FD90119967B
:1047C000ED91FC91309709F44BC1893008F048C154
:1047D000838190E090937E0280937D02E8A9F9A9FD
:1047E000319709F085CE89A1811104C08AA188235F
:1047F00009F43AC180917F0290918002C29720EE25
:104800003FEF813AFFEF9F0754F020E230E080361F
:1048100091052CF463E070E00E9486329B01809148
:104820007D0290917E02C29768EE7FEF893B4FEF49
:1048300094074CF068E170E08834910524F463E05B
:1048400070E00E948632C90137FF04C0882799278B
:10485000821B930B039754F4CB0177FF04C0882786
:104860009927861B970B03970CF496CB00917B023C
:1048700010917C02021B130B0B35110514F00AE595
:1048800010E0063A8FEF180714F406EA1FEF1093B2
:104890007C0200937B02E0907902F0907A02E61AA3
:1048A000F70A9CE4E916F1041CF02BE4E22EF12C4B
:1048B000A5EBEA16AFEFFA0624F495EBE92EFF24F8
:1048C000FA94F0927A02E0927902FE0133968EE039
:1048D000DF011D928A95E9F71A830983B701F7FE74
:1048E00002C06F5F7F4F75956795719561957109EE
:1048F0009B01245C3F4FC80166E070E00E94863255
:10490000620F731F7A8B698BC8016AEF7FEF0E9479
:104910008632620F731F7C8B6B8BC70163E070E084
:104920000E948632665A7F4FC80117FD0796B3E092
:1049300095958795BA95E1F7FB01E81BF90BFE8B7E
:10494000ED8BC80117FD0796A3E095958795AA956D
:10495000E1F7860F971F988F8F8BB7010F2C000CF4
:10496000880B990B0E94B52D2AE939E949E95FE3E3
:104970000E94F42F20E030E040E251E40E94832FB7
:104980004B015C01B80117FF02C06F5F7F4F759547
:104990006795072E000C880B990B0E94B52D2B01F3
:1049A0003C01AC019B01C501B4010E94822F0E9411
:1049B00066307A8F698FA3019201C501B4010E940C
:1049C000832F0E9466307C8F6B8FC7016DEF7FEF66
:1049D0000E9486326E517109C80117FD03969595A4
:1049E000879595958795860F971F9E8F8D8F17FFBB
:1049F00002C00D5F1F4F1595079515950795601B14
:104A0000710B78A36F8F80E190E090938F02809379
:104A10008E028CE48093A3026091E8047091E90413
:104A2000DB019E012F5F3F4FF901819191919F0121
:104A30008D379105BCF48338FFEF9F0714F483E8AA
:104A40009FEF8D934DA54F5F4DA7403169F7DB0177
:104A500050961C924093040186E08093A2029CCA67
:104A600080E0B7CE8DE7EDCF0E94AD0300918102CB
:104A7000109182022091830230918402601B710B9D
:104A8000820B930B613D77408105910508F484CA40
:104A90008091870290918802019681709927909366
:104AA000880280938702880F991FFC01E05DFE4F0A
:104AB0006081718180918502909186020E947D0BB8
:104AC000209187023091880246E0429FC001439FB7
:104AD000900D11248C559B4F0E94660C0E94AD03D3
:104AE0006093810270938202809383029093840288
:104AF00053CA80910501819580930501181614F41D
:104B000032E5F32EF092A3028091A3028B3609F0D6
:104B10008AC49091B00219160CF489C40091EC0477
:104B20001091ED046AED71E0C8010E948733F090A6
:104B3000A302892B09F1E9E4FE16F1F085EB8F0D54
:104B40008330D0F08091EA049091EB04009711F04B
:104B50000E94EA2B81E090E00E944E2BF801019028
:104B60000020E9F7E01BDC01EC939093EB048093C9
:104B7000EA04B8010E9490331092A202F092A102BE
:104B80008F2D877F833611F01092A3028091A302AC
:104B90008B3609F0F0C41091B00217FF6AC48091FF
:104BA000BD02DD24DA94D80E823008F4D12C10E056
:104BB0008EECC82E92E3B92E212F30E08091B00206
:104BC000082E000C990B97FF03C0919581959109D0
:104BD000281739070CF0CBC4E090BF02F090C00258
:104BE0008091B502189FE00CF11C1124F701608937
:104BF000062E000C770B880B990B0E94B52D20E038
:104C000030E040E85EE30E94142E9B01AC0100E01E
:104C10006091BA02C7010E94A8108091B502E0918C
:104C2000BF02F091C002189FE00DF11D11246189AF
:104C300016160CF019C4FB2D6F02B0011124072EBB
:104C4000000C880B990B0E947A03DD2061F0112380
:104C500051F08091BC02181306C01091BB02115094
:104C60001D140CF4DA941F5FA7CF8091A00291E08D
:104C7000811190E09093A002882311F020E5F22E9C
:104C8000F092A302882309F43FCF0E9403093CCF8E
:104C90000E94D50C64ED71E0CE0181960E947414DF
:104CA00006E011E096E2E92E91E0F92ED8016D912F
:104CB0007D918D01CE0101960E9448144D815E8147
:104CC00069817A81CE0181960E94D513CE01019629
:104CD0000E94280D42E050E062ED71E0CE01819625
:104CE0000E94D513E016F10609F7CE0181960E94C5
:104CF000660CCE0181960E94280D06CF86EC93E0CB
:104D00000E94931701CF8CE292E00E94790C00E997
:104D1000802E02E0902E80E4E82EF12C00E110E0DD
:104D2000F401D1904F01C8010E94D22ED81621F073
:104D30006D2DC8010E94DA2EC7010E94340E6C014D
:104D4000C80180960E94A10DB82EF40131976081B0
:104D5000062E000C770B880B990B0E94B52D2B01AA
:104D60003C016B2DBB0C770B880B990B0E94B52D6A
:104D70009B01AC01C301B2010E94142E2B013C0126
:104D8000B601DD0C880B990B0E94B52D9B01AC017F
:104D9000C301B2010E94832F0E946630C701809632
:104DA0000E9489130F5F1F4FF2E0EF0EF11C0032DB
:104DB000110509F0B5CFA8CE84E292E00E94790CEB
:104DC00010E9E12E12E0F12E00E110E0C8010E948E
:104DD000A10DD7018D937D010F5F1F4F003211058B
:104DE000A9F792CEE6E0F1E0DE01119686E291E0CD
:104DF000219131912D933D938E179F07C9F7B4E709
:104E00008091EC049091ED04FB1621F08091E80470
:104E10009091E9046EEC71E00E94452D4C018114E3
:104E2000910409F4D1C0C4010E94172D8C0161EDD9
:104E300071E090E080E00E94452D4C01F12CE12CC6
:104E4000BB24B394009761F00E94172D7C0161EDA3
:104E500071E090E080E00E94452D4C01B2E0BB2E55
:104E6000F801EE0FFF1F21E030E02C0F3D1FE20F95
:104E7000F31FF182E0828091A302833609F0AAC079
:104E80008091A102833681F088E39CE00E94460A6B
:104E9000C090EC04D090ED0463E771E0C6010E947D
:104EA0009033C6010E942A12C80180579D4F6C01A1
:104EB00092E0B91202C0D601EC92C8018096880F28
:104EC000991F0E94340E7C01C8019927C0960E9448
:104ED000A10D182FF6016081062E000C770B880BB0
:104EE000990B0E94B52D2B013C01612F110F770BFF
:104EF000880B990B0E94B52D9B01AC01C301B20137
:104F00000E94142E2B013C01B701FF0C880B990B5A
:104F10000E94B52D9B01AC01C301B2010E94832FF9
:104F20000E946630072E000C880B990B0E94B52D4D
:104F3000AB01BC01802F0E94480E0E94D50C64ED8D
:104F400071E0CE0187960E94741400E912E0D80146
:104F50006D918D01062E000C770BCE0181960E947B
:104F600048144DA15EA169A17AA1CE0187960E9445
:104F7000D513CE0181960E94280D42E050E062EDEB
:104F800071E0CE0187960E94D513E0EAF2E0E017C7
:104F9000F107E9F6CE0187960E94660CCE0187964E
:104FA0000E94280D8114910409F039CF8091A30249
:104FB000893609F0A9CD40E050E060E070E4CE0110
:104FC00001960E945D0FA0CDF12CE12C10E000E0D5
:104FD000B12C46CF8D3649F440E050E060E070E4FB
:104FE000CE0101960E945D0FDDCF833541F4C801EB
:104FF00099270E94A10DB7010E94FA09D3CF8437E7
:1050000089F2853709F081C00E94BF2C2AE030E088
:1050100040E050E00E94E82E64526EA70E94BF2C30
:105020002AE030E040E050E00E94E82E6E526DA78A
:105030000E94BF2C6B017C010E94BF2C23E030E05A
:1050400040E050E00E94E82E6F5F68ABC701B601F8
:1050500024E030E040E050E00E94E82E6E5F7F4F99
:105060008F4F9F4F262F220F220F620F262F30E0E7
:10507000A8EEB3E00E94732F6AAB7BAB8CAB9DAB09
:10508000B12C3DA5232F30E03FAB2EAB48A9B41681
:1050900008F088CFADA4312C212C8EA5A81698F548
:1050A000CEA8DFA8C20CD31C8601000F111F000F71
:1050B000111F05501109CC0CDD1CF12CE12C412CE9
:1050C000512C32018AA99BA9ACA9BDA94816590641
:1050D0006A067B069CF461E085E00E94E902C80153
:1050E0000197F1F760E085E00E94E902C8010197AD
:1050F000F1F74C0C5D1C6E1C7F1CE4CFA3949FEF5A
:10510000291A390ACACFB394C1CF823609F04ACFDF
:10511000E114F10409F446CF88EE93E0B7010E9450
:105120008632072E000C880B990B0E94B52D2B019F
:105130003C01B801110F880B990B0E94B52DEE248C
:10514000E39402E310E0A30192010E941F152ACF0D
:10515000E6E0F1E0DE01119686E291E07D01219129
:1051600031912D933D938E179F07C9F710E000E012
:105170002091A30280918E0290918F020817190747
:10518000F4F4A091E804B091E904A00FB11FEC91F0
:10519000EE0FFF0BEE0DFF1D11968C91082E000CEB
:1051A000990B918380832D3439F440E050E060E026
:1051B00070E4C7010E945D0F0E5F1F4FD9CF2934E5
:1051C00009F0A2CC89E40E94850C40E050E060E840
:1051D00070E4C701F6CE8CE40E94850C6091040156
:1051E00070E090E080E00E94B32D9B01AC0100E0F4
:1051F00061E08091E8049091E9040E94A81084CCB9
:10520000F12C68EEC62E63E0D62E2F2D30E0809173
:105210008E0290918F0297FD01969595879528179C
:1052200039070CF022C20091E8041091E904220F22
:10523000331F020F131FD80111966C91062E000C1C
:10524000770BC6010E948632072E000C880B990B43
:105250000E94B52D4B015C01F8016081062E000C07
:10526000770B880B990B0E94B52DEE24E39410E088
:1052700000E0A50194010E941F15F394C6CF88E1B8
:1052800091E00E94340E0E9411090E941512809133
:10529000A3020E94850C8BE68093A30235CC86E1A5
:1052A00091E00E94340E8C010E94BF2C6B017C01A6
:1052B00086E191E00E94340E092E000CAA0BBB0B74
:1052C0002CE03EE140E050E0281B390B4A0B5B0B21
:1052D000C701B6010E94E82E060F171FB80188E12A
:1052E00091E00E948913A090E804B090E904D501F0
:1052F0006C916093B00285EB92E00E94A608019643
:105300007C01D12CC12C5524539434E5432E1E141A
:105310001F049CF55092C4024092C3021092C20234
:105320001092C102612F70E08EEA93E00E94C308E0
:10533000B80177278EEA93E00E94C30845018C0CE0
:105340009D1C3801B0E16B0E711C0115E0E21E07D7
:10535000B9F40E94620C8AEF91E00E94790C22E07D
:10536000E22E02E310E020E030E048EC52E460E09E
:1053700070E080E291E40E941F150E9415128BCF0D
:10538000FFEFCF1ADF0AD4016D914D018EEA93E051
:105390000E946C050F5F1F4FB1E0EB1AF10841F05E
:1053A000C8018F719927892B19F06016710669F66B
:1053B0008EEA93E00E949B056AE070E080E090E056
:1053C0000E947A03A4CF0091EC041091ED04B8017F
:1053D0008091EA049091EB040E948733892B29F491
:1053E0008091B00282300CF043C1C8010E942A12A1
:1053F0008BCB88ED9BE00E94460A86CB88E39CE03D
:10540000FACF0091EC041091ED0465ED71E0C80154
:105410000E949033C8010E942A120E94030987E665
:105420000E94850C71CB893421F08C3411F00E94DC
:10543000850C1091A302812F012E000C990B0E9464
:1054400076339091A1029B3609F068CB873641F004
:105450001A3631F01B7F103719F0863709F05ECB12
:105460008BE68093A3025ACB2C2D6202B00111244B
:10547000E6CB8091AC02803108F4CFC02091AA0223
:105480003091AB021092AC028091A002820F932F58
:10549000911D212F012E000C330B821793070CF066
:1054A000B8C09093AB028093AA028091AC02843082
:1054B00019F488E08093AC020091AC022091BE0206
:1054C000C090AA02D090AB02E02EF12C021708F097
:1054D000ADC012300CF4AAC0812C912C54010130C3
:1054E00059F06091AF02062E000C770B880B990BD8
:1054F0000E94B52D4B015C0132E0E30EF11CEC9CE7
:10550000B001ED9C700DFC9C700D1124072E000C59
:10551000880B990B0E94B52D2BED3FE049E450E438
:105520000E94142E6B017C01612F110F770B880BE9
:10553000990B0E94B52D9B01AC01C701B6010E94D9
:10554000F42F0E94303120E030E040E251E40E942C
:10555000142EA50194010E94832FAB01BC01802F62
:105560000E94B70E8091AC028F5F8093AC0283E4FF
:105570009DE00197F1F78091B00287FF3AC000915A
:10558000EC041091ED0464ED71E0C8010E949033C9
:10559000E091BF02F091C0028091B002082E000C91
:1055A000990B97FF03C091958195910901972091DF
:1055B000B502289FD001299FB00D1124AE0FBF1F47
:1055C000CF0140962D9121938E179F07D9F781E047
:1055D0008093B0021092AB021092AA02F80180816F
:1055E000882319F0C8010E942A128091A3020E9408
:1055F000850C80E090E0892B11F40C94451E0E94EC
:10560000FD01882311F40C94451E0E9400000C94A7
:10561000451E1092AB021092AA028091AC02823019
:1056200009F043CF88E08093AC023FCF3091B502C0
:105630003C9DC0013D9D900D1124E80EF91EE21A1B
:10564000F1088091BF029091C002E80EF91E6091AE
:10565000BA02D7012C912603B0011124072E000CA9
:10566000880B990B0E94B52D78CF8091A302DFCED5
:105670008F2D4FCA8AEA94E00E94280D84EA94E0B4
:105680000E94280D80EB94E00E94320D89EC94E09A
:105690000E94320D82EE94E00C94280D0F931F931C
:1056A000CF93DF938230910510F482E090E0E09197
:1056B000F204F091F30430E020E0B0E0A0E0309795
:1056C00099F42115310509F44AC0281B390B2430FF
:1056D0003105D8F58A819B816115710589F1FB013E
:1056E00093838283FE0111C0408151810281138125
:1056F00048175907E0F04817590799F4109761F0D7
:1057000012960C93129713961C933296CF01DF9149
:10571000CF911F910F9108950093F2041093F30419
:10572000F4CF2115310551F04217530738F0A90184
:10573000DB019A01BD01DF01F801C1CFEF01F9CF13
:105740009093F3048093F204CDCFFE01E20FF31F98
:10575000819391932250310939832883D7CF2091A7
:10576000F0043091F104232B41F420912801309171
:1057700029013093F1042093F00420912601309107
:1057800027012115310541F42DB73EB740912A017B
:1057900050912B01241B350BE091F004F091F104A2
:1057A000E217F307A0F42E1B3F0B2817390778F0F8
:1057B000AC014E5F5F4F2417350748F04E0F5F1F57
:1057C0005093F1044093F004819391939FCFF0E0C4
:1057D000E0E09CCFCF93DF930097E9F0FC01329794
:1057E00013821282A091F204B091F304ED0130E033
:1057F00020E01097A1F420813181820F931F209126
:10580000F0043091F1042817390709F061C0F093D2
:10581000F104E093F004DF91CF910895EA01CE17EF
:10582000DF07E8F54A815B819E0141155105B1F71B
:10583000E901FB83EA8349915991C40FD51FEC1705
:10584000FD0761F4808191810296840F951FE90123
:1058500099838883828193819B838A83F0E0E0E04F
:1058600012968D919C9113970097B9F52D913C91CB
:105870001197CD010296820F931F2091F004309171
:10588000F1042817390739F6309751F51092F304CF
:105890001092F204B093F104A093F004BCCFD38330
:1058A000C28340815181840F951FC817D90761F4C5
:1058B0004E5F5F4F88819981480F591F5183408304
:1058C0008A819B81938382832115310509F0B0CFB2
:1058D000F093F304E093F2049ECFFD01DC01C0CF0E
:1058E00013821282D7CF8F929F92AF92BF92CF92A4
:1058F000DF92EF92FF92CF93DF93EC016881798181
:105900008A819B81611571058105910521F464E20D
:1059100079ED8BE597E02DE133EF41E050E00E9417
:10592000E82E49015A019B01AC01A7EAB1E40E94AB
:10593000072F6B017C01ACEEB4EFA50194010E942E
:10594000152FC60ED71EE81EF91EF7FE06C081E011
:10595000C81AD108E10880E8F80AC882D982EA8228
:10596000FB82C701B6019F77DF91CF91FF90EF9047
:10597000DF90CF90BF90AF909F908F9008958F92BF
:105980009F92AF92BF92CF92DF92EF92FF9260917F
:105990002C0170912D0180912E0190912F016115A4
:1059A00071058105910521F464E279ED8BE597E0BD
:1059B0002DE133EF41E050E00E94E82E49015A0109
:1059C0009B01AC01A7EAB1E40E94072F6B017C01A7
:1059D000ACEEB4EFA50194010E94152FC60ED71EA0
:1059E000E81EF91EF7FE06C081E0C81AD108E108DA
:1059F00080E8F80AC0922C01D0922D01E0922E018D
:105A0000F0922F01C701B6019F77FF90EF90DF90D2
:105A1000CF90BF90AF909F908F90089560932C018E
:105A200070932D0180932E0190932F010895FC0116
:105A300088279927E89421912032E9F3293010F042
:105A40002E30C8F32B3241F02D3239F4689404C063
:105A50000E947C2D820F911D219120532A30C0F38A
:105A60001EF4909581959F4F0895FB01DC010590F0
:105A70000D920020E1F70895FC0105900020E9F760
:105A8000809590958E0F9F1F08954EEE54E00E94D2
:105A90004A2D0895FA01A191B081009719F4109749
:105AA000E1F0CD01DC01CD010D90002011F4C00129
:105AB00013C0FB012191222319F02015D9F7F3CF50
:105AC000FB012191201519F41E92119606C0222384
:105AD000C1F70D900020A1F7D001FA01A193B08386
