:100000000C943C070C9464070C9464070C946407EC
:100010000C9464070C9464070C9464070C940A20F5
:100020000C9464070C9464070C9464070C942722C6
:100030000C9464070C9464070C9464070C94640794
:100040000C94BE200C9464070C948C200C946620B5
:100050000C9464070C9464070C9464070C94640774
:100060000C9408210C946407084AD73B3BCE016EE0
:1000700084BCBFFDC12F3D6C74319ABD56833DDAFF
:100080003D00C77F11BED9E4BB4C3E916BAAAABE0E
:10009000000000803F05A84CCDB2D44EB93836A937
:1000A000020C50B9918688083CA6AAAA2ABE000074
:1000B00000803F07634236B79BD8A71A39685618A5
:1000C000AEBAAB558C1D3CB7CC5763BD6DEDFD751D
:1000D0003EF6177231BF000000803F08000000BEEE
:1000E000922449123EABAAAA2ABECDCCCC4C3E00EB
:1000F000000080BEABAAAAAA3E00000000BF00001C
:1001000000803F0000000000084178D3BB4387D146
:10011000133D190E3CC3BD4282AD2B3E68EC827686
:10012000BED98FE1A93E4C80EFFFBE01C4FF7F3FE7
:1001300000000000000001000001000000000000BD
:10014000000000000000000000000000000023008C
:100150002600290000000008000201000003040737
:1001600000000000000000000200F8F62A3F68F5D9
:100170007A0006FFFE0003000000650054FFEF0058
:1001800000FA80000B12820001030C30C30A74567F
:100190002D0D62DBC716F4BA023883F8833000F8FD
:1001A00083258EF8833000F883FFFFFFFF0CBDD856
:1001B00011240004001A8279A10036003C000000DE
:1001C000000010000038836FA2003E0330400000A2
:1001D0000002CAE3093E8000002000000000000089
:1001E0000040000000600000001FA4E8E4FFF5DC10
:1001F000B9005B79CF1F3F787600867C5A00862352
:1002000047FAB986310074878A0000000000004375
:1002100005FFFFE9A800002182FAB84D46FFFADF8A
:100220003DFFFFB2B3000000003FFFBA98005DAC95
:1002300008000A637800014621FFFF000000004229
:10024000B500060064006400061406029F0F479183
:1002500032D90E9FC91DCF4C343BB67AE8006400FA
:100260000600C800000000FFFE10000000000000B3
:1002700000000000000000000000070000FFF10087
:1002800000FA460000A2B800001000000004D600EA
:100290000004CC000004CC000000000000000000BE
:1002A0000000000000000000000006000200050041
:1002B00007000000000064000000000000000000D3
:1002C0000C00050064002000000000000000000099
:1002D00000000040000000030000000032F8980019
:1002E00000FF650000830F000000060000FFF10022
:1002F00000FA460000A2B800000000000000000064
:1003000000000000000000000000000032000000BB
:1003100000000000000000100000000001000000CC
:100320000D0000B26A000200000001FB83007C00A7
:1003300000FB15FC001FB4FF8300000001006500F6
:1003400007006403E8006400280000FFFD000000CF
:100350000016A000000000000000001000002F00A8
:1003600000000001F40000100000280000FFFF451D
:1003700081FFFFFA7200000000000000000044004E
:10038000010005BAC6004778A20000000000000086
:10039000000000060000000014000023BB002EA295
:1003A0005B00000568000BCF490004FFFD00020060
:1003B000000000000200000000001B000000000020
:1003C00000000000000000000000640007000800BA
:1003D000060006FFFE000000000000000000000014
:1003E000000000000000000000000000000000000D
:1003F00000000000000000000000000000000000FD
:10040000000000000000000000002EA25B000005BC
:1004100068000BCF490000000000F8F62A3F68F59D
:100420007A0004FFFD00020000001B000000000035
:100430000000000000000E000EFFFFFFCF000400D0
:100440000000000032FFFFFF9C0000430500000099
:10045000000000000100000064FFE5000000000053
:10046000000000000000000000000000010000008B
:100470000000010000000000000001800000018079
:100480000000018000002426D300010001000000CC
:1004900000000600100096003C0000000000000074
:1004A00000000000001F9E655D0C0A4E68CDCF77EE
:1004B0000950166759C619CE8200000000000000DE
:1004C00000000000000047711C0000000000000058
:1004D0000017D78400030000000011DC4703000070
:1004E00000C7938F9D1E1B1C19FFFFFFFF0000001C
:1004F000000EDFA4381F9E655D00000000004771FC
:100500001C020318850000400000000000000000ED
:100510000300000000000000003FFFFFFDFFFFF4AC
:10052000C9FFFFBCF000010C0F000000000000003C
:1005300000000000000000000000000000000000BB
:10054000000000000000000000F5B7BAB3677DDFCF
:100550007E72902E554CF6E68800000000000000E8
:10056000000000000000000000D8DCB4B8B0D8B92A
:10057000ABF3F8FAB3B7BB8E9EAEF132F51BF1B414
:10058000B8B08097F1A9DFDFDFAADFDFDFF2AA4C86
:10059000CD6CA90CC92C97F1A989264666B2899918
:1005A000A92D557DB0B08AA896365676F1BAA3B477
:1005B000B280C0B8A89711B28398BAA3F0240844B7
:1005C000106418B2B9B49883F1A329557DBAB5B1B6
:1005D000A38393F0002850F5B2B6AA839328547CE5
:1005E000F1B9A3829361BAA2DADEDFDB819AB9AEF8
:1005F000F5606870F1DABAA2DFD9BAA2FAB9A382BB
:1006000092DB31BAA2D9BAA2F8DF85A4D0C1BBADC2
:1006100083C2C5C7B8A2DFDFDFBAA0DFDFDFD8D86B
:10062000F1B8AAB38DB4980D355DB2B6BAAF8C9659
:10063000198F9FA70E161EB49AB8AA872C547CBA9D
:10064000A4B08AB691325676B28494A4C808CDD8A4
:10065000B8B4B0F19982A82D557D98A80E161EA2A7
:100660002C547C92A4F02C5078F184A898C4CDFC32
:10067000D80DDBA8FC2DF3D9BAA6F8DABAA6DED8D5
:10068000BAB2B68696A6D0F3C841DAA6C8F8D8B0F2
:10069000B4B882A892F52C548898F135D9F418D8BA
:1006A000F1A2D0F8F9A884D9C7DFF8F883C5DADF5A
:1006B00069DF83C1D8F40114F1A8824EA884F31134
:1006C000D182F5D992289788F109F41C1CD884A806
:1006D000F3C0F9D1D99782F129F40DD8F3F9F9D102
:1006E000D982F4C203D8DEDF1AD8F1A2FAF9A884BD
:1006F00098D9C7DFF8F8F883C7DADF69DFF883C372
:10070000D8F40114F198A8822EA884F311D182F5AF
:10071000D992509788F109F41CD884A8F3C0F8F94D
:10072000D1D99782F149F40DD8F3F9F9D1D982F4EE
:10073000C403D8DEDFD8F1AD8898CCA809F9D982F6
:1007400092A8F57CF1883ACF944A6E98DB6931DA49
:10075000ADF2DEF9D88795A8F221D1DAA5F9F41720
:10076000D9F1AE8ED0C0C3AE82C684C3A88595C869
:10077000A588F2C0F1F4010EF18E9EA8C63E56F592
:1007800054F18872F40115F19845856EF58E9E043A
:1007900088F142985A8E9E068869F4011CF1981ED1
:1007A0001108D0F504F11E970202983625DBF9D91D
:1007B00085A5F3C1DA85A5F3DFD88595A8F309DA15
:1007C000A5FAD88292A8F578F1881A849F2688988D
:1007D00021DAF41DF3D8879F39D1AFD9DFDFFBF9D8
:1007E000F40CF3D8FAD0F8DAF9F9D0DFD9F9D8F463
:1007F0000BD8F3879F39D1AFD9DFDFF41DF3D8FAD7
:10080000FCA869F9F9AFD0DADEFAD9F88F9FA8F120
:10081000CCF398DB45D9AFDFD0F8D8F18F9FA8CAC9
:10082000F38809DAAF8FCBF8D8F2AD978D0CD9A544
:10083000DFF9BAA6F3FAF412F2D8950DD1D9BAA617
:10084000F3FADAA5F2C1BAA6F3DFD8F1BAB2B686E6
:1008500096A6D0CAF349DAA6CBF8D8B0B4B8D8ADCA
:1008600084F2C0DFF18FCBC3A8B2B68696C8C1CBE5
:10087000C3F3B0B48898A821DB718D9D7185952153
:10088000D9ADF2FAD88597A828D9F408D8F28D29DD
:10089000DAF405D9F285A4C2F2D8A88D9401D1D991
:1008A000F411F2D88721D8F40AD8F28498A8C801A4
:1008B000D1D9F411D8F3A4C8BBAFD0F2DEF8F8F860
:1008C000F8F8F8F8F8D8F1B8F6B5B9B08A95A3DE1B
:1008D0003CA3D9F8D85CA3D9F8D87CA3D9F8D8F828
:1008E000F9D1A5D9DFDAFAD8B18530F7D9DED8F851
:1008F00030ADDADED8F2B48C99A32D557DA083DF1C
:10090000DFDFB591A0F629D9FBD8A0FC29D9FAD808
:10091000A0D051D9F8D8FC51D9F9D879D9FBD8A0B1
:10092000D0FC79D9FAD8A1F9F9F9F9F9A0DADFDF21
:10093000DFD8A1F8F8F8F8F8ACDEF8ADDE8393ACB8
:100940002C547CF1A8DFDFDFF69D2CDAA0DFD9FA8A
:10095000DB2DF8D8A850DAA0D0DED9D0F8F8F8DB33
:1009600055F8D8A878DAA0D0DFD9D0FAF8F8F8F896
:10097000DB7DF8D89CA88CF530DB38D9D0DEDFA041
:10098000D0DEDFD8A848DB58D9DFD0DEA0DFD0DE4C
:10099000D8A868DB70D9DFDFA0DFDFD8F1A88890A6
:1009A0002C547C98A8D05C38D1DAF2AE8CDFF9D820
:1009B000B087A8C1C1B188A8C6F9F9DA36D8A8F9B4
:1009C000DA36D8A8F9DA36D8A8F9DA36D8A8F9DAB2
:1009D00036D8F78D9DADF818DAF2AEDFD8F7ADFA5C
:1009E00030D9A4DEF9D8F2AEDEFAF983A7D9C3C5AF
:1009F000C7F1889BA77AADF7DEDFA4F8849408A737
:100A000097F300AEF29819A488C6A39488F632DF53
:100A1000F28393DB09D9F2AADFD8D8AEF8F9D1DA9C
:100A2000F3A4DEA7F1889B7AD8F38494AE19F9DA9F
:100A3000AAF1DFD8A881C0C3C5C7A39283F628ADA9
:100A4000DED9F8D8A350ADD9F8D8A378ADD9F8D865
:100A5000F8F9D1A1DADEC3C5C7D8A18194F818F29C
:100A6000B089ACC3C5C7F1D8B8B4B09786A8319BDC
:100A7000069907AB9728889BF00C201440B0B4B8B7
:100A8000F0A88A9A285078B79BA8295179247059E0
:100A9000446938644831F1BBAB88002C547CF0B316
:100AA0008BB8A804285078F1B088B49726A8599834
:100AB000BBABB38B02264666B0B8F08A9CA829511E
:100AC000798B2951798A2470598B2058718A44690D
:100AD000388B3940688A6448318B30496088F1AC82
:100AE000002C547CF08CA804285078F1889726A814
:100AF0005998AC8C02264666F0899CA82951792425
:100B00007059446938644831A98809205970AB117B
:100B1000384069A8193148608CA83C415C207C00B1
:100B2000F187981986A86E767EA999882D557DD86B
:100B3000B1B5B9A3DFDFDFAED0DFAAD0DEF2ABF80C
:100B4000F9D9B087C4AAF1DFDFBBAFDFDFB9D8B115
:100B5000F1A3978E60DFB084F2C8F8F9D9DED8939C
:100B600085F14AB183A308B5839A0810B79F10D8BE
:100B7000F1B0BAAEB08AC2B2B68E9EF1FBD9F41D06
:100B8000D8F9D90CF1D8F8F8AD61D9AEFBD8F40C8E
:100B9000F1D8F8F8AD19D9AEFBDFD8F416F1D8F8D2
:100BA000AD8D61D9F4F4ACF59C9C8DDF2BBAB6AE5B
:100BB000FAF8F40BD8F1AED0F8AD51DAAEFAF8F19C
:100BC000D8B9B1B6A3839C08B9B1839AB5AAC0FDC0
:100BD0003083B79F10B58B93F20202D1ABDADED827
:100BE000F1B080BAABC0C3B284C1C3D8B1B9F38B82
:100BF000A391B609B4D9ABDEB0879CB9A3DDF1B33C
:100C00008B8B8B8B8BB08720283038B28BB69BF2C6
:100C1000A3C0C8C2C4CCC6A3A3A3F1B087B59AD859
:100C2000F39BA3A3DCBAACDFB9A3FEF2ABC4AAF179
:100C3000DFDFBBAFDFDFA3A3A3D8D8D8BBB3B7F147
:100C4000AAF9DAFFD9809AAA28B48098A720B79782
:100C500087A86688F07951F1902C870CA78197625C
:100C600093F071716085940129517990A5F1284C18
:100C70006C870C95188578A38390284C6C886CD869
:100C8000F3A28200F210A8921980A2F2D926D8F11C
:100C900088A84DD948D896A83980D93CD89580A83D
:100CA00039A68698D92CDA87A72CD8A8899519A9AE
:100CB00080D938D8A88939A980DA3CD8A82EA83993
:100CC00090D90CD8A8953198D90CD8A809D9FFD8B3
:100CD00001DAFFD89539A9DA26FFD890A80D8999AD
:100CE000A810809821DA2ED88999A83180DA2ED8D8
:100CF000A886963180DA2ED8A8873180DA2ED8A837
:100D00008292F34180F1D92ED8A882F31980F1D9CB
:100D10002ED882ACF3C0A28022F1A62EA72EA92243
:100D200098A829DAACDEFFD8A2F22AF1A92E829285
:100D3000A8F23180A696F1D900AC8C9C0C30ACDEC8
:100D4000D0DEFFD88C9CACD010ACDE8092A2F24CEE
:100D500082A8F1CAF235F19688A6D900D8F1FF44ED
:100D60004D50206661696C65642028636F6465205E
:100D700000496E697420494D5500000000002500AF
:100D800028002B0000000000240027002A00040493
:100D90000404040404040202020202020303030323
:100DA00003030102040810204080010204081020FF
:100DB0000102040810204D487A00496E69742073BE
:100DC0006572766F733A20004C6F616420736B69B3
:100DD0006C6C730052656164792100426974746CB3
:100DE00065000A2A205374617274202A004C6F77C0
:100DF00020706F7765723A007A65726F006A7900C9
:100E0000636B0070656500707500686900737472CB
:100E10000073697400747200776B006372007674FB
:100E200000630042007000520062616C616E636595
:100E3000004C00670046006400493243204545509D
:100E4000524F4D206F766572666C6F772120446536
:100E50006C65746520736F6D6520736B696C6C7362
:100E6000210A0061626F7274656400736176656463
:100E7000003F00001423DB3311241FBECFEFD8E066
:100E8000DEBFCDBF11E0A0E0B1E0EAE3FAE702C0C7
:100E900005900D92A639B107D9F725E0A6E9B1E092
:100EA00001C01D92AA32B207E1F717E0CBE3D7E009
:100EB00004C02197FE010E94EE3BCA33D107C9F757
:100EC0000E94A8230C94103D0C94000091E0909394
:100ED00055038093540310925303109252030895C4
:100EE00080E090E0A0E0B0E48093F6029093F702F7
:100EF000A093F802B093F902E0911E05F0911F054E
:100F00008181082E000C990B9093FC028093FB02C8
:100F10001092F0028281082E000C990B9093FE0231
:100F20008093FD021092EF0283818093FF029091E3
:100F3000F50297FF0FC08481809300038581809321
:100F4000010386818093020387E040E050E060E087
:100F50007FE307C084E040E050E060E87FE3913049
:100F6000A1F74093EA025093EB026093EC02709376
:100F7000ED02923054F098E090930303E80FF11DD6
:100F8000F0930503E0930403089590E0F5CF80917A
:100F9000E6029091E702891B990B08950895089540
:100FA0000895AF92BF92CF92DF92EF92FF920F938C
:100FB0001F93CF93DF936C017B018B01040F151FEF
:100FC000EB015E01AE18BF08C017D10759F0699157
:100FD000D601ED91FC910190F081E02DC6010995BB
:100FE000892B79F7C501DF91CF911F910F91FF9068
:100FF000EF90DF90CF90BF90AF900895FC01538D9C
:10100000448D252F30E0842F90E0821B930B5417E2
:1010100010F0CF96089501970895FC01918D828D6F
:10102000981761F0A28DAE0FBF2FB11D5D968C9108
:10103000928D9F5F9F73928F90E008958FEF9FEF47
:101040000895FC01918D828D981731F0828DE80F03
:10105000F11D858D90E008958FEF9FEF0895FC01BD
:10106000918D228D892F90E0805C9F4F821B91098A
:101070008F739927089586E593E00E942F0821E059
:10108000892B09F420E0822F089580E090E0892BDD
:1010900029F00E943B0881110C9400000895FC0186
:1010A000A48DA80FB92FB11DA35ABF4F2C91848DC9
:1010B00090E001968F739927848FA689B7892C9326
:1010C000A089B1898C91837080648C93938D848D79
:1010D000981306C00288F389E02D80818F7D80837C
:1010E0000895EF92FF920F931F93CF93DF93EC013C
:1010F00081E0888F9B8D8C8D98131AC0E889F989BF
:10110000808185FF15C09FB7F894EE89FF896083C1
:10111000E889F98980818370806480839FBF81E042
:1011200090E0DF91CF911F910F91FF90EF90089584
:10113000F62E0B8D10E00F5F1F4F0F731127E02E5F
:101140008C8D8E110CC00FB607FCFACFE889F98997
:10115000808185FFF5CFCE010E944F08F1CFEB8D46
:10116000EC0FFD2FF11DE35AFF4FF0829FB7F8946B
:101170000B8FEA89FB8980818062CFCF682F86E55B
:1011800093E00C9471080F931F93CF93DF938C011E
:10119000D0E0C0E0F801EC0FFD1F6491662341F040
:1011A00086E593E00E947108892B11F02196F2CF19
:1011B000CE01DF91CF911F910F910895CF93DF93CF
:1011C000EC01888D8823B9F0AA89BB89E889F9895F
:1011D0008C9185FD03C0808186FD0DC00FB607FC94
:1011E000F7CF8C9185FFF2CF808185FFEDCFCE01C7
:1011F0000E944F08E9CFDF91CF910895833081F0AD
:1012000028F4813099F08230A9F008958730A9F050
:101210008830C9F08430B1F4809180008F7D03C0A4
:10122000809180008F7780938000089584B58F77B8
:1012300084BD089584B58F7DFBCF8091B0008F77FA
:101240008093B00008958091B0008F7DF9CF1F93F7
:10125000CF93DF93282F30E0F901EC5AFE4F8491B1
:10126000F901EE55F24FD491F901E257F24FC491D2
:10127000CC23A9F0162F81110E94FE08EC2FF0E07C
:10128000EE0FFF1FE658F24FA591B4918FB7F89477
:10129000EC91111108C0D095DE23DC938FBFDF9154
:1012A000CF911F910895DE2BF8CF90910001891303
:1012B0000BC0E8E6F1E0E4919FEF90930001E1308C
:1012C00049F028F0E23061F060E00C9427091092B8
:1012D0006E00FACF90916F009D7F90936F00F4CFD6
:1012E000909170009D7F9093700091E09093B0007A
:1012F0009091B100987F94609093B1001092B300E8
:10130000E3CF8E50806480937C0080917A0080646B
:1013100080937A0080917A0086FDFCCF80917800DE
:101320009091790008953FB7F89480914902909187
:101330004A02A0914B02B0914C0226B5A89B05C071
:101340002F3F19F00196A11DB11D3FBFBA2FA92F44
:10135000982F8827BC01CD01620F711D811D911D41
:1013600042E0660F771F881F991F4A95D1F70895AD
:101370008F929F92AF92BF92CF92DF92EF92FF92A5
:101380006B017C010E9493094B015C01C114D104E3
:10139000E104F104B9F00E949309681979098A09F6
:1013A0009B09683E73408105910580F321E0C21AD4
:1013B000D108E108F10888EE880E83E0981EA11C90
:1013C000B11CE4CFFF90EF90DF90CF90BF90AF9033
:1013D0009F908F9008952FB7F89460914502709177
:1013E000460280914702909148022FBF08950F93C3
:1013F0001F930E94EB0960935E0370935F038093D9
:1014000060039093610386E593E00E940D0897FFC7
:101410001DC00E94EB0900915E0310915F032091B3
:10142000600330916103601B710B820B930B009181
:101430005A0310915B0320915C0330915D036017A8
:10144000710782079307F8F28FEF9FEF1F910F91BB
:10145000089520912102260F3327331F21323105B1
:10146000ECF420914C03FC0190E080E0243069F022
:1014700082E00895A09121022191AC014F5F5D4F60
:10148000A40FB52FB11D2C930196861798F3809168
:101490002102680F6093210280E0089581E00895A1
:1014A00010924C0381E080932B031092260361E09D
:1014B00082E10E94270961E083E10E942709E9EBAC
:1014C000F0E080818E7F808380818D7F808388E4BF
:1014D0008093B80085E48093BC000895CF93DF9398
:1014E00091E0909300028823B9F0C091B800D091A8
:1014F000BA008091BC008A7B8093BC0060E082E1EE
:101500000E94270960E083E10E9427090E94500A97
:10151000D093BA00C093B800DF91CF910895CF92D5
:10152000DF92EF92FF920F931F93CF93DF93D82F09
:10153000C62F613208F098C00E9493096B017C01AC
:1015400080914C0381116BC081E080934C038093A8
:101550002B039FEF90932A03109229039C0F9093E3
:1015600028038093270380912703DD0FD82BD09386
:10157000270380912603813009F078C0109226035A
:101580000E9493096B017C01809127038093BB002B
:1015900080914E0390914F03A0915003B09151035D
:1015A000892B8A2B8B2BA1F00E94930900914E036B
:1015B00010914F0320915003309151036C197D0914
:1015C0008E099F09061717072807390708F448C02E
:1015D0008091BC0083FDD8CF85EC8093BC000E9435
:1015E00093096B017C0180914C03813009F440C068
:1015F000809129038C1710F4C0912903E6E0F3E0F1
:10160000ACE2B3E080E08C1355C08C2FDF91CF911A
:101610001F910F91FF90EF90DF90CF9008958091F0
:101620004E0390914F03A0915003B0915103892B29
:101630008A2B8B2B09F484CF0E94930900914E03CF
:1016400010914F0320915003309151036C197D0983
:101650008E099F09061717072807390708F070CF6A
:1016600080914D030E946E0AC0E0CFCF85EEB5CFCA
:1016700080914E0390914F03A0915003B09151037C
:10168000892B8A2B8B2B09F4AECF0E9493090091F2
:101690004E0310914F0320915003309151036C1968
:1016A0007D098E099F09061717072807390708F0D3
:1016B0009ACFD6CF91919D938F5FA5CF0895E0915A
:1016C000E7028091E602E81730F4F0E0E45DFC4FB9
:1016D000808190E008958FEF9FEF08959091E70249
:1016E0008091E6022FEF3FEF981748F4E92FF0E0E2
:1016F000E45DFC4F208130E09F5F9093E702C901D9
:101700000895CF92DF92EF92FF920F931F93CF93A2
:10171000DF937C01CB018A0120915503222389F0BC
:10172000EB016B01C40ED51ECC15DD0569F0699186
:10173000D701ED91FC910190F081E02DC701099551
:10174000F3CF642F0E94290AC801DF91CF911F9126
:101750000F91FF90EF90DF90CF900895CF93DF939C
:101760001F92CDB7DEB76983209155032223F9F08C
:1017700020915203203258F021E030E0FC01338305
:10178000228390E080E00F90DF91CF9108958091C7
:101790005303E82FF0E0E052FE4F998190838F5F72
:1017A000809353038093520381E090E0ECCF61E09B
:1017B000CE0101960E94290AF7CFCF92DF92EF92D5
:1017C000FF920F931F93CF93DF93D091520381E049
:1017D000D13208F09CC0C09154030E9493096B0160
:1017E0007C0180914C0381116CC082E080934C039A
:1017F00081E080932B038FEF80932A0310922903BB
:10180000D0932803A0EEB1E0E6E0F3E080E0D81347
:101810008DC01092270380912703CC0FC82BC09353
:10182000270380912603813009F084C0109226039B
:101830000E9493096B017C01809127038093BB0078
:1018400080914E0390914F03A0915003B0915103AA
:10185000892B8A2B8B2BA1F00E94930900914E03B8
:1018600010914F0320915003309151036C197D0961
:101870008E099F09061717072807390708F442C081
:101880008091BC0083FDD8CF85EC8093BC000E9482
:1018900093096B017C0180914C03823009F44CC0A8
:1018A00080912A038F3F09F469C080912A03803216
:1018B00009F466C080912A03803309F463C084E090
:1018C00026C080914E0390914F03A0915003B09198
:1018D0005103892B8A2B8B2B09F483CF0E94930908
:1018E00000914E0310914F0320915003309151030A
:1018F0006C197D098E099F090617170728073907F4
:1019000008F06FCF80914D030E946E0A85E010921F
:1019100053031092520310925503DF91CF911F9100
:101920000F91FF90EF90DF90CF9008959D9191934C
:101930008F5F6DCF85EEA9CF80914E0390914F03BD
:10194000A0915003B0915103892B8A2B8B2B09F462
:10195000A2CF0E94930900914E0310914F03209152
:101960005003309151036C197D098E099F090617A8
:1019700017072807390708F08ECFC4CF80E0C7CFFC
:1019800082E0C5CF83E0C3CF1F93CF93DF93162FA1
:10199000EA010E946607612F83EF93E00E94AE0B7D
:1019A000698183EF93E00E94AE0B688183EF93E03F
:1019B0000E94AE0B83EF93E00E94DD0B91E081115A
:1019C00090E0892FDF91CF911F91089590E080E002
:1019D0000895FF920F931F93CF93DF93C62F042F89
:1019E000F22E132F0E9466076C2F83EF93E00E9464
:1019F000AE0BCF2DD12F0C0F1D2F111DC017D107EE
:101A000031F0699183EF93E00E94AE0BF7CF83EF43
:101A100093E00E94DD0B91E0811190E0892FDF912E
:101A2000CF911F910F91FF900895CF93DF931F9255
:101A3000CDB7DEB749839E012F5F3F4F41E00E9443
:101A4000E90C0F90DF91CF9108950F931F93CF93DF
:101A5000DF93EC01062F142F88810E94660789818D
:101A60009A81DC01ED91FC910190F081E02D602FD5
:101A7000099589819A81DC01ED91FC910190F081B9
:101A8000E02D612F099589819A81DF91CF911F9176
:101A90000F910C94DD0BDC01ED91FC910190F08134
:101AA000E02D0994FC0187E094E1161634F484E0FB
:101AB00098E0613011F484E090E19083062E000CF0
:101AC000770B77FF03C0719561957109969FA0010F
:101AD000979F500D1124840F952F911D0895DC01BF
:101AE000ED91FC910190F081E02D0994FF920F930C
:101AF0001F93CF93DF93EC01162FF42E052F8881CF
:101B00000E94660784E0189FB00111246A5F7F4F2E
:101B100089819A810E946F0D70E060E089819A81CD
:101B20000E944B0D70E060E089819A810E944B0D0C
:101B30006F2D702F89819A810E944B0D602F70E06C
:101B400089819A810E944B0D89819A81DF91CF9181
:101B50001F910F91FF900C94DD0BCF93C0E040E0FC
:101B600050E16C2F82ED94E00E94760DCF5FC03182
:101B7000B1F7CF9108952F923F924F925F926F925B
:101B80007F928F929F92AF92BF92CF92DF92EF920D
:101B9000FF920F931F93CF93DF9300D000D000D01C
:101BA0001F92CDB7DEB78C832D83262F30E0A8EEB1
:101BB000B3E00E9404384B015C011982842F90E04D
:101BC0009B838A8399812C81921709F447C08A816B
:101BD0009B819F838E8310E000E09D812E812917D9
:101BE000C8F58E819F81C29787369A4358F5CA807F
:101BF000DB80C00ED11E1601220C331C220C331CBC
:101C000085E0281A3108CC0CDD1CF12CE12C412C8C
:101C1000512C3201481459046A047B049CF461E09D
:101C200085E00E942709C1010197F1F760E085E096
:101C30000E942709C1010197F1F74C0C5D1C6E1C35
:101C40007F1CE8CF0F5F1F4F8E819F8101969F837E
:101C50008E83C3CF99819F5F9983B4CF27960FB6A8
:101C6000F894DEBF0FBECDBFDF91CF911F910F91D2
:101C7000FF90EF90DF90CF90BF90AF909F908F90AC
:101C80007F906F905F904F903F902F9008959F921C
:101C9000AF92BF92CF92DF92EF92FF920F931F937A
:101CA000CF93DF93EC0184E50E9466076D2F70E00F
:101CB00083EF93E00E946F0DBE01772783EF93E0DF
:101CC0000E946F0D83EF93E00E94DD0B61E084E5DD
:101CD0000E948F0A1092E7028093E60283EF93E05E
:101CE0000E946E0BC0901E05D0901F05F6018083E8
:101CF0008093F502682F8AEF92E00E94520DEC016A
:101D0000F12CE12C1C161D064CF56C2FCF31D105A2
:101D10000CF06EE184E50E948F0A982E1092E70283
:101D20008093E6025E01FEE1AF1AB1088E01809158
:101D3000E702981659F083EF93E00E946E0B9FEF35
:101D4000E91AF90AF601EE0DFF1D80830150110911
:101D500029F0E5010A151B0551F7D4CFDF91CF918A
:101D60001F910F91FF90EF90DF90CF90BF90AF90B9
:101D70009F9008952F923F924F925F926F927F9221
:101D80008F929F92AF92BF92CF92DF92EF92FF928B
:101D90000F931F93CF93DF9300D000D0CDB7DEB762
:101DA000782E662E4C833A8329830E94EB096B01BF
:101DB0007C01512C1B822C81222E312C4801B12C0C
:101DC000A12C8C81581608F049C0872D0E94660707
:101DD000662D83EF93E00E94AE0B83EF93E00E94A9
:101DE000DD0B872D0E946607B1016519710961320B
:101DF000710514F060E270E0613208F060E2872D56
:101E00000E948F0A482E1092E7028093E60280918A
:101E1000E7024816E9F00115110579F483EF93E024
:101E20000E946E0BE981FA819B81E90FF11D97FDFC
:101E3000FA9580839F5F9B83EACF0E94EB096C1920
:101E40007D098E099F09681579058A059B0530F380
:101E50008C81813208F080E2580EB3CF0115110554
:101E6000C1F00E94EB096C197D098E099F0930E0D1
:101E700020E0601771078207930758F02B81822FAB
:101E8000220F990B2C812817190619F014F08FEFE7
:101E90008B838B810F900F900F900F90DF91CF91DC
:101EA0001F910F91FF90EF90DF90CF90BF90AF9078
:101EB0009F908F907F906F905F904F903F902F906A
:101EC00008950F931F93CF93DF93C5E0D5E008EEFD
:101ED00013E026E035E042E062E788810E94BA0E16
:101EE00089819A81982789279827DF91CF911F911F
:101EF0000F910895CF92DF92EF92FF920F931F936D
:101F0000CF93DF931F92CDB7DEB7F82EE62EC42E07
:101F1000D22E08EE13E09E012F5F3F4F41E00E945A
:101F2000BA0E81E090E001C0880FCA94EAF74981B7
:101F3000DD2081F0482B49836E2D8F2D0E94150DD9
:101F40000F90DF91CF911F910F91FF90EF90DF9055
:101F5000CF90089580954823EECFBF92CF92DF9225
:101F6000EF92FF920F931F93CF93DF931F92CDB702
:101F7000DEB7F82EE62EC42EB22ED02E08EE13E0D9
:101F80009E012F5F3F4F41E00E94BA0E882371F1FE
:101F90008C2D8B19990BAC014F5F5F4F81E090E066
:101FA00002C0880F991FBA94E2F70197042E01C06E
:101FB000880F0A94EAF70D2D01C0000F4A95EAF741
:101FC000482F4095998149238023482B49836E2DC2
:101FD0008F2D0E94150D0F90DF91CF911F910F91C2
:101FE000FF90EF90DF90CF90BF90089580E0F3CF07
:101FF0001F93CF93DF93EC01162F88810E94660711
:1020000089819A81DC01ED91FC910190F081E02DB4
:10201000612F099589819A810E94DD0B61E0888199
:102020000E948F0A1092E7028093E60289819A81CA
:10203000DC01ED91FC910284F385E02D0995DF919F
:10204000CF911F9108958F929F92AF92BF92CF929E
:10205000DF92EF92FF92CF93C82F90E080E00E9432
:1020600044366B017C016EEF82ED94E00E94F80F24
:10207000682F70E06F5F7F4F90E080E00E944436F1
:1020800020E034E244E759E40E94A5364B015C01AC
:102090006091D5047091D6048091D7049091D804B2
:1020A0000E9444369B01AC01C501B4010E94F7387F
:1020B0009B01AC01C701B6010E94F7380E9470393C
:1020C000AB016C2F82ED94E0CF91FF90EF90DF9009
:1020D000CF90BF90AF909F908F900C94760D0F9300
:1020E0001F93CF938C01C0E0B8018C2F0E94231066
:1020F000CF5FC031C9F76AE070E080E090E0CF9137
:102100001F910F910C94B8098F929F92AF92BF923A
:10211000CF92DF92EF92FF921F93CF93DF93EC0168
:102120006A017B0120E030E040E85FE3CB01B601CB
:102130000E943F3687FD7EC020E030EC4AE555E442
:10214000C701B6010E94053A18163CF4C12C30ECC8
:10215000D32E3AE5E32E35E4F32E6B817C818D811D
:102160009E810E9444364B015C0120E030E040E853
:1021700055E4C701B6010E94A5369B01AC01C5011B
:10218000B4010E94F73820E030E040E05FE30E94B5
:10219000143820E030E040E85FE30E9413386B0120
:1021A0007C0120E030E040E450E40E943F3687FDAF
:1021B00048C020E030E04FE753E4C701B6010E9479
:1021C000053A181634F4C12CD12C9FE7E92E93E47C
:1021D000F92E60E0CE010E94F80F182F482F4F769D
:1021E000406160E0CE010E94250DC701B6010E944A
:1021F0007039462F6EEFCE010E94250D412F60E011
:10220000CE010E94250D65E070E080E090E00E9424
:10221000B809412F406A60E0CE01DF91CF911F9154
:10222000FF90EF90DF90CF90BF90AF909F908F90F6
:102230000C94250DC12CD12C20E8E22E2FE3F22E98
:102240008CCFC12CD12C80E4E82EFE2CC2CFFC0117
:1022500001900020E9F73197AF01481B590BBC01F1
:1022600086E593E00C94D10784E591E00C94271166
:10227000CF93DF930E94C308EC010E9434118C0FAE
:102280009D1FDF91CF910895CF93DF930E94BE08E9
:10229000EC010E9434118C0F9D1FDF91CF910895A6
:1022A000CF93DF93FC01448155816081718186E584
:1022B00093E00E94D107EC010E9434118C0F9D1F06
:1022C000DF91CF9108958F929F92AF92BF920F931B
:1022D0001F93CF93DF93CDB7DEB7A1970FB6F894D6
:1022E000DEBF0FBECDBF19A2423008F44AE08E0116
:1022F0000F5D1F4F842E912CB12CA12CA5019401B0
:102300000E94E237E62FB901CA01EA30F4F4E05D39
:10231000D801EE938D01232B242B252B79F790E008
:1023200080E0109719F0CD010E942711A1960FB6F9
:10233000F894DEBF0FBECDBFDF91CF911F910F91FB
:10234000BF90AF909F908F900895E95CE1CFCF92BE
:10235000DF92EF92FF92C12CD12C76014AE0C701A7
:10236000B6010E94631189E00E94BE088FEFC81A6F
:10237000D80AE80AF80A80E1C816D104E104F10499
:1023800069F7FF90EF90DF90CF900C9434114F924B
:102390005F926F927F928F929F92AF92BF92CF92F5
:1023A000DF92EF92FF920F931F93CF936B017C010B
:1023B000742EAC019B010E94B43A882399F087E502
:1023C00091E0CF911F910F91FF90EF90DF90CF9010
:1023D000BF90AF909F908F907F906F905F904F9045
:1023E0000C94271146015701E894B7F82FEF3FEFFF
:1023F0004FE75FE7C501B4010E94B43A81110DC0F7
:102400002FEF3FEF4FE75FE7C501B4010E943F3672
:1024100018161CF48BE591E0D4CF2FEF3FEF4FE778
:102420005FE4C701B6010E94053A18161CF48FE557
:1024300091E0C7CF2FEF3FEF4FE75FECC701B60149
:102440000E943F3687FDF3CF20E030E0A901C701AD
:10245000B6010E943F3610E000E087FF08C08DE221
:102460000E94BE088C01F7FAF094F7F8F094C0E0EF
:1024700060E070E080E09FE37C1641F020E030E017
:1024800040E251E40E94F738CF5FF6CFA7019601F2
:102490000E9414382B013C010E9470394B015C01F1
:1024A0004AE00E9463117C01E00EF11ECC23B1F1E1
:1024B000C501B4010E9444369B01AC01C301B201C5
:1024C0000E9413384B015C018EE20E94BE08E80EA8
:1024D000F91EC15018F120E030E040E251E4C5019E
:1024E000B4010E94A5362B013C010E9470394B01BA
:1024F000B12CA12C4AE0C501B4010E946311E80E81
:10250000F91EC501B4010E9444369B01AC01C30110
:10251000B2010E9413384B015C01DBCFC701CF91A0
:102520001F910F91FF90EF90DF90CF90BF90AF90F1
:102530009F908F907F906F905F904F900895CF9372
:10254000DF93CFE7D2E0688179818A819B8145E082
:102550000E94C71189E00E94BE086C817D818E8136
:102560009F8145E00E94C71189E00E94BE086885EE
:1025700079858A859B8545E00E94C711DF91CF91BF
:102580000C943411FC0124813581232B39F421E092
:10259000FB018081882349F020E007C08081918180
:1025A0000E94F23C21E0892BB9F7822F0895CF9346
:1025B000DF93EC0188819981009711F00E947B34B0
:1025C000198218821D821C821B821A82DF91CF9190
:1025D0000895FC0180819181009711F00C947B3467
:1025E00008950F931F93CF93DF938C01EB01FC01B0
:1025F000808191810097E1F0688179816115710591
:10260000A9F0428153812C813D814217530770F01C
:102610000E94FB3C8C819D81F801958384831D82FF
:102620001C82DF91CF911F910F9108950E947B34FE
:1026300088819981F801918380838A819B8193832A
:1026400082838C819D8195838483198218821B8269
:102650001A82E5CF0C9463376F927F928F929F928C
:10266000AF92BF92CF92DF92EF92FF920F931F93A0
:10267000CF93DF936C01712CD0E0C0E085E191E055
:102680000E942A13082E000C990B781619060CF0DC
:102690006DC04E018FEF881A980ACE01805C9E4F64
:1026A0000E942A13682EE82EF12CC70101960E9481
:1026B000DF338C015C01CF5BDE4FC81BD90B8A2D49
:1026C000801B861548F4CE018A0D9B1D0E942A139B
:1026D000F50181935F01F3CFE401CE0DDF1D5801B9
:1026E000AE0CBF1CF5011082B601C8010E94F23C7D
:1026F000892B09F501151105A9F5CE018F5B9E4FB8
:102700000E942A138093F502682F8AEF92E00E94BC
:10271000520DCE01805C9E4FDF91CF911F910F91A2
:10272000FF90EF90DF90CF90BF90AF909F908F90F1
:102730007F906F900895F501319780818C3449F432
:10274000A70141505109B601C8010E94023D892BE1
:1027500089F20115110519F0C8010E947B342496F5
:1027600073948CCFC8010E947B34C7CF81E79EE071
:102770000E9438118FEF9FEFCFCF1F93CF93DF933E
:10278000EC010E942A13182FCE0101960E942A13F1
:1027900090E0982F8827810F911DDF91CF911F9195
:1027A0000895CF92DF92EF92FF920F931F93CF93F2
:1027B000DF936A017B01082F10E0C801805B9F4F07
:1027C000880F991F0E94BD13BC01990F880B990BAC
:1027D0000E94463620E030E04AE754E40E94F73891
:1027E000A70196010E94A5366B017C0182E191E070
:1027F0000E942A139AE0899FB0011124072E000C31
:10280000880B990B0E944636A70196010E94143846
:102810006B017C0120E030E04AEF53E40E94053A6E
:10282000C4EFD1E018168CF420E030E44CE155E41C
:10283000C701B6010E943F36C4ECD9E087FF05C04E
:10284000C701B6010E946939EB01C8010E942A1331
:10285000AE01682F82ED94E0DF91CF911F910F912F
:10286000FF90EF90DF90CF900C94760D90E0C096A3
:10287000880F991F860F911D880F991F0C94BD1307
:102880007F928F929F92AF92BF92CF92DF92EF9200
:10289000FF920F931F93CF93DF93B82E6A01D62F29
:1028A000C72F60E00E943614BC01990F880B990B6A
:1028B0000E9446367B018C0161E08B2D0E9436140C
:1028C000BC01990F880B990B0E944636762E872EF5
:1028D000982EA92E96014D2F5C2F0E943F3687FF20
:1028E00071C0772D682D992D8A2D272F362F492FCE
:1028F000582FB701C8010E94053A181694F09601A6
:102900004D2F5C2F672D782D892D9A2D0E943F36F3
:1029100076010D2F1C2F87FF04C0E72CF82C092D02
:102920001A2DCB2DD0E06E0180E3C80ED11CCC0F48
:10293000DD1FCA5FDE4FB701C8010E946939798384
:102940006883C601880F991F0E94BD13EC01C60160
:102950000E942A13682F880F770B880B990B0E940F
:1029600046369701A8010E94A5366B017C01BE0185
:10297000DD0F880B990B0E9446369B01AC01C70105
:10298000B6010E9414380E946939072E000C880B8A
:10299000990B0E94463620E030E0A9010E941438CD
:1029A000AB01BC018B2DDF91CF911F910F91FF9057
:1029B000EF90DF90CF90BF90AF909F908F907F90DF
:1029C0000C94D1137C2D6D2DCE018FCF2F923F9281
:1029D0004F925F926F927F928F929F92AF92BF922F
:1029E000CF92DF92EF92FF920F931F93CF93DF93DB
:1029F000CDB7DEB72E970FB6F894DEBF0FBECDBFB2
:102A00005C016A017B0120E030E0A901CB01B60145
:102A10000E943F369501205E3F4F3901181684F120
:102A200089013FE03983D8017E916E918D01072E97
:102A3000000C880B990B0E944636AB01BC018981C2
:102A40000E944014B981B150B983BF3F61F72E96FF
:102A50000FB6F894DEBF0FBECDBFDF91CF911F91AF
:102A60000F91FF90EF90DF90CF90BF90AF909F902D
:102A70008F907F906F905F904F903F902F90089530
:102A800080E290E00E94DF338C0186E0882E81E0B6
:102A9000982E9801F50170E060E0D4018D919D9130
:102AA0004D0141915191841B950BD9018D939D93BB
:102AB0009D0197FF03C0919581959109681779074A
:102AC0000CF4BC01E615F70541F7072E000C880B46
:102AD000990B0E944636A70196010E94F7386B01B8
:102AE0007C0120E030E0A9010E94053A20E030E0BE
:102AF00040E05FE387FD91C0C701B6010E94143832
:102B00000E9469397E876D87D12CC12C8D859E8569
:102B1000092E000CAA0BBB0B89879A87AB87BC8751
:102B2000AD85BE85AC15BD050CF47CC04801150112
:102B3000F12CC6010D2C000CAA0BBB0B8D839E83C0
:102B4000AF83B887D1016D917D911D01072E000CD7
:102B5000880B990B0E9446362B013C01ED85FE85C2
:102B600020E030E0A901EF2B09F443C06D817E81A4
:102B70008F8198850E9446362BED3FE049E450E472
:102B80000E94A53669837A838B839C8369857A85C5
:102B90008B859C850E9446369B01AC0169817A81B8
:102BA0008B819C810E94F7380E94F23820E030E04F
:102BB00040E85FE30E94143820E030E040E05FE34B
:102BC0000E94A53669837A838B839C83D4016D919F
:102BD0007C91072E000C880B990B0E9446369B01B6
:102BE000AC0169817A818B819C810E94A5369B0111
:102BF000AC01C301B2010E941438AB01BC018F2D9E
:102C00000E944014F394B2E08B0E911CE0E1FE129E
:102C100099CFFFEFCF1ADF0A83CFC701B6010E9419
:102C200013386ECF0115110509F411CFC8012E9686
:102C30000FB6F894DEBF0FBECDBFDF91CF911F91CD
:102C40000F91FF90EF90DF90CF90BF90AF909F904B
:102C50008F907F906F905F904F903F902F900C944B
:102C60007B342F923F924F925F926F927F928F921E
:102C70009F92AF92BF92CF92DF92EF92FF920F930B
:102C80001F93CF93DF93CDB7DEB72F970FB6F8948E
:102C9000DEBF0FBECDBF4C016D8369017A01202FCD
:102CA00030E03A83298320E030E0A901C701B60172
:102CB0000E943F361816ECF01FE0812F012E000C09
:102CC000990BA981BA818A179B070CF41EC1880D44
:102CD000991DFC016081062E000C770B880B990B67
:102CE0000E944636AB01BC01812F0E944014115056
:102CF000E4CF80E190E029813A81821B930B81151A
:102D000030E4930780F5880F991F009779F10E94AE
:102D1000DF335C01E981FA81EE0FFF1FCF018A5F8B
:102D20009E4F3C012501D401402F70E060E040310E
:102D300000F5F301819191913F012D915D81250372
:102D400090011124821B930BF201819391932F0127
:102D500097FF03C0919581959109681779070CF445
:102D6000BC014F5FE4CF8FEF9FEFD1CF81E090E0C8
:102D7000CECF072E000C880B990B0E944636A70178
:102D800096010E94F7386B017C0120E030E0A90138
:102D90000E94053A20E030E040E05FE387FD8BC011
:102DA000C701B6010E9414380E9469391B011F86B1
:102DB0001E86CB01770FAA0BBB0B8A879B87AC873C
:102DC000BD87AE85BF852A163B060CF480C0BA824B
:102DD000A9829C828B82102FCD01092E000CAA0B98
:102DE000BB0B8E839F83A887B987103108F068C01A
:102DF000AB81BC816D91BC83AB832D816203B0013B
:102E00001124072E000C880B990B0E9446366B018B
:102E10007C0120E030E0A90121143104E1F16E8150
:102E20007F81888599850E9446362BED3FE049E4F5
:102E300050E40E94A5362B013C016A857B858C8578
:102E40009D850E9446369B01AC01C301B2010E94E0
:102E5000F7380E94F23820E030E040E85FE30E945B
:102E6000143820E030E040E05FE30E94A5362B01FB
:102E70003C01A981BA816D917C91072E000C880BD1
:102E8000990B0E9446369B01AC01C301B2010E941E
:102E9000A5369B01AC01C701B6010E941438AB01F5
:102EA000BC01812F0E9440141F5FE981FA81329694
:102EB000FA83E9839ACFC701B6010E94133874CF11
:102EC0002E853F852F5F3F4F3F872E877ACFA114F6
:102ED000B104D9F0C5012F960FB6F894DEBF0FBE2E
:102EE000CDBFDF91CF911F910F91FF90EF90DF90B9
:102EF000CF90BF90AF909F908F907F906F905F909A
:102F00004F903F902F900C947B342F960FB6F894EF
:102F1000DEBF0FBECDBFDF91CF911F910F91FF900C
:102F2000EF90DF90CF90BF90AF909F908F907F9069
:102F30006F905F904F903F902F9008950F930E9455
:102F400070071092E9021092E802E1EFF2E02581A9
:102F500036814781508502896685838994890E94DC
:102F600031160F910895CF92DF92EF92FF920F9357
:102F70001F93CF93DF938C01FC0101900020E9F7B0
:102F8000329780818C3409F4EDC0823509F0ECC0B1
:102F900087EE8093F402C8010E942C13EC01CF3F0E
:102FA000DC0709F431C1CE010E942A13F82ECE01AC
:102FB00002960E94BD13EC01E9E4FE12D7C00E9404
:102FC000470E0E94700763E671E0C8010E94F23C60
:102FD000892B09F4E5C08091F502813009F0E0C049
:102FE0000E94503524E630E040E050E00E947937FE
:102FF0000E94463620E030E040E251E40E94F7387B
:1030000020E030E040EA50E40E9413386093E2028E
:103010007093E3028093E4029093E502C090E20291
:10302000D090E302E090E402F090E502D0E0C0E04E
:1030300000910403109105030C0F1D1FF80160811E
:10304000062E000C770B880B990B0E944636A701C1
:1030500096010E9414380E946939F8016083219614
:10306000C031D10529F78091F40287FFA2C0809179
:10307000FB029091FC029195819591099093FC023D
:103080008093FB0290E080E04091F502242F042E13
:10309000000C330B37FF03C031952195310982179E
:1030A00093070CF09BC042301CF54091FA02489FF8
:1030B0009001499F300D1124E0910403F091050324
:1030C000E20FF31F2081219520832091FA02289F8F
:1030D000F001299FF00D11249F012E5F3F4FE091D9
:1030E0000403F0910503E20FF31F20812195208353
:1030F0002091F50260E022300CF462E0E62FF0E06F
:103100002091F50222300CF488C024E030E0409198
:10311000040350910503E217F3070CF081C09F01EF
:10312000220F331F7091FA02789FF001799FF00D02
:103130001124E20FF31FE40FF51F408151815083EA
:103140005091FA02589FD001599FB00D1124E0917F
:103150000403F0910503E20FF31FEA0FFB1F418305
:103160006F5FCCCF89E115CF80E013CF6091F5027E
:103170008AEF92E00E94520D20911E0530911F05AA
:10318000D901C21BD30BFE01EA0FFB1FAD01421B8D
:10319000530B481759070CF014CFE491ED93F3CF7C
:1031A0001092E2021092E3021092E4021092E50201
:1031B00035CF9091F50292308CF481110FC00E94AE
:1031C000503524E630E040E050E00E94793760FF5F
:1031D00005C08091E102833609F049CF1092E902DF
:1031E0001092E8022091F6023091F7024091F80225
:1031F0005091F902009103036091FF028091040352
:10320000909105030E943116DF91CF911F910F918C
:10321000FF90EF90DF90CF90089528E030E077CFD7
:10322000019632CF0F931F93CF93DF93EC018B0165
:103230000E946337081721F0602FCE010E946B3780
:103240002196CE010E946337181721F0612FCE011D
:103250000E946B3766E070E080E090E0DF91CF91F4
:103260001F910F910C94B8090F931F93CF93DF9385
:10327000EC0188819981009759F02A813B812617BA
:10328000370730F081E0DF91CF911F910F910895C2
:103290008B016F5F7F4F0E94173C009759F0998315
:1032A00088831B830A832C813D81232B59F7FC01E2
:1032B0001082E8CF80E0E7CFEF92FF920F931F9349
:1032C000CF93DF936115710541F480E0DF91CF91D9
:1032D0001F910F91FF90EF90089541155105B1F0A6
:1032E0007B01EC010C811D81040F151FB8010E94A8
:1032F0003419882351F3288139818C819D81B7014C
:10330000820F931F0E94FB3C1D830C8381E0DECF64
:10331000EF92FF920F931F93CF93DF93EC017B010A
:103320008A01BA010E94341981110BC0CE010E949A
:10333000D712CE01DF91CF911F910F91FF90EF90A7
:1033400008951D830C83B701888199810E94FB3CFD
:10335000F0CFFB01DC0111961C921E9213961C9279
:103360001E92129715961C921E9214978617970715
:1033700059F0608171816115710521F04481558199
:103380000C9488190C94D7120895FB010190002029
:10339000E9F73197AF01461B570B0C9488190F932F
:1033A0001F93CF93DF93CDB7DEB762970FB6F89434
:1033B000DEBF0FBECDBF8C01CB01F80111821082A0
:1033C00013821282158214824AE0BE016F5F7F4F22
:1033D0000E940236BE016F5F7F4FC8010E94C5196F
:1033E00062960FB6F894DEBF0FBECDBFDF91CF91CE
:1033F0001F910F910895FC01118210821382128295
:1034000015821482FB0101900020E9F73197AF018A
:10341000461B570B0C948819EF92FF920F931F9342
:10342000CF93DF9300D0CDB7DEB78C01E62E6FE8E7
:1034300071E00E94FB190E94F7090E2C000CFF0896
:1034400097FD10C08E159F0569F089831A8241E0AF
:1034500050E0BE016F5F7F4FC8010E945C190E945F
:10346000F709EECFC8010F900F90DF91CF911F9118
:103470000F91FF90EF900895EF92FF920F931F939B
:10348000CF93DF93EC018B01198218821B821A8281
:103490001D821C82CB010E94CD357C01BC01CE0176
:1034A0000E943419811109C0CE01DF91CF911F9183
:1034B0000F91FF90EF900C94D712FD82EC82B8012F
:1034C00088819981DF91CF911F910F91FF90EF90AB
:1034D0000C94C63585ED8093BC0080914E0390918D
:1034E0004F03A0915003B09151030796A11DB11D48
:1034F00023E0B695A795979587952A95D1F72091C2
:10350000BC0024FD03C010924C03089540914E036B
:1035100050914F036091500370915103452B462BFE
:10352000472B69F30097A105B10541F02AE22A95DE
:10353000F1F700C00197A109B109E1CF80914D03D6
:103540000C946E0A4F925F926F927F928F929F922D
:10355000AF92BF92CF92DF92EF92FF920F931F93A1
:10356000CF93DF93CDB7DEB7E8970FB6F894DEBF01
:103570000FBECDBF80901605909017050E9493094D
:103580002B013C015401BB240E94610F6C01A81661
:10359000B9060CF057C0893C910584F121E042E066
:1035A0006AE6809105050E947A0F0E94610F6C0106
:1035B000892B09F04BC00E9493096419750986098B
:1035C0009709693F7A428105910578F380E0E89692
:1035D0000FB6F894DEBF0FBECDBFDF91CF911F9124
:1035E0000F91FF90EF90DF90CF90BF90AF909F90A2
:1035F0008F907F906F905F904F9008950E94610F21
:103600006C01A816B906F4F47C01EA18FB086701FE
:1036100081E2E816F1041CF080E2C82ED12CCC2007
:1036200079F008EE13E09E012F5F3F4F4C2D64E7C9
:10363000809105050E94BA0EEC18FD0841F7DECF17
:103640001982FACFC114D10409F4C0CF0E949309A2
:103650006419750986099709693F7A4281059105C0
:1036600008F0B4CFAC14BD0409F08ECF882009F463
:10367000FAC108EE13E020EA31E0482D64E78091BA
:1036800005050E94BA0E6090A4017090A5017624F1
:10369000672476248090A8019090A9019824892419
:1036A0009824A090AC01B090AD01BA24AB24BA2408
:1036B0006091A0017091A101762767277627072ED8
:1036C000000C880B990B0E94463620E030E040E861
:1036D00058E30E94A5366B017C01C092F504D0929C
:1036E000F604E092F704F092F804B301770C880B2B
:1036F000990B0E94463620E030E040E858E30E94F3
:10370000A5362B013C014092F9045092FA046092D4
:10371000FB047092FC04B401990C880B990B0E9475
:10372000463620E030E040E858E30E94A53669A321
:103730007AA38BA39CA36093FD047093FE048093F3
:10374000FF0490930005B501BB0C880B990B0E94F8
:10375000463620E030E040E858E30E94A5366DA3ED
:103760007EA38FA398A760930105709302058093B1
:103770000305909304059B01AC01C301B2010E94B3
:10378000A5364B015C0129A13AA14BA15CA1C7015F
:10379000B6010E94A5369B01AC01C501B4010E948F
:1037A00013389B01AC010E9414386DA77EA78FA728
:1037B00098AB6093E9047093EA048093EB049093D0
:1037C000EC04A3019201C701B6010E94A5364B018A
:1037D0005C012DA13EA14FA158A569A17AA18BA1A1
:1037E0009CA10E94A5369B01AC01C501B4010E94B9
:1037F00014389B01AC010E94143869A77AA78BA7E3
:103800009CA76093ED047093EE048093EF04909373
:10381000F004A7019601C701B6010E94A5364B012D
:103820005C01A3019201C301B2010E94A5369B0174
:10383000AC01C501B4010E9413384B015C0129A100
:103840003AA14BA15CA1CA01B9010E94A5369B0116
:10385000AC01C501B4010E9413384B015C012DA1DC
:103860003EA14FA158A5CA01B9010E94A5369B01EE
:10387000AC01C501B4010E9414384B015C01809277
:10388000F1049092F204A092F304B092F404A70120
:103890009601C701B6010E94143869AB7AAB8BABB5
:1038A0009CABA3019201C301B2010E9414386DAB1D
:1038B0007EAB8FAB98AFA701960169A97AA98BA9B6
:1038C0009CA90E94A5366B017C01A30192016DA900
:1038D0007EA98FA998AD0E94A5369B01AC01C701B6
:1038E000B6010E94143820E030E040E85FE30E9417
:1038F00013386B017C0129A13AA14BA15CA16DA9F0
:103900007EA98FA998AD0E94A5362B013C012DA15F
:103910003EA14FA158A569A97AA98BA99CA90E948B
:10392000A5369B01AC01C301B2010E941338A70167
:1039300096010E94933860937F0270938002809377
:1039400081029093820229A53AA54BA55CA5CA01E4
:10395000B9010E94A5366B017C01A5019401C50146
:10396000B4010E94A5369B01AC01C701B6010E94BB
:1039700014380E94703A9B01AC016DA57EA58FA5FD
:1039800098A90E9493386B017C01C0928302D09267
:103990008402E0928502F0928602A501940169A555
:1039A0007AA58BA59CA50E9493386093870270939B
:1039B00088028093890290938A0220E030E0A90176
:1039C000C501B4010E943F3687FF1AC020E030E0F5
:1039D000A901C701B6010E94053AA7019601181670
:1039E0000CF044C06BED7FE089E490E40E94133852
:1039F0006093830270938402809385029093860281
:103A00000FE712E0F80161917191819191918F011D
:103A10007F01F4E0EF1AF10820EE3EE245E652E4C1
:103A20000E94A536D7016D937D938D939C93139738
:103A3000B2E00B381B0731F7609187027091880262
:103A40008091890290918A029F7711E020E030E016
:103A500044EB52E40E94053A18160CF010E0109363
:103A6000CB0281E0B4CD1092A0010DCE6BED7FE0D2
:103A700089E490ECBBCF2F923F924F925F926F926E
:103A80007F928F929F92AF92BF92CF92DF92EF92EE
:103A9000FF920F931F93CF93DF93CDB7DEB7679756
:103AA0000FB6F894DEBF0FBECDBF6A877B878C87C9
:103AB0009D872E873F87488B598BC801EF8A1982D3
:103AC00067EA262E6DE0362E03E91DE088248A94ED
:103AD000982C5401E8E44E2EE8EE5E2E66246394A2
:103AE000712C9C01990F440B550B2A8B3B8B4C8BF3
:103AF0005D8B6E857F85888999890E9470396E8378
:103B00007F838887998720E030E0A9016A857B85DB
:103B10008C859D850E943F36882309F419C22A8529
:103B20003B854C855D8563E67CE987E89FE30E94E1
:103B3000123A6B017C01809100018530A9F5E8E61D
:103B4000F1E0F491FE8BFE89F7FF78C06E817F81F2
:103B5000888599850E94B80985E00E9455096A897F
:103B60007B898C899D890E94B80929812F5F2983CF
:103B70003F893213BECF67960FB6F894DEBF0FBEF3
:103B8000CDBFDF91CF911F910F91FF90EF90DF900C
:103B9000CF90BF90AF909F908F907F906F905F90ED
:103BA0004F903F902F9008958F3F81F625E020930E
:103BB0000001E8E6F1E0F491FE8BFF3F39F2F130CD
:103BC00009F40CC120F1F23009F0BDCF1092B00021
:103BD0001092B1008091B00082608093B00080911B
:103BE000B10081608093B100F8018491E82FF0E08A
:103BF000EE0FFF1FE658F24F8591949190934E027D
:103C000080934D02F101849180934F0217C014BC40
:103C100015BC84B5826084BD85B5816085BDF80121
:103C20008491E82FF0E0EE0FFF1FE658F24F8591E8
:103C30009491F1018491809397011E8AF10144913E
:103C4000F8018491882399F090E0880F991FFC0176
:103C5000EC57F24FA591B491FC01E658F24F259133
:103C600034918FB7F8949C91492B4C938FBF20E0EF
:103C700030ED42E854E4C701B6010E94A5360E9427
:103C800070396B01F12CE12C60E072E18AE790E081
:103C9000A70196010E9479372A833B834C835D8379
:103CA000BA01A90141505109610971098E898D7FBD
:103CB00009F00EC14F3F51056105710509F00CF483
:103CC000EEC060E472E48FE090E0A70196010E94EC
:103CD0007937BA01A9014150510961097109FE8979
:103CE000F23009F098C082E04F3F5105610571053F
:103CF00009F00CF463C060E970ED83E090E0A70187
:103D000096010E947937BA01A90141505109610910
:103D1000710983E04F3F51056105710509F00CF40D
:103D20004DC0C301B201A70196010E947937BA01C3
:103D3000A901415051096109710984E04F3F5105C2
:103D400061057105D9F1D4F164E274EF80E090E08F
:103D5000A70196010E947937BA01A9014150510982
:103D60006109710985E04F3F51056105710531F128
:103D700028F162E17AE780E090E0A70196010E94D5
:103D80007937BA01A901415051096109710986E0E9
:103D90004F3F51056105710589F080F04A815B81D3
:103DA0006C817D819AE075956795579547959A95B1
:103DB000D1F7415051096109710987E09091B10033
:103DC000987F892B8093B100FE89F13009F49EC061
:103DD000F23009F4ADC0F111B9CE69C01092800083
:103DE0001092810080918100886080938100809191
:103DF0008100816080938100F8018491E82FF0E0D8
:103E0000EE0FFF1FE658F24F85919491F1018491D6
:103E10008093960113CF4F3F51056105710509F05D
:103E20000CF454C0C301B201A70196010E94793776
:103E3000BA01A90141505109610971092E8984E033
:103E4000211191CF83E04F3F51056105710559F173
:103E500054F162E17AE780E090E0A70196010E94C8
:103E60007937BA01A901415051096109710984E00A
:103E70004F3F510561057105B1F0A8F04A815B81A2
:103E80006C817D818AE075956795579547958A95F0
:103E9000D1F7415051096109710985E004C081E001
:103EA0003E8931118BCF95B5987F892B85BD47BD54
:103EB00080929C0190929D01A0929E01B0929F01E0
:103EC00080916E00826080936E0040CE82E0E8CFE9
:103ED00091E04115510581E0680771056CF0C3015F
:103EE000B201A70196010E947937BA01A901415098
:103EF00051096109710993E0EE89E13009F064CF5D
:103F000080918100887F892B809381005093890064
:103F1000409388008092980190929901A0929A0112
:103F2000B0929B0180916F00826080936F000ECEF3
:103F30004093B3008092500290925102A09252029C
:103F4000B092530280917000826080937000FECD29
:103F50006E817F81888599850E94B809F7CD4F923F
:103F60005F926F927F928F929F92AF92BF92CF9209
:103F7000DF92EF920F931F93CF93DF93D82E192FD9
:103F80000E942A138695CD2DD12FB12CA12CC82E9D
:103F9000D12C88EE882E83E0982E2197AC14BD0496
:103FA0004CF5CE018C199D090E942A13782ECE0162
:103FB0000E942A13182F672D70E0C4010E94DA3B7B
:103FC000072E000C880B990B0E9446362B013C01F2
:103FD000612F70E090E080E00E944436EE24E3948C
:103FE00010E000E0A30192010E943B1D8FEFA81A90
:103FF000B80AD3CFDF91CF911F910F91EF90DF904F
:10400000CF90BF90AF909F908F907F906F905F9078
:104010004F9008951F920F920FB60F9211242F9375
:104020003F934F935F936F937F938F939F93AF9340
:10403000BF93EF93FF938091500290915102A09112
:104040005202B0915302892B8A2B8B2BD1F1909184
:104050004F02E0914D02F0914E02808189278083CA
:104060008091500290915102A0915202B09153025E
:10407000181619061A061B069CF48091500290919E
:104080005102A0915202B09153020197A109B109C6
:104090008093500290935102A0935202B093530226
:1040A000FF91EF91BF91AF919F918F917F916F9110
:1040B0005F914F913F912F910F900FBE0F901F90E6
:1040C0001895809100010E945509EACF1F920F9226
:1040D0000FB60F9211242F933F934F935F936F93DB
:1040E0007F938F939F93AF93BF93EF93FF9386E557
:1040F00093E00E944F08FF91EF91BF91AF919F9184
:104100008F917F916F915F914F913F912F910F9080
:104110000FBE0F901F9018951F920F920FB60F921F
:1041200011242F938F939F93EF93FF93E091660356
:10413000F09167038081E0916C03F0916D0382FD43
:104140001BC0908180916F038F5F8F7320917003EC
:10415000821741F0E0916F03F0E0EA5AFC4F958F2F
:1041600080936F03FF91EF919F918F912F910F900B
:104170000FBE0F901F9018958081F4CF1F920F9261
:104180000FB60F9211242F933F938F939F93AF936A
:10419000BF938091450290914602A0914702B09151
:1041A00048023091440223E0230F2D3758F5019641
:1041B000A11DB11D209344028093450290934602B5
:1041C000A0934702B09348028091490290914A021D
:1041D000A0914B02B0914C020196A11DB11D80939C
:1041E000490290934A02A0934B02B0934C02BF91B4
:1041F000AF919F918F913F912F910F900FBE0F9094
:104200001F90189526E8230F0296A11DB11DD2CF4D
:104210001F920F920FB60F9211242F933F934F933B
:104220005F936F937F938F939F93AF93BF93EF931E
:10423000FF938091B900887F803609F44AC0F0F579
:10424000883209F4A7C018F5803109F49BC0B8F48E
:10425000882309F4F9C0883009F494C0FF91EF91E4
:10426000BF91AF919F918F917F916F915F914F918E
:104270003F912F910F900FBE0F901F90189588318E
:1042800009F488C0803251F780932A0314C0803427
:1042900009F49DC040F48033B9F38833F9F6809374
:1042A0002A0385ECB0C0803509F485C0883509F44F
:1042B00096C0883499F60E946A1AD0CF883909F4DA
:1042C0008CC038F5883729F050F4883611F08037E3
:1042D00029F683E080934C031092430257C088383C
:1042E00009F47BC0803919F0803809F0B7CF80918C
:1042F0004302803208F071C0E091430281E08E0FEA
:10430000809343028091BB00F0E0ED5DFD4F808320
:104310003DC0803B39F0E0F4803A09F479C0883A36
:1043200009F09CCF84E080934C03109222021092FB
:104330002102E0915702F0915802099580912102E3
:1043400081110FC081E0809321021092010209C007
:10435000803C09F4A6CF883C09F4A3CF883B09F040
:104360007DCFE091220281E08E0F80932202F0E067
:10437000EF5FFD4F80818093BB009091220280917E
:10438000210229C0809127038093BB0085EC809394
:10439000BC0064CF9091290380912803981758F5A9
:1043A000E091290381E08E0F80932903F0E0EA5F1A
:1043B000FC4F8081E9CFE091290381E08E0F80934B
:1043C00029038091BB00F0E0EA5FFC4F808390916D
:1043D0002903809128039817C8F285E8D8CFE09187
:1043E000290381E08E0F809329038091BB00F0E0C8
:1043F000EA5FFC4F808380912B0381115CCF81E0C9
:104400008093260384EA8093BC0010924C0326CF4D
:1044100085EC8093BC0010924C0380914302803263
:1044200030F4E0914302F0E0ED5DFD4F10826091C9
:10443000430270E0E0915502F091560283E292E06F
:104440000995109243020ACF10922A0334CF1F928B
:104450000F920FB60F9211242F933F934F935F93B8
:104460006F937F938F939F93AF93BF93CF93DF937C
:10447000EF93FF932091000430E0F901EC5AFE4FD6
:104480008491F901EE55F24FD491F901E257F24FC0
:10449000C491CC2379F081110E94FE08EC2FF0E04A
:1044A000EE0FFF1FE65BFE4FA591B491EC91ED235B
:1044B00081E009F480E020910504309106042F5F2B
:1044C0003F4F30930604209305042091030430915C
:1044D00004042536310518F094E09093FF03909181
:1044E000FF03911130C0811169C020910504309102
:1044F00006042436310528F41092060410920504AF
:104500005DC01092D1041092040410920304209113
:10451000030430910404A9014F5F5F4F50930404DA
:10452000409303044091050450910604220F331F69
:10453000F901E95FFB4F518340831092060410920A
:10454000050491E021C09091FF03913001F5813085
:10455000A9F52091030430910404A9014F5F5F4F36
:1045600050930404409303044091050450910604C1
:10457000220F331FF901E95FFB4F518340831092F3
:1045800006041092050492E09093FF0317C09091E7
:10459000FF03923061F4882309F4B9CF2091050418
:1045A000309106042536310548F093E0EDCF909127
:1045B000FF03933099F4882309F49ECF909102046D
:1045C0009923A9F0811126C080910104882371F0FC
:1045D0008091010461E00E94270909C09091FF03C6
:1045E000943061F791E09093D104DFCF2D9AFF9141
:1045F000EF91DF91CF91BF91AF919F918F917F917B
:104600006F915F914F913F912F910F900FBE0F903F
:104610001F90189580910104882321F08091010456
:1046200060E0D9CF2D98E3CFCF93DF93E6E5F3E0B9
:104630001382128288EE93E0A0E0B0E08483958339
:10464000A683B78324E331E03183208325EC30E077
:104650003587248724EC30E03787268720EC30E04C
:10466000318B208B21EC30E0338B228B22EC30E03D
:10467000358B248B26EC30E0378B268B118E128EF7
:10468000138E148EC3EFD3E01B821A828C839D831A
:10469000AE83BF8386E491E0998388838AE090E0CB
:1046A0000E94DF33909323058093220582E090E0FF
:1046B0000E94DF33909321058093200582EC91E0E6
:1046C0000E94DF3390931F0580931E05EFEFF3E008
:1046D00084E08183138269E671E088E195E00E94BD
:1046E000FB1988E680930505E5EFF4E080E090E0B3
:1046F000A0E8BFE380839183A283B38314821582F1
:1047000016821782108611861286138614861586E5
:1047100016861786E9EEF4E0108211821282138267
:1047200014821582168217821086118612861386CD
:10473000E8EDF4E081E1DF011D928A95E9F7E2ED11
:10474000F4E080E48083D283C183DF91CF91089528
:10475000CF93DF93CDB7DEB7C254D1090FB6F8942B
:10476000DEBF0FBECDBF789484B5826084BD84B5B2
:10477000816084BD85B5826085BD85B5816085BD5C
:1047800080916E00816080936E0010928100809114
:10479000810082608093810080918100816080939C
:1047A0008100809180008160809380008091B100C1
:1047B00084608093B1008091B00081608093B000EC
:1047C00080917A00846080937A0080917A00826080
:1047D00080937A0080917A00816080937A00809142
:1047E0007A00806880937A001092C100E09166039D
:1047F000F091670382E08083E0916203F0916303AC
:104800001082E0916403F091650380E1808310924F
:104810006E03E0916A03F0916B0386E08083E09180
:104820006803F0916903808180618083E09168036F
:10483000F0916903808188608083E0916803F09142
:104840006903808180688083E0916803F091690347
:1048500080818F7D808385E090E0A0E0B0E0809350
:104860005A0390935B03A0935C03B0935D03109293
:10487000E7021092E60210925303109252030E9434
:10488000500A8EEC97E090935802809357028FEC79
:1048900097E0909356028093550288E08093B80089
:1048A0008BE60E94441188E19FE00FB6F894A8952A
:1048B000809360000FBE9093600064E670E080E03B
:1048C00090E00E94B80981E79DE00E94381101E064
:1048D00023E042E06BE6809105050E94AD0F00E009
:1048E00022E044E06BE1809105050E94AD0F22E0DB
:1048F00044E06CE1809105050E94AD0F20E046E0A8
:104900006BE6809105050E947A0F08EE13E09E0188
:104910002F5F3F4F41E065E7809105050E94BA0E89
:10492000882339F089818E7790E0959587958093DB
:10493000060580910605843319F08C3009F0BDCF4F
:1049400011E019A321E047E06BE6809105050E9484
:104950007A0F64E670E080E090E00E94B80987E09A
:1049600089A307E023E042E06AE6809105050E9402
:10497000AD0F64E670E080E090E00E94B80919A3F2
:104980009E012F5D3F4F41E06BE6809105050E943F
:10499000E90C19A29E012F5D3F4F41E068E3809131
:1049A00005050E94E90C19A29E012F5D3F4F41E0D1
:1049B00063E2809105050E94E90C19A29E012F5D1A
:1049C0003F4F41E06CE1809105050E94E90C80E8D1
:1049D00089A39E012F5D3F4F41E067E3809105056C
:1049E0000E94E90C19A39E012F5D3F4F41E06BE649
:1049F000809105050E94E90C84E089A39E012F5D4A
:104A00003F4F41E069E1809105050E94E90C19A33F
:104A10009E012F5D3F4F41E06AE1809105050E94B4
:104A2000E90C40E06DE6809105050E94150D40E01F
:104A30006EE6809105050E94150D80E190E00E94D0
:104A4000DF335C0180E190E00E94DF332C01312CE8
:104A5000E12CD12CC12C86EF282E612C7724739465
:104A6000C6014096F22CFC18873F9B4010F400E1F1
:104A7000F02EC3018E199109F816190619F014F0D9
:104A8000FE2CF194D20190E080E0960127593E4F30
:104A90008F1538F4F901E80FF91FE491ED930196B1
:104AA000F7CF92014F2D6FE6809105050E94E90C2A
:104AB0008F2C912CA114B10409F485C1432D4F71A1
:104AC0006DE6809105050E94150D4E2D6EE68091D4
:104AD00005050E94150D08EE13E095014F2D6FE6B8
:104AE000809105050E94BA0EA401B501C2010E9481
:104AF000DC3C892B09F467C1C5010E947B34C201EB
:104B00000E947B3481E0809354020FB6F894A895FC
:104B100080916000886180936000109260000FBEF9
:104B2000E12CFF24F394B12CC7010E94BD136C014A
:104B30008091050552E05B1508F45FC108EE13E0B3
:104B40009E012F5F3F4F41E065E70E94BA0E882328
:104B500039F089818E7790E0959587958093060549
:104B60008091060566E06E0D883320F06B2D660F90
:104B70006B0D695880910505D8AACFA6AE01415D9D
:104B80005F4F0E94C40CB39462E0E60EF11C76E025
:104B9000B712CACF10915402111137C121E047E07A
:104BA0006AE6809105050E947A0FF89410928000C1
:104BB00089E08093810080E293E090938900809364
:104BC0008800109285001092840082E080936F002C
:104BD00078941092FF0310920404109203048091C1
:104BE000000490E0FC01EE55F24F24918257924F61
:104BF000FC0184918823C9F090E0880F991FFC0183
:104C0000EC57F24F45915491FC01E658F24FA591B3
:104C1000B4919FB7F894FA01808120958223808314
:104C20008C91E22FE823EC939FBF64E070E088E171
:104C300095E00E9434198AEB9DE00E94C308FEECC7
:104C4000EF2EF2E0FF2E00E110E0C8010E942A13CF
:104C5000D7018D937D010F5F1F4F00321105A9F71A
:104C60001092E7021092E602109253031092520340
:104C70000E94500A8EEC97E090935802809357025E
:104C80008FEC97E0909356028093550240E860E0E5
:104C900082ED94E00E94250D6AE070E080E090E0F3
:104CA0000E94B80940E050E06AE774E482ED94E0C5
:104CB0000E94841080E498E7ADE7B1E08093D504CA
:104CC0009093D604A093D704B093D80483E191E0E5
:104CD0000E94BD13092E000CAA0BBB0B8093590236
:104CE00090935A02A0935B02B0935C02885D994551
:104CF000A109B10985399141A105B10560F088EAA2
:104D000091E6A0E0B0E08093590290935A02A093FC
:104D10005B02B0935C026091590270915A028091DB
:104D20005B0290915C020E94463620E030E04AE748
:104D300054E40E94F73842E00E94C71186EB9DE0E0
:104D40000E9438112091590230915A0240915B0221
:104D500050915C02A8EEB3E00E9498376B017C0191
:104D600040E050E060E773E482ED94E00E9484103C
:104D7000C092DB04D092DC04E092DD04F092DE0409
:104D8000C092D504D092D604E092D704F092D80411
:104D90000E94AD0D88EC9DE00E94381190E080E00B
:104DA0008C010F5F1F4F805C9E4F0E942A13080FDB
:104DB000111DC801805C9E4F0E942A138E34A1F100
:104DC000C8010496EDCFC80CD91C46EFC4164BE0C1
:104DD000D40610F00C948C33EF0C09F43394432D6B
:104DE0004F716DE6809105050E94150D4E2D6EE602
:104DF000809105050E94150D33CEDEA6CDA6AE012D
:104E0000435D5F4F6DE06E0DBCCE8FE59DE00E946F
:104E1000C308612F70E090E080E04AE00E946311D7
:104E200089E20E944411C1CE66E371E0C8018E5B45
:104E30009E4F0E94121980E10E948109BC01990FC6
:104E4000880B990B611571058105910511F00E9480
:104E50009F358FEF93E00E94AF1F60ED77E080E019
:104E600090E00E94B8090E94A21A0E94A21A0E9411
:104E7000A21A6091830270918402809185029091C0
:104E800086029F7720E030E040EF51E40E94053A2F
:104E9000181694F0609187027091880280918902BF
:104EA00090918A029F7720E030E040EF51E40E9429
:104EB000053A18160CF027C183E68093E10282E0E0
:104EC0008093E00282EE9DE00E9438118BED9DE020
:104ED0000E94381184ED9DE00E9438110E94EB0978
:104EE00020E137E240E050E00E94E237809101018A
:104EF00090910201092E000CAA0BBB0B821793079D
:104F0000A407B5070CF045C0790130930201209346
:104F1000010185E10E9481098C018A389240ACF53B
:104F200080915D0290915E020817190721F022E03E
:104F3000E216F10454F58DEE9DE00E94C308C8010D
:104F400063E670E00E94DA3B6B01072E000CEE086E
:104F5000FF0877FFDAC08DE20E94BE086627772738
:104F6000CB016C197D098E099F094AE00E946311EB
:104F700086E50E94441181ED93E00E94AF1F60ED31
:104F800077E080E090E00E94B80910935E02009301
:104F90005D0280910501882329F08091E80280FF5D
:104FA0000E94A21A809105018823B9F18091E10243
:104FB000833699F18091CB02882379F10E94503594
:104FC0006B017C010E9450354B015C01C701B601A9
:104FD0002AE030E040E050E00E9479371CED160FE7
:104FE000C501B4012AE030E040E050E00E9479378A
:104FF00042ED460F212F6AE082E00E94BB0D8BE656
:105000008093E1026CE671E0809122059091230586
:105010000E94FB3C8FEF8093E00280917602811129
:10502000AFC087E094E090936D0280936C02809112
:1050300003049091040490936F0280936E02809118
:10504000D10490E090937102809370028091FF03ED
:10505000833009F095C08091090490910A04875823
:1050600091098E35910508F085C0809103049091D7
:105070000404049709F04DC080910B0490910C0436
:105080008097479708F045C080910D0490910E04D9
:1050900009970997F0F510926B0210926A024FEF90
:1050A0005FEFBA0140936402509365026093660219
:1050B0007093670283E090E09093610280936002B6
:1050C0008091640290916502A0916602B09167029E
:1050D000892F9A2FAB2FBB278A3509F4D6C108F048
:1050E0008DC1823209F4B9C108F072C1803109F46E
:1050F000C9C108F01BC169E27EE0823009F41EC11B
:105100006FE871E0CDC184E6D8CE4AE0C701B601B0
:105110002DCF80910304909104048434910550F1C3
:1051200080910B0490910C04815491098F9710F594
:1051300090E080E040E050E0BA01FC01E35FFB4F0B
:1051400020813181295031092930310598F4FC0141
:10515000E15FFB4F20813181275131092231310537
:1051600008F4CEC020813181265031092730310525
:1051700008F4D7C01092FF031092040410920304A5
:1051800086E593E00E942F0818161906A4F581E021
:105190008093760282E08093E00286E593E00E94AD
:1051A0000D08182F8093E10261E070E080E090E04C
:1051B0000E94B8091B3409F01EC2E0901E05F09051
:1051C0001F0510E000E086E593E00E942F08892B80
:1051D00051F086E593E00E940D08F701E00FF11F02
:1051E00080830F5F1F4FF8013197EE0DFF1D808107
:1051F0008E3749F710820E94EB091091E002F0907F
:10520000E102112309F448C20E94EB0968577C4E61
:105210008F4F9F4F6093720270937302809374025A
:1052200090937502153008F4B3C28091DF02835663
:10523000823068F453E6F51651F088ED9BE00E9449
:105240006F1081E08093050187E40E9444118091F2
:10525000E102803751F08091DE02811106C081E0C9
:105260008093DE0280E70E9444111091E102E6EC97
:10527000E10FED3308F0C8C20E2E000CFF0BED5B02
:10528000F64D0C94EE3BD92FD42F042C042C042C77
:10529000042C042C042CE72E042C042C042C042CA9
:1052A000042C042C942E042C332FD72E942E042C53
:1052B000042C042C042C042C102D232F042C042C3F
:1052C000042C042C042C042C042C042C042C042C5E
:1052D000042C042CFA2C102D102DDC2F042C042C63
:1052E000F22B042C102D662CBE2F042C102D042C18
:1052F0009C2C552C042CF22BA12C102D102DF22BB4
:10530000440F551F661F771F416004968038910532
:1053100009F013CF80E290E090936B0280936A02D1
:10532000C1CE440F551F661F771FEFCF823109F49E
:10533000B5C061E17EE0883109F0E2CECE01819610
:105340000E943C1A62E771E0CE0181960E94C2126F
:10535000882309F4AAC064E771E088E195E00E941F
:10536000C51968E175E0CE0187960E94A919CE01A2
:1053700081960E94E9126FE871E0CE0187960E9443
:10538000C21281111AC000912205109123056FA14C
:1053900078A5C8010E94FB3CD8010D900020E9F7D8
:1053A000CD0102978017910709F023C1F801808190
:1053B0008093E10281E08093E0021092FF0310925B
:1053C000040410920304CE0187960E94E912D8CEFD
:1053D000823409F45DC048F4803309F44DC067E0BD
:1053E0007EE0883309F4AACF8BCE8A3409F453C007
:1053F00068EF7DE0823509F4A1CF82CE823A39F19F
:1054000098F48A37E1F140F4823621F16EE17EE0D2
:10541000883609F493CF74CE803959F16BE17EE080
:10542000883909F48BCF6CCE823CD1F040F4883AB5
:10543000E9F068E17EE0803B09F480CF61CE803EF8
:1054400091F063E37EE0823E09F478CF59CE67E3C2
:105450007EE074CF65E37EE071CF61E37EE06ECFE6
:1054600067E27EE06BCF65E27EE068CF63E27EE0DC
:1054700065CF61E27EE062CF65E17EE05FCF6DE007
:105480007EE05CCF6AE07EE059CF63E07EE056CFFD
:1054900060E07EE053CF6DEF7DE050CF6FE671E0CE
:1054A000CE0181960E94FB194DCF67E771E0CE01D6
:1054B00081960E94C212811111C069E771E0CE018C
:1054C00081960E94C212811109C06BE771E0CE0182
:1054D00081960E94C212882309F442C08DA19EA128
:1054E000892B21F0E9A1FAA1309721F410925F02F3
:1054F000EFE5F2E0108110930301163471F464E7D4
:1055000071E088E195E00E94C212882331F069E6DB
:1055100071E088E195E00E94C51968E175E0CE016F
:1055200001960E94A9191FA318A641E050E0BE01F0
:10553000695D7F4FCE0101960E945C19811104C004
:10554000CE0101960E94D712BE016F5F7F4FCE0140
:1055500087960E94A919CE0101960E94E91207CFF1
:105560006DE771E0CE0181960E94C21281112EC0BA
:1055700060E871E0CE0181960E94C212811126C0BE
:1055800063E871E0CE0181960E94C21281111EC0B3
:1055900069E671E0CE0181960E94C212811116C0A7
:1055A00066E871E0CE0181960E94C21281110EC0A0
:1055B00018A61FA21AA619A61CA61BA6BE016F5DDF
:1055C0007F4FCE0187960E94F112D1CE69A17AA1B8
:1055D0006115710549F04DA15EA188E195E00E9439
:1055E00088191091030199CF88E195E00E94D712A4
:1055F000F8CF8BE6DDCE86E593E00E942F081816E3
:1056000019060CF0F8CD6FE871E0CE0181960E948A
:10561000FB19193449F084EB810F823028F08EEBAE
:10562000810F6AE0823008F46EE7CE0101960E9495
:105630000C1ABE016F5F7F4FCE0181960E94F1125E
:10564000CE0101960E94E9122DA13EA13093CD0218
:105650002093CC021B3631F080911E0590911F05DE
:10566000143721F4809122059091230549A15AA174
:10567000DC01FA01BF01641B750B621773071CF490
:1056800061916D93F7CF820F931FDC011C92CE01C5
:1056900081960E94E912AFCDB3E6FB1609F49EC7CE
:1056A0000091720210917302209174023091750280
:1056B000601B710B820B930B161617061806190642
:1056C00014F4109276028091E1028B3609F086C7BD
:1056D0001091F50217FF3DC58091020333243A94DF
:1056E000380E823008F4312C10E0212F30E0809108
:1056F000F502082E000C990B97FF03C09195819538
:105700009109281739070CF069C7E0900403F0905D
:1057100005038091FA02189FE00CF11C1124F70197
:105720006089062E000C770B880B990B0E94463679
:1057300020E030E040E85EE30E94A5369B01AC012A
:1057400000E06091FF02C7010E943116A09104039E
:10575000B09105038091FA02189FA00DB11D11248C
:1057600052962C91529721115CC48091FA02E091DB
:105770000403F0910503189FE00DF11D11246189C8
:1057800016160CF4CCC4EEEC6E02B0011124CBC49E
:10579000E2E6FE1609F449CD8CE88F0D823008F45C
:1057A00044CDFCE4FF1609F440CD29E4F21609F4D7
:1057B0003CCD43E4F41609F438CD612F70E0615F0D
:1057C0007F4F072E000C880B990B0E944636EE2463
:1057D000E39410E000E020E030E040EA50E40E9472
:1057E0003B1D23CD173659F48091050191E089279F
:1057F00080930501811117E41093E10205C016376B
:1058000009F046C00E949F128091E1028B3609F098
:10581000E7C39091F50219160CF4E6C30091220536
:10582000109123056CE671E0C8010E94F23CF090F3
:10583000E102892B09F1E9E4FE16F1F085EB8F0D09
:105840008330D0F08091200590912105009711F0D0
:105850000E947B3481E090E00E94DF33F8010190E8
:105860000020E9F7E01BDC01EC9390932105809385
:105870002005B8010E94FB3C1092E002F092DF028A
:105880008F2D877F833609F41ECF1092E1021BCF44
:10589000123709F0B9CF80910401819580930401FA
:1058A00018160CF0A9CF12E5A7CF8091DE0291E087
:1058B000811190E09093DE02811110E51093E102D6
:1058C000882309F4A1CF0E94AD0D9ECF0E94A7119D
:1058D0006FE871E0CE0181960E94FB1906E011E0AD
:1058E00096E2E92E91E0F92ED8016D917D918D011E
:1058F000CE0101960E94CF194D815E8169817A8126
:10590000CE0181960E945C19CE0101960E94E91297
:1059100042E050E06DE871E0CE0181960E945C1992
:10592000E016F10609F7CE0181960E945011CE01D2
:1059300081960E94E91268CF86EC93E00E94AF1F27
:1059400063CF8BE69EE00E9438110EEC802E02E0C1
:10595000902E80E4E82EF12C00E110E0F401D190CB
:105960004F01C8010E946337D81621F06D2DC80180
:105970000E946B37C7010E94BD136C01C80180965D
:105980000E942A13B82EF40131976081062E000C74
:10599000770B880B990B0E9446362B013C016B2D2F
:1059A000BB0C770B880B990B0E9446369B01AC0110
:1059B000C301B2010E94A5362B013C01B601DD0CEA
:1059C000880B990B0E9446369B01AC01C301B201C2
:1059D0000E9414380E946939C70180960E941219EA
:1059E0000F5F1F4FF2E0EF0EF11C0032110509F0BE
:1059F000B5CF0ACF83E69EE00E9438111EECE12E5F
:105A000012E0F12E00E110E0C8010E942A13D70134
:105A10008D937D010F5F1F4F00321105A9F7F4CE62
:105A2000E6E0F1E0DE01119686E291E0219131910C
:105A30002D933D938E179F07C9F780912205909172
:105A40002305143721F080911E0590911F0569E808
:105A500071E00E94D6351C012114310409F4D3C031
:105A6000C1010E94A8358C016CE871E090E080E0F3
:105A70000E94D6351C01F12CE12CBB24B394009775
:105A800061F00E94A8357C016CE871E090E080E054
:105A90000E94D6351C01B2E0BB2EF801EE0FFF1FAD
:105AA00041E050E04C0F5D1FE40FF51FF182E082F2
:105AB0008091E102833609F0ACC01092050180911B
:105AC000DF02833681F088E39CE00E946F10C09073
:105AD0002205D090230563E671E0C6010E94FB3CDD
