:100000000C9458070C9480070C9480070C9480077C
:100010000C9480070C9480070C9480070C94AC1F00
:100020000C9480070C9480070C9480070C94C921D1
:100030000C9480070C9480070C9480070C94800724
:100040000C9460200C9480070C942E200C940820B3
:100050000C9480070C9480070C9480070C94800704
:100060000C94AA200C948007084AD73B3BCE016E23
:1000700084BCBFFDC12F3D6C74319ABD56833DDAFF
:100080003D00C77F11BED9E4BB4C3E916BAAAABE0E
:10009000000000803F05A84CCDB2D44EB93836A937
:1000A000020C50B9918688083CA6AAAA2ABE000074
:1000B00000803F07634236B79BD8A71A39685618A5
:1000C000AEBAAB558C1D3CB7CC5763BD6DEDFD751D
:1000D0003EF6177231BF000000803F08000000BEEE
:1000E000922449123EABAAAA2ABECDCCCC4C3E00EB
:1000F000000080BEABAAAAAA3E00000000BF00001C
:1001000000803F0000000000084178D3BB4387D146
:10011000133D190E3CC3BD4282AD2B3E68EC827686
:10012000BED98FE1A93E4C80EFFFBE01C4FF7F3FE7
:1001300000000000000001000001000000000000BD
:10014000000000000000000000006B626B006B7795
:100150006B46006B707531006B767452006B767471
:100160004C006B767446006B6A79006B636B006BB6
:10017000706565006B737472007520006B686900B0
:100180006B7075006B736974006952616E64000076
:1001900000000023002600290000000008000201E2
:1001A0000000030407000000000000000000F8F653
:1001B0002A3F68F57A0006FFFE0003000000650094
:1001C00054FFEF0000FA80000B12820001030C3094
:1001D000C30A74562D0D62DBC716F4BA023883F8D1
:1001E000833000F883258EF8833000F883FFFFFF0B
:1001F000FF0CBDD811240004001A8279A10036003A
:100200003C000000000010000038836FA2003E0395
:10021000304000000002CAE3093E800000200000D8
:10022000000000000040000000600000001FA4E883
:10023000E4FFF5DCB9005B79CF1F3F787600867C60
:100240005A00862347FAB986310074878A00000075
:100250000000004305FFFFE9A800002182FAB84D25
:1002600046FFFADF3DFFFFB2B3000000003FFFBAD8
:1002700098005DAC08000A637800014621FFFF008A
:1002800000000042B5000600640064000614060287
:100290009F0F479132D90E9FC91DCF4C343BB67A80
:1002A000E80064000600C800000000FFFE10000027
:1002B0000000000000000000000000000000070037
:1002C00000FFF10000FA460000A2B8000010000094
:1002D0000004D6000004CC000004CC0000000000A4
:1002E0000000000000000000000000000000060008
:1002F000020005000700000000006400000000008C
:10030000000000000C000500640020000000000058
:10031000000000000000004000000003000000009A
:1003200032F8980000FF650000830F00000006000F
:1003300000FFF10000FA460000A2B8000000000033
:1003400000000000000000000000000000000000AD
:10035000320000000000000000000010000000005B
:10036000010000000D0000B26A000200000001FB65
:1003700083007C0000FB15FC001FB4FF830000001D
:100380000100650007006403E8006400280000FF26
:10039000FD0000000016A00000000000000000109A
:1003A00000002F0000000001F400001000002800F1
:1003B00000FFFF4581FFFFFA72000000000000000F
:1003C00000004400010005BAC6004778A200000002
:1003D00000000000000000060000000014000023E0
:1003E000BB002EA25B00000568000BCF490004FF94
:1003F000FD000200000000000200000000001B00E1
:100400000000000000000000000000000000640088
:1004100007000800060006FFFE00000000000000C4
:1004200000000000000000000000000000000000CC
:1004300000000000000000000000000000000000BC
:1004400000000000000000000000000000002EA2DC
:100450005B00000568000BCF490000000000F8F6C3
:100460002A3F68F57A0004FFFD00020000001B002F
:10047000000000000000000000000E000EFFFFFF63
:10048000CF0004000000000032FFFFFF9C0000438B
:1004900005000000000000000100000064FFE5000E
:1004A000000000000000000000000000000000004C
:1004B00001000000000001000000000000000180B9
:1004C000000001800000018000002426D30001000C
:1004D0000100000000000600100096003C00000033
:1004E0000000000000000000001F9E655D0C0A4E29
:1004F00068CDCF770950166759C619CE8200000023
:100500000000000000000000000047711C00000017
:10051000000000000017D78400030000000011DC79
:100520004703000000C7938F9D1E1B1C19FFFFFF90
:10053000FF000000000EDFA4381F9E655D00000074
:10054000000047711C0203188500004000000000F5
:10055000000000000300000000000000003FFFFF5B
:10056000FDFFFFF4C9FFFFBCF000010C0F0000000D
:10057000000000000000000000000000000000007B
:1005800000000000000000000000000000F5B7BA05
:10059000B3677DDF7E72902E554CF6E68800000032
:1005A00000000000000000000000000000D8DCB4E3
:1005B000B8B0D8B9ABF3F8FAB3B7BB8E9EAEF13290
:1005C000F51BF1B4B8B08097F1A9DFDFDFAADFDF58
:1005D000DFF2AA4CCD6CA90CC92C97F1A98926464B
:1005E00066B28999A92D557DB0B08AA896365676FF
:1005F000F1BAA3B4B280C0B8A89711B28398BAA3D5
:10060000F0240844106418B2B9B49883F1A32955B2
:100610007DBAB5B1A38393F0002850F5B2B6AA8392
:100620009328547CF1B9A3829361BAA2DADEDFDBAE
:10063000819AB9AEF5606870F1DABAA2DFD9BAA2D0
:10064000FAB9A38292DB31BAA2D9BAA2F8DF85A4A3
:10065000D0C1BBAD83C2C5C7B8A2DFDFDFBAA0DFA0
:10066000DFDFD8D8F1B8AAB38DB4980D355DB2B636
:10067000BAAF8C96198F9FA70E161EB49AB8AA8788
:100680002C547CBAA4B08AB691325676B28494A423
:10069000C808CDD8B8B4B0F19982A82D557D98A8D6
:1006A0000E161EA22C547C92A4F02C5078F184A833
:1006B00098C4CDFCD80DDBA8FC2DF3D9BAA6F8DA86
:1006C000BAA6DED8BAB2B68696A6D0F3C841DAA6E4
:1006D000C8F8D8B0B4B882A892F52C548898F135EF
:1006E000D9F418D8F1A2D0F8F9A884D9C7DFF8F85E
:1006F00083C5DADF69DF83C1D8F40114F1A8824E23
:10070000A884F311D182F5D992289788F109F41CB5
:100710001CD884A8F3C0F9D1D99782F129F40DD857
:10072000F3F9F9D1D982F4C203D8DEDF1AD8F1A2E5
:10073000FAF9A88498D9C7DFF8F8F883C7DADF692F
:10074000DFF883C3D8F40114F198A8822EA884F3AB
:1007500011D182F5D992509788F109F41CD884A858
:10076000F3C0F8F9D1D99782F149F40DD8F3F9F92A
:10077000D1D982F4C403D8DEDFD8F1AD8898CCA8F3
:1007800009F9D98292A8F57CF1883ACF944A6E98FB
:10079000DB6931DAADF2DEF9D88795A8F221D1DA3A
:1007A000A5F9F417D9F1AE8ED0C0C3AE82C684C30A
:1007B000A88595C8A588F2C0F1F4010EF18E9EA817
:1007C000C63E56F554F18872F40115F19845856ED0
:1007D000F58E9E0488F142985A8E9E068869F4012F
:1007E0001CF1981E1108D0F504F11E9702029836EC
:1007F00025DBF9D985A5F3C1DA85A5F3DFD8859581
:10080000A8F309DAA5FAD88292A8F578F1881A84B3
:100810009F26889821DAF41DF3D8879F39D1AFD964
:10082000DFDFFBF9F40CF3D8FAD0F8DAF9F9D0DF0E
:10083000D9F9D8F40BD8F3879F39D1AFD9DFDFF4DA
:100840001DF3D8FAFCA869F9F9AFD0DADEFAD9F8C5
:100850008F9FA8F1CCF398DB45D9AFDFD0F8D8F162
:100860008F9FA8CAF38809DAAF8FCBF8D8F2AD977B
:100870008D0CD9A5DFF9BAA6F3FAF412F2D8950DCA
:10088000D1D9BAA6F3FADAA5F2C1BAA6F3DFD8F144
:10089000BAB2B68696A6D0CAF349DAA6CBF8D8B0D3
:1008A000B4B8D8AD84F2C0DFF18FCBC3A8B2B6869E
:1008B00096C8C1CBC3F3B0B48898A821DB718D9DD5
:1008C00071859521D9ADF2FAD88597A828D9F40871
:1008D000D8F28D29DAF405D9F285A4C2F2D8A88D10
:1008E0009401D1D9F411F2D88721D8F40AD8F2842E
:1008F00098A8C801D1D9F411D8F3A4C8BBAFD0F2DD
:10090000DEF8F8F8F8F8F8F8F8D8F1B8F6B5B9B0B4
:100910008A95A3DE3CA3D9F8D85CA3D9F8D87CA3E8
:10092000D9F8D8F8F9D1A5D9DFDAFAD8B18530F7F6
:10093000D9DED8F830ADDADED8F2B48C99A32D55D3
:100940007DA083DFDFDFB591A0F629D9FBD8A0FC1D
:1009500029D9FAD8A0D051D9F8D8FC51D9F9D879E9
:10096000D9FBD8A0D0FC79D9FAD8A1F9F9F9F9F9CD
:10097000A0DADFDFDFD8A1F8F8F8F8F8ACDEF8ADE0
:10098000DE8393AC2C547CF1A8DFDFDFF69D2CDAFC
:10099000A0DFD9FADB2DF8D8A850DAA0D0DED9D064
:1009A000F8F8F8DB55F8D8A878DAA0D0DFD9D0FA73
:1009B000F8F8F8F8DB7DF8D89CA88CF530DB38D94E
:1009C000D0DEDFA0D0DEDFD8A848DB58D9DFD0DE0C
:1009D000A0DFD0DED8A868DB70D9DFDFA0DFDFD8EA
:1009E000F1A888902C547C98A8D05C38D1DAF2AE6B
:1009F0008CDFF9D8B087A8C1C1B188A8C6F9F9DAE7
:100A000036D8A8F9DA36D8A8F9DA36D8A8F9DA3615
:100A1000D8A8F9DA36D8F78D9DADF818DAF2AEDF3E
:100A2000D8F7ADFA30D9A4DEF9D8F2AEDEFAF98300
:100A3000A7D9C3C5C7F1889BA77AADF7DEDFA4F8B5
:100A4000849408A797F300AEF29819A488C6A394DB
:100A500088F632DFF28393DB09D9F2AADFD8D8AE69
:100A6000F8F9D1DAF3A4DEA7F1889B7AD8F384945D
:100A7000AE19F9DAAAF1DFD8A881C0C3C5C7A3921D
:100A800083F628ADDED9F8D8A350ADD9F8D8A3782D
:100A9000ADD9F8D8F8F9D1A1DADEC3C5C7D8A1819C
:100AA00094F818F2B089ACC3C5C7F1D8B8B4B09700
:100AB00086A8319B069907AB9728889BF00C2014D9
:100AC00040B0B4B8F0A88A9A285078B79BA82951AA
:100AD00079247059446938644831F1BBAB88002CE3
:100AE000547CF0B38BB8A804285078F1B088B49740
:100AF00026A85998BBABB38B02264666B0B8F08ADD
:100B00009CA82951798B2951798A2470598B2058B6
:100B1000718A4469388B3940688A6448318B30491E
:100B20006088F1AC002C547CF08CA804285078F13B
:100B3000889726A85998AC8C02264666F0899CA80E
:100B4000295179247059446938644831A9880920A9
:100B50005970AB11384069A8193148608CA83C41E4
:100B60005C207C00F187981986A86E767EA999880A
:100B70002D557DD8B1B5B9A3DFDFDFAED0DFAAD068
:100B8000DEF2ABF8F9D9B087C4AAF1DFDFBBAFDF83
:100B9000DFB9D8B1F1A3978E60DFB084F2C8F8F95D
:100BA000D9DED89385F14AB183A308B5839A08109A
:100BB000B79F10D8F1B0BAAEB08AC2B2B68E9EF16D
:100BC000FBD9F41DD8F9D90CF1D8F8F8AD61D9AE3C
:100BD000FBD8F40CF1D8F8F8AD19D9AEFBDFD8F496
:100BE00016F1D8F8AD8D61D9F4F4ACF59C9C8DDF8D
:100BF0002BBAB6AEFAF8F40BD8F1AED0F8AD51DAA4
:100C0000AEFAF8F1D8B9B1B6A3839C08B9B1839A0A
:100C1000B5AAC0FD3083B79F10B58B93F20202D105
:100C2000ABDADED8F1B080BAABC0C3B284C1C3D8EE
:100C3000B1B9F38BA391B609B4D9ABDEB0879CB937
:100C4000A3DDF1B38B8B8B8B8BB08720283038B230
:100C50008BB69BF2A3C0C8C2C4CCC6A3A3A3F1B0F9
:100C600087B59AD8F39BA3A3DCBAACDFB9A3FEF295
:100C7000ABC4AAF1DFDFBBAFDFDFA3A3A3D8D8D813
:100C8000BBB3B7F1AAF9DAFFD9809AAA28B4809841
:100C9000A720B79787A86688F07951F1902C870C28
:100CA000A781976293F071716085940129517990C1
:100CB000A5F1284C6C870C95188578A38390284C57
:100CC0006C886CD8F3A28200F210A8921980A2F26C
:100CD000D926D8F188A84DD948D896A83980D93CCA
:100CE000D89580A839A68698D92CDA87A72CD8A8B9
:100CF000899519A980D938D8A88939A980DA3CD82A
:100D0000A82EA83990D90CD8A8953198D90CD8A874
:100D100009D9FFD801DAFFD89539A9DA26FFD8908A
:100D2000A80D8999A810809821DA2ED88999A83120
:100D300080DA2ED8A886963180DA2ED8A88731801E
:100D4000DA2ED8A88292F34180F1D92ED8A882F366
:100D50001980F1D92ED882ACF3C0A28022F1A62E40
:100D6000A72EA92298A829DAACDEFFD8A2F22AF190
:100D7000A92E8292A8F23180A696F1D900AC8C9C63
:100D80000C30ACDED0DEFFD88C9CACD010ACDE805A
:100D900092A2F24C82A8F1CAF235F19688A6D90047
:100DA000D8F1FF444D50206661696C65642028636A
:100DB0006F64652000496E697420494D55004D48A7
:100DC0007A00496E697420736572766F733A2000F9
:100DD0004C6F616420736B696C6C73005265616465
:100DE000792100426974746C65000A2A2053746189
:100DF0007274202A004C6F7720706F7765723A000A
:100E00007A65726F006A7900636B007065650070C7
:100E100075006869007374720073697400747200FD
:100E2000776B0063720076740063004200700052BA
:100E30000062616C616E6365004C0067004600648F
:100E4000008901840180017C01790174016F016BCB
:100E500001670162015D01580153014E014A0161C0
:100E6000626F72746564007361766564003F0000B0
:100E7000000000240027002A00010204081020407E
:100E80008001020408102001020408102000000064
:100E900000250028002B00040404040404040402B8
:100EA000020202020203030303030302B622F13328
:100EB00011241FBECFEFD8E0DEBFCDBF11E0A0E010
:100EC000B1E0E6E6FAE702C005900D92AC3AB10750
:100ED000D9F725E0ACEAB1E001C01D92A234B20717
:100EE000E1F717E0C7E5D7E004C02197FE010E94B3
:100EF000043CC635D107C9F70E944A230C94263D0D
:100F00000C94000091E090936D0380936C03109219
:100F10006B0310926A0308958091F2029091F3029C
:100F2000891B990B0895089508950895AF92BF9273
:100F3000CF92DF92EF92FF920F931F93CF93DF93A5
:100F40006C017B018B01040F151FEB015E01AE18D4
:100F5000BF08C017D10759F06991D601ED91FC91F6
:100F60000190F081E02DC6010995892B79F7C50123
:100F7000DF91CF911F910F91FF90EF90DF90CF9075
:100F8000BF90AF900895FC01538D448D252F30E024
:100F9000842F90E0821B930B541710F0CF96089586
:100FA00001970895FC01918D828D981761F0A28DB3
:100FB000AE0FBF2FB11D5D968C91928D9F5F9F7379
:100FC000928F90E008958FEF9FEF0895FC01918D2F
:100FD000828D981731F0828DE80FF11D858D90E09C
:100FE00008958FEF9FEF0895FC01918D228D892F39
:100FF00090E0805C9F4F821B91098F739927089521
:101000008EE693E00E94F40721E0892B09F420E0AA
:10101000822F089580E090E0892B29F00E9400083B
:1010200081110C9400000895FC01A48DA80FB92F24
:10103000B11DA35ABF4F2C91848D90E001968F7300
:101040009927848FA689B7892C93A089B1898C911F
:10105000837080648C93938D848D981306C002886E
:10106000F389E02D80818F7D80830895EF92FF9238
:101070000F931F93CF93DF93EC0181E0888F9B8DBB
:101080008C8D98131AC0E889F989808185FF15C075
:101090009FB7F894EE89FF896083E889F989808198
:1010A0008370806480839FBF81E090E0DF91CF9167
:1010B0001F910F91FF90EF900895F62E0B8D10E089
:1010C0000F5F1F4F0F731127E02E8C8D8E110CC0F8
:1010D0000FB607FCFACFE889F989808185FFF5CF43
:1010E000CE010E941408F1CFEB8DEC0FFD2FF11D06
:1010F000E35AFF4FF0829FB7F8940B8FEA89FB8980
:1011000080818062CFCF682F8EE693E00C94360802
:101110000F931F93CF93DF938C01D0E0C0E0F801D1
:10112000EC0FFD1F6491662341F08EE693E00E9470
:101130003608892B11F02196F2CFCE01DF91CF91A5
:101140001F910F910895CF93DF93EC01888D882331
:10115000B9F0AA89BB89E889F9898C9185FD03C01A
:10116000808186FD0DC00FB607FCF7CF8C9185FFFF
:10117000F2CF808185FFEDCFCE010E941408E9CF28
:10118000DF91CF910895833081F028F4813099F078
:101190008230A9F008958730A9F08830C9F08430F2
:1011A000B1F4809180008F7D03C0809180008F77A3
:1011B00080938000089584B58F7784BD089584B5A9
:1011C0008F7DFBCF8091B0008F778093B000089522
:1011D0008091B0008F7DF9CF1F93CF93DF93282F9D
:1011E00030E0F901E756FE4F8491F901E758F14FDD
:1011F000D491F901E956F14FC491CC23A9F0162FEF
:1012000081110E94C308EC2FF0E0EE0FFF1FE3579F
:10121000F14FA591B4918FB7F894EC91111108C0DA
:10122000D095DE23DC938FBFDF91CF911F9108957E
:10123000DE2BF8CF9091260189130BC0EBEAFEE07C
:10124000E4919FEF90932601E13049F028F0E230DD
:1012500061F060E00C94EC0810926E00FACF90916F
:101260006F009D7F90936F00F4CF909170009D7FF1
:101270009093700091E09093B0009091B100987FAE
:1012800094609093B1001092B300E3CF8E508064CD
:1012900080937C0080917A00806480937A008091B2
:1012A0007A0086FDFCCF80917800909179000895B6
:1012B0003FB7F8948091550290915602A091570241
:1012C000B091580226B5A89B05C02F3F19F0019692
:1012D000A11DB11D3FBFBA2FA92F982F8827BC0190
:1012E000CD01620F711D811D911D42E0660F771FB8
:1012F000881F991F4A95D1F708958F929F92AF92B8
:10130000BF92CF92DF92EF92FF926B017C010E941D
:1013100058094B015C01C114D104E104F104B9F096
:101320000E945809681979098A099B09683E734027
:101330008105910580F321E0C21AD108E108F10886
:1013400088EE880E83E0981EA11CB11CE4CFFF90AC
:10135000EF90DF90CF90BF90AF909F908F900895C7
:101360002FB7F8946091510270915202809153020C
:10137000909154022FBF08950F931F930E94B009BC
:101380006093760370937703809378039093790347
:101390008EE693E00E94D20797FF1DC00E94B0091D
:1013A00000917603109177032091780330917903AF
:1013B000601B710B820B930B0091720310917303EE
:1013C00020917403309175036017710782079307AA
:1013D000F8F28FEF9FEF1F910F91089520912D024A
:1013E000260F3327331F21323105ECF4209164039B
:1013F000FC0190E080E0243069F082E00895A09143
:101400002D022191AC01435F5D4FA40FB52FB11D9B
:101410002C930196861798F380912D02680F6093A4
:101420002D0280E0089581E008951092640381E028
:101430008093430310923E0361E082E10E94EC0836
:1014400061E083E10E94EC08E9EBF0E080818E7FAF
:10145000808380818D7F808388E48093B80085E4D9
:101460008093BC000895CF93DF9391E090930C029A
:101470008823B9F0C091B800D091BA008091BC0027
:101480008A7B8093BC0060E082E10E94EC0860E00F
:1014900083E10E94EC080E94150AD093BA00C09321
:1014A000B800DF91CF910895CF92DF92EF92FF9233
:1014B0000F931F93CF93DF93D82FC62F613208F07D
:1014C00098C00E9458096B017C01809164038111CE
:1014D0006BC081E080936403809343039FEF9093FC
:1014E0004203109241039C0F9093400380933F036B
:1014F00080913F03DD0FD82BD0933F0380913E03B3
:10150000813009F078C010923E030E9458096B01A7
:101510007C0180913F038093BB0080916603909192
:101520006703A0916803B0916903892B8A2B8B2BE9
:10153000A1F00E9458090091660310916703209161
:101540006803309169036C197D098E099F0906179C
:1015500017072807390708F448C08091BC0083FDAD
:10156000D8CF85EC8093BC000E9458096B017C01A8
:1015700080916403813009F440C0809141038C174D
:1015800010F4C0914103EEE1F3E0A4E4B3E080E0A5
:101590008C1355C08C2FDF91CF911F910F91FF902D
:1015A000EF90DF90CF90089580916603909167034C
:1015B000A0916803B0916903892B8A2B8B2B09F4C6
:1015C00084CF0E945809009166031091670320910F
:1015D0006803309169036C197D098E099F0906170C
:1015E00017072807390708F070CF809165030E941C
:1015F000330AC0E0CFCF85EEB5CF809166039091DE
:101600006703A0916803B0916903892B8A2B8B2B08
:1016100009F4AECF0E945809009166031091670348
:1016200020916803309169036C197D098E099F0927
:10163000061717072807390708F09ACFD6CF9191D8
:101640009D938F5FA5CF0895E091F3028091F20200
:10165000E81730F4F0E0EC5BFC4F808190E00895F7
:101660008FEF9FEF08959091F3028091F2022FEF98
:101670003FEF981748F4E92FF0E0EC5BFC4F208136
:1016800030E09F5F9093F302C9010895CF92DF92FB
:10169000EF92FF920F931F93CF93DF937C01CB01C7
:1016A0008A0120916D03222389F0EB016B01C40EA6
:1016B000D51ECC15DD0569F06991D701ED91FC913E
:1016C0000190F081E02DC7010995F3CF642F0E94AE
:1016D000EE09C801DF91CF911F910F91FF90EF901C
:1016E000DF90CF900895CF93DF931F92CDB7DEB7F1
:1016F000698320916D032223F9F020916A0320323F
:1017000058F021E030E0FC013383228390E080E058
:101710000F90DF91CF91089580916B03E82FF0E057
:10172000E451FE4F998190838F5F80936B03809388
:101730006A0381E090E0ECCF61E0CE0101960E9467
:10174000EE09F7CFCF92DF92EF92FF920F931F93A4
:10175000CF93DF93D0916A0381E0D13208F09CC02F
:10176000C0916C030E9458096B017C018091640355
:1017700081116CC082E08093640381E08093430315
:101780008FEF8093420310924103D0934003ACEE5D
:10179000B1E0EEE1F3E080E0D8138DC010923F039A
:1017A00080913F03CC0FC82BC0933F0380913E0331
:1017B000813009F084C010923E030E9458096B01E9
:1017C0007C0180913F038093BB00809166039091E0
:1017D0006703A0916803B0916903892B8A2B8B2B37
:1017E000A1F00E94580900916603109167032091AF
:1017F0006803309169036C197D098E099F090617EA
:1018000017072807390708F442C08091BC0083FD00
:10181000D8CF85EC8093BC000E9458096B017C01F5
:1018200080916403823009F44CC0809142038F3F61
:1018300009F469C080914203803209F466C0809146
:101840004203803309F463C084E026C080916603BC
:1018500090916703A0916803B0916903892B8A2B4B
:101860008B2B09F483CF0E945809009166031091D5
:10187000670320916803309169036C197D098E0913
:101880009F09061717072807390708F06FCF8091BF
:1018900065030E94330A85E010926B0310926A037D
:1018A00010926D03DF91CF911F910F91FF90EF90F8
:1018B000DF90CF9008959D9191938F5F6DCF85EECE
:1018C000A9CF8091660390916703A0916803B091BE
:1018D0006903892B8A2B8B2B09F4A2CF0E9458090C
:1018E00000916603109167032091680330916903AA
:1018F0006C197D098E099F090617170728073907F4
:1019000008F08ECFC4CF80E0C7CF82E0C5CF83E0A0
:10191000C3CF1F93CF93DF93162FEA010E94820754
:10192000612F8BE094E00E94730B69818BE094E05F
:101930000E94730B68818BE094E00E94730B8BE034
:1019400094E00E94A20B91E0811190E0892FDF9139
:10195000CF911F91089590E080E00895FF920F933A
:101960001F93CF93DF93C62F042FF22E132F0E94C5
:1019700082076C2F8BE094E00E94730BCF2DD12F48
:101980000C0F1D2F111DC017D10731F069918BE08D
:1019900094E00E94730BF7CF8BE094E00E94A20BBF
:1019A00091E0811190E0892FDF91CF911F910F91EC
:1019B000FF900895CF93DF931F92CDB7DEB7498391
:1019C0009E012F5F3F4F41E00E94AE0C0F90DF91D0
:1019D000CF9108950F931F93CF93DF93EC01062FC0
:1019E000142F88810E94820789819A81DC01ED9100
:1019F000FC910190F081E02D602F099589819A81F9
:101A0000DC01ED91FC910190F081E02D612F0995B1
:101A100089819A81DF91CF911F910F910C94A20B34
:101A2000DC01ED91FC910190F081E02D0994FF9291
:101A30000F931F93CF93DF93EC01162FF42E052FF6
:101A400088810E94820789819A8124E0129FB001D7
:101A500011246A5F7F4FDC01ED91FC910190F081D0
:101A6000E02D099570E060E089819A810E94100D57
:101A700070E060E089819A810E94100D6F2D702FB7
:101A800089819A810E94100D602F70E089819A816E
:101A90000E94100D89819A81DF91CF911F910F9142
:101AA000FF900C94A20BCF93C0E040E050E16C2F6C
:101AB0008AEE94E00E94170DCF5FC031B1F7CF914D
:101AC0000895FC0187E094E1161634F484E098E070
:101AD000613011F484E090E19083062E000C770BC6
:101AE00077FF03C0719561957109969FA001979F3B
:101AF000500D1124840F952F911D08952F923F9220
:101B00004F925F926F927F928F929F92AF92BF920D
:101B1000CF92DF92EF92FF920F931F93CF93DF93B9
:101B200000D000D000D01F92CDB7DEB78C832D83BC
:101B3000262F30E0A8EEB3E00E941A384B015C017A
:101B40001982842F90E09B838A8399812C8192173C
:101B500009F447C08A819B819F838E8310E000E057
:101B60009D812E812917C8F58E819F81C297873666
:101B70009A4358F5CA80DB80C00ED11E1601220C94
:101B8000331C220C331C85E0281A3108CC0CDD1CD8
:101B9000F12CE12C412C512C3201481459046A04D7
:101BA0007B049CF461E085E00E94EC08C101019790
:101BB000F1F760E085E00E94EC08C1010197F1F7C0
:101BC0004C0C5D1C6E1C7F1CE8CF0F5F1F4F8E817D
:101BD0009F8101969F838E83C3CF99819F5F998355
:101BE000B4CF27960FB6F894DEBF0FBECDBFDF91FE
:101BF000CF911F910F91FF90EF90DF90CF90BF900A
:101C0000AF909F908F907F906F905F904F903F909C
:101C10002F9008952F923F924F925F926F927F92F2
:101C20008F929F92AF92BF92CF92DF92EF92FF92EC
:101C30000F931F93CF93DF9300D000D0CDB7DEB7C3
:101C4000782E662E4C833A8329830E94B0096B015B
:101C50007C01512C1B822C81222E312C4801B12C6D
:101C6000A12C8C81581608F049C0872D0E9482074C
:101C7000662D8BE094E00E94730B8BE094E00E9451
:101C8000A20B872D0E948207B1016519710961328B
:101C9000710514F060E270E0613208F060E2872DB7
:101CA0000E94540A482E1092F3028093F20280910F
:101CB000F3024816E9F00115110579F48BE094E080
:101CC0000E94330BE981FA819B81E90FF11D97FD99
:101CD000FA9580839F5F9B83EACF0E94B0096C19BD
:101CE0007D098E099F09681579058A059B0530F3E2
:101CF0008C81813208F080E2580EB3CF01151105B6
:101D0000C1F00E94B0096C197D098E099F0930E06D
:101D100020E0601771078207930758F02B81822F0C
:101D2000220F990B2C812817190619F014F08FEF48
:101D30008B838B810F900F900F900F90DF91CF913D
:101D40001F910F91FF90EF90DF90CF90BF90AF90D9
:101D50009F908F907F906F905F904F903F902F90CB
:101D600008950F931F93CF93DF93CDE1D5E008EE55
:101D700013E02EE135E042E062E788810E940A0E1E
:101D800089819A81982789279827DF91CF911F9180
:101D90000F910895CF92DF92EF92FF920F931F93CE
:101DA000CF93DF931F92CDB7DEB7F82EE62EC42E69
:101DB000D22E08EE13E09E012F5F3F4F41E00E94BC
:101DC0000A0E81E090E001C0880FCA94EAF74981C9
:101DD000DD2081F0482B49836E2D8F2D0E94DA0C77
:101DE0000F90DF91CF911F910F91FF90EF90DF90B7
:101DF000CF90089580954823EECFBF92CF92DF9287
:101E0000EF92FF920F931F93CF93DF931F92CDB763
:101E1000DEB7F82EE62EC42EB22ED02E08EE13E03A
:101E20009E012F5F3F4F41E00E940A0E882371F10F
:101E30008C2D8B19990BAC014F5F5F4F81E090E0C7
:101E400002C0880F991FBA94E2F70197042E01C0CF
:101E5000880F0A94EAF70D2D01C0000F4A95EAF7A2
:101E6000482F4095998149238023482B49836E2D23
:101E70008F2D0E94DA0C0F90DF91CF911F910F915F
:101E8000FF90EF90DF90CF90BF90089580E0F3CF68
:101E90001F93CF93DF93EC01162F88810E94820756
:101EA00089819A81DC01ED91FC910190F081E02D16
:101EB000612F099589819A810E94A20B61E0888136
:101EC0000E94540A1092F3028093F20289819A814F
:101ED000DC01ED91FC910284F385E02D0995DF9101
:101EE000CF911F9108958F929F92AF92BF92CF9200
:101EF000DF92EF92FF92CF93C82F90E080E00E9494
:101F00005A366B017C016EEF8AEE94E00E94480F16
:101F1000682F70E06F5F7F4F90E080E00E945A363C
:101F200020E034E244E759E40E94BB364B015C01F7
:101F30006091ED047091EE048091EF049091F004B3
:101F40000E945A369B01AC01C501B4010E940D39B3
:101F50009B01AC01C701B6010E940D390E94863970
:101F6000AB016C2F8AEE94E0CF91FF90EF90DF9061
:101F7000CF90BF90AF909F908F900C94170D0F93C0
:101F80001F93CF938C01C0E0B8018C2F0E94730F78
:101F9000CF5FC031C9F76AE070E080E090E0CF9198
:101FA0001F910F910C947D098F929F92AF92BF92D7
:101FB000CF92DF92EF92FF921F93CF93DF93EC01CA
:101FC0006A017B0120E030E040E85FE3CB01B6012D
:101FD0000E94553687FD7EC020E030EC4AE555E48E
:101FE000C701B6010E941B3A18163CF4C12C30EC14
:101FF000D32E3AE5E32E35E4F32E6B817C818D817F
:102000009E810E945A364B015C0120E030E040E89E
:1020100055E4C701B6010E94BB369B01AC01C50166
:10202000B4010E940D3920E030E040E05FE30E94FF
:102030002A3820E030E040E85FE30E9429386B0155
:102040007C0120E030E040E450E40E94553687FDFA
:1020500048C020E030E04FE753E4C701B6010E94DA
:102060001B3A181634F4C12CD12C9FE7E92E93E4C7
:10207000F92E60E0CE010E94480F182F482F4F76AE
:10208000406160E0CE010E94EA0CC701B6010E94E7
:102090008639462F6EEFCE010E94EA0C412F60E098
:1020A000CE010E94EA0C65E070E080E090E00E94C2
:1020B0007D09412F406A60E0CE01DF91CF911F91F1
:1020C000FF90EF90DF90CF90BF90AF909F908F9058
:1020D0000C94EA0CC12CD12C20E8E22E2FE3F22E36
:1020E0008CCFC12CD12C80E4E82EFE2CC2CFFC0179
:1020F00001900020E9F73197AF01481B590BBC0153
:102100008EE693E00C9496078F929F92AF92BF92C7
:102110000F931F93CF93DF93CDB7DEB7A1970FB681
:10212000F894DEBF0FBECDBF19A2423008F44AE0DA
:102130008E010F5D1F4F842E912CB12CA12CA50177
:1021400094010E94F837E62FB901CA01EA30F4F48D
:10215000E05DD801EE938D01232B242B252B79F7FD
:1021600090E080E0109719F0CD010E947710A196C1
:102170000FB6F894DEBF0FBECDBFDF91CF911F9198
:102180000F91BF90AF909F908F900895E95CE1CF41
:10219000CF92DF92EF92FF92C12CD12C76014AE0D0
:1021A000C701B6010E94841089E00E9483088FEF66
:1021B000C81AD80AE80AF80A80E1C816D104E1046E
:1021C000F10469F78AE691E0FF90EF90DF90CF90FD
:1021D0000C947710CF93DF930E948808EC018AE675
:1021E00091E00E9477108C0F9D1FDF91CF91089591
:1021F0004F925F926F927F928F929F92AF92BF9217
:10220000CF92DF92EF92FF920F931F93CF936B01C8
:102210007C01742EAC019B010E94CA3A882399F07C
:102220008DE691E0CF911F910F91FF90EF90DF909D
:10223000CF90BF90AF909F908F907F906F905F9066
:102240004F900C94771046015701E894B7F82FEFA0
:102250003FEF4FE75FE7C501B4010E94CA3A811121
:102260000DC02FEF3FEF4FE75FE7C501B4010E94BC
:10227000553618161CF481E791E0D4CF2FEF3FEFCD
:102280004FE75FE4C701B6010E941B3A18161CF421
:1022900085E791E0C7CF2FEF3FEF4FE75FECC70136
:1022A000B6010E94553687FDF3CF20E030E0A9014A
:1022B000C701B6010E94553610E000E087FF08C054
:1022C0008DE20E9483088C01F7FAF094F7F8F094FD
:1022D000C0E060E070E080E09FE37C1641F020E029
:1022E00030E040E251E40E940D39CF5FF6CFA70104
:1022F00096010E942A382B013C010E9486394B012D
:102300005C014AE00E9484107C01E00EF11ECC23A7
:10231000B1F1C501B4010E945A369B01AC01C30161
:10232000B2010E9429384B015C018EE20E948308B1
:10233000E80EF91EC15018F120E030E040E251E40F
:10234000C501B4010E94BB362B013C010E948639B5
:102350004B01B12CA12C4AE0C501B4010E948410AC
:10236000E80EF91EC501B4010E945A369B01AC016A
:10237000C301B2010E9429384B015C01DBCFC701C8
:10238000CF911F910F91FF90EF90DF90CF90BF9072
:10239000AF909F908F907F906F905F904F90089537
:1023A000CF93DF93C6E8D2E0688179818A819B81EF
:1023B00045E00E94F81089E00E9483086C817D81CD
:1023C0008E819F8145E00E94F81089E00E94830879
:1023D000688579858A859B8545E00E94F8108AE6A4
:1023E00091E0DF91CF910C947710CF93DF930E940F
:1023F0008308EC018AE691E00E9477108C0F9D1F04
:10240000DF91CF910895CF93DF93FC0144815581F3
:10241000608171818EE693E00E949607EC018AE666
:1024200091E00E9477108C0F9D1FDF91CF9108954E
:102430004F925F926F927F928F929F92AF92BF92D4
:10244000CF92DF92EF92FF920F931F93CF936B0186
:102450007C01CA01B9010E9486392B013C0120E0B0
:1024600030E0A901C701B6010E945536882309F45E
:1024700006C2A701960163E67CE987E89FE30E9414
:10248000283A20912601253009F5EBEAFEE0C491B7
:10249000C7FF66C0C301B2010E947D0985E00E94AA
:1024A0001A09B801110F880B990BCF911F910F9149
:1024B000FF90EF90DF90CF90BF90AF909F908F9064
:1024C0007F906F905F904F900C947D092F3F11F794
:1024D00025E020932601EBEAFEE0C491CF3FD1F244
:1024E000C13009F409C120F1C23091F61092B00058
:1024F0001092B1002091B00022602093B000209192
:10250000B10021602093B100ECE9FEE0E491F0E03D
:10251000EE0FFF1FE357F14F2591349130930F03D6
:1025200020930E03EEE7FEE0E491E0930D0318C064
:1025300014BC15BC24B5226024BD25B5216025BD81
:10254000ECE9FEE0E491F0E0EE0FFF1FE357F14FFE
:1025500025913491EEE7FEE0E491E0931103C0E0B1
:10256000EEE7FEE04491ECE9FEE02491222399F0AD
:1025700030E0220F331FF901E159F14FA591B491D9
:10258000F901E357F14F259134912FB7F894EC916D
:102590004E2B4C932FBF20E030ED42E854E40E94D4
:1025A000BB360E9486396B01F12CE12C60E072E1B0
:1025B0008AE790E0A70196010E948F3749015A01EE
:1025C000BA01A90141505109610971098C2F8D7F10
:1025D00009F00EC14F3F51056105710509F00CF47A
:1025E000ECC060E472E48FE090E0A70196010E94E5
:1025F0008F37BA01A9014150510961097109C230EF
:1026000009F098C082E04F3F51056105710509F05E
:102610000CF463C060E970ED83E090E0A7019601DF
:102620000E948F37BA01A90141505109610971090E
:1026300083E04F3F51056105710509F00CF44DC071
:1026400068E478EE81E090E0A70196010E948F3760
:10265000BA01A901415051096109710984E04F3F54
:10266000510561057105C9F1C4F164E274EF80E0C0
:1026700090E0A70196010E948F37BA01A90141504D
:1026800051096109710985E04F3F510561057105E7
:1026900021F118F162E17AE780E090E0A70196016C
:1026A0000E948F37BA01A90141505109610971098E
:1026B00086E04F3F51056105710579F070F0B50175
:1026C000A4019AE075956795579547959A95D1F726
:1026D000415051096109710987E09091B100987FDB
:1026E000892B8093B100C13009F4A1C0C23009F434
:1026F000B3C0C111CFCE68C010928000109281008B
:102700002091810028602093810020918100216028
:1027100020938100ECE9FEE0E491F0E0EE0FFF1F72
:10272000E357F14F25913491EEE7FEE0E491E09319
:10273000100316CF4F3F51056105710509F00CF4E8
:1027400055C068E478EE81E090E0A70196010E9410
:102750008F37BA01A901415051096109710984E01B
:10276000C11192CF83E04F3F51056105710541F1E1
:102770003CF162E17AE780E090E0A70196010E94D7
:102780008F37BA01A901415051096109710984E0EB
:102790004F3F51056105710599F090F0B501A40115
:1027A0008AE075956795579547958A95D1F7415079
:1027B00051096109710985E003C081E0C1118DCF24
:1027C00095B5987F892B85BD47BD8FEF9FEFDC01C5
:1027D00080931A0390931B03A0931C03B0931D03D3
:1027E00080916E00826080936E0054CE82E0E6CFCE
:1027F00091E04115510581E0680771057CF068E4BE
:1028000078EE81E090E0A70196010E948F37BA012F
:10281000A901415051096109710993E0C13009F0E2
:1028200062CF80918100887F892B809381005093B3
:102830008900409388008FEF9FEFDC01809316039F
:1028400090931703A0931803B093190380916F001E
:10285000826080936F001ECE4093B3008FEF9FEF96
:10286000DC018093120390931303A0931403B0939D
:102870001503809170008260809370000BCEC301BD
:10288000B2010E947D0906CEFC0124813581232BF3
:1028900039F421E0FB018081882349F020E007C062
:1028A000808191810E94083D21E0892BB9F7822F18
:1028B0000895CF93DF93EC0188819981009711F0FF
:1028C0000E949134198218821D821C821B821A82F6
:1028D000DF91CF910895FC0180819181009711F0E3
:1028E0000C94913408950F931F93CF93DF938C0131
:1028F000EB01FC01808191810097E1F06881798191
:1029000061157105A9F0428153812C813D814217E7
:10291000530770F00E94113D8C819D81F8019583D1
:1029200084831D821C82DF91CF911F910F910895A6
:102930000E94913488819981F801918380838A81F2
:102940009B81938382838C819D819583848319826B
:1029500018821B821A82E5CF0C9479376F927F928E
:102960008F929F92AF92BF92CF92DF92EF92FF929F
:102970000F931F93CF93DF936C01712CD0E0C0E0D5
:1029800085E191E00E94AC14082E000C990B78169A
:1029900019060CF06DC04E018FEF881A980ACE010F
:1029A000805C9E4F0E94AC14682EE82EF12CC7016B
:1029B00001960E94F5338C015C01CF5BDE4FC81B92
:1029C000D90B8A2D801B861548F4CE018A0D9B1DDC
:1029D0000E94AC14F50181935F01F3CFE401CE0DA9
:1029E000DF1D5801AE0CBF1CF5011082B601C801F5
:1029F0000E94083D892B09F501151105A9F5CE01A5
:102A00008F5B9E4F0E94AC148093FC02682F81E084
:102A100093E00E94610DCE01805C9E4FDF91CF91CB
:102A20001F910F91FF90EF90DF90CF90BF90AF90EC
:102A30009F908F907F906F900895F50131978081DE
:102A40008C3449F4A70141505109B601C8010E94D4
:102A5000183D892B89F20115110519F0C8010E9452
:102A60009134249673948CCFC8010E949134C7CFBF
:102A70008DE69EE00E94EA108FEF9FEFCFCF1F936D
:102A8000CF93DF93EC010E94AC14182FCE01019676
:102A90000E94AC1490E0982F8827810F911DDF9140
:102AA000CF911F910895CF92DF92EF92FF920F93F3
:102AB0001F93CF93DF936A017B01082F10E0C801B9
:102AC000805B9F4F880F991F0E943F15BC01990F93
:102AD000880B990B0E945C3620E030E04AE754E412
:102AE0000E940D39A70196010E94BB366B017C0143
:102AF00082E191E00E94AC149AE0899FB001112418
:102B0000072E000C880B990B0E945C36A7019601DA
:102B10000E942A386B017C0120E030E04AEF53E448
:102B20000E941B3AC4EFD1E018168CF420E030E488
:102B30004CE155E4C701B6010E945536C4ECD9E01A
:102B400087FF05C0C701B6010E947F39EB01C801AC
:102B50000E94AC14AE01682F8AEE94E0DF91CF9111
:102B60001F910F91FF90EF90DF90CF900C94170D75
:102B700090E0C096880F991F860F911D880F991FAE
:102B80000C943F157F928F929F92AF92BF92CF92FB
:102B9000DF92EF92FF920F931F93CF93DF93B82EA4
:102BA0006A01D62FC72F60E00E94B815BC01990FAB
:102BB000880B990B0E945C367B018C0161E08B2DA8
:102BC0000E94B815BC01990F880B990B0E945C36C6
:102BD000762E872E982EA92E96014D2F5C2F0E94BF
:102BE000553687FF71C0772D682D992D8A2D272F97
:102BF000362F492F582FB701C8010E941B3A1816CB
:102C000094F096014D2F5C2F672D782D892D9A2DEC
:102C10000E94553676010D2F1C2F87FF04C0E72C2C
:102C2000F82C092D1A2DCB2DD0E06E0180E3C80EB3
:102C3000D11CCC0FDD1FCA5FDE4FB701C8010E9457
:102C40007F3979836883C601880F991F0E943F15D9
:102C5000EC01C6010E94AC14682F880F770B880B1B
:102C6000990B0E945C369701A8010E94BB366B014C
:102C70007C01BE01DD0F880B990B0E945C369B0125
:102C8000AC01C701B6010E942A380E947F39072E85
:102C9000000C880B990B0E945C3620E030E0A90103
:102CA0000E942A38AB01BC018B2DDF91CF911F917F
:102CB0000F91FF90EF90DF90CF90BF90AF909F90DB
:102CC0008F907F900C9453157C2D6D2DCE018FCF5E
:102CD0002F923F924F925F926F927F928F929F922C
:102CE000AF92BF92CF92DF92EF92FF920F931F931A
:102CF000CF93DF93CDB7DEB72E970FB6F894DEBF34
:102D00000FBECDBF5C016A017B0120E030E0A9016C
:102D1000CB01B6010E9455369501205E3F4F390127
:102D2000181684F189013FE03983D8017E916E91B4
:102D30008D01072E000C880B990B0E945C36AB01AD
:102D4000BC0189810E94C215B981B150B983BF3FCE
:102D500061F72E960FB6F894DEBF0FBECDBFDF91A0
:102D6000CF911F910F91FF90EF90DF90CF90BF9088
:102D7000AF909F908F907F906F905F904F903F901B
:102D80002F90089580E290E00E94F5338C0186E058
:102D9000882E81E0982E9801F50170E060E0D40162
:102DA0008D919D914D0141915191841B950BD901BC
:102DB0008D939D939D0197FF03C0919581959109F6
:102DC000681779070CF4BC01E615F70541F7072EE3
:102DD000000C880B990B0E945C36A70196010E949B
:102DE0000D396B017C0120E030E0A9010E941B3A03
:102DF00020E030E040E05FE387FD91C0C701B6010D
:102E00000E942A380E947F397E876D87D12CC12C81
:102E10008D859E85092E000CAA0BBB0B89879A878E
:102E2000AB87BC87AD85BE85AC15BD050CF47CC0F9
:102E300048011501F12CC6010D2C000CAA0BBB0B8F
:102E40008D839E83AF83B887D1016D917D911D01E4
:102E5000072E000C880B990B0E945C362B013C015D
:102E6000ED85FE8520E030E0A901EF2B09F443C099
:102E70006D817E818F8198850E945C362BED3FE0CD
:102E800049E450E40E94BB3669837A838B839C8338
:102E900069857A858B859C850E945C369B01AC0197
:102EA00069817A818B819C810E940D390E94083949
:102EB00020E030E040E85FE30E942A3820E030E084
:102EC00040E05FE30E94BB3669837A838B839C83F7
:102ED000D4016D917C91072E000C880B990B0E94F8
:102EE0005C369B01AC0169817A818B819C810E9457
:102EF000BB369B01AC01C301B2010E942A38AB0171
:102F0000BC018F2D0E94C215F394B2E08B0E911C70
:102F1000E0E1FE1299CFFFEFCF1ADF0A83CFC7019E
:102F2000B6010E9429386ECF0115110509F411CFA1
:102F3000C8012E960FB6F894DEBF0FBECDBFDF914D
:102F4000CF911F910F91FF90EF90DF90CF90BF90A6
:102F5000AF909F908F907F906F905F904F903F9039
:102F60002F900C9491342F923F924F925F926F92D8
:102F70007F928F929F92AF92BF92CF92DF92EF9209
:102F8000FF920F931F93CF93DF93CDB7DEB72F97A9
:102F90000FB6F894DEBF0FBECDBF4C016D83690143
:102FA0007A01202F30E03A83298320E030E0A90124
:102FB000C701B6010E9455361816ECF01FE0812FAC
:102FC000012E000C990BA981BA818A179B070CF47A
:102FD0001EC1880D991DFC016081062E000C770B27
:102FE000880B990B0E945C36AB01BC01812F0E94BB
:102FF000C2151150E4CF80E190E029813A81821B13
:10300000930B811530E4930780F5880F991F009783
:1030100079F10E94F5335C01E981FA81EE0FFF1F1F
:10302000CF018A5F9E4F3C012501D401402F70E003
:1030300060E0403100F5F301819191913F012D91C4
:103040005D81250390011124821B930BF201819372
:1030500091932F0197FF03C091958195910968176E
:1030600079070CF4BC014F5FE4CF8FEF9FEFD1CF16
:1030700081E090E0CECF072E000C880B990B0E94C8
:103080005C36A70196010E940D396B017C0120E09E
:1030900030E0A9010E941B3A20E030E040E05FE30D
:1030A00087FD8BC0C701B6010E942A380E947F3974
:1030B0001B011F861E86CB01770FAA0BBB0B8A87CD
:1030C0009B87AC87BD87AE85BF852A163B060CF46F
:1030D00080C0BA82A9829C828B82102FCD01092EDA
:1030E000000CAA0BBB0B8E839F83A887B987103176
:1030F00008F068C0AB81BC816D91BC83AB832D812E
:103100006203B0011124072E000C880B990B0E945A
:103110005C366B017C0120E030E0A9012114310410
:10312000E1F16E817F81888599850E945C362BED67
:103130003FE049E450E40E94BB362B013C016A8524
:103140007B858C859D850E945C369B01AC01C3010B
:10315000B2010E940D390E94083920E030E040E8B9
:103160005FE30E942A3820E030E040E05FE30E9405
:10317000BB362B013C01A981BA816D917C91072E50
:10318000000C880B990B0E945C369B01AC01C301BB
:10319000B2010E94BB369B01AC01C701B6010E947F
:1031A0002A38AB01BC01812F0E94C2151F5FE98143
:1031B000FA813296FA83E9839ACFC701B6010E9459
:1031C000293874CF2E853F852F5F3F4F3F872E874D
:1031D0007ACFA114B104D9F0C5012F960FB6F89497
:1031E000DEBF0FBECDBFDF91CF911F910F91FF903A
:1031F000EF90DF90CF90BF90AF909F908F907F9097
:103200006F905F904F903F902F900C9491342F9639
:103210000FB6F894DEBF0FBECDBFDF91CF911F91E7
:103220000F91FF90EF90DF90CF90BF90AF909F9065
:103230008F907F906F905F904F903F902F90089568
:103240007F928F929F92AF92BF92CF92DF92EF9236
:10325000FF920F931F93CF93DF937C01FC010190AA
:103260000020E9F7329780818C3409F477C08235E9
:1032700009F076C087EE8093FB02C7010E94AE146E
:10328000EC01CF3FDC0709F4D4C1CE010E94AC149D
:10329000B82ECE0102960E943F15D82EC92E082FB7
:1032A000192FC0913605D091370599E4B9125AC04B
:1032B00084E50E9482076C2D8BE094E00E94730BE2
:1032C0006D2D8BE094E00E94730B8BE094E00E94E4
:1032D000A20B61E084E50E94540A1092F3028093ED
:1032E000F2028BE094E00E94330B88838093FC020F
:1032F000682F81E093E00E94610D8C01B12CA12C1C
:10330000101611060CF043C0602F0F3111050CF0A0
:103310006EE184E50E94540A782E1092F3028093A5
:10332000F2024801EEE18E1A910868018091F302E1
:10333000781659F08BE094E00E94330BFFEFAF1A40
:10334000BF0AFE01EA0DFB1D808381E0C81AD10887
:10335000F1F08401C814D90449F7D2CF89E18BCFA9
:1033600080E089CF6091FC0281E093E00E94610DD2
:10337000DE010C1B1D0BF801EA0FFB1F9D012C1B2E
:103380003D0B281739071CF4E491ED93F4CF80E04E
:1033900090E0A0E0B0E48093FD029093FE02A09341
:1033A000FF02B09300038981082E000C990B9093C3
:1033B0000303809302031092F1028A81082E000C0D
:1033C000990B90930503809304031092F0028B8174
:1033D000809306031091FC0217FF0FC08C8180932D
:1033E00007038D81809308038E818093090387E012
:1033F00040E050E060E07FE307C084E040E050E060
:1034000060E87FE31130A1F74093EB025093EC02A8
:103410006093ED027093EE0290E012300CF098E0B1
:1034200090930A03C80FD11DD0930C03C0930B03D4
:1034300069E771E0C7010E94083D892B09F4C5C006
:10344000113009F0C2C00E94663524E630E040E049
:1034500050E00E948F370E945C3620E030E040E26E
:1034600051E40E940D3920E030E040EA50E40E942F
:1034700029386093F4027093F5028093F6029093DA
:10348000F702C090F402D090F502E090F602F090BE
:10349000F702D0E0C0E000910B0310910C030C0F79
:1034A0001D1FF8016081062E000C770B880B990B0D
:1034B0000E945C36A70196010E942A380E947F393B
:1034C000F80160832196C031D10529F78091FB0274
:1034D00087FF84C0809102039091030391958195A9
:1034E0009109909303038093020390E080E0409160
:1034F000FC02242F042E000C330B37FF03C0319540
:1035000021953109821793070CF07DC042301CF5DC
:1035100040910103489F9001499F300D1124E09193
:103520000B03F0910C03E20FF31F20812195208300
:1035300020910103289FF001299FF00D11249F0184
:103540002E5F3F4FE0910B03F0910C03E20FF31F4E
:103550002081219520832091FC0260E022300CF430
:1035600062E0E62FF0E02091FC0222300CF46FC004
:1035700024E030E040910B0350910C03E217F30775
:103580000CF068C09F01220F331F70910103789FD8
:10359000F001799FF00D1124E20FF31FE40FF51FE6
:1035A00040815181508350910103589FD001599F10
:1035B000B00D1124E0910B03F0910C03E20FF31F07
:1035C000EA0FFB1F41836F5FCCCF1092F402109281
:1035D000F5021092F6021092F70253CF9091FC027E
:1035E00092308CF481110FC00E94663524E630E0E1
:1035F00040E050E00E948F3760FF05C08091EA02F2
:10360000833609F067CF1092E9021092E802209108
:10361000FD023091FE024091FF02509100030091A3
:103620000A036091060380910B0390910C030E94A2
:10363000B317DF91CF911F910F91FF90EF90DF9023
:10364000CF90BF90AF909F908F907F90089528E08B
:1036500030E090CF01964BCF4F925F926F927F9266
:10366000AF92BF92CF92DF92EF92FF920F931F9390
:10367000CF93DF93F82E192F0E94AC148695CF2D8F
:10368000D12FD12CC12CE82EF12C88EEA82E83E06E
:10369000B82E2197CE14DF043CF5CE018E199F0978
:1036A0000E94AC14782ECE010E94AC14182F672D06
:1036B00070E0C5010E94F03B072E000C880B990BAF
:1036C0000E945C362B013C01612F70E090E080E0AD
:1036D0000E945A3610E000E0A30192010E941812E5
:1036E0008FEFC81AD80AD5CFDF91CF911F910F91D4
:1036F000FF90EF90DF90CF90BF90AF907F906F9052
:103700005F904F9008950F931F93CF93DF93EC0139
:103710008B010E947937081721F0602FCE010E949B
:1037200081372196CE010E947937181721F0612F39
:10373000CE010E94813766E070E080E090E0DF918A
:10374000CF911F910F910C947D090F931F93CF93ED
:10375000DF93EC0188819981009759F02A813B81A0
:103760002617370730F081E0DF91CF911F910F913D
:1037700008958B016F5F7F4F0E942D3C009759F099
:10378000998388831B830A832C813D81232B59F7DE
:10379000FC011082E8CF80E0E7CFEF92FF920F9319
:1037A0001F93CF93DF936115710541F480E0DF91A2
:1037B000CF911F910F91FF90EF9008954115510502
:1037C000B1F07B01EC010C811D81040F151FB801C4
:1037D0000E94A51B882351F3288139818C819D810A
:1037E000B701820F931F0E94113D1D830C8381E05E
:1037F000DECFEF92FF920F931F93CF93DF93EC01F5
:103800007B018A01BA010E94A51B81110BC0CE0168
:103810000E945914CE01DF91CF911F910F91FF901B
:10382000EF9008951D830C83B701888199810E94D0
:10383000113DF0CFFB01DC0111961C921E921396F4
:103840001C921E92129715961C921E921497861720
:10385000970759F0608171816115710521F04481EC
:1038600055810C94F91B0C9459140895FB01019097
:103870000020E9F73197AF01461B570B0C94F91B59
:103880000F931F93CF93DF93CDB7DEB762970FB639
:10389000F894DEBF0FBECDBF8C01CB01F8011182C1
:1038A000108213821282158214824AE0BE016F5F79
:1038B0007F4F0E941836BE016F5F7F4FC8010E9484
:1038C000361C62960FB6F894DEBF0FBECDBFDF91F7
:1038D000CF911F910F910895FC01118210821382E4
:1038E000128215821482FB0101900020E9F73197C2
:1038F000AF01461B570B0C94F91BEF92FF920F93ED
:103900001F93CF93DF9300D0CDB7DEB78C01E62EA7
:1039100065EA71E00E946C1C0E94BC090E2C000C30
:10392000FF0897FD10C08E159F0569F089831A82E4
:1039300041E050E0BE016F5F7F4FC8010E94CD1B88
:103940000E94BC09EECFC8010F900F90DF91CF917C
:103950001F910F91FF90EF900895EF92FF920F93B8
:103960001F93CF93DF93EC018B01198218821B8286
:103970001A821D821C82CB010E94E3357C01BC01AE
:10398000CE010E94A51B811109C0CE01DF91CF910C
:103990001F910F91FF90EF900C945914FD82EC82CF
:1039A000B80188819981DF91CF911F910F91FF908C
:1039B000EF900C94DC3585ED8093BC00809166031C
:1039C00090916703A0916803B09169030796A11DC8
:1039D000B11D23E0B695A795979587952A95D1F7C0
:1039E0002091BC0024FD03C010926403089540910F
:1039F0006603509167036091680370916903452BDA
:103A0000462B472B69F30097A105B10541F02AE247
:103A10002A95F1F700C00197A109B109E1CF809182
:103A200065030C94330A4F925F926F927F928F924C
:103A30009F92AF92BF92CF92DF92EF92FF920F933D
:103A40001F93CF93DF93CDB7DEB7E8970FB6F89407
:103A5000DEBF0FBECDBF80902E0590902F050E9437
:103A600058092B013C015401BB240E94B10E6C018A
:103A7000A816B9060CF057C0893C910584F121E0E5
:103A800042E06AE680911D050E94CA0E0E94B10EB6
:103A90006C01892B09F04BC00E9458096419750903
:103AA00086099709693F7A428105910578F380E09C
:103AB000E8960FB6F894DEBF0FBECDBFDF91CF9171
:103AC0001F910F91FF90EF90DF90CF90BF90AF903C
:103AD0009F908F907F906F905F904F9008950E947D
:103AE000B10E6C01A816B906F4F47C01EA18FB08C3
:103AF000670181E2E816F1041CF080E2C82ED12CA7
:103B0000CC2079F008EE13E09E012F5F3F4F4C2D43
:103B100064E780911D050E940A0EEC18FD0841F72C
:103B2000DECF1982FACFC114D10409F4C0CF0E94AC
:103B300058096419750986099709693F7A42810510
:103B4000910508F0B4CFAC14BD0409F08ECF8820E5
:103B500009F4FAC108EE13E02CEA31E0482D64E7DD
:103B600080911D050E940A0E6090B0017090B10115
:103B70007624672476248090B4019090B50198242F
:103B800089249824A090B801B090B901BA24AB243C
:103B9000BA246091AC017091AD0176276727762732
:103BA000072E000C880B990B0E945C3620E030E059
:103BB00040E858E30E94BB366B017C01C0920D05C2
:103BC000D0920E05E0920F05F0921005B301770C2C
:103BD000880B990B0E945C3620E030E040E858E307
:103BE0000E94BB362B013C014092110550921205F8
:103BF0006092130570921405B401990C880B990B0F
:103C00000E945C3620E030E040E858E30E94BB367A
:103C100069A37AA38BA39CA36093150570931605E3
:103C20008093170590931805B501BB0C880B990B71
:103C30000E945C3620E030E040E858E30E94BB364A
:103C40006DA37EA38FA398A76093190570931A059F
:103C500080931B0590931C059B01AC01C301B2012D
:103C60000E94BB364B015C0129A13AA14BA15CA18A
:103C7000C701B6010E94BB369B01AC01C501B4016E
:103C80000E9429389B01AC010E942A386DA77EA7AB
:103C90008FA798AB6093010570930205809303058D
:103CA00090930405A3019201C701B6010E94BB369F
:103CB0004B015C012DA13EA14FA158A569A17AA19C
:103CC0008BA19CA10E94BB369B01AC01C501B40134
:103CD0000E942A389B01AC010E942A3869A77AA762
:103CE0008BA79CA760930505709306058093070535
:103CF00090930805A7019601C701B6010E94BB3643
:103D00004B015C01A3019201C301B2010E94BB36C9
:103D10009B01AC01C501B4010E9429384B015C0133
:103D200029A13AA14BA15CA1CA01B9010E94BB36ED
:103D30009B01AC01C501B4010E9429384B015C0113
:103D40002DA13EA14FA158A5CA01B9010E94BB36C1
:103D50009B01AC01C501B4010E942A384B015C01F2
:103D60008092090590920A05A0920B05B0920C056D
:103D7000A7019601C701B6010E942A3869AB7AAB48
:103D80008BAB9CABA3019201C301B2010E942A3804
:103D90006DAB7EAB8FAB98AFA701960169A97AA9ED
:103DA0008BA99CA90E94BB366B017C01A3019201E7
:103DB0006DA97EA98FA998AD0E94BB369B01AC016D
:103DC000C701B6010E942A3820E030E040E85FE3F6
:103DD0000E9429386B017C0129A13AA14BA15CA169
:103DE0006DA97EA98FA998AD0E94BB362B013C011D
:103DF0002DA13EA14FA158A569A97AA98BA99CA97B
:103E00000E94BB369B01AC01C301B2010E9429385C
:103E1000A70196010E94A9386093860270938702D9
:103E2000809388029093890229A53AA54BA55CA5A9
:103E3000CA01B9010E94BB366B017C01A501940146
:103E4000C501B4010E94BB369B01AC01C701B6019C
:103E50000E942A380E94863A9B01AC016DA57EA57E
:103E60008FA598A90E94A9386B017C01C0928A0293
:103E7000D0928B02E0928C02F0928D02A501940107
:103E800069A57AA58BA59CA50E94A93860938E028E
:103E900070938F02809390029093910220E030E023
:103EA000A901C501B4010E94553687FF1AC020E060
:103EB00030E0A901C701B6010E941B3AA701960193
:103EC00018160CF044C06BED7FE089E490E40E948A
:103ED000293860938A0270938B0280938C029093AE
:103EE0008D0206E812E0F801619171918191919142
:103EF0008F017F01F4E0EF1AF10820EE3EE245E683
:103F000052E40E94BB36D7016D937D938D939C93B1
:103F10001397B2E002391B0731F760918E0270915E
:103F20008F0280919002909191029F7711E020E0A2
:103F300030E044EB52E40E941B3A18160CF010E0FB
:103F40001093D20281E0B4CD1092AC010DCE6BED96
:103F50007FE089E490ECBBCF1F920F920FB60F92D7
:103F600011242F933F934F935F936F937F938F937E
:103F70009F93AF93BF93EF93FF9380911203909120
:103F80001303A0911403B0911503892B8A2B8B2B5B
:103F9000D1F190910D03E0910E03F0910F03808118
:103FA000892780838091120390911303A0911403B9
:103FB000B0911503181619061A061B069CF4809179
:103FC000120390911303A0911403B091150301976C
:103FD000A109B1098093120390931303A0931403D2
:103FE000B0931503FF91EF91BF91AF919F918F9186
:103FF0007F916F915F914F913F912F910F900FBEE5
:104000000F901F901895809126010E941A09EACFFF
:104010001F920F920FB60F9211242F933F934F933D
:104020005F936F937F938F939F93AF93BF93EF9320
:10403000FF938EE693E00E941408FF91EF91BF91E9
:10404000AF919F918F917F916F915F914F913F9130
:104050002F910F900FBE0F901F9018951F920F92E7
:104060000FB60F9211242F938F939F93EF93FF938B
:10407000E0917E03F0917F038081E0918403F091D1
:10408000850382FD1BC09081809187038F5F8F73B2
:1040900020918803821741F0E0918703F0E0E25914
:1040A000FC4F958F80938703FF91EF919F918F91A4
:1040B0002F910F900FBE0F901F9018958081F4CF15
:1040C0001F920F920FB60F9211242F933F938F934D
:1040D0009F93AF93BF938091510290915202A09110
:1040E0005302B09154023091500223E0230F2D3738
:1040F00058F50196A11DB11D2093500280935102E5
:1041000090935202A0935302B093540280915502AF
:1041100090915602A0915702B09158020196A11DAC
:10412000B11D8093550290935602A0935702B0930D
:104130005802BF91AF919F918F913F912F910F9016
:104140000FBE0F901F90189526E8230F0296A11D11
:10415000B11DD2CF1F920F920FB60F9211242F9341
:104160003F934F935F936F937F938F939F93AF93FF
:10417000BF93EF93FF938091B900887F803609F455
:104180004AC0F0F5883209F4A7C018F5803109F467
:104190009BC0B8F4882309F4F9C0883009F494C0AE
:1041A000FF91EF91BF91AF919F918F917F916F910F
:1041B0005F914F913F912F910F900FBE0F901F90E5
:1041C0001895883109F488C0803251F780934203F2
:1041D00014C0803409F49DC040F48033B9F38833AF
:1041E000F9F68093420385ECB0C0803509F485C0B0
:1041F000883509F496C0883499F60E94DB1CD0CF2C
:10420000883909F48CC038F5883729F050F488369D
:1042100011F0803729F683E08093640310924F02F7
:1042200057C0883809F47BC0803919F0803809F00C
:10423000B7CF80914F02803208F071C0E0914F02F9
:1042400081E08E0F80934F028091BB00F0E0E15D32
:10425000FD4F80833DC0803B39F0E0F4803A09F4A3
:1042600079C0883A09F09CCF84E08093640310926F
:104270002E0210922D02E0915C02F0915D020995F0
:1042800080912D0281110FC081E080932D02109248
:104290000D0209C0803C09F4A6CF883C09F4A3CFE5
:1042A000883B09F07DCFE0912E0281E08E0F809354
:1042B0002E02F0E0E35FFD4F80818093BB00909180
:1042C0002E0280912D0229C080913F038093BB0074
:1042D00085EC8093BC0064CF9091410380914003B2
:1042E000981758F5E091410381E08E0F80934103C8
:1042F000F0E0E25EFC4F8081E9CFE091410381E094
:104300008E0F809341038091BB00F0E0E25EFC4F92
:10431000808390914103809140039817C8F285E80B
:10432000D8CFE091410381E08E0F809341038091CB
:10433000BB00F0E0E25EFC4F80838091430381117B
:104340005CCF81E080933E0384EA8093BC001092AE
:10435000640326CF85EC8093BC00109264038091A7
:104360004F02803230F4E0914F02F0E0E15DFD4F0A
:10437000108260914F0270E0E0915A02F0915B026E
:104380008FE292E0099510924F020ACF10924203F9
:1043900034CF1F920F920FB60F9211242F933F9399
:1043A0004F935F936F937F938F939F93AF93BF933D
:1043B000CF93DF93EF93FF932091180430E0F9013E
:1043C000E756FE4F8491F901E758F14FD491F90176
:1043D000E956F14FC491CC2379F081110E94C308B2
:1043E000EC2FF0E0EE0FFF1FE157FE4FA591B491C7
:1043F000EC91ED2381E009F480E020911D043091DF
:104400001E042F5F3F4F30931E0420931D04209104
:104410001B0430911C042536310518F094E090936C
:10442000170490911704911130C0811169C0209137
:104430001D0430911E042436310528F410921E0408
:1044400010921D045DC01092E90410921C04109299
:104450001B0420911B0430911C04A9014F5F5F4F86
:1044600050931C0440931B0440911D0450911E0462
:10447000220F331FF901E15EFB4F518340831092FD
:104480001E0410921D0491E021C0909117049130F8
:1044900001F58130A9F520911B0430911C04A9017C
:1044A0004F5F5F4F50931C0440931B0440911D04C9
:1044B00050911E04220F331FF901E15EFB4F51831F
:1044C000408310921E0410921D0492E090931704F2
:1044D00017C090911704923061F4882309F4B9CF82
:1044E00020911D0430911E042536310548F093E0DB
:1044F000EDCF90911704933099F4882309F49ECF5F
:1045000090911A049923A9F0811126C08091190471
:10451000882371F08091190461E00E94EC0809C0C1
:1045200090911704943061F791E09093E904DFCF04
:104530002D9AFF91EF91DF91CF91BF91AF919F9114
:104540008F917F916F915F914F913F912F910F903C
:104550000FBE0F901F90189580911904882321F0A9
:104560008091190460E0D9CF2D98E3CFCF93DF93EA
:10457000EEE6F3E01382128288EE93E0A0E0B0E072
:1045800084839583A683B7832AE431E03183208333
:1045900025EC30E03587248724EC30E03787268708
:1045A00020EC30E0318B208B21EC30E0338B228B00
:1045B00022EC30E0358B248B26EC30E0378B268BD9
:1045C000118E128E138E148ECBE0D4E01B821A82D1
:1045D0008C839D83AE83BF838CE591E09983888330
:1045E0008AE090E00E94F53390933B0580933A0572
:1045F00082E090E00E94F53390933905809338056E
:1046000082EC91E00E94F533909337058093360554
:10461000E7E1F4E084E0818313826FE771E080E3F7
:1046200095E00E946C1C88E680931D05EDE0F5E0A6
:1046300080E090E0A0E8BFE380839183A283B3830E
:1046400014821582168217821086118612861386AE
:104650001486158616861786E1E0F5E01082118231
:104660001282138214821582168217821086118696
:1046700012861386E0EFF4E081E1DF011D928A9556
:10468000E9F7EAEEF4E080E48083D283C183DF912E
:10469000CF910895CF93DF93CDB7DEB7C854D1093A
:1046A0000FB6F894DEBF0FBECDBF789484B582609C
:1046B00084BD84B5816084BD85B5826085BD85B5C6
:1046C000816085BD80916E00816080936E00109244
:1046D00081008091810082608093810080918100BF
:1046E0008160809381008091800081608093800050
:1046F0008091B10084608093B1008091B0008160AE
:104700008093B00080917A00846080937A008091D9
:104710007A00826080937A0080917A008160809331
:104720007A0080917A00806880937A001092C100AC
:10473000E0917E03F0917F0382E08083E0917A0331
:10474000F0917B031082E0917C03F0917D0380E186
:10475000808310928603E0918203F091830386E0C8
:104760008083E0918003F091810380818061808368
:10477000E0918003F0918103808188608083E091E3
:104780008003F0918103808180688083E0918003C1
:10479000F091810380818F7D808385E090E0A0E0AF
:1047A000B0E08093720390937303A0937403B0936B
:1047B00075031092F3021092F20210926B031092A2
:1047C0006A030E94150A83E997E090935D02809343
:1047D0005C0284E997E090935B0280935A0288E040
:1047E0008093B8008BE60E94F51188E19FE00FB638
:1047F000F894A895809360000FBE9093600064E6E3
:1048000070E080E090E00E947D0985EB9DE00E94D1
:10481000EA1001E023E042E06BE680911D050E9472
:10482000FD0E00E022E044E06BE180911D050E9456
:10483000FD0E22E044E06CE180911D050E94FD0E1A
:1048400020E046E06BE680911D050E94CA0E08EE4E
:1048500013E09E012F5F3F4F41E065E780911D050A
:104860000E940A0E882339F089818E7790E0959511
:10487000879580931E0580911E05843319F08C3036
:1048800009F0BDCF11E019A321E047E06BE680916C
:104890001D050E94CA0E64E670E080E090E00E9470
:1048A0007D0987E089A307E023E042E06AE6809182
:1048B0001D050E94FD0E64E670E080E090E00E941D
:1048C0007D0919A39E012F5D3F4F41E06BE680916A
:1048D0001D050E94AE0C19A29E012F5D3F4F41E0C5
:1048E00068E380911D050E94AE0C19A29E012F5D08
:1048F0003F4F41E063E280911D050E94AE0C19A27A
:104900009E012F5D3F4F41E06CE180911D050E94AB
:10491000AE0C80E889A39E012F5D3F4F41E067E325
:1049200080911D050E94AE0C19A39E012F5D3F4F83
:1049300041E06BE680911D050E94AE0C84E089A3E6
:104940009E012F5D3F4F41E069E180911D050E946E
:10495000AE0C19A39E012F5D3F4F41E06AE18091AB
:104960001D050E94AE0C40E06DE680911D050E9481
:10497000DA0C40E06EE680911D050E94DA0C80E1C1
:1049800090E00E94F5335C0180E190E00E94F533F5
:104990002C01312CE12CD12CC12C86EF282E612C3E
:1049A00077247394C6014096F22CFC18873F9B40F5
:1049B00010F400E1F02EC3018E199109F8161906C2
:1049C00019F014F0FE2CF194D20190E080E09601F1
:1049D00023553E4F8F1538F4F901E80FF91FE49184
:1049E000ED930196F7CF92014F2D6FE680911D0553
:1049F0000E94AE0C8F2C912CA114B10409F485C136
:104A0000432D4F716DE680911D050E94DA0C4E2DED
:104A10006EE680911D050E94DA0C08EE13E0950108
:104A20004F2D6FE680911D050E940A0EA401B5016D
:104A3000C2010E94F23C892B09F467C1C5010E94A2
:104A40009134C2010E94913481E0809359020FB6E3
:104A5000F894A8958091600088618093600010921E
:104A600060000FBEE12CFF24F394B12CC7010E941B
:104A70003F156C0180911D0552E05B1508F45FC184
:104A800008EE13E09E012F5F3F4F41E065E70E9473
:104A90000A0E882339F089818E7790E09595879565
:104AA00080931E0580911E0566E06E0D883320F010
:104AB0006B2D660F6B0D695880911D05D8AACFA686
:104AC000AE01415D5F4F0E94890CB39462E0E60E37
:104AD000F11C76E0B712CACF10915902111137C1FB
:104AE00021E047E06AE680911D050E94CA0EF89415
:104AF0001092800089E08093810080E293E090939F
:104B0000890080938800109285001092840082E0D2
:104B100080936F0078941092170410921C041092E6
:104B20001B048091180490E0FC01E758F14F249198
:104B30008956914FFC0184918823C9F090E0880F39
:104B4000991FFC01E159F14F45915491FC01E35744
:104B5000F14FA591B4919FB7F894FA018081209507
:104B6000822380838C91E22FE823EC939FBF64E043
:104B700070E080E395E00E94A51B82EC9DE00E941E
:104B80008808F5EDEF2EF2E0FF2E00E110E0C801FD
:104B90000E94AC14D7018D937D010F5F1F4F00322F
:104BA0001105A9F71092F3021092F20210926B0312
:104BB00010926A030E94150A83E997E090935D02C0
:104BC00080935C0284E997E090935B0280935A02A1
:104BD00040E860E08AEE94E00E94EA0C6AE070E04F
:104BE00080E090E00E947D0940E050E06AE774E4D4
:104BF0008AEE94E00E94D40F80E498E7ADE7B1E03C
:104C00008093ED049093EE04A093EF04B093F0042E
:104C100083E191E00E943F15092E000CAA0BBB0B0B
:104C200080935E0290935F02A0936002B093610252
:104C3000885D9945A109B10985399141A105B10561
:104C400060F088EA91E6A0E0B0E080935E02909385
:104C50005F02A0936002B093610260915E02709166
:104C60005F0280916002909161020E945C3620E0B8
:104C700030E04AE754E40E940D3942E00E94F81007
:104C80008EEB9DE00E94EA1020915E0230915F025F
:104C90004091600250916102A8EEB3E00E94AE37ED
:104CA0006B017C0140E050E060E773E48AEE94E041
:104CB0000E94D40FC092F304D092F404E092F50461
:104CC000F092F604C092ED04D092EE04E092EF046C
:104CD000F092F0040E94530D80ED9DE00E94EA10D6
:104CE00090E080E08C010F5F1F4F805C9E4F0E9420
:104CF000AC14080F111DC801805C9E4F0E94AC14BB
:104D00008E34A1F1C8010496EDCFC80CD91C46EF32
:104D1000C4164BE0D40610F00C94A533EF0C09F444
:104D20003394432D4F716DE680911D050E94DA0C7E
:104D30004E2D6EE680911D050E94DA0C33CEDEA664
:104D4000CDA6AE01435D5F4F6DE06E0DBCCE83EA34
:104D50009DE00E948808612F70E090E080E04AE0CA
:104D60000E94841089E20E94F511C1CE66E371E0D1
:104D7000C8018E5B9E4F0E94831B809177029091A9
:104D80007802E7E3F1E02191820F911D21E0E63402
:104D9000F207C9F7909378028093770280E10E942E
:104DA0004609BC01990F880B990B611571058105A6
:104DB000910511F00E94B5358FEF93E00E942C1BF6
:104DC00060ED77E080E090E00E947D090E94131D75
:104DD0000E94131D0E94131D60918A0270918B0224
:104DE00080918C0290918D029F7720E030E040EF1F
:104DF00051E40E941B3A181694F060918E02709153
:104E00008F0280919002909191029F7720E030E094
:104E100040EF51E40E941B3A18160CF03DC183E6A6
:104E20008093EA0282E08093E7028AEE9DE00E948E
:104E3000EA1083EE9DE00E94EA108CED9DE00E9456
:104E4000EA10409131015091320160913301269670
:104E50004DAF5EAF6FAF2697609134017091350111
:104E60008091360129966DAF7EAF8FAF29970E9452
:104E7000B00920E137E240E050E00E94F83780912D
:104E8000000190910101092E000CAA0BBB0B8217A7
:104E90009307A407B5070CF045C0790130930101D1
:104EA0002093000185E10E9446098C018A389240D6
:104EB000ACF580916202909163020817190721F006
:104EC00082E0E816F10454F585EF9DE00E94880821
:104ED000C80163E670E00E94F03B6B01072E000CF6
:104EE000EE08FF0877FFDAC08DE20E94830866278C
:104EF0007727CB016C197D098E099F094AE00E9432
:104F0000841086E50E94F51181ED93E00E942C1B30
:104F100060ED77E080E090E00E947D0910936302ED
:104F20000093620280910501882329F08091E802B4
:104F300080FF0E94131D809105018823B9F18091A3
:104F4000EA02833699F18091D202882379F10E9496
:104F500066356B017C010E9466354B015C01C7011F
:104F6000B6012AE030E040E050E00E948F371CEDAF
:104F7000160FC501B4012AE030E040E050E00E9485
:104F80008F3742ED460F212F6AE082E00E947E0DAE
:104F90008BE68093EA0262E871E080913A05909195
:104FA0003B050E94113D8FEF8093E70280917D02C7
:104FB0008111AFC08FE194E09093720280937102EF
:104FC00080911B0490911C0490937402809373024F
:104FD0008091E90490E0909376028093750280912D
:104FE0001704833009F095C0809121049091220428
:104FF000875891098E35910508F085C080911B0472
:1050000090911C04049709F04DC080912304909165
:1050100024048097479708F045C08091250490911B
:10502000260409970997F0F51092700210926F020A
:105030004FEF5FEFBA014093690250936A026093A9
:105040006B0270936C0283E090E090936602809311
:1050500065028091690290916A02A0916B02B09101
:105060006C02892F9A2FAB2FBB278A3509F4F6C122
:1050700008F0ADC1823209F4D9C108F092C1803183
:1050800009F4E9C108F03BC161E37EE0823009F434
:105090003EC165EA71E0EDC184E6C2CE4AE0C701D7
:1050A000B6012DCF80911B0490911C04843491058E
:1050B00050F18091230490912404815491098F9799
:1050C00010F590E080E040E050E0BA01FC01EB5DBB
:1050D000FB4F20813181295031092930310598F465
:1050E000FC01E95DFB4F20813181275131092231DB
:1050F000310508F4EEC02081318126503109273076
:10510000310508F4F7C01092170410921C04109295
:105110001B048EE693E00E94F40718161906A4F506
:1051200081E080937D0282E08093E7028EE693E047
:105130000E94D207182F8093EA0261E070E080E0BD
:1051400090E00E947D091B3409F03EC2E0903605D4
:10515000F090370510E000E08EE693E00E94F4073F
:10516000892B51F08EE693E00E94D207F701E00F01
:10517000F11F80830F5F1F4FF8013197EE0DFF1D68
:1051800080818E3749F710820E94B0092091E70292
:10519000222309F466C20E94B00968577C4E8F4FE3
:1051A0009F4F6093790270937A0280937B02909371
:1051B0007C026091E702662309F4FAC3F090EA02E8
:1051C0006530C0F4B2E6FB16A9F08CE88F0D823092
:1051D00088F070E0615F7F4F072E000C880B990B01
:1051E0000E945C3610E000E020E030E040EA50E44D
:1051F0000E9418128091E6028356823068F4E3E63A
:10520000FE1651F088ED9BE00E94BF0F81E0809375
:10521000050187E40E94F5118091EA02803751F080
:105220008091E502811106C081E08093E50280E76C
:105230000E94F5111091EA02E6ECE10FE13408F06A
:1052400078C30E2E000CFF0BE85DF64D0C94043C69
:10525000F22FED2F992C992C992C992C992C992C73
:10526000992C992C992C992C992C992C992C942F18
:10527000992C992C992C942F992C992C992C992C08
:10528000992C122E992C992C992C992C992C992C7B
:10529000992C992C992C992C992C992C992CFC2D82
:1052A000122E122EF52F992C992C872C992C122E18
:1052B000682DD72F992C122E992C9E2D572D992C75
:1052C000872CA32D122E122E872C992C992C992CD9
:1052D000872C440F551F661F771F41600496803846
:1052E000910509F0F3CE80E290E0909370028093F4
:1052F0006F02A1CE440F551F661F771FEFCF82317B
:1053000009F4B5C069E17EE0883109F0C2CECE0172
:1053100081960E94AD1C68E871E0CE0181960E94E2
:105320004414882309F4AAC06AE871E080E395E098
:105330000E94361C60E375E0CE0187960E941A1C1D
:10534000CE0181960E946B1465EA71E0CE018796CA
:105350000E94441481111AC000913A0510913B0536
:105360006FA178A5C8010E94113DD8010D900020C1
:10537000E9F7CD0102978017910709F023C1F801E1
:1053800080818093EA0281E08093E7021092170403
:1053900010921C0410921B04CE0187960E946B147D
:1053A000B8CE823409F45DC048F4803309F44DC0AE
:1053B0006FE07EE0883309F4AACF6BCE8A3409F41B
:1053C00053C060E07EE0823509F4A1CF62CE823A1C
:1053D00039F198F48A37E1F140F4823621F166E23E
:1053E0007EE0883609F493CF54CE803959F163E2D8
:1053F0007EE0883909F48BCF4CCE823CD1F040F46A
:10540000883AE9F060E27EE0803B09F480CF41CE4B
:10541000803E91F06BE37EE0823E09F478CF39CE96
:105420006FE37EE074CF6DE37EE071CF69E37EE0F1
:105430006ECF6FE27EE06BCF6DE27EE068CF6BE215
:105440007EE065CF69E27EE062CF6DE17EE05FCF16
:1054500065E17EE05CCF62E17EE059CF6BE07EE00B
:1054600056CF68E07EE053CF65E07EE050CF65E840
:1054700071E0CE0181960E946C1C4DCF6DE871E009
:10548000CE0181960E944414811111C06FE871E031
:10549000CE0181960E944414811109C061E971E036
:1054A000CE0181960E944414882309F442C08DA144
:1054B0009EA1892B21F0E9A1FAA1309721F4109245
:1054C0006402E4E6F2E0108110930201163471F4F4
:1054D0006AE871E080E395E00E944414882331F08B
:1054E0006FE771E080E395E00E94361C60E375E0B1
:1054F000CE0101960E941A1C1FA318A641E050E09D
:10550000BE01695D7F4FCE0101960E94CD1B8111C6
:1055100004C0CE0101960E945914BE016F5F7F4FF7
:10552000CE0187960E941A1CCE0101960E946B1430
:1055300007CF63E971E0CE0181960E944414811186
:105540002EC066E971E0CE0181960E94441481115B
:1055500026C069E971E0CE0181960E944414811150
:105560001EC06FE771E0CE0181960E944414811144
:1055700016C06CE971E0CE0181960E94441481113D
:105580000EC018A61FA21AA619A61CA61BA6BE010D
:105590006F5D7F4FCE0187960E947314D1CE69A1B3
:1055A0007AA16115710549F04DA15EA180E395E0F6
:1055B0000E94F91B1091020199CF80E395E00E94AF
:1055C0005914F8CF8BE6DDCE8EE693E00E94F40707
:1055D000181619060CF0D8CD65EA71E0CE01819657
:1055E0000E946C1C133429F0812F8B7F6AE0893470
:1055F00009F46EE7CE0101960E947D1CBE016F5F2B
:105600007F4FCE0181960E947314CE0101960E94B5
:105610006B142DA13EA13093D4022093D3021B36EC
:1056200031F08091360590913705143721F480913F
:105630003A0590913B0549A15AA1DC01FA01BF014D
:10564000641B750B621773071CF461916D93F7CFA0
:10565000820F931FDC011C92CE0181960E946B1475
:1056600093CD2091EA02233609F4A3CDC0907902AC
:10567000D0907A02E0907B02F0907C026C197D0958
:105680008E099F0916161706180619060CF091CDFB
:1056900010927D0280910401882309F48ACD0E9432
:1056A000B0098B019C010C191D092E093F09013D10
:1056B0001740210531050CF47CCD6093790270937D
:1056C0007A0280937B0290937C020E94663520913F
:1056D000770230917802032E000C440B550B0E9488
:1056E0008F371FEF77FD09C01F5FE12FF0E0E95C06
:1056F000FE4F8081681B7109F5CF1111E7C089E465
:105700008FA38DE488A726964DAD5EAD6FAD26972D
:1057100049A35AA36BA329966DAD7EAD8FAD299792
:1057200069837A838B830E94663522E030E040E013
:1057300050E00E948F376C0F7D1FDB0197968C9194
:105740008093EA0283E090E09093D4028093D302A6
:105750008091D3029091D402212E312C2816390643
:105760000CF0A2C00E94663523E030E040E050E03B
:105770000E948F37E62EF12C220C331CE1E2F0E080
:10578000EC0FFD1FEE0DFF1DA080E0913605F0919E
:105790003705E20DF31DA082EA2DEE0FFF0BFAABE9
:1057A000E9ABEA5FFE4FFEABEDAB80809180092C48
:1057B000000CAA08BB080E946635E1E0F0E0EC0F9F
:1057C000FD1FEE0DFF1D0081C02ED12CF12CE12C10
:1057D0000695402E512C712C612CA70196010E9438
:1057E0008F37860E971EA81EB91E84189508A60826
:1057F000B708F7EA8F16FFEF9F06AF06BF0654F50E
:1058000049A95AA94A5F5E4F5AAB49ABDA018D905C
:105810009C90092C000CAA08BB080E946635A701C1
:1058200096010E948F37680D791D8A1D9B1D641992
:10583000750986099709673A7F4F8F4F9F4F44F547
:1058400066EAE0913605F0913705E20DF31D6183BC
:105850001F5F7ECFEDA9FEA980809180092C000CEE
:10586000AA08BB080E946635A70196010E948F37DF
:10587000860E971EA81EB91E84189508A608B7089C
:105880006AE5FAE58F169104A104B104D4F6B8CF05
:10589000A9A9BAA9BC900E946635A70196010E94E9
:1058A0008F37B01A6B0DCDCF880F991F9093D4020C
:1058B0008093D3022091360530913705820F931FD4
:1058C000FC01108284E68093E70273CCE12FF0E0C4
:1058D000EE0FFF1FEF5BF14F6591749180913605DC
:1058E000909137050E94DC358091360590913705FF
:1058F000BC01DB012D91BD012093EA022B3621F47E
:1059000080913A0590913B050E94113DDBCF1736FF
:1059100059F48091050191E0892780930501811157
:1059200017E41093EA0205C0163709F0A6C00E94DA
:10593000D0118091EA028B3609F06BC39091FC0282
:1059400019160CF46AC300913A0510913B0562E800
:1059500071E0C8010E94083DF090EA02892BF1F045
:105960008F2D8B7F8934D1F0809138059091390546
:10597000009711F00E94913481E090E00E94F5338D
:10598000F80101900020E9F7E01BDC01EC93909313
:10599000390580933805B8010E94113D1092E70245
:1059A000F092E6028F2D877F833611F01092EA0283
:1059B0008091EA028B3609F02AC61091FC0217FF8B
:1059C000E1C38091090333243A94380E823008F4FD
:1059D000312C10E0212F30E08091FC02082E000CC9
:1059E000990B97FF03C09195819591092817390765
:1059F0000CF00DC6E0900B03F0900C0380910103B6
:105A0000189FE00CF11C1124F7016089062E000C90
:105A1000770B880B990B0E945C3620E030E040E861
:105A20005EE30E94BB369B01AC0100E0609106037F
:105A3000C7010E94B317A0910B03B0910C03809192
:105A40000103189FA00DB11D112452962C9152975D
:105A5000211100C380910103E0910B03F0910C032D
:105A6000189FE00DF11D1124618916160CF470C306
:105A7000EEEC6E02B00111246FC31A3759F4809115
:105A8000040191E0892780930401882309F449CF18
:105A90001AE547CF123709F04CCF80910301819569
:105AA0008093030118160CF03CCF12E53ACF809199
:105AB000E50291E0811190E09093E502811110E5FB
:105AC0001093EA02882309F434CF0E94530D31CF9A
:105AD0000E94C81065EA71E0CE0181960E946C1C9C
