:100000000C9420010C9448010C9448010C94431763
:100010000C9443170C9443170C9448010C94261528
:100020000C9448010C9448010C9448010C94BB17A3
:100030000C9448010C9448010C9448010C9448011C
:100040000C94DA150C9448010C94A8150C948215A4
:100050000C9448010C9448010C9448010C944801FC
:100060000C9424160C94480105A84CCDB2D44EB97A
:100070003836A9020C50B9918688083CA6AAAA2A4B
:10008000BE000000803F07634236B79BD8A71A39ED
:10009000685618AEBAAB558C1D3CB7CC5763BD6DD6
:1000A000EDFD753EF6177231BF000000803F08007D
:1000B0000000BE922449123EABAAAA2ABECDCCCCE7
:1000C0004C3E00000080BEABAAAAAA3E0000000081
:1000D000BF000000803F0000000000084178D3BB53
:1000E0004387D1133D190E3CC3BD4282AD2B3E6800
:1000F000EC8276BED98FE1A93E4C80EFFFBE01C4F1
:10010000FF7F3F0000000000010000010000000030
:1001100000000000000000000000000000000000DF
:10012000240027002A00000000080002010000034C
:1001300004070000000000000000024D487A00495A
:100140006E697420736572766F733A20004C6F612C
:100150006420736B696C6C73005265616479210073
:100160004E7962626C65000A2A20537461727420B1
:100170002A004C6F7720706F7765723A007A65724B
:100180006F00627574745570007374616E640070F2
:100190006565007075006869007374720073697436
:1001A00000747200776B0063720076740063004223
:1001B000007000520062616C616E6365004C006704
:1001C000004600640049324320454550524F4D20BF
:1001D0006F766572666C6F77212044656C65746517
:1001E00020736F6D6520736B696C6C73210A0061FD
:1001F000626F72746564007361766564003F00002D
:10020000000000230026002900000000002500282F
:10021000002B000404040404040404020202020289
:1002200002030303030303010204081020408001BA
:10023000020408102001020408102000A8189B26C0
:1002400011241FBECFEFD8E0DEBFCDBF11E0A0E08C
:10025000B1E0E2E3FEE502C005900D92A83BB107D4
:10026000D9F724E0A8EBB1E001C01D92A33EB2078C
:10027000E1F711E0CFE1D1E004C02197FE010E9437
:10028000062ECE31D107C9F70E94A2190C940C2F6B
:100290000C94000080E090E0A0E0B0E48093BF0206
:1002A0009093C002A093C102B093C202E091D70420
:1002B000F091D8048181082E000C990B9093C5020F
:1002C0008093C4028281082E000C990B9093C70280
:1002D0008093C60283818093C8028091BE0287FF0B
:1002E0000CC084818093C90285818093CA02868173
:1002F0008093CB0287E090E005C0813061F05CF034
:1003000084E098E09093CC02E80FF11DF093CE02C8
:10031000E093CD02089584E0EECF8091B6029091F3
:10032000B702891B990B089508950895FC01248153
:1003300035816217730720F480819181009729F439
:100340001092760286E792E00895860F971F08952F
:100350000895AF92BF92CF92DF92EF92FF920F93E8
:100360001F93CF93DF936C017B018B01040F151F4B
:10037000EB015E01AE18BF08C017D10759F06991B3
:10038000D601ED91FC910190F081E02DC601099517
:10039000892B79F7C501DF91CF911F910F91FF90C4
:1003A000EF90DF90CF90BF90AF900895FC01538DF8
:1003B000448D252F30E0842F90E0821B930B54173F
:1003C00010F0CF96089501970895FC01918D828DCC
:1003D000981761F0A28DAE0FBF2FB11D5D968C9165
:1003E000928D9F5F9F73928F90E008958FEF9FEFA4
:1003F0000895FC01918D828D981731F0828DE80F60
:10040000F11D858D90E008958FEF9FEF0895FC0119
:10041000918D228D892F90E0805C9F4F821B9109E6
:100420008F73992708958FE193E00E94070221E0DE
:10043000892B09F420E0822F089580E090E0892B39
:1004400029F00E94130281110C9400000895FC0110
:10045000A48DA80FB92FB11DA35ABF4F2C91848D25
:1004600090E001968F739927848FA689B7892C9382
:10047000A089B1898C91837080648C93938D848DD5
:10048000981306C00288F389E02D80818F7D8083D8
:100490000895EF92FF920F931F93CF93DF93EC0198
:1004A00081E0888F9B8D8C8D98131AC0E889F9891B
:1004B000808185FF15C09FB7F894EE89FF8960831E
:1004C000E889F98980818370806480839FBF81E09F
:1004D00090E0DF91CF911F910F91FF90EF900895E1
:1004E000F62E0B8D10E00F5F1F4F0F731127E02EBC
:1004F0008C8D8E110CC00FB607FCFACFE889F989F4
:10050000808185FFF5CFCE010E942702F1CFEB8DD0
:10051000EC0FFD2FF11DE35AFF4FF0829FB7F894C7
:100520000B8FEA89FB8980818062CFCF682F8FE1B2
:1005300093E00C9449020F931F93CF93DF938C01A8
:10054000D0E0C0E0F801EC0FFD1F6491662341F09C
:100550008FE193E00E944902892B11F02196F2CF9E
:10056000CE01DF91CF911F910F910895CF93DF932B
:10057000EC01888D8823B9F0AA89BB89E889F989BB
:100580008C9185FD03C0808186FD0DC00FB607FCF0
:10059000F7CF8C9185FFF2CF808185FFEDCFCE0123
:1005A0000E942702E9CFDF91CF910895833081F037
:1005B00028F4813099F08230A9F008958730A9F0AD
:1005C0008830C9F08430B1F4809180008F7D03C001
:1005D000809180008F7780938000089584B58F7715
:1005E00084BD089584B58F7DFBCF8091B0008F7757
:1005F0008093B00008958091B0008F7DF9CF1F9354
:10060000CF93DF93282F30E0F901EA5DFE4F84910C
:10061000F901E95DFD4FD491F901ED5EFD4FC49103
:10062000CC23A9F0162F81110E94D602EC2FF0E006
:10063000EE0FFF1FE75FFD4FA591B4918FB7F894C0
:10064000EC91111108C0D095DE23DC938FBFDF91B0
:10065000CF911F910895DE2BF8CF9091000189135F
:100660000BC0EAE3F1E0E4919FEF90930001E130E9
:1006700049F028F0E23061F060E00C94FF02109243
:100680006E00FACF90916F009D7F90936F00F4CF32
:10069000909170009D7F9093700091E09093B000D6
:1006A0009091B100987F94609093B1001092B30044
:1006B000E3CFCF93DF9390E0FC01E95DFD4F249100
:1006C0008D5E9D4FFC0184918823D1F090E0880FCE
:1006D000991FFC01E45EFE4FA591B491FC01E75F18
:1006E000FD4FC591D49161110EC09FB7F8948C91C4
:1006F000E22FE0958E238C932881E223E8839FBF2D
:10070000DF91CF9108958FB7F894EC91E22BEC93A1
:100710008FBFF6CF8E50806480937C0080917A00EA
:10072000806480937A0080917A0086FDFCCF80916E
:1007300078009091790008953FB7F89480916B020A
:1007400090916C02A0916D02B0916E0226B5A89BAB
:1007500005C02F3F19F00196A11DB11D3FBFBA2F53
:10076000A92F982F8827BC01CD01620F711D811D13
:10077000911D42E0660F771F881F991F4A95D1F798
:1007800008958F929F92AF92BF92CF92DF92EF9295
:10079000FF926B017C010E949C034B015C01C11420
:1007A000D104E104F104B9F00E949C0368197909AD
:1007B0008A099B09683E73408105910580F321E019
:1007C000C21AD108E108F10888EE880E83E0981E6D
:1007D000A11CB11CE4CFFF90EF90DF90CF90BF90B1
:1007E000AF909F908F9008952FB7F8946091670213
:1007F000709168028091690290916A022FBF0895FA
:100800000F931F93CF93DF93EC010E94F40368874B
:1008100079878A879B87E881F9810284F385E02DB7
:10082000CE01099597FF15C00E94F403088519852C
:100830002A853B85601B710B820B930B0C811D81FC
:100840002E813F81601771078207930720F38FEF96
:100850009FEFDF91CF911F910F9108952091430257
:10086000260F3327331F21323105ECF42091190371
:10087000FC0190E080E0243069F082E00895A091CE
:1008800043022191AC014D5D5D4FA40FB52FB11D09
:100890002C930196861798F380914302680F60931A
:1008A000430280E0089581E008951092190381E0E9
:1008B0008093F8021092F30261E082E10E94FF024D
:1008C00061E083E10E94FF02E9EBF0E080818E7F2E
:1008D000808380818D7F808388E48093B80085E465
:1008E0008093BC000895CF93DF9391E09093220210
:1008F0008823B9F0C091B800D091BA008091BC00B3
:100900008A7B8093BC0060E082E10E94FF0260E08D
:1009100083E10E94FF020E945504D093BA00C09365
:10092000B800DF91CF910895CF92DF92EF92FF92BE
:100930000F931F93CF93DF93D82FC62F613208F008
:1009400098C00E949C036B017C0180911903811166
:100950006BC081E0809319038093F8029FEF90931E
:10096000F7021092F6029C0F9093F5028093F40226
:100970008091F402DD0FD82BD093F4028091F30222
:10098000813009F078C01092F3020E949C036B0141
:100990007C018091F4028093BB0080911B039091B5
:1009A0001C03A0911D03B0911E03892B8A2B8B2B56
:1009B000A1F00E949C0300911B0310911C03209145
:1009C0001D0330911E036C197D098E099F090617BE
:1009D00017072807390708F448C08091BC0083FD39
:1009E000D8CF85EC8093BC000E949C036B017C01F6
:1009F00080911903813009F440C08091F6028C1770
:100A000010F4C091F602E3EDF2E0A9EFB2E080E06D
:100A10008C1355C08C2FDF91CF911F910F91FF90B8
:100A2000EF90DF90CF90089580911B0390911C036D
:100A3000A0911D03B0911E03892B8A2B8B2B09F4E7
:100A400084CF0E949C0300911B0310911C032091F2
:100A50001D0330911E036C197D098E099F0906172D
:100A600017072807390708F070CF80911A030E94F2
:100A70007304C0E0CFCF85EEB5CF80911B0390917A
:100A80001C03A0911D03B0911E03892B8A2B8B2B75
:100A900009F4AECF0E949C0300911B0310911C032C
:100AA00020911D0330911E036C197D098E099F0949
:100AB000061717072807390708F09ACFD6CF919164
:100AC0009D938F5FA5CF0895E091B7028091B60204
:100AD000E81730F4F0E0E750FD4F808190E0089592
:100AE0008FEF9FEF08959091B7028091B6022FEF9C
:100AF0003FEF981748F4E92FF0E0E750FD4F2081D1
:100B000030E09F5F9093B702C9010895CF92DF92C2
:100B1000EF92FF920F931F93CF93DF937C01CB0152
:100B20008A012091D202222389F0EB016B01C40ECD
:100B3000D51ECC15DD0569F06991D701ED91FC91C9
:100B40000190F081E02DC7010995F3CF642F0E9439
:100B50002E04C801DF91CF911F910F91FF90EF906C
:100B6000DF90CF900895CF93DF931F92CDB7DEB77C
:100B700069832091D2022223F9F02091CF02203202
:100B800058F021E030E0FC013383228390E080E0E4
:100B90000F90DF91CF9108958091D002E82FF0E07F
:100BA000EE5FFD4F998190838F5F8093D002809399
:100BB000CF0281E090E0ECCF61E0CE0101960E948F
:100BC0002E04F7CFCF92DF92EF92FF920F931F93F5
:100BD000CF93DF93D091CF0281E0D13208F09CC057
:100BE000C091D1020E949C036B017C01809119038A
:100BF00081116CC082E08093190381E08093F80238
:100C00008FEF8093F7021092F602D093F502A2E0E4
:100C1000B2E0E3EDF2E080E0D8138DC01092F40270
:100C20008091F402CC0FC82BC093F4028091F302A0
:100C3000813009F084C01092F3020E949C036B0182
:100C40007C018091F4028093BB0080911B03909102
:100C50001C03A0911D03B0911E03892B8A2B8B2BA3
:100C6000A1F00E949C0300911B0310911C03209192
:100C70001D0330911E036C197D098E099F0906170B
:100C800017072807390708F442C08091BC0083FD8C
:100C9000D8CF85EC8093BC000E949C036B017C0143
:100CA00080911903823009F44CC08091F7028F3F84
:100CB00009F469C08091F702803209F466C080911E
:100CC000F702803309F463C084E026C080911B03DF
:100CD00090911C03A0911D03B0911E03892B8A2BB8
:100CE0008B2B09F483CF0E949C0300911B0310916E
:100CF0001C0320911D0330911E036C197D098E0980
:100D00009F09061717072807390708F06FCF80914A
:100D10001A030E94730485E01092D0021092CF0251
:100D20001092D202DF91CF911F910F91FF90EF901F
:100D3000DF90CF9008959D9191938F5F6DCF85EE59
:100D4000A9CF80911B0390911C03A0911D03B0912A
:100D50001E03892B8A2B8B2B09F4A2CF0E949C03A4
:100D600000911B0310911C0320911D0330911E0361
:100D70006C197D098E099F0906171707280739077F
:100D800008F08ECFC4CF80E0C7CF82E0C5CF83E02C
:100D9000C3CF20918102309182022817390771F464
:100DA00090917F0280918002981741F0E0917F023C
:100DB000F0E0EE53FE4F808190E008958FEF9FEFBB
:100DC0000895EF92FF920F931F93CF93DF93DC016F
:100DD0005C96ED90FC905D97E114F10479F481E06C
:100DE00090E013969C938E93129790E080E0DF91B1
:100DF000CF911F910F91FF90EF9008955196ED9133
:100E0000FC91529750968C915097982F90950FB7D0
:100E10005E962C915E97122F127021FD6095F894CA
:100E20002081112319F1282B2083E7012197F1F765
:100E300028E0462F50E0308160FF1AC0382B308305
:100E4000E7012197F1F7BA0175956795215089F768
:100E5000112381F08081892380830FBF5C968D915F
:100E60009C910197F1F781E090E0C1CF2923DCCF7D
:100E70003923E5CF9081892BEFCF209181023091EA
:100E800082022817390761F48091800220917F0245
:100E900090E0805C9F4F821B91098F739927089582
:100EA00090E080E00895209181023091820228171D
:100EB0003907B9F490917F0280918002981789F0E8
:100EC000E0917F02F0E0EE53FE4F808120917F029F
:100ED00030E02F5F3F4F2F73332720937F0290E046
:100EE00008958FEF9FEF089590E080E008951F939D
:100EF000CF93DF93EC01142F89819A81288131E00F
:100F00003093D2022093D1021092D0021092CF02DD
:100F1000DC01ED91FC910190F081E02D0995898132
:100F20009A81DC01ED91FC910190F081E02D612F1F
:100F3000099589819A81DF91CF911F910C94E205E7
:100F4000DC01ED91FC910190F081E02D0994FC0110
:100F500087E094E1161634F484E098E0613011F4EF
:100F600084E090E19083062E000C770B77FF03C09E
:100F7000719561957109969FA001979F500D11245D
:100F8000840F952F911D0895DC01ED91FC91019046
:100F9000F081E02D09940F931F93CF93DF93EC0121
:100FA0008A0189819A81288131E03093D20220938D
:100FB000D1021092D0021092CF0224E0629FB001C1
:100FC00011246A5F7F4F0E94C40770E060E089814E
:100FD0009A810E94A00770E060E089819A810E9456
:100FE000A007B80189819A810E94A007612F70E053
:100FF00089819A810E94A00789819A81DF91CF918E
:101000001F910F910C94E205CF93C0E040E050E1B6
:101010006C2F8BE994E00E94CB07CF5FC031B1F712
:10102000CF9108959F92AF92BF92CF92DF92EF92AD
:10103000FF920F931F93CF93DF93EC0181E0809396
:10104000D20284E58093D1021092D0021092CF0296
:101050006D2F70E08CEB93E00E94C407BE017727F0
:101060008CEB93E00E94C4078CEB93E00E94E205B6
:1010700061E084E50E9494041092B7028093B60266
:101080008CEB93E00E947305C090D704D090D804F5
:10109000F60180838093BE02682F83EC92E00E9469
:1010A000A707EC01F12CE12C1C161D064CF56C2F4A
:1010B000CF31D1050CF06EE184E50E949404982EA6
:1010C0001092B7028093B6025E01FEE1AF1AB1083A
:1010D0008E018091B702981659F08CEB93E00E9434
:1010E00073059FEFE91AF90AF601EE0DFF1D8083E3
:1010F0000150110929F0E5010A151B0551F7D4CF5C
:10110000DF91CF911F910F91FF90EF90DF90CF90E3
:10111000BF90AF909F900895CF93DF93EC018981AA
:101120009A81288131E03093D2022093D10210922B
:10113000D0021092CF02DC01ED91FC910190F08180
:10114000E02D099589819A810E94E20561E08881FC
:101150000E9494041092B7028093B60289819A810A
:10116000DC01ED91FC910284F385E02D0995DF917E
:10117000CF9108958F929F92AF92BF92CF92DF92BC
:10118000EF92FF92CF93C82F90E080E00E941F293A
:101190006B017C016EEF8BE994E00E948C08682F54
:1011A00070E06F5F7F4F90E080E00E941F2920E099
:1011B00034E244E759E40E9480294B015C016091CC
:1011C0009E0470919F048091A0049091A1040E94BC
:1011D0001F299B01AC01C501B4010E94602B9B013A
:1011E000AC01C701B6010E94602B0E94D92BAB0154
:1011F0006C2F8BE994E0CF91FF90EF90DF90CF9030
:10120000BF90AF909F908F900C94CB070F931F933C
:10121000CF938C01C0E0B8018C2F0E94BA08CF5F39
:10122000C031C9F76AE070E080E090E0CF911F9193
:101230000F910C94C1038F929F92AF92BF92CF9265
:10124000DF92EF92FF921F93CF93DF93EC016A013D
:101250007B0120E030E040E85FE3CB01B6010E9473
:101260001A2987FD7EC020E030EC4AE555E4C7012D
:10127000B6010E94472C18163CF4C12C30ECD32E3A
:101280003AE5E32E35E4F32E6B817C818D819E81DE
:101290000E941F294B015C0120E030E040E855E44A
:1012A000C701B6010E9480299B01AC01C501B401B0
:1012B0000E94602B20E030E040E05FE30E94EF2AD4
:1012C00020E030E040E85FE30E94EE2A6B017C0101
:1012D00020E030E040E450E40E941A2987FD48C035
:1012E00020E030E04FE753E4C701B6010E94472CED
:1012F000181634F4C12CD12C9FE7E92E93E4F92E73
:1013000060E0CE010E948C08182F482F4F76406174
:1013100060E0CE010E947707C701B6010E94D92B79
:10132000462F6EEFCE010E947707412F60E0CE017D
:101330000E94770765E070E080E090E00E94C103C2
:10134000412F406A60E0CE01DF91CF911F91FF9065
:10135000EF90DF90CF90BF90AF909F908F900C94C4
:101360007707C12CD12C20E8E22E2FE3F22E8CCF70
:10137000C12CD12C80E4E82EFE2CC2CFFC010190C0
:101380000020E9F73197AF01481B590BBC018FE1F1
:1013900093E00C94A90185E691E00C94BE09CF93EB
:1013A000DF93FC0144815581608171818FE193E07D
:1013B0000E94A901EC010E94CB098C0F9D1FDF91B7
:1013C000CF910895CF93DF930E949B02EC010E947E
:1013D000CB098C0F9D1FDF91CF910895CF93DF93A1
:1013E0000E949602EC010E94CB098C0F9D1FDF9199
:1013F000CF9108958F929F92AF92BF920F931F93B8
:10140000CF93DF93CDB7DEB7A1970FB6F894DEBFC9
:101410000FBECDBF19A2423008F44AE08E010F5D25
:101420001F4F842E912CB12CA12CA50194010E9458
:10143000BD2AE62FB901CA01EA30F4F4E05DD80113
:10144000EE938D01232B242B252B79F790E080E060
:10145000109719F0CD010E94BE09A1960FB6F8941D
:10146000DEBF0FBECDBFDF91CF911F910F91BF9017
:10147000AF909F908F900895E95CE1CFCF92DF927B
:10148000EF92FF92C12CD12C76014AE0C701B60140
:101490000E94FA0989E00E9496028FEFC81AD80AC2
:1014A000E80AF80A80E1C816D104E104F10469F7FA
:1014B000FF90EF90DF90CF900C94CB09CF93DF9308
:1014C000D0E0C0E0009719F00E94BE09EC010E9434
:1014D000CB098C0F9D1FDF91CF910895FC012481D2
:1014E0003581232B39F421E0FB018081882349F0E9
:1014F00020E007C0808191810E94EE2E21E0892B9F
:10150000B9F7822F0895CF93DF93EC0188819981F9
:10151000009711F00E945627198218821D821C82A2
:101520001B821A82DF91CF910895FC018081918105
:10153000009711F00C94562708950F931F93CF93A3
:10154000DF938C01EB01FC01808191810097E1F038
:101550006881798161157105A9F0428153812C81DF
:101560003D814217530770F00E94F72E8C819D81B8
:10157000F801958384831D821C82DF91CF911F9196
:101580000F9108950E94562788819981F8019183CF
:1015900080838A819B81938382838C819D819583C3
:1015A0008483198218821B821A82E5CF0C943E2A0A
:1015B0006F927F928F929F92AF92BF92CF92DF9263
:1015C000EF92FF920F931F93CF93DF936C01712CD7
:1015D000D0E0C0E085E191E00E94D60A082E000C20
:1015E000990B781619060CF06DC04E018FEF881A12
:1015F000980ACE01805C9E4F0E94D60A682EE82E83
:10160000F12CC70101960E94BA268C015C01CF5BC8
:10161000DE4FC81BD90B8A2D801B861548F4CE01DE
:101620008A0D9B1D0E94D60AF50181935F01F3CFBD
:10163000E401CE0DDF1D5801AE0CBF1CF501108278
:10164000B601C8010E94EE2E892B09F5011511057E
:10165000A9F5CE018F5B9E4F0E94D60A8093BE02F1
:10166000682F83EC92E00E94A707CE01805C9E4F1A
:10167000DF91CF911F910F91FF90EF90DF90CF906E
:10168000BF90AF909F908F907F906F900895F501DD
:10169000319780818C3449F4A70141505109B6013A
:1016A000C8010E94FE2E892B89F20115110519F03F
:1016B000C8010E945627249673948CCFC8010E94BB
:1016C0005627C7CF8DEF91E00E94E2098FEF9FEF81
:1016D000CFCF1F93CF93DF93EC010E94D60A182F30
:1016E000CE0101960E94D60A90E0982F8827810F9C
:1016F000911DDF91CF911F910895CF92DF92EF92CC
:10170000FF920F931F93CF93DF936A017B01082F02
:1017100010E0C801805B9F4F880F991F0E94690BE2
:10172000BC01990F880B990B0E94212920E030E021
:101730004AE754E40E94602BA70196010E94802989
:101740006B017C0182E191E00E94D60A9AE0899FB8
:10175000B0011124072E000C880B990B0E9421293F
:10176000A70196010E94EF2A6B017C0120E030E086
:101770004AEF53E40E94472CC4EFD1E018168CF4D2
:1017800020E030E44CE155E4C701B6010E941A297B
:10179000C4ECD9E087FF05C0C701B6010E94D22B77
:1017A000EB01C8010E94D60AAE01682F8BE994E0D4
:1017B000DF91CF911F910F91FF90EF90DF90CF902D
:1017C0000C94CB0790E0C096880F991F860F911D4F
:1017D000880F991F0C94690B7F928F929F92AF9202
:1017E000BF92CF92DF92EF92FF920F931F93CF930E
:1017F000DF93B82E6A01D62FC72F60E00E94E20B5C
:10180000BC01990F880B990B0E9421297B018C0147
:1018100061E08B2D0E94E20BBC01990F880B990BA4
:101820000E942129762E872E982EA92E96014D2FC3
:101830005C2F0E941A2987FF71C0772D682D992D82
:101840008A2D272F362F492F582FB701C8010E9404
:10185000472C181694F096014D2F5C2F672D782D8C
:10186000892D9A2D0E941A2976010D2F1C2F87FF92
:1018700004C0E72CF82C092D1A2DCB2DD0E06E01D9
:1018800080E3C80ED11CCC0FDD1FCB5FDE4FB7014C
:10189000C8010E94D22B79836883C601880F991FE3
:1018A0000E94690BEC01C6010E94D60A682F880FBE
:1018B000770B880B990B0E9421299701A8010E94A0
:1018C00080296B017C01BE01DD0F880B990B0E9402
:1018D00021299B01AC01C701B6010E94EF2A0E9499
:1018E000D22B072E000C880B990B0E94212920E097
:1018F00030E0A9010E94EF2AAB01BC018B2DDF91E2
:10190000CF911F910F91FF90EF90DF90CF90BF90FC
:10191000AF909F908F907F900C947D0B7C2D6D2DC0
:10192000CE018FCF2F923F924F925F926F927F9214
:101930008F929F92AF92BF92CF92DF92EF92FF92DF
:101940000F931F93CF93DF93CDB7DEB72E970FB6CC
:10195000F894DEBF0FBECDBF5C016A017B0120E0C1
:1019600030E0A901CB01B6010E941A299501205E41
:101970003F4F3901181684F189013FE03983D801BE
:101980007E916E918D01072E000C880B990B0E94A1
:101990002129AB01BC0189810E94EC0BB981B150B6
:1019A000B983BF3F61F72E960FB6F894DEBF0FBE26
:1019B000CDBFDF91CF911F910F91FF90EF90DF90FE
:1019C000CF90BF90AF909F908F907F906F905F90DF
:1019D0004F903F902F90089580E290E00E94BA26A9
:1019E0008C0185E0882E81E0982E9801F50170E049
:1019F00060E0D4018D919D914D0141915191841BE5
:101A0000950BD9018D939D939D0197FF03C09195EF
:101A100081959109681779070CF4BC01E615F70563
:101A200041F7072E000C880B990B0E942129A70172
:101A300096010E94602B6B017C0120E030E0A9013F
:101A40000E94472C20E030E040E05FE387FD91C03A
:101A5000C701B6010E94EF2A0E94D22B7E876D87B4
:101A6000D12CC12C8D859E85092E000CAA0BBB0B99
:101A700089879A87AB87BC87AD85BE85AC15BD05C8
:101A80000CF47CC048011501F12CC6010D2C000C92
:101A9000AA0BBB0B8D839E83AF83B887D1016D9159
:101AA0007D911D01072E000C880B990B0E942129A6
:101AB0002B013C01ED85FE8520E030E0A901EF2BF4
:101AC00009F443C06D817E818F8198850E94212910
:101AD0002BED3FE049E450E40E94802969837A833A
:101AE0008B839C8369857A858B859C850E942129BF
:101AF0009B01AC0169817A818B819C810E94602B62
:101B00000E945B2B20E030E040E85FE30E94EF2A78
:101B100020E030E040E05FE30E94802969837A831F
:101B20008B839C83D4016D917C91072E000C880BD4
:101B3000990B0E9421299B01AC0169817A818B81DB
:101B40009C810E9480299B01AC01C301B2010E94CB
:101B5000EF2AAB01BC018F2D0E94EC0BF394B2E095
:101B60008B0E911CE0E1FE1299CFFFEFCF1ADF0A36
:101B700083CFC701B6010E94EE2A6ECF0115110571
:101B800009F411CFC8012E960FB6F894DEBF0FBE30
:101B9000CDBFDF91CF911F910F91FF90EF90DF901C
:101BA000CF90BF90AF909F908F907F906F905F90FD
:101BB0004F903F902F900C9456272F923F924F9228
:101BC0005F926F927F928F929F92AF92BF92CF92CD
:101BD000DF92EF92FF920F931F93CF93DF93CDB7D6
:101BE000DEB72F970FB6F894DEBF0FBECDBF4C0106
:101BF0006D8369017A01202F30E03A83298320E048
:101C000030E0A901C701B6010E941A291816ECF0AC
:101C10001FE0812F012E000C990BA981BA818A1730
:101C20009B070CF41EC1880D991DFC016081062ED6
:101C3000000C770B880B990B0E942129AB01BC018A
:101C4000812F0E94EC0B1150E4CF80E190E02981BC
:101C50003A81821B930B811530E4930780F5880F3E
:101C6000991F009779F10E94BA265C01E981FA81F7
:101C7000EE0FFF1FCF018B5F9E4F3C012501D4016A
:101C8000402F70E060E0403100F5F30181919191C7
:101C90003F012D915D81250390011124821B930B3F
:101CA000F201819391932F0197FF03C09195819544
:101CB0009109681779070CF4BC014F5FE4CF8FEFEF
:101CC0009FEFD1CF81E090E0CECF072E000C880BA4
:101CD000990B0E942129A70196010E94602B6B019C
:101CE0007C0120E030E0A9010E94472C20E030E098
:101CF00040E05FE387FD8BC0C701B6010E94EF2A79
:101D00000E94D22B1B011F861E86CB01770FAA0BC8
:101D1000BB0B8A879B87AC87BD87AE85BF852A169C
:101D20003B060CF480C0BA82A9829C828B82102F61
:101D3000CD01092E000CAA0BBB0B8E839F83A887B5
:101D4000B987103108F068C0AB81BC816D91BC834C
:101D5000AB832D816203B0011124072E000C880B88
:101D6000990B0E9421296B017C0120E030E0A90140
:101D700021143104E1F16E817F81888599850E946B
:101D800021292BED3FE049E450E40E9480292B01FA
:101D90003C016A857B858C859D850E9421299B015C
:101DA000AC01C301B2010E94602B0E945B2B20E0BA
:101DB00030E040E85FE30E94EF2A20E030E040E0BE
:101DC0005FE30E9480292B013C01A981BA816D91BA
:101DD0007C91072E000C880B990B0E9421299B01F6
:101DE000AC01C301B2010E9480299B01AC01C70173
:101DF000B6010E94EF2AAB01BC01812F0E94EC0BBF
:101E00001F5FE981FA813296FA83E9839ACFC7018D
:101E1000B6010E94EE2A74CF2E853F852F5F3F4F7B
:101E20003F872E877ACFA114B104D9F0C5012F9630
:101E30000FB6F894DEBF0FBECDBFDF91CF911F91DB
:101E40000F91FF90EF90DF90CF90BF90AF909F9059
:101E50008F907F906F905F904F903F902F900C9459
:101E600056272F960FB6F894DEBF0FBECDBFDF9179
:101E7000CF911F910F91FF90EF90DF90CF90BF9087
:101E8000AF909F908F907F906F905F904F903F901A
:101E90002F9008950F930E944A011092B902109258
:101EA000B802EAEBF2E0258136814781508502894C
:101EB0006685838994890E94DD0D0F910895CF92E4
:101EC000DF92EF92FF920F931F93CF93DF938C01DA
:101ED000FC0101900020E9F7329780818C3409F4ED
:101EE000EDC0823509F0ECC087EE8093BD02C801D9
:101EF0000E94D80AEC01CF3FDC0709F431C1CE01C2
:101F00000E94D60AF82ECE0102960E94690BEC01BF
:101F1000E9E4FE12D7C00E9412080E944A0168E656
:101F200071E0C8010E94EE2E892B09F4E5C0809172
:101F3000BE02813009F0E0C00E942B2824E630E088
:101F400040E050E00E94542A0E94212920E030E025
:101F500040E251E40E94602B20E030E040EA50E48F
:101F60000E94EE2A6093B2027093B3028093B4028F
:101F70009093B502C090B202D090B302E090B40248
:101F8000F090B502D0E0C0E00091CD021091CE02F9
:101F90000C0F1D1FF8016081062E000C770B880BBB
:101FA000990B0E942129A70196010E94EF2A0E9405
:101FB000D22BF80160832196C031D10529F7809199
:101FC000BD0287FFA2C08091C4029091C502919585
:101FD000819591099093C5028093C40290E080E0BE
:101FE0004091BE02242F042E000C330B37FF03C098
:101FF000319521953109821793070CF09BC042302F
:102000001CF54091C302489F9001499F300D112457
:10201000E091CD02F091CE02E20FF31F20812195D5
:1020200020832091C302289FF001299FF00D1124E5
:102030009F012E5F3F4FE091CD02F091CE02E20F63
:10204000F31F2081219520832091BE0260E0223081
:102050000CF462E0E62FF0E02091BE0222300CF496
:1020600088C024E030E04091CD025091CE02E217CA
:10207000F3070CF081C09F01220F331F7091C30240
:10208000789FF001799FF00D1124E20FF31FE40F08
:10209000F51F4081518150835091C302589FD00158
:1020A000599FB00D1124E091CD02F091CE02E20FC4
:1020B000F31FEA0FFB1F41836F5FCCCF89E115CF80
:1020C00080E013CF6091BE0283EC92E00E94A707EC
:1020D0002091D7043091D804D901C21BD30BFE0143
:1020E000EA0FFB1FAD01421B530B481759070CF0B9
:1020F00014CFE491ED93F3CF1092B2021092B30299
:102100001092B4021092B50235CF9091BE02923077
:102110008CF481110FC00E942B2824E630E040E0AF
:1021200050E00E94542A60FF05C08091B1028336BE
:1021300009F049CF1092B9021092B8022091BF0263
:102140003091C0024091C1025091C2020091CC0274
:102150006091C8028091CD029091CE020E94DD0D67
:10216000DF91CF911F910F91FF90EF90DF90CF9073
:10217000089528E030E077CF019632CF0F931F9378
:10218000CF93DF93EC018B010E943E2A081721F0C8
:10219000602FCE010E94462A2196CE010E943E2A3F
:1021A000181721F0612FCE010E94462A66E070E0E8
:1021B00080E090E0DF91CF911F910F910C94C103CB
:1021C0000F931F93CF93DF93EC0188819981009740
:1021D00059F02A813B812617370730F081E0DF91E3
:1021E000CF911F910F9108958B016F5F7F4F0E94D8
:1021F000202E009759F0998388831B830A832C81B2
:102200003D81232B59F7FC011082E8CF80E0E7CF16
:10221000EF92FF920F931F93CF93DF936115710598
:1022200041F480E0DF91CF911F910F91FF90EF90EB
:10223000089541155105B1F07B01EC010C811D8120
:10224000040F151FB8010E94E010882351F3288164
:1022500039818C819D81B701820F931F0E94F72ED7
:102260001D830C8381E0DECFEF92FF920F931F93CB
:10227000CF93DF93EC017B018A01BA010E94E01049
:1022800081110BC0CE010E94830ACE01DF91CF9154
:102290001F910F91FF90EF9008951D830C83B7015C
:1022A000888199810E94F72EF0CFFB01DC01119605
:1022B0001C921E9213961C921E92129715961C92B7
:1022C0001E9214978617970759F0608171816115E6
:1022D000710521F0448155810C9434110C94830ACA
:1022E0000895FB0101900020E9F73197AF01461BEB
:1022F000570B0C9434110F931F93CF93DF93CDB7EB
:10230000DEB762970FB6F894DEBF0FBECDBF8C016B
:10231000CB01F8011182108213821282158214827D
:102320004AE0BE016F5F7F4F0E94DD28BE016F5FF4
:102330007F4FC8010E94711162960FB6F894DEBFFC
:102340000FBECDBFDF91CF911F910F910895FC017A
:10235000118210821382128215821482FB01019075
:102360000020E9F73197AF01461B570B0C9434114D
:10237000CF92DF92EF92FF920F931F93CF93DF9351
:1023800000D0CDB7DEB78C016B01E42E6EEA71E0B0
:102390000E94A711C6010E9400040E2C000CFF0829
:1023A00097FD11C0E816F90671F089831A8241E0A1
:1023B00050E0BE016F5F7F4FC8010E940811C60147
:1023C0000E940004EDCFC8010F900F90DF91CF91D4
:1023D0001F910F91FF90EF90DF90CF900895EF92B3
:1023E000FF920F931F93CF93DF93EC018B01198220
:1023F00018821B821A821D821C82CB010E94A8288F
:102400007C01BC01CE010E94E010811109C0CE0107
:10241000DF91CF911F910F91FF90EF900C94830A61
:10242000FD82EC82B80188819981DF91CF911F9163
:102430000F91FF90EF900C94A12885ED8093BC0044
:1024400080911B0390911C03A0911D03B0911E036A
:102450000796A11DB11D23E0B695A7959795879581
:102460002A95D1F72091BC0024FD03C010921903D6
:10247000089540911B0350911C0360911D037091BE
:102480001E03452B462B472B69F30097A105B10589
:1024900041F02AE22A95F1F700C00197A109B1099C
:1024A000E1CF80911A030C9473042F923F924F92C4
:1024B0005F926F927F928F929F92AF92BF92CF92D4
:1024C000DF92EF92FF920F931F93CF93DF93CDB7DD
:1024D000DEB766970FB6F894DEBF0FBECDBF698733
:1024E0007A878B879C872D873E874F87588BC801BB
:1024F000EE8A10E088248A94982C540168E4462ED1
:1025000068EE562E66246394712C05E078E1272E40
:1025100072E0372E9C01990F440B550B298B3A8B97
:102520004B8B5C8B6D857E858F8598890E94D92B1E
:102530006D837E838F83988720E030E0A9016985D1
:102540007A858B859C850E941A29882309F499C174
:1025500029853A854B855C8563E67CE987E89FE3BE
:102560000E944C2C20E030ED42E854E40E94802987
:102570000E94D92B6B0180910001853009F06AC05F
:10258000EAE3F1E0F491FD8BF7FDD9C161E085E06C
:102590000E945903FD89FF2321F02D89223009F083
:1025A00024C1F12CE12C60E072E18AE790E0A70100
:1025B00096010E94542A29833A834B835C83DA0173
:1025C000C9010197A109B1098F3F9105A105B10585
:1025D00009F00CF4F0C060E472E48FE090E0A70131
:1025E00096010E94542A21503109410951098D89CF
:1025F000823009F0A2C082E02F3F3105410551052C
:1026000009F00CF48CC160E970ED83E090E0A70163
:1026100096010E94542A215031094109510983E051
:102620002F3F31054105510509F00CF478C1C30174
:10263000B201A70196010E94542A21503109410993
:1026400051092F3F31054105510511F00CF092C0A1
:1026500084E065C18F3F09F072C100930001EAE395
:10266000F1E0F491FD8BFF3F09F469C1F13029F1EC
:1026700058F0F23009F43FC03D8937FD60C161E098
:1026800085E00E94590389CF14BC15BC84B58260D3
:1026900084BD85B5816085BDF1018491E82FF0E0AE
:1026A000EE0FFF1FE75FFD4F85919491ECE2F2E0A2
:1026B00084918093B9011D8A69CF10928000109295
:1026C00081008091810088608093810080918100E9
:1026D000816080938100F1018491E82FF0E0EE0F9A
:1026E000FF1FE75FFD4F85919491ECE2F2E084914A
:1026F0008093B8014BCF1092B0001092B10080913E
:10270000B00082608093B0008091B10081608093BE
:10271000B100F1018491E82FF0E0EE0FFF1FE75FB9
:10272000FD4F859194919093700280936F02ECE23B
:10273000F2E084918093710229CF2F3F310541054A
:10274000510509F00CF44FC0C301B201A701960175
:102750000E94542A21503109410951099D89992328
:1027600009F4AFC02F3F31054105510511F00CF0C0
:10277000B0C06ECF64E274EF80E090E0A7019601F4
:102780000E94542A215031094109510985E02F3F07
:1027900031054105510509F008F4C1C062E17AE74D
:1027A00080E090E0A70196010E94542A215031094F
:1027B000410951099DC09C0181E0FD89F111AFC023
:1027C00095B5987F892B85BD27BD8092BE019092DB
:1027D000BF01A092C001B092C10180916E008260E1
:1027E00080936E00ACC082E0E8CFF12CE12C60E079
:1027F00072E18AE790E0A70196010E94542A2150D5
:1028000031094109510991E02115310581E048075D
:1028100051055CF0C301B201A70196010E94542A40
:10282000215031094109510993E0ED89E13009F066
:102830007CC080918100887F892B809381003093B8
:102840008900209388008092BA019092BB01A092E7
:10285000BC01B092BD0180916F00826080936F00D7
:102860006EC02093B3008092720290927302A09285
:102870007402B09275028091700082608093700043
:102880005EC06D817E818F8198850E94C10357C093
:1028900084E02F3F31054105510509F008F490CF40
:1028A00029813A814B815C818AE05595479537951E
:1028B00027958A95D1F7215031094109510985E0C1
:1028C0007FCF83E02F3F31054105510509F00CF41E
:1028D00077CF62E17AE780E090E0A70196010E945D
:1028E000542A2150310941095109ED89EE2381F221
:1028F00086E02F3F31054105510589F080F029819F
:102900003A814B815C819AE055954795379527959B
:102910009A95D1F7215031094109510987E09091E9
:10292000B100987F892B8093B100FD89F13009F4C3
:1029300086CFF23009F495CFFF2309F445CF6D819E
:102940007E818F8198850E94C10385E00E942D03BE
:1029500069897A898B899C890E94C1031F5F2E89AE
:102960002113E0CD66960FB6F894DEBF0FBECDBF43
:10297000DF91CF911F910F91FF90EF90DF90CF905B
:10298000BF90AF909F908F907F906F905F904F908F
:102990003F902F9008954F925F926F927F928F9207
:1029A0009F92AF92BF92CF92DF92EF920F931F93BD
:1029B000CF93DF93D82E192F0E94D60A8695CD2D5E
:1029C000D12FB12CA12CC82ED12C88EE882E83E0DB
:1029D000982E2197AC14BD044CF5CE018C199D099D
:1029E0000E94D60A782ECE010E94D60A182F672D93
:1029F00070E0C4010E94F22D072E000C880B990B89
:102A00000E9421292B013C01612F70E090E080E0C1
:102A10000E941F29EE24E39410E000E0A30192013C
:102A20000E9455128FEFA81AB80AD3CFDF91CF9129
:102A30001F910F91EF90DF90CF90BF90AF909F903C
:102A40008F907F906F905F904F9008951F920F929C
:102A50000FB60F9211242F933F934F935F936F9371
:102A60007F938F939F93AF93BF93EF93FF93809147
:102A7000720290917302A0917402B0917502892B39
:102A80008A2B8B2BD1F190917102E0916F02F09122
:102A900070028081892780838091720290917302F5
:102AA000A0917402B0917502181619061A061B0639
:102AB0009CF48091720290917302A0917402B09183
:102AC00075020197A109B109809372029093730274
:102AD000A0937402B0937502FF91EF91BF91AF91F3
:102AE0009F918F917F916F915F914F913F912F9126
:102AF0000F900FBE0F901F901895809100010E94BB
:102B00002D03EACF1F920F920FB60F9211242F932D
:102B10003F934F935F936F937F938F939F93AF9365
:102B2000BF93EF93FF938FE193E00E942702FF9101
:102B3000EF91BF91AF919F918F917F916F915F9135
:102B40004F913F912F910F900FBE0F901F901895AE
:102B50001F920F920FB60F9211242F938F939F9372
:102B6000EF93FF93E0912F03F09130038081E09188
:102B70003503F091360382FD1BC0908180913803AC
:102B80008F5F8F7320913903821741F0E0913803F2
:102B9000F0E0E15EFC4F958F80933803FF91EF9159
:102BA0009F918F912F910F900FBE0F901F901895AE
:102BB0008081F4CF1F920F920FB60F9211242F93A2
:102BC0003F938F939F93AF93BF93809167029091B0
:102BD0006802A0916902B0916A023091660223E016
:102BE000230F2D3758F50196A11DB11D20936602C4
:102BF0008093670290936802A0936902B0936A027F
:102C000080916B0290916C02A0916D02B0916E0266
:102C10000196A11DB11D80936B0290936C02A0934D
:102C20006D02B0936E02BF91AF919F918F913F91D2
:102C30002F910F900FBE0F901F90189526E8230F2D
:102C40000296A11DB11DD2CF1F920F920FB60F9207
:102C500011242F933F934F935F936F937F938F93A1
:102C60009F93AF93BF93EF93FF938091B900887FB9
:102C7000803609F44AC0F0F5883209F4A7C018F587
:102C8000803109F49BC0B8F4882309F4F9C0883076
:102C900009F494C0FF91EF91BF91AF919F918F91F3
:102CA0007F916F915F914F913F912F910F900FBE48
:102CB0000F901F901895883109F488C0803251F721
:102CC0008093F70214C0803409F49DC040F480332F
:102CD000B9F38833F9F68093F70285ECB0C08035FC
:102CE00009F485C0883509F496C0883499F60E94A5
:102CF0001D12D0CF883909F48CC038F5883729F0F7
:102D000050F4883611F0803729F683E08093190358
:102D10001092650257C0883809F47BC0803919F0D9
:102D2000803809F0B7CF80916502803208F071C019
:102D3000E091650281E08E0F809365028091BB0077
:102D4000F0E0EB5BFD4F80833DC0803B39F0E0F469
:102D5000803A09F479C0883A09F09CCF84E08093E6
:102D600019031092440210924302E0917902F0910B
:102D70007A0209958091430281110FC081E080930E
:102D800043021092230209C0803C09F4A6CF883C7C
:102D900009F4A3CF883B09F07DCFE091440281E0A4
:102DA0008E0F80934402F0E0ED5DFD4F80818093B3
:102DB000BB00909144028091430229C08091F402AB
:102DC0008093BB0085EC8093BC0064CF9091F602A9
:102DD0008091F502981758F5E091F60281E08E0F88
:102DE0008093F602F0E0ED52FD4F8081E9CFE09153
:102DF000F60281E08E0F8093F6028091BB00F0E036
:102E0000ED52FD4F80839091F6028091F502981764
:102E1000C8F285E8D8CFE091F60281E08E0F80936A
:102E2000F6028091BB00F0E0ED52FD4F808380916F
:102E3000F80281115CCF81E08093F30284EA8093F1
:102E4000BC001092190326CF85EC8093BC00109231
:102E5000190380916502803230F4E0916502F0E060
:102E6000EB5BFD4F10826091650270E0E0917702AC
:102E7000F091780285E492E00995109265020ACFFC
:102E80001092F70234CF1F920F920FB60F921124B7
:102E90002F933F934F935F936F937F938F939F9362
:102EA000AF93BF93EF93FF93E0918102F091820281
:102EB000309749F0A685B7858585968D91FF14C01A
:102EC0009C918923A1F4FF91EF91BF91AF919F91C4
:102ED0008F917F916F915F914F913F912F910F90C3
:102EE0000FBE0F901F9018959C91892361F7A389BD
:102EF000B4899C918589809589238C93868997894B
:102F00000197F1F7608D718DA685B785558538E0FD
:102F100020E0CB010197F1F7822F90E095958795FE
:102F2000282F4C91452309F02068315091F7868D68
:102F300081FD20958091800290E001968F73992702
:102F400030917F02381799F0A0918002B0E0AE5323
:102F5000BE4F2C9380938002828D938D0197F1F761
:102F6000A389B4898C919589892B8C93ACCF868D5C
:102F70008160868FF1CF1F920F920FB60F921124AE
:102F80002F933F934F935F936F937F938F939F9371
:102F9000AF93BF93CF93DF93EF93FF932091C90338
:102FA00030E0F901EA5DFE4F8491F901E95DFD4FE2
:102FB000D491F901ED5EFD4FC491CC2379F08111DC
:102FC0000E94D602EC2FF0E0EE0FFF1FE150FE4F03
:102FD000A591B491EC91ED2381E009F480E020917A
:102FE000CE033091CF032F5F3F4F3093CF03209319
:102FF000CE032091CC033091CD032536310518F056
:1030000094E09093C8039091C803911130C081114E
:1030100069C02091CE033091CF032436310528F4C6
:103020001092CF031092CE035DC010929A041092BA
:10303000CD031092CC032091CC033091CD03A90194
:103040004F5F5F4F5093CD034093CC034091CE032D
:103050005091CF03220F331FF901E053FC4F5183EE
:1030600040831092CF031092CE0391E021C0909143
:10307000C803913001F58130A9F52091CC0330913E
:10308000CD03A9014F5F5F4F5093CD034093CC0315
:103090004091CE035091CF03220F331FF901E0532B
:1030A000FC4F518340831092CF031092CE0392E0E5
:1030B0009093C80317C09091C803923061F488239D
:1030C00009F4B9CF2091CE033091CF0325363105D5
:1030D00048F093E0EDCF9091C803933099F48823A2
:1030E00009F49ECF9091CB039923A9F0811126C0BA
:1030F0008091CA03882371F08091CA0361E00E9425
:10310000FF0209C09091C803943061F791E0909359
:103110009A04DFCF2D9AFF91EF91DF91CF91BF916C
:10312000AF919F918F917F916F915F914F913F915F
:103130002F910F900FBE0F901F9018958091CA038A
:10314000882321F08091CA0360E0D9CF2D98E3CF86
:10315000CF92DF92EF92FF921092220310922103FE
:1031600098EEC92E93E0D92EE12CF12CC0922303C6
:10317000D0922403E0922503F092260383E391E0AA
:103180009093200380931F0385EC90E090932C0391
:1031900080932B0384EC90E090932E0380932D0377
:1031A00080EC90E09093300380932F0381EC90E0CB
:1031B000909332038093310382EC90E09093340338
:1031C0008093330386EC90E090933603809335032D
:1031D000109238031092390310923A0310923B0375
:1031E0001092BF031092BE03C092C003D092C103DD
:1031F000E092C203F092C30385E491E09093BD0393
:103200008093BC038AE090E00E94BA269093DC048D
:103210008093DB0482E090E00E94BA269093DA0467
:103220008093D90482EC91E00E94BA269093D8044E
:103230008093D70484E08093C9031092CB036EE699
:1032400071E081ED94E00E94A7111092B5041092F4
:10325000B404C092B604D092B704E092B804F092DD
:10326000B90487E591E09093B3048093B20410927F
:10327000C9041092C8041092CB041092CA04109290
:10328000CD041092CC041092CF041092CE04609121
:10329000D0046E7F6D7F6093D0046695617081E08D
:1032A000682786E00E94FF0261E086E00E945903E1
:1032B000EDE2F2E0E491E093C204E9E1F2E0E491AE
:1032C000F0E0EE0FFF1FE75FFD4F85919491909323
:1032D000C4048093C30460E087E00E945903809196
:1032E000D00481FD04C061E087E00E94FF0287E016
:1032F0008093BE04EEE2F2E0E491E093BF04EAE1E1
:10330000F2E0E491F0E0EE0FFF1FE150FE4F8591F7
:1033100094919093C1048093C004E1EAF4E081E1C8
:10332000DF011D928A95E9F780E480939B048CEB82
:1033300093E090939D0480939C04FF90EF90DF9026
:10334000CF900895CF93DF93CDB7DEB7E7970FB651
:10335000F894DEBF0FBECDBF789484B5826084BD83
:1033600084B5816084BD85B5826085BD85B5816089
:1033700085BD80916E00816080936E001092810007
:1033800080918100826080938100809181008160C2
:103390008093810080918000816080938000809183
:1033A000B10084608093B1008091B000816080930F
:1033B000B00080917A00846080937A0080917A00D6
:1033C000826080937A0080917A00816080937A0095
:1033D00080917A00806880937A001092C100E09119
:1033E0002F03F091300312E01083E0912B03F09152
:1033F0002C031082E0912D03F0912E0380E1808355
:1034000010923703E0913303F091340386E0808318
:10341000E0913103F0913203808180618083E091FB
:103420003103F0913203808188608083E091310321
:10343000F0913203808180688083E0913103F091C4
:10344000320380818F7D808385E090E0A0E0B0E052
:103450008093230390932403A0932503B093260322
:103460001092B7021092B6021092D0021092CF02C0
:103470000E94550484E991E090937A028093790246
:1034800085E991E0909378028093770288E08093B9
:10349000B8008BE60E94EE09F8941092800089E053
:1034A0008093810080E293E090938900809388006C
:1034B000109285001092840010936F0078941092FF
:1034C000C8031092CD031092CC038091C90360E031
:1034D0000E94590364E070E081ED94E00E94E010E6
:1034E0008FE391E00E949B02AEE9EA2EA2E0FA2E61
:1034F00000E110E0C8010E94D60AD7018D937D013A
:103500000F5F1F4F00321105A9F71092B7021092FA
:10351000B6021092D0021092CF020E94550484E9A4
:1035200091E090937A028093790285E991E09093FB
:1035300078028093770240E860E08BE994E00E9493
:1035400077076AE070E080E090E00E94C10340E00D
:1035500050E06AE774E48BE994E00E941B0980E480
:1035600098E7ADE7B1E080939E0490939F04A09309
:10357000A004B093A10483E191E00E94690B092E9D
:10358000000CAA0BBB0B80937B0290937C02A09350
:103590007D02B0937E02885D9945A109B109853904
:1035A0009141A105B10560F088EA91E6A0E0B0E0A4
:1035B00080937B0290937C02A0937D02B0937E0265
:1035C00060917B0270917C0280917D0290917E02DD
:1035D0000E94212920E030E04AE754E40E94602B59
:1035E0006B017C014B015C01AC019B010E94A42C8E
:1035F000882309F44AC081E791E00E94BE098BE369
:1036000091E00E94E20920917B0230917C0240917E
:103610007D0250917E02A8EEB3E00E94732A6B01F6
:103620007C0140E050E060E773E48BE994E00E94A5
:103630001B09C092A404D092A504E092A604F092C3
:10364000A704C0929E04D0929F04E092A004F0923E
:10365000A1040E9404088DE491E00E94E20990E038
:1036600080E08C010F5F1F4F805C9E4F0E94D60A46
:10367000080F111DC801805C9E4F0E94D60A8E342F
:1036800009F493C0C8010496ECCF26013701E894F1
:1036900077F82FEF3FEF4FE75FE7C301B2010E94DA
:1036A000A42C81110DC02FEF3FEF4FE75FE7C3015F
:1036B000B2010E941A2918161CF485E791E09DCFEB
:1036C0002FEF3FEF4FE75FE4C701B6010E94472CA1
:1036D00018161CF489E791E090CF2FEF3FEF4FE7EA
:1036E0005FECC701B6010E941A2987FDF3CF20E0E5
:1036F00030E0A901C701B6010E941A2987FF09C05D
:103700008DE20E94960246015701B7FAB094B7F8CD
:10371000B0942AE037ED43EA5BE3C501B4010E94AF
:10372000EF2A4B015C010E94D92B6B017C010E94A6
:103730001F299B01AC01C501B4010E94EE2A4B0177
:103740005C014AE0C701B6010E94FA098EE20E94BC
:10375000960220E030E040E251E4C501B4010E944D
:1037600080294B015C010E94D92B6B01F12CE12CCB
:103770004AE0C701B6010E94FA09C701B6010E94DA
:103780001F299B01AC01C501B4010E94EE2A20E073
:1037900030E040E251E40E9480290E94D92B90E061
:1037A00080E04AE00E94FA092ACF68E071E0C8018F
:1037B0008E5B9E4F0E94BE1080E10E948A03BC0176
:1037C000990F880B990B611571058105910511F011
:1037D0000E947A288DE791E00E945E0A1092CD0443
:1037E0001092CC041092CB041092CA041092C90417
:1037F0001092C8048DE991E09093CF048093CE0499
:103800009091BE04963108F047C02DEB30E0309324
:10381000C9042093C8042BE931E03093CB042093F2
:10382000CA042CE231E03093CD042093CC042091E3
:10383000680084E0983048F031E09E3008F430E0D1
:1038400081E001C0880F3A95EAF7822B80936800E7
:103850002DE630E0983050F02BE630E09E3030F02E
:103860002CE630E0963110F030E020E03093C604D2
:103870002093C504292F30E0983008F025C181E05D
:1038800001C0880F9A95EAF78093C7048091CE040F
:103890009091CF040197F1F78091CC049091CD04E1
:1038A000892B49F1E0918102F091820224E0E23B10
:1038B000F20709F1309739F0A389B4899C91858981
:1038C000809589238C938091D0048E7F8093D0043F
:1038D0001092800210927F0282EB94E09093820219
:1038E00080938102E091C504F091C604808190919B
:1038F000C704892B80838FEF93E00E94CB1460ED87
:1039000077E080E090E00E94C10387E691E00E94AA
:10391000E20980E691E00E94E20989E591E00E94D7
:10392000E2090E94F40320E137E240E050E00E9407
:10393000BD2A8091010190910201092E000CAA0B71
:10394000BB0B82179307A407B5070CF046C079019B
:10395000309302012093010185E10E948A038C01CA
:103960000A3882E01807ACF58091830290918402B6
:103970000817190721F092E0E916F10454F582E7DF
:1039800091E00E949B02C80163E670E00E94F22D64
:103990006B01072E000CEE08FF0877FFA2C08DE236
:1039A0000E94960266277727CB016C197D098E0944
:1039B0009F094AE00E94FA0986E50E94EE0981ED1E
:1039C00093E00E94CB1460ED77E080E090E00E94ED
:1039D000C103109384020093830280919B028111A2
:1039E000BBC080ED93E0909392028093910280910E
:1039F000CC039091CD039093940280939302809195
:103A00009A0490E090939602809395028091C80367
:103A1000833009F0A1C08091D2039091D3038758DD
:103A200091098E35910508F091C08091CC03909159
:103A3000CD03049709F059C08091D4039091D50328
:103A40008097479708F051C08091D6039091D70393
:103A50000997099708F049C01092900210928F02BE
:103A60008FEF9FEFDC018093890290938A02A093ED
:103A70008B02B0938C0283E090E090938602809357
:103A800085028091890290918A02A0918B02B09167
:103A90008C02892F9A2FAB2FBB278A3509F40CC2D1
:103AA00008F0C3C1823209F4EFC108F0A8C1803127
:103AB00009F4FFC108F051C165EB71E0823009F4EF
:103AC00054C16EEA71E003C29E3040F428503109BF
:103AD00081E001C0880F2A95EAF7D6CE2E50310931
:103AE000F7CF4AE0C701B60165CF8091CC03909132
:103AF000CD038434910550F18091D4039091D50386
:103B0000815491098F9710F590E080E040E050E0FB
:103B1000BA01FC01EA52FC4F208131812950310960
:103B20002930310598F4FC01E852FC4F20813181A5
:103B3000275131092231310508F4F1C0208131814A
:103B4000265031092730310508F402C11092C8030C
:103B50001092CD031092CC038FE193E00E940702F4
:103B600018161906A4F581E080939B0282E08093E9
:103B7000B0028FE193E00E94E501182F8093B1021B
:103B800061E070E080E090E00E94C1031B3409F026
:103B900043C2E090D704F090D80410E000E08FE139
:103BA00093E00E940702892B51F08FE193E00E947D
:103BB000E501F701E00FF11F80830F5F1F4FF80150
:103BC0003197EE0DFF1D80818E3749F710820E94DC
:103BD000F4032091B002222309F473C20E94F4037B
:103BE00068577C4E8F4F9F4F609397027093980257
:103BF0008093990290939A026091B002662309F42F
:103C000030C3F090B102653018F522E6F21601F1EA
:103C10008CE88F0D8230E0F08CE4F816C9F099E45E
:103C2000F916B1F0A3E4FA1699F070E0615F7F4FE6
:103C3000072E000C880B990B0E942129EE24E39497
:103C400010E000E020E030E040EA50E40E9455122D
:103C50008091AF028356823050F4B3E6FB1639F000
:103C600088ED9BE00E94060987E40E94EE0980919E
:103C7000B102803751F08091AE02811106C081E01F
:103C80008093AE0280E70E94EE09F090B102E6EC6C
:103C9000EF0DEC3308F0A3C20E2E000CFF0BED5A13
:103CA000F14E0C94062E66256125EF20EF20EF20C3
:103CB000EF20EF20EF206B24EF20EF20EF20EF200C
:103CC000EF20EF201824EF20B7245B241824EF20E6
:103CD000EF20EF20EF20EF205D22A724EF20EF2040
:103CE000EF20EF20EF20EF20EF20EF20EF20EF205C
:103CF000EF20EF2047225D225D226925EF20EF2093
:103D0000EF20EF205D22B3214B25EF205D22EF2035
:103D1000E921A021EF20E420EE215D225D22440F65
:103D2000551F661F771F416004968038910509F082
:103D3000F0CE80E290E09093900280938F024093C7
:103D4000890250938A0260938B0270938C0293CE07
:103D5000440F551F661F771FE7CF823109F4B5C0A6
:103D60006DE971E0883109F0ACCECE0181960E94F8
:103D7000EF116BE871E0CE0181960E946E0A8823F4
:103D800009F4AAC06DE871E081ED94E00E94711120
:103D900061ED74E0CE0187960E945511CE018196A7
:103DA0000E94950A6EEA71E0CE0187960E946E0A23
:103DB00081111AC00091DB041091DC046FA178A579
:103DC000C8010E94F72EF80101900020E9F7CF0109
:103DD00002978017910709F01DC1D8018C9180933B
:103DE000B10281E08093B0021092C8031092CD031B
:103DF0001092CC03CE0187960E94950AADCE8234F4
:103E000009F45DC048F4803309F44DC063E971E002
:103E1000883309F4AACF55CE8A3409F453C06DE72C
:103E200071E0823509F4A1CF4CCE823A39F198F491
:103E30008A37E1F140F4823621F16AEA71E088368E
:103E400009F493CF3ECE803959F167EA71E08839A1
:103E500009F48BCF36CE823CD1F040F4883AE9F0B9
:103E600064EA71E0803B09F480CF2BCE803E91F074
:103E70006FEB71E0823E09F478CF23CE63EC71E002
:103E800074CF61EC71E071CF6DEB71E06ECF63EBDD
:103E900071E06BCF61EB71E068CF6FEA71E065CFE5
:103EA0006DEA71E062CF61EA71E05FCF69E971E0CC
:103EB0005CCF66E971E059CF6FE871E056CF69E8F1
:103EC00071E053CF62E871E050CF68E871E0CE0155
:103ED00081960E94A7114DCF60E971E0CE018196D5
:103EE0000E946E0A811110C062E971E0CE018196D4
:103EF0000E946E0A811108C064E971E0CE018196CA
:103F00000E946E0A8823E9F170E060E0CE0181969C
:103F10000E949601DC011C9110930301163471F488
:103F20006DE871E081ED94E00E946E0A882331F023
:103F30006EE671E081ED94E00E94711161ED74E034
:103F4000CE0101960E9455111FA318A641E050E032
:103F5000BE01695D7F4FCE0101960E94081181115B
:103F600004C0CE0101960E94830ABE016F5F7F4F9D
:103F7000CE0187960E945511CE0101960E94950AA6
:103F80000DCF66E971E0CE0181960E946E0A811123
:103F90002EC069E971E0CE0181960E946E0A8111FE
:103FA00026C06CE971E0CE0181960E946E0A8111F3
:103FB0001EC06EE671E0CE0181960E946E0A8111EC
:103FC00016C06FE971E0CE0181960E946E0A8111E0
:103FD0000EC018A61FA21AA619A61CA61BA6BE01D3
:103FE0006F5D7F4FCE0187960E949D0AD7CE69A153
:103FF0007AA16115710549F04DA15EA181ED94E0B2
:104000000E9434111091030199CF81ED94E00E9438
:10401000830AF8CF8BE6E3CE8FE193E00E9407029C
:10402000181619060CF0D3CD6EEA71E0CE01819618
:104030000E94A711193441F084EB810F823020F0E7
:1040400012544AE0123008F44EE76FE173E0CE01FB
:1040500001960E94B811BE016F5F7F4FCE0181961D
:104060000E949D0ACE0101960E94950A2DA13EA1B3
:1040700030939D0220939C028091B1028B3611F007
:10408000843789F48091DB049091DC0449A15AA122
:10409000DC01FA01BF01641B750B6217730744F45E
:1040A00061916D93F7CF8091D7049091D804EECFB2
:1040B000820F931FFC011082CE0181960E94950A07
:1040C00086CD2091B102233609F496CD0091970256
:1040D000109198022091990230919A02601B710B05
:1040E000820B930B16161706180619060CF084CDD2
:1040F00010929B0282EB94E00E943D07892B09F409
:104100007BCD82EA91E00E945E0A4AE062EB74E0B5
:10411000CE0101960E94B811CE0101960E94CF09EE
:1041200070E060E0CE0101960E949601DC018C9166
:104130000E94960280E20E94960261E070E0CE0149
:1041400001960E949601FC0180810E94960280E205
:104150000E94960262E070E0CE0101960E949601F4
:10416000DC01FC906F2D70E090E080E04AE00E945E
:10417000FA0980E20E94960289819A8103960E9440
:104180005E0A0091DB041091DC0469817A816D5F25
:104190007F4FC8010E94F72EBAE0BF1530F4E4E16A
:1041A000EF1540F0C8010E945E0ACE0101960E9400
:1041B000950A22CDFCE3FF15C0F38BE68093B10294
:1041C00085E08093B002F1CF8091040181958093C6
:1041D0000401181614F432E5F32EF092B102809126
:1041E000B1028B3609F087C49091BE0219160CF407
:1041F00086C40091DB041091DC0464EB71E0C8011B
:104200000E94EE2EF090B102892B09F1E9E4FE162E
:10421000F1F085EB8F0D8330D0F08091D90490912F
:10422000DA04009711F00E94562781E090E00E9486
:10423000BA26F80101900020E9F7E01BDC01EC93BD
:104240009093DA048093D904B8010E94F72E10925B
:10425000B002F092AF028F2D877F833611F010925B
:10426000B1028091B1028B3609F0E6C41091BE0212
:1042700017FF67C48091CB02DD24DA94D80E823018
:1042800008F4D12C10E08EECC82E92E3B92E212F29
:1042900030E08091BE02082E000C990B97FF03C0FE
:1042A000919581959109281739070CF0C1C4E090C8
:1042B000CD02F090CE028091C302189FE00CF11C59
:1042C0001124F7016089062E000C770B880B990BDF
:1042D0000E94212920E030E040E85EE30E9480292E
:1042E0009B01AC0100E06091C802C7010E94DD0D96
:1042F0008091C302E091CD02F091CE02189FE00DB3
:10430000F11D1124618916160CF016C4FB2D6F02E5
:10431000B0011124072E000C880B990B0E94C103D9
:10432000DD2061F0112351F08091CA02181306C0FC
:104330001091C90211501D140CF4DA941F5FA7CF1D
:104340008091AE0291E0811190E09093AE028823BB
:1043500011F020E5F22EF092B102882309F43FCF4C
:104360000E9404083CCF0E943E0A6EEA71E0CE0132
:1043700081960E94A71105E011E095E2E92E91E0F7
:10438000F92EF801619171918F01CE0101960E9481
:104390007B114D815E8169817A81CE0181960E9477
:1043A0000811CE0101960E94950A42E050E06CEAA5
:1043B00071E0CE0181960E940811E016F10609F71E
:1043C000CE0181960E94CF09CE0181960E94950A66
:1043D00006CF86EC93E00E94CB1401CF87EF91E0EB
:1043E0000E94E2090EE9802E02E0902E80E4E82E81
:1043F000F12C00E110E0D401DD904D01C8010E94D4
:104400003E2AD81621F06D2DC8010E94462AC70108
:104410000E94690B6C01C80180960E94D60AB82ED2
:10442000F40131976081062E000C770B880B990BF5
:104430000E9421292B013C016B2DBB0C770B880BB3
:10444000990B0E9421299B01AC01C301B2010E947A
:1044500080292B013C01B601DD0C880B990B0E94D1
:1044600021299B01AC01C301B2010E94EF2A0E94E5
:10447000D22BC70180960E94BE100F5F1F4FB2E083
:10448000EB0EF11C0032110509F0B5CFA8CE8FEE6E
:1044900091E00E94E2091EE9E12E12E0F12E00E116
:1044A00010E0C8010E94D60AF70181937F010F5FD7
:1044B0001F4F00321105A9F792CEE5E0F1E0DE01D1
:1044C000119685E291E01D01219131912D933D934B
:1044D0008E179F07C9F7F4E78091DB049091DC0405
:1044E000FF1621F08091D7049091D80468EA71E01A
:1044F0000E94B1283C016114710409F4CCC0C301CD
:104500000E9483288C016BEA71E090E080E00E94B9
:10451000B1283C01F12CE12CBB24B394009761F04D
:104520000E9483287C016BEA71E090E080E00E94A9
:10453000B1283C01B2E0BB2EF801EE0FFF1FE20DE7
:10454000F31DF182E0828091B102833609F0A9C0A7
:104550008091AF02833681F088E39CE00E940609D7
:10456000C090DB04D090DC0468E671E0C6010E94D4
:10457000F72EC6010E945F0FC80182569D4F6C0145
:1045800092E0B91202C0D601EC92C8018096880F61
:10459000991F0E94690B7C01C8019927C0960E944F
:1045A000D60A182FF6016081062E000C770B880BB7
:1045B000990B0E9421294B015C01612F110F770B90
:1045C000880B990B0E9421299B01AC01C501B40104
:1045D0000E9480294B015C01B701FF0C880B990BED
:1045E0000E9421299B01AC01C501B4010E94EF2A60
:1045F0000E94D22B072E000C880B990B0E942129B8
:10460000AB01BC01802F0E947D0B0E943E0A6EEA26
:1046100071E0CE0187960E94A7110EE912E0D80141
:104620006D918D01062E000C770BCE0181960E94B4
:104630007B114DA15EA169A17AA1CE0187960E944E
:104640000811CE0181960E94950A42E050E06CEA82
:1046500071E0CE0187960E940811EEEAF2E0E017C1
:10466000F107E9F6CE0187960E94CF09CE01879621
:104670000E94950A6114710409F03DCF8091B10246
:10468000893609F0ACCD40E050E060E070E4C10153
:104690000E94920CA4CDF12CE12C10E000E0B12C92
:1046A0004BCF8D3641F440E050E060E070E4C10152
:1046B0000E94920CDFCF833541F4C80199270E94F4
:1046C000D60AB7010E94BA08D5CF843799F2853748
:1046D00009F08BC00E942B282AE030E040E050E037
:1046E0000E94542A64526DA70E942B282AE030E0D1
:1046F00040E050E00E94542AE2ED4E2E460E0E9409
:104700002B286B017C010E942B2823E030E040E045
:1047100050E00E94542A55245394560EC701B60106
:1047200024E030E040E050E00E94542A6E5F7F4F6A
:104730008F4F9F4F262F220F220F620F262F30E020
:10474000A8EEB3E00E94DF2A6EA77FA788AB99ABE3
:10475000B12C842D90E09FAB8EABB51408F08ACFBE
:10476000A42C912C812C9DA5A91608F03CC0CEA8A4
:10477000DFA8C80CD91C8601000F111F000F111FE4
:1047800005501109CC0CDD1CC601B0E0A0E08AABDD
:104790009BABACABBDABC12CD12C76018EA59FA53C
:1047A000A8A9B9A9C816D906EA06FB06BCF461E0B7
:1047B00085E00E94FF02C8010197F1F760E085E003
:1047C0000E94FF02C8010197F1F78AA99BA9ACA931
:1047D000BDA9C80ED91EEA1EFB1EE0CFA3949FEF11
:1047E000891A990AC0CFB394B8CF823609F042CF64
:1047F000E114F10409F43ECF88EE93E0B7010E9482
:10480000F22D072E000C880B990B0E9421294B01D9
:104810005C01B801110F880B990B0E942129EE242D
:10482000E39402E310E0A50194010E94551222CF07
:10483000E5E0F1E0DE01119685E291E07D01219154
:1048400031912D933D938E179F07C9F710E000E03B
:104850002091B10280919C0290919D020817190746
:10486000F4F4A091D704B091D804A00FB11FEC913B
:10487000EE0FFF0BEE0DFF1D11968C91082E000C14
:10488000990B918380832D3439F440E050E060E04F
:1048900070E4C7010E94920C0E5F1F4FD9CF2934DC
:1048A00009F09DCC89E40E94EE0940E050E060E808
:1048B00070E4C701EDCE8CE40E94EE0900E020E038
:1048C00030E040E050E461E08091D7049091D8045A
:1048D0000E94DD0D84CCF12C2F2D30E080919C02C4
:1048E00090919D0297FD0196959587952817390718
:1048F0000CF01EC20091D7041091D804220F331F70
:10490000020F131FD80111966C91062E000C770B25
:1049100088EE93E00E94F22D072E000C880B990B75
:104920000E9421294B015C01F8016081062E000CD8
:10493000770B880B990B0E942129EE24E39410E059
:1049400000E0A50194010E945512F394C5CF88E1BF
:1049500091E00E94690B0E9412080E944A0F809108
:10496000B1020E94EE098BE68093B10238CC86E159
:1049700091E00E94690B8C010E942B286B017C0145
:1049800086E191E00E94690B092E000CAA0BBB0B7B
:104990002CE03EE140E050E0281B390B4A0B5B0B5A
:1049A000C701B6010E94542A060F171FB80188E1FB
:1049B00091E00E94BE106090D7047090D804D3019B
:1049C0006C916093BE0283EC92E00E94A70701966F
:1049D0007C01D12CC12C5524539434E5432E1E1454
:1049E0001F049CF55092D2024092D1021092D00244
:1049F0001092CF02612F70E08CEB93E00E94C4070D
:104A0000B80177278CEB93E00E94C4075301AC0CEC
:104A1000BD1C4801B0E18B0E911C0115E0E21E07A0
:104A2000B9F40E94CB0985EC91E00E94E20922E0F2
:104A3000E22E02E310E020E030E048EC52E460E0D7
:104A400070E080E291E40E9455120E944A0F8BCFE1
:104A5000FFEFCF1ADF0AD5016D915D018CEB93E07A
:104A60000E94B3050F5F1F4FB1E0EB1AF10841F050
:104A7000C8018F719927892B19F08016910669F664
:104A80008CEB93E00E94E2056AE070E080E090E049
:104A90000E94C103A4CF0091DB041091DC04B80193
:104AA0008091D9049091DA040E94EE2E892B29F48A
:104AB0008091BE0282300CF039C1C8010E945F0FA4
:104AC0008ECB88ED9BE00E94060989CB88E39CE0B1
:104AD000FACF0091DB041091DC046FEA71E0C801A9
:104AE0000E94F72EC8010E945F0F0E94040887E60B
:104AF0000E94EE0974CB893421F08C3411F00E94AD
:104B0000EE091091B102812F012E000C990B0E9429
:104B1000DD2E9091AF029B3609F06BCB873641F0CA
:104B20001A3631F01B7F103719F0863709F061CB48
:104B30008BE68093B1025DCB2C2D6202B001112473
:104B4000E9CB8091BA02803108F4C8C02091B80244
:104B50003091B9021092BA028091AE02820F932F67
:104B6000911D212F012E000C330B821793070CF09F
:104B7000B1C09093B9028093B8020091BA0220911B
:104B8000CC02C090B802D090B902E02EF12C0217EE
:104B900008F0ADC012300CF4AAC0812C912C540145
:104BA000013059F06091BD02062E000C770B880B86
:104BB000990B0E9421294B015C0182E0E80EF11C57
:104BC000EC9CB001ED9C700DFC9C700D1124072E27
:104BD000000C880B990B0E9421292BED3FE049E442
:104BE00050E40E9480296B017C01612F110F770B2B
:104BF000880B990B0E9421299B01AC01C701B601CA
:104C00000E94602B0E949C2C20E030E040E251E4A6
:104C10000E948029A50194010E94EF2AAB01BC01EA
:104C2000802F0E94EC0B8091BA028F5F8093BA02B2
:104C300083E49DE00197F1F78091BE0287FF3AC0BF
:104C40000091DB041091DC046EEA71E0C8010E945F
:104C5000F72EE091CD02F091CE028091BE02082E97
:104C6000000C990B97FF03C09195819591090197CD
:104C70002091C302289FD001299FB00D1124AE0FAF
:104C8000BF1FCF0140962D9121938E179F07D9F713
:104C900081E08093BE021092B9021092B802F8012E
:104CA0008081882319F0C8010E945F0F8091B102B2
:104CB0000E94EE0980E090E0892B11F40C94911C85
:104CC0000E941302882311F40C94911C0E9400008E
:104CD0000C94911C1092B9021092B8028091BA0201
:104CE000843009F04ACF88E08093BA0246CF3091F1
:104CF000C3023C9DC0013D9D900D1124E80EF91E9C
:104D0000E21AF1088091CD029091CE02E80EF91ED0
:104D10006091C802D7012C912603B0011124072EFF
:104D2000000C880B990B0E94212978CF8F2D5CCA2B
:104D30008091B102E4CE87E591E09093B304809333
:104D4000B2048091810290918202825B944071F45E
:104D5000E091C504F091C60490818091C7048095CC
:104D600089238083109282021092810281ED94E067
:104D70000C94950A0F931F93CF93DF938230910584
:104D800010F482E090E0E091E104F091E20430E080
:104D900020E0B0E0A0E0309799F42115310509F446
:104DA0004AC0281B390B24303105D8F58A819B81F4
:104DB0006115710589F1FB0193838283FE0111C0A6
:104DC000408151810281138148175907E0F048174B
:104DD000590799F4109761F012960C931297139655
:104DE0001C933296CF01DF91CF911F910F910895BF
:104DF0000093E1041093E204F4CF2115310551F042
:104E00004217530738F0A901DB019A01BD01DF0108
:104E1000F801C1CFEF01F9CF9093E2048093E10450
:104E2000CDCFFE01E20FF31F819391932250310900
:104E300039832883D7CF2091DF043091E004232BDE
:104E400041F420912701309128013093E004209310
:104E5000DF0420912501309126012115310541F40F
:104E60002DB73EB74091290150912A01241B350BE3
:104E7000E091DF04F091E004E217F307A0F42E1BA9
:104E80003F0B2817390778F0AC014E5F5F4F2417AE
:104E9000350748F04E0F5F1F5093E0044093DF0446
:104EA000819391939FCFF0E0E0E09CCFCF93DF938D
:104EB0000097E9F0FC01329713821282A091E1047D
:104EC000B091E204ED0130E020E01097A1F42081E0
:104ED0003181820F931F2091DF043091E004281765
:104EE000390709F061C0F093E004E093DF04DF913B
:104EF000CF910895EA01CE17DF07E8F54A815B817B
:104F00009E0141155105B1F7E901FB83EA834991FF
:104F10005991C40FD51FEC17FD0761F48081918171
:104F20000296840F951FE90199838883828193817A
:104F30009B838A83F0E0E0E012968D919C91139719
:104F40000097B9F52D913C911197CD010296820FF2
:104F5000931F2091DF043091E0042817390739F6B8
:104F6000309751F51092E2041092E104B093E004FE
:104F7000A093DF04BCCFD383C28340815181840FCF
:104F8000951FC817D90761F44E5F5F4F88819981DB
:104F9000480F591F518340838A819B819383828369
:104FA0002115310509F0B0CFF093E204E093E1045C
:104FB0009ECFFD01DC01C0CF13821282D7CF8F922A
:104FC0009F92AF92BF92CF92DF92EF92FF92CF93D8
:104FD000DF93EC01688179818A819B81611571057C
:104FE0008105910521F464E279ED8BE597E02DE1EF
:104FF00033EF41E050E00E94542A49015A019B01DD
:10500000AC01A7EAB1E40E94732A6B017C01ACEE0B
:10501000B4EFA50194010E94812AC60ED71EE81E96
:10502000F91EF7FE06C081E0C81AD108E10880E841
:10503000F80AC882D982EA82FB82C701B6019F774B
:10504000DF91CF91FF90EF90DF90CF90BF90AF9026
:105050009F908F9008958F929F92AF92BF92CF9220
:10506000DF92EF92FF9260912B0170912C01809161
:105070002D0190912E01611571058105910521F495
:1050800064E279ED8BE597E02DE133EF41E050E00C
:105090000E94542A49015A019B01AC01A7EAB1E4DC
:1050A0000E94732A6B017C01ACEEB4EFA501940160
:1050B0000E94812AC60ED71EE81EF91EF7FE06C002
:1050C00081E0C81AD108E10880E8F80AC0922B01F3
:1050D000D0922C01E0922D01F0922E01C701B60171
:1050E0009F77FF90EF90DF90CF90BF90AF909F9011
:1050F0008F90089560932B0170932C0180932D0164
:1051000090932E010895FC0188279927E894219116
:105110002032E9F3293010F02E30C8F32B3241F061
:105120002D3239F4689404C00E94E828820F911D42
:10513000219120532A30C0F31EF4909581959F4F02
:105140000895FB01DC0105900D920020E1F7089520
:10515000FC0105900020E9F7809590958E0F9F1F28
:1051600008954DED54E00E94B6280895FA01A191EA
:10517000B081009719F41097E1F0CD01DC01CD0169
:105180000D90002011F4C00113C0FB0121912223D6
:1051900019F02015D9F7F3CFFB012191201519F44F
:1051A0001E92119606C02223C1F70D900020A1F790
:1051B000D001FA01A193B0830895BB274A3031F49E
:1051C000992322F4BDE2909581959F4F0C94F1288C
:1051D0007AE0979F902D879F802D910D112408953F
:1051E000BB27FB015527AA27880F991FAA1FA417C1
:1051F00010F0A41B83955051B9F7A05DAA3308F0B5
:10520000A95DA193009779F7B111B1931192CB01E8
:105210000C940A29DC01FC01672F71917723E1F7D7
:10522000329704C07C916D9370836291AE17BF0773
:10523000C8F308950E945C2908F481E00895E89479
:1052400009C097FB3EF490958095709561957F4FCE
:105250008F4F9F4F9923A9F0F92F96E9BB2793957C
:10526000F695879577956795B795F111F8CFFAF48C
:10527000BB0F11F460FF1BC06F5F7F4F8F4F9F4FBD
:1052800016C0882311F096E911C0772321F09EE81B
:10529000872F762F05C0662371F096E8862F70E081
:1052A00060E02AF09A95660F771F881FDAF7880F5B
:1052B0009695879597F90895990F0008550FAA0BB1
:1052C000E0E8FEEF16161706E807F907C0F0121619
:1052D0001306E407F50798F0621B730B840B950B1C
:1052E00039F40A2661F0232B242B252B21F4089571
:1052F0000A2609F4A140A6958FEF811D811D08950E
:105300000E9493290C94042A0E94F62938F00E94E6
:10531000FD2920F0952311F00C94ED290C94F3292C
:1053200011240C94382A0E94152A70F3959FC1F31A
:10533000950F50E0551F629FF001729FBB27F00D43
:10534000B11D639FAA27F00DB11DAA1F649F662798
:10535000B00DA11D661F829F2227B00DA11D621FE7
:10536000739FB00DA11D621F839FA00D611D221FA1
:10537000749F3327A00D611D231F849F600D211D85
:10538000822F762F6A2F11249F5750409AF0F1F008
:1053900088234AF0EE0FFF1FBB1F661F771F881F71
:1053A00091505040A9F79E3F510580F00C94ED2993
:1053B0000C94382A5F3FE4F3983ED4F386957795B2
:1053C0006795B795F795E7959F5FC1F7FE2B880F17
:1053D000911D9695879597F9089597F99F6780E8AD
:1053E00070E060E008959FEF80EC089500240A9437
:1053F0001616170618060906089500240A941216B0
:105400001306140605060895092E0394000C11F4E2
:10541000882352F0BB0F40F4BF2B11F460FF04C08F
:105420006F5F7F4F8F4F9F4F089557FD9058440FE8
:10543000551F59F05F3F71F04795880F97FB991FF3
:1054400061F09F3F79F087950895121613061406B0
:10545000551FF2CF4695F1DF08C01616170618063D
:10546000991FF1CF86957105610508940895E89418
:10547000BB2766277727CB0197F90895F999FECFC7
:1054800092BD81BDF89A992780B50895262FF99984
:10549000FECF1FBA92BD81BD20BD0FB6F894FA9A17
:1054A000F99A0FBE01960895052E97FB1EF40094FD
:1054B0000E946B2A57FD07D00E94BD2A07FC03D02B
:1054C0004EF40C946B2A50954095309521953F4FA2
:1054D0004F4F5F4F089590958095709561957F4FE0
:1054E0008F4F9F4F08950E94DF2AA59F900DB49F74
:1054F000900DA49F800D911D11240895B7FF0C9469
:10550000732A0E94732A821B930B08952F923F9255
:105510004F925F926F927F928F929F92AF92BF92C3
:10552000CF92DF92EF92FF920F931F93CF93DF936F
:10553000CDB7DEB7CA1BDB0B0FB6F894DEBF0FBECC
:10554000CDBF09942A88398848885F846E847D8419
:105550008C849B84AA84B984C884DF80EE80FD801B
:105560000C811B81AA81B981CE0FD11D0FB6F89491
:10557000DEBF0FBECDBFED010895A1E21A2EAA1B1A
:10558000BB1BFD010DC0AA1FBB1FEE1FFF1FA217F3
:10559000B307E407F50720F0A21BB30BE40BF50BF0
:1055A000661F771F881F991F1A9469F76095709579
:1055B000809590959B01AC01BD01CF010895A29FFC
:1055C000B001B39FC001A39F700D811D1124911DD7
:1055D000B29F700D811D1124911D08955058BB2755
:1055E000AA270E94062B0C94042A0E94F62938F060
:1055F0000E94FD2920F039F49F3F19F426F40C9401
:10560000F3290EF4E095E7FB0C94ED29E92F0E94B5
:10561000152A58F3BA17620773078407950720F015
:1056200079F4A6F50C94372A0EF4E0950B2EBA2FD8
:10563000A02D0B01B90190010C01CA01A001112498
:10564000FF27591B99F0593F50F4503E68F11A1644
:10565000F040A22F232F342F4427585FF3CF4695D5
:1056600037952795A795F0405395C9F77EF41F16F7
:10567000BA0B620B730B840BBAF09150A1F0FF0FC1
:10568000BB1F661F771F881FC2F70EC0BA0F621FAD
:10569000731F841F48F4879577956795B795F7959D
:1056A0009E3F08F0B0CF9395880F08F09927EE0F32
:1056B0009795879508950E940A2CE3950C94332CB6
:1056C0000E94742B0C94042A0E94FD2958F00E9419
:1056D000F62940F029F45F3F29F00C94ED2951118F
:1056E0000C94382A0C94F3290E94152A68F3992304
:1056F000B1F3552391F3951B550BBB27AA276217CE
:105700007307840738F09F5F5F4F220F331F441FDA
:10571000AA1FA9F335D00E2E3AF0E0E832D091500E
:105720005040E695001CCAF72BD0FE2F29D0660FFB
:10573000771F881FBB1F261737074807AB07B0E83E
:1057400009F0BB0B802DBF01FF2793585F4F3AF044
:105750009E3F510578F00C94ED290C94382A5F3F58
:10576000E4F3983ED4F3869577956795B795F795CA
:105770009F5FC9F7880F911D9695879597F90895B2
:10578000E1E0660F771F881FBB1F6217730784074E
:10579000BA0720F0621B730B840BBA0BEE1F88F75D
:1057A000E09508950E94D92B6894B1110C94382A81
:1057B00008950E941D2A88F09F5798F0B92F9927C5
:1057C000B751B0F0E1F0660F771F881F991F1AF0EC
:1057D000BA95C9F714C0B13091F00E94372AB1E0F0
:1057E00008950C94372A672F782F8827B85F39F0EF
:1057F000B93FCCF3869577956795B395D9F73EF485
:1058000090958095709561957F4F8F4F9F4F08952C
:105810000C94F3290E941D2AD8F3E894E0E0BB27FA
:105820009F57F0F02AED3FE049EC06C0EE0FBB0FAA
:10583000661F771F881F28F0B23A62077307840734
:1058400028F0B25A620B730B840BE3959A9572F7AA
:10585000803830F49A95BB0F661F771F881FD2F7E8
:1058600090480C94E52CEF93E0FF07C0A2EA2AEDE4
:105870003FE049EC5FEB0E94062B0E94042A0F9048
:10588000039401FC9058E8E6F0E00C94182D0E9477
:105890005C2908F48FEF0895FA01EE0FFF1F309690
:1058A00021053105A1F16115710561F48038BFE36F
:1058B0009B0749F168949038810561F08038BFEF0B
:1058C0009B0741F099234AF5FF3FE105310521058A
:1058D00019F1E8940894E795D901AA2329F4AB2F8C
:1058E000BE2FF85FD0F310C0FF5F70F4A695E0F70D
:1058F000F73950F019F0FF3A38F49F779F930DD0A5
:105900000F9007FC9058089546F00C94F32960E03E
:1059100070E080E89FE308954FE79F775F934F9390
:105920003F932F930E94762D2F913F914F915F913E
:105930000E9480290C94B12C9F930E940A2C0F90F6
:1059400007FCEE5F0C94332C0E945C29880B990BAA
:10595000089529F416F00C94ED290C94372A0C9430
:10596000F3290E941D2AA8F39638A0F707F80F9292
:10597000E8942BE33AEA48EB5FE70E9496290F92FE
:105980000F920F924DB75EB70F920E94BE2DE6E8C0
:10599000F0E00E94F12C4F915F91EF91FF91E5951E
:1059A000EE1FFF1F49F0FE57E0684427EE0F441F2B
:1059B000FA95E1F74195550B0E94382D0F9007FE9F
:1059C0000C942C2D08959F3F31F0915020F4879531
:1059D00077956795B795880F911D9695879597F957
:1059E0000895DF93CF931F930F93FF92EF92DF926F
:1059F0007B018C01689406C0DA2EEF010E94932986
:105A0000FE01E894A5912591359145915591A6F314
:105A1000EF010E94062BFE019701A801DA9469F7B5
:105A2000DF90EF90FF900F911F91CF91DF9108953C
:105A30009F938F937F936F93FF93EF939B01AC01A1
:105A40000E948029EF91FF910E94F12C2F913F91AC
:105A50004F915F910C9480299B01AC0160E070E054
:105A600080E89FE30C94602B0C94ED290C94E32CBC
:105A70000E941D2AD8F39923C9F3940F511DA3F353
:105A80009150504094F059F0882332F0660F771F00
:105A9000881F91505040C1F79E3F51052CF7880F49
:105AA000911D9695879597F908955F3FACF0983EC4
:105AB0009CF0BB27869577956795B79508F4B160FC
:105AC0009395C1F7BB0F58F711F460FFE8CF6F5FF4
:105AD0007F4F8F4F9F4FE3CF0C94382A16F00C94D2
