:100000000C941E010C9446010C9446010C9446017C
:100010000C9446010C9446010C9446010C94A217D2
:100020000C9446010C9446010C9446010C94BF19A3
:100030000C9446010C9446010C9446010C94460124
:100040000C9456180C9446010C9424180C94FE172A
:100050000C9446010C9446010C9446010C94460104
:100060000C94A0180C94460105A84CCDB2D44EB9FE
:100070003836A9020C50B9918688083CA6AAAA2A4B
:10008000BE000000803F07634236B79BD8A71A39ED
:10009000685618AEBAAB558C1D3CB7CC5763BD6DD6
:1000A000EDFD753EF6177231BF000000803F08007D
:1000B0000000BE922449123EABAAAA2ABECDCCCCE7
:1000C0004C3E00000080BEABAAAAAA3E0000000081
:1000D000BF000000803F0000000000084178D3BB53
:1000E0004387D1133D190E3CC3BD4282AD2B3E6800
:1000F000EC8276BED98FE1A93E4C80EFFFBE01C4F1
:10010000FF7F3F0000000000010000010000000030
:100110000000000000000000000000006B7374721B
:10012000007520006B6869006B7075006B736974F3
:10013000006952616E640000000000240027002A5C
:100140000000000008000201000003040700000096
:1001500000000000004D487A00496E697420736504
:1001600072766F733A20004C6F616420736B696C18
:100170006C7300526561647921004E7962626C652E
:10018000000A2A205374617274202A004C6F772071
:10019000706F7765723A007A65726F006275747479
:1001A0005570007374616E64007065650070750051
:1001B0006869007374720073697400747200776BFD
:1001C00000637200767400630042007000520062A7
:1001D000616C616E6365004C00670046006400005E
:1001E00000000023002600290031012C01280124F1
:1001F0000121011C0161626F727465640073617694
:100200006564003F000200000000250028002B006C
:1002100004040404040404040202020202020303AC
:1002200003030303010204081020408001020408B4
:100230001020010204081020F11AA12A11241FBE67
:10024000CFEFD8E0DEBFCDBF11E0A0E0B1E0E8E73E
:10025000F6E602C005900D92AE3EB107D9F724E054
:10026000AEEEB1E001C01D92AA3CB207E1F711E089
:10027000CDE1D1E004C02197FE010E940532CC31CE
:10028000D107C9F70E94E11B0C942F330C94000096
:1002900080919D0290919E02891B990B089508956B
:1002A00008950895AF92BF92CF92DF92EF92FF929E
:1002B0000F931F93CF93DF936C017B018B01040F8E
:1002C000151FEB015E01AE18BF08C017D10759F02A
:1002D0006991D601ED91FC910190F081E02DC6016C
:1002E0000995892B79F7C501DF91CF911F910F9166
:1002F000FF90EF90DF90CF90BF90AF900895FC01FA
:10030000538D448D252F30E0842F90E0821B930B7A
:10031000541710F0CF96089501970895FC01918D20
:10032000828D981761F0A28DAE0FBF2FB11D5D9623
:100330008C91928D9F5F9F73928F90E008958FEFC5
:100340009FEF0895FC01918D828D981731F0828D79
:10035000E80FF11D858D90E008958FEF9FEF0895D0
:10036000FC01918D228D892F90E0805C9F4F821B34
:1003700091098F739927089589E193E00E94B00154
:1003800021E0892B09F420E0822F089580E090E09D
:10039000892B29F00E94BC0181110C940000089562
:1003A000FC01A48DA80FB92FB11DA35ABF4F2C91EA
:1003B000848D90E001968F739927848FA689B789E1
:1003C0002C93A089B1898C91837080648C93938DD8
:1003D000848D981306C00288F389E02D80818F7D7B
:1003E00080830895EF92FF920F931F93CF93DF9333
:1003F000EC0181E0888F9B8D8C8D98131AC0E88961
:10040000F989808185FF15C09FB7F894EE89FF892F
:100410006083E889F98980818370806480839FBFCD
:1004200081E090E0DF91CF911F910F91FF90EF90CD
:100430000895F62E0B8D10E00F5F1F4F0F731127DD
:10044000E02E8C8D8E110CC00FB607FCFACFE88918
:10045000F989808185FFF5CFCE010E94D001F1CFCF
:10046000EB8DEC0FFD2FF11DE35AFF4FF0829FB78C
:10047000F8940B8FEA89FB8980818062CFCF682F47
:1004800089E193E00C94F2010F931F93CF93DF93D4
:100490008C01D0E0C0E0F801EC0FFD1F64916623F1
:1004A00041F089E193E00E94F201892B11F021963D
:1004B000F2CFCE01DF91CF911F910F910895CF938D
:1004C000DF93EC01888D8823B9F0AA89BB89E8897C
:1004D000F9898C9185FD03C0808186FD0DC00FB622
:1004E00007FCF7CF8C9185FFF2CF808185FFEDCFA0
:1004F000CE010E94D001E9CFDF91CF9108958330E2
:1005000081F028F4813099F08230A9F00895873085
:10051000A9F08830C9F08430B1F4809180008F7DDB
:1005200003C0809180008F7780938000089584B508
:100530008F7784BD089584B58F7DFBCF8091B00007
:100540008F778093B00008958091B0008F7DF9CFB0
:100550001F93CF93DF93282F30E0F901EF5BFE4F1D
:100560008491F901EC5DFD4FD491F901E05FFD4FFD
:10057000C491CC23A9F0162F81110E947F02EC2F89
:10058000F0E0EE0FFF1FEA5FFD4FA591B4918FB72A
:10059000F894EC91111108C0D095DE23DC938FBF45
:1005A000DF91CF911F910895DE2BF8CF9091290113
:1005B00089130BC0E5E0F2E0E4919FEF90932901ED
:1005C000E13049F028F0E23061F060E00C94A802DC
:1005D00010926E00FACF90916F009D7F90936F0004
:1005E000F4CF909170009D7F9093700091E0909374
:1005F000B0009091B100987F94609093B1001092F8
:10060000B300E3CFCF93DF9390E0FC01EC5DFD4FAF
:100610002491805F9D4FFC0184918823D1F090E06C
:10062000880F991FFC01E95CFE4FA591B491FC0174
:10063000EA5FFD4FC591D49161110EC09FB7F89448
:100640008C91E22FE0958E238C932881E223E8831E
:100650009FBFDF91CF9108958FB7F894EC91E22B73
:10066000EC938FBFF6CF8E50806480937C00809196
:100670007A00806480937A0080917A0086FDFCCFB6
:10068000809178009091790008953FB7F894809117
:10069000570290915802A0915902B0915A0226B582
:1006A000A89B05C02F3F19F00196A11DB11D3FBFAA
:1006B000BA2FA92F982F8827BC01CD01620F711D79
:1006C000811D911D42E0660F771F881F991F4A9573
:1006D000D1F708958F929F92AF92BF92CF92DF92FF
:1006E000EF92FF926B017C010E9445034B015C017C
:1006F000C114D104E104F104B9F00E944503681962
:1007000079098A099B09683E73408105910580F348
:1007100021E0C21AD108E108F10888EE880E83E0D2
:10072000981EA11CB11CE4CFFF90EF90DF90CF90FA
:10073000BF90AF909F908F9008952FB7F8946091DD
:1007400053027091540280915502909156022FBF2E
:1007500008950F931F930E949D036093210370934C
:100760002203809323039093240389E193E00E9462
:100770008E0197FF1DC00E949D03009121031091DF
:1007800022032091230330912403601B710B820B01
:10079000930B00911D0310911E0320911F033091B4
:1007A00020036017710782079307F8F28FEF9FEF1E
:1007B0001F910F91089520912F02260F3327331F89
:1007C00021323105ECF420911303FC0190E080E02C
:1007D000243069F082E00895A0912F022191AC01AC
:1007E000415F5D4FA40FB52FB11D2C930196861765
:1007F00098F380912F02680F60932F0280E0089594
:1008000081E008951092130381E08093F202109228
:10081000ED0261E082E10E94A80261E083E10E94B2
:10082000A802E9EBF0E080818E7F808380818D7F5C
:10083000808388E48093B80085E48093BC000895A9
:10084000CF93DF9391E090930E028823B9F0C0918B
:10085000B800D091BA008091BC008A7B8093BC0024
:1008600060E082E10E94A80260E083E10E94A802A9
:100870000E940204D093BA00C093B800DF91CF91D8
:100880000895CF92DF92EF92FF920F931F93CF9331
:10089000DF93D82FC62F613208F098C00E9445031D
:1008A0006B017C018091130381116BC081E0809307
:1008B00013038093F2029FEF9093F1021092F002E3
:1008C0009C0F9093EF028093EE028091EE02DD0F79
:1008D000D82BD093EE028091ED02813009F078C0E0
:1008E0001092ED020E9445036B017C018091EE02A3
:1008F0008093BB008091150390911603A09117037C
:10090000B0911803892B8A2B8B2BA1F00E944503F1
:1009100000911503109116032091170330911803CD
:100920006C197D098E099F090617170728073907D3
:1009300008F448C08091BC0083FDD8CF85EC80933B
:10094000BC000E9445036B017C0180911303813040
:1009500009F440C08091F0028C1710F4C091F002AD
:10096000EDECF2E0A3EFB2E080E08C1355C08C2FE9
:10097000DF91CF911F910F91FF90EF90DF90CF907B
:1009800008958091150390911603A0911703B091DB
:100990001803892B8A2B8B2B09F484CF0E944503E3
:1009A000009115031091160320911703309118033D
:1009B0006C197D098E099F09061717072807390743
:1009C00008F070CF809114030E942004C0E0CFCFC4
:1009D00085EEB5CF8091150390911603A091170372
:1009E000B0911803892B8A2B8B2B09F4AECF0E9470
:1009F00045030091150310911603209117033091C0
:100A000018036C197D098E099F0906171707280717
:100A1000390708F09ACFD6CF91919D938F5FA5CFDC
:100A20000895E0919E0280919D02E81730F4F0E075
:100A3000ED50FD4F808190E008958FEF9FEF089576
:100A400090919E0280919D022FEF3FEF981748F4FE
:100A5000E92FF0E0ED50FD4F208130E09F5F909353
:100A60009E02C9010895CF92DF92EF92FF920F93F9
:100A70001F93CF93DF937C01CB018A012091BB02AE
:100A8000222389F0EB016B01C40ED51ECC15DD05C8
:100A900069F06991D701ED91FC910190F081E02D11
:100AA000C7010995F3CF642F0E94DB03C801DF91D2
:100AB000CF911F910F91FF90EF90DF90CF9008950D
:100AC000CF93DF931F92CDB7DEB769832091BB022E
:100AD0002223F9F02091B802203258F021E030E0D2
:100AE000FC013383228390E080E00F90DF91CF916F
:100AF00008958091B902E82FF0E0E251FE4F99810C
:100B000090838F5F8093B9028093B80281E090E078
:100B1000ECCF61E0CE0101960E94DB03F7CFCF92CC
:100B2000DF92EF92FF920F931F93CF93DF93D091B9
:100B3000B80281E0D13208F09CC0C091BA020E9494
:100B400045036B017C018091130381116CC082E02D
:100B50008093130381E08093F2028FEF8093F10280
:100B60001092F002D093EF02AEEEB1E0EDECF2E0C5
:100B700080E0D8138DC01092EE028091EE02CC0F6F
:100B8000C82BC093EE028091ED02813009F084C041
:100B90001092ED020E9445036B017C018091EE02F0
:100BA0008093BB008091150390911603A0911703C9
:100BB000B0911803892B8A2B8B2BA1F00E9445033F
:100BC000009115031091160320911703309118031B
:100BD0006C197D098E099F09061717072807390721
:100BE00008F442C08091BC0083FDD8CF85EC80938F
:100BF000BC000E9445036B017C018091130382308D
:100C000009F44CC08091F1028F3F09F469C08091D2
:100C1000F102803209F466C08091F102803309F458
:100C200063C084E026C08091150390911603A091C3
:100C30001703B0911803892B8A2B8B2B09F483CFD0
:100C40000E9445030091150310911603209117038C
:100C5000309118036C197D098E099F090617170733
:100C60002807390708F06FCF809114030E942004F1
:100C700085E01092B9021092B8021092BB02DF9187
:100C8000CF911F910F91FF90EF90DF90CF9008953B
:100C90009D9191938F5F6DCF85EEA9CF80911503C4
:100CA00090911603A0911703B0911803892B8A2BFA
:100CB0008B2B09F4A2CF0E944503009115031091DC
:100CC000160320911703309118036C197D098E09C2
:100CD0009F09061717072807390708F08ECFC4CFDA
:100CE00080E0C7CF82E0C5CF83E0C3CF90E080E053
:100CF0000895EF92FF920F931F93CF93DF93EC0130
:100D000080E0B0E0A0E0E881F981AE17BF07D8F439
:100D1000AE171F06A8F4E82FF0E00A811B817F01BF
:100D20000E0D1F1DF80140830A811B810E0D1F1D32
:100D3000F80161830A811B81F701E00FF11F228313
:100D400011968D5FE0CF81E0DF91CF911F910F91E0
:100D5000FF90EF9008958F929F92AF92BF92CF92A3
:100D6000DF92EF92FF92CF93DF93E62F6A01FF2489
:100D7000D7FCF094EF2C832E942EA52EBB24A7FC39
:100D8000BA94E1110EC0482D6C2DDF91CF91FF90E8
:100D9000EF90DF90CF90BF90AF909F908F900C948A
:100DA0007906DC016D917C911197E617170609F021
:100DB000D8F4E150E6171706B8F46E2F660FE60F69
:100DC000F0E012960D90BC91A02DAE0FBF1F8C923B
:100DD000EC01AA81BB81AE0FBF1F1196CC926A8134
:100DE0007B81E60FF71F228380E0DF91CF91FF9098
:100DF000EF90DF90CF90BF90AF909F908F9008952D
:100E00001F93CF93DF93EC01142F89819A8128815E
:100E100031E03093BB022093BA021092B9021092D3
:100E2000B802DC01ED91FC910190F081E02D099573
:100E300089819A81DC01ED91FC910190F081E02D96
:100E4000612F099589819A81DF91CF911F910C942F
:100E50008F05DC01ED91FC910190F081E02D09946A
:100E60000F931F93CF93DF93EC018A0189819A81BD
:100E7000288131E03093BB022093BA021092B9026C
:100E80001092B80224E0629FB00111246A5F7F4F84
:100E9000DC01ED91FC910190F081E02D099570E06D
:100EA00060E089819A810E94290770E060E0898171
:100EB0009A810E942907B80189819A810E94290795
:100EC000612F70E089819A810E94290789819A8126
:100ED000DF91CF911F910F910C948F05CF93C0E0BC
:100EE00040E050E16C2F85E994E00E943007CF5F2D
:100EF000C031B1F7CF910895FC0187E094E1161657
:100F000034F484E098E0613011F484E090E190835F
:100F1000062E000C770B77FF03C071956195710960
:100F2000969FA001979F500D1124840F952F911D1E
:100F300008952F923F924F925F926F927F928F927D
:100F40009F92AF92BF92CF92DF92EF92FF920F9358
:100F50001F93CF93DF9300D000D000D01F92CDB766
:100F6000DEB78C832D83262F30E0A8EEB3E00E94FD
:100F7000CA2E4B015C011982842F90E09B838A83E7
:100F800099812C81921709F447C08A819B819F83A4
:100F90008E8310E000E09D812E812917C8F58E8197
:100FA0009F81C29787369A4358F5CA80DB80C00E6E
:100FB000D11E1601220C331C220C331C85E0281A8A
:100FC0003108CC0CDD1CF12CE12C412C512C3201D0
:100FD000481459046A047B049CF461E085E00E9493
:100FE000A802C1010197F1F760E085E00E94A80224
:100FF000C1010197F1F74C0C5D1C6E1C7F1CE8CF02
:101000000F5F1F4F8E819F8101969F838E83C3CF79
:1010100099819F5F9983B4CF27960FB6F894DEBF6E
:101020000FBECDBFDF91CF911F910F91FF90EF9039
:10103000DF90CF90BF90AF909F908F907F906F90F8
:101040005F904F903F902F900895CF93DF93EC01E6
:1010500089819A81288131E03093BB022093BA02C2
:101060001092B9021092B802DC01ED91FC9101904E
:10107000F081E02D099589819A810E948F0561E0B8
:1010800088810E94410410929E0280939D02898172
:101090009A81DC01ED91FC910284F385E02D0995A4
:1010A000DF91CF9108958F929F92AF92BF92CF928E
:1010B000DF92EF92FF92CF93C82F90E080E00E94E2
:1010C0000A2D6B017C016EEF85E994E00E942508F2
:1010D000682F70E06F5F7F4F90E080E00E940A2DE4
:1010E00020E034E244E759E40E946B2D4B015C019F
:1010F000609198047091990480919A0490919B0456
:101100000E940A2D9B01AC01C501B4010E944B2F26
:101110009B01AC01C701B6010E944B2F0E94C42F56
:10112000AB016C2F85E994E0CF91FF90EF90DF90B9
:10113000CF90BF90AF909F908F900C9430070F93FB
:101140001F93CF938C01C0E0B8018C2F0E945308ED
:10115000CF5FC031C9F76AE070E080E090E0CF91E6
:101160001F910F910C946A038F929F92AF92BF923E
:10117000CF92DF92EF92FF921F93CF93DF93EC0118
:101180006A017B0120E030E040E85FE3CB01B6017B
:101190000E94052D87FD7EC020E030EC4AE555E435
:1011A000C701B6010E94323018163CF4C12C30EC55
:1011B000D32E3AE5E32E35E4F32E6B817C818D81CD
:1011C0009E810E940A2D4B015C0120E030E040E846
:1011D00055E4C701B6010E946B2D9B01AC01C5010E
:1011E000B4010E944B2F20E030E040E05FE30E941A
:1011F000DA2E20E030E040E85FE30E94D92E6B0158
:101200007C0120E030E040E450E40E94052D87FDA1
:1012100048C020E030E04FE753E4C701B6010E9428
:101220003230181634F4C12CD12C9FE7E92E93E408
:10123000F92E60E0CE010E942508182F482F4F7626
:10124000406160E0CE010E940007C701B6010E9424
:10125000C42F462F6EEFCE010E940007412F60E0A1
:10126000CE010E94000765E070E080E090E00E94FF
:101270006A03412F406A60E0CE01DF91CF911F9158
:10128000FF90EF90DF90CF90BF90AF909F908F90A6
:101290000C940007C12CD12C20E8E22E2FE3F22E73
:1012A0008CCFC12CD12C80E4E82EFE2CC2CFFC01C7
:1012B00001900020E9F73197AF01481B590BBC01A1
:1012C00089E193E00C9452018F929F92AF92BF926A
:1012D0000F931F93CF93DF93CDB7DEB7A1970FB6D0
:1012E000F894DEBF0FBECDBF19A2423008F44AE029
:1012F0008E010F5D1F4F842E912CB12CA12CA501C6
:1013000094010E94A82EE62FB901CA01EA30F4F434
:10131000E05DD801EE938D01232B242B252B79F74B
:1013200090E080E0109719F0CD010E945709A19636
:101330000FB6F894DEBF0FBECDBFDF91CF911F91E6
:101340000F91BF90AF909F908F900895E95CE1CF8F
:10135000CF92DF92EF92FF92C12CD12C76014AE01E
:10136000C701B6010E94640989E00E943F028FEF25
:10137000C81AD80AE80AF80A80E1C816D104E104BC
:10138000F10469F78CE791E0FF90EF90DF90CF9048
:101390000C945709CF93DF930E944402EC018CE731
:1013A00091E00E9457098C0F9D1FDF91CF91089506
:1013B000CF93DF930E943F02EC018CE791E00E9403
:1013C00057098C0F9D1FDF91CF910895CF93DF9325
:1013D000FC01448155816081718189E193E00E9423
:1013E0005201EC018CE791E00E9457098C0F9D1F80
:1013F000DF91CF9108954F925F926F927F928F927B
:101400009F92AF92BF92CF92DF92EF92FF920F9393
:101410001F93CF936B017C01CA01B9010E94C42FB5
:101420002B013C0120E030E0A901C701B6010E9478
:10143000052D882309F49CC1A701960163E67CE988
:1014400087E89FE30E94373020E030ED42E854E423
:101450000E946B2D0E94C42F6B0180912901853061
:1014600009F066C0E5E0F2E0C491C7FDD7C161E0D4
:1014700085E00E940203CC2319F0C23009F025C197
:10148000F12CE12C60E072E18AE790E0A70196017F
:101490000E943F2E49015A01DA01C9010197A109B1
:1014A000B1098F3F9105A105B10509F00CF4F1C018
:1014B00060E472E48FE090E0A70196010E943F2E65
:1014C0002150310941095109C23009F0A3C082E01D
:1014D0002F3F31054105510509F00CF490C160E939
:1014E00070ED83E090E0A70196010E943F2E21500D
:1014F00031094109510983E02F3F3105410551056B
:1015000009F00CF47CC168E478EE81E090E0A7017A
:1015100096010E943F2E21503109410951092F3F68
:1015200031054105510511F00CF092C084E067C10E
:101530008F3F09F073C185E080932901E5E0F2E077
:10154000C491CF3F09F46AC1C13021F150F0C230DB
:1015500009F43EC0C7FD62C161E085E00E9402035C
:101560008CCF14BC15BC84B5826084BD85B5816008
:1015700085BDE5E1F2E0E491F0E0EE0FFF1FEA5FE8
:10158000FD4F85919491E9E2F2E0E491E093C0028D
:10159000C0E06DCF10928000109281008091810098
:1015A00088608093810080918100816080938100B8
:1015B000E5E1F2E0E491F0E0EE0FFF1FEA5FFD4F9E
:1015C00085919491E9E2F2E0E491E093BF024FCF7C
:1015D0001092B0001092B1008091B00082608093B0
:1015E000B0008091B10081608093B100E5E1F2E04C
:1015F000E491F0E0EE0FFF1FEA5FFD4F85919491BB
:101600009093BE028093BD02E9E2F2E0E491E093A0
:10161000BC022DCF2F3F31054105510509F00CF4D7
:1016200052C068E478EE81E090E0A70196010E9444
:101630003F2E2150310941095109CC2309F4B4C08E
:101640002F3F31054105510511F00CF0B5C06ECFAB
:1016500064E274EF80E090E0A70196010E943F2EC3
:10166000215031094109510985E02F3F31054105DC
:10167000510509F008F4C3C062E17AE780E090E028
:10168000A70196010E943F2E2150310941095109BD
:10169000A1C09C0181E0C111B2C095B5987F892B92
:1016A00085BD27BD8FEF9FEFDC018093C90290932A
:1016B000CA02A093CB02B093CC0280916E008260EC
:1016C00080936E00ABC082E0E6CFF12CE12C60E0AD
:1016D00072E18AE790E0A70196010E943F2E215017
:1016E00031094109510991E02115310581E048078F
:1016F00051056CF068E478EE81E090E0A701960176
:101700000E943F2E215031094109510993E0C13017
:1017100009F07BC080918100887F892B80938100B4
:1017200030938900209388008FEF9FEFDC01809336
:10173000C5029093C602A093C702B093C8028091DD
:101740006F00826080936F0069C02093B3008FEFB9
:101750009FEFDC018093C1029093C202A093C30269
:10176000B093C4028091700082608093700056C074
:10177000C301B2010E946A0351C084E02F3F3105CA
:101780004105510509F008F488CF8AE0B594A79483
:10179000979487948A95D1F7A50194012150310936
:1017A0004109510985E079CF83E02F3F310541059B
:1017B000510509F00CF471CF62E17AE780E090E026
:1017C000A70196010E943F2E21503109410951097C
:1017D000CC2399F286E02F3F31054105510579F080
:1017E00070F09AE0B594A794979487949A95D1F75E
:1017F000A5019401215031094109510987E09091D7
:10180000B100987F892B8093B100C13009F488CF53
:10181000C23009F49ACFCC2309F443CFC301B201FB
:101820000E946A0385E00E94D602B801110F880B5E
:10183000990BCF911F910F91FF90EF90DF90CF9078
:10184000BF90AF909F908F907F906F905F904F90E0
:101850000C946A03FC0124813581232B39F421E0A7
:10186000FB018081882349F020E007C080819181BD
:101870000E94E63221E0892BB9F7822F0895CF9399
:10188000DF93EC0188819981009711F00E94412B30
:10189000198218821D821C821B821A82DF91CF91CD
:1018A0000895FC0180819181009711F00C94412BE7
:1018B00008950F931F93CF93DF938C01EB01FC01ED
:1018C000808191810097E1F06881798161157105CE
:1018D000A9F0428153812C813D814217530770F05A
:1018E0000E94EF328C819D81F801958384831D8253
:1018F0001C82DF91CF911F910F9108950E94412B7F
:1019000088819981F801918380838A819B81938367
:1019100082838C819D8195838483198218821B82A6
:101920001A82E5CF0C94292E6F927F928F929F920C
:10193000AF92BF92CF92DF92EF92FF920F931F93DD
:10194000CF93DF936C01712CD0E0C0E085E191E092
:101950000E94920C082E000C990B781619060CF0B8
:101960006DC04E018FEF881A980ACE01805C9E4FA1
:101970000E94920C682EE82EF12CC70101960E945D
:10198000A52A8C015C01CF5BDE4FC81BD90B8A2DC9
:10199000801B861548F4CE018A0D9B1D0E94920C77
:1019A000F50181935F01F3CFE401CE0DDF1D5801F6
:1019B000AE0CBF1CF5011082B601C8010E94E632D0
:1019C000892B09F501151105A9F5CE018F5B9E4FF5
:1019D0000E94920C8093A702682F8CEA92E00E94EA
:1019E0007C07CE01805C9E4FDF91CF911F910F91BC
:1019F000FF90EF90DF90CF90BF90AF909F908F902F
:101A00007F906F900895F501319780818C3449F46F
:101A1000A70141505109B601C8010E94F632892B35
:101A200089F20115110519F0C8010E94412B249675
:101A300073948CCFC8010E94412BC7CF83E092E002
:101A40000E94CA098FEF9FEFCFCF1F93CF93DF93F1
:101A5000EC010E94920C182FCE0101960E94920C6C
:101A600090E0982F8827810F911DDF91CF911F91D2
:101A70000895CF92DF92EF92FF920F931F93CF932F
:101A8000DF936A017B01082F10E0C801805B9F4F44
:101A9000880F991F0E94250DBC01990F880B990B87
:101AA0000E940C2D20E030E04AE754E40E944B2FC6
:101AB000A70196010E946B2D6B017C0182E191E0F0
:101AC0000E94920C9AE0899FB0011124072E000C0D
:101AD000880B990B0E940C2DA70196010E94DA2E0B
:101AE0006B017C0120E030E04AEF53E40E94323089
:101AF000C4EFD1E018168CF420E030E44CE155E45A
:101B0000C701B6010E94052DC4ECD9E087FF05C0CE
:101B1000C701B6010E94BD2FEB01C8010E94920CC3
:101B2000AE01682F85E994E0DF91CF911F910F916D
:101B3000FF90EF90DF90CF900C94300790E0C0962C
:101B4000880F991F860F911D880F991F0C94250DE2
:101B50007F928F929F92AF92BF92CF92DF92EF923D
:101B6000FF920F931F93CF93DF93B82E6A01D62F66
:101B7000C72F60E00E949E0DBC01990F880B990B46
:101B80000E940C2D7B018C0161E08B2D0E949E0D2B
:101B9000BC01990F880B990B0E940C2D762E872E75
:101BA000982EA92E96014D2F5C2F0E94052D87FFA0
:101BB00071C0772D682D992D8A2D272F362F492F0B
:101BC000582FB701C8010E943230181694F09601C0
:101BD0004D2F5C2F672D782D892D9A2D0E94052D74
:101BE00076010D2F1C2F87FF04C0E72CF82C092D40
:101BF0001A2DCB2DD0E06E0180E3C80ED11CCC0F86
:101C0000DD1FC75FDE4FB701C8010E94BD2F79837A
:101C10006883C601880F991F0E94250DEC01C6013B
:101C20000E94920C682F880F770B880B990B0E94EB
:101C30000C2D9701A8010E946B2D6B017C01BE0148
:101C4000DD0F880B990B0E940C2D9B01AC01C70185
:101C5000B6010E94DA2E0E94BD2F072E000C880BC1
:101C6000990B0E940C2D20E030E0A9010E94DA2E91
:101C7000AB01BC018B2DDF91CF911F910F91FF9094
:101C8000EF90DF90CF90BF90AF909F908F907F901C
:101C90000C94390D7C2D6D2DCE018FCF2F923F925C
:101CA0004F925F926F927F928F929F92AF92BF926C
:101CB000CF92DF92EF92FF920F931F93CF93DF9318
:101CC000CDB7DEB72E970FB6F894DEBF0FBECDBFEF
:101CD0005C016A017B0120E030E0A901CB01B60183
:101CE0000E94052D9501205E3F4F3901181684F1A1
:101CF00089013FE03983D8017E916E918D01072ED5
:101D0000000C880B990B0E940C2DAB01BC01898142
:101D10000E94A80DB981B150B983BF3F61F72E96DB
:101D20000FB6F894DEBF0FBECDBFDF91CF911F91EC
:101D30000F91FF90EF90DF90CF90BF90AF909F906A
:101D40008F907F906F905F904F903F902F9008956D
:101D500080E290E00E94A52A8C0189E0882E81E033
:101D6000982E9801F50170E060E0D4018D919D916D
:101D70004D0141915191841B950BD9018D939D93F8
:101D80009D0197FF03C09195819591096817790787
:101D90000CF4BC01E615F70541F7072E000C880B83
:101DA000990B0E940C2DA70196010E944B2F6B01ED
:101DB0007C0120E030E0A9010E94323020E030E0D8
:101DC00040E05FE387FD91C0C701B6010E94DA2EB3
:101DD0000E94BD2F7E876D87D12CC12C8D859E855D
:101DE000092E000CAA0BBB0B89879A87AB87BC878F
:101DF000AD85BE85AC15BD050CF47CC04801150150
:101E0000F12CC6010D2C000CAA0BBB0B8D839E83FD
:101E1000AF83B887D1016D917D911D01072E000C14
:101E2000880B990B0E940C2D2B013C01ED85FE8542
:101E300020E030E0A901EF2B09F443C06D817E81E1
:101E40008F8198850E940C2D2BED3FE049E450E4F2
:101E50000E946B2D69837A838B839C8369857A8545
:101E60008B859C850E940C2D9B01AC0169817A8138
:101E70008B819C810E944B2F0E94462F20E030E0F6
:101E800040E85FE30E94DA2E20E030E040E05FE3CC
:101E90000E946B2D69837A838B839C83D4016D911F
:101EA0007C91072E000C880B990B0E940C2D9B0136
:101EB000AC0169817A818B819C810E946B2D9B0191
:101EC000AC01C301B2010E94DA2EAB01BC018F2D1F
:101ED0000E94A80DF394B2E08B0E911CE0E1FE127B
:101EE00099CFFFEFCF1ADF0A83CFC701B6010E9457
:101EF000D92E6ECF0115110509F411CFC8012E9608
:101F00000FB6F894DEBF0FBECDBFDF91CF911F910A
:101F10000F91FF90EF90DF90CF90BF90AF909F9088
:101F20008F907F906F905F904F903F902F900C9488
:101F3000412B2F923F924F925F926F927F928F929E
:101F40009F92AF92BF92CF92DF92EF92FF920F9348
:101F50001F93CF93DF93CDB7DEB72F970FB6F894CB
:101F6000DEBF0FBECDBF4C016D8369017A01202F0A
:101F700030E03A83298320E030E0A901C701B601AF
:101F80000E94052D1816ECF01FE0812F012E000C89
:101F9000990BA981BA818A179B070CF41EC1880D81
:101FA000991DFC016081062E000C770B880B990BA4
:101FB0000E940C2DAB01BC01812F0E94A80D115075
:101FC000E4CF80E190E029813A81821B930B811557
:101FD00030E4930780F5880F991F009779F10E94EC
:101FE000A52A5C01E981FA81EE0FFF1FCF01875F0F
:101FF0009E4F3C012501D401402F70E060E040314C
:1020000000F5F301819191913F012D915D812503AF
:1020100090011124821B930BF201819391932F0164
:1020200097FF03C0919581959109681779070CF482
:10203000BC014F5FE4CF8FEF9FEFD1CF81E090E005
:10204000CECF072E000C880B990B0E940C2DA701F8
:1020500096010E944B2F6B017C0120E030E0A9012A
:102060000E94323020E030E040E05FE387FD8BC02B
:10207000C701B6010E94DA2E0E94BD2F1B011F86E8
:102080001E86CB01770FAA0BBB0B8A879B87AC8779
:10209000BD87AE85BF852A163B060CF480C0BA8288
:1020A000A9829C828B82102FCD01092E000CAA0BD5
:1020B000BB0B8E839F83A887B987103108F068C057
:1020C000AB81BC816D91BC83AB832D816203B00178
:1020D0001124072E000C880B990B0E940C2D6B010C
:1020E0007C0120E030E0A90121143104E1F16E818E
:1020F0007F81888599850E940C2D2BED3FE049E476
:1021000050E40E946B2D2B013C016A857B858C85F8
:102110009D850E940C2D9B01AC01C301B2010E9460
:102120004B2F0E94462F20E030E040E85FE30E9402
:10213000DA2E20E030E040E05FE30E946B2D2B01BF
:102140003C01A981BA816D917C91072E000C880B0E
:10215000990B0E940C2D9B01AC01C301B2010E949E
:102160006B2D9B01AC01C701B6010E94DA2EAB01B9
:10217000BC01812F0E94A80D1F5FE981FA81329670
:10218000FA83E9839ACFC701B6010E94D92E74CF92
:102190002E853F852F5F3F4F3F872E877ACFA11433
:1021A000B104D9F0C5012F960FB6F894DEBF0FBE6B
:1021B000CDBFDF91CF911F910F91FF90EF90DF90F6
:1021C000CF90BF90AF909F908F907F906F905F90D7
:1021D0004F903F902F900C94412B2F960FB6F89470
:1021E000DEBF0FBECDBFDF91CF911F910F91FF904A
:1021F000EF90DF90CF90BF90AF909F908F907F90A7
:102200006F905F904F903F902F9008957F928F92A4
:102210009F92AF92BF92CF92DF92EF92FF920F9375
:102220001F93CF93DF937C01FC0101900020E9F71D
:10223000329780818C3409F47DC0823509F07CC0EE
:1022400087EE8093A602C7010E94940CEC01CF3F59
:10225000DC0709F4C6C1CE010E94920CC82ECE0143
:1022600002960E94250DD82E082F192FC091B80470
:10227000D091B904E9E4CE1261C081E08093BB0241
:1022800084E58093BA021092B9021092B802692FC5
:1022900086EB93E00E9460056D2D86EB93E00E9433
:1022A000600586EB93E00E948F0561E084E50E9463
:1022B000410410929E0280939D0286EB93E00E945F
:1022C000200588838093A702682F8CEA92E00E9401
:1022D0007C078C01B12CA12C101611060CF043C008
:1022E000602F0F3111050CF06EE184E50E9441046E
:1022F000782E10929E0280939D024801FEE18F1A73
:102300009108680180919E02781659F086EB93E05F
:102310000E9420059FEFA91AB90AFE01EA0DFB1DD4
:102320008083E1E0CE1AD108F1F08401C814D90409
:1023300049F7D2CF89E185CF80E083CF6091A702B2
:102340008CEA92E00E947C07DE010C1B1D0BF80159
:10235000EA0FFB1F9D012C1B3D0B281739071CF4AE
:10236000E491ED93F4CF80E090E0A0E0B0E48093BE
:10237000A8029093A902A093AA02B093AB0289810C
:10238000082E000C990B9093AE028093AD028A81C7
:10239000082E000C990B9093B0028093AF028B81B2
:1023A0008093B1021091A70217FF0CC08C8180931B
:1023B000B2028D818093B3028E818093B40287E054
:1023C00090E006C084E01130D9F398E01230C4F3F5
:1023D0009093B502C80FD11DD093B702C093B60237
:1023E0006FE771E0C7010E94E632892B09F4C5C08E
:1023F000113009F0C2C00E94162C24E630E040E003
:1024000050E00E943F2E0E940C2D20E030E040E280
:1024100051E40E944B2F20E030E040EA50E40E945B
:10242000D92E60939F027093A0028093A102909393
:10243000A202C0909F02D090A002E090A102F09072
:10244000A202D0E0C0E00091B6021091B7020C0FDA
:102450001D1FF8016081062E000C770B880B990B6D
:102460000E940C2DA70196010E94DA2E0E94BD2F1A
:10247000F80160832196C031D10529F78091A60229
:1024800087FF84C08091AD029091AE0291958195B5
:1024900091099093AE028093AD0290E080E040916C
:1024A000A702242F042E000C330B37FF03C03195F5
:1024B00021953109821793070CF07DC042301CF53D
:1024C0004091AC02489F9001499F300D1124E0914A
:1024D000B602F091B702E20FF31F2081219520830D
:1024E0002091AC02289FF001299FF00D11249F013B
:1024F0002E5F3F4FE091B602F091B702E20FF31F5B
:102500002081219520832091A70260E022300CF4E5
:1025100062E0E62FF0E02091A70222300CF46FC0B9
:1025200024E030E04091B6025091B702E217F30781
:102530000CF068C09F01220F331F7091AC02789F8E
:10254000F001799FF00D1124E20FF31FE40FF51F46
:102550004081518150835091AC02589FD001599FC6
:10256000B00D1124E091B602F091B702E20FF31F13
:10257000EA0FFB1F41836F5FCCCF10929F02109236
:10258000A0021092A1021092A20253CF9091A70232
:1025900092308CF481110FC00E94162C24E630E09A
:1025A00040E050E00E943F2E60FF05C080919C02F9
:1025B000833609F067CF10929B0210929A02209105
:1025C000A8023091A9024091AA025091AB02009159
:1025D000B5026091B1028091B6029091B7020E945B
:1025E000990FDF91CF911F910F91FF90EF90DF90A6
:1025F000CF90BF90AF909F908F907F90089528E0EC
:1026000030E090CF01964BCF4F925F926F927F92C6
:10261000AF92BF92CF92DF92EF92FF920F931F93F0
:10262000CF93DF93F82E192F0E94920C8695CF2D11
:10263000D12FD12CC12CE82EF12C88EEA82E83E0CE
:10264000B82E2197CE14DF043CF5CE018E199F09D8
:102650000E94920C782ECE010E94920C182F672DAA
:1026600070E0C5010E94DD31072E000C880B990B2C
:102670000E940C2D2B013C01612F70E090E080E066
:102680000E940A2D10E000E0A30192010E94FB09C4
:102690008FEFC81AD80AD5CFDF91CF911F910F9134
:1026A000FF90EF90DF90CF90BF90AF907F906F90B2
:1026B0005F904F9008950F931F93CF93DF93EC019A
:1026C0008B010E94292E081721F0602FCE010E9455
:1026D000312E2196CE010E94292E181721F0612F4C
:1026E000CE010E94312E66E070E080E090E0DF9144
:1026F000CF911F910F910C946A030F931F93CF9367
:10270000DF93EC0188819981009759F02A813B8100
:102710002617370730F081E0DF91CF911F910F919D
:1027200008958B016F5F7F4F0E940B32009759F025
:10273000998388831B830A832C813D81232B59F73E
:10274000FC011082E8CF80E0E7CFEF92FF920F9379
:102750001F93CF93DF936115710541F480E0DF9102
:10276000CF911F910F91FF90EF9008954115510562
:10277000B1F07B01EC010C811D81040F151FB80124
:102780000E947D13882351F3288139818C819D819A
:10279000B701820F931F0E94EF321D830C8381E0EB
:1027A000DECFEF92FF920F931F93CF93DF93EC0155
:1027B0007B018A01BA010E947D1381110BC0CE01F9
:1027C0000E943F0CCE01DF91CF911F910F91FF909E
:1027D000EF9008951D830C83B701888199810E9431
:1027E000EF32F0CFFB01DC0111961C921E92139682
:1027F0001C921E92129715961C921E921497861781
:10280000970759F0608171816115710521F044814C
:1028100055810C94D1130C943F0C0895FB01019049
:102820000020E9F73197AF01461B570B0C94D113E9
:102830000F931F93CF93DF93CDB7DEB762970FB699
:10284000F894DEBF0FBECDBF8C01CB01F801118221
:10285000108213821282158214824AE0BE016F5FD9
:102860007F4F0E94C82CBE016F5F7F4FC8010E943E
:102870000E1462960FB6F894DEBF0FBECDBFDF9187
:10288000CF911F910F910895FC0111821082138244
:10289000128215821482FB0101900020E9F7319722
:1028A000AF01461B570B0C94D113EF92FF920F937D
:1028B0001F93CF93DF9300D0CDB7DEB78C01E62E08
:1028C00065EE71E00E9444140E94A9030E2C000CD6
:1028D000FF0897FD10C08E159F0569F089831A8245
:1028E00041E050E0BE016F5F7F4FC8010E94A51319
:1028F0000E94A903EECFC8010F900F90DF91CF91F6
:102900001F910F91FF90EF900895EF92FF920F9318
:102910001F93CF93DF93EC018B01198218821B82E6
:102920001A821D821C82CB010E94932C7C01BC0167
:10293000CE010E947D13811109C0CE01DF91CF919C
:102940001F910F91FF90EF900C943F0CFD82EC8251
:10295000B80188819981DF91CF911F910F91FF90EC
:10296000EF900C948C2C85ED8093BC008091150326
:1029700090911603A0911703B09118030796A11D1B
:10298000B11D23E0B695A795979587952A95D1F720
:102990002091BC0024FD03C01092130308954091C0
:1029A0001503509116036091170370911803452B7E
:1029B000462B472B69F30097A105B10541F02AE2A8
:1029C0002A95F1F700C00197A109B109E1CF8091E3
:1029D00014030C942004EF92FF920F931F93CF9354
:1029E000DF93EC01888199818C01000F111F080F82
:1029F000191FEA80FB80A801B7018C819D810E948C
:102A0000D032892B09F432C0AE81BF818A853FB7AD
:102A1000F8942C91982F90959223822BF7010E0F0A
:102A20001F1FE017F10781F0219148E08C9300C04F
:102A300027FF9C93220F00C000C000C008F49C93A5
:102A400000C04A9599F7EDCF3FBF88819981AC01CD
:102A5000440F551F480F591F6A817B818C819D81CE
:102A60000E94DD328BEC97E00197F1F7DF91CF9177
:102A70001F910F91FF90EF900895CF92DF92EF9208
:102A8000FF929C016A017B018091AE049091AF049A
:102A90002115310579F4AB01960160E00E94AB0687
:102AA0008091AE049091AF04FF90EF90DF90CF90B3
:102AB0000C94EB1421303105B1F4AB01960161E0C7
:102AC0000E94AB06A701960162E08091AE0490914E
:102AD000AF040E94AB06A701960163E08091AE04AB
:102AE0009091AF04DBCF22303105D1F6AB019601D6
:102AF00064E00E94AB06A701960165E08091AE04F8
:102B00009091AF040E94AB06A701960166E0E6CF64
:102B10002F923F924F925F926F927F928F929F92ED
:102B2000AF92BF92CF92DF92EF92FF920F931F93DB
:102B3000CF93DF9300D000D000D0CDB7DEB78C01AB
:102B40006A017B01213009F409C1E0F0223009F467
:102B5000DEC126960FB6F894DEBF0FBECDBFDF9163
:102B6000CF911F910F91FF90EF90DF90CF90BF908A
:102B7000AF909F908F907F906F905F904F903F901D
:102B80002F900895862E912CB12CA12C8D2D90E0A4
:102B9000B0E0A0E0DD24EE24FF242401350125E08F
:102BA000421A51086108710845E050E05E834D8388
:102BB0009C01AD01281939094A095B0929833A8327
:102BC0004B835C83C818D908EA08FB08212C3324FE
:102BD000339489819A81AB81BC81840D951DA61D9A
:102BE000B71D85309105A105B10524F485E090E07D
:102BF000A0E0B0E0BA2FA92F982F8827B301A20137
:102C000035E0431651046104710424F445E050E0BA
:102C100060E070E0BA0155274427480F591F6A1F2A
:102C20007B1FD301C2018C0D9D1DAE1DBF1D8530C4
:102C30009105A105B10524F485E090E0A0E0B0E0A5
:102C4000480F591F6A1F7B1FC8010E943D154D8107
:102C500062E170E080E090E0423148F0C1016D81B6
:102C60007E810E94DD31072E000C880B990B0E949B
:102C70006A0351E0451A5108610871088D819E81EF
:102C800001969E838D838837910509F0A2CF98E73E
:102C9000891A9108A108B10848E7742E240128E791
:102CA000420E511C49815A816B817C81480D591D0E
:102CB0006A1D7B1D453051056105710524F445E011
:102CC00050E060E070E0762F652F542F4427D50147
:102CD000C40135E083169104A104B10424F485E015
:102CE00090E0A0E0B0E0DC0199278827840F951FD1
:102CF000A61FB71FB501A4014C0D5D1D6E1D7F1DE4
:102D0000453051056105710524F445E050E060E06F
:102D100070E0480F591F6A1F7B1FC8010E943D15B4
:102D200041E162E170E080E090E0471558F480E016
:102D300091E0B201681979090E94DD31072E000C7B
:102D4000880B990B0E946A037A945FEF851A950AA3
:102D5000A50AB50A84E07812A5CFFBCE40E050E08A
:102D6000BA0190E080E00E943D15A701960161E064
:102D70008091AE049091AF040E94AB06A70196012A
:102D800064E08091AE049091AF040E94AB06809104
:102D9000AE049091AF040E94EB1464E670E080E012
:102DA00090E00E946A0320E030E0A90161E0809198
:102DB000AE049091AF040E94AB0620E030E0A90180
:102DC00064E08091AE049091AF040E94AB06A7012D
:102DD000960162E08091AE049091AF040E94AB0630
:102DE000A701960165E08091AE049091AF040E9426
:102DF000AB068091AE049091AF040E94EB1464E6A0
:102E000070E080E090E00E946A0320E030E0A901D9
:102E100062E08091AE049091AF040E94AB0620E086
:102E200030E0A90165E08091AE049091AF040E946A
:102E3000AB06A701960163E08091AE049091AF04C8
:102E40000E94AB06A701960166E08091AE049091C6
:102E5000AF040E94AB068091AE049091AF040E9433
:102E6000EB1464E670E080E090E00E946A0320E0EA
:102E700030E0A90163E08091AE049091AF040E941C
:102E8000AB0620E030E0A90166E08091AE049091AD
:102E9000AF040E94AB068091AE049091AF040E94F3
:102EA000EB1464E670E080E090E00E946A03A70102
:102EB000960162E08091AE049091AF040E94AB064F
:102EC000A701960165E08091AE049091AF040E9445
:102ED000AB068091AE049091AF0426960FB6F8949D
:102EE000DEBF0FBECDBFDF91CF911F910F91FF903D
:102EF000EF90DF90CF90BF90AF909F908F907F909A
:102F00006F905F904F903F902F900C94EB1493E054
:102F1000998340E050E0BA0190E080E00E943D15C6
:102F200064E170E080E090E00E946A03B701A601CE
:102F300090E080E00E943D152981215029832111D4
:102F4000E8CF07CE1F920F920FB60F9211242F9346
:102F50003F934F935F936F937F938F939F93AF9321
:102F6000BF93EF93FF938091C1029091C202A09111
:102F7000C302B091C402892B8A2B8B2BD1F1909183
:102F8000BC02E091BD02F091BE028081892780835E
:102F90008091C1029091C202A091C302B091C4027B
:102FA000181619061A061B069CF48091C10290910E
:102FB000C202A091C302B091C4020197A109B10954
:102FC0008093C1029093C202A093C302B093C40243
:102FD000FF91EF91BF91AF919F918F917F916F91F1
:102FE0005F914F913F912F910F900FBE0F901F90C7
:102FF0001895809129010E94D602EACF1F920F9264
:103000000FB60F9211242F933F934F935F936F93BB
:103010007F938F939F93AF93BF93EF93FF9389E138
:1030200093E00E94D001FF91EF91BF91AF919F91EA
:103030008F917F916F915F914F913F912F910F9061
:103040000FBE0F901F9018951F920F920FB60F9200
:1030500011242F938F939F93EF93FF93E091290374
:10306000F0912A038081E0912F03F091300382FDDB
:103070001BC09081809132038F5F8F732091330347
:10308000821741F0E0913203F0E0E75EFC4F958F4C
:1030900080933203FF91EF919F918F912F910F9029
:1030A0000FBE0F901F9018958081F4CF1F920F9242
:1030B0000FB60F9211242F933F938F939F93AF934B
:1030C000BF938091530290915402A0915502B09108
:1030D00056023091520223E0230F2D3758F5019606
:1030E000A11DB11D2093520280935302909354026C
:1030F000A0935502B09356028091570290915802C6
:10310000A0915902B0915A020196A11DB11D809360
:10311000570290935802A0935902B0935A02BF915C
:10312000AF919F918F913F912F910F900FBE0F9074
:103130001F90189526E8230F0296A11DB11DD2CF2E
:103140001F920F920FB60F9211242F933F934F931C
:103150005F936F937F938F939F93AF93BF93EF93FF
:10316000FF938091B900887F803609F44AC0F0F55A
:10317000883209F4A7C018F5803109F49BC0B8F46F
:10318000882309F4F9C0883009F494C0FF91EF91C5
:10319000BF91AF919F918F917F916F915F914F916F
:1031A0003F912F910F900FBE0F901F90189588316F
:1031B00009F488C0803251F78093F10214C0803442
:1031C00009F49DC040F48033B9F38833F9F6809355
:1031D000F10285ECB0C0803509F485C0883509F46A
:1031E00096C0883499F60E94B314D0CF883909F478
:1031F0008CC038F5883729F050F4883611F08037C4
:1032000029F683E0809313031092510257C0883847
:1032100009F47BC0803919F0803809F0B7CF80916C
:103220005102803208F071C0E091510281E08E0FAE
:10323000809351028091BB00F0E0EF5CFD4F8083F2
:103240003DC0803B39F0E0F4803A09F479C0883A17
:1032500009F09CCF84E08093130310923002109207
:103260002F02E0915D02F0915E02099580912F029C
:1032700081110FC081E080932F0210920F0209C0CC
:10328000803C09F4A6CF883C09F4A3CF883B09F021
:103290007DCFE091300281E08E0F80933002F0E02C
:1032A000E15FFD4F80818093BB009091300280915F
:1032B0002F0229C08091EE028093BB0085EC8093A1
:1032C000BC0064CF9091F0028091EF02981758F5FE
:1032D000E091F00281E08E0F8093F002F0E0E35382
:1032E000FD4F8081E9CFE091F00281E08E0F809365
:1032F000F0028091BB00F0E0E353FD4F808390919A
:10330000F0028091EF029817C8F285E8D8CFE091DB
:10331000F00281E08E0F8093F0028091BB00F0E01C
:10332000E353FD4F80838091F20281115CCF81E0F5
:103330008093ED0284EA8093BC001092130326CFA1
:1033400085EC8093BC00109213038091510280326F
:1033500030F4E0915102F0E0EF5CFD4F108260919B
:10336000510270E0E0915B02F0915C0281E392E037
:103370000995109251020ACF1092F10234CF1F9298
:103380000F920FB60F9211242F933F934F935F9399
:103390006F937F938F939F93AF93BF93CF93DF935D
:1033A000EF93FF932091C30330E0F901EF5BFE4FF1
:1033B0008491F901EC5DFD4FD491F901E05FFD4F7F
:1033C000C491CC2379F081110E947F02EC2FF0E0B0
:1033D000EE0FFF1FE152FE4FA591B491EC91ED234A
:1033E00081E009F480E02091C8033091C9032F5F88
:1033F0003F4F3093C9032093C8032091C6033091F7
:10340000C7032536310518F094E09093C2039091DC
:10341000C203911130C0811169C02091C80330915D
:10342000C9032436310528F41092C9031092C80349
:103430005DC0109294041092C7031092C6032091AD
:10344000C6033091C703A9014F5F5F4F5093C70375
:103450004093C6034091C8035091C903220F331F04
:10346000F901E653FC4F518340831092C903109237
:10347000C80391E021C09091C203913001F58130E1
:10348000A9F52091C6033091C703A9014F5F5F4F93
:103490005093C7034093C6034091C8035091C9039A
:1034A000220F331FF901E653FC4F518340831092E2
:1034B000C9031092C80392E09093C20317C0909181
:1034C000C203923061F4882309F4B9CF2091C80374
:1034D0003091C9032536310548F093E0EDCF909146
:1034E000C203933099F4882309F49ECF9091C503C9
:1034F0009923A9F0811126C08091C403882371F01B
:103500008091C40361E00E94A80209C09091C203A7
:10351000943061F791E090939404DFCF2D9AFF915E
:10352000EF91DF91CF91BF91AF919F918F917F915B
:103530006F915F914F913F912F910F900FBE0F9020
:103540001F9018958091C403882321F08091C403B3
:1035500060E0D9CF2D98E3CFCF92DF92EF92FF9228
:103560000F931F93E82FF92F05C00150110921096E
:10357000310961F1908196239417B9F305C0015088
:1035800011092109310911F1908196239413F7CF84
:10359000C12CD12CE12CF12C0AC08FEFC81AD80A0B
:1035A000E80AF80A0C151D052E053F0579F0808103
:1035B0008623841791F36C2D7D2D8E2D9F2D1F91C9
:1035C0000F91FF90EF90DF90CF90089560E070E052
:1035D00080E090E01F910F91FF90EF90DF90CF90EF
:1035E0000895CF93DF9310921C0310921B0388EE73
:1035F00093E0A0E0B0E080931D0390931E03A0939E
:103600001F03B09320032CE531E030931A0320937D
:10361000190325EC30E0309326032093250324EC96
:1036200030E0309328032093270320EC30E03093E0
:103630002A032093290321EC30E030932C032093BC
:103640002B0322EC30E030932E0320932D0326EC45
:1036500030E03093300320932F0310923203109206
:10366000330310923403109235031092B903109271
:10367000B8038093BA039093BB03A093BC03B093A9
:10368000BD038EE691E09093B7038093B6038AE082
:1036900090E00E94A52A9093BD048093BC0482E030
:1036A00090E00E94A52A9093BB048093BA0482EC18
:1036B00091E00E94A52A9093B9048093B80484E015
:1036C0008093C3031092C50365E871E082EB94E038
:1036D0000E94441486E08093AC0487E08093AD049C
:1036E0008BE090E00E94A52AEC01EBE2F2E0E4918D
:1036F000EA87E7E1F2E0E491F0E0EE0FFF1FEA5F16
:10370000FD4F859194919F838E8361E087E00E94B5
:10371000020386E090E09983888382E190E00E9432
:10372000A52A9B838A83892B21F488E891E00E9453
:10373000043330E020E048815981CA01880F991F85
:10374000840F951F2817390740F4EA81FB81E20FA7
:10375000F31F10822F5F3F4FEECF0E94A52A9D835B
:103760008C83892B21F488E891E00E94043390E057
:1037700080E0488159819A01220F331F240F351FA1
:103780008217930738F4EC81FD81E80FF91F10824E
:103790000196EFCFD093AF04C093AE04EBE9F4E011
:1037A00081E1DF011D928A95E9F780E48093950419
:1037B00086EB93E09093970480939604DF91CF91EA
:1037C0000895CF93DF93CDB7DEB7E8970FB6F8949F
:1037D000DEBF0FBECDBF789484B5826084BD84B552
:1037E000816084BD85B5826085BD85B5816085BDFC
:1037F00080916E00816080936E00109281008091B4
:10380000810082608093810080918100816080933B
:103810008100809180008160809380008091B10060
:1038200084608093B1008091B00081608093B0008B
:1038300080917A00846080937A0080917A0082601F
:1038400080937A0080917A00816080937A008091E1
:103850007A00806880937A001092C100E091290379
:10386000F0912A0312E01083E0912503F0912603E2
:103870001082E0912703F091280380E18083109269
:103880003103E0912D03F0912E0386E08083E091D7
:103890002B03F0912C03808180618083E0912B03C6
:1038A000F0912C03808188608083E0912B03F0915C
:1038B0002C03808180688083E0912B03F0912C039E
:1038C00080818F7D808385E090E0A0E0B0E08093F0
:1038D0001D0390931E03A0931F03B0932003109227
:1038E0009E0210929D021092B9021092B8020E949C
:1038F00002048FE491E090935E0280935D0280E584
:1039000091E090935C0280935B0288E08093B80022
:103910008BE60E94D809F8941092800089E0809389
:10392000810080E293E09093890080938800109258
:1039300085001092840010936F0078941092C20357
:103940001092C7031092C6038091C30360E00E94E7
:10395000020364E070E082EB94E00E947D1389E54D
:1039600091E00E944402A7E8EA2EA2E0FA2E00E1CC
:1039700010E0C8010E94920CD7018D937D010F5F6A
:103980001F4F00321105A9F710929E0210929D025E
:103990001092B9021092B8020E9402048FE491E0E2
:1039A00090935E0280935D0280E591E090935C02CB
:1039B00080935B0240E860E085E994E00E940007A4
:1039C0006AE070E080E090E00E946A0340E050E02E
:1039D0006AE774E485E994E00E94B40880E498E71B
:1039E000ADE7B1E08093980490939904A0939A0472
:1039F000B0939B0483E191E00E94250D092E000CF9
:103A0000AA0BBB0B80935F0290936002A0936102AC
:103A1000B0936202885D9945A109B1098539914148
:103A2000A105B10560F088EA91E6A0E0B0E08093DE
:103A30005F0290936002A0936102B0936202609172
:103A40005F027091600280916102909162020E9417
:103A50000C2D20E030E04AE754E40E944B2F6B012C
:103A60007C014B015C01AC019B010E948F308823DB
:103A700009F44AC084EA91E00E94570985E591E083
:103A80000E94CA0920915F02309160024091610258
:103A900050916202A8EEB3E00E945E2E6B017C01A1
:103AA00040E050E060E773E485E994E00E94B408E8
:103AB000C0929E04D0929F04E092A004F092A104D0
:103AC000C0929804D0929904E0929A04F0929B04D8
:103AD0000E946E0787E691E00E94CA0990E080E0AC
:103AE0008C010F5F1F4F805C9E4F0E94920C080F4D
:103AF000111DC801805C9E4F0E94920C8E3409F407
:103B000093C0C8010496ECCF26013701E89477F8FA
:103B10002FEF3FEF4FE75FE7C301B2010E948F3005
:103B200081110DC02FEF3FEF4FE75FE7C301B201F7
:103B30000E94052D18161CF488EA91E09DCF2FEF06
:103B40003FEF4FE75FE4C701B6010E94323018161D
:103B50001CF48CEA91E090CF2FEF3FEF4FE75FEC42
:103B6000C701B6010E94052D87FDF3CF20E030E0AC
:103B7000A901C701B6010E94052D87FF09C08DE28A
:103B80000E943F0246015701B7FAB094B7F8B094CB
:103B90002AE037ED43EA5BE3C501B4010E94DA2E67
:103BA0004B015C010E94C42F6B017C010E940A2D15
:103BB0009B01AC01C501B4010E94D92E4B015C01EF
:103BC0004AE0C701B6010E9464098EE20E943F02EA
:103BD00020E030E040E251E4C501B4010E946B2DC9
:103BE0004B015C010E94C42F6B01F12CE12C4AE0D7
:103BF000C701B6010E946409C701B6010E940A2DDF
:103C00009B01AC01C501B4010E94D92E20E030E037
:103C100040E251E40E946B2D0E94C42F90E080E0AE
:103C20004AE00E9464092ACF68E071E0C8018E5B17
:103C30009E4F0E945B1380917E0290917F02899635
:103C400090937F0280937E0280E10E943303BC0147
:103C5000990F880B990B611571058105910511F07C
:103C60000E94652C8FEF93E00E94041360ED77E0D3
:103C700080E090E00E946A0381E891E00E94CA0916
:103C80008AE791E00E94CA0983E791E00E94CA098D
:103C90008091340190913501A09136018BAB9CABA2
:103CA000ADAB8091370190913801A09139018EAB75
:103CB0009FABA8AF0E949D0320E137E240E050E0B7
:103CC0000E94A82E8091000190910101092E000C04
:103CD000AA0BBB0B82179307A407B5070CF046C0CD
:103CE0007901309301012093000185E10E943303A3
:103CF0008C010A3892E01907ACF58091630290912B
:103D000064020817190721F0A2E0EA16F10454F53D
:103D10008CE891E00E944402C80163E670E00E94D2
:103D2000DD316B01072E000CEE08FF0877FF94C011
:103D30008DE20E943F0266277727CB016C197D092F
:103D40008E099F094AE00E94640986E50E94D8090D
:103D500081ED93E00E94041360ED77E080E090E055
:103D60000E946A03109364020093630280918402AC
:103D70008111ADC08AEC93E090937302809372023C
:103D80008091C6039091C70390937502809374024B
:103D90008091940490E090937702809376028091D2
:103DA000C203833009F093C08091CC039091CD037E
:103DB000875891098E35910508F083C08091C6031C
:103DC0009091C703049709F04BC08091CE03909166
:103DD000CF038097479708F043C08091D00390911C
:103DE000D10309970997E0F51092710210927002C1
:103DF0008FEF9FEFDC0180936A0290936B02A09398
:103E00006C02B0936D0283E090E090936702809320
:103E1000660280916A0290916B02A0916C02B0914F
:103E20006D02892F9A2FAB2FBB278A3509F475C2F3
:103E300008F02CC2823209F458C208F011C2803155
:103E400009F468C208F0BAC16FEC71E0823009F47D
:103E5000BDC165EE71E06CC24AE0C701B60173CF27
:103E60008091C6039091C7038434910550F18091ED
:103E7000CE039091CF03815491098F9710F590E074
:103E800080E040E050E0BA01FC01E053FC4F2081AB
:103E90003181295031092930310598F4FC01EE5265
:103EA000FC4F20813181275131092231310508F43D
:103EB00067C120813181265031092730310508F44E
:103EC00078C11092C2031092C7031092C60389E111
:103ED00093E00E94B00118161906A4F581E08093C2
:103EE000840282E08093990289E193E00E948E012E
:103EF000182F80939C0261E070E080E090E00E94C7
:103F00006A031B3409F0BFC2E090B804F090B90412
:103F100010E000E089E193E00E94B001892B51F0AC
:103F200089E193E00E948E01F701E00FF11F808389
:103F30000F5F1F4FF8013197EE0DFF1D80818E3707
:103F400049F710820E949D03F0909902FF2009F426
:103F5000E7C20E949D0368577C4E8F4F9F4F60932E
:103F60008002709381028093820290938302609119
:103F70009902662309F490C0F0909C026530C0F469
:103F8000B2E6FB16A9F08CE88F0D823088F070E065
:103F9000615F7F4F072E000C880B990B0E940C2D40
:103FA00010E000E020E030E040EA50E40E94FB092D
:103FB000809198028356823050F4E3E6FE1639F081
:103FC00088ED9BE00E949F0887E40E94D8098091B9
:103FD0009C02803751F080919702811106C081E0E8
:103FE0008093970280E70E94D80980919C028936CD
:103FF00009F4D9C70CF0CEC68D3409F45EC60CF0B6
:1040000093C68B3311F40C9476290CF050C68A3386
:1040100011F40C947C2980919C028B3611F00C9445
:104020007F299091A702191614F40C94832900910A
:10403000BC041091BD046BEE71E0C8010E94E63231
:10404000F0909C02892BF1F08F2D8B7F8934D1F079
:104050008091BA049091BB04009711F00E94412B0B
:1040600081E090E00E94A52AF80101900020E9F784
:10407000E01BDC01EC939093BB048093BA04B8017D
:104080000E94EF3210929902F09298028F2D877F52
:10409000833611F010929C0280919C028B3611F0B5
:1040A0000C94242A1091A70217FD02C00C94A92990
:1040B0008091B402DD24DA94D80E823008F4D12C39
:1040C00010E08EECC82E92E3B92E212F30E08091C3
:1040D000A702082E000C990B97FF03C091958195BC
:1040E00091092817390714F00C94202AE090B602A1
:1040F000F090B7028091AC02189FE00CF11C1124E3
:10410000F7016089062E000C770B880B990B0E9433
:104110000C2D20E030E040E85EE30E946B2D9B0117
:10412000AC0100E06091B102C7010E94990F80913B
:10413000AC02E091B602F091B702189FE00DF11DBC
:1041400011246189161614F00C94A329FB2D6F021B
:10415000B0011124072E000C880B990B0E946A03F2
:10416000DD2061F0112351F08091B302181306C0D5
:104170001091B20211501D140CF4DA941F5FA5CFF8
:10418000440F551F661F771F4160049680389105C4
:1041900009F07ACE80E290E09093710280937002F1
:1041A00040936A0250936B0260936C0270936D02AD
:1041B0002ACE440F551F661F771FE7CF823109F4BF
:1041C000B5C067EB71E0883109F043CECE0181962E
:1041D0000E94851463EB71E0CE0181960E942A0C47
:1041E000882309F4AAC065EB71E082EB94E00E9499
:1041F0000E1462EB74E0CE0187960E94F213CE019A
:1042000081960E94510C65EE71E0CE0187960E9466
:104210002A0C81111AC00091BC041091BD046FA139
:1042200078A5C8010E94EF32D8010D900020E9F76F
:10423000CD0102978017910709F023C1F801808111
:1042400080939C0281E0809399021092C2031092A5
:10425000C7031092C603CE0187960E94510C37CE39
:10426000823409F45DC048F4803309F44DC06DEA2E
:1042700071E0883309F4AACFECCD8A3409F453C035
:1042800067E971E0823509F4A1CFE3CD823A39F1D3
:1042900098F48A37E1F140F4823621F164EC71E060
:1042A000883609F493CFD5CD803959F161EC71E0AE
:1042B000883909F48BCFCDCD823CD1F040F4883AD7
:1042C000E9F06EEB71E0803B09F480CFC2CD803E17
:1042D00091F069ED71E0823E09F478CFBACD6DEDD1
:1042E00071E074CF6BED71E071CF67ED71E06ECF6F
:1042F0006DEC71E06BCF6BEC71E068CF69EC71E055
:1043000065CF67EC71E062CF6BEB71E05FCF63EB81
:1043100071E05CCF60EB71E059CF69EA71E056CF94
:1043200063EA71E053CF6CE971E050CF60EB71E06C
:10433000CE0181960E9444144DCF68EB71E0CE010E
:1043400081960E942A0C811111C06AEB71E0CE01A6
:1043500081960E942A0C811109C06CEB71E0CE019C
:1043600081960E942A0C882309F442C08DA19EA147
:10437000892B21F0E9A1FAA1309721F4109265026E
:10438000E5E6F2E0108110930201163471F465EB5A
:1043900071E082EB94E00E942A0C882331F065E8FA
:1043A00071E082EB94E00E940E1462EB74E0CE01A7
:1043B00001960E94F2131FA318A641E050E0BE012F
:1043C000695D7F4FCE0101960E94A513811104C043
:1043D000CE0101960E943F0CBE016F5F7F4FCE0160
:1043E00087960E94F213CE0101960E94510C07CFCE
:1043F0006EEB71E0CE0181960E942A0C81112EC0D5
:1044000061EC71E0CE0181960E942A0C811126C0D8
:1044100064EC71E0CE0181960E942A0C81111EC0CD
:1044200065E871E0CE0181960E942A0C811116C0C8
:1044300067EC71E0CE0181960E942A0C81110EC0BA
:1044400018A61FA21AA619A61CA61BA6BE016F5D60
:104450007F4FCE0187960E94590CD1CE69A17AA1D7
:104460006115710549F04DA15EA182EB94E00E94B7
:10447000D1131091020199CF82EB94E00E943F0C7E
:10448000F8CF8BE6DDCE89E193E00E94B0011816EB
:1044900019060CF057CD65EE71E0CE0181960E94B1
:1044A0004414133429F0812F8B7F6AE0893409F496
:1044B0006EE7CE0101960E945514BE016F5F7F4FDB
:1044C000CE0181960E94590CCE0101960E94510C9A
:1044D0002DA13EA130938602209385021B3631F038
:1044E0008091B8049091B904143721F48091BC04F0
:1044F0009091BD0449A15AA1DC01FA01BF01641BDE
:10450000750B621773071CF461916D93F7CF820FDF
:10451000931FDC011C92CE0181960E94510C12CD9A
:1045200020919C02233609F4B7CD009180021091AE
:1045300081022091820230918302601B710B820BF9
:10454000930B16161706180619060CF0A5CD109237
:1045500084020E949D0300917A0210917B022091B7
:104560007C0230917D02AB01BC01401B510B620B00
:10457000730B8091030190910401092E000CAA0B8A
:10458000BB0B84179507A607B70708F0B6C00E94B3
:104590009D0360937A0270937B0280937C029093D8
:1045A0007D021092040110920301E8EEF3E0F09313
:1045B0000601E093050161E08091AC040E940203D2
:1045C00060E08091AC040E94A80283E090E0019733
:1045D000F1F761E08091AC040E94A8028BE490E0C6
:1045E0000197F1F760E08091AC040E94A80260E0BE
:1045F0008091AC040E9402038091AC0490E0FC0125
:10460000EC5DFD4F6491FC01E05FFD4FE491F0E053
:10461000EE0FFF1FE152FE4F8591949100E412E4EA
:104620002FE030E0462F0E94AC1A6115710581051C
:10463000910529F06F5F7F4F8F4F9F4F9F708B01C8
:104640009C0102501109210931090E351A4E21052C
:10465000310518F50E940A2D20E030E048E652E4CA
:104660000E944B2F0E94C42F7093B1046093B0043A
:104670008AEC91E00E9457096091B0047091B104F6
:1046800090E080E04AE00E94640988ED91E00E9499
:1046900057098CE791E00E9457090091B0041091EE
:1046A000B1041093790200937802003822E01207D7
:1046B00021F10D331105A4F020E04FEF5FEF6FEF14
:1046C00070E090E080E00E94881588EE93E090937F
:1046D00004018093030190930601809305010DC0AE
:1046E000093211050CF452C021E040E05FEF6FEF9A
:1046F00070E090E080E00E94881580910801882396
:1047000009F435CC60919902611136CC0E949D0369
:10471000AB01BC018091800290918102A091820244
:10472000B09183028A019B01081B190B2A0B3B0BDA
:104730008091050190910601092E000CAA0BBB0B7C
:1047400080179107A207B3070CF0A6CC4093800214
:104750005093810260938202709383020E94162C10
:1047600020917E0230917F02032E000C440B550BEA
:104770000E943F2E1FEF77FD92C11F5FE12FF0E0F7
:10478000EE5AFE4F8081681B7109F5CF023011058A
:10479000BCF48BE680939C0265EB71E08091BC04D5
:1047A0009091BD040E94EF3286E08093990280EDE3
:1047B00097E0909304018093030188E893E18BCF05
:1047C000043011050CF08BC022E040E050E06FEFA8
:1047D00070E090E080E00E9488150E94162C2B016A
:1047E0003C010E94162C4B015C0110917802110FC4
:1047F0000E94162C6B017C01C301B2012AE030E05B
:1048000040E050E00E943F2E0CED060FC501B401C0
:104810002AE030E040E050E00E943F2E82EDB82ECA
:10482000B60EC701B60123E030E040E050E00E9440
:104830003F2E862F202F4B2D612F8F5F0E949907CF
:1048400089E480939C021A82198281E08B8382E042
:104850008D83109109010E94162C1A5024E1C22E5A
:10486000D12CE12CF12CA70196010E943F2E160FAE
:104870001A8310910B010E94162CA70196010E9429
:104880003F2E1A50610F6C8310910D010E94162C5F
:1048900020E530E040E050E00E943F2E1852610FCA
:1048A0006E8386E090E0909386028093850260910B
:1048B000B8047091B904CE010196DB019B012A5F17
:1048C0003F4FFC014191CF014D93A217B307C9F7A8
:1048D000DB0116961C9286E0809399020ECF06307B
:1048E0001105A4F440E050E06FEF70E090E080E04C
:1048F0000E943D158BE680939C026BED71E08091E8
:10490000BC049091BD040E94EF32E5CF065011091E
:10491000109379020093780270E060E0073011058F
:104920002CF0C80167E070E00E94DD31660F771F50
:10493000660F771FFB01E65CFE4F4081518162816B
:10494000738190E080E00E943D158CE480939C028E
:10495000FE0135968CE1DF011D928A95E9F7809181
:10496000090190910A01880F991F63E070E00E948D
:10497000DD31C80117FD019695958795681B790B68
:104980007A83698380910B0190910C01880F991FA4
:1049900063E070E00E94DD316A507109C8019595AD
:1049A0008795680F791F7C836B83C801880F991FD7
:1049B000080F191F025311090E94162C22E330E040
:1049C00040E050E00E943F2E161617061806190602
:1049D0000CF460C00E94162C22E030E040E050E071
:1049E0000E943F2E6150710981099109069FC00103
:1049F000079F900D169F900D11249E838D8320910B
:104A0000780230917902C90137FD01969595879515
:104A10000F969A8B898B9C8B8B8BC901CC979E8B25
:104A20008D8B988F8F8B81E490E0821B930B9A8FF4
:104A3000898F9C8F8B8F8AE090E0821B930B9E8FD7
:104A40008D8F98A38F8F80E190E090938602809362
:104A50008502E091B804F091B904BF019E012F5F77
:104A60003F4FD9018D919D919D018F379105ACF4F8
:104A70008038BFEF9B0714F480E89FEFDB018D9334
:104A8000BD01F394B0E1FB12ECCF108A86E0809375
:104A9000990293CE61E070E0A9CF8FE7EFCF1111BB
:104AA000E5C089E48FA38DE488A78BA99CA9ADA953
:104AB00089A39AA3ABA38EA99FA9A8AD89839A8342
:104AC000AB830E94162C22E030E040E050E00E94D0
:104AD0003F2E6C0F7D1FDB0197968C9180939C027B
:104AE00083E090E090938602809385028091850216
:104AF00090918602212E312C281639060CF0A4C084
:104B00000E94162C23E030E040E050E00E943F2E4F
:104B1000E62EF12C220C331CE1E2F0E0EC0FFD1F3D
:104B2000EE0DFF1DA080E091B804F091B904E20DF4
:104B3000F31DA082EA2DEE0FFF0BFEA7EDA7E75FA6
:104B4000FE4FFAABE9AB80809180092C000CAA08DB
:104B5000BB080E94162CE1E0F0E0EC0FFD1FEE0D0B
:104B6000FF1D0081C02ED12CF12CE12C0695402E8A
:104B7000512C712C612CA70196010E943F2E860EAC
:104B8000971EA81EB91E84189508A608B708F7EA4C
:104B90008F16FFEF9F06AF06BF0654F58DA59EA5A5
:104BA000875F9E4F9EA78DA7DC018D909C90092C5E
:104BB000000CAA08BB080E94162CA70196010E94AF
:104BC0003F2E680D791D8A1D9B1D64197509860984
:104BD0009709673A7F4F8F4F9F4F4CF506EAE09158
:104BE000B804F091B904E20DF31D01831F5F7ECF7D
:104BF000E9A9FAA980809180092C000CAA08BB08B9
:104C00000E94162CA70196010E943F2E860E971E29
:104C1000A81EB91E84189508A608B708FAE58F16CD
:104C20009104A104B1040CF4B9CF0AE5D8CFADA525
:104C3000BEA5BC900E94162CB01A0B2DA7019601A0
:104C40000E943F2E060FCBCF880F991F90938602AC
:104C5000809385022091B8043091B904820F931F8C
:104C6000FC01108284E68093990281C9E12FF0E073
:104C7000EE0FFF1FE751FE4F659174918091B804CC
:104C80009091B9040E948C2C8091B8049091B90441
:104C9000BC01DB012D91BD0120939C022B3621F438
:104CA0008091BC049091BD040E94EF32DBCF83342D
:104CB00009F447C1893409F0AEC9E9E0F1E0DE0149
:104CC00011967D01819191918D939D9391E0E932AF
:104CD000F907C1F710E000E020919C028091850265
:104CE00090918602081719070CF0DCC2A091B80455
:104CF000B091B904A00FB11FEC91EE0FFF0BEE0DB8
:104D0000FF1D11968C91082E000C990B91838083C6
:104D10002D3439F440E050E060E070E4C7010E94B7
:104D20004E0E0E5F1F4FD8CF8436FCF482360CF047
:104D30003AC1833509F437C1813609F06CC985EF72
:104D400091E00E94CA0957E8E52E52E0F52E00E1F5
:104D500010E0C8010E94920CD7018D937D010F5F76
:104D60001F4F00321105A9F756C9843609F053C9FF
:104D70000091BC041091BD0466EE71E0C8010E9470
:104D8000EF32C8010E9406110E946E0787E60E945A
:104D9000D80941C9803709F48DC084F48B3609F4F1
:104DA0008EC20CF498C08D3609F4FDC08F3609F020
:104DB00032C986EC93E00E9404132DC986370CF0AB
:104DC00062C084370CF0EFC0823709F46AC08337C1
:104DD00009F021C98DEF91E00E94CA0967E8862E8B
:104DE00062E0962E70E4E72EF12C00E110E0F40171
:104DF000D1904F01C8010E94292ED81621F06D2DA7
:104E0000C8010E94312EC7010E94250D6C01C80106
:104E100080960E94920CB82EF40131976081062E84
:104E2000000C770B880B990B0E940C2D2B013C0179
:104E30006B2DBB0C770B880B990B0E940C2D9B01E3
:104E4000AC01C301B2010E946B2D2B013C01B601E4
:104E5000DD0C880B990B0E940C2D9B01AC01C3014A
:104E6000B2010E94DA2E0E94BD2FC70180960E94D7
:104E70005B130F5F1F4FF2E0EF0EF11C00321105C4
:104E800009F0B5CFC8C88A3709F0C5C890910801A4
:104E900021E092279093080191118AE580939C026A
:104EA000BAC8909107019195909307011916B4F72C
:104EB00082E5F4CF9091970221E0911120E02093B8
:104EC0009702911180E580939C02992309F4A3C86D
:104ED0000E946E07A0C80E94A80965EE71E0CE018D
:104EE00081960E94441409E011E089E2E82E81E0F5
:104EF000F82ED8016D917D918D01CE0101960E9411
:104F000018144D815E8169817A81CE0181960E945B
:104F1000A513CE0101960E94510C42E050E063EED1
:104F200071E0CE0181960E94A513E016F10609F703
:104F3000CE0181960E94E609CE0181960E94510C15
:104F40006AC8E091B804F091B9044081042E000CC5
:104F5000550B660B770BBA01552744278181082E24
:104F6000000C990BAA0BBB0BBA2FA92F982F8827DF
:104F7000480F591F6A1F7B1F8281082E000C990B56
:104F8000AA0BBB0B480F591F6A1F7B1F248183810B
:104F9000082E000C990B2F3F19F40E943D153BC8B9
:104FA0000E94881538C8E9E0F1E0DE01119629E297
:104FB00031E0419151914D935D932E173F07C9F711
:104FC000843709F0E0C08091BC049091BD046FED7E
:104FD00071E00E949C2C1C012114310409F4D8C0FA
:104FE000C1010E946E2C8C0162EE71E090E080E0C5
:104FF0000E949C2C1C01F12CE12CBB24B394009743
:1050000061F00E946E2C7C0162EE71E090E080E025
:105010000E949C2C1C0142E0B42EF801EE0FFF1FF1
:1050200081E090E08C0F9D1FE80FF91FF182E08274
:1050300080919C02833609F0B1C08091980283363A
:1050400081F088E39CE00E949F08C090BC04D0904F
:10505000BD046FE771E0C6010E94EF32C6010E94F5
:105060000611D801A957BD4F6D01B2E0BB1202C0B5
:10507000F601E082C8018096880F991F0E94250DD5
:105080007C01C8019927C0960E94920C182FD60166
:105090006C91062E000C770B880B990B0E940C2D3F
:1050A0004B015C01612F110F770B880B990B0E944C
:1050B0000C2D9B01AC01C501B4010E946B2D4B016D
:1050C0005C01B701FF0C880B990B0E940C2D9B0112
:1050D000AC01C501B4010E94DA2E0E94BD2F072E3B
:1050E000000C880B990B0E940C2DAB01BC01802F8A
:1050F0000E94390D0E94A80965EE71E0CE018796E5
:105100000E94441407E812E0F80161918F01062E15
:10511000000C770BCE0181960E9418144DA15EA160
:1051200069A17AA1CE0187960E94A513CE0181962E
:105130000E94510C42E050E063EE71E0CE01879690
:105140000E94A51387E992E080179107E9F6CE0146
:1051500087960E94E609CE0187960E94510C211481
:10516000310409F039CF80919C02893611F00C94FA
:105170000B2040E050E060E070E4CE0101960E9418
:105180004E0E0C940B208091B8049091B9041FCF5F
:10519000F12CE12C10E000E0B12C3FCF8D3649F42A
:1051A00040E050E060E070E4CE0101960E944E0EB7
:1051B000D6CF833541F4C80199270E94920CB701DC
:1051C0000E945308CCCF843751F2853709F049C08B
:1051D0000E94162C2B013C010E94162C4B015C01F5
:1051E0000E94162C6B017C010E94162C6DA77EA7D5
:1051F0008FA798ABC301B2012AE030E040E050E055
:105200000E943F2E1CED160FC501B4012AE030E0CC
:1052100040E050E00E943F2E02ED060FC701B601AC
:1052200024E030E040E050E00E943F2EDC01CB0162
:105230000296A11DB11DF82EFF0CFF0CF80E6DA5F6
:105240007EA58FA598A923E030E040E050E00E94C1
:105250003F2E862F212F402F6F2D8F5F0E949907A1
:105260007ECF823609F07BCFE114F10409F477CFC9
:1052700088EE93E0B7010E94DD31072E000C880B09
:10528000990B0E940C2D6B017C01B801110F880B4A
:10529000990B0E940C2D02E310E0A70196010E94D9
:1052A000FB095DCF293411F00C940B2089E40E9496
:1052B000D80940E050E060E870E4C70160CF009199
:1052C000BC041091BD04B8018091BA049091BB0454
:1052D0000E94E632892B29F48091A70282300CF0DB
:1052E0002DC1C8010E9406110C940B2088ED9BE093
:1052F0000E949F080C940B2088E39CE0F9CF89342E
:1053000021F08C3411F00E94D80910919C02812F59
:10531000012E000C990B0E94C832909198029B3686
:1053200011F00C941720873649F01A3639F01B7F9C
:10533000103721F0863711F00C9417208BE68093FC
:105340009C020C9417202C2D6202B00111240C94A5
:10535000AA208091A302803108F4C8C020919A024B
:1053600030919B021092A30280919702820F932F9B
:10537000911D212F012E000C330B821793070CF087
:10538000B1C090939B0280939A020091A302209156
:10539000B502C0909A02D0909B02E02EF12C021729
:1053A00008F0ADC012300CF4AAC0812C912C54012D
:1053B000013059F06091A602062E000C770B880B85
:1053C000990B0E940C2D4B015C0142E0E40EF11C94
:1053D000EC9CB001ED9C700DFC9C700D1124072E0F
:1053E000000C880B990B0E940C2D2BED3FE049E43B
:1053F00050E40E946B2D6B017C01612F110F770B24
:10540000880B990B0E940C2D9B01AC01C701B601C2
:105410000E944B2F0E94873020E030E040E251E4B0
:105420000E946B2DA50194010E94DA2EAB01BC01F4
:10543000802F0E94A80D8091A3028F5F8093A3020A
:1054400083E49DE00197F1F78091A70287FF3AC0BE
:105450000091BC041091BD0465EE71E0C8010E948A
:10546000EF32E091B602F091B7028091A702082EC8
:10547000000C990B97FF03C09195819591090197B5
:105480002091AC02289FD001299FB00D1124AE0FAE
:10549000BF1FCF0140962D912193E817F907D9F747
:1054A00081E08093A70210929B0210929A02F80169
:1054B0008081882319F0C8010E94061180919C0206
:1054C0000E94D80980E090E0892B11F40C945A1EB8
:1054D0000E94BC01882311F40C945A1E0E94000003
:1054E0000C94511E10929B0210929A028091A3027A
:1054F000843009F04ACF88E08093A30246CF3091F0
:10550000AC023C9DC0013D9D900D1124E80EF91E9A
:10551000E21AF1088091B6029091B702E80EF91EE6
:105520006091B102D7012C912603B0011124072EFE
:10553000000C880B990B0E940C2D78CF8BE60C94F5
:10554000112082EB94E00C94510C0F931F93CF9396
:10555000DF938230910510F482E090E0E091C20484
:10556000F091C30430E020E0B0E0A0E0309799F47F
:105570002115310509F44AC0281B390B24303105A7
:10558000D8F58A819B816115710589F1FB019383AF
:105590008283FE0111C0408151810281138148172D
:1055A0005907E0F04817590799F4109761F01296DF
:1055B0000C93129713961C933296CF01DF91CF91E3
:1055C0001F910F9108950093C2041093C304F4CF68
:1055D0002115310551F04217530738F0A901DB01BD
:1055E0009A01BD01DF01F801C1CFEF01F9CF90931E
:1055F000C3048093C204CDCFFE01E20FF31F819359
:1056000091932250310939832883D7CF2091C00448
:105610003091C104232B41F420912C0130912D01B4
:105620003093C1042093C00420912A0130912B01B2
:105630002115310541F42DB73EB740912E0150910F
:105640002F01241B350BE091C004F091C104E21737
:10565000F307A0F42E1B3F0B2817390778F0AC0195
:105660004E5F5F4F2417350748F04E0F5F1F509372
:10567000C1044093C004819391939FCFF0E0E0E098
:105680009CCFCF93DF930097E9F0FC013297138210
:105690001282A091C204B091C304ED0130E020E079
:1056A0001097A1F420813181820F931F2091C004B3
:1056B0003091C1042817390709F061C0F093C10483
:1056C000E093C004DF91CF910895EA01CE17DF0780
:1056D000E8F54A815B819E0141155105B1F7E90169
:1056E000FB83EA8349915991C40FD51FEC17FD073D
:1056F00061F4808191810296840F951FE90199835D
:105700008883828193819B838A83F0E0E0E0129614
:105710008D919C9113970097B9F52D913C9111971C
:10572000CD010296820F931F2091C0043091C104D5
:105730002817390739F6309751F51092C3041092A3
:10574000C204B093C104A093C004BCCFD383C2836E
:1057500040815181840F951FC817D90761F44E5FAE
:105760005F4F88819981480F591F518340838A81F7
:105770009B81938382832115310509F0B0CFF0938B
:10578000C304E093C2049ECFFD01DC01C0CF1382AD
:105790001282D7CF8F929F92AF92BF92CF92DF9219
:1057A000EF92FF92CF93DF93EC01688179818A8138
:1057B0009B81611571058105910521F464E279ED04
:1057C0008BE597E02DE133EF41E050E00E943F2E62
:1057D00049015A019B01AC01A7EAB1E40E945E2E87
:1057E0006B017C01ACEEB4EFA50194010E946C2E1C
:1057F000C60ED71EE81EF91EF7FE06C081E0C81AC5
:10580000D108E10880E8F80AC882D982EA82FB82DE
:10581000C701B6019F77DF91CF91FF90EF90DF90A6
:10582000CF90BF90AF909F908F9008958F929F924E
:10583000AF92BF92CF92DF92EF92FF9260913001D0
:1058400070913101809132019091330161157105A0
:105850008105910521F464E279ED8BE597E02DE176
:1058600033EF41E050E00E943F2E49015A019B0175
:10587000AC01A7EAB1E40E945E2E6B017C01ACEEA4
:10588000B4EFA50194010E946C2EC60ED71EE81E2F
:10589000F91EF7FE06C081E0C81AD108E10880E8C9
:1058A000F80AC0923001D0923101E0923201F092B8
:1058B0003301C701B6019F77FF90EF90DF90CF9043
:1058C000BF90AF909F908F90089560933001709338
:1058D000310180933201909333010895FC018827B0
:1058E0009927E89421912032E9F3293010F02E30E5
:1058F000C8F32B3241F02D3239F4689404C00E9471
:10590000D32C820F911D219120532A30C0F31EF415
:10591000909581959F4F0895FB01DC0105900D92B4
:105920000020E1F70895FC0105900020E9F780953B
:1059300090958E0F9F1F08954EEB54E00E94A12C6E
:105940000895FA01A191B081009719F41097E1F040
:10595000CD01DC01CD010D90002011F4C00113C078
:10596000FB012191222319F02015D9F7F3CFFB0178
:105970002191201519F41E92119606C02223C1F719
:105980000D900020A1F7D001FA01A193B0830895F2
:10599000BB274A3031F4992322F4BDE290958195DA
:1059A0009F4F0C94DC2C7AE0979F902D879F802D41
:1059B000910D11240895BB27FB015527AA27880FB5
:1059C000991FAA1FA41710F0A41B83955051B9F773
:1059D000A05DAA3308F0A95DA193009779F7B111F2
:1059E000B1931192CB010C94F52CDC01FC01672FD3
:1059F00071917723E1F7329704C07C916D937083A6
:105A00006291AE17BF07C8F308950E94472D08F4AE
:105A100081E00895E89409C097FB3EF49095809545
:105A2000709561957F4F8F4F9F4F9923A9F0F92F64
:105A300096E9BB279395F695879577956795B795E2
:105A4000F111F8CFFAF4BB0F11F460FF1BC06F5FC8
:105A50007F4F8F4F9F4F16C0882311F096E911C0DA
:105A6000772321F09EE8872F762F05C0662371F0FB
:105A700096E8862F70E060E02AF09A95660F771F0F
:105A8000881FDAF7880F9695879597F90895990FEB
:105A90000008550FAA0BE0E8FEEF16161706E807F8
:105AA000F907C0F012161306E407F50798F0621B19
:105AB000730B840B950B39F40A2661F0232B242BEE
:105AC000252B21F408950A2609F4A140A6958FEF0D
:105AD000811D811D08950E947E2D0C94EF2D0E9442
