:100000000C948F130C94B7130C94B7130C94B71370
:100010000C94B7130C94B7130C94B7130C944B2493
:100020000C94B7130C94B7130C94B7130C94682664
:100030000C94B7130C94B7130C94B7130C94B71318
:100040000C94FF240C94B7130C94CD240C94A72487
:100050000C94B7130C94B7130C94B7130C94B713F8
:100060000C9449250C94B71307634236B79BD8A765
:100070001A39685618AEBAAB558C1D3CB7CC5763CD
:10008000BD6DEDFD753EF6177231BF000000803F7B
:1000900008000000BE922449123EABAAAA2ABECD97
:1000A000CCCC4C3E00000080BEABAAAAAA3E000009
:1000B0000000BF000000803F000000000008417801
:1000C000D3BB4387D1133D190E3CC3BD4282AD2B38
:1000D0003E68EC8276BED98FE1A93E4C80EFFFBE30
:1000E00001C4FF7F3F0000000000FE00000100008F
:1000F000001E1E1E1E1E1E1E1E1E1E1E1E1E1E1E3E
:100100001E200000004B4B4B4B4B4B4B4B4B4B4B78
:100110004BC9C9C9C920000000E900000100000066
:10012000000000000000000019281E2828141E14DA
:10013000080000000000000000000000192323FB5D
:100140002819195A080000000000000000000000F3
:100150002D1923FBBA23195A0800000000000000E3
:1001600000000000BA1923FB2D23195A08000000D3
:100170000000000000000000CE191E1E46231E1EB7
:10018000080000000000000000000000CE2D191E35
:100190004600231E080000000000000000000000D0
:1001A000D83C141946B532230800000000000000B6
:1001B00000000000D3C423233223322308000000B0
:1001C0000000000000000000D3D823233241322376
:1001D0000800000000000000000000002828323263
:1001E0003C3C5A5A080000000000000000000000DB
:1001F0002832410F3C1E284B080000000000000080
:1002000000000000283C500A3C143C5A0800000042
:100210000000000000000000003C500F3C1E415058
:10022000080000000000000000000000F13C502326
:1002300032464137080000000000000000000000C6
:1002400000377D281E37413C0800000000000000F8
:1002500000000000003773281E37AB3C0800000088
:10026000000000000000000005373C282337C43C94
:1002700008000000000000000000000005463C23CC
:1002800023E2EC4B0800000000000000000000002A
:1002900005F13C232323EC4B080000000000000084
:1002A0000000000041F6505A231EC45A0800000006
:1002B000000000000000000041F6467D2D1ED35ACC
:1002C00008000000000000000000000041F6463C6D
:1002D0002D1ED3D308000000000000000000000025
:1002E0001E1E1E1E1E1E1E1E08000000FA0000011B
:1002F000000503E2B0D3001EE20AE22614E22B1945
:100300000A411101000000E2B0D300E21EE20A142B
:10031000262BE20A19114101000000E2B0D3001EB1
:10032000E2E21E1E28281E1E0A0A1E01000000E22C
:10033000B0D300000000002D2D2D2D1E1E1E1E010D
:10034000000000E2B0D300E21E1EE2281E1E280AB2
:100350001E1E0A01000000E2B0D300000000000FE2
:100360000F0F0F1E1E1E1E01000000FA00000200EB
:100370000400F10000000FF8F80F2001FE23E72F22
:100380002DE9200200000FD81600FEFE010103D067
:1003900033012A2E282A100100000FD81600FEFE75
:1003A0000101ACD0375A2AE43C2A300000000FD8B3
:1003B0001600FEFE0101ACB43C5A2A133C2A300060
:1003C00000000FD81600FEFE010123232323E4E4DE
:1003D000E4E41000000000000000000000000F0F27
:1003E0000F0F0F0F0F0F08000000FC0000020000AD
:1003F000000000000000000000A8D543642ADD2AA8
:100400002A200000000000000000000000ADA864E9
:100410003C2A2A2A3220000000F8ECF500FFFF00F9
:100420000012121212F2F2F2F208000000000000B4
:1004300000000000000F0F0F0F0F0F0F0F0800003C
:1004400000F30000010809030000000000000000A4
:100450001E1E1E1E1E1E1E1E080000000F00000095
:10046000000000001E232818320F0F290C00000086
:100470000F000000000000001E23291E320F0F1085
:100480000C0000001E000000000000001B23293C9F
:10049000320F142D0C0000000F00000000000000BF
:1004A0002D23213C19141C3C0C000000D30000003B
:1004B0000000000044204B64066CEE590804000064
:1004C000D30000000000000044504B6406F1EE59D8
:1004D000100000003A0000000000000044B74B6428
:1004E00006FBEE59100000003A000000000000007A
:1004F0004A832A64DE3CE83E0C020000080000004B
:10050000000000003ABD376E0A0BEF5004020000F5
:1005100008000000000000003A55376E0AFAEF505C
:1005200010000000EB0000000000000031225D53CD
:100530001533EF590C00000000000000000000001F
:100540001E1E1E1E1E1E1E1E08000000F6000001BC
:1005500007080300000000000000001E1E1E1E1EF3
:100560001E1E1E080000000F000000000000001EFC
:10057000232815320F0F290C0000000F0000000087
:100580000000001E23281E320F0F0E100000001E58
:10059000000000000000001B23283C320F142D1027
:1005A0000000000F000000000000002A23283C1972
:1005B00014143C0C0000000000000000000000309B
:1005C0002D4B3C1425143C0C000000F100000000F1
:1005D0000000003C3C46460F0F3C3C100000000071
:1005E000000000000000001E1E6E6E3C3C3C3C08FB
:1005F0000100001E000000000000004B465555CED3
:10060000CE3C3C1000000000000000000000001E76
:100610001E1E1E1E1E1E1E08000000FB0000010202
:1006200003031E1400000FF63CF628285A2D0A3C3E
:10063000462D060000002D1400000FF63CF63C3558
:10064000733CE2283215020A00001E1400000FF667
:100650003CF628285A2D0A32462D100000001E14A0
:1006600000000FF63CF62828672D0A32502D1000A6
:10067000000000000000000000001E1E1E1E1E1EC6
:100680001E1E08000000F80000010405020000D34F
:1006900000FBFB14142D2D69692D2DD3D308000008
:1006A0000000000000FBFB14141EB0690F2D50D396
:1006B00050080000002D000000000000001E06068B
:1006C00006C44F4F38100000002D0000000000004D
:1006D000002DB55A06C400C438081400002D0000CF
:1006E00000000000002DB55A19C400C42D1E0000E2
:1006F000002D000000000000002DB55A19C400C4F0
:100700001E1E0000002D000000000000002DB55A44
:1007100019C400C42D1014000000000000000000E7
:10072000001E1E1E1E1E1E1E1E08000000FC0000D5
:100730000101020200ECC400000000001E1E6E7DDC
:100740003C3CD8CE040100002800DD000000000081
:100750001EC46E7D3CF6E2D31000000041FBC400D5
:10076000000000001E0A6E7D3CC4E2D810000000AC
:1007700000000000000000001E1E1E1E1E1E1E1E89
:1007800008000000FC00000101020300ECC40000AE
:10079000000000231E78694B3CD8E20402000023CD
:1007A000FBC40000000000B51E7D5F284BD3E20AA9
:1007B0000000002800DD0000000000C41E7D5F3C3A
:1007C0004BD3E20A00000000000000000000001E01
:1007D0001E1E1E1E1E1E1E08000000FA0000010044
:1007E0000000B00000000000000016161E1E565645
:1007F0001E1E08000000B0000000000000003030A5
:100800001E1E66661E1E08000000B00000000000EC
:100810000000ECEC28282A2AF4F430000000B00094
:100820000000000000000C0CEAEAFDFD1F1F300074
:1008300000000AB0D300FDFD030346464646C9C981
:10084000C9C92000000000B0D300FDFD03031E1E37
:100850001E1E1E1E1E1E08000000FD0000010000DE
:1008600000E2B0D300FDFD030346464646C9C9C9B0
:10087000C905000000E2B0D300A6A603033C3CB0CB
:10088000B0BFBF46460500000000000000A6A6A6B7
:10089000A63C3CC1C1BCBC1E1E040A0000EA00000C
:1008A0000200000000000000000000000F0F0F0F0A
:1008B0000F0F0F0F080200000000E900FDFD0A0AFB
:1008C000161634341616E9E9080400000000E900A1
:1008D000FDFD0A0AD30A3425162DE9F108010000AE
:1008E0000000E900FDFD0A0ACE0A34250F2DE9F1CA
:1008F000080100000000E900FDFD0A0AC00A3425D5
:100900000F2DE9F1080200000000E900FDFD0A0AD0
:10091000C00A34252A2DE9F1080200000000E90090
:10092000FDFD0A0AC0CE34252A2DE9F10801000098
:100930000000E900FDFD0A0AC0CE34252A16E9F1BF
:10094000080100000000E900FDFD0A0AC0C02325DF
:100950002A2AF6F6080200000000E900FDFD0A0A56
:10096000D8D83F3F0505D8D8080100000000E900AD
:10097000FDFD0A0AD8D8F8F805052323080300006E
:100980000000E900FDFD0A0ADDDD0F0FFBFB23235C
:10099000080100000000E900FDFD0A0A19193F3FA7
:1009A000E7E72D2D080200000000E900FDFD0A0A1E
:1009B00019193FF6E7E72D2D080200000000E900B5
:1009C000FDFD0A0A19193FF6E7E72D140802000099
:1009D0000000E900FDFD0A0A19193FF6E7E72D2D91
:1009E000080200000000E900FDFD0A0A19193FF69F
:1009F000E7E7002D080200000000E900FDFD0A0AFB
:100A00001919F6F6E7E7002D080200000000E900DA
:100A1000FDFD0A0A1919F6F6E7E72D2D0802000078
:100A200000000000000000000F0F0F0F0F0F0F0F4E
:100A300008040000D80A0000000000000F0F0F0F8C
:100A40000F0F0F0F0804000000000000000000005E
:100A50000F0F0F0F0F0F0F0F08000000FD00000118
:100A60000001022D000000000000002D232632E2CC
:100A7000F600EC06010000D3000000000000002397
:100A80002D3226F6E2EC0006010000000000000016
:100A90000000001E1E1E1E1E1E1E1E08000000FB63
:100AA00000000100000000000000000000003636D9
:100AB0003636EEEEEEEE08020000500000000000B8
:100AC00000000A0AD4D464643232300000005000BE
:100AD000000000000000F0F03434C8C87D7D000143
:100AE0000000500000000000000036365252D4D4FE
:100AF000CECE3004000000000000000000001E1EEA
:100B00001E1E1E1E1E1E0802000001000001000025
:100B100000000000000000000000000000000100D4
:100B20001401001E0000FBFB0000B5B51E1E3C3C7E
:100B300000000100E2010000D300FBFB14142D2D86
:100B400069692D2DD3D301000001E2B0D300FDFD72
:100B500003034B4B4B4BC9C9C9C901004B0100EC06
:100B60000000000000003C3C4B4B2D2D4B4B010086
:100B7000B501001E0000FBFB0F0FB5B52D2D3C3C51
:100B8000E2E201000001000000000000000000009F
:100B900000000000000001000F01142800000505FE
:100BA00003035A5A2D2DC4C405050100000100009D
:100BB0000000000000001E1E1E1E1E1E1E1E27001E
:100BC00000012F363A33FE0DFE022D383434000E6C
:100BD000FD022D392E34010FFC022D3A263501116C
:100BE000FE022E3B1F36011301022F3B1836011661
:100BF0000603303C153702180C03313A1738011E32
:100C00001003313D1939011E0D0332431C39011700
:100C10000C0433451F3A020F0B053444223A0208F4
:100C20000A053441243B02030906353C273D02FFF7
:100C300009053637293E02FD090336322B3E02FBF9
:100C40000902362B2F3C03FB07013723303A03FD03
:100C50000801381C3339030108FF39123437030700
:100C600009FF390F3635040A0AFE3A0D37320510EE
:100C70000BFE3A10393105100CFE3B123A2E060ECF
:100C80000EFE3B153C2C060C0EFE3C193D2B070AB4
:100C900010003C1C3E2A070912013C1F3F2A0A088B
:100CA00014033E203F2A060718033E233F2C060666
:100CB0001B013F263F2C03061F013D283E2D020746
:100CC00023013C2A412E010725013A2D462F00071A
:100CD0001B01392F4730FF07170236304731FF0815
:100CE0000E0135334531FE08080132344232FE0927
:100CF000020131353F33FE0CFE022700000112369F
:100D00003A34070DFE090E3834360C0EFD0A0F3941
:100D10002E37110FFC0B103A26391011FE0C133B25
:100D20001F3A0D13010E163B183C0C16060E1A3C0A
:100D3000153D0A180C101C3A173E091E10121F3DD3
:100D4000193F081E0D1422431C3F07170C18244599
:100D50001F3F060F0B1B2644223F07080A1F29418D
:100D6000243E070309232B3C274107FF09252E3783
:100D7000294607FD091B2F322B4707FB0917312B8B
:100D80002F4708FB070E3323304508FD0808351CA4
:100D90003342090108023612343F0C0709FE370FAF
:100DA00036380E0A0AFD380D37330F100BFC391098
:100DB000392B11100CFD3A123A24130E0EFE3B157E
:100DC0003C1C150C0E023C193D17180A10093C1C5E
:100DD0003E161B09120F3C1F3F171E08141042201D
:100DE0003F1A1807180D44233F1D13061B0B4426FA
:100DF0003F200A061F0A42283E230407230A3E2AF0
:100E0000412500072509392D4627FE071B09342FE8
:100E10004729FB0717092D30472CFB080E092633FD
:100E2000452FFD0808071E344231FF090208163518
:100E30003F33040CFE08240000011D1A1D1A1B1666
:100E40001B161B1A1F191C161C191A1921171E18FC
:100E50001E1B191924171F181F1B171926182116D6
:100E60001C1A1417291D2315181411112B22271BC6
:100E7000180E100B2E272923180D0D0A2E2A2A26AC
:100E800018100A0A2C2D282814170A0D2A2E262A93
:100E900010180B10252C23290C1811111F2B1B27A0
:100EA000111817141A271523181A1917182516219F
:100EB0001A1E19191723181F1B1F191A1821181E7B
:100EC0001A1E1A1B1A1E161C181B1A1D1A1C161B7A
:100ED000151B191F1A1A191C171D1721191A1B1E69
:100EE000191E172419181B1F1620182619161A1C4C
:100EF00014221D29141314181725222B0D110E1856
:100F00001F27272E0A0E0D18262A2A2E0A0B101824
:100F100027292D2C0B0A171429272E2A0E0A181000
:100F20002A262C25110D180C271F2B1F13141811FE
:100F30002517271A16191A182214251818191E1AF7
:100F4000201623171A191F1B1E1921181A1A1E1AE8
:100F50001D171E1A1C1A1B181B150F000001302725
:100F60003F34F607F80929273734030705092727EF
:100F70003434070709092727343407070909272EBE
:100F8000343D07FA09FB2734344507ED09EF2735CF
:100F9000344807EA09EC2730343F07F609F82729D7
:100FA000343707030905272734340707090927279A
:100FB0003434070709092B27393400070209312780
:100FC0004134F307F50935274834EA07EC0933279C
:100FD0004334F007F20915000001302F34360500C4
:100FE0000B0532233732060210043415392F060957
:100FF0001603360B3A2C07101D0338093A2B081438
:1010000027033709362C0A163305370B382C0B16F5
:10101000330539113D2D09122B053919402F090DC2
:10102000240537204131050A120634273D320409D0
:101030000806312C3734030B01072D312C36030CF5
:1010400000072A351F38030F030828381B390313FC
:10105000070A27391A39061B0A0C283A1B39051BBF
:101060000C0D283D1E3A05180B0B2B40253A051395
:10107000090B2D3E2B3A050A09082F373138050395
:101080000A0615000001292F343B09000B032E230B
:1010900037310B021000331539260D091601360BB6
:1010A0003A1E10101D0339093A1A15142708390978
:1010B000361A1C16330B3A0B381C1C16330C3E1117
:1010C0003D2216122B0A41194028100D24093C20FC
:1010D000412E070A120934273D330209080A2A2C37
:1010E0003736000B01101C312C39050C00140D355E
:1010F0001F3A0E0F031B09381B3A12130723083936
:101100001A37161B0A31093A1B38181B0C310C3DD3
:101110001E3B15180B2D1540253F0F1309271C3EAC
:101120002B410C0A09182437313F09030A0C10051A
:101130000F01D3D4352B0907FB03D3D4282D09077E
:10114000F803D3D2172F0909FD03D3D21230090BAC
:101150000705D3D31531090B0906D3D31D34090B69
:101160000606D3D32336090B0502D3D32933090B43
:1011700007FED3D32D2F090B09FED3D3312B090B37
:101180000CFDD3D33326090B13FDD3D33423090B22
:101190001A00D3D4332409092501D3D539270906E8
:1011A0002301D3D4402809071202D3D43D2A0907CA
:1011B000020116000F01D4D2352D0B09FB09D4D240
:1011C0002C300B09F80CD4D220310B09FA0FD4D1F2
:1011D00016340B0BFE13D4D212340B0D0718D4D4D3
:1011E00014340B0B0920D6D41A34070B0625D5D49A
:1011F0001F3A050B0520D4D42340070B0514D4D483
:10120000283F070B0507D4D42B3A070B07FED2D48F
:101210002F33090B09F9D2D43128090B0CF8D2D499
:10122000331C090B10FAD1D434130C0B1401D3D492
:1012300035120B0B1B08D4D533150B092509D4D552
:10124000361B0B072607D4D43D200B071B06D4D42E
:1012500040240B070D06D4D43D290B070207D4D434
:10126000372C0B07FB090F0000012A3C314609E728
:101270000AE8311537200AF30DED37FB3B060E1156
:1012800013063BFF3C0A14201D163C0B3A15201692
:101290002E0F4D164A1F160F250B56215729F70AF8
:1012A000000940294930E709E90919312436F10AD2
:1012B000EB0DFB37063A100D0513FF3B093C1F13DE
:1012C000151C0B3B14381621102F164A1F460F19F8
:1012D0000B29205728570AF9090329422F4A09E701
:1012E00009EA21000A012E2E41470B010CFE2F298D
:1012F00042460B020FFD2F2343450B0312FC301D0A
:1013000045440C0614FB301744430C091AFA3210FA
:1013100044410C0D1EF93209433F0D1524FA3305E3
:10132000413D0D1F2BFD34073E3C0D2134FF340C95
:10133000003C0E1B5AFF3610413F0D1837FE381483
:10134000493F09162BFF37184C4008141FFF361A67
:101350004E4107131600341E4D4107110F01332172
:101360004D420611090131254C4206100202302778
:1013700049430510FF032F2A46430510FB042D2D7A
:1013800043440511F8052C2F3E440512F7052A3079
:1013900039450513F607273231450715F708253477
:1013A0002E460918FB0925352C460B1B010A26364B
:1013B0002E460B1E030B273932480B1D010B27400D
:1013C000354A0B1302072940384A0A0D03072A3E03
:1013D0003A4A0A0905052B3B3C490B0607032C3703
:1013E0003F480B0307012C3340480B0209FF220042
:1013F0000A012931414A10010C002B2C42471101EE
:101400000EFC2D274344120212F92F21433F1304EF
:1014100016F8311B443B140718F633154435160AE9
:101420001EF6340E4330181122F7350B412C1C1ACE
:1014300029FE360C3F2D1F1D320336103C30241878
:101440003C023A143E3320163C024118483615142B
:101450002D02411A4B3811132503401E4D3A0C1131
:101460001A053D214E3C081111073A244D3F051045
:101470000C0736274D400310050A32294C41011054
:10148000FF0C2D2C48420111FD0F282E454302125E
:10149000FA13223040450313F8141C313B4406155F
:1014A000F71A153336430A17F61F0F343143111A52
:1014B000F7240C352D41171DFC2B0A362B3E1E2020
:1014C00003340E362E3D1B25033B123D3241171CC3
:1014D0000137174235491414022B1A41374B1310A8
:1014E00003221D3F3A4D120C0518203D3C4E1108B9
:1014F0000710233A3E4E1005060A2636404D1002CC
:1015000009050E0000010A1D332E211E040F0A20BA
:101510002B30281D03100F232231231E0D12132CF4
:10152000243421110E13162627351F100E16191EEE
:101530002A3D1E110E0B1C152C381E150F061F08F8
:101540002F311D281003210D30291E2511032610CF
:1015500033211C2212112A1434251020140E2317B3
:101560003B28101F100E1A1A3B2A131E080E0F1CC0
:10157000342D1B1E050F220002013F495347D2D6CE
:10158000CFD43D4B4E49D2D7CED43D4E494BD2D786
:10159000CED43D51444BD3D7CED43C533E4CD5D87A
:1015A000D0D43C58394CD5D8D1D43E5C334ED4D469
:1015B000D4D43E5B324FD4D3D7D44059374FD4D054
:1015C000D8D441543751D4CFD8D541503A53D4CE42
:1015D000D7D3434B3D54D4CED7D243454054D4CE39
:1015E000D7D244404152D4CFD7D2463A4451D4D036
:1015F000D6D24635474FD4D1D6D247304A4ED4D32F
:10160000D7D1472A4B4CD4D5D7D149254E4BD4D727
:10161000D7D14B245149D4DAD7D14B255347D4DC09
:10162000D8D14E295546D4DCD8D14E2A5744D3DCE4
:10163000D9D14F2D5942D2DBDAD24F305B41D2DAC9
:10164000DBD34E335D41D1D9DCD44C356041D1D8A8
:10165000DDD44B386441D1D8DAD4493B6643D1D785
:10166000D6D4473E6344D1D7D5D446406044D1D781
:10167000D3D444435D46D1D6D1D442465946D2D67E
:10168000D0D440495447D2D6CFD4220002012A49AF
:10169000534BD5D6CFD7254B4E4DD7D7CED7244E8B
:1016A0004950DAD7CED725514452DCD7CED829536A
:1016B0003E55DCD8D0D82A583955DCD8D1D92D5C44
:1016C0003358DBD4D4DA305B325ADAD3D7DB335930
:1016D000375BD9D0D8DC3554375DD8CFD8DD38501A
:1016E0003A63D8CED7DB3B4B3D65D7CED7D83E4506
:1016F0004065D7CED7D640404163D7CFD7D4433A01
:10170000445FD6D0D6D24635475CD6D1D6D1493003
:101710004A58D6D3D7D04A2A4B53D7D5D7CF4D2501
:101720004E4ED7D7D7CE50245149D7DAD7CE5225EF
:101730005344D8DCD8CE5529553ED8DCD8D0592AC8
:101740005739D7DCD9D15D2D5933D3DBDAD45C30AE
:101750005B32D1DADBD758335D37D0D9DCD853359B
:101760006037CFD8DDD84E38643ACED8DAD7493B87
:10177000663DCED7D6D7443E6340CED7D5D73E4080
:101780006041D0D7D3D739435D44D1D6D1D6334683
:101790005947D2D6D0D62E49544AD3D6CFD71800DF
:1017A00000012D362D38FCF305F62C3D2B3AFDF4C7
:1017B00005F62B43273CFDF606F72A48243EFDFAA2
:1017C00006F82946203EFD0007FC283F1E3CFD0888
:1017D00008FD263A1A3AFE0A0AFE25381539FD098F
:1017E0000AFE24361638FC0802FD27341C37F8069A
:1017F000FAFD29312537F706F6FD2C2F2E36F70591
:10180000F4FD302C3635F605F3FD312A3D34F6056E
:10181000F4FD34264333F606F6FC37234833F60648
:10182000FAFC361F4631F90800FC351C3F30FB0935
:1018300008FC33193A2EFC0A0AFC3215382EFC0932
:1018400009FB31173630FCFF08F7301E3430FCF945
:1018500006F62F273133FCF506F62E302F36FCF333
:1018600005F6160000012428243E06FD0601222F5D
:10187000203F07FC07041E351C3B08FD09091A3AE6
:1018800019390AFE0A0A16391A370C0206081233E9
:101890001D340E0802070F3324320F06FE061130E6
:1018A0002B2F0905FD05152D312C0505FC051D2BDC
:1018B000372A0205FD0523273C26FF06FF062A24BA
:1018C0003F23FD06010631203E1FFC070608361C9B
:1018D0003A1CFD090A09391A3918000A090B38158A
:1018E000361A030C08043311341F080F0601320F97
:1018F0003126060E06FE2F122F2C050805FD2D1889
:101900002C33050405FC2A1E2938050105FD262572
:10191000253C06FE06FF0F00000138384848EBEB77
:10192000DDDD2E2E3434070709092E2E3434070747
:1019300009092E2E3434070709092E2E34340707DF
:1019400009092E2E3434070709092E2E34340505D3
:10195000090932323838FCFCFFFF35353C3CF4F4E1
:10196000F7F737374040EDEDEFEF3A3A4343E6E61D
:10197000E7E73C3C4646DFDFE0E03D3D4848DDDD53
:10198000DDDD3D3D4848DDDDDDDD3D3D4848DDDD5B
:10199000DDDD00000000240027002A000000000018
:1019A000250028002B00000000002300260029004D
:1019B00004040404040404040202020202020303F5
:1019C00003030303010204081020408001020408FD
:1019D000102001020408102000000008000201008D
:1019E00000030407000000000000000002526573BD
:1019F0006574206A6F696E74206F666673657473B0
:101A00003F28592F6E290049324320454550524FF7
:101A10004D206F766572666C6F77212044656C652A
:101A2000746520736F6D6520736B696C6C73210A2C
:101A300000206F6E2049324320454550524F4D0AD9
:101A400000496E7374696E637473207573656420E6
:101A5000005361766520736B696C6C73000A436F89
:101A60006E66696775726520454550524F4D000A94
:101A70002A204368616E6765206D6F64656C206124
:101A80006E6420626F61726420646566696E697459
:101A9000696F6E7320696E204F70656E4361742E9E
:101AA000696E6F21004D487A00496E697420736534
:101AB00072766F733A200000F8F62A3F68F57A00D4
:101AC00006FFFE0003000000650054FFEF0000FA6F
:101AD00080000B12820001030C30C30A74562D0DD6
:101AE00062DBC716F4BA023883F8833000F8832526
:101AF0008EF8833000F883FFFFFFFF0CBDD8112460
:101B00000004001A8279A10036003C0000000000A9
:101B100010000038836FA2003E0330400000000236
:101B2000CAE3093E800000200000000000000040E1
:101B3000000000600000001FA4E8E4FFF5DCB9002D
:101B40005B79CF1F3F787600867C5A00862347FA60
:101B5000B986310074878A0000000000004305FF49
:101B6000FFE9A800002182FAB84D46FFFADF3DFFE9
:101B7000FFB2B3000000003FFFBA98005DAC080060
:101B80000A637800014621FFFF0000000042B50013
:101B9000060064006400061406029F0F479132D9C4
:101BA0000E9FC91DCF4C343BB67AE8006400060096
:101BB000C800000000FFFE10000000000000000050
:101BC0000000000000000000070000FFF10000FA24
:101BD000460000A2B800001000000004D600000477
:101BE000CC000004CC000000000000000000000059
:101BF00000000000000000000600020005000700D1
:101C000000000000640000000000000000000C0064
:101C1000050064002000000000000000000000003B
:101C20000040000000030000000032F8980000FFB0
:101C3000650000830F000000060000FFF10000FABD
:101C4000460000A2B80000000000000000000000F4
:101C50000000000000000000000032000000000052
:101C600000000000001000000000010000000D0056
:101C700000B26A000200000001FB83007C0000FB50
:101C800015FC001FB4FF8300000001006500070081
:101C90006403E8006400280000FFFD000000001657
:101CA000A000000000000000001000002F00000055
:101CB0000001F40000100000280000FFFF4581FF34
:101CC000FFFA720000000000000000004400010064
:101CD00005BAC6004778A20000000000000000001E
:101CE00000060000000014000023BB002EA25B00D1
:101CF000000568000BCF490004FFFD000200000052
:101D000000000200000000001B00000000000000B6
:101D1000000000000000000064000700080006004A
:101D200006FFFE00000000000000000000000000B0
:101D300000000000000000000000000000000000A3
:101D40000000000000000000000000000000000093
:101D500000000000000000002EA25B0000056800EB
:101D60000BCF490000000000F8F62A3F68F57A0022
:101D700004FFFD00020000001B0000000000000046
:101D8000000000000E000EFFFFFFCF000400000067
:101D9000000032FFFFFF9C00004305000000000030
:101DA00000000100000064FFE500000000000000EA
:101DB0000000000000000000000001000000000022
:101DC0000100000000000000018000000180000010
:101DD000018000002426D300010001000000000063
:101DE0000600100096003C0000000000000000000B
:101DF0000000001F9E655D0C0A4E68CDCF7709502C
:101E0000166759C619CE82000000000000000000CD
:101E10000000000047711C000000000000000017D7
:101E2000D78400030000000011DC4703000000C756
:101E3000938F9D1E1B1C19FFFFFFFF000000000E6B
:101E4000DFA4381F9E655D000000000047711C0282
:101E5000031885000040000000000000000003009F
:101E6000000000000000003FFFFFFDFFFFF4C9FF7E
:101E7000FFBCF000010C0F0000000000000000009B
:101E80000000000000000000000000000000000052
:101E900000000000000000F5B7BAB3677DDF7E7276
:101EA000902E554CF6E6880000000000000000006F
:101EB00000000000000000D8DCB4B8B0D8B9ABF323
:101EC000F8FAB3B7BB8E9EAEF132F51BF1B4B8B0E1
:101ED0008097F1A9DFDFDFAADFDFDFF2AA4CCD6C4C
:101EE000A90CC92C97F1A989264666B28999A92D12
:101EF000557DB0B08AA896365676F1BAA3B4B280B2
:101F0000C0B8A89711B28398BAA3F024084410640B
:101F100018B2B9B49883F1A329557DBAB5B1A3839A
:101F200093F0002850F5B2B6AA839328547CF1B9F7
:101F3000A3829361BAA2DADEDFDB819AB9AEF560E3
:101F40006870F1DABAA2DFD9BAA2FAB9A38292DB39
:101F500031BAA2D9BAA2F8DF85A4D0C1BBAD83C281
:101F6000C5C7B8A2DFDFDFBAA0DFDFDFD8D8F1B89E
:101F7000AAB38DB4980D355DB2B6BAAF8C96198FF1
:101F80009FA70E161EB49AB8AA872C547CBAA4B088
:101F90008AB691325676B28494A4C808CDD8B8B423
:101FA000B0F19982A82D557D98A80E161EA22C542A
:101FB0007C92A4F02C5078F184A898C4CDFCD80D64
:101FC000DBA8FC2DF3D9BAA6F8DABAA6DED8BAB2E5
:101FD000B68696A6D0F3C841DAA6C8F8D8B0B4B889
:101FE00082A892F52C548898F135D9F418D8F1A22A
:101FF000D0F8F9A884D9C7DFF8F883C5DADF69DF3C
:1020000083C1D8F40114F1A8824EA884F311D182BF
:10201000F5D992289788F109F41C1CD884A8F3C03C
:10202000F9D1D99782F129F40DD8F3F9F9D1D982F0
:10203000F4C203D8DEDF1AD8F1A2FAF9A88498D93D
:10204000C7DFF8F8F883C7DADF69DFF883C3D8F4AD
:102050000114F198A8822EA884F311D182F5D992A7
:10206000509788F109F41CD884A8F3C0F8F9D1D9A5
:102070009782F149F40DD8F3F9F9D1D982F4C40368
:10208000D8DEDFD8F1AD8898CCA809F9D98292A81A
:10209000F57CF1883ACF944A6E98DB6931DAADF27B
:1020A000DEF9D88795A8F221D1DAA5F9F417D9F18C
:1020B000AE8ED0C0C3AE82C684C3A88595C8A5889D
:1020C000F2C0F1F4010EF18E9EA8C63E56F554F111
:1020D0008872F40115F19845856EF58E9E0488F19D
:1020E00042985A8E9E068869F4011CF1981E1108C8
:1020F000D0F504F11E970202983625DBF9D985A5A3
:10210000F3C1DA85A5F3DFD88595A8F309DAA5FA36
:10211000D88292A8F578F1881A849F26889821DAC7
:10212000F41DF3D8879F39D1AFD9DFDFFBF9F40C69
:10213000F3D8FAD0F8DAF9F9D0DFD9F9D8F40BD816
:10214000F3879F39D1AFD9DFDFF41DF3D8FAFCA8AC
:1021500069F9F9AFD0DADEFAD9F88F9FA8F1CCF39C
:1021600098DB45D9AFDFD0F8D8F18F9FA8CAF388A4
:1021700009DAAF8FCBF8D8F2AD978D0CD9A5DFF97E
:10218000BAA6F3FAF412F2D8950DD1D9BAA6F3FA99
:10219000DAA5F2C1BAA6F3DFD8F1BAB2B68696A62E
:1021A000D0CAF349DAA6CBF8D8B0B4B8D8AD84F227
:1021B000C0DFF18FCBC3A8B2B68696C8C1CBC3F33C
:1021C000B0B48898A821DB718D9D71859521D9AD1A
:1021D000F2FAD88597A828D9F408D8F28D29DAF42C
:1021E00005D9F285A4C2F2D8A88D9401D1D9F411F1
:1021F000F2D88721D8F40AD8F28498A8C801D1D996
:10220000F411D8F3A4C8BBAFD0F2DEF8F8F8F8F8B0
:10221000F8F8F8D8F1B8F6B5B9B08A95A3DE3CA3C2
:10222000D9F8D85CA3D9F8D87CA3D9F8D8F8F9D1D3
:10223000A5D9DFDAFAD8B18530F7D9DED8F830ADD4
:10224000DADED8F2B48C99A32D557DA083DFDFDFD1
:10225000B591A0F629D9FBD8A0FC29D9FAD8A0D0ED
:1022600051D9F8D8FC51D9F9D879D9FBD8A0D0FCEC
:1022700079D9FAD8A1F9F9F9F9F9A0DADFDFDFD8CD
:10228000A1F8F8F8F8F8ACDEF8ADDE8393AC2C5486
:102290007CF1A8DFDFDFF69D2CDAA0DFD9FADB2D99
:1022A000F8D8A850DAA0D0DED9D0F8F8F8DB55F885
:1022B000D8A878DAA0D0DFD9D0FAF8F8F8F8DB7D22
:1022C000F8D89CA88CF530DB38D9D0DEDFA0D0DE82
:1022D000DFD8A848DB58D9DFD0DEA0DFD0DED8A811
:1022E00068DB70D9DFDFA0DFDFD8F1A888902C543D
:1022F0007C98A8D05C38D1DAF2AE8CDFF9D8B08700
:10230000A8C1C1B188A8C6F9F9DA36D8A8F9DA3671
:10231000D8A8F9DA36D8A8F9DA36D8A8F9DA36D84A
:10232000F78D9DADF818DAF2AEDFD8F7ADFA30D9F7
:10233000A4DEF9D8F2AEDEFAF983A7D9C3C5C7F196
:10234000889BA77AADF7DEDFA4F8849408A797F3FB
:1023500000AEF29819A488C6A39488F632DFF283FF
:1023600093DB09D9F2AADFD8D8AEF8F9D1DAF3A411
:10237000DEA7F1889B7AD8F38494AE19F9DAAAF132
:10238000DFD8A881C0C3C5C7A39283F628ADDED924
:10239000F8D8A350ADD9F8D8A378ADD9F8D8F8F9C2
:1023A000D1A1DADEC3C5C7D8A18194F818F2B089EB
:1023B000ACC3C5C7F1D8B8B4B09786A8319B06990D
:1023C00007AB9728889BF00C201440B0B4B8F0A855
:1023D0008A9A285078B79BA8295179247059446962
:1023E00038644831F1BBAB88002C547CF0B38BB817
:1023F000A804285078F1B088B49726A85998BBABA8
:10240000B38B02264666B0B8F08A9CA82951798B16
:102410002951798A2470598B2058718A4469388BE4
:102420003940688A6448318B30496088F1AC002CAF
:10243000547CF08CA804285078F1889726A85998E5
:10244000AC8C02264666F0899CA8295179247059E3
:10245000446938644831A98809205970AB11384063
:1024600069A8193148608CA83C415C207C00F18748
:10247000981986A86E767EA999882D557DD8B1B514
:10248000B9A3DFDFDFAED0DFAAD0DEF2ABF8F9D937
:10249000B087C4AAF1DFDFBBAFDFDFB9D8B1F1A3EA
:1024A000978E60DFB084F2C8F8F9D9DED89385F151
:1024B0004AB183A308B5839A0810B79F10D8F1B02A
:1024C000BAAEB08AC2B2B68E9EF1FBD9F41DD8F96D
:1024D000D90CF1D8F8F8AD61D9AEFBD8F40CF1D82D
:1024E000F8F8AD19D9AEFBDFD8F416F1D8F8AD8DF8
:1024F00061D9F4F4ACF59C9C8DDF2BBAB6AEFAF83A
:10250000F40BD8F1AED0F8AD51DAAEFAF8F1D8B993
:10251000B1B6A3839C08B9B1839AB5AAC0FD308334
:10252000B79F10B58B93F20202D1ABDADED8F1B0CF
:1025300080BAABC0C3B284C1C3D8B1B9F38BA39185
:10254000B609B4D9ABDEB0879CB9A3DDF1B38B8BF0
:102550008B8B8BB08720283038B28BB69BF2A3C010
:10256000C8C2C4CCC6A3A3A3F1B087B59AD8F39BC5
:10257000A3A3DCBAACDFB9A3FEF2ABC4AAF1DFDFE0
:10258000BBAFDFDFA3A3A3D8D8D8BBB3B7F1AAF9F9
:10259000DAFFD9809AAA28B48098A720B79787A88D
:1025A0006688F07951F1902C870CA781976293F09F
:1025B00071716085940129517990A5F1284C6C873F
:1025C0000C95188578A38390284C6C886CD8F3A25E
:1025D0008200F210A8921980A2F2D926D8F188A818
:1025E0004DD948D896A83980D93CD89580A839A625
:1025F0008698D92CDA87A72CD8A8899519A980D9CB
:1026000038D8A88939A980DA3CD8A82EA83990D919
:102610000CD8A8953198D90CD8A809D9FFD801DAD7
:10262000FFD89539A9DA26FFD890A80D8999A81066
:10263000809821DA2ED88999A83180DA2ED8A886F8
:10264000963180DA2ED8A8873180DA2ED8A88292E7
:10265000F34180F1D92ED8A882F31980F1D92ED870
:1026600082ACF3C0A28022F1A62EA72EA92298A8A0
:1026700029DAACDEFFD8A2F22AF1A92E8292A8F2C2
:102680003180A696F1D900AC8C9C0C30ACDED0DE4B
:10269000FFD88C9CACD010ACDE8092A2F24C82A809
:1026A000F1CAF235F19688A6D900D8F1FF444D5011
:1026B000206661696C65642028636F64652000434F
:1026C000616C6962726174696E672E2E2E000A4C0D
:1026D00061792074686520726F626F742F626F6118
:1026E000726420464C4154206F6E206120746162F8
:1026F0006C652E2043616C69627261746520494D7E
:10270000553F28592F6E293A00496E697420494D6A
:10271000550052656164792100003427D22F1124BD
:102720001FBECFEFD8E0DEBFCDBF14E0A0E0B1E028
:10273000EAE0FDE602C005900D92A039B107D9F795
:1027400027E0A0E9B4E001C01D92AF39B207E1F77C
:1027500013E1CEE8D3E104C02197FE010E94983531
:10276000CD38D107C9F70E9426280C9478360C94EE
:10277000000091E09093D2058093D1051092D0058E
:102780001092CF0508958091410590914205891BD3
:10279000990B089508950895AF92BF92CF92DF925A
:1027A000EF92FF920F931F93CF93DF936C017B0106
:1027B0008B01040F151FEB015E01AE18BF08C01797
:1027C000D10759F06991D601ED91FC910190F0810A
:1027D000E02DC6010995892B79F7C501DF91CF91CD
:1027E0001F910F91FF90EF90DF90CF90BF90AF902F
:1027F0000895FC01538D448D252F30E0842F90E007
:10280000821B930B541710F0CF96089501970895EB
:10281000FC01918D828D981761F0A28DAE0FBF2FB4
:10282000B11D5D968C91928D9F5F9F73928F90E00A
:1028300008958FEF9FEF0895FC01918D828D981779
:1028400031F0828DE80FF11D858D90E008958FEFB6
:102850009FEF0895FC01918D228D892F90E0805C7F
:102860009F4F821B91098F739927089583ED95E0FF
:102870000E942A1421E0892B09F420E0822F089578
:1028800080E090E0892B29F00E94361481110C948D
:1028900000000895FC01A48DA80FB92FB11DA35A03
:1028A000BF4F2C91848D90E001968F739927848F70
:1028B000A689B7892C93A089B1898C918370806493
:1028C0008C93938D848D981306C00288F389E02D34
:1028D00080818F7D80830895EF92FF920F931F93E5
:1028E000CF93DF93EC0181E0888F9B8D8C8D9813C3
:1028F0001AC0E889F989808185FF15C09FB7F894CF
:10290000EE89FF896083E889F9898081837080641A
:1029100080839FBF81E090E0DF91CF911F910F9165
:10292000FF90EF900895F62E0B8D10E00F5F1F4F74
:102930000F731127E02E8C8D8E110CC00FB607FC83
:10294000FACFE889F989808185FFF5CFCE010E9411
:102950004A14F1CFEB8DEC0FFD2FF11DE35AFF4F21
:10296000F0829FB7F8940B8FEA89FB89808180629F
:10297000CFCF682F83ED95E00C946C140F931F93C9
:10298000CF93DF938C01D0E0C0E0F801EC0FFD1F86
:102990006491662341F083ED95E00E946C14892BCD
:1029A00011F02196F2CFCE01DF91CF911F910F91BF
:1029B0000895CF93DF93EC01888D8823B9F0AA891D
:1029C000BB89E889F9898C9185FD03C0808186FDEA
:1029D0000DC00FB607FCF7CF8C9185FFF2CF808139
:1029E00085FFEDCFCE010E944A14E9CFDF91CF9150
:1029F0000895833081F028F4813099F08230A9F075
:102A000008958730A9F08830C9F08430B1F48091FE
:102A100080008F7D03C0809180008F77809380003D
:102A2000089584B58F7784BD089584B58F7DFBCFDD
:102A30008091B0008F778093B00008958091B000AE
:102A40008F7DF9CFCF93DF93282F30E0F901E85243
:102A5000F64E8491F901EC53F64ED491F901E0550C
:102A6000F64EC491CC23A1F081110E94F914EC2FF1
:102A7000F0E0EE0FFF1FEA55F64EA591B491EC91F0
:102A8000ED2381E090E009F480E0DF91CF9108959B
:102A900080E090E0FACF1F93CF93DF93282F30E0B0
:102AA000F901E852F64E8491F901EC53F64ED491B7
:102AB000F901E055F64EC491CC23A9F0162F8111EF
:102AC0000E94F914EC2FF0E0EE0FFF1FE456F64ED3
:102AD000A591B4918FB7F894EC91111108C0D095DD
:102AE000DE23DC938FBFDF91CF911F910895DE2B02
:102AF000F8CF9091000189130BC0ECEEF9E1E4915D
:102B00009FEF90930001E13049F028F0E23061F04E
:102B100060E00C944B1510926E00FACF90916F000C
:102B20009D7F90936F00F4CF909170009D7F909364
:102B3000700091E09093B0009091B100987F946004
:102B40009093B1001092B300E3CF3FB7F894809117
:102B5000030590910405A0910505B091060526B5E1
:102B6000A89B05C02F3F19F00196A11DB11D3FBFC5
:102B7000BA2FA92F982F8827BC01CD01620F711D94
:102B8000811D911D42E0660F771F881F991F4A958E
:102B9000D1F708958F929F92AF92BF92CF92DF921A
:102BA000EF92FF926B017C010E94A5154B015C0125
:102BB000C114D104E104F104B9F00E94A51568190B
:102BC00079098A099B09683E73408105910580F364
:102BD00021E0C21AD108E108F10888EE880E83E0EE
:102BE000981EA11CB11CE4CFFF90EF90DF90CF9016
:102BF000BF90AF909F908F9008952FB7F8946091F9
:102C0000FF047091000580910105909102052FBF8E
:102C100008952091DB04260F3327331F213231051D
:102C2000ECF42091C905FC0190E080E0243069F0CB
:102C300082E00895A091DB042191AC0145545B4FE3
:102C4000A40FB52FB11D2C930196861798F3809190
:102C5000DB04680F6093DB0480E0089581E0089551
:102C60001092C90581E08093A8051092A30561E048
:102C700082E10E944B1561E083E10E944B15E9EB74
:102C8000F0E080818E7F808380818D7F808388E4E7
:102C90008093B80085E48093BC000895CF93DF93C0
:102CA00091E09093BA048823B9F0C091B800D09114
:102CB000BA008091BC008A7B8093BC0060E082E116
:102CC0000E944B1560E083E10E944B150E94301674
:102CD000D093BA00C093B800DF91CF910895CF92FE
:102CE000DF92EF92FF920F931F93CF93DF93D82F32
:102CF000C62F613208F098C00E94A5156B017C01B7
:102D00008091C90581116BC081E08093C9058093D2
:102D1000A8059FEF9093A7051092A6059C0F90938E
:102D2000A5058093A4058091A405DD0FD82BD09331
:102D3000A4058091A305813009F078C01092A30505
:102D40000E94A5156B017C018091A4058093BB00B6
:102D50008091CB059091CC05A091CD05B091CE0589
:102D6000892B8A2B8B2BA1F00E94A5150091CB05F6
:102D70001091CC052091CD053091CE056C197D09BF
:102D80008E099F09061717072807390708F448C056
:102D90008091BC0083FDD8CF85EC8093BC000E945D
:102DA000A5156B017C018091C905813009F440C0F3
:102DB0008091A6058C1710F4C091A605E3E8F5E014
:102DC000A9EAB5E080E08C1355C08C2FDF91CF913C
:102DD0001F910F91FF90EF90DF90CF900895809119
:102DE000CB059091CC05A091CD05B091CE05892B56
:102DF0008A2B8B2B09F484CF0E94A5150091CB055B
:102E00001091CC052091CD053091CE056C197D092E
:102E10008E099F09061717072807390708F070CF92
:102E20008091CA050E944E16C0E0CFCF85EEB5CF87
:102E30008091CB059091CC05A091CD05B091CE05A8
:102E4000892B8A2B8B2B09F4AECF0E94A5150091FC
:102E5000CB051091CC052091CD053091CE056C1994
:102E60007D098E099F09061717072807390708F0FB
:102E70009ACFD6CF91919D938F5FA5CF0895E09182
:102E8000420580914105E81730F4F0E0E755FA4F2C
:102E9000808190E008958FEF9FEF08959091420513
:102EA000809141052FEF3FEF981748F4E92FF0E0AC
:102EB000E755FA4F208130E09F5F90934205C901AA
:102EC0000895CF92DF92EF92FF920F931F93CF93CB
:102ED000DF937C01CB018A012091D205222389F066
:102EE000EB016B01C40ED51ECC15DD0569F06991AF
:102EF000D701ED91FC910190F081E02DC70109957A
:102F0000F3CF642F0E940916C801DF91CF911F9162
:102F10000F91FF90EF90DF90CF900895CF93DF93C4
:102F20001F92CDB7DEB769832091D2052223F9F035
:102F30002091CF05203258F021E030E0FC013383AE
:102F4000228390E080E00F90DF91CF9108958091EF
:102F5000D005E82FF0E0E656FB4F998190838F5F14
:102F60008093D0058093CF0581E090E0ECCF61E0C5
:102F7000CE0101960E940916F7CFCF92DF92EF9211
:102F8000FF920F931F93CF93DF93D091CF0581E0F2
:102F9000D13208F09CC0C091D1050E94A5156B01EB
:102FA0007C018091C90581116CC082E08093C905C4
:102FB00081E08093A8058FEF8093A7051092A60566
:102FC000D093A505AAE9B4E0E3E8F5E080E0D813E2
:102FD0008DC01092A4058091A405CC0FC82BC0937E
:102FE000A4058091A305813009F084C01092A30547
:102FF0000E94A5156B017C018091A4058093BB0004
:103000008091CB059091CC05A091CD05B091CE05D6
:10301000892B8A2B8B2BA1F00E94A5150091CB0543
:103020001091CC052091CD053091CE056C197D090C
:103030008E099F09061717072807390708F442C0A9
:103040008091BC0083FDD8CF85EC8093BC000E94AA
:10305000A5156B017C018091C905823009F44CC033
:103060008091A7058F3F09F469C08091A705803240
:1030700009F466C08091A705803309F463C084E039
:1030800026C08091CB059091CC05A091CD05B09143
:10309000CE05892B8A2B8B2B09F483CF0E94A51593
:1030A0000091CB051091CC052091CD053091CE0536
:1030B0006C197D098E099F0906171707280739071C
:1030C00008F06FCF8091CA050E944E1685E01092DD
:1030D000D0051092CF051092D205DF91CF911F91AC
:1030E0000F91FF90EF90DF90CF9008959D91919375
:1030F0008F5F6DCF85EEA9CF8091CB059091CC05E8
:10310000A091CD05B091CE05892B8A2B8B2B09F48C
:10311000A2CF0E94A5150091CB051091CC0520915E
:10312000CD053091CE056C197D098E099F090617D2
:1031300017072807390708F08ECFC4CF80E0C7CF24
:1031400082E0C5CF83E0C3CF1F93CF93DF93162FC9
:10315000EA010E94B913612F80E796E00E948E1762
:10316000698180E796E00E948E17688180E796E08B
:103170000E948E1780E796E00E94BD1791E08111B2
:1031800090E0892FDF91CF911F91089590E080E02A
:103190000895FF920F931F93CF93DF93C62F042FB1
:1031A000F22E132F0E94B9136C2F80E796E00E9435
:1031B0008E17CF2DD12F0C0F1D2F111DC017D1072A
:1031C00031F0699180E796E00E948E17F7CF80E793
:1031D00096E00E94BD1791E0811190E0892FDF9168
:1031E000CF911F910F91FF900895CF93DF931F927E
:1031F000CDB7DEB749839E012F5F3F4F41E00E946C
:10320000C9180F90DF91CF9108950F931F93CF931B
:10321000DF93EC01062F142F88810E94B913898156
:103220009A81DC01ED91FC910190F081E02D602FFD
:10323000099589819A81DC01ED91FC910190F081E1
:10324000E02D612F099589819A81DF91CF911F919E
:103250000F910C94BD17DC01ED91FC910190F08170
:10326000E02D0994FF920F931F93CF93DF93EC010E
:10327000162FF42E052F88810E94B91389819A8117
:1032800024E0129FB00111246A5F7F4FDC01ED91B1
:10329000FC910190F081E02D099570E060E089815A
:1032A0009A810E942B1970E060E089819A810E94C6
:1032B0002B196F2D702F89819A810E942B19602FF5
:1032C00070E089819A810E942B1989819A81DF910E
:1032D000CF911F910F91FF900C94BD17CF9383ED69
:1032E00095E00E942A14892BD1F383ED95E00E948A
:1032F0000814C82F61E070E080E090E00E94CA15D9
:1033000083ED95E00E942A14892B29F083ED95E046
:103310000E940814F5CF8C2FCF9108951F93CF935F
:10332000DF93EC01162F88810E94B91389819A815D
:10333000DC01ED91FC910190F081E02D612F099568
:1033400089819A810E94BD1761E088810E946F1671
:10335000109242058093410589819A81DC01ED91AB
:10336000FC910284F385E02D0995DF91CF911F91A7
:103370000895CF92DF92EF92FF92CF93C82F6EEF16
:103380008FE497E00E948E19682F70E06F5F7F4F87
:1033900090E080E00E94053120E034E244E759E407
:1033A0000E9466316B017C01609152077091530756
:1033B00080915407909155070E9405319B01AC0103
:1033C000C701B6010E9439339B01AC0160E070E88F
:1033D0008BEB94E40E9439330E94B233AB016C2F23
:1033E0008FE497E0CF91FF90EF90DF90CF900C9417
:1033F00032198F929F92AF92BF92CF92DF92EF924B
:10340000FF921F93CF93DF93EC016A017B0120E0D1
:1034100030E040E85FE3CB01B6010E94003187FD58
:103420007EC020E030EC4AE555E4C701B6010E94B9
:10343000E13318163CF4C12C30ECD32E3AE5E32EE0
:1034400035E4F32E6B817C818D819E810E94053154
:103450004B015C0120E030E040E855E4C701B601D3
:103460000E9466319B01AC01C501B4010E94393351
:1034700020E030E040E05FE30E94CD3220E030E029
:1034800040E85FE30E94CC326B017C0120E030E039
:1034900040E450E40E94003187FD48C020E030E065
:1034A0004FE753E4C701B6010E94E133181634F424
:1034B000C12CD12C9FE7E92E93E4F92E60E0CE01D8
:1034C0000E948E19182F482F4F76406160E0CE0180
:1034D0000E940519C701B6010E94B233462F6EEF54
:1034E000CE010E940519412F60E0CE010E9405190E
:1034F00065E070E080E090E00E94CA15412F406ACC
:1035000060E0CE01DF91CF911F91FF90EF90DF90AF
:10351000CF90BF90AF909F908F900C940519C12CC5
:10352000D12C20E8E22E2FE3F22E8CCFC12CD12C0F
:1035300080E4E82EFE2CC2CF4F925F926F927F9272
:103540008F929F92AF92BF92DF92EF92FF920F9372
:103550001F93CF93DF93182F062F7A01E9010E9462
:10356000FD154B015C01812F0E94B913602F80E78C
:1035700096E00E948E1780E796E00E94BD17812F8B
:103580000E94B91362E0812F0E946F1610924205CB
:103590008093410501E010E02E01712C612CDD24A7
:1035A000D3949091410580914205981739F11111FA
:1035B00025C02097C1F401110EC080E796E00E945B
:1035C0004E17F70120813181822B932B91838083C9
:1035D00011E00D25E6CF80E796E00E944E17F70137
:1035E00010828183F6CF0E94FD15681979098A0936
:1035F0009B096415750586059705E8F280E796E056
:103600000E94BD17209799F00E94FD15AB01BC01E7
:10361000481959096A097B09CE01B0E0A0E04817B2
:1036200059076A077B0718F0111101C01FEF812F9E
:10363000DF91CF911F910F91FF90EF90DF90BF909E
:10364000AF909F908F907F906F905F904F90089574
:103650002F923F924F925F926F927F928F929F92A2
:10366000AF92BF92CF92DF92EF92FF920F931F9390
:10367000CF93DF9300D000D0CDB7DEB7782E662E83
:103680004C833A8329830E94FD156B017C01512CE8
:103690001B822C81222E312C4801B12CA12C8C8133
:1036A000581608F049C0872D0E94B913662D80E78F
:1036B00096E00E948E1780E796E00E94BD17872D46
:1036C0000E94B913B101651971096132710514F0D5
:1036D00060E270E0613208F060E2872D0E946F16B0
:1036E000482E10924205809341058091420548166C
:1036F000E9F00115110579F480E796E00E944E1774
:10370000E981FA819B81E90FF11D97FDFA9580838C
:103710009F5F9B83EACF0E94FD156C197D098E097E
:103720009F09681579058A059B0530F38C818132E4
:1037300008F080E2580EB3CF01151105C1F00E94C8
:10374000FD156C197D098E099F0930E020E0601796
:1037500071078207930758F02B81822F220F990B54
:103760002C812817190619F014F08FEF8B838B81A9
:103770000F900F900F900F90DF91CF911F910F91AD
:10378000FF90EF90DF90CF90BF90AF909F908F9081
:103790007F906F905F904F903F902F900895CF92C1
:1037A000DF92EF92FF920F931F93CF93DF931F92BD
:1037B000CDB7DEB7F82EE62EC42ED22E08EE13E0DB
:1037C0009E012F5F3F4F41E00E94281B81E090E067
:1037D00001C0880FCA94EAF74981DD2081F0482BA7
:1037E00049836E2D8F2D0E94F5180F90DF91CF9198
:1037F0001F910F91FF90EF90DF90CF9008958095EB
:103800004823EECF0F931F93CF93DF931F92CDB733
:10381000DEB708EE13E09E012F5F3F4F41E065E702
:10382000809182070E94281B882339F089818E7736
:1038300090E09595879580938307809183070F90FB
:10384000DF91CF911F910F9108952F923F924F9248
:103850005F926F927F928F929F92AF92BF92CF9220
:10386000DF92EF92FF920F931F93CF93DF93CDB729
:10387000DEB7E1970FB6F894DEBF0FBECDBF8D8FD8
:103880004EA35FA368A779A70AA71BA72CA73DA7EC
:1038900013E18B3339F40E94021C17E703E08833ED
:1038A00010F416E002E06EE383ED95E00E946C14E4
:1038B0009E01235F3F4F3E8B2D8BCE010196988F4B
:1038C0008F8B6901B12E28EE33E0AE014D5E5F4F64
:1038D0006B2D809182070E949C1AEB88FC88B701AF
:1038E0000F2C000C880B990B0E940731133109F43F
:1038F000CEC1B1E0EB22FF24F601F182E08220E0AC
:1039000030E040E051E40E946631AF89B88D6D939C
:103910007D938D939C931397B00EF2E0CF0ED11C44
:103920002F89388D2C5F3F4F388F2F8B8D899E8943
:103930002817390741F69D8D9B3309F0B5C18DECF1
:103940009CECACE4BDE38EA79FA7A8ABB9ABAAE003
:10395000B0E0BDA3ACA31AA219A2312C212CFE0108
:103960003196FA8FE98F9E01235F3F4F3F8F2E8F55
:1039700018A33D8D3BA3812C912C54011C8E1B8ED2
:1039800028EE33E0AE014D5E5F4F6BA18091820760
:103990000E949C1A6B897C89072E000C880B990B5E
:1039A0000E9407316B017C018D8D8B3371F4AB8DDF
:1039B000BC8D129751F420E030E040E856E4C70196
:1039C000B6010E94CC326B017C012601370177FAE7
:1039D000709477F87094C501B4010E9405314B01D1
:1039E0005C0120E030E0A901C701B6010E94E1338B
:1039F000181614F073016201A7019601C501B40104
:103A00000E94CD320E94B2334B015C012FE632E1BD
:103A100043E85AE3C301B2010E9466312AA53BA5DF
:103A20004CA55DA50E946631E98DFA8D208131811A
:103A3000428153810E94CD326B017C01A98DBA8DE8
:103A4000CD92DD92ED92FC9213972EA13FA148A555
:103A500059A5C301B2010E946631A70196010E94D7
:103A6000CD32133109F42AC120E030E040E05EE3BA
:103A70000E9466316B017C0120E030E0A9010E94C8
:103A8000E13320E030E040E05FE387FD12C1C70191
:103A9000B6010E94CD320E94AB336E7FEE8DFF8D5A
:103AA00080819181682B792B7C8B6B8BAE014D5E75
:103AB0005F4F68A1809182070E94A4182B8D3C8DD6
:103AC0002F5F3F4F3C8F2B8F3BA13E5F3BA388A1D5
:103AD000800F88A3AE8DBF8D1296BF8FAE8FE98DFC
:103AE000FA8D3496FA8FE98F2B8D3C8D233031057A
:103AF00009F046CF33E62316310471F489EE8816B7
:103B000083E09806A104B10438F06AE283ED95E001
:103B10000E946C14312C212CC501B4010E94053186
:103B20002EA53FA548A959A90E94663120E030E0A2
:103B300040EA50E40E94003187FF05C0A9A1BAA164
:103B40001196BAA3A9A3B4E68B169104A104B104FB
:103B500008F0D3C0EBE02E1631040CF4CEC029A13E
:103B60003AA12A3031050CF4C8C06EE283ED95E02D
:103B70000E946C1420E030E040E45FE36EA17FA17E
:103B800088A599A50E9466316EA37FA388A799A7EF
:103B900020E030E040E45FE36AA57BA58CA59DA50D
:103BA0000E9466316AA77BA78CA79DA7CE010D96C0
:103BB0007C01D12EDE0111963D01D3016D917D91E5
:103BC0008D919D913D01133109F4ABC020E030E0AF
:103BD00040E05EE30E9466314B015C0120E030E092
:103BE000A9010E94E13320E030E040E05FE387FD7F
:103BF00093C0C501B4010E94CD320E94AB336E7FE9
:103C0000F70180819181682B792B7C8B6B8BAE01C6
:103C10004D5E5F4F6D2D809182070E94A418D00EDB
:103C2000F2E0EF0EF11C2F89388D2615370529F6A5
:103C30008CA19DA101979DA38CA3892B09F08BCE0C
:103C400021E042E06AE6809182070E94CF1B21E0DA
:103C500043E06AE6809182070E94CF1BE1960FB68F
:103C6000F894DEBF0FBECDBFDF91CF911F910F91B2
:103C7000FF90EF90DF90CF90BF90AF909F908F908C
:103C80007F906F905F904F903F902F90089520E02D
:103C900030E040E850E40E946631EF89F88D60839F
:103CA00071838283938338CE80E090E0A0E8BFE305
:103CB0004ACEC701B6010E94CC32EDCE20E030E002
:103CC00040E85EE30E9466316B017C0120E030E059
:103CD000A9010E94E13320E030E040E05FE387FD8E
:103CE00007C0C701B6010E94CD320E94AB33DCCEC3
:103CF000C701B6010E94CC32F8CF61E070E080E0ED
:103D000090E00E94CA15BFEF2B1A3B0AE4E62E167C
:103D1000310409F024CE29CFC501B4010E94CC3270
:103D20006CCF20E030E040E85EE30E9466314B015A
:103D30005C0120E030E0A9010E94E13320E030E0A6
:103D400040E05FE387FD07C0C501B4010E94CD32AA
:103D50000E94AB335ACFC501B4010E94CC32F8CFD8
:103D6000BF92CF92DF92EF92FF920F931F93CF9368
:103D7000DF931F92CDB7DEB7F82EE62EC42EB22EFB
:103D8000D02E08EE13E09E012F5F3F4F41E00E94CE
:103D9000281B882371F18C2D8B19990BAC014F5F77
:103DA0005F4F81E090E002C0880F991FBA94E2F75C
:103DB0000197042E01C0880F0A94EAF70D2D01C067
:103DC000000F4A95EAF7482F4095998149238023AF
:103DD000482B49836E2D8F2D0E94F5180F90DF918F
:103DE000CF911F910F91FF90EF90DF90CF90BF90F8
:103DF000089580E0F3CFFC0101900020E9F73197AE
:103E0000AF01481B590BBC0183ED95E00C94CC131A
:103E100089E393E00C94FB1ECF93DF930E94BE14C2
:103E2000EC010E94081F8C0F9D1FDF91CF91089518
:103E3000CF93DF930E94B914EC010E94081F8C0FEE
:103E40009D1FDF91CF9108958F929F92AF92BF9265
:103E50000F931F93CF93DF93CDB7DEB7A1970FB624
:103E6000F894DEBF0FBECDBF19A2423008F44AE07D
:103E70008E010F5D1F4F842E912CB12CA12CA5011A
:103E800094010E949B32E62FB901CA01EA30F4F492
:103E9000E05DD801EE938D01232B242B252B79F7A0
:103EA00090E080E0109719F0CD010E94FB1EA196D2
:103EB0000FB6F894DEBF0FBECDBFDF91CF911F913B
:103EC0000F91BF90AF909F908F900895E95CE1CFE4
:103ED000CF92DF92EF92FF92CF93DF9397FF19C0BB
:103EE0006B017C018DE20E94B914EC0166277727F3
:103EF000CB016C197D098E099F094AE00E94241F9D
:103F00008C0F9D1FDF91CF91FF90EF90DF90CF90AE
:103F100008954AE0DF91CF91FF90EF90DF90CF902E
:103F20000C94241F85ED8093BC008091CB0590916B
:103F3000CC05A091CD05B091CE050796A11DB11D70
:103F400023E0B695A795979587952A95D1F7209167
:103F5000BC0024FD03C01092C90508954091CB0513
:103F60005091CC056091CD057091CE05452B462B27
:103F7000472B69F30097A105B10541F02AE22A9584
:103F8000F1F700C00197A109B109E1CF8091CA05FD
:103F90000C944E161F93CF93DF93EC01162F0E94C3
:103FA0002432181739F0612FCE01DF91CF911F9184
:103FB0000C942C32DF91CF911F910895DF92EF92F4
:103FC000FF920F931F93CF93DF93EC017B018A0144
:103FD000888199819C012150310939832883642F7C
:103FE0000E94CA1FD12C888199812D2D30E0201785
:103FF00031076CF42E0D3F1DF90160819C012150A9
:104000003109398328830E94CA1FD394ECCFBC01A5
:10401000990F880B990B0E94681FDF91CF911F9118
:104020000F91FF90EF90DF900C94081F1F93CF9398
:10403000DF93EC01172F0E94CA1F612FCE0101965A
:104040000E94CA1F66E070E080E090E0DF91CF91AF
:104050001F910C94CA150C9424322F923F924F92C8
:104060005F926F927F928F929F92AF92BF92CF9208
:10407000DF92EF92FF920F931F93CF93DF93CDB711
:10408000DEB769970FB6F894DEBF0FBECDBF6B01E8
:104090007C0140E050E060E773E48FE497E00E9429
:1040A000F919C0925807D0925907E0925A07F09236
:1040B0005B07C0925207D0925307E0925407F092E8
:1040C000550780EF90E0909357078093560780E064
:1040D00090E0A6E1B4E48093600790936107A09319
:1040E0006207B09363076CE382E191E00E94CA1F0C
:1040F00065E070E080E090E00E94CA156EEF8FE40A
:1041000097E00E948E19682F70E06F5F7F4F90E0FC
:1041100080E00E94053120E034E244E759E40E9447
:1041200066316B017C01609158077091590780914D
:104130005A0790915B070E9407319B01AC01C701B0
:10414000B6010E9439339B01AC0160E070E080E869
:104150009FE30E94393360935C0770935D078093FF
:104160005E0790935F0780E490E00E94DB2F9093BE
:1041700065078093640784EB90E09A87898724EF32
:1041800031E03E872D8784EC99E0988B8F874EE055
:1041900051E05A8349833E832D8398878F8385EF2F
:1041A00092E0988F8F8BE3E6F5E0FE8BED8B83E456
:1041B00095E09C8B8B8B30EAE32EF12C312C212C5B
:1041C00000E210E0EF89F88D81919191F88FEF8BEB
:1041D000009709F4E2C0019709F4E4C0E989FA897B
:1041E000C080D180C8010E942B20882E5801F0E1A8
:1041F000AF0EB11CC5010E942B20982E682D880C93
:10420000770B880B990B0E9407312B013C01692D1C
:10421000990C770B880B990B0E9407319B01AC011D
:10422000C301B2010E9466312B013C01B601D7FEE9
:1042300002C06F5F7F4F75956795072E000C880B46
:10424000990B0E9407319B01AC01C301B2010E948E
:10425000CD320E94AB332B01ED89FE8961937193BE
:10426000FE8BED8BC80140970E942B20982EC50134
:104270000E942B20898F692D990C770B880B990B45
:104280000E9407314B015C01F98D6F2FFF0F770BF7
:10429000880B990B0E9407319B01AC01C501B40149
:1042A0000E9466314B015C01B201052C000C880BA9
:1042B000990B0E9407319B01AC01C501B4010E941A
:1042C000CD320E94AB33EB89FC8971836083B201EC
:1042D000C801880F991F0E941620EB89FC89619103
:1042E0007191FC8BEB8BC701805491090E941620C1
:1042F000E989FA898681978124813581821B930B14
:10430000B6010E947035072E000C880B990B0E9495
:10431000073120915C0730915D0740915E07509115
:104320005F070E946631E0916407F0916507E20D36
:10433000F31D608371838283938320E030E04AE73A
:1043400054E40E9466310E94AB33C7010E941620DC
:104350000F5F1F4FF4E02F0E311C22E0E20EF11C24
:104360000033110509F02ECF69960FB6F894DEBF21
:104370000FBECDBFDF91CF911F910F91FF90EF90B6
:10438000DF90CF90BF90AF909F908F907F906F9075
:104390005F904F903F902F900895CE0109969A8B91
:1043A000898B1CCFFE013196FA8BE98B17CF2F92A8
:1043B0003F924F925F926F927F928F929F92AF92B5
:1043C000BF92CF92DF92EF92FF920F931F93CF9302
:1043D000DF93CDB7DEB767970FB6F894DEBF0FBE99
:1043E000CDBF6A877B878C879D872E873F87488BC9
:1043F000598BC801EF8A198269EC262E69E1362EA5
:1044000005EB19E188248A94982C5401E8E44E2E97
:10441000E8EE5E2E66246394712C9C01990F440B88
:10442000550B2A8B3B8B4C8B5D8B6E857F858889EA
:1044300099890E94B2336E837F838887998720E0B1
:1044400030E0A9016A857B858C859D850E940031BD
:10445000882309F419C22A853B854C855D8563E66E
:104460007CE987E89FE30E94E6336B017C01809141
:1044700000018530A9F5ECEEF9E1F491FE8BFE899F
:10448000F7FF78C06E817F81888599850E94CA1563
:1044900085E00E9479156A897B898C899D890E94B3
:1044A000CA1529812F5F29833F893213BECF6796B2
:1044B0000FB6F894DEBF0FBECDBFDF91CF911F9135
:1044C0000F91FF90EF90DF90CF90BF90AF909F90B3
:1044D0008F907F906F905F904F903F902F900895B6
:1044E0008F3F81F625E020930001ECEEF9E1F49195
:1044F000FE8BFF3F39F2F13009F40CC120F1F230AC
:1045000009F0BDCF1092B0001092B1008091B000C0
:1045100082608093B0008091B10081608093B1008F
:10452000F8018491E82FF0E0EE0FFF1FE456F64EFD
:10453000859194919093080580930705F1018491EA
:104540008093090517C014BC15BC84B5826084BD76
:1045500085B5816085BDF8018491E82FF0E0EE0F0C
:10456000FF1FE456F64E85919491F101849180935A
:1045700091041E8AF1014491F8018491882399F0F5
:1045800090E0880F991FFC01EE56F64EA591B4916C
:10459000FC01E456F64E259134918FB7F8949C9126
:1045A000492B4C938FBF20E030ED42E854E4C70123
:1045B000B6010E9466310E94B2336B01F12CE12CEE
:1045C00060E072E18AE790E0A70196010E943A322A
:1045D0002A833B834C835D83BA01A9014150510971
:1045E000610971098E898D7F09F00EC14F3F510518
:1045F0006105710509F00CF4EEC060E472E48FE02F
:1046000090E0A70196010E943A32BA01A9014150F7
:10461000510961097109FE89F23009F098C082E000
:104620004F3F51056105710509F00CF463C060E965
:1046300070ED83E090E0A70196010E943A32BA0142
:10464000A901415051096109710983E04F3F5105AA
:104650006105710509F00CF44DC0C301B201A70159
:1046600096010E943A32BA01A901415051096109EB
:10467000710984E04F3F510561057105D9F1D4F10D
:1046800064E274EF80E090E0A70196010E943A3264
:10469000BA01A901415051096109710985E04F3FF3
:1046A00051056105710531F128F162E17AE780E099
:1046B00090E0A70196010E943A32BA01A901415047
:1046C00051096109710986E04F3F51056105710586
:1046D00089F080F04A815B816C817D819AE07595DB
:1046E0006795579547959A95D1F7415051096109BA
:1046F000710987E09091B100987F892B8093B10078
:10470000FE89F13009F49EC0F23009F4ADC0F11118
:10471000B9CE69C010928000109281008091810012
:104720008860809381008091810081608093810006
:10473000F8018491E82FF0E0EE0FFF1FE456F64EEB
:1047400085919491F10184918093900413CF4F3F10
:1047500051056105710509F00CF454C0C301B201A3
:10476000A70196010E943A32BA01A90141505109AC
:10477000610971092E8984E0211191CF83E04F3FB7
:1047800051056105710559F154F162E17AE780E064
:1047900090E0A70196010E943A32BA01A901415066
:1047A00051096109710984E04F3F510561057105A7
:1047B000B1F0A8F04A815B816C817D818AE07595BA
:1047C0006795579547958A95D1F7415051096109E9
:1047D000710985E004C081E03E8931118BCF95B528
:1047E000987F892B85BD47BD80929604909297044F
:1047F000A0929804B092990480916E008260809398
:104800006E0040CE82E0E8CF91E04115510581E095
:10481000680771056CF0C301B201A70196010E94FF
:104820003A32BA01A901415051096109710993E075
:10483000EE89E13009F064CF80918100887F892B77
:104840008093810050938900409388008092920465
:1048500090929304A0929404B092950480916F007A
:10486000826080936F000ECE4093B30080920A0561
:1048700090920B05A0920C05B0920D0580917000EE
:10488000826080937000FECD6E817F8188859985DE
:104890000E94CA15F7CD1F920F920FB60F921124E6
:1048A0002F933F934F935F936F937F938F939F9338
:1048B000AF93BF93EF93FF9380910A0590910B05FF
:1048C000A0910C05B0910D05892B8A2B8B2BD1F172
:1048D00090910905E0910705F091080580818927ED
:1048E000808380910A0590910B05A0910C05B091F1
:1048F0000D05181619061A061B069CF480910A0568
:1049000090910B05A0910C05B0910D050197A1099F
:10491000B10980930A0590930B05A0930C05B09301
:104920000D05FF91EF91BF91AF919F918F917F9175
:104930006F915F914F913F912F910F900FBE0F900C
:104940001F901895809100010E947915EACF1F925F
:104950000F920FB60F9211242F933F934F935F93B3
:104960006F937F938F939F93AF93BF93EF93FF9337
:1049700083ED95E00E944A14FF91EF91BF91AF91B2
:104980009F918F917F916F915F914F913F912F9167
:104990000F900FBE0F901F9018951F920F920FB699
:1049A0000F9211242F938F939F93EF93FF93E09196
:1049B000E305F091E4058081E091E905F091EA05D5
:1049C00082FD1BC090818091EC058F5F8F732091D9
:1049D000ED05821741F0E091EC05F0E0ED52FA4F61
:1049E000958F8093EC05FF91EF919F918F912F917F
:1049F0000F900FBE0F901F9018958081F4CF1F92DB
:104A00000F920FB60F9211242F933F938F939F9382
:104A1000AF93BF938091FF0490910005A091010591
:104A2000B09102053091FE0423E0230F2D3758F595
:104A30000196A11DB11D2093FE048093FF04909365
:104A40000005A0930105B0930205809103059091A4
:104A50000405A0910505B09106050196A11DB11DA3
:104A60008093030590930405A0930505B093060574
:104A7000BF91AF919F918F913F912F910F900FBE5A
:104A80000F901F90189526E8230F0296A11DB11DC7
:104A9000D2CF1F920F920FB60F9211242F933F93F4
:104AA0004F935F936F937F938F939F93AF93BF9336
:104AB000EF93FF938091B900887F803609F44AC054
:104AC000F0F5883209F4A7C018F5803109F49BC0CD
:104AD000B8F4882309F4F9C0883009F494C0FF9130
:104AE000EF91BF91AF919F918F917F916F915F9166
:104AF0004F913F912F910F900FBE0F901F901895DF
:104B0000883109F488C0803251F78093A70514C01A
:104B1000803409F49DC040F48033B9F38833F9F64A
:104B20008093A70585ECB0C0803509F485C0883531
:104B300009F496C0883499F60E94921FD0CF883924
:104B400009F48CC038F5883729F050F4883611F014
:104B5000803729F683E08093C9051092FD0457C081
:104B6000883809F47BC0803919F0803809F0B7CF54
:104B70008091FD04803208F071C0E091FD0481E075
:104B80008E0F8093FD048091BB00F0E0E352FB4F59
:104B900080833DC0803B39F0E0F4803A09F479C06D
:104BA000883A09F09CCF84E08093C9051092DC0418
:104BB0001092DB04E0912605F0912705099580917C
:104BC000DB0481110FC081E08093DB041092BB04F1
:104BD00009C0803C09F4A6CF883C09F4A3CF883BE8
:104BE00009F07DCFE091DC0481E08E0F8093DC043E
:104BF000F0E0E554FB4F80818093BB009091DC0492
:104C00008091DB0429C08091A4058093BB0085ECD2
:104C10008093BC0064CF9091A6058091A50598175C
:104C200058F5E091A60581E08E0F8093A605F0E08F
:104C3000ED57FA4F8081E9CFE091A60581E08E0F14
:104C40008093A6058091BB00F0E0ED57FA4F80837A
:104C50009091A6058091A5059817C8F285E8D8CF50
:104C6000E091A60581E08E0F8093A6058091BB00A0
:104C7000F0E0ED57FA4F80838091A80581115CCF59
:104C800081E08093A30584EA8093BC001092C9055B
:104C900026CF85EC8093BC001092C9058091FD045D
:104CA000803230F4E091FD04F0E0E352FB4F1082DB
:104CB0006091FD0470E0E0912405F09125058DEDF3
:104CC00094E009951092FD040ACF1092A70534CF05
:104CD0001F920F920FB60F9211242F933F934F9371
:104CE0005F936F937F938F939F93AF93BF93EF9354
:104CF000FF9380917D060E942215209182063091BB
:104D000083062F5F3F4F30938306209382062091C6
:104D10008006309181062536310518F094E0909395
:104D20007C0690917C06911130C0811169C0209160
:104D30008206309183062436310528F410928306CA
:104D4000109282065DC010924E071092810610925A
:104D500080062091800630918106A9014F5F5F4F48
:104D600050938106409380064091820650918306BD
:104D7000220F331FF901EC57F94F518340831092F2
:104D800083061092820691E021C090917C069130BA
:104D900001F58130A9F52091800630918106A901A5
:104DA0004F5F5F4F5093810640938006409182068B
:104DB00050918306220F331FF901EC57F94F5183AD
:104DC0004083109283061092820692E090937C06B4
:104DD00017C090917C06923061F4882309F4B9CF12
:104DE00020918206309183062536310548F093E004
:104DF000EDCF90917C06933099F4882309F49ECFEF
:104E000090917F069923A9F0811124C080917E069C
:104E1000882371F080917E0661E00E944B1509C0E5
:104E200090917C06943061F791E090934E07DFCF2C
:104E30002D9AFF91EF91BF91AF919F918F917F91AB
:104E40006F915F914F913F912F910F900FBE0F90F7
:104E50001F90189580917E06882321F080917E0610
:104E600060E0DBCF2D98E5CF1092D6051092D505E6
:104E700088EE93E0A0E0B0E08093D7059093D8054A
:104E8000A093D905B093DA0529E133E03093D40536
:104E90002093D30525EC30E03093E0052093DF0527
:104EA00024EC30E03093E2052093E10520EC30E083
:104EB0003093E4052093E30521EC30E03093E605E0
:104EC0002093E50522EC30E03093E8052093E705D8
:104ED00026EC30E03093EA052093E9051092EC05CA
:104EE0001092ED051092EE051092EF0510927306E8
:104EF000109272068093740690937506A0937606BE
:104F0000B09377068BE293E09093710680937006DE
:104F100084E080937D0610927F061092960710928F
:104F20009507109298071092970710929A0710927F
:104F3000990763E070E090E080E00E949E35009762
:104F400009F1909396078093950722E030E0309323
:104F50009807209397072091990730919A07232B60
:104F600011F4DC011C9282E090E090939A07809308
:104F700099076CE373E080919507909196070E94E2
:104F8000713614C08091950790919607009711F0A3
:104F90000E947730109296071092950710929A0708
:104FA00010929907109298071092970788E68093BD
:104FB000820780E090E0A0E8BFE3809372079093BF
:104FC0007307A0937407B093750710927607109239
:104FD0007707109278071092790710927A0710924B
:104FE0007B0710927C0710927D0710927E0710922B
:104FF0007F07109280071092810710926607109227
:105000006707109268071092690710926A0710925A
:105010006B0710926C0710926D0710926E0710923A
:105020006F071092700710927107E5E5F7E081E1D4
:10503000DF011D928A95E9F780E480934F0780E7AE
:1050400096E090935107809350070895CF93DF9394
:10505000CDB7DEB72F970FB6F894DEBF0FBECDBF2A
:10506000789484B5826084BD84B5816084BD85B543
:10507000826085BD85B5816085BD80916E0081604F
:1050800080936E00109281008091810082608093F5
:1050900081008091810081608093810080918000F7
:1050A0008160809380008091B10084608093B10022
:1050B0008091B00081608093B00080917A0084601C
:1050C00080937A0080917A00826080937A00809148
:1050D0007A00816080937A0080917A008068809362
:1050E0007A001092C100E091E305F091E40582E0BE
:1050F0008083E091DF05F091E0051082E091E10509
:10510000F091E20580E180831092EB05E091E705E4
:10511000F091E80586E08083E091E505F091E605F1
:10512000808180618083E091E505F091E6058081D2
:1051300088608083E091E505F091E60580818068D4
:105140008083E091E505F091E60580818F7D808385
:1051500085E090E0A0E0B0E08093D7059093D8057B
:10516000A093D905B093DA0510924205109241053B
:105170001092D0051092CF050E9430168AEC93E170
:1051800090932705809326058BEC93E1909325055A
:105190008093240588E08093B8008FE69AE10E940E
:1051A0000C1F8DE59AE10E940C1FEE24E39410E0A1
:1051B00000E020E030E048E452E460E070E080EAA3
:1051C00091E40E94D7218FEF93E09A83898344E191
:1051D00050E063E471E0CE0101960E94DE1F48E1D9
:1051E00050E06BE271E0CE0101960E94DE1F4AE0C2
:1051F00050E061E271E0CE0101960E94DE1F40E2C4
:1052000050E061E071E0CE0101960E94DE1F8AEE5F
:1052100093E00E942B20869549EEC42E43E0D42EC5
:10522000A82EB12C59EE652E53E0752E68EE862E11
:1052300063E0962EC3018C199D098A159B054CF5D8
:10524000C6018A199B090E942B20082FC6010E94C3
:105250002B20182F602F70E0C4010E947035072E9C
:10526000000C880B990B0E9407311B012C01612F48
:1052700070E090E080E00E940531EE24E39410E0BD
:1052800000E0A20191010E94D72121E0C21AD108B9
:10529000D1CF8DEE99E10E940C1F0E946E19382E1D
:1052A0000E94181F2DE9822E21E0922E8DE292E0BD
:1052B0009E878D87EDE1F2E0FC87EB878DE392E03E
:1052C0009E838D8300E210E0E0ECF0E0F887EF834E
:1052D00032E8E32EF12CE89435F83F868D819E81EB
:1052E0008D5392406C019F85993541F4F801E85F38
:1052F000FA4F6081C80140970E94CA1FED81FE816C
:105300006191FE83ED83C6010E94CA1FED85FE8573
:105310006191FE87ED87C8010E94CA1FEB85FC855D
:105320006191FC87EB87C80140960E94CA1F670104
:10533000F2E0CF1AD1088F81988583569F4F9A87C4
:105340008987AF80B8841401F10141905190619038
:1053500071901F0120E030E0A901C301B2010E9459
:10536000E13320E030E040E05FE387FDA3C0C3010C
:10537000B2010E94CD320E94AB33C6010E94CA1F07
:10538000E985FA8561917191FA87E987C5010E94E3
:105390001620FFEFCF1ADF0A22E0A20EB11CEC1498
:1053A000FD0491F66AE070E080E090E00E94CA158A
:1053B00082E0E80EF11C98E0890E911CEF81F885DF
:1053C0003496F887EF830F5F1F4FE115F14009F026
:1053D00085CF88E199E20FB6F894A8958093600094
:1053E0000FBE9093600081E59AE10E940C1F6AE273
:1053F00085E191E00E94CA1F90E2C92ED12C1D8246
:10540000512C412C8D81682E712C85E191E00E94F8
:105410002B20082E000C990B681679060CF0F8C0AA
:10542000660C771CF301EF55FD4FA080B180F501AC
:1054300001900020E9F78F01015011090A191B0999
:105440000987C20101969C878B876FEF600F815C93
:105450009E4F0E94CA1F1127180191E0291A310896
:105460002A0C3B1CF1018081893409F44FC58FE37C
:1054700093E00E94FB1E45018FEB481A8EEF580AFD
:10548000F201EA19FB09FE87ED87ED84FE84E80C42
:10549000F91C882D8A19F9858F1788F4F4018191F8
:1054A0004F010E94B914F40131976081C7010E9435
:1054B000CA1FEBCFC301B2010E94CC325CCFAB84D8
:1054C000BC84A00EB11E040D151D0E94081FF3011F
:1054D000E35BFD4F80809180F4016491C8010E94DC
:1054E000CA1F80910E05811160C0F101808189344D
:1054F00009F05BC0B601C5018F5B9E4F0E9416206C
:10550000F40184918093130507E024E1181634F424
:1055100004E028E0813011F404E020E12093180534
:10552000082E000C990B97FF03C091958195910966
:10553000289FA001299F500D1124040F152F111D24
:105540000F5F1F4F612C712C84E50E94B9136D2DE4
:1055500080E796E00E948E176C2D80E796E00E940F
:105560008E172601F0E14F0E511C73016C187D0857
:10557000680C791CC11420E2D206F9F40E94081FBD
:1055800087E09AE10E940C1F81E080930E0502E003
:10559000E02E02E310E020E030E048EC52E460E06E
:1055A00070E080E291E40E94D7212501F3E04F0EE4
:1055B000511C2D812F5F2D8325CF9FEFE91AF90A0A
:1055C000F301EC0DFD1D649180E796E00E948E17BB
:1055D000EFEFCE1ADE0A01501109101611064CF435
:1055E000C6018F719927892B21F0C414D50409F0C5
:1055F000C1CF80E796E00E94BD176AE070E080E0CE
:1056000090E00E94CA15101611067CF637019CCF57
:10561000B60186E191E00E9416200E94081F81E4F5
:105620009AE10E94BE1460E270E080E090E00E9487
:10563000681F8EE70E94B914B60190E080E04AE04E
:105640000E94241F8FE20E94B91460E070E280E0A3
:1056500090E00E94681F81E39AE10E940C1FA895C8
:1056600089EA9AE10E94BE1418E2E12E15E0F12EBB
:1056700000E110E0C8010E942B20F70181937F0117
:105680000F5F1F4F00321105A9F7109242051092CB
:1056900041051092D0051092CF050E9430168AEC79
:1056A00093E190932705809326058BEC93E19093EB
:1056B00025058093240540E860E08FE497E00E9490
:1056C00005196AE070E080E090E00E94CA1540E0B1
:1056D00050E06AE774E48FE497E00E94F91980E4EF
:1056E00098E7ADE7B1E08093520790935307A093FA
:1056F0005407B093550783E191E00E942B20182FA7
:1057000084E191E00E942B2090E0982F8827810F60
:10571000911D092E000CAA0BBB0B80933C059093A6
:105720003D05A0933E05B0933F05885D9945A109CD
:10573000B10985399141A105B10560F088EA91E68A
:10574000A0E0B0E080933C0590933D05A0933E051A
:10575000B0933F0560913C0570913D0580913E05F9
:1057600090913F050E94073120E030E04AE754E481
:105770000E9439336B017C014B015C01AC019B0140
:105780000E943634882309F40BC186E593E00E9419
:10579000FB1E85EA9AE10E940C1F20913C05309186
:1057A0003D0540913E0550913F05A8EEB3E00E94B3
:1057B00059320E942D2010E040E050E1612F8FE42B
:1057C00097E00E9432191F5F1031B1F788E19FE026
:1057D0000FB6F894A895809360000FBE9093600078
:1057E00064E670E080E090E00E94CA1589E097E2EC
:1057F0000E940C1F01E023E042E06BE680918207EB
:105800000E94B01E00E022E044E06BE1809182073C
:105810000E94B01E22E044E06CE1809182070E9469
:10582000B01E20E046E06BE6809182070E94CF1B0D
:105830000E94021C843311F08C3091F611E01B831E
:1058400021E047E06BE6809182070E94CF1B64E66F
:1058500070E080E090E00E94CA1587E08B8307E04B
:1058600023E042E06AE6809182070E94B01E64E66F
:1058700070E080E090E00E94CA151B839E012D5FBE
:105880003F4F41E06BE6809182070E94C9181B825E
:105890009E012D5F3F4F41E068E3809182070E94A7
:1058A000C9181B829E012D5F3F4F41E063E280914A
:1058B00082070E94C9181B829E012D5F3F4F41E065
:1058C0006CE1809182070E94C91880E88B839E0159
:1058D0002D5F3F4F41E067E3809182070E94C91826
:1058E0001B839E012D5F3F4F41E06BE68091820755
:1058F0000E94C91884E08B839E012D5F3F4F41E0D9
:1059000069E1809182070E94C9181B839E012D5F67
:105910003F4F41E06AE1809182070E94C91840E050
:105920006DE6809182070E94F51840E06EE6809156
:1059300082070E94F51880E190E00E94DB2F5C0155
:1059400080E190E00E94DB2F2C01312CE12CD12C46
:10595000C12CF6EF2F2E612C77247394C60140964C
:10596000F22CFC18873F9B4010F4E0E1FE2EC301AF
:105970008E199109F816190619F014F0FE2CF194FD
:10598000D20190E080E096012954354E8F1508F041
:1059900097C0F901E80FF91FE491ED930196F6CF56
:1059A00026013701E89477F82FEF3FEF4FE75FE7E5
:1059B000C301B2010E94363481110DC02FEF3FEFB9
:1059C0004FE75FE7C301B2010E94003118161CF4D3
:1059D0008AE593E0DCCE2FEF3FEF4FE75FE4C701AE
:1059E000B6010E94E13318161CF48EE593E0CFCE89
:1059F0002FEF3FEF4FE75FECC701B6010E94003188
:105A000087FDF3CF20E030E0A901C701B6010E9475
:105A1000003187FF09C08DE20E94B9144601570189
:105A2000B7FAB094B7F8B0942AE037ED43EA5BE3F5
:105A3000C501B4010E94CD324B015C010E94B2331A
:105A40006B017C010E9405319B01AC01C501B401D1
:105A50000E94CC324B015C014AE0C701B6010E94B2
:105A6000241F8EE20E94B91420E030E040E251E4AD
:105A7000C501B4010E9466314B015C010E94B23342
:105A80006B01F12CE12C4AE0C701B6010E94241FF2
:105A9000C701B6010E9405319B01AC01C501B401EB
:105AA0000E94CC3220E030E040E251E40E946631B6
:105AB0000E94B23390E080E04AE00E94241F69CE49
:105AC00092014F2D6FE6809182070E94C9188F2C9A
:105AD000912CA114B10409F4D9C1432D4F716DE685
