:100000000C943E070C9466070C9466070C946607E4
:100010000C9466070C9466070C9466070C94C61F34
:100020000C9466070C9466070C9466070C94E32105
:100030000C9466070C9466070C9466070C9466078C
:100040000C947A200C9466070C9448200C9422207F
:100050000C9466070C9466070C9466070C9466076C
:100060000C94C4200C946607084AD73B3BCE016E23
:1000700084BCBFFDC12F3D6C74319ABD56833DDAFF
:100080003D00C77F11BED9E4BB4C3E916BAAAABE0E
:10009000000000803F05A84CCDB2D44EB93836A937
:1000A000020C50B9918688083CA6AAAA2ABE000074
:1000B00000803F07634236B79BD8A71A39685618A5
:1000C000AEBAAB558C1D3CB7CC5763BD6DEDFD751D
:1000D0003EF6177231BF000000803F08000000BEEE
:1000E000922449123EABAAAA2ABECDCCCC4C3E00EB
:1000F000000080BEABAAAAAA3E00000000BF00001C
:1001000000803F0000000000084178D3BB4387D146
:10011000133D190E3CC3BD4282AD2B3E68EC827686
:10012000BED98FE1A93E4C80EFFFBE01C4FF7F3FE7
:1001300000000000000001000001000000000000BD
:10014000000000000000000000006B737472007576
:1001500020006B6869006B7075006B7369740069CF
:1001600052616E6400000000002300260029000098
:10017000000000240027002A0000000008000201FF
:100180000000030407000000000000000000F8F673
:100190002A3F68F57A0006FFFE00030000006500B4
:1001A00054FFEF0000FA80000B12820001030C30B4
:1001B000C30A74562D0D62DBC716F4BA023883F8F1
:1001C000833000F883258EF8833000F883FFFFFF2B
:1001D000FF0CBDD811240004001A8279A10036005A
:1001E0003C000000000010000038836FA2003E03B6
:1001F000304000000002CAE3093E800000200000F9
:10020000000000000040000000600000001FA4E8A3
:10021000E4FFF5DCB9005B79CF1F3F787600867C80
:100220005A00862347FAB986310074878A00000095
:100230000000004305FFFFE9A800002182FAB84D45
:1002400046FFFADF3DFFFFB2B3000000003FFFBAF8
:1002500098005DAC08000A637800014621FFFF00AA
:1002600000000042B50006006400640006140602A7
:100270009F0F479132D90E9FC91DCF4C343BB67AA0
:10028000E80064000600C800000000FFFE10000047
:100290000000000000000000000000000000070057
:1002A00000FFF10000FA460000A2B80000100000B4
:1002B0000004D6000004CC000004CC0000000000C4
:1002C0000000000000000000000000000000060028
:1002D00002000500070000000000640000000000AC
:1002E000000000000C000500640020000000000079
:1002F00000000000000000400000000300000000BB
:1003000032F8980000FF650000830F00000006002F
:1003100000FFF10000FA460000A2B8000000000053
:1003200000000000000000000000000000000000CD
:10033000320000000000000000000010000000007B
:10034000010000000D0000B26A000200000001FB85
:1003500083007C0000FB15FC001FB4FF830000003D
:100360000100650007006403E8006400280000FF46
:10037000FD0000000016A0000000000000000010BA
:1003800000002F0000000001F40000100000280011
:1003900000FFFF4581FFFFFA72000000000000002F
:1003A00000004400010005BAC6004778A200000022
:1003B0000000000000000006000000001400002300
:1003C000BB002EA25B00000568000BCF490004FFB4
:1003D000FD000200000000000200000000001B0001
:1003E00000000000000000000000000000006400A9
:1003F00007000800060006FFFE00000000000000E5
:1004000000000000000000000000000000000000EC
:1004100000000000000000000000000000000000DC
:1004200000000000000000000000000000002EA2FC
:100430005B00000568000BCF490000000000F8F6E3
:100440002A3F68F57A0004FFFD00020000001B004F
:10045000000000000000000000000E000EFFFFFF83
:10046000CF0004000000000032FFFFFF9C000043AB
:1004700005000000000000000100000064FFE5002E
:10048000000000000000000000000000000000006C
:1004900001000000000001000000000000000180D9
:1004A000000001800000018000002426D30001002C
:1004B0000100000000000600100096003C00000053
:1004C0000000000000000000001F9E655D0C0A4E49
:1004D00068CDCF770950166759C619CE8200000043
:1004E0000000000000000000000047711C00000038
:1004F000000000000017D78400030000000011DC9A
:100500004703000000C7938F9D1E1B1C19FFFFFFB0
:10051000FF000000000EDFA4381F9E655D00000094
:10052000000047711C020318850000400000000015
:10053000000000000300000000000000003FFFFF7B
:10054000FDFFFFF4C9FFFFBCF000010C0F0000002D
:10055000000000000000000000000000000000009B
:1005600000000000000000000000000000F5B7BA25
:10057000B3677DDF7E72902E554CF6E68800000052
:1005800000000000000000000000000000D8DCB403
:10059000B8B0D8B9ABF3F8FAB3B7BB8E9EAEF132B0
:1005A000F51BF1B4B8B08097F1A9DFDFDFAADFDF78
:1005B000DFF2AA4CCD6CA90CC92C97F1A98926466B
:1005C00066B28999A92D557DB0B08AA8963656761F
:1005D000F1BAA3B4B280C0B8A89711B28398BAA3F5
:1005E000F0240844106418B2B9B49883F1A32955D3
:1005F0007DBAB5B1A38393F0002850F5B2B6AA83B3
:100600009328547CF1B9A3829361BAA2DADEDFDBCE
:10061000819AB9AEF5606870F1DABAA2DFD9BAA2F0
:10062000FAB9A38292DB31BAA2D9BAA2F8DF85A4C3
:10063000D0C1BBAD83C2C5C7B8A2DFDFDFBAA0DFC0
:10064000DFDFD8D8F1B8AAB38DB4980D355DB2B656
:10065000BAAF8C96198F9FA70E161EB49AB8AA87A8
:100660002C547CBAA4B08AB691325676B28494A443
:10067000C808CDD8B8B4B0F19982A82D557D98A8F6
:100680000E161EA22C547C92A4F02C5078F184A853
:1006900098C4CDFCD80DDBA8FC2DF3D9BAA6F8DAA6
:1006A000BAA6DED8BAB2B68696A6D0F3C841DAA604
:1006B000C8F8D8B0B4B882A892F52C548898F1350F
:1006C000D9F418D8F1A2D0F8F9A884D9C7DFF8F87E
:1006D00083C5DADF69DF83C1D8F40114F1A8824E43
:1006E000A884F311D182F5D992289788F109F41CD6
:1006F0001CD884A8F3C0F9D1D99782F129F40DD878
:10070000F3F9F9D1D982F4C203D8DEDF1AD8F1A205
:10071000FAF9A88498D9C7DFF8F8F883C7DADF694F
:10072000DFF883C3D8F40114F198A8822EA884F3CB
:1007300011D182F5D992509788F109F41CD884A878
:10074000F3C0F8F9D1D99782F149F40DD8F3F9F94A
:10075000D1D982F4C403D8DEDFD8F1AD8898CCA813
:1007600009F9D98292A8F57CF1883ACF944A6E981B
:10077000DB6931DAADF2DEF9D88795A8F221D1DA5A
:10078000A5F9F417D9F1AE8ED0C0C3AE82C684C32A
:10079000A88595C8A588F2C0F1F4010EF18E9EA837
:1007A000C63E56F554F18872F40115F19845856EF0
:1007B000F58E9E0488F142985A8E9E068869F4014F
:1007C0001CF1981E1108D0F504F11E97020298360C
:1007D00025DBF9D985A5F3C1DA85A5F3DFD88595A1
:1007E000A8F309DAA5FAD88292A8F578F1881A84D4
:1007F0009F26889821DAF41DF3D8879F39D1AFD985
:10080000DFDFFBF9F40CF3D8FAD0F8DAF9F9D0DF2E
:10081000D9F9D8F40BD8F3879F39D1AFD9DFDFF4FA
:100820001DF3D8FAFCA869F9F9AFD0DADEFAD9F8E5
:100830008F9FA8F1CCF398DB45D9AFDFD0F8D8F182
:100840008F9FA8CAF38809DAAF8FCBF8D8F2AD979B
:100850008D0CD9A5DFF9BAA6F3FAF412F2D8950DEA
:10086000D1D9BAA6F3FADAA5F2C1BAA6F3DFD8F164
:10087000BAB2B68696A6D0CAF349DAA6CBF8D8B0F3
:10088000B4B8D8AD84F2C0DFF18FCBC3A8B2B686BE
:1008900096C8C1CBC3F3B0B48898A821DB718D9DF5
:1008A00071859521D9ADF2FAD88597A828D9F40891
:1008B000D8F28D29DAF405D9F285A4C2F2D8A88D30
:1008C0009401D1D9F411F2D88721D8F40AD8F2844E
:1008D00098A8C801D1D9F411D8F3A4C8BBAFD0F2FD
:1008E000DEF8F8F8F8F8F8F8F8D8F1B8F6B5B9B0D5
:1008F0008A95A3DE3CA3D9F8D85CA3D9F8D87CA309
:10090000D9F8D8F8F9D1A5D9DFDAFAD8B18530F716
:10091000D9DED8F830ADDADED8F2B48C99A32D55F3
:100920007DA083DFDFDFB591A0F629D9FBD8A0FC3D
:1009300029D9FAD8A0D051D9F8D8FC51D9F9D87909
:10094000D9FBD8A0D0FC79D9FAD8A1F9F9F9F9F9ED
:10095000A0DADFDFDFD8A1F8F8F8F8F8ACDEF8AD00
:10096000DE8393AC2C547CF1A8DFDFDFF69D2CDA1C
:10097000A0DFD9FADB2DF8D8A850DAA0D0DED9D084
:10098000F8F8F8DB55F8D8A878DAA0D0DFD9D0FA93
:10099000F8F8F8F8DB7DF8D89CA88CF530DB38D96E
:1009A000D0DEDFA0D0DEDFD8A848DB58D9DFD0DE2C
:1009B000A0DFD0DED8A868DB70D9DFDFA0DFDFD80A
:1009C000F1A888902C547C98A8D05C38D1DAF2AE8B
:1009D0008CDFF9D8B087A8C1C1B188A8C6F9F9DA07
:1009E00036D8A8F9DA36D8A8F9DA36D8A8F9DA3636
:1009F000D8A8F9DA36D8F78D9DADF818DAF2AEDF5F
:100A0000D8F7ADFA30D9A4DEF9D8F2AEDEFAF98320
:100A1000A7D9C3C5C7F1889BA77AADF7DEDFA4F8D5
:100A2000849408A797F300AEF29819A488C6A394FB
:100A300088F632DFF28393DB09D9F2AADFD8D8AE89
:100A4000F8F9D1DAF3A4DEA7F1889B7AD8F384947D
:100A5000AE19F9DAAAF1DFD8A881C0C3C5C7A3923D
:100A600083F628ADDED9F8D8A350ADD9F8D8A3784D
:100A7000ADD9F8D8F8F9D1A1DADEC3C5C7D8A181BC
:100A800094F818F2B089ACC3C5C7F1D8B8B4B09720
:100A900086A8319B069907AB9728889BF00C2014F9
:100AA00040B0B4B8F0A88A9A285078B79BA82951CA
:100AB00079247059446938644831F1BBAB88002C03
:100AC000547CF0B38BB8A804285078F1B088B49760
:100AD00026A85998BBABB38B02264666B0B8F08AFD
:100AE0009CA82951798B2951798A2470598B2058D7
:100AF000718A4469388B3940688A6448318B30493F
:100B00006088F1AC002C547CF08CA804285078F15B
:100B1000889726A85998AC8C02264666F0899CA82E
:100B2000295179247059446938644831A9880920C9
:100B30005970AB11384069A8193148608CA83C4104
:100B40005C207C00F187981986A86E767EA999882A
:100B50002D557DD8B1B5B9A3DFDFDFAED0DFAAD088
:100B6000DEF2ABF8F9D9B087C4AAF1DFDFBBAFDFA3
:100B7000DFB9D8B1F1A3978E60DFB084F2C8F8F97D
:100B8000D9DED89385F14AB183A308B5839A0810BA
:100B9000B79F10D8F1B0BAAEB08AC2B2B68E9EF18D
:100BA000FBD9F41DD8F9D90CF1D8F8F8AD61D9AE5C
:100BB000FBD8F40CF1D8F8F8AD19D9AEFBDFD8F4B6
:100BC00016F1D8F8AD8D61D9F4F4ACF59C9C8DDFAD
:100BD0002BBAB6AEFAF8F40BD8F1AED0F8AD51DAC4
:100BE000AEFAF8F1D8B9B1B6A3839C08B9B1839A2B
:100BF000B5AAC0FD3083B79F10B58B93F20202D126
:100C0000ABDADED8F1B080BAABC0C3B284C1C3D80E
:100C1000B1B9F38BA391B609B4D9ABDEB0879CB957
:100C2000A3DDF1B38B8B8B8B8BB08720283038B250
:100C30008BB69BF2A3C0C8C2C4CCC6A3A3A3F1B019
:100C400087B59AD8F39BA3A3DCBAACDFB9A3FEF2B5
:100C5000ABC4AAF1DFDFBBAFDFDFA3A3A3D8D8D833
:100C6000BBB3B7F1AAF9DAFFD9809AAA28B4809861
:100C7000A720B79787A86688F07951F1902C870C48
:100C8000A781976293F071716085940129517990E1
:100C9000A5F1284C6C870C95188578A38390284C77
:100CA0006C886CD8F3A28200F210A8921980A2F28C
:100CB000D926D8F188A84DD948D896A83980D93CEA
:100CC000D89580A839A68698D92CDA87A72CD8A8D9
:100CD000899519A980D938D8A88939A980DA3CD84A
:100CE000A82EA83990D90CD8A8953198D90CD8A895
:100CF00009D9FFD801DAFFD89539A9DA26FFD890AB
:100D0000A80D8999A810809821DA2ED88999A83140
:100D100080DA2ED8A886963180DA2ED8A88731803E
:100D2000DA2ED8A88292F34180F1D92ED8A882F386
:100D30001980F1D92ED882ACF3C0A28022F1A62E60
:100D4000A72EA92298A829DAACDEFFD8A2F22AF1B0
:100D5000A92E8292A8F23180A696F1D900AC8C9C83
:100D60000C30ACDED0DEFFD88C9CACD010ACDE807A
:100D700092A2F24C82A8F1CAF235F19688A6D90067
:100D8000D8F1FF444D50206661696C65642028638A
:100D90006F64652000496E697420494D55004D48C7
:100DA0007A00496E697420736572766F733A200019
:100DB0004C6F616420736B696C6C73005265616485
:100DC0007921004E7962626C65000A2A20537461B1
:100DD0007274202A004C6F7720706F7765723A002A
:100DE0007A65726F00627574745570007374616E09
:100DF0006400706565007075006869007374720046
:100E000073697400747200776B006372007674000B
:100E1000630042007000520062616C616E636500A5
:100E20004C006700460064005F015A015601520100
:100E30004F014A0161626F72746564007361766587
:100E400064003F00010204081020408001020408F1
:100E500010200102040810200000000025002800D6
:100E60002B0004040404040404040202020202022B
:100E70000303030303030200D022DF3311241FBE48
:100E8000CFEFD8E0DEBFCDBF11E0A0E0B1E0E2E4FB
:100E9000FAE702C005900D92A23AB107D9F725E012
:100EA000A2EAB1E001C01D92A833B207E1F717E052
:100EB000CDE3D7E004C02197FE010E94F23BCC3382
:100EC000D107C9F70E9464230C94143D0C940000D0
:100ED00091E09093630380936203109261031092F8
:100EE000600308958091E8029091E902891B990BB3
:100EF0000895089508950895AF92BF92CF92DF921A
:100F0000EF92FF920F931F93CF93DF936C017B01BE
:100F10008B01040F151FEB015E01AE18BF08C0174F
:100F2000D10759F06991D601ED91FC910190F081C2
:100F3000E02DC6010995892B79F7C501DF91CF9185
:100F40001F910F91FF90EF90DF90CF90BF90AF90E7
:100F50000895FC01538D448D252F30E0842F90E0BF
:100F6000821B930B541710F0CF96089501970895A4
:100F7000FC01918D828D981761F0A28DAE0FBF2F6D
:100F8000B11D5D968C91928D9F5F9F73928F90E0C3
:100F900008958FEF9FEF0895FC01918D828D981732
:100FA00031F0828DE80FF11D858D90E008958FEF6F
:100FB0009FEF0895FC01918D228D892F90E0805C38
:100FC0009F4F821B91098F739927089584E693E0C0
:100FD0000E94DA0721E0892B09F420E0822F08958E
:100FE00080E090E0892B29F00E94E60781110C94A3
:100FF00000000895FC01A48DA80FB92FB11DA35ABC
:10100000BF4F2C91848D90E001968F739927848F28
:10101000A689B7892C93A089B1898C91837080644B
:101020008C93938D848D981306C00288F389E02DEC
:1010300080818F7D80830895EF92FF920F931F939D
:10104000CF93DF93EC0181E0888F9B8D8C8D98137B
:101050001AC0E889F989808185FF15C09FB7F89487
:10106000EE89FF896083E889F989808183708064D3
:1010700080839FBF81E090E0DF91CF911F910F911E
:10108000FF90EF900895F62E0B8D10E00F5F1F4F2D
:101090000F731127E02E8C8D8E110CC00FB607FC3C
:1010A000FACFE889F989808185FFF5CFCE010E94CA
:1010B000FA07F1CFEB8DEC0FFD2FF11DE35AFF4F37
:1010C000F0829FB7F8940B8FEA89FB898081806258
:1010D000CFCF682F84E693E00C941C080F931F93E6
:1010E000CF93DF938C01D0E0C0E0F801EC0FFD1F3F
:1010F0006491662341F084E693E00E941C08892BEA
:1011000011F02196F2CFCE01DF91CF911F910F9177
:101110000895CF93DF93EC01888D8823B9F0AA89D5
:10112000BB89E889F9898C9185FD03C0808186FDA2
:101130000DC00FB607FCF7CF8C9185FFF2CF8081F1
:1011400085FFEDCFCE010E94FA07E9CFDF91CF9165
:101150000895833081F028F4813099F08230A9F02D
:1011600008958730A9F08830C9F08430B1F48091B7
:1011700080008F7D03C0809180008F7780938000F6
:10118000089584B58F7784BD089584B58F7DFBCF96
:101190008091B0008F778093B00008958091B00067
:1011A0008F7DF9CF1F93CF93DF93282F30E0F90184
:1011B000E758FE4F8491F901EC5BF14FD491F901AE
:1011C000EE59F14FC491CC23A9F0162F81110E9442
:1011D000A908EC2FF0E0EE0FFF1FE85AF14FA591A0
:1011E000B4918FB7F894EC91111108C0D095DE231B
:1011F000DC938FBFDF91CF911F910895DE2BF8CF45
:101200009091260189130BC0E6E7FEE0E4919FEF81
:1012100090932601E13049F028F0E23061F060E07F
:101220000C94D20810926E00FACF90916F009D7FBF
:1012300090936F00F4CF909170009D7F9093700019
:1012400091E09093B0009091B100987F946090935A
:10125000B1001092B300E3CFCF93DF9390E0FC0195
:10126000EC5BF14F24918E59914FFC0184918823BE
:10127000D1F090E0880F991FFC01E159FE4FA59134
:10128000B491FC01E85AF14FC591D49161110EC09F
:101290009FB7F8948C91E22FE0958E238C93288150
:1012A000E223E8839FBFDF91CF9108958FB7F89431
:1012B000EC91E22BEC938FBFF6CF8E50806480933D
:1012C0007C0080917A00806480937A0080917A001B
:1012D00086FDFCCF809178009091790008953FB70A
:1012E000F89480914B0290914C02A0914D02B091E4
:1012F0004E0226B5A89B05C02F3F19F00196A11DEF
:10130000B11D3FBFBA2FA92F982F8827BC01CD014F
:10131000620F711D811D911D42E0660F771F881FAE
:10132000991F4A95D1F708958F929F92AF92BF92DD
:10133000CF92DF92EF92FF926B017C010E946F09C6
:101340004B015C01C114D104E104F104B9F00E9425
:101350006F09681979098A099B09683E73408105FC
:10136000910580F321E0C21AD108E108F10888EE66
:10137000880E83E0981EA11CB11CE4CFFF90EF9073
:10138000DF90CF90BF90AF909F908F9008952FB730
:10139000F8946091470270914802809149029091BF
:1013A0004A022FBF08950F931F930E94C7096093AD
:1013B0006C0370936D0380936E0390936F0384E6C8
:1013C00093E00E94B80797FF1DC00E94C7090091D3
:1013D0006C0310916D0320916E0330916F03601BBD
:1013E000710B820B930B009168031091690320919C
:1013F0006A0330916B036017710782079307F8F255
:101400008FEF9FEF1F910F91089520912302260FD8
:101410003327331F21323105ECF420915A03FC01AC
:1014200090E080E0243069F082E00895A0912302EA
:101430002191AC014D5F5D4FA40FB52FB11D2C93D1
:101440000196861798F380912302680F6093230218
:1014500080E0089581E0089510925A0381E080931E
:1014600039031092340361E082E10E94D20861E006
:1014700083E10E94D208E9EBF0E080818E7F8083D7
:1014800080818D7F808388E48093B80085E4809399
:10149000BC000895CF93DF9391E0909302028823DC
:1014A000B9F0C091B800D091BA008091BC008A7B9D
:1014B0008093BC0060E082E10E94D20860E083E19A
:1014C0000E94D2080E942C0AD093BA00C093B800A0
:1014D000DF91CF910895CF92DF92EF92FF920F9319
:1014E0001F93CF93DF93D82FC62F613208F098C097
:1014F0000E946F096B017C0180915A0381116BC0BE
:1015000081E080935A03809339039FEF90933803CF
:10151000109237039C0F909336038093350380918C
:101520003503DD0FD82BD093350380913403813000
:1015300009F078C0109234030E946F096B017C019E
:10154000809135038093BB0080915C0390915D0393
:10155000A0915E03B0915F03892B8A2B8B2BA1F0A6
:101560000E946F0900915C0310915D0320915E035E
:1015700030915F036C197D098E099F0906171707C3
:101580002807390708F448C08091BC0083FDD8CFF4
:1015900085EC8093BC000E946F096B017C018091F7
:1015A0005A03813009F440C0809137038C1710F43E
:1015B000C0913703E4E1F3E0AAE3B3E080E08C13E9
:1015C00055C08C2FDF91CF911F910F91FF90EF901D
:1015D000DF90CF90089580915C0390915D03A0917E
:1015E0005E03B0915F03892B8A2B8B2B09F484CF88
:1015F0000E946F0900915C0310915D0320915E03CE
:1016000030915F036C197D098E099F090617170732
:101610002807390708F070CF80915B030E944A0ABF
:10162000C0E0CFCF85EEB5CF80915C0390915D0394
:10163000A0915E03B0915F03892B8A2B8B2B09F459
:10164000AECF0E946F0900915C0310915D03209161
:101650005E0330915F036C197D098E099F0906179F
:1016600017072807390708F09ACFD6CF91919D9395
:101670008F5FA5CF0895E091E9028091E802E81715
:1016800030F4F0E0E65CFC4F808190E008958FEF4D
:101690009FEF08959091E9028091E8022FEF3FEFCC
:1016A000981748F4E92FF0E0E65CFC4F208130E029
:1016B0009F5F9093E902C9010895CF92DF92EF9264
:1016C000FF920F931F93CF93DF937C01CB018A018D
:1016D00020916303222389F0EB016B01C40ED51E18
:1016E000CC15DD0569F06991D701ED91FC91019070
:1016F000F081E02DC7010995F3CF642F0E94050A00
:10170000C801DF91CF911F910F91FF90EF90DF9073
:10171000CF900895CF93DF931F92CDB7DEB7698343
:10172000209163032223F9F020916003203258F0C6
:1017300021E030E0FC013383228390E080E00F90D1
:10174000DF91CF91089580916103E82FF0E0EE5191
:10175000FE4F998190838F5F809361038093600334
:1017600081E090E0ECCF61E0CE0101960E94050A95
:10177000F7CFCF92DF92EF92FF920F931F93CF9309
:10178000DF93D091600381E0D13208F09CC0C0911A
:1017900062030E946F096B017C0180915A038111E1
:1017A0006CC082E080935A0381E0809339038FEF0D
:1017B0008093380310923703D0933603A2EEB1E042
:1017C000E4E1F3E080E0D8138DC0109235038091FE
:1017D0003503CC0FC82BC09335038091340381307F
:1017E00009F084C0109234030E946F096B017C01E0
:1017F000809135038093BB0080915C0390915D03E1
:10180000A0915E03B0915F03892B8A2B8B2BA1F0F3
:101810000E946F0900915C0310915D0320915E03AB
:1018200030915F036C197D098E099F090617170710
:101830002807390708F442C08091BC0083FDD8CF47
:1018400085EC8093BC000E946F096B017C01809144
:101850005A03823009F44CC0809138038F3F09F459
:1018600069C080913803803209F466C080913803E2
:10187000803309F463C084E026C080915C039091BA
:101880005D03A0915E03B0915F03892B8A2B8B2BA4
:1018900009F483CF0E946F0900915C0310915D03EE
:1018A00020915E0330915F036C197D098E099F09B9
:1018B000061717072807390708F06FCF80915B03D9
:1018C0000E944A0A85E01092610310926003109210
:1018D0006303DF91CF911F910F91FF90EF90DF9005
:1018E000CF9008959D9191938F5F6DCF85EEA9CF95
:1018F00080915C0390915D03A0915E03B0915F03C2
:10190000892B8A2B8B2B09F4A2CF0E946F0900919F
:101910005C0310915D0320915E0330915F036C19AD
:101920007D098E099F09061717072807390708F050
:101930008ECFC4CF80E0C7CF82E0C5CF83E0C3CFD6
:101940001F93CF93DF93162FEA010E946807612F40
:1019500081E094E00E948A0B698181E094E00E941A
:101960008A0B688181E094E00E948A0B81E094E018
:101970000E94B90B91E0811190E0892FDF91CF9106
:101980001F91089590E080E00895FF920F931F93B8
:10199000CF93DF93C62F042FF22E132F0E946807D8
:1019A0006C2F81E094E00E948A0BCF2DD12F0C0F79
:1019B0001D2F111DC017D10731F0699181E094E00E
:1019C0000E948A0BF7CF81E094E00E94B90B91E06E
:1019D000811190E0892FDF91CF911F910F91FF909E
:1019E0000895CF93DF931F92CDB7DEB749839E0151
:1019F0002F5F3F4F41E00E94C50C0F90DF91CF91C8
:101A000008950F931F93CF93DF93EC01062F142FAC
:101A100088810E94680789819A81DC01ED91FC919F
:101A20000190F081E02D602F099589819A81DC0178
:101A3000ED91FC910190F081E02D612F0995898154
:101A40009A81DF91CF911F910F910C94B90BDC011A
:101A5000ED91FC910190F081E02D0994FF920F939C
:101A60001F93CF93DF93EC01162FF42E052F88815F
:101A70000E94680789819A8124E0129FB001112495
:101A80006A5F7F4FDC01ED91FC910190F081E02DC8
:101A9000099570E060E089819A810E94270D70E0CD
:101AA00060E089819A810E94270D6F2D702F8981B6
:101AB0009A810E94270D602F70E089819A810E948F
:101AC000270D89819A81DF91CF911F910F91FF900E
:101AD0000C94B90BCF93C0E040E050E16C2F80EE46
:101AE00094E00E942E0DCF5FC031B1F7CF910895E1
:101AF000FC0187E094E1161634F484E098E061304C
:101B000011F484E090E19083062E000C770B77FFB0
:101B100003C0719561957109969FA001979F500D23
:101B20001124840F952F911D08952F923F924F926B
:101B30005F926F927F928F929F92AF92BF92CF925D
:101B4000DF92EF92FF920F931F93CF93DF9300D01A
:101B500000D000D01F92CDB7DEB78C832D83262F07
:101B600030E0A8EEB3E00E9408384B015C01198216
:101B7000842F90E09B838A8399812C81921709F4AA
:101B800047C08A819B819F838E8310E000E09D8106
:101B90002E812917C8F58E819F81C29787369A4377
:101BA00058F5CA80DB80C00ED11E1601220C331CF2
:101BB000220C331C85E0281A3108CC0CDD1CF12CDA
:101BC000E12C412C512C3201481459046A047B0445
:101BD0009CF461E085E00E94D208C1010197F1F711
:101BE00060E085E00E94D208C1010197F1F74C0C3A
:101BF0005D1C6E1C7F1CE8CF0F5F1F4F8E819F8185
:101C000001969F838E83C3CF99819F5F9983B4CFC1
:101C100027960FB6F894DEBF0FBECDBFDF91CF91F0
:101C20001F910F91FF90EF90DF90CF90BF90AF90FA
:101C30009F908F907F906F905F904F903F902F90EC
:101C400008952F923F924F925F926F927F928F9260
:101C50009F92AF92BF92CF92DF92EF92FF920F933B
:101C60001F93CF93DF9300D000D0CDB7DEB7782E8F
:101C7000662E4C833A8329830E94C7096B017C013D
:101C8000512C1B822C81222E312C4801B12CA12CED
:101C90008C81581608F049C0872D0E946807662D70
:101CA00081E094E00E948A0B81E094E00E94B90BED
:101CB000872D0E946807B1016519710961327105AC
:101CC00014F060E270E0613208F060E2872D0E945B
:101CD0006B0A482E1092E9028093E8028091E90293
:101CE0004816E9F00115110579F481E094E00E94AD
:101CF0004A0BE981FA819B81E90FF11D97FDFA9565
:101D000080839F5F9B83EACF0E94C7096C197D097E
:101D10008E099F09681579058A059B0530F38C812A
:101D2000813208F080E2580EB3CF01151105C1F0E1
:101D30000E94C7096C197D098E099F0930E020E0D7
:101D4000601771078207930758F02B81822F220FAB
:101D5000990B2C812817190619F014F08FEF8B833B
:101D60008B810F900F900F900F90DF91CF911F916B
:101D70000F91FF90EF90DF90CF90BF90AF909F902A
:101D80008F907F906F905F904F903F902F9008952D
:101D90000F931F93CF93DF93C3E1D5E008EE13E0D9
:101DA00024E135E042E062E788810E94210E8981CA
:101DB0009A81982789279827DF91CF911F910F91BA
:101DC0000895CF92DF92EF92FF920F931F93CF93DC
:101DD000DF931F92CDB7DEB7F82EE62EC42ED22E9B
:101DE00008EE13E09E012F5F3F4F41E00E94210E5D
:101DF00081E090E001C0880FCA94EAF74981DD20B4
:101E000081F0482B49836E2D8F2D0E94F10C0F908D
:101E1000DF91CF911F910F91FF90EF90DF90CF90C6
:101E2000089580954823EECFBF92CF92DF92EF9234
:101E3000FF920F931F93CF93DF931F92CDB7DEB71F
:101E4000F82EE62EC42EB22ED02E08EE13E09E0100
:101E50002F5F3F4F41E00E94210E882371F18C2DAE
:101E60008B19990BAC014F5F5F4F81E090E002C08E
:101E7000880F991FBA94E2F70197042E01C0880FCA
:101E80000A94EAF70D2D01C0000F4A95EAF7482F92
:101E90004095998149238023482B49836E2D8F2DAE
:101EA0000E94F10C0F90DF91CF911F910F91FF9045
:101EB000EF90DF90CF90BF90089580E0F3CF1F9315
:101EC000CF93DF93EC01162F88810E9468078981E8
:101ED0009A81DC01ED91FC910190F081E02D612F60
:101EE000099589819A810E94B90B61E088810E94DD
:101EF0006B0A1092E9028093E80289819A81DC01E1
:101F0000ED91FC910284F385E02D0995DF91CF914D
:101F10001F9108958F929F92AF92BF92CF92DF92BE
:101F2000EF92FF92CF93C82F90E080E00E94483656
:101F30006B017C016EEF80EE94E00E945F0F682FD2
:101F400070E06F5F7F4F90E080E00E94483620E0B5
:101F500034E244E759E40E94A9364B015C016091E8
:101F6000E3047091E4048091E5049091E6040E94FA
:101F700048369B01AC01C501B4010E94FB389B01AE
:101F8000AC01C701B6010E94FB380E947439AB0155
:101F90006C2F80EE94E0CF91FF90EF90DF90CF9088
:101FA000BF90AF909F908F900C942E0D0F931F9326
:101FB000CF938C01C0E0B8018C2F0E948A0FCF5FB5
:101FC000C031C9F76AE070E080E090E0CF911F91E6
:101FD0000F910C9494098F929F92AF92BF92CF92DF
:101FE000DF92EF92FF921F93CF93DF93EC016A0190
:101FF0007B0120E030E040E85FE3CB01B6010E94C6
:10200000433687FD7EC020E030EC4AE555E4C70149
:10201000B6010E94093A18163CF4C12C30ECD32EBC
:102020003AE5E32E35E4F32E6B817C818D819E8130
:102030000E9448364B015C0120E030E040E855E466
:10204000C701B6010E94A9369B01AC01C501B401CC
:102050000E94FB3820E030E040E05FE30E94183847
:1020600020E030E040E85FE30E9417386B017C011C
:1020700020E030E040E450E40E94433687FD48C051
:1020800020E030E04FE753E4C701B6010E94093A6F
:10209000181634F4C12CD12C9FE7E92E93E4F92EC5
:1020A00060E0CE010E945F0F182F482F4F764061ED
:1020B00060E0CE010E94010DC701B6010E94743993
:1020C000462F6EEFCE010E94010D412F60E0CE0140
:1020D0000E94010D65E070E080E090E00E949409AC
:1020E000412F406A60E0CE01DF91CF911F91FF90B8
:1020F000EF90DF90CF90BF90AF909F908F900C9417
:10210000010DC12CD12C20E8E22E2FE3F22E8CCF32
:10211000C12CD12C80E4E82EFE2CC2CFFC01019012
:102120000020E9F73197AF01481B590BBC0184E649
:1021300093E00C947C078F929F92AF92BF920F9383
:102140001F93CF93DF93CDB7DEB7A1970FB6F89467
:10215000DEBF0FBECDBF19A2423008F44AE08E01A7
:102160000F5D1F4F842E912CB12CA12CA501940141
:102170000E94E637E62FB901CA01EA30F4F4E05DC7
:10218000D801EE938D01232B242B252B79F790E09A
:1021900080E0109719F0CD010E948E10A1960FB625
:1021A000F894DEBF0FBECDBFDF91CF911F910F918D
:1021B000BF90AF909F908F900895E95CE1CFCF9250
:1021C000DF92EF92FF92C12CD12C76014AE0C70139
:1021D000B6010E949B1089E00E9469088FEFC81A1F
:1021E000D80AE80AF80A80E1C816D104E104F1042B
:1021F00069F781E691E0FF90EF90DF90CF900C942B
:102200008E10CF93DF930E946E08EC0181E691E07F
:102210000E948E108C0F9D1FDF91CF9108954F92D9
:102220005F926F927F928F929F92AF92BF92CF9266
:10223000DF92EF92FF920F931F93CF936B017C017C
:10224000742EAC019B010E94B83A882399F084E671
:1022500091E0CF911F910F91FF90EF90DF90CF9081
:10226000BF90AF909F908F907F906F905F904F90B6
:102270000C948E1046015701E894B7F82FEF3FEF0A
:102280004FE75FE7C501B4010E94B83A81110DC064
:102290002FEF3FEF4FE75FE7C501B4010E944336E0
:1022A00018161CF488E691E0D4CF2FEF3FEF4FE7EC
:1022B0005FE4C701B6010E94093A18161CF48CE6C7
:1022C00091E0C7CF2FEF3FEF4FE75FECC701B601BB
:1022D0000E94433687FDF3CF20E030E0A901C7011B
:1022E000B6010E94433610E000E087FF08C08DE28F
:1022F0000E9469088C01F7FAF094F7F8F094C0E0B6
:1023000060E070E080E09FE37C1641F020E030E088
:1023100040E251E40E94FB38CF5FF6CFA70196015F
:102320000E9418382B013C010E9474394B015C015A
:102330004AE00E949B107C01E00EF11ECC23B1F11B
:10234000C501B4010E9448369B01AC01C301B20132
:102350000E9417384B015C018EE20E946908E80E6A
:10236000F91EC15018F120E030E040E251E4C5010F
:10237000B4010E94A9362B013C010E9474394B0123
:10238000B12CA12C4AE0C501B4010E949B10E80EBB
:10239000F91EC501B4010E9448369B01AC01C3017E
:1023A000B2010E9417384B015C01DBCFC701CF910E
:1023B0001F910F91FF90EF90DF90CF90BF90AF9063
:1023C0009F908F907F906F905F904F900895CF93E4
:1023D000DF93CCE7D2E0688179818A819B8145E0F7
:1023E0000E940F1189E00E9469086C817D818E81B5
:1023F0009F8145E00E940F1189E00E94690868856D
:1024000079858A859B8545E00E940F1181E691E0E0
:10241000DF91CF910C948E10CF93DF930E946908C7
:10242000EC0181E691E00E948E108C0F9D1FDF91E0
:10243000CF910895CF93DF93FC0144815581608152
:10244000718184E693E00E947C07EC0181E691E0D3
:102450000E948E108C0F9D1FDF91CF9108954F9297
:102460005F926F927F928F929F92AF92BF92CF9224
:10247000DF92EF92FF920F931F93CF936B017C013A
:10248000CA01B9010E9474392B013C0120E030E0FF
:10249000A901C701B6010E944336882309F49CC1F3
:1024A000A701960163E67CE987E89FE30E94163A5C
:1024B00020E030ED42E854E40E94A9360E947439CD
:1024C0006B0180912601853009F066C0E6E7FEE0E9
:1024D000C491C7FDD7C161E085E00E942C09CC23DF
:1024E00019F0C23009F025C1F12CE12C60E072E155
:1024F0008AE790E0A70196010E947D3749015A01C1
:10250000DA01C9010197A109B1098F3F9105A10520
:10251000B10509F00CF4F1C060E472E48FE090E0E2
:10252000A70196010E947D372150310941095109C7
:10253000C23009F0A3C082E02F3F310541055105AB
:1025400009F00CF490C160E970ED83E090E0A70120
:1025500096010E947D37215031094109510983E0DC
:102560002F3F31054105510509F00CF47CC168E4A9
:1025700078EE81E090E0A70196010E947D3721501E
:102580003109410951092F3F31054105510511F02C
:102590000CF092C084E067C18F3F09F073C185E001
:1025A00080932601E6E7FEE0C491CF3F09F46AC1BB
:1025B000C13021F150F0C23009F43EC0C7FD62C104
:1025C00061E085E00E942C098CCF14BC15BC84B559
:1025D000826084BD85B5816085BDE7E6FEE0E4915B
:1025E000F0E0EE0FFF1FE85AF14F85919491E9E476
:1025F000FEE0E491E0930703C0E06DCF109280000D
:102600001092810080918100886080938100809188
:102610008100816080938100E7E6FEE0E491F0E0D4
:10262000EE0FFF1FE85AF14F85919491E9E4FEE027
:10263000E491E09306034FCF1092B0001092B100E6
:102640008091B00082608093B0008091B100816081
:102650008093B100E7E6FEE0E491F0E0EE0FFF1FAB
:10266000E85AF14F85919491909305038093040368
:10267000E9E4FEE0E491E09303032DCF2F3F310521
:102680004105510509F00CF452C068E478EE81E090
:1026900090E0A70196010E947D3721503109410940
:1026A0005109CC2309F4B4C02F3F31054105510530
:1026B00011F00CF0B5C06ECF64E274EF80E090E0F2
:1026C000A70196010E947D37215031094109510926
:1026D00085E02F3F31054105510509F008F4C3C0DD
:1026E00062E17AE780E090E0A70196010E947D37E1
:1026F0002150310941095109A1C09C0181E0C1115A
:10270000B2C095B5987F892B85BD27BD8FEF9FEF10
:10271000DC018093100390931103A0931203B093F4
:10272000130380916E00826080936E00ABC082E0E4
:10273000E6CFF12CE12C60E072E18AE790E0A7019E
:1027400096010E947D37215031094109510991E0DC
:102750002115310581E0480751056CF068E478EEF9
:1027600081E090E0A70196010E947D372150310958
:102770004109510993E0C13009F07BC0809181008B
:10278000887F892B80938100309389002093880073
:102790008FEF9FEFDC0180930C0390930D03A093C8
:1027A0000E03B0930F0380916F00826080936F00DF
:1027B00069C02093B3008FEF9FEFDC018093080383
:1027C00090930903A0930A03B0930B0380917000C8
:1027D00082608093700056C0C301B2010E949409C8
:1027E00051C084E02F3F31054105510509F008F43F
:1027F00088CF8AE0B594A794979487948A95D1F767
:10280000A5019401215031094109510985E079CF91
:1028100083E02F3F31054105510509F00CF471CFDC
:1028200062E17AE780E090E0A70196010E947D379F
:102830002150310941095109CC2399F286E02F3FFB
:1028400031054105510579F070F09AE0B594A794EF
:10285000979487949A95D1F7A50194012150310955
:102860004109510987E09091B100987F892B8093AD
:10287000B100C13009F488CFC23009F49ACFCC231B
:1028800009F443CFC301B2010E94940985E00E947C
:102890000009B801110F880B990BCF911F910F916F
:1028A000FF90EF90DF90CF90BF90AF909F908F9070
:1028B0007F906F905F904F900C949409FC0124815D
:1028C0003581232B39F421E0FB018081882349F0F5
:1028D00020E007C0808191810E94F63C21E0892B95
:1028E000B9F7822F0895CF93DF93EC018881998106
:1028F000009711F00E947F34198218821D821C8279
:102900001B821A82DF91CF910895FC018081918111
:10291000009711F00C947F3408950F931F93CF9379
:10292000DF938C01EB01FC01808191810097E1F044
:102930006881798161157105A9F0428153812C81EB
:102940003D814217530770F00E94FF3C8C819D81AE
:10295000F801958384831D821C82DF91CF911F91A2
:102960000F9108950E947F3488819981F8019183A5
:1029700080838A819B81938382838C819D819583CF
:102980008483198218821B821A82E5CF0C946737E0
:102990006F927F928F929F92AF92BF92CF92DF926F
:1029A000EF92FF920F931F93CF93DF936C01712CE3
:1029B000D0E0C0E085E191E00E94C614082E000C32
:1029C000990B781619060CF06DC04E018FEF881A1E
:1029D000980ACE01805C9E4F0E94C614682EE82E95
:1029E000F12CC70101960E94E3338C015C01CF5B9F
:1029F000DE4FC81BD90B8A2D801B861548F4CE01EB
:102A00008A0D9B1D0E94C614F50181935F01F3CFCF
:102A1000E401CE0DDF1D5801AE0CBF1CF501108284
:102A2000B601C8010E94F63C892B09F50115110574
:102A3000A9F5CE018F5B9E4F0E94C6148093F202CF
:102A4000682F87EF92E00E94780DCE01805C9E4F48
:102A5000DF91CF911F910F91FF90EF90DF90CF907A
:102A6000BF90AF909F908F907F906F900895F501E9
:102A7000319780818C3449F4A70141505109B60146
:102A8000C8010E94063D892B89F20115110519F034
:102A9000C8010E947F34249673948CCFC8010E9491
:102AA0007F34C7CF82E49EE00E9401118FEF9FEF39
:102AB000CFCF1F93CF93DF93EC010E94C614182F42
:102AC000CE0101960E94C61490E0982F8827810FAE
:102AD000911DDF91CF911F910895CF92DF92EF92D8
:102AE000FF920F931F93CF93DF936A017B01082F0F
:102AF00010E0C801805B9F4F880F991F0E945915F5
:102B0000BC01990F880B990B0E944A3620E030E0F7
:102B10004AE754E40E94FB38A70196010E94A936B7
:102B20006B017C0182E191E00E94C6149AE0899FCA
:102B3000B0011124072E000C880B990B0E944A3615
:102B4000A70196010E9418386B017C0120E030E05B
:102B50004AEF53E40E94093AC4EFD1E018168CF40E
:102B600020E030E44CE155E4C701B6010E94433651
:102B7000C4ECD9E087FF05C0C701B6010E946D39DA
:102B8000EB01C8010E94C614AE01682F80EE94E0EC
:102B9000DF91CF911F910F91FF90EF90DF90CF9039
:102BA0000C942E0D90E0C096880F991F860F911DF2
:102BB000880F991F0C9459157F928F929F92AF9214
:102BC000BF92CF92DF92EF92FF920F931F93CF931A
:102BD000DF93B82E6A01D62FC72F60E00E94D2156E
:102BE000BC01990F880B990B0E944A367B018C011E
:102BF00061E08B2D0E94D215BC01990F880B990BB7
:102C00000E944A36762E872E982EA92E96014D2F99
:102C10005C2F0E94433687FF71C0772D682D992D58
:102C20008A2D272F362F492F582FB701C8010E9410
:102C3000093A181694F096014D2F5C2F672D782DC8
:102C4000892D9A2D0E94433676010D2F1C2F87FF68
:102C500004C0E72CF82C092D1A2DCB2DD0E06E01E5
:102C600080E3C80ED11CCC0FDD1FCA5FDE4FB70159
:102C7000C8010E946D3979836883C601880F991F46
:102C80000E945915EC01C6010E94C614682F880FD6
:102C9000770B880B990B0E944A369701A8010E9476
:102CA000A9366B017C01BE01DD0F880B990B0E94D8
:102CB0004A369B01AC01C701B6010E9418380E9438
:102CC0006D39072E000C880B990B0E944A3620E0C4
:102CD00030E0A9010E941838AB01BC018B2DDF91B7
:102CE000CF911F910F91FF90EF90DF90CF90BF9009
:102CF000AF909F908F907F900C946D157C2D6D2DD3
:102D0000CE018FCF2F923F924F925F926F927F9220
:102D10008F929F92AF92BF92CF92DF92EF92FF92EB
:102D20000F931F93CF93DF93CDB7DEB72E970FB6D8
:102D3000F894DEBF0FBECDBF5C016A017B0120E0CD
:102D400030E0A901CB01B6010E9443369501205E17
:102D50003F4F3901181684F189013FE03983D801CA
:102D60007E916E918D01072E000C880B990B0E94AD
:102D70004A36AB01BC0189810E94DC15B981B15092
:102D8000B983BF3F61F72E960FB6F894DEBF0FBE32
:102D9000CDBFDF91CF911F910F91FF90EF90DF900A
:102DA000CF90BF90AF909F908F907F906F905F90EB
:102DB0004F903F902F90089580E290E00E94E3337F
:102DC0008C0186E0882E81E0982E9801F50170E054
:102DD00060E0D4018D919D914D0141915191841BF1
:102DE000950BD9018D939D939D0197FF03C09195FC
:102DF00081959109681779070CF4BC01E615F70570
:102E000041F7072E000C880B990B0E944A36A70148
:102E100096010E94FB386B017C0120E030E0A901A3
:102E20000E94093A20E030E040E05FE387FD91C076
:102E3000C701B6010E9418380E946D397E876D87E0
:102E4000D12CC12C8D859E85092E000CAA0BBB0BA5
:102E500089879A87AB87BC87AD85BE85AC15BD05D4
:102E60000CF47CC048011501F12CC6010D2C000C9E
:102E7000AA0BBB0B8D839E83AF83B887D1016D9165
:102E80007D911D01072E000C880B990B0E944A367C
:102E90002B013C01ED85FE8520E030E0A901EF2B00
:102EA00009F443C06D817E818F8198850E944A36E6
:102EB0002BED3FE049E450E40E94A93669837A8310
:102EC0008B839C8369857A858B859C850E944A3695
:102ED0009B01AC0169817A818B819C810E94FB38C6
:102EE0000E94F63820E030E040E85FE30E941838A6
:102EF00020E030E040E05FE30E94A93669837A83F6
:102F00008B839C83D4016D917C91072E000C880BE0
:102F1000990B0E944A369B01AC0169817A818B81B1
:102F20009C810E94A9369B01AC01C301B2010E94A1
:102F30001838AB01BC018F2D0E94DC15F394B2E070
:102F40008B0E911CE0E1FE1299CFFFEFCF1ADF0A42
:102F500083CFC701B6010E9417386ECF0115110546
:102F600009F411CFC8012E960FB6F894DEBF0FBE3C
:102F7000CDBFDF91CF911F910F91FF90EF90DF9028
:102F8000CF90BF90AF909F908F907F906F905F9009
:102F90004F903F902F900C947F342F923F924F92FE
:102FA0005F926F927F928F929F92AF92BF92CF92D9
:102FB000DF92EF92FF920F931F93CF93DF93CDB7E2
:102FC000DEB72F970FB6F894DEBF0FBECDBF4C0112
:102FD0006D8369017A01202F30E03A83298320E054
:102FE00030E0A901C701B6010E9443361816ECF083
:102FF0001FE0812F012E000C990BA981BA818A173D
:103000009B070CF41EC1880D991DFC016081062EE2
:10301000000C770B880B990B0E944A36AB01BC0160
:10302000812F0E94DC151150E4CF80E190E02981CE
:103030003A81821B930B811530E4930780F5880F4A
:10304000991F009779F10E94E3335C01E981FA81CD
:10305000EE0FFF1FCF018A5F9E4F3C012501D40177
:10306000402F70E060E0403100F5F30181919191D3
:103070003F012D915D81250390011124821B930B4B
:10308000F201819391932F0197FF03C09195819550
:103090009109681779070CF4BC014F5FE4CF8FEFFB
:1030A0009FEFD1CF81E090E0CECF072E000C880BB0
:1030B000990B0E944A36A70196010E94FB386B01CA
:1030C0007C0120E030E0A9010E94093A20E030E0D4
:1030D00040E05FE387FD8BC0C701B6010E9418384E
:1030E0000E946D391B011F861E86CB01770FAA0B2C
:1030F000BB0B8A879B87AC87BD87AE85BF852A16A9
:103100003B060CF480C0BA82A9829C828B82102F6D
:10311000CD01092E000CAA0BBB0B8E839F83A887C1
:10312000B987103108F068C0AB81BC816D91BC8358
:10313000AB832D816203B0011124072E000C880B94
:10314000990B0E944A366B017C0120E030E0A90116
:1031500021143104E1F16E817F81888599850E9477
:103160004A362BED3FE049E450E40E94A9362B019A
:103170003C016A857B858C859D850E944A369B0132
:10318000AC01C301B2010E94FB380E94F63820E076
:1031900030E040E85FE30E94183820E030E040E093
:1031A0005FE30E94A9362B013C01A981BA816D9190
:1031B0007C91072E000C880B990B0E944A369B01CC
:1031C000AC01C301B2010E94A9369B01AC01C70149
:1031D000B6010E941838AB01BC01812F0E94DC159A
:1031E0001F5FE981FA813296FA83E9839ACFC7019A
:1031F000B6010E94173874CF2E853F852F5F3F4F51
:103200003F872E877ACFA114B104D9F0C5012F963C
:103210000FB6F894DEBF0FBECDBFDF91CF911F91E7
:103220000F91FF90EF90DF90CF90BF90AF909F9065
:103230008F907F906F905F904F903F902F900C9465
:103240007F342F960FB6F894DEBF0FBECDBFDF914F
:10325000CF911F910F91FF90EF90DF90CF90BF9093
:10326000AF909F908F907F906F905F904F903F9026
:103270002F9008957F928F929F92AF92BF92CF929C
:10328000DF92EF92FF920F931F93CF93DF937C0116
:10329000FC0101900020E9F7329780818C3409F419
:1032A00077C0823509F076C087EE8093F102C701BE
:1032B0000E94C814EC01CF3FDC0709F4D4C1CE0151
:1032C0000E94C614B82ECE0102960E945915D82E1F
:1032D000C92E082F192FC0912C05D0912D0599E4E6
:1032E000B9125AC084E50E9468076C2D81E094E011
:1032F0000E948A0B6D2D81E094E00E948A0B81E090
:1033000094E00E94B90B61E084E50E946B0A109280
:10331000E9028093E80281E094E00E944A0B8883EE
:103320008093F202682F87EF92E00E94780D8C0163
:10333000B12CA12C101611060CF043C0602F0F31D8
:1033400011050CF06EE184E50E946B0A782E109254
:10335000E9028093E8024801EEE18E1A91086801C3
:103360008091E902781659F081E094E00E944A0BBE
:10337000FFEFAF1ABF0AFE01EA0DFB1D808381E05B
:10338000C81AD108F1F08401C814D90449F7D2CF82
:1033900089E18BCF80E089CF6091F20287EF92E0E4
:1033A0000E94780DDE010C1B1D0BF801EA0FFB1FBC
:1033B0009D012C1B3D0B281739071CF4E491ED935C
:1033C000F4CF80E090E0A0E0B0E48093F30290932B
:1033D000F402A093F502B093F6028981082E000C46
:1033E000990B9093F9028093F8021092E7028A8178
:1033F000082E000C990B9093FB028093FA02109216
:10340000E6028B818093FC021091F20217FF0FC03D
:103410008C818093FD028D818093FE028E8180934A
:10342000FF0287E040E050E060E07FE307C084E017
:1034300040E050E060E87FE31130A1F74093E10203
:103440005093E2026093E3027093E40290E0123042
:103450000CF098E090930003C80FD11DD0930203A5
:10346000C093010360E771E0C7010E94F63C892B1D
:1034700009F4C5C0113009F0C2C00E94543524E6D9
:1034800030E040E050E00E947D370E944A3620E064
:1034900030E040E251E40E94FB3820E030E040EAB6
:1034A00050E40E9417386093EA027093EB02809315
:1034B000EC029093ED02C090EA02D090EB02E09013
:1034C000EC02F090ED02D0E0C0E000910103109119
:1034D00002030C0F1D1FF8016081062E000C770BF4
:1034E000880B990B0E944A36A70196010E94183852
:1034F0000E946D39F80160832196C031D10529F70A
:103500008091F10287FF84C08091F8029091F902C6
:103510009195819591099093F9028093F80290E03A
:1035200080E04091F202242F042E000C330B37FF71
:1035300003C0319521953109821793070CF07DC0A6
:1035400042301CF54091F702489F9001499F300D91
:103550001124E0910103F0910203E20FF31F208197
:10356000219520832091F702289FF001299FF00DDB
:1035700011249F012E5F3F4FE0910103F091020360
:10358000E20FF31F2081219520832091F20260E059
:1035900022300CF462E0E62FF0E02091F2022230BB
:1035A0000CF46FC024E030E040910103509102031D
:1035B000E217F3070CF068C09F01220F331F7091D0
:1035C000F702789FF001799FF00D1124E20FF31FAD
:1035D000E40FF51F4081518150835091F702589FAD
:1035E000D001599FB00D1124E0910103F091020325
:1035F000E20FF31FEA0FFB1F41836F5FCCCF1092E6
:10360000EA021092EB021092EC021092ED0253CFFC
:103610009091F20292308CF481110FC00E945435C7
:1036200024E630E040E050E00E947D3760FF05C0B6
:103630008091E002833609F067CF1092DF0210928A
:10364000DE022091F3023091F4024091F502509194
:10365000F602009100036091FC02809101039091B9
:1036600002030E94CD17DF91CF911F910F91FF9020
:10367000EF90DF90CF90BF90AF909F908F907F9012
:10368000089528E030E090CF01964BCF4F925F92A3
:103690006F927F92AF92BF92CF92DF92EF92FF92A2
:1036A0000F931F93CF93DF93F82E192F0E94C61408
:1036B0008695CF2DD12FD12CC12CE82EF12C88EE60
:1036C000A82E83E0B82E2197CE14DF043CF5CE015E
:1036D0008E199F090E94C614782ECE010E94C6142E
:1036E000182F672D70E0C5010E94DE3B072E000CED
:1036F000880B990B0E944A362B013C01612F70E028
:1037000090E080E00E94483610E000E0A3019201C2
:103710000E942F128FEFC81AD80AD5CFDF91CF9110
:103720001F910F91FF90EF90DF90CF90BF90AF90DF
:103730007F906F905F904F9008950F931F93CF935A
:10374000DF93EC018B010E946737081721F0602F8F
:10375000CE010E946F372196CE010E94673718175D
:1037600021F0612FCE010E946F3766E070E080E0AB
:1037700090E0DF91CF911F910F910C9494090F93DA
:103780001F93CF93DF93EC0188819981009759F0C3
:103790002A813B812617370730F081E0DF91CF91F6
:1037A0001F910F9108958B016F5F7F4F0E941B3C0B
:1037B000009759F0998388831B830A832C813D816C
:1037C000232B59F7FC011082E8CF80E0E7CFEF927E
:1037D000FF920F931F93CF93DF936115710541F40F
:1037E00080E0DF91CF911F910F91FF90EF900895AE
:1037F00041155105B1F07B01EC010C811D81040FD5
:10380000151FB8010E94BF1B882351F328813981FD
:103810008C819D81B701820F931F0E94FF3C1D8305
:103820000C8381E0DECFEF92FF920F931F93CF9333
:10383000DF93EC017B018A01BA010E94BF1B811159
:103840000BC0CE010E947314CE01DF91CF911F9166
:103850000F91FF90EF9008951D830C83B70188812D
:1038600099810E94FF3CF0CFFB01DC0111961C9274
:103870001E9213961C921E92129715961C921E92DF
:1038800014978617970759F060817181611571054A
:1038900021F0448155810C94131C0C9473140895E9
:1038A000FB0101900020E9F73197AF01461B570B50
:1038B0000C94131C0F931F93CF93DF93CDB7DEB7F8
:1038C00062970FB6F894DEBF0FBECDBF8C01CB015F
:1038D000F8011182108213821282158214824AE04A
:1038E000BE016F5F7F4F0E940636BE016F5F7F4F44
:1038F000C8010E94501C62960FB6F894DEBF0FBE3E
:10390000CDBFDF91CF911F910F910895FC011182DE
:1039100010821382128215821482FB010190002012
:10392000E9F73197AF01461B570B0C94131CEF922C
:10393000FF920F931F93CF93DF9300D0CDB7DEB7E5
:103940008C01E62E6CE971E00E94861C0E94D3096E
:103950000E2C000CFF0897FD10C08E159F0569F016
:1039600089831A8241E050E0BE016F5F7F4FC8013A
:103970000E94E71B0E94D309EECFC8010F900F9061
:10398000DF91CF911F910F91FF90EF900895EF92EB
:10399000FF920F931F93CF93DF93EC018B0119825A
:1039A00018821B821A821D821C82CB010E94D13593
:1039B0007C01BC01CE010E94BF1B811109C0CE0158
:1039C000DF91CF911F910F91FF90EF900C947314A2
:1039D000FD82EC82B80188819981DF91CF911F919E
:1039E0000F91FF90EF900C94CA3585ED8093BC0049
:1039F00080915C0390915D03A0915E03B0915F03A1
:103A00000796A11DB11D23E0B695A79597958795BB
:103A10002A95D1F72091BC0024FD03C010925A03CF
:103A2000089540915C0350915D0360915E03709135
:103A30005F03452B462B472B69F30097A105B10582
:103A400041F02AE22A95F1F700C00197A109B109D6
:103A5000E1CF80915B030C944A0A4F925F926F9280
:103A60007F928F929F92AF92BF92CF92DF92EF920E
:103A7000FF920F931F93CF93DF93CDB7DEB7E897F5
:103A80000FB6F894DEBF0FBECDBF80902405909096
:103A900025050E946F092B013C015401BB240E94A3
:103AA000C80E6C01A816B9060CF057C0893C9105E8
:103AB00084F121E042E06AE6809113050E94E10E64
:103AC0000E94C80E6C01892B09F04BC00E946F093F
:103AD0006419750986099709693F7A42810591053C
:103AE00078F380E0E8960FB6F894DEBF0FBECDBF46
:103AF000DF91CF911F910F91FF90EF90DF90CF90CA
:103B0000BF90AF909F908F907F906F905F904F90FD
:103B100008950E94C80E6C01A816B906F4F47C0141
:103B2000EA18FB08670181E2E816F1041CF080E264
:103B3000C82ED12CCC2079F008EE13E09E012F5F27
:103B40003F4F4C2D64E7809113050E94210EEC1825
:103B5000FD0841F7DECF1982FACFC114D10409F470
:103B6000C0CF0E946F096419750986099709693FDA
:103B70007A428105910508F0B4CFAC14BD0409F078
:103B80008ECF882009F4FAC108EE13E022EA31E072
:103B9000482D64E7809113050E94210E6090A601D4
:103BA0007090A7017624672476248090AA019090D3
:103BB000AB01982489249824A090AE01B090AF0165
:103BC000BA24AB24BA246091A2017091A301762794
:103BD00067277627072E000C880B990B0E944A3620
:103BE00020E030E040E858E30E94A9366B017C01F8
:103BF000C0920305D0920405E0920505F0920605F7
:103C0000B301770C880B990B0E944A3620E030E014
:103C100040E858E30E94A9362B013C014092070579
:103C2000509208056092090570920A05B401990C3A
:103C3000880B990B0E944A3620E030E040E858E3B8
:103C40000E94A93669A37AA38BA39CA360930B055A
:103C500070930C0580930D0590930E05B501BB0C78
:103C6000880B990B0E944A3620E030E040E858E388
:103C70000E94A9366DA37EA38FA398A760930F051A
:103C80007093100580931105909312059B01AC0170
:103C9000C301B2010E94A9364B015C0129A13AA1DE
:103CA0004BA15CA1C701B6010E94A9369B01AC01E2
:103CB000C501B4010E9417389B01AC010E9418385D
:103CC0006DA77EA78FA798AB6093F7047093F80455
:103CD0008093F9049093FA04A3019201C701B601FD
:103CE0000E94A9364B015C012DA13EA14FA158A510
:103CF00069A17AA18BA19CA10E94A9369B01AC016C
:103D0000C501B4010E9418389B01AC010E9418380B
:103D100069A77AA78BA79CA76093FB047093FC0408
:103D20008093FD049093FE04A7019601C701B6019C
:103D30000E94A9364B015C01A3019201C301B201AB
:103D40000E94A9369B01AC01C501B4010E9417383D
:103D50004B015C0129A13AA14BA15CA1CA01B901A7
:103D60000E94A9369B01AC01C501B4010E9417381D
:103D70004B015C012DA13EA14FA158A5CA01B9017B
:103D80000E94A9369B01AC01C501B4010E941838FC
:103D90004B015C018092FF0490920005A092010506
:103DA000B0920205A7019601C701B6010E9418381A
:103DB00069AB7AAB8BAB9CABA3019201C301B2019F
:103DC0000E9418386DAB7EAB8FAB98AFA701960100
:103DD00069A97AA98BA99CA90E94A9366B017C01CB
:103DE000A30192016DA97EA98FA998AD0E94A93661
:103DF0009B01AC01C701B6010E94183820E030E0F9
:103E000040E85FE30E9417386B017C0129A13AA1C9
:103E10004BA15CA16DA97EA98FA998AD0E94A9367E
:103E20002B013C012DA13EA14FA158A569A97AA95A
:103E30008BA99CA90E94A9369B01AC01C301B201C8
:103E40000E941738A70196010E94973860937C0260
:103E500070937D0280937E0290937F0229A53AA5FC
:103E60004BA55CA5CA01B9010E94A9366B017C0172
:103E7000A5019401C501B4010E94A9369B01AC01C2
:103E8000C701B6010E9418380E94743A9B01AC0128
:103E90006DA57EA58FA598A90E9497386B017C011E
:103EA000C0928002D0928102E0928202F09283025C
:103EB000A501940169A57AA58BA59CA50E949738B8
:103EC00060938402709385028093860290938702A8
:103ED00020E030E0A901C501B4010E94433687FF0C
:103EE0001AC020E030E0A901C701B6010E94093ADA
:103EF000A701960118160CF044C06BED7FE089E431
:103F000090E40E941738609380027093810280933E
:103F10008202909383020CE712E0F80161917191A3
:103F2000819191918F017F01F4E0EF1AF10820EE69
:103F30003EE245E652E40E94A936D7016D937D9397
:103F40008D939C931397B2E008381B0731F760916B
:103F500084027091850280918602909187029F77FA
:103F600011E020E030E044EB52E40E94093A1816D8
:103F70000CF010E01093C80281E0B4CD1092A201C1
:103F80000DCE6BED7FE089E490ECBBCF1F920F92DA
:103F90000FB60F9211242F933F934F935F936F931C
:103FA0007F938F939F93AF93BF93EF93FF938091F2
:103FB000080390910903A0910A03B0910B03892B88
:103FC0008A2B8B2BD1F190910303E0910403F091A4
:103FD00005038081892780838091080390910903DC
:103FE000A0910A03B0910B03181619061A061B06B6
:103FF0009CF48091080390910903A0910A03B09169
:104000000B030197A109B109809308039093090359
:10401000A0930A03B0930B03FF91EF91BF91AF916F
:104020009F918F917F916F915F914F913F912F91D0
:104030000F900FBE0F901F901895809126010E943F
:104040000009EACF1F920F920FB60F9211242F93FF
:104050003F934F935F936F937F938F939F93AF9310
:10406000BF93EF93FF9384E693E00E94FA07FF91DA
:10407000EF91BF91AF919F918F917F916F915F91E0
:104080004F913F912F910F900FBE0F901F90189559
:104090001F920F920FB60F9211242F938F939F931D
:1040A000EF93FF93E0917403F09175038081E091A9
:1040B0007A03F0917B0382FD1BC0908180917D0388
:1040C0008F5F8F7320917E03821741F0E0917D0313
:1040D000F0E0EC59FC4F958F80937D03FF91EF91B9
:1040E0009F918F912F910F900FBE0F901F90189559
:1040F0008081F4CF1F920F920FB60F9211242F934D
:104100003F938F939F93AF93BF938091470290917A
:104110004802A0914902B0914A023091460223E040
:10412000230F2D3758F50196A11DB11D209346028E
:104130008093470290934802A0934902B0934A02A9
:1041400080914B0290914C02A0914D02B0914E0291
:104150000196A11DB11D80934B0290934C02A09338
:104160004D02B0934E02BF91AF919F918F913F91BD
:104170002F910F900FBE0F901F90189526E8230FD8
:104180000296A11DB11DD2CF1F920F920FB60F92B2
:1041900011242F933F934F935F936F937F938F934C
:1041A0009F93AF93BF93EF93FF938091B900887F64
:1041B000803609F44AC0F0F5883209F4A7C018F532
:1041C000803109F49BC0B8F4882309F4F9C0883021
:1041D00009F494C0FF91EF91BF91AF919F918F919E
:1041E0007F916F915F914F913F912F910F900FBEF3
:1041F0000F901F901895883109F488C0803251F7CC
:104200008093380314C0803409F49DC040F4803397
:10421000B9F38833F9F68093380385ECB0C0803564
:1042200009F485C0883509F496C0883499F60E944F
:10423000F51CD0CF883909F48CC038F5883729F0BF
:1042400050F4883611F0803729F683E080935A03C2
:104250001092450257C0883809F47BC0803919F0A4
:10426000803809F0B7CF80914502803208F071C0E4
:10427000E091450281E08E0F809345028091BB0062
:10428000F0E0EB5DFD4F80833DC0803B39F0E0F412
:10429000803A09F479C0883A09F09CCF84E0809391
:1042A0005A031092240210922302E0915202F091DC
:1042B000530209958091230281110FC081E0809300
:1042C00023021092030209C0803C09F4A6CF883C67
:1042D00009F4A3CF883B09F07DCFE091240281E06F
:1042E0008E0F80932402F0E0ED5FFD4F808180937C
:1042F000BB00909124028091230229C08091350354
:104300008093BB0085EC8093BC0064CF9091370311
:1043100080913603981758F5E091370381E08E0FAE
:1043200080933703F0E0EC5EFC4F8081E9CFE091B1
:10433000370381E08E0F809337038091BB00F0E05C
:10434000EC5EFC4F80839091370380913603981781
:10435000C8F285E8D8CFE091370381E08E0F8093D3
:1043600037038091BB00F0E0EC5EFC4F80838091CE
:10437000390381115CCF81E08093340384EA809318
:10438000BC0010925A0326CF85EC8093BC0010929B
:104390005A0380914502803230F4E0914502F0E00A
:1043A000EB5DFD4F10826091450270E0E09150029C
:1043B000F091510285E292E00995109245020ACFF0
:1043C0001092380334CF1F920F920FB60F92112420
:1043D0002F933F934F935F936F937F938F939F930D
:1043E000AF93BF93CF93DF93EF93FF9320910E048E
:1043F00030E0F901E758FE4F8491F901EC5BF14F91
:10440000D491F901EE59F14FC491CC2379F0811187
:104410000E94A908EC2FF0E0EE0FFF1FEB59FE4FB2
:10442000A591B491EC91ED2381E009F480E0209115
:104430001304309114042F5F3F4F309314042093E2
:10444000130420911104309112042536310518F01F
:1044500094E090930D0490910D04911130C081115E
:1044600069C020911304309114042436310528F4D6
:1044700010921404109213045DC01092DF04109285
:104480001204109211042091110430911204A90118
:104490004F5F5F4F509312044093110440911304F7
:1044A00050911404220F331FF901EB5EFB4F51832F
:1044B0004083109214041092130491E021C0909153
:1044C0000D04913001F58130A9F52091110430914E
:1044D0001204A9014F5F5F4F5093120440931104DF
:1044E0004091130450911404220F331FF901EB5E25
:1044F000FB4F51834083109214041092130492E0F6
:1045000090930D0417C090910D04923061F48823AC
:1045100009F4B9CF209113043091140425363105E4
:1045200048F093E0EDCF90910D04933099F48823F7
:1045300009F49ECF909110049923A9F0811126C00F
:1045400080910F04882371F080910F0461E00E9434
:10455000D20809C090910D04943061F791E09093D6
:10456000DF04DFCF2D9AFF91EF91DF91CF91BF91C3
:10457000AF919F918F917F916F915F914F913F91FB
:104580002F910F900FBE0F901F90189580910F04E0
:10459000882321F080910F0460E0D9CF2D98E3CFDC
:1045A000CF93DF93E4E6F3E01382128288EE93E088
:1045B000A0E0B0E084839583A683B78321E431E053
:1045C0003183208325EC30E03587248724EC30E0EC
:1045D0003787268720EC30E0318B208B21EC30E0D0
:1045E000338B228B22EC30E0358B248B26EC30E0B1
:1045F000378B268B118E128E138E148EC1E0D4E071
:104600001B821A828C839D83AE83BF8383E591E0F6
:10461000998388838AE090E00E94E3339093310588
:104620008093300582E090E00E94E33390932F0561
:1046300080932E0582EC91E00E94E33390932D0548
:1046400080932C05EDE0F4E084E08183138266E73B
:1046500071E086E295E00E94861C88E6809313054F
:10466000E3E0F5E080E090E0A0E8BFE380839183A1
:10467000A283B38314821582168217821086118654
:10468000128613861486158616861786E7EFF4E0E1
:10469000108211821282138214821582168217826E
:1046A0001086118612861386E6EEF4E081E1DF01C2
:1046B0001D928A95E9F7E0EEF4E080E48083D283EE
:1046C000C183DF91CF910895CF93DF93CDB7DEB74C
:1046D000C654D1090FB6F894DEBF0FBECDBF789493
:1046E00084B5826084BD84B5816084BD85B58260F7
:1046F00085BD85B5816085BD80916E0081608093A8
:104700006E00109281008091810082608093810010
:104710008091810081608093810080918000816020
:10472000809380008091B10084608093B10080917B
:10473000B00081608093B00080917A0084608093A3
:104740007A0080917A00826080937A0080917A006A
:10475000816080937A0080917A00806880937A00EB
:104760001092C100E0917403F091750382E08083A0
:10477000E0917003F09171031082E0917203F09167
:10478000730380E1808310927C03E0917803F091C1
:10479000790386E08083E0917603F091770380814E
:1047A00080618083E0917603F09177038081886057
:1047B0008083E0917603F091770380818068808325
:1047C000E0917603F091770380818F7D808385E08F
:1047D00090E0A0E0B0E08093680390936903A09319
:1047E0006A03B0936B031092E9021092E8021092F0
:1047F0006103109260030E942C0A89E797E090936E
:104800005302809352028AE797E09093510280937B
:10481000500288E08093B8008BE60E940C1288E179
:104820009FE00FB6F894A895809360000FBE909318
:10483000600064E670E080E090E00E94940985E901
:104840009DE00E94011101E023E042E06BE68091CF
:1048500013050E94140F00E022E044E06BE1809118
:1048600013050E94140F22E044E06CE180911305CF
:104870000E94140F20E046E06BE6809113050E9431
:10488000E10E08EE13E09E012F5F3F4F41E065E728
:10489000809113050E94210E882339F089818E773B
:1048A00090E0959587958093140580911405843345
:1048B00019F08C3009F0BDCF11E019A321E047E0D9
:1048C0006BE6809113050E94E10E64E670E080E0E3
:1048D00090E00E94940987E089A307E023E042E08A
:1048E0006AE6809113050E94140F64E670E080E090
:1048F00090E00E94940919A39E012F5D3F4F41E073
:104900006BE6809113050E94C50C19A29E012F5DD4
:104910003F4F41E068E3809113050E94C50C19A246
:104920009E012F5D3F4F41E063E2809113050E949D
:10493000C50C19A29E012F5D3F4F41E06CE18091B3
:1049400013050E94C50C80E889A39E012F5D3F4F8F
:1049500041E067E3809113050E94C50C19A39E01F5
:104960002F5D3F4F41E06BE6809113050E94C50C1F
:1049700084E089A39E012F5D3F4F41E069E1809172
:1049800013050E94C50C19A39E012F5D3F4F41E006
:104990006AE1809113050E94C50C40E06DE68091AC
:1049A00013050E94F10C40E06EE6809113050E9411
:1049B000F10C80E190E00E94E3335C0180E190E043
:1049C0000E94E3332C01312CE12CD12CC12C06EFB9
:1049D000202E612C77247394C6014096F22CFC188B
:1049E000873F9B4010F410E1F12EC3018E1991090D
:1049F000F816190619F014F0FE2CF194D20190E08B
:104A000080E0960123573E4F8F1538F4F901E80FE7
:104A1000F91FE491ED930196F7CF92014F2D6FE6C8
:104A2000809113050E94C50C8F2C912CA114B10408
:104A300009F468C1432D4F716DE6809113050E9402
:104A4000F10C4E2D6EE6809113050E94F10C08EEDC
:104A500013E095014F2D6FE6809113050E94210E02
:104A6000A401B501C2010E94E03C892B09F44AC1AE
:104A7000C5010E947F34C2010E947F3481E080938F
:104A80004F020FB6F894A8958091600088618093DA
:104A90006000109260000FBEE12CFF24F394B12C53
:104AA000C7010E9459156C018091130552E05B15F6
:104AB00008F442C108EE13E09E012F5F3F4F41E032
:104AC00065E70E94210E882339F089818E7790E076
:104AD00095958795809314058091140566E06E0D79
:104AE000883320F06B2D660F6B0D6958809113058C
:104AF000D8AACFA6AE01415D5F4F0E94A00CB3942F
:104B000062E0E60EF11C76E0B712CACF10914F02B8
:104B100011111AC121E047E06AE6809113050E9455
:104B2000E10EF8941092800089E08093810080E289
:104B300093E09093890080938800109285001092F2
:104B4000840082E080936F00789410920D0410929C
:104B500012041092110480910E0460E00E942C094E
:104B600064E070E086E295E00E94BF1B61E08AE0AD
:104B70000E942C0982EA9DE00E946E08FBECEF2E59
:104B8000F2E0FF2E00E110E0C8010E94C614D70138
:104B90008D937D010F5F1F4F00321105A9F7109211
:104BA000E9021092E80210926103109260030E94E1
:104BB0002C0A89E797E090935302809352028AE788
:104BC00097E0909351028093500240E860E080EEBD
:104BD00094E00E94010D6AE070E080E090E00E94A5
:104BE000940940E050E06AE774E480EE94E00E94AB
:104BF000EB0F80E498E7ADE7B1E08093E304909396
:104C0000E404A093E504B093E60483E191E00E94FC
:104C10005915092E000CAA0BBB0B809354029093DC
:104C20005502A0935602B0935702885D9945A10999
:104C3000B10985399141A105B10560F088EA91E695
:104C4000A0E0B0E08093540290935502A0935602E6
:104C5000B0935702609154027091550280915602B0
:104C6000909157020E944A3620E030E04AE754E42F
:104C70000E94FB3842E00E940F118EE99DE00E94E5
:104C800001112091540230915502409156025091E9
:104C90005702A8EEB3E00E949C376B017C0140E014
:104CA00050E060E773E480EE94E00E94EB0FC09266
:104CB000E904D092EA04E092EB04F092EC04C09292
:104CC000E304D092E404E092E504F092E6040E944A
:104CD0006A0D80EB9DE00E94011190E080E08C0164
:104CE0000F5F1F4F805C9E4F0E94C614080F111D5E
:104CF000C801805C9E4F0E94C6148E34A1F1C80189
:104D00000496EDCFC80CD91C46EFC4164BE0D40670
:104D100010F00C949333EF0C09F43394432D4F713E
:104D20006DE6809113050E94F10C4E2D6EE6809188
:104D300013050E94F10C50CEDEA6CDA6AE01435D58
:104D40005F4F6DE06E0DD9CE83E89DE00E946E0846
:104D5000612F70E090E080E04AE00E949B1089E2C1
:104D60000E940C12DECE66E371E0C8018E5B9E4F9E
:104D70000E949D1B80916D0290916E028996909386
:104D80006E0280936D0280E10E945D09BC01990F63
:104D9000880B990B611571058105910511F00E9431
:104DA000A3358FEF93E00E94461B60ED77E080E033
:104DB00090E00E9494090E942D1D0E942D1D0E94CA
:104DC0002D1D6091800270918102809182029091EC
:104DD00083029F7720E030E040EF51E40E94093ADF
:104DE000181694F060918402709185028091860279
:104DF000909187029F7720E030E040EF51E40E94DD
:104E0000093A18160CF03DC183E68093E00282E077
:104E10008093DD028AEC9DE00E94011183EC9DE00D
:104E20000E9401118CEB9DE00E9401114091310123
:104E3000509132016091330124964DAF5EAF6FAF58
:104E40002497609134017091350180913601279645
:104E50006DAF7EAF8FAF27970E94C70920E137E281
:104E600040E050E00E94E6378091000190910101FE
:104E7000092E000CAA0BBB0B82179307A407B507DA
:104E80000CF045C07901309301012093000185E1C8
:104E90000E945D098C018A389240ACF580915802DD
:104EA000909159020817190721F082E0E816F104E1
:104EB00054F585ED9DE00E946E08C80163E670E040
:104EC0000E94DE3B6B01072E000CEE08FF0877FF07
:104ED000DAC08DE20E94690866277727CB016C193A
:104EE0007D098E099F094AE00E949B1086E50E9479
:104EF0000C1281ED93E00E94461B60ED77E080E0AC
:104F000090E00E94940910935902009358028091F6
:104F10000501882329F08091DE0280FF0E942D1D6B
:104F2000809105018823B9F18091E002833699F1DF
:104F30008091C802882379F10E9454356B017C016D
:104F40000E9454354B015C01C701B6012AE030E0F4
:104F500040E050E00E947D371CED160FC501B40102
:104F60002AE030E040E050E00E947D3742ED460FFD
:104F7000212F6AE082E00E94950D8BE68093E0028B
:104F800069E771E080913005909131050E94FF3C06
:104F90008FEF8093DD02809173028111AFC085E1B4
:104FA00094E090936802809367028091110490913D
:104FB000120490936A02809369028091DF0490E06A
:104FC00090936C0280936B0280910D04833009F002
:104FD00095C08091170490911804875891098E35D7
:104FE000910508F085C080911104909112040497F6
:104FF00009F04DC08091190490911A048097479749
:1050000008F045C080911B0490911C0409970997F2
:10501000F0F510926602109265024FEF5FEFBA0151
:1050200040935F025093600260936102709362024A
:1050300083E090E090935C0280935B0280915F023A
:1050400090916002A0916102B0916202892F9A2F23
:10505000AB2FBB278A3509F4F6C108F0ADC1823207
:1050600009F4D9C108F092C1803109F4E9C108F00E
:105070003BC168E17EE0823009F43EC16CE971E039
:10508000EDC184E6C2CE4AE0C701B6012DCF8091C2
:105090001104909112048434910550F18091190407
:1050A00090911A04815491098F9710F590E080E057
:1050B00040E050E0BA01FC01E55EFB4F2081318108
:1050C000295031092930310598F4FC01E35EFB4F8A
:1050D00020813181275131092231310508F4EEC098
:1050E00020813181265031092730310508F4F7C07D
:1050F00010920D04109212041092110484E693E0B1
:105100000E94DA0718161906A4F581E0809373024D
:1051100082E08093DD0284E693E00E94B807182FB6
:105120008093E00261E070E080E090E00E949409EA
:105130001B3409F03EC2E0902C05F0902D0510E0E4
:1051400000E084E693E00E94DA07892B51F084E6C0
:1051500093E00E94B807F701E00FF11F80830F5F13
:105160001F4FF8013197EE0DFF1D80818E3749F7F3
:1051700010820E94C7092091DD02222309F466C231
:105180000E94C70968577C4E8F4F9F4F60936F02F4
:105190007093700280937102909372026091DD02AD
:1051A000662309F4FAC3F090E0026530C0F4B2E679
:1051B000FB16A9F08CE88F0D823088F070E0615FFB
:1051C0007F4F072E000C880B990B0E944A3610E087
:1051D00000E020E030E040EA50E40E942F1280918D
:1051E000DC028356823068F4E3E6FE1651F088ED67
:1051F0009BE00E94D60F81E08093050187E40E9426
:105200000C128091E002803751F08091DB02811115
:1052100006C081E08093DB0280E70E940C121091AF
:10522000E002E6ECE10FE13408F078C30E2E000C4A
:10523000FF0BE35EF64D0C94F23BE72FE22F8E2C32
:105240008E2C8E2C8E2C8E2C8E2C8E2C8E2C8E2C8E
:105250008E2C8E2C8E2C8E2C892F8E2C8E2C8E2C80
:10526000892F8E2C8E2C8E2C8E2C8E2C072E8E2CF5
:105270008E2C8E2C8E2C8E2C8E2C8E2C8E2C8E2C5E
:105280008E2C8E2C8E2C8E2CF12D072E072EEA2F95
:105290008E2C8E2C7C2C8E2C072E5D2DCC2F8E2CC4
:1052A000072E8E2C932D4C2D8E2C7C2C982D072E7A
:1052B000072E7C2C8E2C8E2C8E2C7C2C440F551F74
:1052C000661F771F416004968038910509F0F3CE80
:1052D00080E290E09093660280936502A1CE440F35
:1052E000551F661F771FEFCF823109F4B5C060E00C
:1052F0007EE0883109F0C2CECE0181960E94C71CA3
:105300006FE771E0CE0181960E945E14882309F454
:10531000AAC061E871E086E295E00E94501C66E256
:1053200075E0CE0187960E94341CCE0181960E94C2
:1053300085146CE971E0CE0187960E945E1481119C
:105340001AC000913005109131056FA178A5C801F0
:105350000E94FF3CD8010D900020E9F7CD01029793
:105360008017910709F023C1F80180818093E00242
:1053700081E08093DD0210920D04109212041092CD
:105380001104CE0187960E948514B8CE823409F4A8
:105390005DC048F4803309F44DC066EF7DE088338A
:1053A00009F4AACF6BCE8A3409F453C060EE7DE0D5
:1053B000823509F4A1CF62CE823A39F198F48A3766
:1053C000E1F140F4823621F16DE07EE0883609F4A7
:1053D00093CF54CE803959F16AE07EE0883909F4E0
:1053E0008BCF4CCE823CD1F040F4883AE9F067E0B4
:1053F0007EE0803B09F480CF41CE803E91F062E2B6
:105400007EE0823E09F478CF39CE66E27EE074CF4A
:1054100064E27EE071CF60E27EE06ECF66E17EE026
:105420006BCF64E17EE068CF62E17EE065CF60E152
:105430007EE062CF64E07EE05FCF6CEF7DE05CCF2A
:1054400069EF7DE059CF62EF7DE056CF6CEE7DE0F5
:1054500053CF65EE7DE050CF6CE771E0CE018196D1
:105460000E94861C4DCF64E871E0CE0181960E94B7
:105470005E14811111C066E871E0CE0181960E9430
:105480005E14811109C068E871E0CE0181960E9426
:105490005E14882309F442C08DA19EA1892B21F0BE
:1054A000E9A1FAA1309721F410925A02EAE5F2E05C
:1054B000108110930201163471F461E871E086E204
:1054C00095E00E945E14882331F066E771E086E281
:1054D00095E00E94501C66E275E0CE0101960E94A4
:1054E000341C1FA318A641E050E0BE01695D7F4F48
:1054F000CE0101960E94E71B811104C0CE010196E6
:105500000E947314BE016F5F7F4FCE0187960E9489
:10551000341CCE0101960E94851407CF6AE871E021
:10552000CE0181960E945E1481112EC06DE871E05B
:10553000CE0181960E945E14811126C060E971E05F
:10554000CE0181960E945E1481111EC066E771E053
:10555000CE0181960E945E14811116C063E971E04C
:10556000CE0181960E945E1481110EC018A61FA262
:105570001AA619A61CA61BA6BE016F5D7F4FCE0101
:1055800087960E948D14D1CE69A17AA1611571050B
:1055900049F04DA15EA186E295E00E94131C109196
:1055A000020199CF86E295E00E947314F8CF8BE652
:1055B000DDCE84E693E00E94DA07181619060CF097
:1055C000D8CD6CE971E0CE0181960E94861C13341F
:1055D00029F0812F8B7F6AE0893409F46EE7CE01D0
:1055E00001960E94971CBE016F5F7F4FCE0181968E
:1055F0000E948D14CE0101960E9485142DA13EA11A
:105600003093CA022093C9021B3631F080912C05D9
:1056100090912D05143721F480913005909131053A
:1056200049A15AA1DC01FA01BF01641B750B621785
:1056300073071CF461916D93F7CF820F931FDC0108
:105640001C92CE0181960E94851493CD2091E00298
:10565000233609F4A3CDC0906F02D0907002E09081
:105660007102F09072026C197D098E099F0916165D
:105670001706180619060CF091CD1092730280914E
:105680000401882309F48ACD0E94C7098B019C017B
:105690000C191D092E093F09013D1740210531054F
:1056A0000CF47CCD60936F02709370028093710252
:1056B000909372020E94543520916D0230916E02D7
:1056C000032E000C440B550B0E947D371FEF77FD16
:1056D00009C01F5FE12FF0E0E95CFE4F8081681B8D
:1056E0007109F5CF1111E7C089E48FA38DE488A774
:1056F00024964DAD5EAD6FAD249749A35AA36BA31D
:1057000027966DAD7EAD8FAD279769837A838B83A6
:105710000E94543522E030E040E050E00E947D37A6
:105720006C0F7D1FDB0197968C918093E00283E0E4
:1057300090E09093CA028093C9028091C90290912F
:10574000CA02212E312C281639060CF0A2C00E9464
:10575000543523E030E040E050E00E947D37E62EF3
:10576000F12C220C331CE1E2F0E0EC0FFD1FEE0DFA
:10577000FF1DA080E0912C05F0912D05E20DF31D99
:10578000A082EA2DEE0FFF0BFAABE9ABEA5FFE4F0A
:10579000FEABEDAB80809180092C000CAA08BB0801
:1057A0000E945435E1E0F0E0EC0FFD1FEE0DFF1D0F
:1057B0000081C02ED12CF12CE12C0695402E512CCD
:1057C000712C612CA70196010E947D37860E971ED1
:1057D000A81EB91E84189508A608B708F7EA8F1600
:1057E000FFEF9F06AF06BF0654F549A95AA94A5FC5
:1057F0005E4F5AAB49ABDA018D909C90092C000C9E
:10580000AA08BB080E945435A70196010E947D3763
:10581000680D791D8A1D9B1D6419750986099709F4
:10582000673A7F4F8F4F9F4F44F566EAE0912C0512
:10583000F0912D05E20DF31D61831F5F7ECFEDA971
:10584000FEA980809180092C000CAA08BB080E9448
:105850005435A70196010E947D37860E971EA81E1B
:10586000B91E84189508A608B7086AE5FAE58F16E8
:105870009104A104B104D4F6B8CFA9A9BAA9BC90E7
:105880000E945435A70196010E947D37B01A6B0D16
:10589000CDCF880F991F9093CA028093C90220919F
:1058A0002C0530912D05820F931FFC01108284E698
:1058B0008093DD0273CCE12FF0E0EE0FFF1FE85D77
:1058C000F14F6591749180912C0590912D050E9466
:1058D000CA3580912C0590912D05BC01DB012D91DD
:1058E000BD012093E0022B3621F480913005909188
:1058F00031050E94FF3CDBCF173659F4809105013A
:1059000091E0892780930501811117E41093E0024B
:1059100005C0163709F0A6C00E94E7118091E00289
:105920008B3609F06BC39091F20219160CF46AC31E
:10593000009130051091310569E771E0C8010E94BE
:10594000F63CF090E002892BF1F08F2D8B7F8934AB
:10595000D1F080912E0590912F05009711F00E94B3
:105960007F3481E090E00E94E333F8010190002051
:10597000E9F7E01BDC01EC9390932F0580932E0553
:10598000B8010E94FF3C1092DD02F092DC028F2DE4
:10599000877F833611F01092E0028091E0028B360F
:1059A00009F023C61091F20217FFE1C38091FF02B4
:1059B00033243A94380E823008F4312C10E0212F31
:1059C00030E08091F202082E000C990B97FF03C083
:1059D000919581959109281739070CF006C6E0903A
:1059E0000103F09002038091F702189FE00CF11C74
:1059F0001124F7016089062E000C770B880B990B98
:105A00000E944A3620E030E040E85EE30E94A9367A
:105A10009B01AC0100E06091FC02C7010E94CD1720
:105A2000A0910103B09102038091F702189FA00D8D
:105A3000B11D112452962C915297211100C38091CF
:105A4000F702E0910103F0910203189FE00DF11DB0
:105A50001124618916160CF470C3EEEC6E02B001CD
:105A600011246FC31A3759F48091040191E08927FA
:105A700080930401882309F449CF1AE547CF1237F0
:105A800009F04CCF80910301819580930301181692
:105A90000CF03CCF12E53ACF8091DB0291E081110E
:105AA00090E09093DB02811110E51093E0028823CF
:105AB00009F434CF0E946A0D31CF0E94DF106CE9E7
:105AC00071E0CE0181960E94861C06E011E0A6E2FC
:105AD000EA2EA1E0FA2ED8016D917D918D01CE01C3
