:100000000C945E100C9486100C9486100C94861040
:100010000C9486100C9486100C9486100C941A2163
:100020000C9486100C9486100C9486100C94372334
:100030000C9486100C9486100C9486100C948610E8
:100040000C94CE210C9486100C949C210C94762157
:100050000C9486100C9486100C9486100C948610C8
:100060000C9418220C94861007634236B79BD8A7CD
:100070001A39685618AEBAAB558C1D3CB7CC5763CD
:10008000BD6DEDFD753EF6177231BF000000803F7B
:1000900008000000BE922449123EABAAAA2ABECD97
:1000A000CCCC4C3E00000080BEABAAAAAA3E000009
:1000B0000000BF000000803F000000000008417801
:1000C000D3BB4387D1133D190E3CC3BD4282AD2B38
:1000D0003E68EC8276BED98FE1A93E4C80EFFFBE30
:1000E00001C4FF7F3F0000000000FA00000103048C
:1000F0000100ECC400FBFB14141E1EA6A63C3C2D04
:100100002D1000000000F60000FBFB14141E1EBCA6
:10011000BC3C3CD8D81000000014ECEC00FBFB14F5
:1001200014444906063C38BABA0800000014ECEC46
:1001300000FBFB1414E44E06063C38BABA0C02006D
:1001400000ECD8F900FBFB141432BA0606283CBABE
:10015000BA2000000000000000000000001E1EE2A7
:10016000E21E1EE2E208000000FD000001000000A7
:100170001EB62200000000001E1EE2E21E1EC5E1A7
:10018000080C00003E00EC0000000000FD9D730024
:100190005109F7B9200A000000110000000000001A
:1001A0001E1EE2E21E1EE2E208000000FA0000014C
:1001B0000102031E1E0000000000003C3C46460FEA
:1001C0000FBABA0600000000D80000000000001EB0
:1001D0001E5F5F3C3CBABA06010000050500000046
:1001E0000000004B4B3737CECEB5B50800000005F8
:1001F000050000000000004BBA3737CE46B5B50801
:100200000000003CE2D3000000000046BA3700E2E4
:10021000D3B5D30801000000000000000000001E5C
:100220001EE2E21E1EE2E208000000FB00000102E6
:1002300003021E1400000FF63CF6282855D30A3C92
:100240000FD3060000002D14D3000FF63CF63C350A
:100250004BC4E22800EB020A00001E14C9000FF68E
:100260003CF6282855D30A3200D30800000028198C
:10027000E2000FF63CF6282846D30A32E2D3080003
:10028000000000000000000000001E1EE2E21E1E32
:10029000E2E208000000FC00000101020300ECBFE4
:1002A00000000000001E1EA6A63C3C2D2D050100EE
:1002B0000023F1BF00FDFD0303B51EABBA28413C8E
:1002C000000600000028F6C900FDFD0303C41EB0AF
:1002D000BA3C413C000600000000000000000000A5
:1002E000001E1EE2E21E1EE2E208000000FC00000A
:1002F0000101020100000000000000001E1EE2E2F9
:100300001E1EE2E208000000DD0AC400000000003A
:100310004637DDD8F6F1D3EC080000002337230080
:10032000000000003746D8DDF1F6ECD308140000D9
:1003300000000000000000001E1EE2E21E1EE2E2BD
:1003400008000000010000010000000000000000A3
:10035000000000000000000001000F010A46E2005A
:10036000FBFB0000B5B5D3D33C3CD3D30100000167
:10037000F69C0000FBFB030350505050C9C9C9C98B
:100380000100E2010AECC400FBFB14141E1EA6A629
:100390003C3C2D2D01000001E2B0D300FDFD030324
:1003A0003C3CC4C4D3D32D2D01E20F01D33CC40087
:1003B00005050303C446D3DD0FC40ABF0100B50120
:1003C00000BA000000000000373714142D2D000083
:1003D00001004B01001E0000FBFB0F0FB5B5C4C4AC
:1003E0003C3C1E1E01000001000000000000000057
:1003F000000000000000000001000F0114280000B0
:10040000050503035A5AD3D3C4C4FBFB0100000102
:1004100000000000000000001E1EE2E21E1EE2E2DC
:100420002C000001242ECBCE0B15FAEE242FC5CEC6
:100430000D17F5EF2330C3CE0E18E9F02331C3CFEB
:100440000E1ADFF02432C5CF0E1BDAF02532C8D0E9
:100450000D1ED3F02532CCD00D20CEF12633CFD1D6
:100460000D23CAF12732D0D10D27CBF12733CED2BD
:100470000D27CEF12835CED20D24D2F22938CDD297
:100480000D20D6F2293BCDD30D1AD9F22A3BCDD47B
:100490000D17DDF22B3CCDD50D11DFF22B37CDD46E
:1004A0000E09E2F32C30CED40E05E3F52C26CED384
:1004B0000F05E6F52C1BCFD20F08E8F62D0ED0D293
:1004C0000F0FEAF72E0BD1CF0F11EAF72E09D2CD7D
:1004D0000F14EDF62E06D3CB1019EDF32F05D5CA68
:1004E000101DEEF02F05D6C81020EFEE3007D7C84C
:1004F000101EF0EB300AD9C8111BF0EA310DDBC831
:100500001119F0E93110DDC91117F0E73212DFCA15
:100510001217F0E63214E1CB1415F0E63217E3CBF4
:100520001414EFE63319E5CA1312EFE8331BE7CAD8
:100530001212EEE9341DEACA1012EDE9341FEDCBB8
:100540000F11EBEA3421EFCB0D11EAEA3123F0CBA6
:100550000C11EBEB3025EECC0A11EFEB2D27ECCC98
:100560000A11F3EC2A29E9CC0811F7EC272AE7CD88
:100570000913F8ED262BDECD0914FCED252DD3CD86
:100580000A14FDED2C000001062ECBD31915FAED4F
:10059000052FC5D51D17F5EE0530C3D62018E9EF98
:1005A0000731C3D71E1ADFF00A32C5D91B1BDAF098
:1005B0000D32C8DB191ED3F01032CCDD1720CEF07F
:1005C0001233CFDF1723CAF01432D0E11527CBF056
:1005D0001733CEE31427CEEF1935CEE51224D2EF30
:1005E0001B38CDE71220D6EE1D3BCDEA121AD9ED0D
:1005F0001F3BCDED1117DDEB213CCDEF1111DFEAF3
:100600002337CDF01109E2EB2530CEEE1105E3EFF3
:100610002726CEEC1105E6F3291BCFE91108E8F7F0
:100620002A0ED0E7130FEAF82B0BD1DE1411EAFCE7
:100630002D09D2D31414EDFD2E06D3CB1519EDFAE6
:100640002F05D5C5171DEEF53005D6C31820EFE9E7
:100650003107D7C31A1EF0DF320AD9C51B1BF0DAE7
:10066000320DDBC81E19F0D33210DDCC2017F0CECE
:100670003312DFCF2317F0CA3214E1D02715F0CBA5
:100680003317E3CE2714EFCE3519E5CE2412EFD27F
:10069000381BE7CD2012EED63B1DEACD1A12EDD95C
:1006A0003B1FEDCD1711EBDD3C21EFCD1111EADF42
:1006B0003723F0CD0911EBE23025EECE0511EFE343
:1006C0002627ECCE0511F3E61B29E9CF0811F7E840
:1006D0000E2AE7D00F13F8EA0B2BDED11114FCEA37
:1006E000092DD3D21414FDED240000011D1AE3E6F8
:1006F0001B16E4E91B1AE5E61C16E3E91A19E6E7FE
:100700001E18E1E71919E7E71F18E0E71719E9E7ED
:100710002116DEE91417ECE92315DCEA1111EFEFDD
:10072000271BD8E4100BF0F52923D6DC0D0AF3F6CD
:100730002A26D5D90A0AF6F62828D7D70A0DF6F3BD
:10074000262AD9D50B10F5F02329DCD61111EFEFAD
:100750001B27E4D81714E9EC1523EADC1917E7E99D
:100760001621E9DE1919E7E7181FE7E0191AE7E68D
:10077000181EE7E11A1BE6E5161CE9E31A1DE6E37D
:10078000161BE9E4191FE7E1191CE6E31721E9DF6D
:100790001B1EE4E11724E9DC1B1FE4E01826E8DA5D
:1007A0001A1CE5E31D29E3D71418EBE7222BDED54D
:1007B0000E18F1E7272ED9D20D18F2E72A2ED6D23D
:1007C0001018EFE72D2CD3D41714E8EB2E2AD2D62D
:1007D0001810E7EF2C25D4DB180CE7F32B1FD5E11D
:1007E0001811E7EE271AD9E61A18E5E72518DBE80D
:1007F0001E1AE1E52317DDE91F1BE0E42118DFE8FD
:100800001E1AE1E51E1AE2E61B18E4E70E000001DD
:100810002E26C6D0EDFE14032726CFD0FDFE0503FD
:100820002626D0D0FEFE03032628D0CEFEFB0306EC
:10083000262FD0C5FEEC03162633D0BEFEDF0322E2
:100840002630D0C3FEE8031A262AD0CBFEF7030BCE
:100850002626D0D0FEFE03032626D0D0FEFE0303BC
:100860002A26CCD0F8FE09033026C4D0E9FE1803AE
:100870003326BED0DFFE22032F26C5D0EBFE1703A2
:1008800021000001312ECFC80701F4F73123D1C672
:100890000803F6F53217D4C40907F7F3330AD7C3B0
:1008A000090FF7F03403DAC30A16F7ED3400DEC49B
:1008B0000A1DF6EB3500E2C50B1FF5EA3605E5C566
:1008C0000B1AF5EC360AE9C50C16F2ED370EEDC53C
:1008D0000C13F0EE3812F1C60D11EDEF3816F4C618
:1008E0000E0FECF0391AF2C70D0DF1F1391EEEC7FB
:1008F0000B0CF6F23822E2C8080BFDF33625D7C8F8
:10090000070A00F33329CDC9060AFFF4312BC5C904
:10091000040BFCF62E2EC0CA040BF4F62B31BFCB11
:10092000040CE8F72832C2CB040ED8F72635C5CC24
:100930000510D0F82536CBCD0812C7F82638C9CE19
:100940000715CEF82738C8CF0719D5F82839C7D0EA
:10095000071DDBF92A39C7D10721E0F92A38C7D2A8
:100960000727E5F92C3CC7D20722E9FA2D40C8D069
:10097000071AECFC2E3FC9CE0711EFFB2F3CCBCB67
:100980000708F1FB3035CDC90703F3F92100000159
:10099000292ECFC90B01F4FE2C23D1C30B03F6F88B
:1009A0002F17D4C00B07F7EE320AD7BF0C0FF7E1B1
:1009B0003303DAC30F16F7D53500DEC9101DF6CBA9
:1009C0003700E2CB131FF5C93805E5C9171AF5D171
:1009D000390AE9C71A16F2D8390EEDC71E13F0DE30
:1009E0003912F1C62211EDE33A16F4C7250FECE7F0
:1009F0003D1AF2C81F0DF1EA401EEEC8190CF6EEC2
:100A00003E22E2CA0E0BFDF03A25D7CC060A00F2D0
:100A10003229CDCE020AFFF4292BC5D0010BFCF6FA
:100A20001D2EC0D3040BF4F61131BFD60A0CE8F723
:100A30000632C2D9140ED8F70135C5DC1910D0F72B
:100A4000FF36CBE01F12C7F60338C9E41D15CEF4FC
:100A50000838C8E81819D5F30C39C7EC151DDBF1B7
:100A60001139C7F01121E0EE1438C7F41027E5EC76
:100A7000193CC7F30D22E9EF1D40C8EF0C1AECF644
:100A8000203FC9E70B11EFFB243CCBDB0A08F1FF49
:100A90002735CDD00A03F3001E00F6011523C7CC7D
:100AA000251EF9F31624C5CC241DF6F51725C5CC53
:100AB000231DF2F51825C5CD231DF1F61927C7CD45
:100AC000221CEEF71A29C9CD2119EBF71B2ACACE31
:100AD0002117ECF71C2AC9CE2015EDF81D28CACF26
:100AE0002015EEF91E24CAD02017EFF91F20CAD016
:100AF0001F19F0FB201BCACE1F1BF1FE2119CBCC06
:100B00001F1CF1FF2217CBCB1D20F2FF2215CBC9F2
:100B10001D23F3FD2315CCC71E25F3F92416CCC5E0
:100B20001D24F5F62517CCC51D23F5F22518CDC5D6
:100B30001D23F6F12719CDC71C22F7EE291ACDC9BE
:100B40001921F7EB2A1BCECA1721F7EC2A1CCEC9B4
:100B50001520F8ED281DCFCA1520F9EE241ED0CAA5
:100B60001720F9EF201FD0CA191FFBF01B20CECA97
:100B70001B1FFEF11921CCCB1C1FFFF11722CBCB81
:100B8000201DFFF21522C9CB231DFDF31400EC013B
:100B90007375D2CD3231DBE77275D8C73431D7E9FE
:100BA0007275DEC23431D2EB7275E5BE3431CAEBF8
:100BB0007274EABE3630C5E87274E6BF3630CEE3F2
:100BC0007373E3C33432D4DE7473DEC53232DBE0D8
:100BD0007473D7C93232E0DF7473D1CE3232E5DDBF
:100BE0007572CBD43134E8DA7572C6DA3134E9D5AE
:100BF0007572C2E03134EBCF7472BEE83036EAC6AB
:100C00007472BEE93036E7C87473C0E63034E2D09F
:100C10007374C4E13232DED77374C6DB3232DEDD88
:100C20007374CAD53232DEE27374CFCF3232DCE66F
:100C30002A000A012231CDCCE9EC08022134C9CCCA
:100C4000E9EC09021F36C6CDEAED0A021D38C2CE14
:100C5000EBED0A011D3ABFCFEDEE0A011E3DBCCF00
:100C6000EDEF09011F3FB9D1ECF008002143B6D1E7
:100C7000EBED07002143B4D2ECE805002340B8D3E4
:100C8000EBE7FD00243DBAD4EBE6FEFF2439BCD5EA
:100C9000EAE5FFFF2635BED6EAE500FE2731BFD5DF
:100CA000EAE50001282CC1D4EAE600022927C3D2D4
:100CB000EAE601022A23C5D1EAE802032B1EC7D0C7
:100CC000E9E901032C1ACACEEAEB01042D14CCCDBC
:100CD000E9ED01042D10CFCCE9F000032E0BD1CAB1
:100CE000E9F300043007D4CAE9F6FF043002D6C89D
:100CF000E9FAFD0531FDD9C7E900FC0432FEDCC686
:100D0000E903FB053301DFC5E900F9053404E1C45B
:100D1000E9FDF8053607E4C3E8FBF705360BE7C243
:100D2000E7F9F504350EE9C3E6F7F2023311EDC336
:100D3000E6F6F0023214F0C4E6F4ED023017F4C522
:100D4000E6F2EA022F1AEFC6E7F1F3022D1DEBC619
:100D5000E7F0F8022C20E6C7E7EFFC022A23E2C7FF
:100D6000E7EEFE032926DEC8E7ED01022729D9C9EF
:100D7000E8ED0402262CD5CAE8EC0502242FD1CBDD
:100D8000E9EC07022A000A010B31CDD1F3EC08008F
:100D90000734C9D4F6EC09FF0236C6D6FAED0AFDCF
:100DA000FD38C2D900ED0AFCFE3ABFDC03EE0AFBB7
:100DB000013DBCDF00EF09F9043FB9E1FDF008F89F
:100DC0000743B6E4FBED07F70B43B4E7F9E805F595
:100DD0000E40B8E9F7E7FDF2113DBAEDF6E6FEF098
:100DE0001439BCF0F4E5FFED1735BEF4F2E500EA86
:100DF0001A31BFEFF1E500F31D2CC1EBF0E600F86E
:100E00002027C3E6EFE601FC2323C5E2EEE802FE5D
:100E1000261EC7DEEDE90101291ACAD9EDEB01044E
:100E20002C14CCD5ECED01052F10CFD1ECF0000740
:100E3000310BD1CDECF300083407D4C9ECF6FF092F
:100E40003602D6C6EDFAFD0A38FDD9C2ED00FC0A1D
:100E50003AFEDCBFEE03FB0A3D01DFBCEF00F909FF
:100E60003F04E1B9F0FDF8084307E4B6EDFBF707EE
:100E7000430BE7B4E8F9F505400EE9B8E7F7F2FDF2
:100E80003D11EDBAE6F6F0FE3914F0BCE5F4EDFFE5
:100E90003517F4BEE5F2EA00311AEFBFE5F1F300D1
:100EA0002C1DEBC1E6F0F8002720E6C3E6EFFC01BD
:100EB0002323E2C5E8EEFE021E26DEC7E9ED0101AE
:100EC0001A29D9CAEBED0401142CD5CCEDEC05019F
:100ED000102FD1CFF0EC07002D0000011A25C8C655
:100EE00006F8FA04192FC6C906F6F9051838C5CB55
:100EF00006F5F8051740C4CE07F7F6051642C3D02D
:100F000008F9F4051642C2D108FCF3051541C1D217
:100F10000900F103143EC1D20904EF02133BC0D310
:100F20000A07ED001239C0D20A07EA001138C0D210
:100F30000B06E7001036C0D10C05E4000F34C0D01A
:100F40000C04E1000E33C0D00D04DE000D31C1CF22
:100F50000E03DA000C2FBECE0E03DC000D2DBCCE2E
:100F60000C03DF000D2BB8CD0B03E6000F28B5CC2A
:100F70000903EB001026B5CC0704F0001424B5CB10
:100F80000505FA001721B8CA030502001B1FBDCAD8
:100F9000010607FF1E1CC4C9FF070AFF211ACDC89E
:100FA000FE080BFF2517D7C8FD0A09FF2714DCC769
:100FB000FC0C07FE2812E0C7FD0D05FE270FE3C657
:100FC000FD0F01FE270CE5C6FF11FCFD2609E5C556
:100FD0000014F9FD2506E3C50116F9FD2503E1C45A
:100FE0000119FAFD2400DEC4011CFBFC23FDDCC456
:100FF000021FFCFC22FAD9C30222FCFB21F6D7C354
:101000000226FCFB20F6D5C20324FDFB20F6D3C04C
:101010000321FDFD1FFAD1C0031AFDFE1EFDCFBF47
:101020000415FD001D01CDC00410FC001C0CCBC13B
:101030000506FC021B18CAC405FEFB031B22C8C61A
:1010400005F9FA0420000001292EC8E80B01F0F38D
:101050002739C7E90B03EEF12440C6E80B0BECF08F
:101060002240C6E50C0DEAF21F3EC5E20C12E7F382
:101070001C3CC5DF0D14E4F4193AC5DC0F15E1F58D
:101080001639C3DA1013E2F61338C0D71211E5F699
:101090001037BED5140FE9F60D35BED3170DEEF59A
:1010A0000B34C2D1170CF9F50D32CCCE130BFEF573
:1010B0001030D8CD0F0AFEF4142EE3CB0A0AFAF34F
:1010C000232CE6CA0309F7F13129E8C8010BF3F034
:1010D0003B27E9C7040BF0EE4024E7C60B0BF1EC0D
:1010E0003F21E4C50E0CF2E93E1FE2C5120CF3E607
:1010F0003B1CDFC5150DF5E33A19DCC5150FF5E00E
:101100003916D9C31210F6E23812D7C01012F6E61B
:10111000360FD5BE0F14F6EB350CD3BF0D17F5F017
:10112000330CD1C40C16F5FA310ECECD0B11F5FEF1
:101130003010CCDA0A0EF4FE2E17CBE40A09F2F9CD
:101140002B26C9E70A02F1F71E003C014E57E1DEEB
:101150002B1AD0D44E56E0E02C19D1CE4E55E0E2F9
:101160002C1AD1CA4E53DFE32C1DD3C84F4FDFE3F7
:101170002B22D3C84F4DDEE42B26D4C64F4BDDE4E3
:101180002B2BD6C74F4BDDE42B2DD6C7504CDDE4BF
:101190002B2DD8C7534CDCE3282DD9CA564DDBE3A1
:1011A000232CDBCA584DDBE21E2CDBCC594DDBE295
:1011B0001B2CDACC584EDBE11A2BDACD584EDBE192
:1011C000192BD8D0574EDEE1192CD4D0564EDFE083
:1011D000192CD0D1554EE1E01B2CCCD1534EE2DF7F
:1011E0001C2CCAD3504FE3DE202BC8D44D4FE4DE75
:1011F000262BC6D44C4FE4DD2A2BC7D64B4FE4DD5B
:101200002C2BC7D64C51E4DC2D2AC7D94C54E4DC36
:101210002D27C7D94D57E3DB2C21CADB4D58E2DB24
:101220002C1DCCDB4D58E2DB2C1BCCDA4D58E1DB1E
:101230002C1ACDD84E58E1DC2B19CDD71E00000159
:101240002727B0B014142F2F1E1EB7B71818303030
:101250001A1AC0C019192E2E1717C9C918182B2B06
:101260001515D0D0141427271515D7D70F0F202008
:101270001616DCDC08081A1A1818E1E1000013132E
:101280001A1AE4E4F8F80C0C1D1DE7E7F1F1040468
:101290002121E8E8E9E9FCFC2626E9E9E2E2F6F6A4
:1012A0002C2CE8E8DCDCF1F13333E6E6D7D7EFEFBE
:1012B0003C3CE2E2D3D3EEEE4444DCDCD1D1EBEBB8
:1012C0004D4DD8D8D1D1E7E75454D5D5D2D2E7E7A0
:1012D0005757D0D0D6D6EAEA5959CBCBDBDBEEEE66
:1012E0005858C5C5E2E2F3F35555BEBEE8E8FBFB2E
:1012F0005151B8B8F0F003034D4DB2B2F7F70B0BF4
:101300004747AEAEFFFF12124040AAAA05051919C1
:101310003A3AA8A80B0B20203535A7A7101026268F
:101320003030A9A912122B2B2A2AAEAE13132E2E5F
:1013300000000000240027002A0000000000250013
:1013400028002B00000000002300260029000404D0
:10135000040404040404020202020202030303035D
:101360000303010204081020408001020408102039
:101370000102040810200000000800020100000320
:10138000040700000000000000000252657365744D
:10139000206A6F696E74206F6666736574733F2888
:1013A000592F6E290049324320454550524F4D2058
:1013B0006F766572666C6F77212044656C65746525
:1013C00020736F6D6520736B696C6C73210A00204C
:1013D0006F6E2049324320454550524F4D0A004917
:1013E0006E7374696E637473207573656420005343
:1013F00061766520736B696C6C73000A436F6E666F
:10140000696775726520454550524F4D000A2A2084
:101410004368616E6765206D6F64656C20616E6402
:1014200020626F61726420646566696E6974696FB9
:101430006E7320696E204F70656E4361742E696E05
:101440006F21004D487A00496E6974207365727689
:101450006F733A200000F8F62A3F68F57A0006FF1D
:10146000FE0003000000650054FFEF0000FA80005A
:101470000B12820001030C30C30A74562D0D62DB7F
:10148000C716F4BA023883F8833000F883258EF843
:10149000833000F883FFFFFFFF0CBDD81124000448
:1014A000001A8279A10036003C0000000000100004
:1014B0000038836FA2003E03304000000002CAE300
:1014C000093E8000002000000000000000400000F5
:1014D00000600000001FA4E8E4FFF5DCB9005B79C0
:1014E000CF1F3F787600867C5A00862347FAB9865C
:1014F000310074878A0000000000004305FFFFE907
:10150000A800002182FAB84D46FFFADF3DFFFFB286
:10151000B3000000003FFFBA98005DAC08000A630A
:101520007800014621FFFF0000000042B5000600E0
:1015300064006400061406029F0F479132D90E9F83
:10154000C91DCF4C343BB67AE80064000600C800E1
:10155000000000FFFE10000000000000000000007E
:10156000000000000000070000FFF10000FA460044
:1015700000A2B800001000000004D6000004CC0057
:101580000004CC000000000000000000000000008B
:101590000000000000000600020005000700000037
:1015A0000000640000000000000000000C000500C6
:1015B0006400200000000000000000000000004067
:1015C000000000030000000032F8980000FF6500F2
:1015D00000830F000000060000FFF10000FA460043
:1015E00000A2B800000000000000000000000000A1
:1015F00000000000000000003200000000000000B9
:101600000000001000000000010000000D0000B20A
:101610006A000200000001FB83007C0000FB15FC57
:10162000001FB4FF83000000010065000700640391
:10163000E8006400280000FFFD0000000016A00084
:10164000000000000000001000002F00000000015A
:10165000F40000100000280000FFFF4581FFFFFAA2
:10166000720000000000000000004400010005BA04
:10167000C6004778A200000000000000000000063D
:101680000000000014000023BB002EA25B00000538
:1016900068000BCF490004FFFD00020000000000BD
:1016A0000200000000001B0000000000000000001D
:1016B000000000000000640007000800060006FFAC
:1016C000FE0000000000000000000000000000001C
:1016D000000000000000000000000000000000000A
:1016E00000000000000000000000000000000000FA
:1016F0000000000000002EA25B00000568000BCF78
:10170000490000000000F8F62A3F68F57A0004FF5F
:10171000FD00020000001B000000000000000000AF
:1017200000000E000EFFFFFFCF00040000000000CD
:1017300032FFFFFF9C000043050000000000000096
:101740000100000064FFE500000000000000000050
:101750000000000000000000010000000000010087
:1017600000000000000001800000018000000180F6
:1017700000002426D3000100010000000000060044
:10178000100096003C000000000000000000000077
:10179000001F9E655D0C0A4E68CDCF770950166715
:1017A00059C619CE820000000000000000000000B1
:1017B000000047711C000000000000000017D784E3
:1017C00000030000000011DC4703000000C7938FF6
:1017D0009D1E1B1C19FFFFFFFF000000000EDFA471
:1017E000381F9E655D000000000047711C02031851
:1017F0008500004000000000000000000300000021
:1018000000000000003FFFFFFDFFFFF4C9FFFFBC29
:10181000F000010C0F0000000000000000000000BC
:1018200000000000000000000000000000000000B8
:101830000000000000F5B7BAB3677DDF7E72902E1E
:10184000554CF6E688000000000000000000000093
:101850000000000000D8DCB4B8B0D8B9ABF3F8FA97
:10186000B3B7BB8E9EAEF132F51BF1B4B8B0809722
:10187000F1A9DFDFDFAADFDFDFF2AA4CCD6CA90C14
:10188000C92C97F1A989264666B28999A92D557D5B
:10189000B0B08AA896365676F1BAA3B4B280C0B872
:1018A000A89711B28398BAA3F0240844106418B220
:1018B000B9B49883F1A329557DBAB5B1A38393F048
:1018C000002850F5B2B6AA839328547CF1B9A382BC
:1018D0009361BAA2DADEDFDB819AB9AEF560687097
:1018E000F1DABAA2DFD9BAA2FAB9A38292DB31BA8D
:1018F000A2D9BAA2F8DF85A4D0C1BBAD83C2C5C747
:10190000B8A2DFDFDFBAA0DFDFDFD8D8F1B8AAB333
:101910008DB4980D355DB2B6BAAF8C96198F9FA76E
:101920000E161EB49AB8AA872C547CBAA4B08AB6F4
:1019300091325676B28494A4C808CDD8B8B4B0F128
:101940009982A82D557D98A80E161EA22C547C9223
:10195000A4F02C5078F184A898C4CDFCD80DDBA855
:10196000FC2DF3D9BAA6F8DABAA6DED8BAB2B68692
:1019700096A6D0F3C841DAA6C8F8D8B0B4B882A801
:1019800092F52C548898F135D9F418D8F1A2D0F8F2
:10199000F9A884D9C7DFF8F883C5DADF69DF83C126
:1019A000D8F40114F1A8824EA884F311D182F5D99C
:1019B00092289788F109F41C1CD884A8F3C0F9D1A7
:1019C000D99782F129F40DD8F3F9F9D1D982F4C26B
:1019D00003D8DEDF1AD8F1A2FAF9A88498D9C7DFB4
:1019E000F8F8F883C7DADF69DFF883C3D8F40114A5
:1019F000F198A8822EA884F311D182F5D99250973C
:101A000088F109F41CD884A8F3C0F8F9D1D99782D9
:101A1000F149F40DD8F3F9F9D1D982F4C403D8DE31
:101A2000DFD8F1AD8898CCA809F9D98292A8F57CC5
:101A3000F1883ACF944A6E98DB6931DAADF2DEF97B
:101A4000D88795A8F221D1DAA5F9F417D9F1AE8E8D
:101A5000D0C0C3AE82C684C3A88595C8A588F2C08D
:101A6000F1F4010EF18E9EA8C63E56F554F188722F
:101A7000F40115F19845856EF58E9E0488F1429823
:101A80005A8E9E068869F4011CF1981E1108D0F543
:101A900004F11E970202983625DBF9D985A5F3C11A
:101AA000DA85A5F3DFD88595A8F309DAA5FAD882F7
:101AB00092A8F578F1881A849F26889821DAF41D77
:101AC000F3D8879F39D1AFD9DFDFFBF9F40CF3D816
:101AD000FAD0F8DAF9F9D0DFD9F9D8F40BD8F387CE
:101AE0009F39D1AFD9DFDFF41DF3D8FAFCA869F92B
:101AF000F9AFD0DADEFAD9F88F9FA8F1CCF398DBF2
:101B000045D9AFDFD0F8D8F18F9FA8CAF38809DA9A
:101B1000AF8FCBF8D8F2AD978D0CD9A5DFF9BAA667
:101B2000F3FAF412F2D8950DD1D9BAA6F3FADAA5E0
:101B3000F2C1BAA6F3DFD8F1BAB2B68696A6D0CA79
:101B4000F349DAA6CBF8D8B0B4B8D8AD84F2C0DF88
:101B5000F18FCBC3A8B2B68696C8C1CBC3F3B0B4DD
:101B60008898A821DB718D9D71859521D9ADF2FAF8
:101B7000D88597A828D9F408D8F28D29DAF405D9A0
:101B8000F285A4C2F2D8A88D9401D1D9F411F2D86B
:101B90008721D8F40AD8F28498A8C801D1D9F411C1
:101BA000D8F3A4C8BBAFD0F2DEF8F8F8F8F8F8F82C
:101BB000F8D8F1B8F6B5B9B08A95A3DE3CA3D9F848
:101BC000D85CA3D9F8D87CA3D9F8D8F8F9D1A5D98D
:101BD000DFDAFAD8B18530F7D9DED8F830ADDADE01
:101BE000D8F2B48C99A32D557DA083DFDFDFB591AA
:101BF000A0F629D9FBD8A0FC29D9FAD8A0D051D970
:101C0000F8D8FC51D9F9D879D9FBD8A0D0FC79D92A
:101C1000FAD8A1F9F9F9F9F9A0DADFDFDFD8A1F8EC
:101C2000F8F8F8F8ACDEF8ADDE8393AC2C547CF118
:101C3000A8DFDFDFF69D2CDAA0DFD9FADB2DF8D89C
:101C4000A850DAA0D0DED9D0F8F8F8DB55F8D8A83B
:101C500078DAA0D0DFD9D0FAF8F8F8F8DB7DF8D838
:101C60009CA88CF530DB38D9D0DEDFA0D0DEDFD801
:101C7000A848DB58D9DFD0DEA0DFD0DED8A868DBEB
:101C800070D9DFDFA0DFDFD8F1A888902C547C98D2
:101C9000A8D05C38D1DAF2AE8CDFF9D8B087A8C111
:101CA000C1B188A8C6F9F9DA36D8A8F9DA36D8A8C1
:101CB000F9DA36D8A8F9DA36D8A8F9DA36D8F78DAD
:101CC0009DADF818DAF2AEDFD8F7ADFA30D9A4DE60
:101CD000F9D8F2AEDEFAF983A7D9C3C5C7F1889B5C
:101CE000A77AADF7DEDFA4F8849408A797F300AED7
:101CF000F29819A488C6A39488F632DFF28393DBA6
:101D000009D9F2AADFD8D8AEF8F9D1DAF3A4DEA760
:101D1000F1889B7AD8F38494AE19F9DAAAF1DFD866
:101D2000A881C0C3C5C7A39283F628ADDED9F8D871
:101D3000A350ADD9F8D8A378ADD9F8D8F8F9D1A186
:101D4000DADEC3C5C7D8A18194F818F2B089ACC354
:101D5000C5C7F1D8B8B4B09786A8319B069907AB30
:101D60009728889BF00C201440B0B4B8F0A88A9A49
:101D7000285078B79BA82951792470594469386450
:101D80004831F1BBAB88002C547CF0B38BB8A8046D
:101D9000285078F1B088B49726A85998BBABB38B7C
:101DA00002264666B0B8F08A9CA82951798B295141
:101DB000798A2470598B2058718A4469388B39404C
:101DC000688A6448318B30496088F1AC002C547CBF
:101DD000F08CA804285078F1889726A85998AC8CE4
:101DE00002264666F0899CA82951792470594469D5
:101DF00038644831A98809205970AB11384069A866
:101E0000193148608CA83C415C207C00F18798190E
:101E100086A86E767EA999882D557DD8B1B5B9A3CF
:101E2000DFDFDFAED0DFAAD0DEF2ABF8F9D9B087C2
:101E3000C4AAF1DFDFBBAFDFDFB9D8B1F1A3978E62
:101E400060DFB084F2C8F8F9D9DED89385F14AB1E1
:101E500083A308B5839A0810B79F10D8F1B0BAAE23
:101E6000B08AC2B2B68E9EF1FBD9F41DD8F9D90C56
:101E7000F1D8F8F8AD61D9AEFBD8F40CF1D8F8F888
:101E8000AD19D9AEFBDFD8F416F1D8F8AD8D61D914
:101E9000F4F4ACF59C9C8DDF2BBAB6AEFAF8F40BDB
:101EA000D8F1AED0F8AD51DAAEFAF8F1D8B9B1B692
:101EB000A3839C08B9B1839AB5AAC0FD3083B79FAC
:101EC00010B58B93F20202D1ABDADED8F1B080BA52
:101ED000ABC0C3B284C1C3D8B1B9F38BA391B60967
:101EE000B4D9ABDEB0879CB9A3DDF1B38B8B8B8B00
:101EF0008BB08720283038B28BB69BF2A3C0C8C203
:101F0000C4CCC6A3A3A3F1B087B59AD8F39BA3A36F
:101F1000DCBAACDFB9A3FEF2ABC4AAF1DFDFBBAF22
:101F2000DFDFA3A3A3D8D8D8BBB3B7F1AAF9DAFFF0
:101F3000D9809AAA28B48098A720B79787A86688DE
:101F4000F07951F1902C870CA781976293F0717111
:101F50006085940129517990A5F1284C6C870C95E6
:101F6000188578A38390284C6C886CD8F3A28200E3
:101F7000F210A8921980A2F2D926D8F188A84DD9DA
:101F800048D896A83980D93CD89580A839A6869893
:101F9000D92CDA87A72CD8A8899519A980D938D83F
:101FA000A88939A980DA3CD8A82EA83990D90CD8AC
:101FB000A8953198D90CD8A809D9FFD801DAFFD84B
:101FC0009539A9DA26FFD890A80D8999A81080988C
:101FD00021DA2ED88999A83180DA2ED8A8869631B0
:101FE00080DA2ED8A8873180DA2ED8A88292F341E1
:101FF00080F1D92ED8A882F31980F1D92ED882ACDD
:10200000F3C0A28022F1A62EA72EA92298A829DA31
:10201000ACDEFFD8A2F22AF1A92E8292A8F231807A
:10202000A696F1D900AC8C9C0C30ACDED0DEFFD88B
:102030008C9CACD010ACDE8092A2F24C82A8F1CA8B
:10204000F235F19688A6D900D8F1FF444D502066AC
:1020500061696C65642028636F6465200043616C6E
:102060006962726174696E672E2E2E000A4C617966
:102070002074686520726F626F742F626F61726482
:1020800020464C4154206F6E2061207461626C6563
:102090002E2043616C69627261746520494D553F21
:1020A00028592F6E293A00496E697420494D550010
:1020B00052656164792100000324A12C11241FBE04
:1020C000CFEFD8E0DEBFCDBF14E0A0E0B1E0E8EA9A
:1020D000F6E602C005900D92AC32B107D9F727E0C1
:1020E000ACE2B4E001C01D92AB33B207E1F710E1FE
:1020F000CDE5D0E104C02197FE010E946732CC35C6
:10210000D107C9F70E94F5240C9447330C940000C2
:1021100091E090936E0580936D0510926C0510927E
:102120006B0508958091DD049091DE04891B990B65
:10213000089508950895AF92BF92CF92DF92EF92E3
:10214000FF920F931F93CF93DF936C017B018B0161
:10215000040F151FEB015E01AE18BF08C017D107B1
:1021600059F06991D601ED91FC910190F081E02D3B
:10217000C6010995892B79F7C501DF91CF911F9190
:102180000F91FF90EF90DF90CF90BF90AF900895A8
:10219000FC01538D448D252F30E0842F90E0821B6D
:1021A000930B541710F0CF96089501970895FC01F2
:1021B000918D828D981761F0A28DAE0FBF2FB11D4A
:1021C0005D968C91928D9F5F9F73928F90E00895A2
:1021D0008FEF9FEF0895FC01918D828D981731F05C
:1021E000828DE80FF11D858D90E008958FEF9FEFB0
:1021F0000895FC01918D228D892F90E0805C9F4F86
:10220000821B91098F73992708958FE695E00E94AC
:10221000F91021E0892B09F420E0822F089580E055
:1022200090E0892B29F00E94051181110C94000087
:102230000895FC01A48DA80FB92FB11DA35ABF4F5B
:102240002C91848D90E001968F739927848FA689B5
:10225000B7892C93A089B1898C91837080648C9309
:10226000938D848D981306C00288F389E02D8081B8
:102270008F7D80830895EF92FF920F931F93CF93EA
:10228000DF93EC0181E0888F9B8D8C8D98131AC0B1
:10229000E889F989808185FF15C09FB7F894EE8998
:1022A000FF896083E889F9898081837080648083F5
:1022B0009FBF81E090E0DF91CF911F910F91FF9040
:1022C000EF900895F62E0B8D10E00F5F1F4F0F73E8
:1022D0001127E02E8C8D8E110CC00FB607FCFACFA3
:1022E000E889F989808185FFF5CFCE010E94191117
:1022F000F1CFEB8DEC0FFD2FF11DE35AFF4FF08274
:102300009FB7F8940B8FEA89FB8980818062CFCFD9
:10231000682F8FE695E00C943B110F931F93CF939A
:10232000DF938C01D0E0C0E0F801EC0FFD1F649159
:10233000662341F08FE695E00E943B11892B11F056
:102340002196F2CFCE01DF91CF911F910F91089589
:10235000CF93DF93EC01888D8823B9F0AA89BB89DC
:10236000E889F9898C9185FD03C0808186FD0DC0C7
:102370000FB607FCF7CF8C9185FFF2CF808185FFE8
:10238000EDCFCE010E941911E9CFDF91CF910895D1
:10239000833081F028F4813099F08230A9F00895DB
:1023A0008730A9F08830C9F08430B1F48091800082
:1023B0008F7D03C0809180008F7780938000089587
:1023C00084B58F7784BD089584B58F7DFBCF8091D0
:1023D000B0008F778093B00008958091B0008F7D1A
:1023E000F9CFCF93DF93282F30E0F901EA58FC4E64
:1023F0008491F901EE59FC4ED491F901E25BFC4E57
:10240000C491CC23A1F081110E94C811EC2FF0E0FF
:10241000EE0FFF1FEC5BFC4EA591B491EC91ED2308
:1024200081E090E009F480E0DF91CF91089580E0B1
:1024300090E0FACF1F93CF93DF93282F30E0F9017C
:10244000EA58FC4E8491F901EE59FC4ED491F90101
:10245000E25BFC4EC491CC23A9F0162F81110E949F
:10246000C811EC2FF0E0EE0FFF1FE65CFC4EA591CB
:10247000B4918FB7F894EC91111108C0D095DE2378
:10248000DC938FBFDF91CF911F910895DE2BF8CFA2
:102490009091000189130BC0EAE8F3E1E4919FEF0A
:1024A00090930001E13049F028F0E23061F060E003
:1024B0000C941A1210926E00FACF90916F009D7FCB
:1024C00090936F00F4CF909170009D7F9093700077
:1024D00091E09093B0009091B100987F94609093B8
:1024E000B1001092B300E3CF3FB7F89480919F04FE
:1024F0009091A004A091A104B091A20426B5A89B3C
:1025000005C02F3F19F00196A11DB11D3FBFBA2F85
:10251000A92F982F8827BC01CD01620F711D811D45
:10252000911D42E0660F771F881F991F4A95D1F7CA
:1025300008958F929F92AF92BF92CF92DF92EF92C7
:10254000FF926B017C010E9474124B015C01C1146B
:10255000D104E104F104B9F00E94741268197909F8
:102560008A099B09683E73408105910580F321E04B
:10257000C21AD108E108F10888EE880E83E0981E9F
:10258000A11CB11CE4CFFF90EF90DF90CF90BF90E3
:10259000AF909F908F9008952FB7F89460919B040F
:1025A00070919C0480919D0490919E042FBF08958A
:1025B00020917704260F3327331F21323105ECF4A5
:1025C00020916505FC0190E080E0243069F082E014
:1025D0000895A09177042191AC01495A5B4FA40F53
:1025E000B52FB11D2C930196861798F3809177042F
:1025F000680F6093770480E0089581E00895109259
:10260000650581E08093440510923F0561E082E119
:102610000E941A1261E083E10E941A12E9EBF0E0D5
:1026200080818E7F808380818D7F808388E480930A
:10263000B80085E48093BC000895CF93DF9391E0C8
:10264000909356048823B9F0C091B800D091BA0095
:102650008091BC008A7B8093BC0060E082E10E9494
:102660001A1260E083E10E941A120E94FF12D093B6
:10267000BA00C093B800DF91CF910895CF92DF9256
:10268000EF92FF920F931F93CF93DF93D82FC62F14
:10269000613208F098C00E9474126B017C01809135
:1026A000650581116BC081E08093650580934405C9
:1026B0009FEF90934305109242059C0F9093410524
:1026C0008093400580914005DD0FD82BD0934005C5
:1026D00080913F05813009F078C010923F050E943B
:1026E00074126B017C01809140058093BB00809146
:1026F000670590916805A0916905B0916A05892BDD
:102700008A2B8B2BA1F00E94741200916705109107
:1027100068052091690530916A056C197D098E095B
:102720009F09061717072807390708F448C0809142
:10273000BC0083FDD8CF85EC8093BC000E9474124E
:102740006B017C0180916505813009F440C0809166
:1027500042058C1710F4C0914205EFE1F5E0A5E4C5
:10276000B5E080E08C1355C08C2FDF91CF911F9185
:102770000F91FF90EF90DF90CF90089580916705C3
:1027800090916805A0916905B0916A05892B8A2B03
:102790008B2B09F484CF0E9474120091670510916D
:1027A00068052091690530916A056C197D098E09CB
:1027B0009F09061717072807390708F070CF80917F
:1027C00066050E941D13C0E0CFCF85EEB5CF809186
:1027D000670590916805A0916905B0916A05892BFC
:1027E0008A2B8B2B09F4AECF0E94741200916705DF
:1027F000109168052091690530916A056C197D0971
:102800008E099F09061717072807390708F09ACF7E
:10281000D6CF91919D938F5FA5CF0895E091DE046F
:102820008091DD04E81730F4F0E0EB5BFA4F808133
:1028300090E008958FEF9FEF08959091DE048091CE
:10284000DD042FEF3FEF981748F4E92FF0E0EB5B42
:10285000FA4F208130E09F5F9093DE04C901089514
:10286000CF92DF92EF92FF920F931F93CF93DF935C
:102870007C01CB018A0120916E05222389F0EB01B6
:102880006B01C40ED51ECC15DD0569F06991D70129
:10289000ED91FC910190F081E02DC7010995F3CFF6
:1028A000642F0E94D812C801DF91CF911F910F9120
:1028B000FF90EF90DF90CF900895CF93DF931F921A
:1028C000CDB7DEB7698320916E052223F9F0209100
:1028D0006B05203258F021E030E0FC013383228385
:1028E00090E080E00F90DF91CF91089580916C058A
:1028F000E82FF0E0EA5CFB4F998190838F5F809333
:102900006C0580936B0581E090E0ECCF61E0CE0137
:1029100001960E94D812F7CFCF92DF92EF92FF92EA
:102920000F931F93CF93DF93D0916B0581E0D1324A
:1029300008F09CC0C0916D050E9474126B017C016F
:102940008091650581116CC082E08093650581E00E
:10295000809344058FEF8093430510924205D093F6
:102960004105A6E3B4E0EFE1F5E080E0D8138DC0C7
:102970001092400580914005CC0FC82BC0934005B4
:1029800080913F05813009F084C010923F050E947C
:1029900074126B017C01809140058093BB00809193
:1029A000670590916805A0916905B0916A05892B2A
:1029B0008A2B8B2BA1F00E94741200916705109155
:1029C00068052091690530916A056C197D098E09A9
:1029D0009F09061717072807390708F442C0809196
:1029E000BC0083FDD8CF85EC8093BC000E9474129C
:1029F0006B017C0180916505823009F44CC08091A7
:102A000043058F3F09F469C080914305803209F482
:102A100066C080914305803309F463C084E026C01A
:102A20008091670590916805A0916905B0916A054C
:102A3000892B8A2B8B2B09F483CF0E94741200916F
:102A40006705109168052091690530916A056C1938
:102A50007D098E099F09061717072807390708F00F
:102A60006FCF809166050E941D1385E010926C0562
:102A700010926B0510926E05DF91CF911F910F910F
:102A8000FF90EF90DF90CF9008959D9191938F5F8D
:102A90006DCF85EEA9CF8091670590916805A091D3
:102AA0006905B0916A05892B8A2B8B2B09F4A2CF7B
:102AB0000E947412009167051091680520916905C4
:102AC00030916A056C197D098E099F090617170751
:102AD0002807390708F08ECFC4CF80E0C7CF82E047
:102AE000C5CF83E0C3CF1F93CF93DF93162FEA01A7
:102AF0000E948810612F8CE096E00E945D1469812D
:102B00008CE096E00E945D1468818CE096E00E9463
:102B10005D148CE096E00E948C1491E0811190E0AD
:102B2000892FDF91CF911F91089590E080E0089563
:102B3000FF920F931F93CF93DF93C62F042FF22E94
:102B4000132F0E9488106C2F8CE096E00E945D1479
:102B5000CF2DD12F0C0F1D2F111DC017D10731F014
:102B600069918CE096E00E945D14F7CF8CE096E0CE
:102B70000E948C1491E0811190E0892FDF91CF9118
:102B80001F910F91FF900895CF93DF931F92CDB7C0
:102B9000DEB749839E012F5F3F4F41E00E949815A9
:102BA0000F90DF91CF9108950F931F93CF93DF93F1
:102BB000EC01062F142F88810E94881089819A8148
:102BC000DC01ED91FC910190F081E02D602F0995E1
:102BD00089819A81DC01ED91FC910190F081E02DD9
:102BE000612F099589819A81DF91CF911F910F9172
:102BF0000C948C14DC01ED91FC910190F081E02D9E
:102C00000994FF920F931F93CF93DF93EC01162F3C
:102C1000F42E052F88810E94881089819A8124E0F2
:102C2000129FB00111246A5F7F4FDC01ED91FC918E
:102C30000190F081E02D099570E060E089819A8132
:102C40000E94FA1570E060E089819A810E94FA156D
:102C50006F2D702F89819A810E94FA15602F70E084
:102C600089819A810E94FA1589819A81DF91CF9199
:102C70001F910F91FF900C948C14CF938FE695E0E9
:102C80000E94F910892BD1F38FE695E00E94D710AE
:102C9000C82F61E070E080E090E00E9499128FE61A
:102CA00095E00E94F910892B29F08FE695E00E94AB
:102CB000D710F5CF8C2FCF9108951F93CF93DF932B
:102CC000EC01162F88810E94881089819A81DC018D
:102CD000ED91FC910190F081E02D612F09958981A2
:102CE0009A810E948C1461E088810E943E131092A8
:102CF000DE048093DD0489819A81DC01ED91FC91F1
:102D00000284F385E02D0995DF91CF911F910895FD
:102D1000CF92DF92EF92FF92CF93C82F6EEF8BEEA0
:102D200096E00E945D16682F70E06F5F7F4F90E025
:102D300080E00E94D42D20E034E244E759E40E9470
:102D4000352E6B017C016091EE067091EF0680914B
:102D5000F0069091F1060E94D42D9B01AC01C701B1
:102D6000B6010E9408309B01AC0160E070E88BEB7B
:102D700094E40E9408300E948130AB016C2F8BEEEE
:102D800096E0CF91FF90EF90DF90CF900C940116DA
:102D90008F929F92AF92BF92CF92DF92EF92FF926B
:102DA0001F93CF93DF93EC016A017B0120E030E0B9
:102DB00040E85FE3CB01B6010E94CF2D87FD7EC0C6
:102DC00020E030EC4AE555E4C701B6010E94B0307E
:102DD00018163CF4C12C30ECD32E3AE5E32E35E442
:102DE000F32E6B817C818D819E810E94D42D4B01BD
:102DF0005C0120E030E040E855E4C701B6010E94E4
:102E0000352E9B01AC01C501B4010E94083020E0C1
:102E100030E040E05FE30E949C2F20E030E040E89B
:102E20005FE30E949B2F6B017C0120E030E040E4D7
:102E300050E40E94CF2D87FD48C020E030E04FE7EE
:102E400053E4C701B6010E94B030181634F4C12C07
:102E5000D12C9FE7E92E93E4F92E60E0CE010E9489
:102E60005D16182F482F4F76406160E0CE010E941A
:102E7000D415C701B6010E948130462F6EEFCE01F6
:102E80000E94D415412F60E0CE010E94D41565E068
:102E900070E080E090E00E949912412F406A60E06B
:102EA000CE01DF91CF911F91FF90EF90DF90CF90F7
:102EB000BF90AF909F908F900C94D415C12CD12CC3
:102EC00020E8E22E2FE3F22E8CCFC12CD12C80E40F
:102ED000E82EFE2CC2CF4F925F926F927F928F921C
:102EE0009F92AF92BF92DF92EF92FF920F931F9348
:102EF000CF93DF93182F062F7A01E9010E94CC129D
:102F00004B015C01812F0E948810602F8CE096E0BD
:102F10000E945D148CE096E00E948C14812F0E9428
:102F2000881062E0812F0E943E131092DE0480938D
:102F3000DD0401E010E02E01712C612CDD24D3941E
:102F40009091DD048091DE04981739F1111125C0AC
:102F50002097C1F401110EC08CE096E00E941D1470
:102F6000F70120813181822B932B9183808311E0A3
:102F70000D25E6CF8CE096E00E941D14F70110822B
:102F80008183F6CF0E94CC12681979098A099B09BE
:102F90006415750586059705E8F28CE096E00E94B9
:102FA0008C14209799F00E94CC12AB01BC014819F7
:102FB00059096A097B09CE01B0E0A0E0481759071A
:102FC0006A077B0718F0111101C01FEF812FDF91F5
:102FD000CF911F910F91FF90EF90DF90BF90AF9036
:102FE0009F908F907F906F905F904F9008952F9259
:102FF0003F924F925F926F927F928F929F92AF9289
:10300000BF92CF92DF92EF92FF920F931F93CF93D5
:10301000DF9300D000D0CDB7DEB7782E662E4C837C
:103020003A8329830E94CC126B017C01512C1B82B4
:103030002C81222E312C4801B12CA12C8C815816C8
:1030400008F049C0872D0E948810662D8CE096E01C
:103050000E945D148CE096E00E948C14872D0E94E3
:103060008810B101651971096132710514F060E2CF
:1030700070E0613208F060E2872D0E943E13482E16
:103080001092DE048093DD048091DE044816E9F09E
:103090000115110579F48CE096E00E941D14E98178
:1030A000FA819B81E90FF11D97FDFA9580839F5F5F
:1030B0009B83EACF0E94CC126C197D098E099F096F
:1030C000681579058A059B0530F38C81813208F0FB
:1030D00080E2580EB3CF01151105C1F00E94CC1249
:1030E0006C197D098E099F0930E020E06017710797
:1030F0008207930758F02B81822F220F990B2C8186
:103100002817190619F014F08FEF8B838B810F901D
:103110000F900F900F90DF91CF911F910F91FF9023
:10312000EF90DF90CF90BF90AF909F908F907F9067
:103130006F905F904F903F902F900895CF92DF92C5
:10314000EF92FF920F931F93CF93DF931F92CDB710
:10315000DEB7F82EE62EC42ED22E08EE13E09E0126
:103160002F5F3F4F41E00E94F71781E090E001C0E0
:10317000880FCA94EAF74981DD2081F0482B498302
:103180006E2D8F2D0E94C4150F90DF91CF911F914E
:103190000F91FF90EF90DF90CF9008958095482396
:1031A000EECF0F931F93CF93DF931F92CDB7DEB770
:1031B00008EE13E09E012F5F3F4F41E065E78091ED
:1031C0001E070E94F717882339F089818E7790E0D7
:1031D0009595879580931F0780911F070F90DF912A
:1031E000CF911F910F9108952F923F924F925F922E
:1031F0006F927F928F929F92AF92BF92CF92DF9207
:10320000EF92FF920F931F93CF93DF93CDB7DEB76B
:10321000E1970FB6F894DEBF0FBECDBF8D8F4EA3E2
:103220005FA368A779A70AA71BA72CA73DA713E14F
:103230008B3339F40E94D11817E703E0883310F478
:1032400016E002E06EE38FE695E00E943B119E01DE
:10325000235F3F4F3E8B2D8BCE010196988F8F8B36
:103260006901B12E28EE33E0AE014D5E5F4F6B2D4C
:1032700080911E070E946B17EB88FC88B7010F2C0A
:10328000000C880B990B0E94D62D133109F4CEC186
:10329000B1E0EB22FF24F601F182E08220E030E091
:1032A00040E051E40E94352EAF89B88D6D937D9337
:1032B0008D939C931397B00EF2E0CF0ED11C2F8903
:1032C000388D2C5F3F4F388F2F8B8D899E89281723
:1032D000390741F69D8D9B3309F0B5C18DEC9CEC0F
:1032E000ACE4BDE38EA79FA7A8ABB9ABAAE0B0E062
:1032F000BDA3ACA31AA219A2312C212CFE01319638
:10330000FA8FE98F9E01235F3F4F3F8F2E8F18A3C7
:103310003D8D3BA3812C912C54011C8E1B8E28EEDD
:1033200033E0AE014D5E5F4F6BA180911E070E949E
:103330006B176B897C89072E000C880B990B0E94F8
:10334000D62D6B017C018D8D8B3371F4AB8DBC8DD3
:10335000129751F420E030E040E856E4C701B6018E
:103360000E949B2F6B017C012601370177FA709434
:1033700077F87094C501B4010E94D42D4B015C0113
:1033800020E030E0A901C701B6010E94B030181654
:1033900014F073016201A7019601C501B4010E94F6
:1033A0009C2F0E9481304B015C012FE632E143E803
:1033B0005AE3C301B2010E94352E2AA53BA54CA5B4
:1033C0005DA50E94352EE98DFA8D208131814281E3
:1033D00053810E949C2F6B017C01A98DBA8DCD92E7
:1033E000DD92ED92FC9213972EA13FA148A559A51D
:1033F000C301B2010E94352EA70196010E949C2FA5
:10340000133109F42AC120E030E040E05EE30E947D
:10341000352E6B017C0120E030E0A9010E94B03024
:1034200020E030E040E05FE387FD12C1C701B60154
:103430000E949C2F0E947A306E7FEE8DFF8D8081DE
:103440009181682B792B7C8B6B8BAE014D5E5F4F2E
:1034500068A180911E070E9473152B8D3C8D2F5FF4
:103460003F4F3C8F2B8F3BA13E5F3BA388A1800F3A
:1034700088A3AE8DBF8D1296BF8FAE8FE98DFA8D6A
:103480003496FA8FE98F2B8D3C8D2330310509F06E
:1034900046CF33E62316310471F489EE881683E0B3
:1034A0009806A104B10438F06AE28FE695E00E9424
:1034B0003B11312C212CC501B4010E94D42D2EA525
:1034C0003FA548A959A90E94352E20E030E040EAE6
:1034D00050E40E94CF2D87FF05C0A9A1BAA1119683
:1034E000BAA3A9A3B4E68B169104A104B10408F011
:1034F000D3C0EBE02E1631040CF4CEC029A13AA1C2
:103500002A3031050CF4C8C06EE28FE695E00E94C7
:103510003B1120E030E040E45FE36EA17FA188A58D
:1035200099A50E94352E6EA37FA388A799A720E0B6
:1035300030E040E45FE36AA57BA58CA59DA50E94D1
:10354000352E6AA77BA78CA79DA7CE010D967C017F
:10355000D12EDE0111963D01D3016D917D918D91AA
:103560009D913D01133109F4ABC020E030E040E013
:103570005EE30E94352E4B015C0120E030E0A901A2
:103580000E94B03020E030E040E05FE387FD93C070
:10359000C501B4010E949C2F0E947A306E7FF70112
:1035A00080819181682B792B7C8B6B8BAE014D5E7A
:1035B0005F4F6D2D80911E070E947315D00EF2E0B3
:1035C000EF0EF11C2F89388D2615370529F68CA1B1
:1035D0009DA101979DA38CA3892B09F08BCE21E09F
:1035E00042E06AE680911E070E949E1821E043E0B7
:1035F0006AE680911E070E949E18E1960FB6F89425
:10360000DEBF0FBECDBFDF91CF911F910F91FF9015
:10361000EF90DF90CF90BF90AF909F908F907F9072
:103620006F905F904F903F902F90089520E030E092
:1036300040E850E40E94352EEF89F88D6083718355
:103640008283938338CE80E090E0A0E8BFE34ACE47
:10365000C701B6010E949B2FEDCE20E030E040E88C
:103660005EE30E94352E6B017C0120E030E0A90171
:103670000E94B03020E030E040E05FE387FD07C00B
:10368000C701B6010E949C2F0E947A30DCCEC70190
:10369000B6010E949B2FF8CF61E070E080E090E0DF
:1036A0000E949912BFEF2B1A3B0AE4E62E16310452
:1036B00009F024CE29CFC501B4010E949B2F6CCF05
:1036C00020E030E040E85EE30E94352E4B015C01D3
:1036D00020E030E0A9010E94B03020E030E040E07E
:1036E0005FE387FD07C0C501B4010E949C2F0E94C3
:1036F0007A305ACFC501B4010E949B2FF8CFBF92F8
:10370000CF92DF92EF92FF920F931F93CF93DF93AD
:103710001F92CDB7DEB7F82EE62EC42EB22ED02ED5
:1037200008EE13E09E012F5F3F4F41E00E94F71724
:10373000882371F18C2D8B19990BAC014F5F5F4F72
:1037400081E090E002C0880F991FBA94E2F70197D8
:10375000042E01C0880F0A94EAF70D2D01C0000F56
:103760004A95EAF7482F4095998149238023482BB1
:1037700049836E2D8F2D0E94C4150F90DF91CF913C
:103780001F910F91FF90EF90DF90CF90BF90089521
:1037900080E0F3CFFC0101900020E9F73197AF0101
:1037A000481B590BBC018FE695E00C949B108DE0F3
:1037B00093E00C94CA1BCF93DF930E948D11EC0110
:1037C0000E94D71B8C0F9D1FDF91CF910895CF933F
:1037D000DF930E948811EC010E94D71B8C0F9D1F64
:1037E000DF91CF9108958F929F92AF92BF920F93E6
:1037F0001F93CF93DF93CDB7DEB7A1970FB6F894A1
:10380000DEBF0FBECDBF19A2423008F44AE08E01E0
:103810000F5D1F4F842E912CB12CA12CA50194017A
:103820000E946A2FE62FB901CA01EA30F4F4E05D84
:10383000D801EE938D01232B242B252B79F790E0D3
:1038400080E0109719F0CD010E94CA1BA1960FB617
:10385000F894DEBF0FBECDBFDF91CF911F910F91C6
:10386000BF90AF909F908F900895E95CE1CFCF9289
:10387000DF92EF92FF92CF93DF9397FF19C06B0116
:103880007C018DE20E948811EC0166277727CB012D
:103890006C197D098E099F094AE00E94F31B8C0F69
:1038A0009D1FDF91CF91FF90EF90DF90CF90089513
:1038B0004AE0DF91CF91FF90EF90DF90CF900C9492
:1038C000F31B85ED8093BC0080916705909168059E
:1038D000A0916905B0916A050796A11DB11D23E06D
:1038E000B695A795979587952A95D1F72091BC0015
:1038F00024FD03C01092650508954091670550911D
:1039000068056091690570916A05452B462B472B28
:1039100069F30097A105B10541F02AE22A95F1F774
:1039200000C00197A109B109E1CF809166050C940F
:103930001D131F93CF93DF93EC01162F0E94F32EDC
:10394000181739F0612FCE01DF91CF911F910C94A0
:10395000FB2EDF91CF911F910895DF92EF92FF929E
:103960000F931F93CF93DF93EC017B018A01888132
:1039700099819C012150310939832883642F0E9449
:10398000991CD12C888199812D2D30E02017310789
:103990006CF42E0D3F1DF90160819C01215031090D
:1039A000398328830E94991CD394ECCFBC01990FD2
:1039B000880B990B0E94371CDF91CF911F910F91BB
:1039C000FF90EF90DF900C94D71B1F93CF93DF9362
:1039D000EC01172F0E94991C612FCE0101960E94C5
:1039E000991C66E070E080E090E0DF91CF911F913C
:1039F0000C9499120C94F32E2F923F924F925F9257
:103A00006F927F928F929F92AF92BF92CF92DF92EE
:103A1000EF92FF920F931F93CF93DF93CDB7DEB753
:103A200069970FB6F894DEBF0FBECDBF6B017C0166
:103A300040E050E060E773E48BEE96E00E94C81629
:103A4000C092F406D092F506E092F606F092F706E0
:103A5000C092EE06D092EF06E092F006F092F106E8
:103A600080EF90E09093F3068093F20680E090E080
:103A7000A6E1B4E48093FC069093FD06A093FE06B5
:103A8000B093FF066CE382E191E00E94991C65E02F
:103A900070E080E090E00E9499126EEF8BEE96E06D
:103AA0000E945D16682F70E06F5F7F4F90E080E0AE
:103AB0000E94D42D20E034E244E759E40E94352EE0
:103AC0006B017C016091F4067091F5068091F60619
:103AD0009091F7060E94D62D9B01AC01C701B6015B
:103AE0000E9408309B01AC0160E070E080E89FE339
:103AF0000E9408306093F8067093F9068093FA06E6
:103B00009093FB0680E490E00E94AA2C909301071A
:103B10008093000784EB90E09A87898724EF31E057
:103B20003E872D8784EC99E0988B8F874EE051E09B
:103B30005A8349833E832D8398878F8389EC92E053
:103B4000988F8F8BEFEFF4E0FE8BED8B8FED94E091
:103B50009C8B8B8B30EAE32EF12C312C212C00E254
:103B600010E0EF89F88D81919191F88FEF8B00979C
:103B700009F4E2C0019709F4E4C0E989FA89C08038
:103B8000D180C8010E94FA1C882E5801F0E1AF0EC6
:103B9000B11CC5010E94FA1C982E682D880C770B69
:103BA000880B990B0E94D62D2B013C01692D990C95
:103BB000770B880B990B0E94D62D9B01AC01C3019A
:103BC000B2010E94352E2B013C01B601D7FE02C086
:103BD0006F5F7F4F75956795072E000C880B990BCB
:103BE0000E94D62D9B01AC01C301B2010E949C2F03
:103BF0000E947A302B01ED89FE8961937193FE8BCF
:103C0000ED8BC80140970E94FA1C982EC5010E94B6
:103C1000FA1C898F692D990C770B880B990B0E94E0
:103C2000D62D4B015C01F98D6F2FFF0F770B880BA1
:103C3000990B0E94D62D9B01AC01C501B4010E94D5
:103C4000352E4B015C01B201052C000C880B990B41
:103C50000E94D62D9B01AC01C501B4010E949C2F8E
:103C60000E947A30EB89FC8971836083B201C801BC
:103C7000880F991F0E94E51CEB89FC896191719165
:103C8000FC8BEB8BC701805491090E94E51CE989EC
:103C9000FA898681978124813581821B930BB60135
:103CA0000E943F32072E000C880B990B0E94D62DE4
:103CB0002091F8063091F9064091FA065091FB06E2
:103CC0000E94352EE0910007F0910107E20DF31DEF
:103CD000608371838283938320E030E04AE754E479
:103CE0000E94352E0E947A30C7010E94E51C0F5FAA
:103CF0001F4FF4E02F0E311C22E0E20EF11C0033C6
:103D0000110509F02ECF69960FB6F894DEBF0FBEED
:103D1000CDBFDF91CF911F910F91FF90EF90DF907A
:103D2000CF90BF90AF909F908F907F906F905F905B
:103D30004F903F902F900895CE0109969A8B898BD2
:103D40001CCFFE013196FA8BE98B17CF2F923F9251
:103D50004F925F926F927F928F929F92AF92BF929B
:103D6000CF92DF92EF92FF920F931F93CF93DF9347
:103D7000CDB7DEB767970FB6F894DEBF0FBECDBFE5
:103D80006A877B878C879D872E873F87488B598BD7
:103D9000C801EF8A198267E6262E63E1362E03E515
:103DA00013E188248A94982C5401E8E44E2EE8EE1E
:103DB0005E2E66246394712C9C01990F440B550B65
:103DC0002A8B3B8B4C8B5D8B6E857F85888999898F
:103DD0000E9481306E837F838887998720E030E05E
:103DE000A9016A857B858C859D850E94CF2D8823BE
:103DF00009F419C22A853B854C855D8563E67CE91B
:103E000087E89FE30E94B5306B017C01809100013F
:103E10008530A9F5EAE8F3E1F491FE8BFE89F7FF1E
:103E200078C06E817F81888599850E94991285E08E
:103E30000E9448126A897B898C899D890E94991207
:103E400029812F5F29833F893213BECF67960FB632
:103E5000F894DEBF0FBECDBFDF91CF911F910F91C0
:103E6000FF90EF90DF90CF90BF90AF909F908F909A
:103E70007F906F905F904F903F902F9008958F3F6D
:103E800081F625E020930001EAE8F3E1F491FE8B4E
:103E9000FF3F39F2F13009F40CC120F1F23009F0A2
:103EA000BDCF1092B0001092B1008091B00082603E
:103EB0008093B0008091B10081608093B100F801DF
:103EC0008491E82FF0E0EE0FFF1FE65CFC4E859139
:103ED00094919093A4048093A304F101849180931E
:103EE000A50417C014BC15BC84B5826084BD85B51B
:103EF000816085BDF8018491E82FF0E0EE0FFF1F8F
:103F0000E65CFC4E85919491F101849180932D049F
:103F10001E8AF1014491F8018491882399F090E080
:103F2000880F991FFC01E05DFC4EA591B491FC0146
:103F3000E65CFC4E259134918FB7F8949C91492B07
:103F40004C938FBF20E030ED42E854E4C701B60146
:103F50000E94352E0E9481306B01F12CE12C60E033
:103F600072E18AE790E0A70196010E94092F2A8357
:103F70003B834C835D83BA01A9014150510961091A
:103F800071098E898D7F09F00EC14F3F5105610582
:103F9000710509F00CF4EEC060E472E48FE090E08B
:103FA000A70196010E94092FBA01A90141505109A8
:103FB00061097109FE89F23009F098C082E04F3F33
:103FC00051056105710509F00CF463C060E970EDFD
:103FD00083E090E0A70196010E94092FBA01A90190
:103FE000415051096109710983E04F3F5105610555
:103FF000710509F00CF44DC0C301B201A70196018F
:104000000E94092FBA01A9014150510961097109A2
:1040100084E04F3F510561057105D9F1D4F164E2A7
:1040200074EF80E090E0A70196010E94092FBA0189
:10403000A901415051096109710985E04F3F5105BE
:104040006105710531F128F162E17AE780E090E0E5
:10405000A70196010E94092FBA01A90141505109F7
:104060006109710986E04F3F51056105710589F0CD
:1040700080F04A815B816C817D819AE075956795BE
:10408000579547959A95D1F74150510961097109A2
:1040900087E09091B100987F892B8093B100FE89D1
:1040A000F13009F49EC0F23009F4ADC0F111B9CE7F
:1040B00069C0109280001092810080918100886018
:1040C0008093810080918100816080938100F8015C
:1040D0008491E82FF0E0EE0FFF1FE65CFC4E859127
:1040E0009491F101849180932C0413CF4F3F51059B
:1040F0006105710509F00CF454C0C301B201A701B8
:1041000096010E94092FBA01A90141505109610984
:1041100071092E8984E0211191CF83E04F3F510531
:104120006105710559F154F162E17AE780E090E0B0
:10413000A70196010E94092FBA01A9014150510916
:104140006109710984E04F3F510561057105B1F0C6
:10415000A8F04A815B816C817D818AE075956795C5
:10416000579547958A95D1F74150510961097109D1
:1041700085E004C081E03E8931118BCF95B5987FF1
:10418000892B85BD47BD8092320490923304A09262
:104190003404B092350480916E00826080936E008A
:1041A00040CE82E0E8CF91E04115510581E06807FB
:1041B00071056CF0C301B201A70196010E94092F9D
:1041C000BA01A901415051096109710993E0EE89D1
:1041D000E13009F064CF80918100887F892B809342
:1041E0008100509389004093880080922E04909221
:1041F0002F04A0923004B092310480916F0082604D
:1042000080936F000ECE4093B3008092A6049092EC
:10421000A704A092A804B092A904809170008260C3
:1042200080937000FECD6E817F81888599850E9484
:104230009912F7CD1F920F920FB60F9211242F9360
:104240003F934F935F936F937F938F939F93AF931E
:10425000BF93EF93FF938091A6049091A704A09140
:10426000A804B091A904892B8A2B8B2BD1F19091B2
:10427000A504E091A304F091A404808189278083A0
:104280008091A6049091A704A091A804B091A904DC
:10429000181619061A061B069CF48091A604909124
:1042A000A704A091A804B091A9040197A109B1099C
:1042B0008093A6049093A704A093A804B093A904A4
:1042C000FF91EF91BF91AF919F918F917F916F91EE
:1042D0005F914F913F912F910F900FBE0F901F90C4
:1042E0001895809100010E944812EACF1F920F9208
:1042F0000FB60F9211242F933F934F935F936F93B9
:104300007F938F939F93AF93BF93EF93FF938FE62A
:1043100095E00E941911FF91EF91BF91AF919F918C
:104320008F917F916F915F914F913F912F910F905E
:104330000FBE0F901F9018951F920F920FB60F92FD
:1043400011242F938F939F93EF93FF93E0917F0519
:10435000F09180058081E0918505F091860582FDD0
:104360001BC09081809188058F5F8F732091890594
:10437000821741F0E0918805F0E0E159FA4F958FFE
:1043800080938805FF91EF919F918F912F910F90CE
:104390000FBE0F901F9018958081F4CF1F920F923F
:1043A0000FB60F9211242F933F938F939F93AF9348
:1043B000BF9380919B0490919C04A0919D04B09127
:1043C0009E0430919A0423E0230F2D3758F501966F
:1043D000A11DB11D20939A0480939B0490939C048B
:1043E000A0939D04B0939E0480919F049091A0049B
:1043F000A091A104B091A2040196A11DB11D8093CA
:104400009F049093A004A093A104B093A204BF9131
:10441000AF919F918F913F912F910F900FBE0F9071
:104420001F90189526E8230F0296A11DB11DD2CF2B
:104430001F920F920FB60F9211242F933F934F9319
:104440005F936F937F938F939F93AF93BF93EF93FC
:10445000FF938091B900887F803609F44AC0F0F557
:10446000883209F4A7C018F5803109F49BC0B8F46C
:10447000882309F4F9C0883009F494C0FF91EF91C2
:10448000BF91AF919F918F917F916F915F914F916C
:104490003F912F910F900FBE0F901F90189588316C
:1044A00009F488C0803251F78093430514C08034EA
:1044B00009F49DC040F48033B9F38833F9F6809352
:1044C000430585ECB0C0803509F485C0883509F412
:1044D00096C0883499F60E94611CD0CF883909F4BF
:1044E0008CC038F5883729F050F4883611F08037C1
:1044F00029F683E0809365051092990457C08838A7
:1045000009F47BC0803919F0803809F0B7CF809169
:104510009904803208F071C0E091990481E08E0F17
:10452000809399048091BB00F0E0E758FB4F8083B3
:104530003DC0803B39F0E0F4803A09F479C0883A14
:1045400009F09CCF84E08093650510927804109266
:104550007704E091C204F091C30409958091770437
:1045600081110FC081E0809377041092570409C035
:10457000803C09F4A6CF883C09F4A3CF883B09F01E
:104580007DCFE091780481E08E0F80937804F0E095
:10459000E95AFB4F80818093BB0090917804809111
:1045A000770429C0809140058093BB0085EC8093FF
:1045B000BC0064CF9091420580914105981758F551
:1045C000E091420581E08E0F80934205F0E0E15ECC
:1045D000FA4F8081E9CFE091420581E08E0F809310
:1045E00042058091BB00F0E0E15EFA4F808390913C
:1045F0004205809141059817C8F285E8D8CFE0912F
:10460000420581E08E0F809342058091BB00F0E06F
:10461000E15EFA4F80838091440581115CCF81E097
:1046200080933F0584EA8093BC001092650526CFF5
:1046300085EC8093BC0010926505809199048032CE
:1046400030F4E0919904F0E0E758FB4F108260915C
:10465000990470E0E091C004F091C10489E794E00E
:104660000995109299040ACF1092430534CF1F92F6
:104670000F920FB60F9211242F933F934F935F9396
:104680006F937F938F939F93AF93BF93EF93FF931A
:10469000809119060E94F11120911E0630911F068B
:1046A0002F5F3F4F30931F0620931E0620911C065C
:1046B00030911D062536310518F094E090931806C8
:1046C00090911806911130C0811169C020911E0689
:1046D00030911F062436310528F410921F061092DF
:1046E0001E065DC01092EA0610921D0610921C066E
:1046F00020911C0630911D06A9014F5F5F4F50931A
:104700001D0640931C0640911E0650911F06220F65
:10471000331FF901E05EF94F5183408310921F0669
:1047200010921E0691E021C090911806913001F57B
:104730008130A9F520911C0630911D06A9014F5F1B
:104740005F4F50931D0640931C0640911E065091EA
:104750001F06220F331FF901E05EF94F518340839A
:1047600010921F0610921E0692E09093180617C032
:1047700090911806923061F4882309F4B9CF209102
:104780001E0630911F062536310548F093E0EDCF27
:1047900090911806933099F4882309F49ECF909154
:1047A0001B069923A9F0811124C080911A06882341
:1047B00071F080911A0661E00E941A1209C090916E
:1047C0001806943061F791E09093EA06DFCF2D9AB6
:1047D000FF91EF91BF91AF919F918F917F916F91D9
:1047E0005F914F913F912F910F900FBE0F901F90AF
:1047F000189580911A06882321F080911A0660E0AE
:10480000DBCF2D98E5CF109272051092710588EEDE
:1048100093E0A0E0B0E08093730590937405A093BB
:104820007505B09376052DEE32E030937005209338
:104830006F0525EC30E030937C0520937B0524EC5C
:1048400030E030937E0520937D0520EC30E03093FE
:10485000800520937F0521EC30E030938205209382
:10486000810522EC30E0309384052093830526EC0B
:1048700030E03093860520938505109288051092CC
:10488000890510928A0510928B0510920F061092DE
:104890000E068093100690931106A0931206B09313
:1048A00013068FEF92E090930D0680930C0684E040
:1048B0008093190610921B0610923207109231074E
:1048C0001092340710923307109236071092350772
:1048D00063E070E090E080E00E946D32009709F1A3
:1048E000909332078093310722E030E03093340711
:1048F000209333072091350730913607232B11F48D
:10490000DC011C9282E090E090933607809335079B
:1049100060E173E080913107909132070E9440334B
:1049200014C08091310790913207009711F00E94D6
:10493000462D1092320710923107109236071092CE
:104940003507109234071092330788E680931E07CC
:1049500080E090E0A0E8BFE380930E0790930F07FC
:10496000A0931007B093110710921207109213072B
:10497000109214071092150710921607109217073D
:10498000109218071092190710921A0710921B071D
:1049900010921C0710921D07109202071092030735
:1049A000109204071092050710920607109207074D
:1049B000109208071092090710920A0710920B072D
:1049C00010920C0710920D07E1EFF6E081E1DF0194
:1049D0001D928A95E9F780E48093EB068CE096E0DF
:1049E0009093ED068093EC060895CF93DF93CDB7B7
:1049F000DEB72F970FB6F894DEBF0FBECDBF789409
:104A000084B5826084BD84B5816084BD85B58260D3
:104A100085BD85B5816085BD80916E008160809384
:104A20006E001092810080918100826080938100ED
:104A300080918100816080938100809180008160FD
:104A4000809380008091B10084608093B100809158
:104A5000B00081608093B00080917A008460809380
:104A60007A0080917A00826080937A0080917A0047
:104A7000816080937A0080917A00806880937A00C8
:104A80001092C100E0917F05F091800582E0808363
:104A9000E0917B05F0917C051082E0917D05F0911D
:104AA0007E0580E1808310928705E0918305F09177
:104AB000840586E08083E0918105F0918205808104
:104AC00080618083E0918105F0918205808188601A
:104AD0008083E0918105F0918205808180688083E8
:104AE000E0918105F091820580818F7D808385E052
:104AF00090E0A0E0B0E08093730590937405A093DC
:104B00007505B09376051092DE041092DD041092C4
:104B10006C0510926B050E94FF1289E990E1909359
:104B2000C3048093C2048AE990E19093C104809306
:104B3000C00488E08093B8008DE094E10E94DB1B04
:104B40008BEF93E10E94DB1BEE24E39410E000E086
:104B500020E030E048E452E460E070E080EA91E474
:104B60000E94A61E8FEF93E09A83898344E150E070
:104B700063E471E0CE0101960E94AD1C48E150E073
:104B80006BE271E0CE0101960E94AD1C4AE050E05C
:104B900061E271E0CE0101960E94AD1C40E250E05E
:104BA00061E071E0CE0101960E94AD1C8AEE93E0B7
:104BB0000E94FA1C869549EEC42E43E0D42EA82EFE
:104BC000B12C59EE652E53E0752E68EE862E63E00B
:104BD000962EC3018C199D098A159B054CF5C601BB
:104BE0008A199B090E94FA1C082FC6010E94FA1C10
:104BF000182F602F70E0C4010E943F32072E000C76
:104C0000880B990B0E94D62D1B012C01612F70E09F
:104C100090E080E00E94D42DEE24E39410E000E0C8
:104C2000A20191010E94A61E21E0C21AD108D1CF93
:104C30008BE893E10E94DB1B0E943D16382E0E94F8
:104C4000E71B2DE9822E21E0922E8DE292E09E87D5
:104C50008D87EDE1F2E0FC87EB878DE392E09E83A8
:104C60008D8300E210E0E0ECF0E0F887EF8332E8BB
:104C7000E32EF12CE89435F83F868D819E818D538B
:104C800092406C019F85993541F4F801EC55FB4F3A
:104C90006081C80140970E94991CED81FE8161915D
:104CA000FE83ED83C6010E94991CED85FE8561910E
:104CB000FE87ED87C8010E94991CEB85FC856191F8
:104CC000FC87EB87C80140960E94991C6701F2E0BF
:104CD000CF1AD1088F81988583569F4F9A878987ED
:104CE000AF80B8841401F1014190519061907190AE
:104CF0001F0120E030E0A901C301B2010E94B030E1
:104D000020E030E040E05FE387FDA3C0C301B201D3
:104D10000E949C2F0E947A30C6010E94991CE9854E
:104D2000FA8561917191FA87E987C5010E94E51CB6
:104D3000FFEFCF1ADF0A22E0A20EB11CEC14FD0433
:104D400091F66AE070E080E090E00E94991282E0C3
:104D5000E80EF11C98E0890E911CEF81F8853496DD
:104D6000F887EF830F5F1F4FE115F14009F085CF02
:104D700088E199E20FB6F894A895809360000FBE81
:104D8000909360008FEE93E10E94DB1B6FE185E161
:104D900091E00E94991C90E2C92ED12C1D82512CC9
:104DA000412C8D81682E712C85E191E00E94FA1CC6
:104DB000082E000C990B681679060CF0F8C0660CEA
:104DC000771CF301E557FD4FA080B180F5010190FC
:104DD0000020E9F78F01015011090A191B09098701
:104DE000C20101969C878B876FEF600F815C9E4F9D
:104DF0000E94991C1127180191E0291A31082A0CE8
:104E00003B1CF1018081893409F44FC583E193E0B3
:104E10000E94CA1B45018FEB481A8EEF580AF20117
:104E2000EA19FB09FE87ED87ED84FE84E80CF91C86
:104E3000882D8A19F9858F1788F4F40181914F0123
:104E40000E948811F40131976081C7010E94991C6A
:104E5000EBCFC301B2010E949B2F5CCFAB84BC841B
:104E6000A00EB11E040D151D0E94D71BF301E35BBC
:104E7000FD4F80809180F4016491C8010E94991CCB
:104E80008091AA04811160C0F1018081893409F008
:104E90005BC0B601C5018F5B9E4F0E94E51CF4010B
:104EA00084918093AF0407E024E1181634F404E001
:104EB00028E0813011F404E020E12093B404082EAE
:104EC000000C990B97FF03C0919581959109289F3C
:104ED000A001299F500D1124040F152F111D0F5FE4
:104EE0001F4F612C712C84E50E9488106D2D8CE081
:104EF00096E00E945D146C2D8CE096E00E945D149B
:104F00002601F0E14F0E511C73016C187D08680CEE
:104F1000791CC11420E2D206F9F40E94D71B85EA5D
:104F200093E10E94DB1B81E08093AA0402E0E02E63
:104F300002E310E020E030E048EC52E460E070E092
:104F400080E291E40E94A61E2501F3E04F0E511C61
:104F50002D812F5F2D8325CF9FEFE91AF90AF301E9
:104F6000EC0DFD1D64918CE096E00E945D14EFEF66
:104F7000CE1ADE0A01501109101611064CF4C601B2
:104F80008F719927892B21F0C414D50409F0C1CF62
:104F90008CE096E00E948C146AE070E080E090E083
:104FA0000E949912101611067CF637019CCFB601AB
:104FB00086E191E00E94E51C0E94D71B8FED93E1F2
:104FC0000E948D1160E270E080E090E00E94371C4A
:104FD0008EE70E948811B60190E080E04AE00E94CE
:104FE000F31B8FE20E94881160E070E280E090E0A5
:104FF0000E94371C8FEC93E10E94DB1BA89587E48D
:1050000094E10E948D1114ECE12E14E0F12E00E1E8
:1050100010E0C8010E94FA1CF70181937F010F5F25
:105020001F4F00321105A9F71092DE041092DD0423
:1050300010926C0510926B050E94FF1289E990E1B5
:105040009093C3048093C2048AE990E19093C104D1
:105050008093C00440E860E08BEE96E00E94D41597
:105060006AE070E080E090E00E94991240E050E039
:105070006AE774E48BEE96E00E94C81680E498E735
:10508000ADE7B1E08093EE069093EF06A093F006B3
:10509000B093F10683E191E00E94FA1C182F84E19D
:1050A00091E00E94FA1C90E0982F8827810F911DB3
:1050B000092E000CAA0BBB0B8093D8049093D90443
:1050C000A093DA04B093DB04885D9945A109B10986
:1050D00085399141A105B10560F088EA91E6A0E02B
:1050E000B0E08093D8049093D904A093DA04B093ED
:1050F000DB046091D8047091D9048091DA04909116
:10510000DB040E94D62D20E030E04AE754E40E9400
:1051100008306B017C014B015C01AC019B010E94DA
:105120000531882309F40BC18AE293E00E94CA1B6F
:1051300083E494E10E94DB1B2091D8043091D904D0
:105140004091DA045091DB04A8EEB3E00E94282FCE
:105150000E94FC1C10E040E050E1612F8BEE96E0D5
:105160000E9401161F5F1031B1F788E19FE00FB672
:10517000F894A895809360000FBE9093600064E659
:1051800070E080E090E00E94991287EA90E20E942D
:10519000DB1B01E023E042E06BE680911E070E94EA
:1051A0007F1B00E022E044E06BE180911E070E943B
:1051B0007F1B22E044E06CE180911E070E947F1B70
:1051C00020E046E06BE680911E070E949E180E9438
:1051D000D118843311F08C3091F611E01B8321E05B
:1051E00047E06BE680911E070E949E1864E670E01F
:1051F00080E090E00E94991287E08B8307E023E033
:1052000042E06AE680911E070E947F1B64E670E020
:1052100080E090E00E9499121B839E012D5F3F4F1A
:1052200041E06BE680911E070E9498151B829E014B
:105230002D5F3F4F41E068E380911E070E94981563
:105240001B829E012D5F3F4F41E063E280911E076C
:105250000E9498151B829E012D5F3F4F41E06CE13B
:1052600080911E070E94981580E88B839E012D5F18
:105270003F4F41E067E380911E070E9498151B8312
:105280009E012D5F3F4F41E06BE680911E070E941B
:10529000981584E08B839E012D5F3F4F41E069E1CB
:1052A00080911E070E9498151B839E012D5F3F4F22
:1052B00041E06AE180911E070E94981540E06DE68A
:1052C00080911E070E94C41540E06EE680911E0783
:1052D0000E94C41580E190E00E94AA2C5C0180E14C
:1052E00090E00E94AA2C2C01312CE12CD12CC12C55
:1052F000F6EF2F2E612C77247394C6014096F22C82
:10530000FC18873F9B4010F4E0E1FE2EC3018E198C
:105310009109F816190619F014F0FE2CF194D20137
:1053200090E080E096012B5A3B4E8F1508F097C015
:10533000F901E80FF91FE491ED930196F6CF2601EC
:105340003701E89477F82FEF3FEF4FE75FE7C301AE
:10535000B2010E94053181110DC02FEF3FEF4FE7E1
:105360005FE7C301B2010E94CF2D18161CF48EE234
:1053700093E0DCCE2FEF3FEF4FE75FE4C701B601CC
:105380000E94B03018161CF482E393E0CFCE2FEFCA
:105390003FEF4FE75FECC701B6010E94CF2D87FDBD
:1053A000F3CF20E030E0A901C701B6010E94CF2D64
:1053B00087FF09C08DE20E94881146015701B7FAA4
:1053C000B094B7F8B0942AE037ED43EA5BE3C50147
:1053D000B4010E949C2F4B015C010E9481306B0143
:1053E0007C010E94D42D9B01AC01C501B4010E9437
:1053F0009B2F4B015C014AE0C701B6010E94F31BE1
:105400008EE20E94881120E030E040E251E4C501C4
:10541000B4010E94352E4B015C010E9481306B016A
:10542000F12CE12C4AE0C701B6010E94F31BC70131
:10543000B6010E94D42D9B01AC01C501B4010E94AC
:105440009B2F20E030E040E251E40E94352E0E9484
:10545000813090E080E04AE00E94F31B69CE920127
:105460004F2D6FE680911E070E9498158F2C912C6E
:10547000A114B10409F4D9C1432D4F716DE6809197
:105480001E070E94C4154E2D6EE680911E070E94D5
:10549000C41508EE13E095014F2D6FE680911E07AD
:1054A0000E94F717A401B501C2010E942A33892B7B
:1054B00009F4BBC1C5010E94462DC2010E94462DC0
:1054C00081E08093D4040FB6F894A8958091600091
:1054D000886180936000109260000FBEEE24E39418
:1054E000FE2C10E0C70101970E94FA1CC82EC701CC
:1054F0000E94FA1C90E0982F8827C80ED92ED11C44
:10550000133008F0ABC10E94D11865E06E0D8833EE
:1055100020F0612F660F610F695880911E07DC82B1
:10552000CB82AE014D5F5F4F0E9473151F5F92E00B
:10553000E90EF11C1630B1F61091D4041111A0C17E
:10554000EE24E39410E000E020E030E048E452E490
:1055500060E070E080E291E40E94A61E8CE690E29A
:105560000E94DB1B0E943D16182F0E94E71B1F7D27
:10557000193509F056C008E512E020E030E048ECAB
:1055800053E460E070E080E791E40E94A61E8DE5A0
:1055900090E20E94DB1B00E010E028EC31E440E0E8
:1055A00050E060EC7EE38BE30E94F41800E010E032
:1055B00021EE32E440E050E060EC7EE383E40E94C0
:1055C000F41847E7D42E56E0E52EF12CE2E0EF1573
:1055D00008F44EC10E94D1186E2D883308F06D2D4D
:1055E00008EE13E02FE137E042E080911E070E94B1
:1055F000F71760911F077091200776276727762796
:105600008F8198850E94E51CF394E394E394F3E082
:10561000DF0E8F819885029698878F8396E0F91226
:10562000D5CF36E0E32E06E410E020E030E048E499
:1056300052E460E070E080E991E40E94A61E21E05F
:1056400047E06AE680911E070E949E1880EB90E278
:105650000E94DB1B86E393E00E94CA1B83E090E07C
:105660000E94FA1C682F880F770B880B990B0E94F9
:10567000371C8DE493E00E94CA1B0E94D71B97E061
:10568000C92ED12C20E0A22E20E0B22EFF24F394CC
:105690006AE070E080E090E00E9499128091DC0462
:1056A0008111B7C081E10E94F1118C01892B09F0B1
:1056B000B0C083E090E00E94FA1C0E948816912CF2
:1056C000812C65E070E080E090E00E94991281E119
:1056D0000E94F111892BD9F30E9474122B0181E1F0
:1056E0000E94F111892BD9F70E947412641975096F
:1056F0008114910411F0060F171FEFEF8E1A9E0A06
:10570000F8E08F169104E9F62091D8043091D9047D
:105710004091DA045091DB04ACEDB5E00E94282FF3
:105720002B013C01C801B6010E943F329B01770F5B
:10573000440B550BC301B2010E94092F29013A0104
:10574000CA01B9010E94D62D20E030E040E05FE3BD
:1057500077FCA5C00E949C2F0E947A302B013C014F
:105760000E94371C0E94D71B4201D301C201885DF1
:105770009945A109B10985399141A105B10508F003
:1057800044C08091D6049091D704092E000CAA0B36
:10579000BB0B481659066A067B0609F083C0809148
:1057A000D5048F5F8093D504823079F5B20183E10F
:1057B00091E00E94E51C83E793E00E94CA1BC301AD
:1057C000B2010E94371C80E893E00E94CA1B83E06C
:1057D000E82E02E310E020E030E048EC52E460E024
:1057E00070E080EA91E40E94A61EF092DC04A8EE2C
:1057F000B3E0A30192010E94282F0E94FC1C83E0C9
:1058000090E00E94FA1C0E9488169092D704809221
:10581000D604A114B10409F43BCF0E9405118823DA
:1058200009F436CF0E94000033CFC80CD91CEF0C0E
:1058300086EFC8168BE0D806D8F5E11001C0339486
:10584000432D4F716DE680911E070E94C4154E2DA9
:105850006EE680911E070E94C4154FCD80911E07F1
:10586000DA82C982AE014F5F5F4F6CE06E0D5CCE95
:1058700008EE13E02FE137E042E067E06E0DB5CEB1
:105880008BE490E20E948D11612F70E090E080E047
:105890004AE00E94F31B89E20E94E71BD7CE0E94D8
:1058A0009B2F5ACF1092D504B0CF8FE193E0B0CAAE
:1058B000C5010E94462DC2010E94462D80E094E061
:1058C0009A838983AE014F5F5F4F60E780911E0727
:1058D0000E94731588E18B839E012D5F3F4F41E04D
:1058E0006BE180911E070E94981580EC8B839E01CE
:1058F0002D5F3F4F41E06AE680911E070E94981598
:1059000082E08B839E012D5F3F4F41E068E38091F1
:105910001E070E94981521E042E06AE680911E076A
:105920000E949E1820E047E06AE680911E070E94D0
:105930009E188CE190E09093300780932F0780E0D1
:10594000C0CD8091310790913207009711F00C94EF
:10595000462D08950F931F93CF93DF9382309105C7
:1059600010F482E090E0E0913907F0913A0730E0DE
:1059700020E0B0E0A0E0309799F42115310509F45A
:105980004AC0281B390B24303105D8F58A819B8108
:105990006115710589F1FB0193838283FE0111C0BA
:1059A000408151810281138148175907E0F048175F
:1059B000590799F4109761F012960C931297139669
:1059C0001C933296CF01DF91CF911F910F910895D3
:1059D0000093390710933A07F4CF2115310551F0A0
:1059E0004217530738F0A901DB019A01BD01DF011D
:1059F000F801C1CFEF01F9CF90933A0780933907AF
:105A0000CDCFFE01E20FF31F819391932250310914
:105A100039832883D7CF2091370730913807232B3C
:105A200041F42091590130915A0130933807209365
:105A3000370720915701309158012115310541F464
:105A40002DB73EB740915B0150915C01241B350B93
:105A5000E0913707F0913807E217F307A0F42E1B07
:105A60003F0B2817390778F0AC014E5F5F4F2417C2
:105A7000350748F04E0F5F1F5093380740933707A4
:105A8000819391939FCFF0E0E0E09CCFCF93DF93A1
:105A90000097E9F0FC01329713821282A091390736
:105AA000B0913A07ED0130E020E01097A1F4208199
:105AB0003181820F931F20913707309138072817C3
:105AC000390709F061C0F0933807E0933707DF9199
:105AD000CF910895EA01CE17DF07E8F54A815B818F
